:020000040800F2
:100000000050002099240008C1210008C3210008E5
:10001000C5210008C7210008C92100080000000010
:10002000000000000000000000000000CB210008DC
:10003000CD21000800000000CF210008D1210008D8
:10004000E1240008E1240008E1240008E12400087C
:10005000E1240008E1240008E1240008E12400086C
:10006000E1240008E1240008E1240008D52100086B
:10007000E1240008E1240008E1240008E12400084C
:10008000E1210008ED210008E1240008E124000836
:10009000F9210008E1240008E1240008E124000817
:1000A0000522000811220008152200081922000864
:1000B0001D22000829220008E1240008352200083A
:1000C00041220008E1240008E1240008E12400089E
:1000D000E12400084D220008E1240008E124000882
:1000E000E1240008E1240008E124000800000000E9
:1000F0000000000000000000000000000000000000
:0C01000000000000000000005FF808F1A3
:1001100010B5054C237833B9044B13B10448AFF341
:1001200000800123237010BD0402002000000000A5
:100130003085000808B5034B1BB103490348AFF3F2
:10014000008008BD00000000080200203085000883
:10015000034613F8012B002AFBD1181A0138704707
:1001600070B54FF0FF0C4CF4E06C1CEA11541DBF4D
:100170001CEA135594EA0C0F95EA0C0F00F0DEF818
:100180002C4481EA030621EA4C5123EA4C5350EAFD
:10019000013518BF52EA033541F4801143F480134E
:1001A00038D0A0FB02CE4FF00005E1FB02E506F0DF
:1001B0000042E0FB03E54FF00006E1FB03569CF034
:1001C000000F18BF4EF0010EA4F1FF04B6F5007F3A
:1001D00064F5407404D25FEA4E0E6D4146EB0606AC
:1001E00042EAC62141EA55514FEAC52040EA5E5035
:1001F0004FEACE2EB4F1FD0C88BFBCF5E06F1ED8DF
:10020000BEF1004F08BF5FEA500E50F1000041EB15
:10021000045170BD06F0004646EA010140EA0200C2
:1002200081EA0301B4EB5C04C2BFD4EB0C0541EAE4
:10023000045170BD41F480114FF0000E013C00F3F9
:10024000AB8014F1360FDEBF002001F0004170BD1D
:10025000C4F10004203C35DA0C341BDC04F1140436
:10026000C4F1200500FA05F320FA04F001FA05F2C2
:1002700040EA020001F0004221F0004110EBD3708F
:1002800021FA04F642EB06015EEA430E08BF20EABB
:10029000D37070BDC4F10C04C4F1200500FA04F35E
:1002A00020FA05F001FA04F240EA020001F00041F0
:1002B00010EBD37041F100015EEA430E08BF20EA63
:1002C000D37070BDC4F1200500FA05F24EEA020EAB
:1002D00020FA04F301FA05F243EA020321FA04F0DA
:1002E00001F0004121FA04F220EA020000EBD37091
:1002F0005EEA430E08BF20EAD37070BD94F0000F91
:100300000FD101F00046400041EB010111F4801FC4
:1003100008BF013CF7D041EA060195F0000F18BF75
:10032000704703F00046520043EB030313F4801FB1
:1003300008BF013DF7D043EA0603704794EA0C0F6B
:100340000CEA135518BF95EA0C0F0CD050EA410681
:1003500018BF52EA4306D1D181EA030101F00041FE
:100360004FF0000070BD50EA410606BF1046194626
:1003700052EA430619D094EA0C0F02D150EA013632
:1003800013D195EA0C0F05D152EA03361CBF104673
:1003900019460AD181EA030101F0004141F0FE4112
:1003A00041F470014FF0000070BD41F0FE4141F496
:1003B000780170BD81F0004102E000BF83F000438E
:1003C00030B54FEA41044FEA430594EA050F08BFF0
:1003D00090EA020F1FBF54EA000C55EA020C7FEAB4
:1003E000645C7FEA655C00F0E2804FEA5454D4EB31
:1003F0005555B8BF6D420CDD2C4480EA020281EAFB
:10040000030382EA000083EA010180EA020281EA32
:100410000303362D88BF30BD11F0004F4FEA013184
:100420004FF4801C4CEA113102D0404261EB410193
:1004300013F0004F4FEA03334CEA133302D0524219
:1004400063EB430394EA050F00F0A780A4F10104D5
:10045000D5F1200E0DDB02FA0EFC22FA05F280180F
:1004600041F1000103FA0EF2801843FA05F35941F5
:100470000EE0A5F120050EF1200E012A03FA0EFC74
:1004800028BF4CF0020C43FA05F3C01851EBE3719E
:1004900001F0004507D54FF0000EDCF1000C7EEBBB
:1004A00000006EEB0101B1F5801F1BD3B1F5001FF9
:1004B0000CD349085FEA30004FEA3C0C04F1010418
:1004C0004FEA445212F5800F80F09A80BCF1004F41
:1004D00008BF5FEA500C50F1000041EB045141EAC3
:1004E000050130BD5FEA4C0C404141EB0101013C8C
:1004F00028BFB1F5801FE9D291F0000F04BF01467B
:100500000020B1FA81F308BF2033A3F10B03B3F14C
:1005100020020CDA0C3208DD02F1140CC2F10C02DC
:1005200001FA0CF021FA02F10CE002F11402D8BF3A
:10053000C2F1200C01FA02F120FA0CFCDCBF41EA06
:100540000C019040E41AA2BF01EB0451294330BDD5
:100550006FEA04041F3C1CDA0C340EDC04F11404B2
:10056000C4F1200220FA04F001FA02F340EA030089
:1005700021FA04F345EA030130BDC4F10C04C4F1CF
:10058000200220FA02F001FA04F340EA03002946AF
:1005900030BD21FA04F0294630BD94F0000F83F4F9
:1005A000801306BF81F480110134013D4EE77FEADC
:1005B000645C18BF7FEA655C29D094EA050F08BF28
:1005C00090EA020F05D054EA000C04BF1946104609
:1005D00030BD91EA030F1EBF0021002030BD5FEA4D
:1005E000545C05D14000494128BF41F0004130BD75
:1005F00014F580043CBF01F5801130BD01F00045C9
:1006000045F0FE4141F470014FF0000030BD7FEA3B
:10061000645C1ABF194610467FEA655C1CBF0B4636
:10062000024650EA013406BF52EA033591EA030F4D
:1006300041F4002130BD00BF90F0000F04BF002145
:10064000704730B54FF4806404F132044FF0000578
:100650004FF0000150E700BF90F0000F04BF0021F1
:10066000704730B54FF4806404F1320410F0004557
:1006700048BF40424FF000013EE700BF42004FEA52
:10068000E2014FEA31014FEA02701FBF12F07F43CF
:1006900093F07F4F81F06051704732F07F4208BF86
:1006A000704793F07F4F04BF41F40021704730B58D
:1006B0004FF4607401F0004521F000411CE700BFD9
:1006C00050EA010208BF704730B54FF000050AE05C
:1006D00050EA010208BF704730B511F0004502D55D
:1006E000404261EB41014FF4806404F132045FEA5F
:1006F000915C3FF4D8AE4FF003025FEADC0C18BF08
:1007000003325FEADC0C18BF033202EBDC02C2F1F9
:10071000200300FA03FC20FA02F001FA03FE40EA8B
:100720000E0021FA02F11444BDE600BF4FEA410277
:1007300012F5001215D211D56FF47873B3EB625233
:1007400012D94FEAC12343F0004343EA505311F05A
:10075000004F23FA02F018BF404270474FF00000EC
:10076000704750EA013005D111F0004008BF6FF02A
:10077000004070474FF00000704700BF80F000401D
:1007800002E000BF81F0004142001FBF5FEA410369
:1007900092EA030F7FEA226C7FEA236C6AD04FEA69
:1007A0001262D2EB1363C1BFD218414048404140AE
:1007B000B8BF5B42192B88BF704710F0004F40F460
:1007C000000020F07F4018BF404211F0004F41F47C
:1007D000000121F07F4118BF494292EA030F3FD048
:1007E000A2F1010241FA03FC10EB0C00C3F120035B
:1007F00001FA03F100F0004302D5494260EB4000EA
:10080000B0F5000F13D3B0F1807F06D340084FEA54
:10081000310102F10102FE2A51D2B1F1004F40EB49
:10082000C25008BF20F0010040EA030070474900B1
:1008300040EB0000013A28BFB0F5000FEDD2B0FA4E
:1008400080FCACF1080CB2EB0C0200FA0CF0AABF71
:1008500000EBC25052421843BCBFD040184370470F
:1008600092F0000F81F4000106BF80F40000013215
:10087000013BB5E74FEA41037FEA226C18BF7FEAEC
:10088000236C21D092EA030F04D092F0000F08BF2E
:100890000846704790EA010F1CBF0020704712F015
:1008A0007F4F04D1400028BF40F00040704712F154
:1008B00000723CBF00F50000704700F0004343F0B9
:1008C000FE4040F4000070477FEA226216BF0846EF
:1008D0007FEA23630146420206BF5FEA412390EAB2
:1008E000010F40F4800070474FF0000304E000BFA8
:1008F00010F0004348BF40425FEA000C08BF704759
:1009000043F0964301464FF000001CE050EA01021C
:1009100008BF70474FF000030AE000BF50EA010231
:1009200008BF704711F0004302D5404261EB41011E
:100930005FEA010C02BF84460146002043F0B64343
:1009400008BFA3F18053A3F50003BCFA8CF2083A68
:10095000A3EBC25310DB01FA02FC634400FA02FC71
:10096000C2F12002BCF1004F20FA02F243EB020078
:1009700008BF20F00100704702F1200201FA02FCDA
:10098000C2F1200250EA4C0021FA02F243EB0200CD
:1009900008BF20EADC7070474FF0FF0C1CEAD05211
:1009A0001EBF1CEAD15392EA0C0F93EA0C0F6FD0D2
:1009B0001A4480EA010C400218BF5FEA41211ED0B0
:1009C0004FF0006343EA501043EA5111A0FB01319C
:1009D0000CF00040B1F5000F3EBF490041EAD37171
:1009E0005B0040EA010062F17F02FD2A1DD8B3F1ED
:1009F000004F40EBC25008BF20F00100704790F05C
:100A0000000F0CF0004C08BF49024CEA502040EAAD
:100A100051207F3AC2BFD2F1FF0340EAC250704773
:100A200040F400004FF00003013A5DDC12F1190FB1
:100A3000DCBF00F000407047C2F10002410021FA23
:100A400002F1C2F1200200FA02FC5FEA310040F13B
:100A5000000053EA4C0308BF20EADC70704792F0B4
:100A6000000F00F0004C02BF400010F4000F013AEC
:100A7000F9D040EA0C0093F0000F01F0004C02BFE7
:100A8000490011F4000F013BF9D041EA0C018FE756
:100A90000CEAD15392EA0C0F18BF93EA0C0F0AD05C
:100AA00030F0004C18BF31F0004CD8D180EA010082
:100AB00000F00040704790F0000F17BF90F0004F1B
:100AC000084691F0000F91F0004F14D092EA0C0FFD
:100AD00001D142020FD193EA0C0F03D14B0218BF90
:100AE000084608D180EA010000F0004040F0FE40D6
:100AF00040F40000704740F0FE4040F44000704772
:100B00004FF0FF0C1CEAD0521EBF1CEAD15392EAF0
:100B10000C0F93EA0C0F69D0A2EB030280EA010CE0
:100B200049024FEA402037D04FF0805343EA111179
:100B300043EA10130CF000408B4238BF5B0042F1D7
:100B40007D024FF4000C8B4224BF5B1A40EA0C007C
:100B5000B3EB510F24BFA3EB510340EA5C00B3EBAE
:100B6000910F24BFA3EB910340EA9C00B3EBD10F9C
:100B700024BFA3EBD10340EADC001B0118BF5FEAEE
:100B80001C1CE0D1FD2A3FF650AF8B4240EBC25017
:100B900008BF20F0010070470CF0004C4CEA5020D8
:100BA0007F32C2BFD2F1FF0340EAC250704740F427
:100BB00000004FF00003013A37E792F0000F00F019
:100BC000004C02BF400010F4000F013AF9D040EA97
:100BD0000C0093F0000F01F0004C02BF490011F42B
:100BE000000F013BF9D041EA0C0195E70CEAD15323
:100BF00092EA0C0F08D142027FF47DAF93EA0C0F0A
:100C00007FF470AF084676E793EA0C0F04D14B02ED
:100C10003FF44CAF08466EE730F0004C18BF31F09F
:100C2000004CCAD130F000427FF45CAF31F0004399
:100C30007FF43CAF5FE700BF4FEA4002B2F1FE4FE6
:100C40000FD34FF09E03B3EB12620DD94FEA00238E
:100C500043F0004310F0004F23FA02F018BF404267
:100C600070474FF00000704712F1610F01D142024E
:100C700005D110F0004008BF6FF0004070474FF002
:100C8000000070470022F0B5084BD4B2A14202F137
:100C9000010200D8F0BD5D791E686F1C5F71045DB4
:100CA00074555C799D792C405C71EEE7540400200A
:100CB00013B514461A46CDE9001401230146024833
:100CC00002F030FB02B010BD280600200122014BCB
:100CD0001A7070474B0200200122014B1A707047B6
:100CE0004A0200200368184A30B593420ED1174AD1
:100CF00013780133DBB2282B01BF00231370144A91
:100D0000137808BF43F08003137030BDB3F1804FF8
:100D1000FBD101220F4910480B78104CE2541344C8
:100D2000027803F00F03013A12F0FF0208BF052515
:100D30000B7003BFE254013303F00F03027004BFD2
:100D400005700B70E1E700BF002C01407C0400201F
:100D50004C0200202C020020000000202D02002068
:100D600070B50268037A0C46D15C0546A1F1F00328
:100D7000042B00F2FE80DFE803F0030D1C68B700CF
:100D8000F0210222204601F088FA0D21204601F0D0
:100D9000CCFA08E0F1210D22204601F07EFA20462F
:100DA000774901F0D5FA2046617ABDE8704001F03C
:100DB000BCBA0D22F221204601F06FFA714B724D40
:100DC000B3F9001020462980C9B201F0AEFA697863
:100DD000204601F0AAFA6D4B2046B3F90010298095
:100DE000C9B201F0A2FA6978204601F09EFA684B78
:100DF0002046B3F900102980C9B201F096FA69784B
:100E0000204601F092FA634B2046B3F90010298086
:100E1000C9B201F08AFA6978204601F086FA5E4B81
:100E20002046B3F900102980C9B201F07EFA697832
:100E3000204601F07AFA594BB3F900102980204678
:100E4000C9B201F072FA6978A0E7554E1122F32178
:100E5000204601F022FA4C4D318820462980C9B243
:100E600001F063FA6978204601F05FFA7188204644
:100E70002980C9B201F059FA6978204601F055FA83
:100E8000B18820462980C9B201F04FFA697820461E
:100E900001F04BFAF18820462980C9B201F045FAE9
:100EA0006978204601F041FA318920462980C9B28B
:100EB00001F03BFA6978204601F037FA7189204643
:100EC0002980C9B201F031FA6978204601F02DFA83
:100ED000B18920462980C9B201F027FA69782046F5
:100EE00001F023FAF189A9E70222F421204601F05A
:100EF000D4F90D21204601F018FA617A204601F05C
:100F000014FA00220121284601F047FA1E4C002263
:100F100001212070284601F040FA00220121607072
:100F2000284601F03AFA00220121A070284601F07B
:100F300034FAE0701B4B226801211A602846002217
:100F400001F02BFA002201212070284601F025FA39
:100F5000002201216070284601F01FFA0022A070D3
:100F60000121284601F019FAE07022680E4B1A6040
:100F700070BD0222204601F090F9FF2106E700BF74
:100F8000A89A0008480200205002002046020020D3
:100F90004402002042020020400200203E020020C5
:100FA0006C0400202402002028020020F0B5144C1C
:100FB000C1B0227963799A4214D0204601F0FAF93F
:100FC00018B120460F49FFF7CBFE6D460024284696
:100FD0000C4BD9791F6893F806C0E2B2914203D84E
:100FE00006F038FC41B0F0BD1E7A0134721CD2B25A
:100FF0001A72BE5D02EA0C0205F8016B1A72ECE788
:101000005404002060040020094B10B51A68012325
:10101000084C21788B40934304D04FF4005106488C
:1010200001F071FE2378013303F01F03237010BD1C
:10103000040000202202002000100140154B10B4D3
:101040001A78D20923D0144C1A7821781348013920
:1010500011F0FF0108BF022122F080021A7002780D
:1010600004BF2170197802F1FF32D2B208BF41F0FB
:101070004001027014BF2170197042B90A22027037
:101080001A7810BC42F020021A70FFF7BDBF10BCE6
:10109000704700BF4C020020010000200200002029
:1010A0001FB514461A464FF0FF330091CDE90143B6
:1010B00001460123024802F0A5F804B010BD00BFAC
:1010C00028060020FFF7ECBF7FB50024012000F0C8
:1010D00071FD2146402320221E20009400F08EFE48
:1010E0002046162380221421009400F087FE40231E
:1010F000522221465020009400F080FE864D214669
:10110000282000F02FFE854902A806F0AFFD95E8E3
:101110000E00009402A800F00FFE2146552000F0BA
:1011200021FE7F4902A806F0A1FD95E80E0000947B
:1011300002A800F001FE1921282000F013FE08216A
:10114000784E794B794D32460DEB0100B3F9003002
:1011500006F022FD95E80E00009402A800F0ECFDD8
:101160001921552000F0FEFD0821714B32460DEB90
:101170000100B3F9003006F00FFD95E80E00009471
:1011800002A800F0D9FD2521282000F0EBFD082160
:10119000684B32460DEB0100B3F9003006F0FCFC61
:1011A00095E80E00009402A800F0C6FD2521552008
:1011B00000F0D8FD0821604B32460DEB0100B3F979
:1011C000003006F0E9FC95E80E00009402A800F05B
:1011D000B3FD3121282000F0C5FD0821574B3246D0
:1011E0000DEB0100B3F9003006F0D6FC95E80E00D7
:1011F000009402A800F0A0FD3121552000F0B2FDBE
:1012000008214F4B32460DEB0100B3F9003006F0D8
:10121000C3FC95E80E0040F6FA754A4E009402A809
:1012200000F08AFD33880322B3FBF5F3A3EB03132D
:101230005B003C3310463C21009403F0FE0300F0B9
:1012400097FD73880622B3FBF5F3A3EB03135B0052
:101250003C3310463C21009403F0FE0300F088FD6F
:10126000B3880922B3FBF5F3A3EB03135B003C3314
:1012700010463C21009403F0FE0300F079FDF38852
:101280000C22B3FBF5F3A3EB03135B003C331046D6
:101290003C21009403F0FE0300F06AFD33890F2225
:1012A000B3FBF5F3A3EB03135B003C3310463C2187
:1012B000009403F0FE0300F05BFD73891222B3FB80
:1012C000F5F3A3EB03135B003C3310463C21009481
:1012D00003F0FE0300F04CFDB3891522B3FBF5F3D8
:1012E000A3EB03135B003C3310463C21009403F056
:1012F000FE0300F03DFDF3891822B3FBF5F3A3EBE9
:1013000003135B003C333C211046009403F0FE03C2
:1013100000F02EFD04B070BD48850008289A000832
:101320002C9A0008309A00084802002054850008D2
:101330004202002046020020400200204402002019
:101340003E0200206C04002013B5214C2378032BAF
:101350003CD8DFE803F0021318251E4A1E49137813
:101360000978994208D01D49C95C29B1032101338C
:1013700003F00F032170137002B010BDFFF7A4FE3D
:1013800002232370F8E7164802F0BEFF2028F3D1AD
:1013900000F01CFC0028EFD00023124A1370F0E785
:1013A0000F4802F0B1FF2028E6D100F0D5FA00285E
:1013B000E2D00D4B0D4A01930D4B0E4900930E48A0
:1013C0000E4B00F0ADFB00230D4AE7E70023D8E702
:1013D00021020020200200202C0200202D020020EB
:1013E000280600204B0200203E020020440200207C
:1013F0004002002046020020480200204202002055
:101400004A02002042F20F706421084B1A68084B10
:1014100042431B68B2FBF1F24343B3FBF1F30549CE
:1014200009684A638A63CB630B6470472402002017
:1014300028020020C804002010B594B01422002116
:101440000CA806F0DFFB142200210DEB020006F0D1
:10145000D9FB1022002101A806F0D4FB02244FF48E
:1014600080330122CDE91143CDE90A234FF4E01383
:101470000AA80E92139303F0EDFD08B172B6FEE7D1
:101480000F23CDE905344FF480630790CDE9083090
:10149000214605A803F0A0FF08B172B6FEE71223AB
:1014A00001934FF40043CDE9033001A804F050F854
:1014B00008B172B6FEE714B010BD000080B5AA4DA9
:1014C00094B001F033F8FFF7B7FF102200210DA808
:1014D00006F098FBAB69002243F01003AB61AB69E7
:1014E0004FF4005103F010030293029BAB699F4835
:1014F00043F02003AB61AB69002403F020030393A6
:10150000039BAB69012643F00403AB61AB6902277F
:1015100003F004030493049BAB6943F00803AB613D
:10152000AB6903F008030593059B01F0E7FB00227C
:101530004FF400718E4801F0E1FB4FF400538B48EB
:101540000DA9CDE90D36CDE90F4701F003FB4FF4AE
:10155000004387480DA9CDE90D340F9401F0FAFA44
:101560004FF4007382480DA9CDE90D36CDE90F4740
:1015700001F0F0FA6B69224633436B616B692146D7
:1015800033400B200193019B01F028F90B2001F05F
:1015900055F922462146102001F020F9102001F0D3
:1015A0004DF922462146112001F018F9112001F0D1
:1015B00045F9704D704B28462B604FF46023CDE900
:1015C0000D440F94AC602C732C75EB616C602E6134
:1015D00001F074F808B172B6FEE7CDE90D060F9080
:1015E0000DA9284600F0C6FF034608B172B6FEE713
:1015F00062486349634AC0E90233C0E900124FF40C
:101600008042C0E90633C0E90423036201F052FDC1
:10161000054608B172B6FEE747260146102208A823
:1016200006F0F0FA142229460DA806F0EBFA564C03
:10163000564B2046C4E90036F923CDE90655C4E9E6
:101640000335C4E90555A56004F066F908B172B622
:10165000FEE74FF48057204608A9089704F042FAA5
:1016600008B172B6FEE7CDE90D000DA9204604F0E1
:1016700032FB08B172B6FEE7CDE9060006A92046A6
:1016800004F0AEFB044608B172B6FEE70146102234
:1016900008A806F0B7FA142221460DA806F0B2FAFF
:1016A0004FF080433A4DCDE90644C5E9003644F693
:1016B0001F632846C5E90334AC60AC6104F02CF923
:1016C00008B172B6FEE7284608A9089704F00AFA9E
:1016D00008B172B6FEE7CDE90D000DA9284604F069
:1016E000FAFA08B172B6FEE70023294806A9CDE947
:1016F000063304F075FB054608B172B6FEE70146F5
:10170000142208A806F07EFA1C2229460DA8214CB6
:10171000CDE9065506F076FA1F4B2046C4E90035A0
:101720004FF6FF73A560C4E90335A56104F0F4F832
:1017300008B172B6FEE7204604F01AF908B172B695
:10174000FEE7CDE9080008A9204604F0C4FA08B174
:1017500072B6FEE7CDE9060006A9204604F040FB7C
:101760000246D8B172B6FEE70010024000100140F8
:10177000000C0140C0060020002401402806002083
:1017800000540040801A060058050020002C01403B
:1017900010050020C80400200004004060230F90C2
:1017A000CDE90D3011900DA9204604F039F908B1AA
:1017B00072B6FEE7042220460DA904F031F908B103
:1017C00072B6FEE7082220460DA904F029F908B1F7
:1017D00072B6FEE70C2220460DA904F021F9054659
:1017E00008B172B6FEE7204600F074FC4FF4E13316
:1017F0002848294AC0E90255C0E900230C230561A5
:10180000C0E90535C56104F083FB08B172B6FEE797
:1018100005F0AAFF214806F033F8214803F086FFBF
:10182000204803F083FF204803F080FF00211E487A
:1018300004F0D4FA04211C4804F0D0FA08211A4814
:1018400004F0CCFA0C21184804F0C8FA01224FF435
:101850000051164801F052FA154800F03BF81548BF
:1018600000F03EF8144800F041F800F05DF8134B2A
:10187000134A1449144800F003FE0022134B1A7057
:10188000FFF7DCFBFFF792FBFFF7BCFDFFF75CFD0A
:10189000F6E700BF8004002000380140850C0008F6
:1018A0005805002010050020C80400200010014049
:1018B0004A020020C5100008B10C000854030020A3
:1018C0005402002060040020540400204C02002038
:1018D00072B6FEE7014B1860704700BF1407002086
:1018E000014B1860704700BF10070020014B1860C3
:1018F000704700BF0C070020044A10B414680B4660
:10190000A44601460122D02010BC604710070020E9
:101910001346044A10B41468CAB2A446014610BC67
:10192000D02060470C070020002307B56B210DF184
:1019300007008DF80730FFF7DFFF0DF107001C21CE
:10194000FFF7DAFF1B210DF10700FFF7D5FF03B00A
:101950005DF804FB000000002DE9F041644B654A8E
:101960001868117803782BB9012900F09E800020B7
:10197000BDE8F08100230129037000F09680022960
:10198000F5D1012111705C4A10885788C0BA968839
:1019900015895489B2F80C8000F5E172B2F5617FC7
:1019A000FFBAF6BAEDBAE4BA98FAB8F813D9FEF766
:1019B0009FFF4FF06251FEF7EFFFFEF75FFE4AA375
:1019C000D3E90023FEF7CCFB4C4B0022FEF7C8FB0B
:1019D000FEF7ACFE03B24A4A138007F5E173B3F594
:1019E000617F6AD93846FEF783FF4FF06251FEF7F8
:1019F000D3FFFEF743FE3CA3D3E90023FEF7B0FB81
:101A000000223E4BFEF7ACFBFEF790FE00B23D4BD2
:101A1000188006F5E173B3F5617F50D93046FEF7C3
:101A200067FF4FF06251FEF7B7FFFEF727FE2EA3C8
:101A3000D3E90023FEF794FB0022304BFEF790FB26
:101A4000FEF774FE00B2304B188005F5E173B3F574
:101A5000617F36D92846FEF74BFF2C49FFF750F837
:101A60002B49FEF799FFFFF7E7F800B2294B1880E2
:101A700004F5AF73B3F52F7F25D92046FEF738FF65
:101A80002249FFF73DF82249FEF786FFFFF7D4F819
:101A900000B2214B214C188008F5AF73B3F52F7FAE
:101AA00013D800232380012062E702230E21137044
:101AB00011483B22FFF72CFF59E70020A7E7002041
:101AC000C1E70020D2E70020E3E74046FEF710FF21
:101AD0000E49FFF715F80E49FEF75EFFFFF7ACF869
:101AE0002080E0E7AFF300801F85EB51B89E2340D4
:101AF000140700202C000020F006002000005940B0
:101B00000807002006070020040700200000034308
:101B10000000C8420207002000070020FE06002047
:101B200070B5DDE9045418B10E4EB6F900600680B8
:101B300019B10D48B0F9000008801AB10B49B1F98C
:101B4000001011801BB10A4AB2F900201A801DB1A1
:101B5000084BB3F900302B801CB1074BB3F90030B0
:101B6000238070BD0807002006070020040700201E
:101B70000207002000070020FE06002013B5064BD8
:101B80008DF807001C680122002378200DF1070161
:101B9000A04702B010BD00BF200B0020044B10B4C2
:101BA0001C68CAB2A44601464023782010BC604796
:101BB000200B002000284FF4806214BFFF21002179
:101BC000014806F01FB800BF2007002038B51C4BA5
:101BD0001C4C1A682378117819B9012B0AD00020FF
:101BE00038BD0021013B1170032BF8D8DFE803F06A
:101BF000020B1015144B18785038C0B2FFF7BEFF17
:101C000002232370EBE70020FFF7B8FF0323F8E778
:101C10001020FFF7B3FF0423F3E70B4D0B4B28789D
:101C2000802103EBC010FFF7B9FF01202B78207053
:101C30000133DBB2072B2B70D1D900232B70CFE7F8
:101C4000240B00202D000020180700202007002072
:101C5000030630B510D43F290ED80124CB08074D18
:101C600000EBC3102B5C01F0070104FA01F1A24262
:101C70000CBF0B438B432B5430BD00BF200700200B
:101C80002DE9F04F044689B008A800E90E009DF840
:101C90004830A4F120050293EBB25E2B48D8079B95
:101CA0000BB3234413F8206CDFF88890B9F800A038
:101CB0000AEB0603802B3BDCB9F802309DF815B027
:101CC000019303EB0B02402A32DC4FF000080BFBC0
:101CD00005F56D00C34509D85644A9F800602046B3
:101CE00009B0BDE8F08F9DF81460DDE70027069A83
:101CF000535B0493019B08EB0302D3B20393BE42F0
:101D000003D808F101080235E4E7049B07EB0A0059
:101D100003FA07F2130456BF029B029AB3FA83F246
:101D20000399C0B258BF5209FFF792FF0137E6E7A7
:101D30000024D4E71A07002070B586B003AC84E80D
:101D40000E009DF82860451E15F8010F40B1009661
:101D500094E80E00FFF794FF034628788342F3D0FF
:101D600006B070BD014B1880598070471A070020DB
:101D70002DE9F74F9046A8EB0009A3EB010AB9F152
:101D8000000F1E46B8BFC9F10009BAF1000FB8BF75
:101D9000CAF1000A804594BF4FF0FF330123054686
:101DA0000C468E4294BF4FF0FF3B4FF0010B404674
:101DB00031469DF830200093A9EB0A07FFF748FF52
:101DC000CAF10003454504D1B44202D103B0BDE8D5
:101DD000F08F214628460193FFF73AFF019B7900D7
:101DE000B3EB470FBFBF0098A7EB0A072D18EDB262
:101DF0008945C2BF5C444F44E4B2E3E72DE9F041BA
:101E00001446A042804628BFA046A042064638BFDE
:101E1000264699420C4628BF1C46994238BF1946AF
:101E20000F469DF81820BC4201D83F2C01D9BDE8CF
:101E3000F081454607E02B0607D428462146FFF7E8
:101E400007FF0135EDB2B542F5D90134E4B2EAE756
:101E50000E4B82B09A6942F001029A619A6902F0CF
:101E600001020092009ADA6942F08052DA61DB697D
:101E7000074A03F080530193019B536823F0E0630A
:101E800043F00073536002B0704700BF001002407F
:101E90000000014030B5054687B01022002102A89D
:101EA00005F0B0FE2A681C4B9A4233D103F56C430F
:101EB0009A691A4842F400729A619A6902A902F476
:101EC00000720092009A9A69154C42F004029A61DD
:101ED0009B69FF2203F004030193019B0323CDE9D7
:101EE000022300F037FE80204FF480720023C4E903
:101EF00003024FF480620B492046C4E90013C4E991
:101F00000523A360E36100F0BBFC08B1FFF7E0FC30
:101F10002C62656207B030BD00240140000801401A
:101F20007C0600200800024030B5054687B010222C
:101F3000002102A805F066FE2A682D4B9A4255D171
:101F40002C4CC021A3692C4843F00803A361A3696A
:101F500003F008030093009B1223CDE9021303232F
:101F600002A9059300F0F6FDE369802243F4001313
:101F7000E361E369214803F400130193019B00230B
:101F80001F4CC4E900032046C4E90323C4E9053318
:101F9000A360E36100F074FC08B1FFF799FC102323
:101FA000184AAC636562184CC4E900230023802200
:101FB0002046C4E90232C4E90433C4E9063300F020
:101FC0005FFC08B1FFF784FC00221F2011466C6300
:101FD000656200F003FC1F2000F030FC002220208E
:101FE000114600F0FBFB202000F028FC07B030BDBC
:101FF0000054004000100240000C014080000240EC
:10200000E40500206C000240A00500201FB5036815
:102010002D4A93422CD12D4B18209A6942F400622C
:102020009A6100229B69114603F400630193019BAE
:1020300000F0D4FB182000F001FC0022192011460A
:1020400000F0CCFB192000F0F9FB00221A20114609
:1020500000F0C4FB1A2000F0F1FB00221B20114607
:1020600000F0BCFB1B2005B05DF804EB00F0E6BB04
:10207000B3F1804F11D103F50433DA691C2042F02B
:102080000102DA610022DB69114603F001030293C9
:10209000029B00F0A3FB1C20E5E70D4A934210D100
:1020A0000A4B1D20DA6942F00202DA610022DB6984
:1020B000114603F002030393039B00F08FFB1D20E6
:1020C000D1E705B05DF804FB002C01400010024090
:1020D0000004004010B5044686B01022002102A87A
:1020E00005F090FD2268114B9A421CD103F5033391
:1020F0009A690F4842F008029A619B69332203F003
:1021000008030193019B022302A9CDE90223059351
:1021100000F020FD074A536823F4406343F0E06376
:1021200043F40063536006B010BD00BF00040040DC
:10213000000C01400000014010B5044686B010229A
:10214000002102A805F05EFD22681B4B9A4230D1A7
:1021500003F558439A69194842F480429A619A6992
:1021600002A902F480420092009A9A69002442F087
:1021700004029A619B694FF4007203F00403019317
:10218000019B0223CDE902230323059300F0E2FC27
:102190004FF48063094802A9CDE90234049400F0A9
:1021A000D9FC25202246214600F018FB252000F00E
:1021B00045FB06B010BD00BF0038014000080140DB
:1021C000FEE7FEE7FEE7FEE7FEE770477047704771
:1021D00000F0BEB9014800F025BC00BF7C0600201D
:1021E000014800F01FBC00BFA0050020014800F01E
:1021F00019BC00BFE4050020014802F017B900BF78
:10220000201A0020014803F0C0BA00BF5805002082
:10221000FFF7F8BFFFF7F6BFFFF7F4BF014803F081
:10222000B4BA00BF10050020014803F0AEBA00BFE9
:10223000C8040020014801F06FBB00BF2806002041
:10224000014801F0C1BF00BF28060020014803F08B
:10225000F5BE00BF800400200B4A0346116810B58C
:1022600009B90A491160106809490A4C0344091B5D
:102270008B4206D905F0CEFC0C2303604FF0FF30F3
:1022800010BD1360FCE700BF280B0020401E00209B
:10229000005000200004000070470346002030B5C5
:1022A000587258791C68451C5D7155251872255463
:1022B00058799C7901322040451C5D714E251C687F
:1022C000D2B2255458799C792040451C5D71452532
:1022D0001C68255458799C792040451C5D71522515
:1022E0001C68255458799C7920401C68451C5D71F8
:1022F000225458799C794A402040451C5D713A250A
:102300001C68255458799C7920401C68451C5D71D7
:10231000215458799C79204058710720D871587AF7
:10232000504080F03600587230BD034610B5C27977
:102330000132C2715A790068541C5C7181545A7917
:10234000987902405A715A7A81EA0200587210BD97
:10235000002337B58DF807309DF80730CB5C13B9F3
:10236000407A03B030BDC3799DF807400133C37193
:10237000437902685D1C45710C5DD45443798279C0
:1023800013409DF807204371531CDBB28DF80730D2
:102390008B5C427A53404372DEE7034610B5847982
:1023A000007A0144214018681972405C11440C40C5
:1023B0001C7210BD0021F0B50C46304E47793278C2
:1023C0000379BB4203D101B1327000204FE0072AEC
:1023D00014D8DFE802F0040B161D242E133C056808
:1023E000EB5C552B1FD101210A461CE00568ED5C12
:1023F0004E2D3DD0552D16D0013B037101210022F9
:1024000011E00268D25C452AF6D1012103220AE0DC
:102410000268D25C522AEFD10121042203E0026853
:102420000121D45C05220379857901332B400371A6
:10243000C6E701688279C95C3A29DDD101331340CE
:10244000037284F03603012107224372EBE7D0F8D0
:1024500000C0013C14F0FF04457A1CF8033002D0A0
:102460005D404572DFE7AB4205D101203470F0BD1D
:1024700001210222D7E722460121D4E72C0B0020BC
:1024800010B502604FF47F04002244600281C1E96C
:1024900000340A8110BD0000FFF7FEFE0B480C4916
:1024A0000C4A002302E0D458C4500433C4188C42B0
:1024B000F9D3094A094C002301E013600432A24217
:1024C000FBD305F0ADFBFEF7F9FF704700000020DD
:1024D00004020020F09A000804020020401E0020A0
:1024E000FEE7000038B50E4B05461A784FF47A73B4
:1024F000B3FBF2F30B4A1068B0FBF3F000F0ACF959
:10250000044658B90F2D09D8024629464FF0FF302E
:1025100000F064F92046044B1D6038BD0120FCE743
:10252000340000203000002038000020074A08B5A1
:102530001368032043F01003136000F03DF90F20EF
:10254000FFF7D0FFFFF784FC002008BD0020024009
:10255000034A044B11681B780B441360704700BF9B
:10256000300B002034000020014B1868704700BF7A
:10257000300B0020002373B5019390F824300446FB
:10258000012B6CD0012380F824304D680268062DA1
:10259000086805EB850322D81F26556B053B9E4036
:1025A00025EA060500FA03F32B43536309288B68D9
:1025B00000EB40054FF0070129D9D6681E3DA94020
:1025C00026EA0101AB400B43D360A0F11003012BBD
:1025D00025D90020002384F8243002B070BD0C2DD2
:1025E0004FF01F0509D8166B233B9D4026EA0505D1
:1025F00000FA03F32B431363D8E7D66A413B9D40AF
:1026000026EA050500FA03F32B43D362CEE71069EF
:10261000A94020EA0101AB400B431361D9E7114BFC
:102620009A4216D193681B02D3D49368102843F4BE
:1026300000039360CDD10C4B0C4A1B68B3FBF2F343
:102640000A2253430193019B002BC2D0019B013B03
:10265000F8E7A36A012043F02003A362BAE702204F
:10266000BBE700BF002401403000002040420F00C3
:1026700038B5036804469A68D10701D4002038BDF4
:102680009A6822F001029A60FFF76EFF0546236800
:102690009B68DB07F2D5FFF767FF401B0228F6D9DE
:1026A00023689B68DA07F2D5A36A012043F0100380
:1026B000A362E36A43F00103E362E0E7F8B504468E
:1026C00000286DD0836A23B9C36280F82430FFF7F5
:1026D000E1FB2046FFF7CCFFA36A13F0100361D1A2
:1026E00000285FD1A26A616822F4885222F00202B7
:1026F00042F00202E569A668A262227B2943B6F590
:10270000807F41EA420136D0771E7D427D412D0215
:10271000277D012F06D182BBA269013A45EA4232E8
:1027200042F400652268B6F5807F576827F4694750
:1027300045EA0705556097681D4D05EA070545EA16
:102740000105956001D0012E02D12369013B1B05D3
:10275000D56A25F470052B43D3629268154B13405C
:10276000994213D10023E362A36A23F0030343F0E9
:102770000103A362F8BD3546CAE7A26A42F020020F
:10278000A262E26A42F00102E262CBE7A36A23F0AE
:10279000120343F01003A362E36A43F00103E36210
:1027A0000120E7E7A36A43F01003A362F8E700BF44
:1027B000FDF7E1FFFE0E1FFF07490302CA6803F49D
:1027C000E06322F4E0621204120C134343F0BF638F
:1027D00043F40033CB60704700ED00E0154B30B59B
:1027E000DC68C4F30224C4F10703251D042B28BFB1
:1027F0000423062D4FF0FF3594BF0024033C05FA57
:1028000003F321EA0303A54022EA0502A3400028BE
:1028100043EA0203ACBF00F16040074A4FEA0313EA
:10282000DBB2ABBF00F5614000F00F0080F8003371
:10283000135430BD00ED00E014ED00E0002807DB8C
:1028400001234109034A00F01F00834042F8213070
:10285000704700BF00E100E00138B0F1807F0BD28B
:102860004FF0E023F021054A586182F82310002040
:10287000072298611A6170470120704700ED00E05F
:10288000034610B530B301681420134A0A44B2FB62
:10289000F0F292001A64114ADA63022283F82120CE
:1028A000D3E901242243DC68086822431C696FF3E2
:1028B0000D1022435C6922439C692243DC69224358
:1028C00002430A6000200122986383F8200083F805
:1028D000212010BD0120FCE7F8FFFDBF00000240F1
:1028E000F0B590F82040012C34D0012480F820402D
:1028F00090F82140012CE5B24FF0000428D10226C7
:1029000080F8216084630468266826F0010626604A
:10291000D0E90F67BD40756063604368102BC36AE0
:102920000BBFA260A160E160E2604BB1236843F09D
:102930000E0300202360236843F001032360F0BDF1
:10294000236823F004032360236843F00A03F0E7BD
:1029500080F820400220F2E790F821200346022A66
:1029600006D0042282630120002283F820207047D1
:102970000268C06B116821F00E011160116821F02E
:102980000101116001211A6C01FA02F2426000207B
:1029900083F82110E8E7000008B590F82130022BF9
:1029A00003D004238363012008BD03681A6822F062
:1029B0000E021A601A6822F001021A60174A934246
:1029C0001FD0143293421ED0143293421DD01432C1
:1029D00093421DD0143293421DD01432934214BF3F
:1029E0004FF080734FF480130D4A5360012380F839
:1029F0002130002380F82030436B03B1984700203A
:102A0000D2E70123F0E71023EEE74FF48073EBE702
:102A10004FF48053E8E74FF48033E5E708000240C5
:102A20000000024070B40425C66B026C3468036871
:102A300095402542196832D04D0730D51A68960660
:102A40005EBF1A6822F004021A603E4A934219D00F
:102A50001432934218D01432934217D01432934256
:102A600017D01432934217D01432934214BF4FF050
:102A700080634FF48003344A5360C36A002B5ED0F6
:102A800070BC18470423F6E74023F4E74FF4806353
:102A9000F1E74FF48043EEE74FF48023EBE70225A4
:102AA0009540254235D08D0733D51A68940606D453
:102AB0001A6822F00A021A60012280F82120214AB5
:102AC000934219D01432934218D01432934217D043
:102AD0001432934217D01432934217D014329342D7
:102AE00014BF4FF000734FF40013174A53600023D4
:102AF00080F82030836AC1E70223F6E72023F4E759
:102B00004FF40073F1E74FF40053EEE74FF4003356
:102B1000EBE708259540254211D009070FD5196824
:102B200021F00E011960012303FA02F2726083633F
:102B300080F82130002380F82030036B9EE770BCC2
:102B4000704700BF080002400000024090F82100DA
:102B5000704700002DE9F74F00244FF00F0E264676
:102B6000DFF884C1614B00F104080A6832FA06F507
:102B700002D103B0BDE8F08F012505FA06F702EA9D
:102B8000070537EA020276D14A68032A07D8013AD4
:102B9000022A00F28380DFE802F091969C00122A5C
:102BA00000F0948069D8112A00F08A80FF2D94BF2C
:102BB0008146C1464FEA8602D9F8007088BF203AA4
:102BC0000EFA02FA27EA0A0704FA02F21743C9F8D2
:102BD0000070D1F8049019F0805F4CD0DCF8182018
:102BE00026F0030742F00102CCF81820DCF8182088
:102BF00007F1804702F00102019207F5803706F0E5
:102C0000030A019A4FEA8A0ABA680EFA0AFB22EA14
:102C10000B0B374A904260D002F5806290425ED042
:102C200002F5806290425CD002F58062904214BF4F
:102C30000422032202FA0AF242EA0B02BA609A68FC
:102C400019F4801F14BF2A43AA439A60DA6819F462
:102C5000001F14BF2A43AA43DA605A6819F4003FE0
:102C600014BF2A43AA435A601A6819F4803F14BF5C
:102C70002A43AA431A60013677E7DFF878904A457D
:102C80000CD014D8A9F580194A4507D009F5702948
:102C90004A4503D0A9F580194A4587D18A68D2B13F
:102CA000012A4FF008040CBF076147617EE7DFF897
:102CB00048904A45F2D009F58039EDE7CC6875E7D0
:102CC000CC68043472E7CC6808346FE7CC680C3405
:102CD0006CE700246AE7042468E70022AAE70122DF
:102CE000A8E70222A6E700BF00100240000401404E
:102CF0000008014000002210000031100AB10161FB
:102D000070470904FBE7C36801EA030221EA0301F3
:102D100041EA024101617047016800224B6913F4E6
:102D2000806310D06FF480634B612023026380F8CE
:102D30003D3080F83E20036C80F83C2043F00403D3
:102D4000036401207047184670472DE9F84606468F
:102D50000F4691461D464FEA114A3368BAF1010FFA
:102D60000CBF5C699C6927EA0404A4B2B4FA84F439
:102D70006409A14501D0002025E06A1CEED0FFF7D0
:102D8000F3FB089BC01AA84201D8002DE5D1336897
:102D9000BAF1010F0CBF5B699B6927EA03039BB281
:102DA000B3FA83F35B099945D7D100232022012090
:102DB000336386F83D2086F83E30326C86F83C302E
:102DC00042F020023264BDE8F8862DE9F041044665
:102DD0000F46164698462568686927EA000080B2C3
:102DE000C0B16B695A0517D52B68202243F40073D4
:102DF0002B606FF480636B610023236384F83D20B4
:102E000084F83E30236C43F0040323640023012044
:102E100084F83C30BDE8F081731CDDD0FFF7A4FBE3
:102E2000A0EB0800B04201D8002ED4D123685A6923
:102E300027EA020292B2002ACDD000232022236387
:102E400084F83D2084F83E30236C1343DDE770B5F1
:102E500004460D46164623685B691B0601D5002013
:102E60001EE02046FFF758FFC8B96A1CF3D0FFF7F1
:102E70007BFB801BA84201D8002DECD123685B6945
:102E800013F08003E7D12022236384F83D2084F8E7
:102E90003E30226C84F83C3042F020022264012053
:102EA00070BD00002DE9F04315460268994613688D
:102EB00085B043F480731360DDE90C780E463B4621
:102EC00000224FF00111CDF800800446FFF73DFFCE
:102ED000236838B11B68DB0502D54FF40073236407
:102EE000032620E006F0FE061E613A4643462046D1
:102EF0001849FFF76AFFA8B9236803905A69394651
:102F000003929B69424603932046039BFFF79FFF72
:102F1000064660B1236C042B01BF2268136843F49A
:102F2000007313600126304605B0BDE8F083B9F1A7
:102F3000010F236802D1EDB21D61F4E72A0A1A617C
:102F4000394642462046FFF782FF0028E2D1236837
:102F5000F1E700BF020001002DE9FF479A46DDE9D5
:102F60000C78036815461A680E4642F480621A60AF
:102F70001A684FF0011142F480721A603B46002239
:102F8000CDF800800446FFF7E0FE236848B11B68D7
:102F9000DB0548BF4FF400734FF0030048BF2364C4
:102FA00021E05FFA86F906F0FE061E613A464346C6
:102FB00020462A49FFF709FFA0B9236803905A6900
:102FC000394603929B69424603932046039BFFF7D1
:102FD0003EFF58B1236C042B01BF2268136843F4F1
:102FE00000731360012004B0BDE8F087BAF1010F4F
:102FF00023681AD1EDB24246394620461D61FFF7DB
:1030000026FF02460028E5D1216820460B6843F4DC
:1030100080730B603B464FF00111CDF80080FFF745
:1030200094FE226860B11368B2E72A0A1A61394631
:1030300042462046FFF70BFF0028CBD12368D9E793
:1030400049F001031361204643463A460349FFF71E
:10305000BCFE003818BF0120C5E700BF0200010018
:1030600070B504460D46164623685B695B0701D5BB
:1030700000201EE02046FFF74FFEC8B96A1CF3D0BF
:10308000FFF772FA801BA84201D8002DECD123680B
:103090005B6913F00403E7D12022236384F83D2009
:1030A00084F83E30226C84F83C3042F020022264E6
:1030B000012070BD70B5044608B9012070BD90F8BC
:1030C0003D3003F0FF021BB980F83C20FEF72CFFD7
:1030D000242384F83D3023681A6822F001021A6024
:1030E0001A6842F400421A601A6822F400421A6018
:1030F00002F00EFA3F4B65689D4294BF3E4B3F4B3A
:1031000098428CBF00230123002BD6D1394E3C4B73
:10311000B542B0FBF3F388BF4FF49676226851684E
:1031200021F03F0141EA030182BF73434FF47A76F5
:10313000B3FBF6F35160116A013321F03F010B43F9
:103140001362D169431E2B4821F44F41854221F07F
:10315000FF0132D86D00B3FBF5F340F6FC7001338C
:10316000034242D0C3F30B031943D1611168D4E980
:10317000073021F0C00103430B4313609168D4E989
:10318000030321F40341034321F0FF010B43936048
:10319000D168D4E9053021F0FF0103430B43D3602C
:1031A0001368002043F0010313602023206484F897
:1031B0003D30206384F83E0080E7A06850B905EBFD
:1031C0004505B3FBF5F30133C3F30B037BB143F4C4
:1031D0000043C9E719206843B3FBF0F30133C3F39D
:1031E0000B0323B143F44043BEE70423BCE70123B0
:1031F000BAE700BFA08601007F841E00FF083D00E3
:1032000040420F002DE9F743044699460F46904689
:103210000C9EFFF7A9F994F83D300546202B03D00A
:10322000022003B0BDE8F08300901923012220465C
:103230003A49FFF78AFD0028F2D194F83C30012B7F
:10324000EED00123206884F83C3003684246D90759
:1032500058BF036839465CBF43F00103036003684D
:1032600023F400630360212384F83D30402384F875
:103270003E30002323640A9B20466362BDF82C3055
:103280006385638D2385264BE3624B46CDE900655C
:10329000FFF708FE00282AD00120C2E7FFF7D7FD7C
:1032A00040B1236C042B01BF2268136843F4007300
:1032B0001360F1E7636A27681A4612F8011B396147
:1032C0006262628D218D013A92B262857A69481EEE
:1032D00080B2520720850AD548B15A7802333A6144
:1032E0006362638D0239013B9BB221856385238D27
:1032F0002A4631462046002BD0D1FFF7B1FE0028E8
:10330000CFD12268136843F400731360202384F83C
:103310003C0084F83D3084F83E0082E70200100053
:103320000000FFFF2DE9F04786B0044698460E46A0
:103330001746DDF838A0FFF717F90023039394F838
:103340003D308146202B03D0022006B0BDE8F08737
:1033500046F2A812644B1B68B3FBF2F319225343E5
:103360000393039B013B0393039B4BB920222363ED
:1033700084F83D2084F83E30236C13432364E3E754
:1033800021688B699A07ECD494F83C30012BDBD090
:10339000012384F83C300B680025DB0758BF0B681D
:1033A000524A5CBF43F001030B600B6823F40063D7
:1033B0000B60222384F83D30402384F83E30BDF872
:1033C0003C3025646385638DC4F824A09BB2E2621F
:1033D00023856664A764C4F84C802565002B66D0FD
:1033E000A06B58B3424A45638262424A1031C0E939
:1033F0000B525246FFF774FA824600284BD1232322
:103400003A460093314643462046CDF80490FFF7F4
:10341000A3FD00B3A06BFFF7BFFAA36BC3F828A00E
:1034200023681A6822F480621A60A4F82AA01A6835
:10343000A4F828A022F001021A600AE0202384F8F0
:103440003D3084F83E00236C84F83C0043F0800358
:103450002364012079E7228D2368012A0BBF1A68B3
:103460005A6822F4806242F480520CBF1A605A609B
:103470000022049259690491996984F83C200491CE
:1034800004995A6842F480725A605A6842F40062A1
:103490005A60002059E7202384F83D3084F83E50DC
:1034A000236C84F83C5043F010032364D1E72323BA
:1034B0003A460093314643462046CDF80490FFF744
:1034C0004BFD0028C5D1236805905A6905929A6979
:1034D0000592059A1A6842F400721A60202384F853
:1034E0003C0084F83D30D4E7300000200000FFFFAE
:1034F000F1350008B73500087047704770477047CE
:103500007047704790F83D2008B5036DD2B283B97B
:10351000C36C0268012B836C05D1DBB21361036DB0
:103520000233036508BDC3F307231361036D013341
:10353000F7E7036D012B03D1836C0268DBB2F4E77C
:10354000036D022B2FD1222A05D10268136843F4A0
:1035500080731360EAE7438D9BB263B1212A0AD1DD
:10356000436A026813F8011B11614362438D013BFA
:103570009BB24385D6E7438D9BB2002BD2D1212A43
:10358000D0D10268516821F4E0615160116841F4C2
:10359000007111602022036380F83D2080F83E30E6
:1035A000FDF794FBBEE703685A69120644BF002288
:1035B0001A61B7E77047406A08B5436B0BB1002248
:1035C0009A62836B0BB100229A620268136823F43B
:1035D0008063136000232022438580F83D2080F81B
:1035E0003E30036C43F010030364FFF7E3FF08BDB4
:1035F00070B5446A236894F83D1094F83E00E26A7E
:103600005D68C9B225F440755D60656BC0B20DB1EF
:103610000026AE62A56B0DB10026AE6201F0210559
:10362000212D05D001F02205222D23D1202821D1E2
:103630005A68292922F400625A604FF0000363851A
:103640000DD1212323632823204684F83D30FFF742
:1036500055FF2268536843F44073536070BD2A29B4
:10366000F7D1222323632823204684F83D30FFF737
:1036700046FFEEE794F83E100029EFD0618D89B245
:10368000012902BF196821F480611960596812F597
:10369000803F21F44071596006D0082A04D0B2F16D
:1036A0002A4F01D0202A03D1196841F40071196012
:1036B000596821F480515960596821F400615960BA
:1036C00000236385236C1BB12046FFF773FFC5E71A
:1036D000202184F83D1094F83E1084F83E304029B3
:1036E00004D120462363FDF7F7FAB7E7082A01D093
:1036F000202A05D1002320462363FFF7FEFEADE715
:103700001223F8E770470000002337B546F2A811EE
:1037100001932C4B406A1B6890F83D20B3FBF1F3FA
:1037200023214B4301930368D2B2019941BB016C41
:1037300041F020010164446B0CB10021A162816B56
:1037400009B100258D621D6825F480651D60002586
:10375000458504B1656301B14D63196821F001012C
:10376000196090F83D10602911D1202380F83D3078
:10377000002380F83E300364FFF7C4FF03B030BD80
:1037800001990139019119688905CED4D3E702F076
:103790002802282A0ED1196841F001011960196820
:1037A00041F4806119600023036380F83D20FFF736
:1037B00001FFE3E7202380F83D30002380F83E300E
:1037C000F5E700BF3000002010B590F83D2090F8DC
:1037D0003E300446102BD9B2D2B2036801D0402942
:1037E00013D1222A11D1196821F400611960596896
:1037F00011F4006106D1602A1EBF202284F83D200A
:1038000084F83E100022226307E002F028012829F4
:10381000EDD10022226384F83D105A6812F4006250
:103820004FD05A68606B22F400625A6090F82130E1
:10383000012B374B2BD04363FFF7AEF850B1226812
:10384000606B136823F001031360202384F83D307C
:10385000436B9847236C19071FBF2268536823F4F2
:10386000E063536094F83D30226CDBB252070DD513
:10387000282B0BD1274B2022E36200232046236311
:1038800084F83D2084F83E30FFF73BFE10BDA06B6E
:103890004363FFF781F80028DCD023685A6951069A
:1038A00005D51A69636A1A70636A01336362226814
:1038B000A06B136823F001031360202384F83D30CC
:1038C000C6E794F83D10602915D1202184F83D10F9
:1038D00022645A69520605D51A69636A1A70636AC6
:1038E0000133636222682046136823F001031360EA
:1038F000FFF708FFAEE75A69500605D51A69636AF3
:103900001A70636A013363622046FFF753FEA1E732
:10391000093700080000FFFFF0B5044603688FB0C8
:103920005A68C66A90F83E0094F83D101028C5B257
:10393000C9B202D0402D40F0E5829F69586910F06D
:10394000010F07D1B6F52A0F02D0B6F12A4F51D197
:103950000FB0F0BD96054DD5E26AB2F52A0F0CD135
:103960000122E26294F83E20402A11D1226D52B920
:10397000626C02F0FE021A61EAE7E26AB2F12A4FD3
:10398000F0D10822EDE7626C42F00102D2B2F2E718
:103990002269B2F5804F1AD194F83D20212A626C39
:1039A00011D102F0FE021A61626B0AB1926A2AB961
:1039B000A26B002ACCD0926A002AC9D05A6842F47D
:1039C00000625A60C4E742F00102D2B2EBE7226D16
:1039D00032B9626CD21102F0060242F0F002CAE77C
:1039E000226D012AB4D1626CD21102F0060242F0BB
:1039F000F102C0E7060703D5960501D5626CE4E73E
:103A0000860740F1F080960540F1ED8094F83E1075
:103A1000E26A256B94F83D00C9B2222840F0DB80B1
:103A2000206D40B9402906D100905A6900929B69E7
:103A30000093009B8CE7216D89B92069B0F5404F58
:103A40000DD101915A6901929A690192019A1A68FD
:103A500042F480721A60236D0133236578E7618D2B
:103A600089B251B902915A6902929A690292029AF4
:103A70001A6842F400721A6019E0618D89B2012956
:103A800049D112F5803F1BD11A6822F480621A6076
:103A90005A6812F400620CD01A6822F480621A602C
:103AA000002203925A6903929B690393039B0023AC
:103AB000D3E704925A6904929A690492049AD7E768
:103AC000082A1CD0202A1AD0122D0DD1012A16D175
:103AD0001A6822F480621A60002205925A690592DF
:103AE0009B690593059BE2E7102AF1D8864941FAC4
:103AF00002F2D707ECD41A6842F48062EBE71A6846
:103B000022F480621A60002206925A6906929A692B
:103B10000692069AACE7618D89B2022938D1102A43
:103B200003D87A49D140CE0718D4196841F400610E
:103B300019600021079159690791996907910799BF
:103B4000196821F48061196059680D05AFD5202AE4
:103B50001BD8072A0ED8012AA9D111E0196841F40F
:103B6000806119600021089159690891996908914B
:103B70000899E9E7A2F10801654ACA40D00796D53D
:103B80005A6842F480525A6091E712F5803FE3E7A9
:103B9000196841F4806119605968090510D5202A17
:103BA00016D8072A06D8012A0AD15A6842F4805248
:103BB0005A6005E0A2F10801554ACA40D207F4D480
:103BC000002209925A6909929B690993099B6EE741
:103BD00012F5803FE8E700220A925A690A929B692F
:103BE0000A930A9BB4E67F0740F194805E6836052D
:103BF0003FF5AEAE070600F004063ED550053CD5B5
:103C0000002E3DD194F83D20258D94F83E10D2B27F
:103C1000E06AC9B2C5B9212A18D1082858D020288D
:103C200056D010F5803F53D05A6822F4E0625A60B3
:103C300011232363002384F83E302023204684F898
:103C40003D30FFF759FC83E6212A05D040297FF457
:103C50007FAE222A7FF47CAE628D92B21AB95A6886
:103C600022F48062ADE694F83E20402A16D1204628
:103C70000FB0BDE8F040FFF745BC002E3FF468AE42
:103C800097057FF565AE212939D1E16A94F83D2089
:103C9000212A7FF45DAE628D92B24AB1626A12F857
:103CA000011B19616262638D013B9BB263854FE624
:103CB00008290DD020290BD011F5803F08D0596874
:103CC00021F4E06159601123236384F83E20B4E7B6
:103CD0005A68204622F4E0625A601A6842F4007280
:103CE0001A6000232022236384F83D2094F83E20AC
:103CF00084F83E30402AA4D1FCF7E8FF28E6402DA6
:103D00007FF426AEB3E700BFEBFFFEFF1400010017
:103D10000101000159680E053FF51AAE450600F095
:103D2000040140F18680500540F18380002940F075
:103D3000838094F83D20222A7FF40AAEE06A628DE7
:103D400092B2032A14D91A69636A1A70636A01333A
:103D50006362638D013B9BB26385638D9BB2032BD2
:103D60007FF4F6AD2268536823F480635360EFE577
:103D7000E56A022D3FF473AF012A3FF670AF0B9155
:103D800046F2A811784A1268B2FBF1F202EB820205
:103D90000B920B9A013A0B920B99D1B9226C2046E7
:103DA00042F0200222645A6822F4E0625A601A69E2
:103DB000636A1A70636A01336362638D013B9BB26D
:103DC0006385202384F83D3084F83E10FFF7F2FB32
:103DD000BEE51A6812F40072DBD1196821F4806123
:103DE0001960596821F4E06159601969636A1970B2
:103DF000636A01336362638D013B9BB26385202359
:103E000084F83D3094F83E3084F83E20402B04D1B5
:103E100022632046FCF760FF9AE5082801D020289D
:103E200001D1002300E0122320462363FFF765FB46
:103E30008EE500293FF48CAD92057FF589ADE26AED
:103E4000608D616A80B2042809D15A6822F48062C8
:103E50005A601B690B70636A0133636223E7608DEC
:103E600080B203280CD15868042A20F4806058607E
:103E7000EFD0022AEDD01A6822F480621A60E8E7D7
:103E8000608D80B20228E4D1042A33D007D8012AF9
:103E900007D0022A2ED0186840F4007004E0102ADF
:103EA000F9D1186820F4806018601B690B70616A92
:103EB0004B1C6362638D013B9BB2638523681B6966
:103EC0004B70636A216801336362638D013B9BB26F
:103ED00063854B6823F440734B60202384F83D30A6
:103EE00094F83E30402B4FF0000384F83E3005D16B
:103EF00023638EE7186840F48060D5E7082A90D0E5
:103F0000202A8DE7206C10B30025586987072DD52E
:103F100096052BD5226C02B19D6994F83D2002F0E4
:103F20002802282A16D15A682F0622F480625A6085
:103F30004FF0000385F00401204654BFA289228B74
:103F4000C1F3800184F83C30FFF7DAFA00E59D699F
:103F50005869DBE700220C9259690C919B6984F83F
:103F60003C200C930C9BF3E430000020C60640F18B
:103F7000B180950540F1AE8094F83D505A68EDB29D
:103F800022F4E0625A6000220D925A690D921A687A
:103F900042F001021A600D9A1A6822F480621A60D7
:103FA0005A68100520D505F0F702222A4AD1A06BE5
:103FB0000268526892B26285628D92B21AB1226C26
:103FC00042F0040222645A6822F400625A60FEF74A
:103FD000BDFD012808D0A06B794B4363FEF7DCFCE4
:103FE00010B1A06B436B9847638D9BB213B32368EA
:103FF0005A69510709D51A69636A1A70636A0133ED
:104000006362638D013B9BB2638523685A695206E4
:1040100009D51A69636A1A70636A01336362638D32
:10402000013B9BB26385638D9BB21BB1236C43F054
:1040300004032364236C13B320460FB0BDE8F040A3
:10404000FFF7C2BB606B0268526892B26285628DF4
:1040500092B21AB1226C42F0040222645A6822F42D
:1040600000625A60FEF772FD0128BDD0606B544BB0
:104070004363FEF791FC0028B6D0606BB2E72A2DAF
:1040800006D123632823204684F83D30FFF737FA12
:1040900094F83D30282B0CD14A4B2022E3620023B8
:1040A0002046236384F83D2084F83E30FFF729FA48
:1040B0004EE4236B222B02D0222D7FF449AC002347
:1040C0002022236384F83D2084F83E302046FFF709
:1040D00016FA3DE401F0F701212900F0040535D17D
:1040E000070627D5560525D53DBB94F83D00628DC2
:1040F000C0B292B2002A3FF42BAC626A12F8015BA4
:104100001D616262628D013A92B26285628D92B2E5
:10411000002A7FF41DAC29287FF41AAC5A68204687
:1041200022F480625A602823216384F83D30FFF72F
:10413000E5F90DE4002D3FF40BAC95057FF508ACD7
:10414000628D92B2002A3FF403ACA7E5400627D562
:10415000510525D53DBB94F83D20618DD2B289B281
:1041600000293FF4F5AB1969636A1970636A01337A
:104170006362638D013B9BB26385638D9BB2002BB1
:104180007FF4E6AB2A2A7FF4E3AB2268536823F47A
:104190008063536022232363282384F83D3095E70E
:1041A000002D3FF4D5AB92057FF5D2AB628D92B274
:1041B000002A3FF4CDAB1A69636A1A704BE600BF60
:1041C000093700080000FFFFF8B5036804465F697F
:1041D0005E6890F83E2017F48075D2B20AD016F4CB
:1041E000807507D06FF4807101255961196841F419
:1041F00000411960B80506D5F10542BF6FF40071A2
:1042000045F002055961780536D5F10534D5608D44
:1042100094F83D10202AD4F830C080B2C9B25FD1E2
:1042200000285DD101F0F700212804D0282957D1BA
:10423000BCF1210F54D194F83D20E16AD2B2082993
:1042400001D020292AD1282A28D12E4A2046E262EC
:104250005A6822F4E0625A606FF480625A611A6808
:1042600022F480621A6000232022236384F83D2018
:1042700084F83E30FFF745F93A053FD5F3053DD5C3
:104280006FF40062236845F008055A61236C2046EC
:104290002B432364BDE8F840FFF796BA212A1BD1CF
:1042A0001849E16222630021202284F83D2084F82D
:1042B0003E105A6822F4E0625A606FF480625A61DC
:1042C0001A6822F480621A605A69100648BF1961A0
:1042D0002046FFF713F9CFE76FF480625A61CBE70E
:1042E0006FF48061102A596145F0040501D0402A1D
:1042F000C2D11A6842F400721A60BDE7002DC5D120
:10430000F8BD00BF0000FFFF90F83D007047F8B512
:104310000446E0B190F8913203F0FF021BB980F837
:10432000902203F031FB032384F8913200232546C9
:10433000637155F8040B01F0DBFF95E80E0020686F
:1043400001F0C6FF014628B1022384F8913201250D
:104350002846F8BD206801F0D5FF0028F4D10246B8
:104360000127267904F11003C1B28E4203F128031C
:1043700018D800210A4604F5A873C8B2864203F192
:1043800028031BD895E80E00206801F0BDFF054604
:104390000028D9D101236073206884F8913202F09B
:1043A00069FAD5E743E9062203F8277C03F8281CBD
:1043B00003F8252C43F8102C0130D5E743E90622F9
:1043C00003F8272C03F8280C03F8252C43F8102CAD
:1043D0000131D2E738B590F890320446012B10D065
:1043E000012580F89052006801F079FF29462046A7
:1043F00003F0D1FB206802F03BFA002084F8900221
:1044000038BD0220FCE710B590F890220446012A3E
:104410000AD00122417380F89022006802F022FA4B
:10442000002084F8900210BD0220FCE72DE9F04F37
:10443000044685B0006802F01FFA10F4004500F051
:104440004F842825C64E2068B0F844301F0402D49B
:1044500005B0BDE8F08FB0F8443013F00F0799B203
:1044600040F0C08011F0100126D103889BB2334088
:1044700043F400430380B0F85030227C9BB203EB3E
:10448000C20300EB4303B3F80434626AC3F30903C5
:104490001A44E3622046626203F0A5FA637B002BB4
:1044A000D1D0A26A2168002ACDD1637B43F080037A
:1044B000A1F84C306273C6E70788BBB217F40067F7
:1044C00021D0B0F8503094F850219BB203EBC203D6
:1044D00000EB4303B3F80C34B4F85621C3F30903DB
:1044E000C4F86C3104F5267102F011FC22682046F4
:1044F000138823F070031B051B0D43F0800313800A
:1045000003F062FA9FE719049DD5038823F0700336
:104510001B051B0D43F080030380B0F8503094F866
:1045200050219BB203EBC20300EB4303B3F80C34FE
:10453000C3F30903C4F86C318BB1D4F8641171B1C1
:10454000B4F8562102F0E3FBD4F86431D4F86C21BE
:10455000394613442046C4F8643103F03BFA21681D
:104560000A8893B212053FF56EAF03F44053B3F5DA
:10457000405F3FF468AFB1F8502001F20C4092B2B6
:10458000835AC3F309038352D4F860313E2B1DD9FB
:104590005F09DB06835A08BF07F1FF379BB243EA86
:1045A00087236FEA43436FEA53439BB283520B88DE
:1045B00023F4804323F070031B041B0C83F440534B
:1045C00043F4004343F080030B803CE70BB9835A6C
:1045D000E7E75F08DB07835A48BF01379BB243EA2E
:1045E0008723E2E730F8273019041FFA83F840F1F7
:1045F000F68030F8273005FB074123F070031B05D8
:104600001B0D43F0800320F8273091F85C3100F552
:10461000806EBBB9B0F8503091F850219BB2063390
:1046200003EBC2033EF81390C9F30909B9F1000F77
:1046300000F0BA804B46B1F85621D1F8641102F06F
:1046400066FBB1E091F8533191F85021022B40F014
:104650008980B0F850904FEAC20B1FFA89F918F41C
:10466000804AD1F86831D94408F0400C3CD009F1B7
:1046700002093EF81990C9F30909994513D9002395
:10468000C1F8683130F8223023F4804323F07003FE
:104690001B041B0C83F4005343F4004343F08003DA
:1046A00020F8223005E0A3EB0903C1F86831002BA4
:1046B000E8D0BCF1000F0DD030F8223023F4E043F5
:1046C00023F070031B041B0C43F4004343F0C003AE
:1046D00020F82230B9F1000F66D0282101FB0741F4
:1046E0004B46B1F85821A8E709F106093EF81990A0
:1046F000C9F30909994512D9C1F868A130F82230E7
:1047000023F4804323F070031B041B0C83F4005339
:1047100043F4004343F0800320F8223005E0A3EB8C
:104720000903C1F86831002BE8D0BCF1000F0DD1AE
:1047300030F8223023F4E04323F070031B041B0CF9
:1047400043F4004343F0C00320F82230B9F1000FD6
:104750002AD0282101FB07414B46B1F85A216CE7CA
:104760000F8FFFFF30F8223023F4E04323F0700373
:104770001B041B0C43F4004343F0C00320F8223019
:1047800091F8503130F82320DB0012F4804FB0F85C
:10479000502092B254D0023213443EF81390C9F321
:1047A0000909B9F1000F9BD105FB07F16318D3F894
:1047B0006C214A44C3F86C21D3F864214A44C3F8FD
:1047C0006421D3F868211AB1D3F86031994541D2F8
:1047D00005FB0743204693F8501103F0FBF818F04F
:1047E000800F20683FF42FAE30F8273005FB07FC20
:1047F0009BB2334043F4004320F8273004EB0C0312
:10480000DA7C012A56D1002107FB0552A1501A7FFC
:1048100092B318F040085A7C36D012BBB0F8502042
:104820001B7C92B21B0100F2044010441A5AC2F3DE
:1048300009021A521A5A92B242F400421A521BE06A
:10484000063213443EF81390C9F30909B9F1000F79
:10485000AAD081E701F5A8712068214402F022F86E
:10486000BDE7012A08D1B0F850201B7C92B200F2BB
:1048700004401B0110441952282303FB0743197CF1
:10488000204603F0B0F8DEE53AB9B0F850201B7CC2
:1048900092B21B0100F20C40C7E7012AECD1B0F83C
:1048A00050201B7C92B200F20C401B01104423F8F4
:1048B0000080E1E7197C18F4807E9A6A4FEAC10A09
:1048C00000F580691BD1B0F85070BFB25744023771
:1048D00039F81770C7F30907974202D3C3F828E0E5
:1048E000CEE7D21B9A625A6A0CF110013A445A621E
:1048F000DA6A21443A44DA6201F0D4FFA3E5B0F861
:1049000050C018F0400E1FFA8CFCD44408F48048C4
:1049100000F0F4800CF1020C39F81CC01FFA88F882
:10492000CCF3090C94452CBF0022A2EB0C029A6236
:10493000002A5BD1282303FB07435B7C002B41D17A
:10494000B0F8502000F2044C92B20B0194443CF8B1
:104950000320C2F309022CF803203CF803206FEA7D
:1049600042426FEA524292B22CF80320B0F8502033
:1049700000F20C4092B21044C25AC2F30902C25271
:10498000C25A6FEA42426FEA524292B2C252204683
:1049900003F029F8B8F1000F00F0F480282303FB9E
:1049A00007432268197C32F8213023F4E04323F0D6
:1049B00070031B041B0C43F4404343F0800322F8B4
:1049C0002130DFE0012BE2D1B0F850E000F2044CDE
:1049D0001FFA8EFEF4440B012CF80320B0F850C0EF
:1049E00000F20C401FFA8CFC6044CFE7B8F1000FD6
:1049F0000DD030F8212022F4E04222F0700212049F
:104A0000120C42F4404242F0800220F821204FF084
:104A1000280808FB074898F83420012A40F0B280A3
:104A2000D8F8242002EB0C0EC8F824E0DA6A6244BD
:104A3000DA62D8F83030D8F82020934235D39B1A68
:104A4000C8F83030282303FB074393F811C093B212
:104A5000BCF1000F45D1B0F8508000F2044C1FFAB1
:104A600088F8C44409013CF801803E2AC8F30908CB
:104A70002CF8018025D94FEA5218D2063CF80120C3
:104A800008BF08F1FF3892B242EA88226FEA424238
:104A90006FEA524292B22CF80120282202FB074210
:104AA000128B714601F0EEFE6CE01BB9624688F88D
:104AB0003430C7E7002288F83420C8F830201A467E
:104AC000C0E712B93CF80120E0E74FEA5208D207EC
:104AD0003CF8012048BF08F1010892B242EA88225E
:104AE000D8E7BCF1010FD8D1B0F850C000F20442B1
:104AF0001FFA8CFC624409015352CEE70CF1060CFC
:104B000039F81CC01FFA88F8CCF3090C94458CBF07
:104B10007246A2EB0C029A62002A5DD1282303FBA5
:104B200007435B7C002B43D1B0F8502000F2044CCB
:104B300092B20B0194443CF80320C2F309022CF812
:104B400003203CF803206FEA42426FEA524292B2DD
:104B50002CF80320B0F8502000F20C4092B2104420
:104B6000C25AC2F30902C252C25A6FEA42426FEA03
:104B7000524292B2C252204602F035FFB8F1000F05
:104B80003FF40CAF282303FB07432268197C32F85B
:104B9000213023F4E04323F040031B041B0C83F07B
:104BA000300343F4004343F0800322F821304AE409
:104BB000012BE0D1B0F850E000F2044C1FFA8EFE59
:104BC000F4440B012CF80320B0F850C000F20C4064
:104BD0001FFA8CFC6044CDE7B8F1000F0DD130F81E
:104BE000212022F4E04222F070021204120C42F45E
:104BF000404242F0800220F821204FF0280808FBB4
:104C0000074898F83420012ABCD1D8F8242002EBB8
:104C10000C0EC8F824E0DA6A6244DA62D8F8303060
:104C2000D8F82020934232D39B1AC8F8303028237A
:104C300003FB074393F811C093B2BCF1000F42D1BC
:104C4000B0F8508000F20C4C1FFA88F8C4440901F7
:104C50003CF801803E2AC8F309082CF8018022D9CB
:104C60004FEA5218D2063CF8012008BF08F1FF387D
:104C700092B242EA88226FEA42426FEA524292B20C
:104C80002CF80120282202FB0742528B09E71BB9AE
:104C9000624688F83430CAE70022C8F8302088F825
:104CA00034201A46C3E712B93CF80120E3E74FEA83
:104CB0005208D2073CF8012048BF08F1010892B21F
:104CC00042EA8822DBE7BCF1010FDBD1B0F85020CB
:104CD00000F20C4C92B294440A012CF80230D1E755
:104CE000460512D522682046B2F8443023F480638A
:104CF0001B041B0CA2F8443002F081FE294620461A
:104D000005B0BDE8F04FFFF77EBB41040AD522682D
:104D1000B2F8443023F480431B041B0CA2F8443047
:104D2000FFF796BB820405D52268B2F8443023F41D
:104D30000053F1E7C30419D522682046B2F8403089
:104D400023F004031B041B0CA2F84030B2F84030DF
:104D500023F008031B041B0CA2F8403002F072FE83
:104D60002268B2F8443023F48053D5E7070548D5CC
:104D700068462368064619461A4603F1200532F8AC
:104D8000047B954226F8027BF9D1B3F8402092B219
:104D900042F00102A3F84020B3F8402022F00102C3
:104DA0001204120CA3F84020B3F844205605FBD59A
:104DB000B3F8442022F480621204120CA3F84420B9
:104DC00030F8022B21F8042B8D42F9D1B3F84020A2
:104DD000204692B242F00802A3F84020B3F84420E3
:104DE00022F400621204120CA3F84420B3F840200D
:104DF00092B242F00402A3F8402002F013FEFFF743
:104E000027BB82050DD522682046B2F8443023F432
:104E100000731B041B0CA2F8443002F0ECFDFFF7FA
:104E200017BBC3057FF514AB2268B2F8443023F4F6
:104E3000807371E770B52824054601F007004443EC
:104E400011F0800F14BF04F1100104F5A87105EBF7
:104E5000040615BF01240024747486F8514114BF60
:104E600049194919022BCB7008BF0023087008BFED
:104E70000B710A6195F89032012B09D00123286843
:104E800085F8903201F052FA002085F8900270BD4A
:104E90000220FCE7282301F00702534311F0800FA2
:104EA00010B5044618BF03F1100118440BBF03F5F9
:104EB000A8710123002309190ABF0919437480F856
:104EC00051310A7094F89032012B09D001232068E7
:104ED00084F8903201F08AFB002084F8900210BD23
:104EE0000220FCE770B52824002601F007014C439E
:104EF000051985F8501104F5A8710144C5E9592335
:104F0000C5F86C6185F85161006801F0CBFC304652
:104F100070BD282301F0070103FB0100D0F86C01EC
:104F2000704770B5282501F007014D43441900264C
:104F3000C4E909230122217405F11001014484F818
:104F400034202363E6626274006801F0ABFC3046F3
:104F500070BD38B5037901F00705AB4204462AD38A
:104F600011F0800F4FF028031CD001226B4303F196
:104F70001001034401445A7401230D708B7094F89E
:104F800090229A4219D0206884F8903201F001FCF6
:104F900025B9206804F5267101F072FC002084F820
:104FA000900238BD00224B4303F5A871034401442D
:104FB00083F85121E0E70120F3E70220F1E738B55B
:104FC000027901F00F039A42044626D3282301F008
:104FD0000702534311F0800F14BF03F1100103F5D2
:104FE000A87118444FF0000515BF012300230919CB
:104FF000091914BF437480F851318D700A7094F808
:105000009032012B0BD00123206884F8903201F0FC
:10501000E0FB284684F8905238BD0120FCE70220CE
:10502000FAE710B5282411F0800F1BBF01F007012B
:1050300004FB010004FB0100103008BF00F5A8705C
:1050400099B21AB90273C180002010BD0122836099
:105050000273F9E72DE9F341054638B30368DB072E
:1050600010D42B689F075ED42B68190700F1958038
:105070002B685A0700F1C180EB69002B40F02C81AE
:10508000002029E0904C636803F00C03042B07D048
:10509000636803F00C03082B0AD16368DE0307D5AD
:1050A00023689C03DDD56B68002BDAD1012013E067
:1050B0006B68B3F5803F12D1236843F480332360DB
:1050C000FDF752FA064623689803CAD4FDF74CFA56
:1050D000801B6428F7D9032002B0BDE8F0819BB99A
:1050E000236823F480332360236823F48023236020
:1050F000FDF73AFA064623689903B2D5FDF734FA6C
:10510000801B6428F7D9E6E7B3F5A02F236803D105
:1051100043F480232360CFE723F4803323602368A4
:1051200023F48023CBE7684C636813F00C0F07D09F
:10513000636803F00C03082B10D16368DA030DD405
:1051400023689B0702D52B69012BAFD123686A69BD
:1051500023F0F80343EAC203236085E72A695B4B27
:105160006AB101221A60FDF7FFF9064623689F071E
:10517000ECD4FDF7F9F9801B0228F7D9ABE71A60E8
:10518000FDF7F2F90646236898077FF56DAFFDF746
:10519000EBF9801B0228F6D99DE7AA694A4E4B4BD2
:1051A000E2B10122C3F88024FDF7DEF90446736AF8
:1051B0009B070DD54FF4FA52454B1B68B3FBF2F336
:1051C000019300BF019B5A1E0192002BF9D14FE7BA
:1051D000FDF7CAF9001B0228E9D97CE7C3F880244F
:1051E000FDF7C2F90446736A9F077FF541AFFDF7EB
:1051F000BBF9001B0228F6D96DE7334CE369D800F0
:1052000024D40127E36943F08053E361E36903F0A9
:1052100080530093009B2F4E3368D90518D5EB6857
:10522000012B26D1236A43F001032362FDF79CF989
:1052300041F288380646236A9B073FD5002F3FF48A
:105240001BAFE36923F08053E36115E70027E2E732
:10525000336843F480733360FDF786F98046336822
:10526000DA05DCD4FDF780F9A0EB08006428F6D954
:1052700031E7ABB9236A41F2883823F00103236296
:10528000236A23F004032362FDF76EF90646236ABE
:105290009807D3D5FDF768F9801B4045F7D91AE781
:1052A000052B236A03D143F004032362BAE723F0FA
:1052B00001032362236A23F00403B6E7FDF754F9E0
:1052C000801B4045B7D906E700100240000042426B
:1052D00030000020007000402A4C626802F00C028E
:1052E000082A3ED00022022B274B1A662CD1FDF74C
:1052F0003BF906462368990120D42B6AB3F5803F19
:1053000005D16268A96822F400320A436260696AC2
:1053100062680B4322F474121343012263601A4B38
:105320001A66FDF721F9054623689A013FF5A8AEF4
:10533000FDF71AF9401B0228F6D9CCE6FDF714F95F
:10534000801B0228D6D9C6E6FDF70EF9054623686C
:105350009B017FF595AEFDF707F9401B0228F6D9B2
:10536000B9E6012B3FF4A2AE60682B6A00F48032EC
:105370009A427FF49BAE6B6A00F47010C01A18BF9B
:105380000120A9E600100240000042420D4A536885
:1053900003F00C01082912D10B48C3F38341DB034E
:1053A000405C09D55368094AC3F340435043084A57
:1053B000D35CB0FBF3F07047064B5843704703488B
:1053C000704700BF00100240CF9A000800127A0018
:1053D000CD9A000800093D002DE9F0410D46044634
:1053E00010B90120BDE8F081444A136803F00703B7
:1053F0008B4228D321688E0730D4CA0743D43F4A52
:10540000136803F00703AB4265D822683C4D12F0E5
:10541000040F6CD1130706D56B68226923F460531F
:1054200043EAC2036B60FFF7B1FF6B68354AC3F311
:105430000313D35CD840344B1860344B1868FDF725
:1054400051F80020CEE7136823F007030B431360E5
:10545000136803F007038B42C3D1CBE7284B11F04D
:10546000040F1EBF5A6842F4E0625A60080742BF48
:105470005A6842F460525A605A68A06822F0F002FA
:1054800002435A60B9E762681D4E012A33681AD197
:1054900013F4003FA5D0736841F2883823F003036A
:1054A00013437360FDF760F807467368626803F0A2
:1054B0000C03B3EB820FA2D0FDF756F8C01B40459A
:1054C000F3D903208EE7022A02D113F0007FE1E72F
:1054D00013F0020FDEE7136823F007032B4313607A
:1054E000136803F00703AB427FF47BAF8DE76B6873
:1054F000E16823F4E0630B436B608BE7002002401C
:1055000000100240BD9A0008300000203800002042
:10551000044B054A5B68C3F30223D35C034A10685B
:10552000D840704700100240B59A000830000020B3
:10553000044B054A5B68C3F3C223D35C034A10687B
:10554000D840704700100240B59A00083000002093
:1055500003682DE9F3410546D80721D5364CE369A8
:10556000D9002BD40126E36943F08053E361E3695A
:1055700003F080530193019B304F3B68DA051FD540
:10558000236A6A6813F440732ED1236A6A6823F48D
:105590004073134323621EB1E36923F08053E36138
:1055A0002A68910706D52449A8684B6823F440432C
:1055B00003434B60D30636D4002012E00026DBE71D
:1055C0003B6843F480733B60FCF7CEFF80463B684A
:1055D000DB05D5D4FCF7C8FFA0EB08006428F6D99A
:1055E000032002B0BDE8F08102F440729A42CCD0B0
:1055F0000120134A236AC2F84004002023F44071BA
:10560000DF07C2F840042162BFD5FCF7ADFF41F2CD
:1056100088380746236A9807B7D4FCF7A5FFC01B54
:105620004045F7D9DCE7044AE968536823F480036E
:105630000B435360C0E700BF001002400070004001
:1056400000004242036A026A70B522F0010202625F
:10565000446882690D6822F073022A438D6823F042
:1056600002032B430A4DA8420BD1CD6823F0080357
:105670002B4324F44074D1E90556354323F0040349
:105680002C43446082614A684263036270BD00BF7C
:10569000002C0140036A026A70B522F48072026233
:1056A0004468C2690D6822F073022A438D6823F4AE
:1056B000007343EA05230B4DA8420DD1CD6823F4B6
:1056C000006343EA052324F44054D1E905563543E9
:1056D00023F4806344EA05144460C2614A68C263EB
:1056E000036270BD002C0140036A026A30B522F4E7
:1056F000805202624468C2690D6822F4E64242EABE
:1057000005228D6823F4005343EA0533064DA84271
:1057100002BF4D6924F4804444EA85144460C261A8
:105720004A680264036230BD002C014090F83D30AD
:10573000012B20D1022380F83D300368DA6842F063
:105740000102DA600D4A93420AD0B3F1804F07D0CC
:10575000A2F59432934203D002F58062934204D1C1
:105760009A6802F00702062A03D01A6842F0010282
:105770001A60002070470120704700BF002C0140D4
:1057800070477047704770477047036870B5DD68B1
:105790001E690446B1070DD5AA070BD56FF00202AA
:1057A0001A61012202779B699B0769D0FFF7EAFF24
:1057B00000232377710710D56A070ED56FF0040216
:1057C000236820461A61022222779B6913F4407FE6
:1057D0005CD0FFF7D7FF0023237733070FD52807C7
:1057E0000DD56FF00802236820461A610422227743
:1057F000DB69990750D0FFF7C5FF00232377F20636
:1058000010D5EB060ED56FF01002236820461A6102
:1058100008222277DB6913F4407F43D0FFF7B2FF01
:1058200000232377F00708D5E90706D56FF00102BA
:10583000236820461A61FBF755FA320608D52B0675
:1058400006D56FF08002236820461A6100F0F7FA4F
:10585000700608D5690606D56FF040022368204619
:105860001A61FFF791FFB20622D5AB0620D56FF083
:10587000200223682046BDE870401A6100F0DEBABD
:10588000FFF77FFF2046FFF77EFF91E7FFF779FFE5
:105890002046FFF778FF9EE7FFF773FF2046FFF7EC
:1058A00072FFAAE7FFF76DFF2046FFF76CFFB7E72F
:1058B00070BD0000174A036890420AD0B0F1804FD3
:1058C00007D0A2F59432904203D002F58062904254
:1058D00007D14A6823F070031343CA6823F4407366
:1058E00013434A6923F08003134303608B68C36248
:1058F0000B688362074B984204BF0B690363012363
:1059000043610369DB0742BF036923F001030361BD
:10591000704700BF002C014010B5044630B390F82A
:105920003D3003F0FF021BB980F83C20FCF76EFB12
:105930000223206884F83D30211DFFF7BBFF0123BF
:10594000002084F8463084F83E3084F83F3084F8F4
:10595000403084F8413084F8423084F8433084F891
:10596000443084F8453084F83D3010BD0120FCE718
:1059700010B5044630B390F83D3003F0FF021BB978
:1059800080F83C20FFF7FCFE0223206884F83D30BD
:10599000211DFFF78FFF0123002084F8463084F893
:1059A0003E3084F83F3084F8403084F8413084F849
:1059B000423084F8433084F8443084F8453084F829
:1059C0003D3010BD0120FCE7036A026A70B522F089
:1059D00010020262446882690D6822F4E64242EADB
:1059E00005228D6823F0200343EA05130B4DA842DE
:1059F0000DD1CD6823F0800343EA051324F44064FD
:105A0000D1E90556354323F0400344EA8504446058
:105A100082614A688263036270BD00BF002C01404E
:105A200038B590F83C300446012B4FD00120082AAD
:105A300084F83C003AD006D8BAB1042A26D0002314
:105A400084F83C3038BD0C2AF9D12068FFF74CFEB1
:105A5000C3690A6943F40063C361C36923F48063C3
:105A6000C361C36943EA02232EE02068FFF7EAFD21
:105A700083690A6943F008038361836923F004039F
:105A800083618369134383610020D8E72068FFF7AF
:105A90009BFF83690A6943F400638361836923F48C
:105AA00080638361836943EA0223ECE72068FFF7A0
:105AB000F1FDC3690A6943F00803C361C36923F0B8
:105AC0000403C361C3691343C361DDE70220B9E77F
:105AD00010B584680A4324F47F4442EA0322224337
