:020000040800F2
:10000000005000204D340008593100085B310008D1
:100010005D3100085F310008613100080000000018
:100020000000000000000000000000006331000834
:1000300065310008000000006731000869310008E0
:10004000953400089534000895340008953400086C
:10005000953400089534000895340008953400085C
:100060009534000895340008953400086D31000877
:10007000953400089534000879310008853100086E
:100080009534000895340008913100089D3100082E
:10009000A93100089534000895340008953400080B
:1000A000AD310008B9310008BD310008C131000888
:1000B000C5310008D1310008DD3100089534000851
:1000C00095340008E9310008F5310008953400083E
:1000D0009534000801320008953400089534000872
:1000E000953400089534000895340008000000009D
:1000F0000000000000000000000000000000000000
:0C01000000000000000000005FF808F1A3
:1001100010B5054C237833B9044B13B10448AFF341
:1001200000800123237010BD0802002000000000A1
:10013000FC9A000808B5034B1BB103490348AFF311
:10014000008008BD000000000C020020FC9A00089E
:10015000034613F8012B002AFBD1181A0138704707
:1001600070B54FF0FF0C4CF4E06C1CEA11541DBF4D
:100170001CEA135594EA0C0F95EA0C0F00F0DEF818
:100180002C4481EA030621EA4C5123EA4C5350EAFD
:10019000013518BF52EA033541F4801143F480134E
:1001A00038D0A0FB02CE4FF00005E1FB02E506F0DF
:1001B0000042E0FB03E54FF00006E1FB03569CF034
:1001C000000F18BF4EF0010EA4F1FF04B6F5007F3A
:1001D00064F5407404D25FEA4E0E6D4146EB0606AC
:1001E00042EAC62141EA55514FEAC52040EA5E5035
:1001F0004FEACE2EB4F1FD0C88BFBCF5E06F1ED8DF
:10020000BEF1004F08BF5FEA500E50F1000041EB15
:10021000045170BD06F0004646EA010140EA0200C2
:1002200081EA0301B4EB5C04C2BFD4EB0C0541EAE4
:10023000045170BD41F480114FF0000E013C00F3F9
:10024000AB8014F1360FDEBF002001F0004170BD1D
:10025000C4F10004203C35DA0C341BDC04F1140436
:10026000C4F1200500FA05F320FA04F001FA05F2C2
:1002700040EA020001F0004221F0004110EBD3708F
:1002800021FA04F642EB06015EEA430E08BF20EABB
:10029000D37070BDC4F10C04C4F1200500FA04F35E
:1002A00020FA05F001FA04F240EA020001F00041F0
:1002B00010EBD37041F100015EEA430E08BF20EA63
:1002C000D37070BDC4F1200500FA05F24EEA020EAB
:1002D00020FA04F301FA05F243EA020321FA04F0DA
:1002E00001F0004121FA04F220EA020000EBD37091
:1002F0005EEA430E08BF20EAD37070BD94F0000F91
:100300000FD101F00046400041EB010111F4801FC4
:1003100008BF013CF7D041EA060195F0000F18BF75
:10032000704703F00046520043EB030313F4801FB1
:1003300008BF013DF7D043EA0603704794EA0C0F6B
:100340000CEA135518BF95EA0C0F0CD050EA410681
:1003500018BF52EA4306D1D181EA030101F00041FE
:100360004FF0000070BD50EA410606BF1046194626
:1003700052EA430619D094EA0C0F02D150EA013632
:1003800013D195EA0C0F05D152EA03361CBF104673
:1003900019460AD181EA030101F0004141F0FE4112
:1003A00041F470014FF0000070BD41F0FE4141F496
:1003B000780170BD81F0004102E000BF83F000438E
:1003C00030B54FEA41044FEA430594EA050F08BFF0
:1003D00090EA020F1FBF54EA000C55EA020C7FEAB4
:1003E000645C7FEA655C00F0E2804FEA5454D4EB31
:1003F0005555B8BF6D420CDD2C4480EA020281EAFB
:10040000030382EA000083EA010180EA020281EA32
:100410000303362D88BF30BD11F0004F4FEA013184
:100420004FF4801C4CEA113102D0404261EB410193
:1004300013F0004F4FEA03334CEA133302D0524219
:1004400063EB430394EA050F00F0A780A4F10104D5
:10045000D5F1200E0DDB02FA0EFC22FA05F280180F
:1004600041F1000103FA0EF2801843FA05F35941F5
:100470000EE0A5F120050EF1200E012A03FA0EFC74
:1004800028BF4CF0020C43FA05F3C01851EBE3719E
:1004900001F0004507D54FF0000EDCF1000C7EEBBB
:1004A00000006EEB0101B1F5801F1BD3B1F5001FF9
:1004B0000CD349085FEA30004FEA3C0C04F1010418
:1004C0004FEA445212F5800F80F09A80BCF1004F41
:1004D00008BF5FEA500C50F1000041EB045141EAC3
:1004E000050130BD5FEA4C0C404141EB0101013C8C
:1004F00028BFB1F5801FE9D291F0000F04BF01467B
:100500000020B1FA81F308BF2033A3F10B03B3F14C
:1005100020020CDA0C3208DD02F1140CC2F10C02DC
:1005200001FA0CF021FA02F10CE002F11402D8BF3A
:10053000C2F1200C01FA02F120FA0CFCDCBF41EA06
:100540000C019040E41AA2BF01EB0451294330BDD5
:100550006FEA04041F3C1CDA0C340EDC04F11404B2
:10056000C4F1200220FA04F001FA02F340EA030089
:1005700021FA04F345EA030130BDC4F10C04C4F1CF
:10058000200220FA02F001FA04F340EA03002946AF
:1005900030BD21FA04F0294630BD94F0000F83F4F9
:1005A000801306BF81F480110134013D4EE77FEADC
:1005B000645C18BF7FEA655C29D094EA050F08BF28
:1005C00090EA020F05D054EA000C04BF1946104609
:1005D00030BD91EA030F1EBF0021002030BD5FEA4D
:1005E000545C05D14000494128BF41F0004130BD75
:1005F00014F580043CBF01F5801130BD01F00045C9
:1006000045F0FE4141F470014FF0000030BD7FEA3B
:10061000645C1ABF194610467FEA655C1CBF0B4636
:10062000024650EA013406BF52EA033591EA030F4D
:1006300041F4002130BD00BF90F0000F04BF002145
:10064000704730B54FF4806404F132044FF0000578
:100650004FF0000150E700BF90F0000F04BF0021F1
:10066000704730B54FF4806404F1320410F0004557
:1006700048BF40424FF000013EE700BF42004FEA52
:10068000E2014FEA31014FEA02701FBF12F07F43CF
:1006900093F07F4F81F06051704732F07F4208BF86
:1006A000704793F07F4F04BF41F40021704730B58D
:1006B0004FF4607401F0004521F000411CE700BFD9
:1006C00050EA010208BF704730B54FF000050AE05C
:1006D00050EA010208BF704730B511F0004502D55D
:1006E000404261EB41014FF4806404F132045FEA5F
:1006F000915C3FF4D8AE4FF003025FEADC0C18BF08
:1007000003325FEADC0C18BF033202EBDC02C2F1F9
:10071000200300FA03FC20FA02F001FA03FE40EA8B
:100720000E0021FA02F11444BDE600BF4FEA410277
:1007300012F5001215D211D56FF47873B3EB625233
:1007400012D94FEAC12343F0004343EA505311F05A
:10075000004F23FA02F018BF404270474FF00000EC
:10076000704750EA013005D111F0004008BF6FF02A
:10077000004070474FF00000704700BF80F000401D
:1007800002E000BF81F0004142001FBF5FEA410369
:1007900092EA030F7FEA226C7FEA236C6AD04FEA69
:1007A0001262D2EB1363C1BFD218414048404140AE
:1007B000B8BF5B42192B88BF704710F0004F40F460
:1007C000000020F07F4018BF404211F0004F41F47C
:1007D000000121F07F4118BF494292EA030F3FD048
:1007E000A2F1010241FA03FC10EB0C00C3F120035B
:1007F00001FA03F100F0004302D5494260EB4000EA
:10080000B0F5000F13D3B0F1807F06D340084FEA54
:10081000310102F10102FE2A51D2B1F1004F40EB49
:10082000C25008BF20F0010040EA030070474900B1
:1008300040EB0000013A28BFB0F5000FEDD2B0FA4E
:1008400080FCACF1080CB2EB0C0200FA0CF0AABF71
:1008500000EBC25052421843BCBFD040184370470F
:1008600092F0000F81F4000106BF80F40000013215
:10087000013BB5E74FEA41037FEA226C18BF7FEAEC
:10088000236C21D092EA030F04D092F0000F08BF2E
:100890000846704790EA010F1CBF0020704712F015
:1008A0007F4F04D1400028BF40F00040704712F154
:1008B00000723CBF00F50000704700F0004343F0B9
:1008C000FE4040F4000070477FEA226216BF0846EF
:1008D0007FEA23630146420206BF5FEA412390EAB2
:1008E000010F40F4800070474FF0000304E000BFA8
:1008F00010F0004348BF40425FEA000C08BF704759
:1009000043F0964301464FF000001CE050EA01021C
:1009100008BF70474FF000030AE000BF50EA010231
:1009200008BF704711F0004302D5404261EB41011E
:100930005FEA010C02BF84460146002043F0B64343
:1009400008BFA3F18053A3F50003BCFA8CF2083A68
:10095000A3EBC25310DB01FA02FC634400FA02FC71
:10096000C2F12002BCF1004F20FA02F243EB020078
:1009700008BF20F00100704702F1200201FA02FCDA
:10098000C2F1200250EA4C0021FA02F243EB0200CD
:1009900008BF20EADC7070474FF0FF0C1CEAD05211
:1009A0001EBF1CEAD15392EA0C0F93EA0C0F6FD0D2
:1009B0001A4480EA010C400218BF5FEA41211ED0B0
:1009C0004FF0006343EA501043EA5111A0FB01319C
:1009D0000CF00040B1F5000F3EBF490041EAD37171
:1009E0005B0040EA010062F17F02FD2A1DD8B3F1ED
:1009F000004F40EBC25008BF20F00100704790F05C
:100A0000000F0CF0004C08BF49024CEA502040EAAD
:100A100051207F3AC2BFD2F1FF0340EAC250704773
:100A200040F400004FF00003013A5DDC12F1190FB1
:100A3000DCBF00F000407047C2F10002410021FA23
:100A400002F1C2F1200200FA02FC5FEA310040F13B
:100A5000000053EA4C0308BF20EADC70704792F0B4
:100A6000000F00F0004C02BF400010F4000F013AEC
:100A7000F9D040EA0C0093F0000F01F0004C02BFE7
:100A8000490011F4000F013BF9D041EA0C018FE756
:100A90000CEAD15392EA0C0F18BF93EA0C0F0AD05C
:100AA00030F0004C18BF31F0004CD8D180EA010082
:100AB00000F00040704790F0000F17BF90F0004F1B
:100AC000084691F0000F91F0004F14D092EA0C0FFD
:100AD00001D142020FD193EA0C0F03D14B0218BF90
:100AE000084608D180EA010000F0004040F0FE40D6
:100AF00040F40000704740F0FE4040F44000704772
:100B00004FF0FF0C1CEAD0521EBF1CEAD15392EAF0
:100B10000C0F93EA0C0F69D0A2EB030280EA010CE0
:100B200049024FEA402037D04FF0805343EA111179
:100B300043EA10130CF000408B4238BF5B0042F1D7
:100B40007D024FF4000C8B4224BF5B1A40EA0C007C
:100B5000B3EB510F24BFA3EB510340EA5C00B3EBAE
:100B6000910F24BFA3EB910340EA9C00B3EBD10F9C
:100B700024BFA3EBD10340EADC001B0118BF5FEAEE
:100B80001C1CE0D1FD2A3FF650AF8B4240EBC25017
:100B900008BF20F0010070470CF0004C4CEA5020D8
:100BA0007F32C2BFD2F1FF0340EAC250704740F427
:100BB00000004FF00003013A37E792F0000F00F019
:100BC000004C02BF400010F4000F013AF9D040EA97
:100BD0000C0093F0000F01F0004C02BF490011F42B
:100BE000000F013BF9D041EA0C0195E70CEAD15323
:100BF00092EA0C0F08D142027FF47DAF93EA0C0F0A
:100C00007FF470AF084676E793EA0C0F04D14B02ED
:100C10003FF44CAF08466EE730F0004C18BF31F09F
:100C2000004CCAD130F000427FF45CAF31F0004399
:100C30007FF43CAF5FE700BF4FEA4002B2F1FE4FE6
:100C40000FD34FF09E03B3EB12620DD94FEA00238E
:100C500043F0004310F0004F23FA02F018BF404267
:100C600070474FF00000704712F1610F01D142024E
:100C700005D110F0004008BF6FF0004070474FF002
:100C80000000704700220A4930B50B88094D013831
:100C900010F8014F14B902B10B8030BD5A1C92B24A
:100CA000B2F5807FEC5414BF134600230122EFE716
:100CB000360200203E020020074A10B51188074C7A
:100CC0004B1C9BB2B3F5807F138008BF0023605498
:100CD00008BF138010BD00BF360200203E02002076
:100CE00038B500240D4B0D461C700D4B01463F22BC
:100CF000184608F061FA0B4B1F2280F83F40294646
:100D0000184608F059FA3222074BC4771A600D22B0
:100D1000064B1A70064B1C7038BD00BF64040020DF
:100D20000D040020ED030020600400206504002075
:100D300034020020194B70B55B6806460D46144618
:100D40003BB347F2305316491648002A08BF1C46E9
:100D500008F072FA144B0F221846314608F02CFAAC
:100D600000221249C2730A22284608F0A3F90A2277
:100D700020460F4908F09EF90E4B1B7863B10E4BCD
:100D8000187810F0020003D0092206200B4B1A70CD
:100D900070BD4FF0FF30FBE70120F9E7280200208B
:100DA000149B000800000020DD030020D703002072
:100DB000C10300200D04002064040020650400200D
:100DC000064B5B683BB1064B1B7813F0400F0CBF22
:100DD0000520072070474FF0FF30704728020020A1
:100DE00064040020064A10B51188064C4B1C9BB2C7
:100DF000802B138008BF0023605408BF138010BDF0
:100E00003C0200203E0300202DE9FF479A46334B69
:100E100081465B680E461746002B5AD0DFF8C0802B
:100E200098F80040630657D514F0080449D10A2207
:100E300001A9384608F03EF901A8FFF789F9013801
:100E4000C0B203283BD82748FFF71CFF01A8FFF7D3
:100E500019FF2548FFF716FF2246244924480B882E
:100E6000A5B2AF4218D802B10B8098F80030214CDF
:100E700023F00C0343F00C0388F8003023683BB1E7
:100E80001D489847236801A8984723681B4898473E
:100E9000092004B0BDE8F0875D1CADB2B5F5807FD8
:100EA00008BF0025721C19F8066092B2C6540134BE
:100EB000524514BF164600262B460122D0E70B20D0
:100EC000E7E70C4B1B680BB90820E2E70C48984792
:100ED000FAE74FF0FF30DCE70520DAE728020020D0
:100EE00064040020459E0008189B0008360200207C
:100EF0003E020020500400201B9B0008969B000827
:100F00002E9B000802460D4B0068516803C3906891
:100F10000B4A1860002313700A4A13700A4A1380A0
:100F20000A4A13800A4A13800A4A13800A4A137035
:100F30000A4A13600A4A1360704700BF2802002063
:100F400065040020C0030020380200203602002083
:100F50003A0200203C0200206404002054040020D7
:100F600050040020094A13680BB1013B1360084A82
:100F7000136823B1013B13600BB9064A1370064A8C
:100F800013680BB1013B1360704700BF6004002081
:100F90005C040020C0030020580400202DE9F84F15
:100FA000A24BA34EB3F800B0338800255B4506D0B2
:100FB000A04F3B780D3B022B20D8A6F800B09E4EE8
:100FC0009E4C3368002B40F038826423994D336087
:100FD0002B780F2B00F23182DFE813F05B03440221
:100FE0005D0263026D02A802DE02E602F70205035B
:100FF0001403510356030F021B022A020223904AD4
:10100000904C136033889B45D9D08F4AD05C2278AE
:101010000C2A00F2ED81DFE812F00D005700C50048
:10102000EB01EB017A018F019701A401EB01BF01F4
:10103000C401D601002304229E468449DFF81082B1
:10104000DFF810920B7088F800205FFA83FC59F8E3
:101050002C20A2B9BEF1000F01D081F800C00022FF
:10106000774B76491A600B7813F0010F20D03E2899
:101070001ED162F300030B70774B1A6018E092F8F0
:1010800004A0013382451CD1BEF1000F01D081F8CC
:1010900000C013785278303B313A03EB830302EB04
:1010A00043036E4A138001232370052388F8003020
:1010B000338801339BB2802B338004BF00233380FD
:1010C000A0E74FF0010EC0E7DFF880C161499CF84E
:1010D000002051F822205E49097812F801E0864587
:1010E00014D1DFF878C1BCF80030013B9BB2ACF8FA
:1010F00000300BB10D284DD19378D278303B03EB03
:101100008303303A02EB43032370D1E70022914678
:10111000C1F57F4A8CF800200AF1D30ADFF834C108
:101120005FFA82F85CF828C0BCF1000F0CD1B9F16D
:10113000000F04D0494A1580444A82F800800022FA
:10114000013B22703380B3E79CF800E09CF801502B
:10115000AEF1300E0EEB8E0E554405EB4E05ADB2E2
:101160007F2D1BD81CF801E0864517D13B4B1D8015
:10117000B9F1000F02D0354B83F8008055B99CF8C7
:1011800002309CF80320303B03EB8303303A02EB40
:10119000430323702E4B0131197089E74FF0010989
:1011A0000132BBE70A2883D10022284B22701B782A
:1011B000023B0D2B3FF67CAF01A151F823F000BF9D
:1011C000F91100081312000869120008B110000894
:1011D0009512000895120008B7120008C112000805
:1011E000D9120008B7120008B1100008F91200085F
:1011F000B1100008031300083B78022B7FF458AFAE
:1012000000220D4B1A600D4A137843F0200313702F
:101210004EE70A4A137819077FF54AAF23F04803CF
:1012200013700F4B1A880F4B1A8041E73C020020C5
:101230003A020020650400206004002064040020BD
:101240005C040020C00300203E0300202502002093
:1012500024020020FC9C000858040020BE0300204B
:101260003602002038020020984B1A603B78062B8B
:10127000974B02BF1A7842F020021A701A7842F097
:1012800002021A70934B1B68002B3FF411AF03202E
:1012900098470DE78E4A137823F0420313708D4B65
:1012A0001B680BB1002098473B78062B3FF400AF3A
:1012B0000F233B70FCE6864A137823F04003A6E731
:1012C000834A137823F008031370824B1B68002BAA
:1012D0003FF4EEAE0A20DBE77C4B1A607C4A1378C1
:1012E00023F0600343F0600313707A4B1B68002BFC
:1012F0003FF4DEAE0720CBE7754A137823F04203B4
:1013000085E7734A137823F042031370D0E7724ADB
:101310002C28126807D106232370002A3FF4C8AE98
:101320006E489047C4E60021013B21703380002ABB
:101330003FF4BEAE6A48F4E722287FF4B9AE072333
:1013400023700022674B6FE7222803D0654A138879
:10135000102B01D10823D7E6591C1180624AD054C2
:10136000A6E60A287FF4A4AE00235E4A2370118803
:101370005D4A0F299BBF5354554913700A789FBF8C
:1013800042F020020A70514A1360524B1B68002B36
:101390003FF48EAE04207BE72C287FF4D0AE0B23E5
:1013A000CEE73A2801D10C23AEE6A0F13002092A9B
:1013B0003FF6C5AE4B4A138803EB830300EB4303B0
:1013C000303B138074E6494B9B6803B19847454A0C
:1013D0001388013B9BB21380002B7FF469AE23700E
:1013E0003D4B1B68002B3FF463AE414898475FE6D6
:1013F0000023404A237013605AE63C4B00201B68D0
:101400009847354B1B680BB13B4898470E232B7010
:1014100013E0364B01201B6898472F4B1B680BB11C
:10142000364898470F232B704FF4FA73336004E06B
:10143000012300222B70324B1A702378DA0740F117
:101440002A81304A12685AB962F3000301222370DC
:101450002D4B2E491A700A2308882D4933600880C5
:10146000BDE8F88F264A13782BB1013BDBB213702D
:101470001BB90D23CBE7042313702378254823F0F1
:1014800020032370FFF7FEFB134B1B680BB12248B0
:1014900098470223BBE72378980640F1A2800323F4
:1014A000B5E71E48FFF7EEFB0B4B1B680BB11C4862
:1014B00098470423ABE71B48FFF7E4FB064B1B6888
:1014C0000BB1194898470523A1E700BF600400202D
:1014D000640400205404002050040020469B0008AF
:1014E0005B9B0008BE030020C703002028020020E9
:1014F0006F9B00085C040020829B0008989B0008FA
:101500003402002058040020650400203602002028
:10151000380200209D9E0008AE9B0008819E0008B6
:10152000BC9B00088F9E0008D09B00082378990779
:1015300001D507236BE76D4F3B78002B3FF47DAF60
:101540006B48FFF79FFB2220FFF7B6FB3846FFF7FB
:1015500099FB2220FFF7B0FB2C20FFF7ADFB2220E8
:10156000FFF7AAFB6348FFF78DFB2220FFF7A4FBE0
:101570000D20FFF7A1FB0A20FFF79EFB5E4B1B68C7
:101580000BB15E489847237823F02003237006238D
:101590002B7040F2DC5349E723789A0621D50723C4
:1015A00004222B70564B47E70022564B56481A70C0
:1015B000FFF768FB504B1B680BB1544898472378E2
:1015C00023F020032370082321E723789B0601D50D
:1015D00009231CE74A4A1378013BDBB21370002B46
:1015E000A7D1012313E74A4B1B78002B3FF425AF0B
:1015F0004848FFF747FB404B1B680BB146489847EC
:101600000A2304E74548FFF73DFB2220FFF754FB80
:101610004348FFF737FB2220FFF74EFB2C20FFF754
:101620004BFB2220FFF748FB3948FFF72BFB22201A
:10163000FFF742FB2C20FFF73FFB3A48FFF722FB66
:101640002C20FFF739FB3848FFF71CFB2C20FFF755
:1016500033FB3020FFF730FB0D20FFF72DFB0A2076
:10166000FFF72AFB244B1B680BB1304898472378BF
:1016700023F0600323700B232B70C823D6E6237856
:101680009F06AED50C23C2E623789807A9D5590644
:101690009ED50023CAE6264D26492A88098891420C
:1016A0003FF4DEAE244E5F07B05C02D53E2808BF93
:1016B0000A20224B5B68984700283FF4D1AE22787D
:1016C0002B8851070AD5F15C3E2907D1052122F06C
:1016D000050242F001022270194A116001339BB2E7
:1016E000B3F5807F08BF00232B80B9E60D040020EE
:1016F000779E0008ED03002050040020E49B0008C2
:1017000034020020C70300206C9E0008F79B0008ED
:10171000DD030020519E0008089C00085F9E000821
:1017200000000020D7030020C10300201E9C0008F9
:1017300038020020360200203E020020280200204D
:1017400058040020014B1860704700BF500400206F
:101750000022F0B5084BD4B2A14202F1010200D838
:10176000F0BD5D791E686F1C5F71045D74555C7916
:101770009D792C405C71EEE7AC06002010B5054B5E
:101780005A791968541C5C7188545A7999790A40BD
:101790005A7110BDAC0600201FB514461A464FF012
:1017A000FF330091CDE9014301460123024802F0D5
:1017B0008FFE04B010BD00BFD8080020FFF7ECBFBB
:1017C00013B514461A46CDE9001401230146024818
:1017D00002F00EFF02B010BDD808002013B5144669
:1017E0001A46CDE9001401230146024802F0C6FF63
:1017F00002B010BDD8080020021E18BF01224FF40D
:101800000071014802F0E0BB000C014007B5012265
:101810008DF807000DF10701044805F0D4FDB0FA7A
:1018200080F0400903B05DF804FB00BFE80600202B
:1018300010B50446FEF78CFC81B22046BDE810408E
:1018400007F076BA054B064A03F1100153F8040B72
:101850008B4242F8040BF9D1704700BFD406002038
:10186000C40600200122014B1A707047A304002017
:101870000122014B1A707047A204002038B502689B
:101880001A4B04469A4212D1194A1A4913781A4837
:101890000133DBB2282B01BF00231370174A1378E2
:1018A00008BF43F080031370082201F0B7FF2368DC
:1018B000B3F1804F18D10122114912480B78124C14
:1018C000E2541344027803F00F03013A12F0FF02CE
:1018D00008BF05250B7003BFE254013303F00F036B
:1018E000027004BF05700B7038BD00BF002C0140B2
:1018F000E4060020D406002070090020A404002083
:1019000084040020040000208504002070B50268D3
:10191000037A0C46D15C0546A1F1F003042B00F2DA
:10192000FE80DFE803F0030D1C68B700F0210222FF
:10193000204601F08CFC0D21204601F0D0FC08E08F
:10194000F1210D22204601F082FC2046774901F06A
:10195000D9FC2046617ABDE8704001F0C0BC0D2280
:10196000F221204601F073FC714B724DB3F9001067
:1019700020462980C9B201F0B2FC6978204601F006
:10198000AEFC6D4B2046B3F900102980C9B201F0BE
:10199000A6FC6978204601F0A2FC684B2046B3F90A
:1019A00000102980C9B201F09AFC6978204601F044
:1019B00096FC634B2046B3F900102980C9B201F0B0
:1019C0008EFC6978204601F08AFC5E4B2046B3F914
:1019D00000102980C9B201F082FC6978204601F02C
:1019E0007EFC594BB3F9001029802046C9B201F0A2
:1019F00076FC6978A0E7554E1122F321204601F0CC
:101A000026FC4C4D318820462980C9B201F067FC84
:101A10006978204601F063FC718820462980C9B2AC
:101A200001F05DFC6978204601F059FCB188204640
:101A30002980C9B201F053FC6978204601F04FFCBF
:101A4000F18820462980C9B201F049FC6978204616
:101A500001F045FC318920462980C9B201F03FFCE4
:101A60006978204601F03BFC718920462980C9B283
:101A700001F035FC6978204601F031FCB18920463F
:101A80002980C9B201F02BFC6978204601F027FCBF
:101A9000F189A9E70222F421204601F0D8FB0D21AB
:101AA000204601F01CFC617A204601F018FC00225F
:101AB0000121284601F04BFC1E4C00220121207020
:101AC000284601F044FC002201216070284601F004
:101AD0003EFC00220121A070284601F038FCE07095
:101AE0001B4B226801211A602846002201F02FFCBE
:101AF000002201212070284601F029FC002201214A
:101B00006070284601F023FC0022A07001212846C5
:101B100001F01DFCE07022680E4B1A6070BD0222BD
:101B2000204601F094FBFF2106E700BF84B30008C4
:101B3000A0040020A80400209E0400209C04002093
:101B40009A0400209804002096040020C406002077
:101B50007C04002080040020F0B51B4DC1B02A7920
:101B60006B799A421DD0284601F0FEFBC8B1174C94
:101B700028462146FFF7CAFE694600220D46E6794F
:101B8000276894F806C0D3B29E420CD8FFF718F924
:101B9000072814D14FF4807300212846E279FFF71B
:101BA00033F941B0F0BD207A0132431CDBB223721D
:101BB000385C03EA0C0301F8010B2372E3E72846C3
:101BC000E17907F0B5F8ECE7AC060020B806002094
:101BD00010B50B4B0B4C1A780B4B217853F8222085
:101BE00001238B40934304D04FF40051074802F087
:101BF000F0F92378013303F01F03237010BD00BFF9
:101C00007A04002068040020080000200010014031
:101C1000F0B52F4D8DB02B78DB0956D02B782D4E9B
:101C200023F080032B7033782B4C013B33702378E7
:101C3000013B2370FFF796F923782BB90223237019
:101C40002B7843F040032B703478002C3DD10A23CD
:101C5000224A337013780133DBB2092B09D8137091
:101C60002B7843F020032B700DB0BDE8F040FFF758
:101C7000AFBFF021147001A8012201F0E8FA21465B
:101C800001A801F02CFB9DF80D1001A801F027FB25
:101C900004A908469DF80B20019F9DF80AC09442B4
:101CA00004DB64230021FFF7AFF8D9E79DF80C604F
:101CB0000134731CDBB28DF80C30BE5D03EA0C03FB
:101CC00001F8016B8DF80C30E9E70DB0F0BD00BFF5
:101CD000A404002006000020050000207904002054
:101CE000F0B5002485B0012000F07AFE21464023A3
:101CF00020221E20009400F0B1FF204616238022EF
:101D00001421009400F0AAFF4023522221465020C3
:101D1000009400F0A3FF7F4D2146282000F052FFE1
:101D20007D4902A807F088FA95E80E00009402A801
:101D300000F032FF2146552000F044FF774902A809
:101D400007F07AFA95E80E00009402A800F024FF4C
:101D50001921282000F036FF0821714E714B724D79
:101D600032460DEB0100B3F9003007F0E7F995E8D2
:101D70000E00009402A800F00FFF1921552000F07A
:101D800021FF0821694B32460DEB0100B3F9003009
:101D900007F0D4F995E80E00009402A800F0FCFECC
:101DA0002521282000F00EFF0821614B32460DEB63
:101DB0000100B3F9003007F0C1F995E80E00009476
:101DC00002A800F0E9FE2521552000F0FBFE0821C5
:101DD000584B32460DEB0100B3F9003007F0AEF975
:101DE00095E80E00009402A800F0D6FE31212820CC
:101DF00000F0E8FE0821504B32460DEB0100B3F92C
:101E0000003007F09BF995E80E00009402A800F05E
:101E1000C3FE3121552000F0D5FE082132461E2692
:101E2000464B0DEB0100B3F9003007F087F995E858
:101E30000E0040F6FA75424F009402A800F0ACFE86
:101E40003B8803227343B3FBF5F3C3F13C03104615
:101E50003C210094DBB200F0BBFE7B88062273437A
:101E6000B3FBF5F3C3F13C0310463C210094DBB215
:101E700000F0AEFEBB8809227343B3FBF5F3C3F158
:101E80003C0310463C210094DBB200F0A1FEFB882D
:101E90000C227343B3FBF5F3C3F13C0310463C2122
:101EA0000094DBB200F094FE3B890F227343B3FB36
:101EB000F5F3C3F13C0310463C210094DBB200F083
:101EC00087FE7B8912227343B3FBF5F3C3F13C0316
:101ED00010463C210094DBB200F07AFEBB8915224B
:101EE0007343B3FBF5F3C3F13C0310463C2100946C
:101EF000DBB200F06DFEFB8918227343B3FBF5F3F0
:101F0000C3F13C033C2110460094DBB200F060FEBC
:101F100005B0F0BDA49E0008349C0008389C000861
:101F20003C9C0008A0040020B09E00089A040020F9
:101F30009E040020980400209C04002096040020A9
:101F4000C406002013B5224C2378032B3ED8DFE8CB
:101F500003F002151A271F4A1F4B11781B788B427A
:101F600008D01E484B1C415C03F00F0321B1032134
:101F70002170137002B010BD0121F9E7FFF7B0FE28
:101F800002232370F6E7164803F0EAFB2028F1D17C
:101F900000F04CFD0028EDD00023124A1370F0E74A
:101FA0000F4803F0DDFB2028E4D100F0BDFB002842
:101FB000E0D00D4B0D4A01930D4B0E4900930E4896
:101FC0000E4B00F095FC00230D4AE7E70023D8E70D
:101FD000670400206604002084040020850400209B
:101FE000D8080020A3040020960400209C040020B0
:101FF000980400209E040020A00400209A040020E1
:10200000A204002042F20F706421094B1A68094BA8
:1020100042431B68B2FBF1F24343B3FBF1F30649C1
:1020200009684A63CB6300238B630B64704700BF6E
:102030007C040020800400207807002010B594B0B4
:10204000142200210CA807F0AFF8142200210DEB98
:10205000020007F0A9F81022002101A807F0A4F857
:1020600002244FF480330122CDE91143CDE90A2344
:102070004FF4E0130AA80E92139304F017FA08B174
:1020800072B6FEE70F23CDE905344FF48063079065
:10209000CDE90830214605A804F0CAFB08B172B6A4
:1020A000FEE7122301934FF40043CDE9033001A86A
:1020B00004F07AFC08B172B6FEE714B010BD00005F
:1020C00080B5A94C98B001F00BFAFFF7B7FF1022CA
:1020D000002111A807F068F8A369002243F010035B
:1020E000A361A3694FF4005103F010030293029B14
:1020F000A3699E4843F02003A361A369002503F070
:1021000020030393039BA369012743F00403A36106
:10211000A369022603F004030493049BA36943F01C
:102120000803A361A36903F008030593059B01F06D
:102130004BFF00224FF400718D4801F045FF4FF432
:1021400000538A4811A9CDE91137CDE9135601F0A2
:1021500067FE4FF40043864811A9CDE91135139568
:1021600001F05EFE4FF40073814811A9CDE91137EB
:10217000CDE9135601F054FE63692A463B4363617F
:10218000636929463B400B200193019B01F08CFCC5
:102190000B2001F0B9FC2A4629460E2001F084FCF0
:1021A0000E2001F0B1FC2A4629460F2001F07CFCEC
:1021B0000F2001F0A9FC6F4C6F4BCDE91155236046
:1021C0004FF480731395A36025734FF46023257536
:1021D000656008252046E361256101F0D3FB08B165
:1021E00072B6FEE7CDE91107139011A9204601F060
:1021F0005BFA08B172B6FEE7204611A9CDE9117667
:1022000001F052FA08B172B6FEE711960326204695
:1022100011A9129601F048FA08B172B6FEE71196BC
:102220000426204611A9129601F03EFA08B172B6B2
:10223000FEE711960526204611A9129601F034FA00
:1022400008B172B6FEE711960626204611A912962D
:1022500001F02AFA08B172B6FEE711960726204669
:1022600011A9129601F020FA08B172B6FEE72046D5
:1022700011A9CDE9116501F017FA044608B172B64B
:10228000FEE7014610220CA806F08EFF142221461C
:1022900011A806F089FF47233848394ECDE9084494
:1022A000C0E90063F923C0E90544C0E90334846050
:1022B00004F05EFD08B172B6FEE74FF480562F4879
:1022C0000CA90C9604F03AFE08B172B6FEE7CDE90F
:1022D000110011A9294804F02AFF08B172B6FEE7DF
:1022E000CDE9080008A9254804F0A6FF054608B175
:1022F00072B6FEE7014610220CA806F055FF142224
:10230000294611A806F050FF47274FF080431D4C87
:10231000CDE90855C4E9003744F61F632046C4E9F7
:102320000335A560A56104F023FD08B172B6FEE790
:1023300020460CA90C9604F001FE08B172B6FEE727
:10234000CDE9110011A9204604F0F1FE08B172B6E2
:10235000FEE7CDE9080008A9204604F06DFF044619
:1023600090B172B6FEE700BF0010024000100140BD
:10237000000C0140700900200024014008080020E2
:10238000002C0140C00700200146102208A806F0DA
:102390000BFF142221460CA806F006FF1C22214642
:1023A00011A8904DCDE9064406F0FEFE8E4B28465E
:1023B000C5E9003742F20F73AC60C5E90334AC6184
:1023C00004F0D6FC08B172B6FEE7284608A90896C4
:1023D00004F0B4FD08B172B6FEE7284604F0F4FC40
:1023E00008B172B6FEE700237E480CA9CDE90C3394
:1023F00004F09DFE08B172B6FEE7CDE9060006A91D
:10240000784804F019FF024608B172B6FEE760236F
:102410001390CDE91130159011A9724804F02CFDEC
:1024200008B172B6FEE704226E4811A904F024FD3B
:1024300008B172B6FEE708226A4811A904F01CFD33
:1024400008B172B6FEE70C22664811A904F014FD2B
:10245000044608B172B6FEE7624800F007FE4FF48A
:10246000E1336248624DC0E90244C0E900530C23E5
:102470000461C0E90534C46104F076FF044608B184
:1024800072B6FEE706F0DEFB5A485B495B4BC0E9DB
:102490000244C0E900134FF48043C0E90644C0E998
:1024A0000434046201F06CFF044608B172B6FEE722
:1024B0001022014611A806F077FE4723504D514ADD
:1024C0002846C5E9002342F20F73CDE90C44C5E963
:1024D0000334AC60AC6104F04BFC08B172B6FEE7AB
:1024E0004FF48053284611A9119304F027FD08B139
:1024F00072B6FEE7002342480CA9CDE90C3304F084
:102500009BFE044608B172B6FEE73F4806F026FC83
:102510003E4804F037FB3E4804F034FB314804F0F9
:1025200031FB21462F4804F085FE04212D4804F09C
:1025300081FE08212B4804F07DFE0C21294804F07F
:1025400079FE01224FF40051324801F03DFD32483E
:1025500000F040FA314800F037FA314800F02EFA26
:1025600000F0BEFB2F4800F09DF82F4800F0A0F8C7
:102570002E4800F0A3F800F0BFF82D482D4B036063
:102580002D4B43602D4B8360FEF7BCFC2C48FFF7BE
:10259000D9F801222B49154805F0F7F82A492B48AC
:1025A000FEF79EFB47F2315247F23A512848FEF7B8
:1025B000C1FB284B284A2949294800F03BFF294BF9
:1025C000294A1C7064231360284A1360FFF720FB1C
:1025D000FEF7E4FCFFF7C0FAFFF714FDFFF7B2FCCB
:1025E000F4E700BF7807002000040040E806002060
:1025F00000380140D808002000580040801A06002A
:10260000300700200008004051170008080800208B
:10261000C007002000100140A30400209917000803
:10262000C1170008A2040020BD170008DD1700082C
:102630006C040020F91700080D1800087D17000829
:1026400031180008780400203F9C0008489C0008CE
:10265000539C0008AC050020AC040020B806002004
:10266000AC060020A40400207C040020800400208C
:102670000268084B10B59A420AD1074C2078FEF741
:10268000B1FB2146BDE810400122044805F07DB8A9
:1026900010BD00BF0038014078040020E80600208B
:1026A00072B6FEE7014B1860704700BFC4090020F6
:1026B000014B1860704700BFC0090020014B186033
:1026C000704700BFBC090020044A10B414680B46D0
:1026D000A44601460122D02010BC6047C00900205A
:1026E0001346044A10B41468CAB2A446014610BC8A
:1026F000D0206047BC090020002307B56B210DF1F5
:1027000007008DF80730FFF7DFFF0DF107001C21F0
:10271000FFF7DAFF1B210DF10700FFF7D5FF03B02C
:102720005DF804FB000000002DE9F041644B654AB0
:102730001868117803782BB9012900F09E800020D9
:10274000BDE8F08100230129037000F09680022982
:10275000F5D1012111705C4A10885788C0BA96885B
:1027600015895489B2F80C8000F5E172B2F5617FE9
:10277000FFBAF6BAEDBAE4BA98FAB8F813D9FEF788
:10278000B7F84FF06251FEF707F9FDF777FF4AA35C
:10279000D3E90023FDF7E4FC4C4B0022FDF7E0FCFD
:1027A000FDF7C4FF03B24A4A138007F5E173B3F59E
:1027B000617F6AD93846FEF79BF84FF06251FEF709
:1027C000EBF8FDF75BFF3CA3D3E90023FDF7C8FC62
:1027D00000223E4BFDF7C4FCFDF7A8FF00B23D4BC5
:1027E000188006F5E173B3F5617F50D93046FEF7E6
:1027F0007FF84FF06251FEF7CFF8FDF73FFF2EA3B1
:10280000D3E90023FDF7ACFC0022304BFDF7A8FC18
:10281000FDF78CFF00B2304B188005F5E173B3F57E
:10282000617F36D92846FEF763F82C49FEF768F930
:102830002B49FEF7B1F8FEF7FFF900B2294B1880DB
:1028400004F5AF73B3F52F7F25D92046FEF750F876
:102850002249FEF755F92249FEF79EF8FEF7ECF9FA
:1028600000B2214B214C188008F5AF73B3F52F7FD0
:1028700013D800232380012062E702230E21137066
:1028800011483B22FFF72CFF59E70020A7E7002063
:10289000C1E70020D2E70020E3E74046FEF728F832
:1028A0000E49FEF72DF90E49FEF776F8FEF7C4F94A
:1028B0002080E0E7AFF300801F85EB51B89E2340F6
:1028C000C409002030000020A00900200000594069
:1028D000B8090020B6090020B40900200000034315
:1028E0000000C842B2090020B0090020AE09002053
:1028F00070B5DDE9045418B10E4EB6F900600680DB
:1029000019B10D48B0F9000008801AB10B49B1F9AE
:10291000001011801BB10A4AB2F900201A801DB1C3
:10292000084BB3F900302B801CB1074BB3F90030D2
:10293000238070BDB8090020B6090020B40900202A
:10294000B2090020B0090020AE09002013B5064BE3
:102950008DF807001C680122002378200DF1070183
:10296000A04702B010BD00BFD40D002013B5064B28
:102970008DF807001C680122002378200DF1070163
:10298000A04702B010BD00BFD00D0020044B10B412
:102990001C68CAB2A44601464023782010BC604798
:1029A000D40D0020044B10B41C68CAB2A4460146E2
:1029B0004023782010BC6047D00D0020014B1860E8
:1029C000704700BFD00D0020014B1860704700BF5A
:1029D000D40D0020014B1860704700BFD80D0020B7
:1029E00000284FF4806214BFFF210021014806F047
:1029F000DBBB00BFD009002038B5B0240A4D20460B
:102A0000FFF7A4FF0020FFF7A1FF01341020FFF71C
:102A10009DFFE4B228468021FFF7B8FFB82C05F1EE
:102A20008005ECD138BD00BFD009002038B51C4B63
:102A30001C4C1A682378117819B9012B0AD0002090
:102A400038BD0021013B1170032BF8D8DFE803F0FB
:102A5000020B1015144B18785038C0B2FFF786FFE0
:102A600002232370EBE70020FFF780FF0323F8E742
:102A70001020FFF77BFF0423F3E70B4D0B4B287867
:102A8000802103EBC010FFF78DFF01202B78207011
:102A90000133DBB2072B2B70D1D900232B70CFE78A
:102AA000D80D002031000020C8090020D0090020E6
:102AB000030630B510D43F290ED80124CB08074DAA
:102AC00000EBC3102B5C01F0070104FA01F1A242F4
:102AD0000CBF0B438B432B5430BD00BFD0090020EB
:102AE0002DE9F04F044689B008A800E90E009DF8D2
:102AF0004830A4F120050293EBB25E2B48D8079B27
:102B00000BB3234413F8206CDFF88890B9F800A0C9
:102B10000AEB0603802B3BDCB9F802309DF815B0B8
:102B2000019303EB0B02402A32DC4FF000080BFB51
:102B300005F56D00C34509D85644A9F80060204644
:102B400009B0BDE8F08F9DF81460DDE70027069A14
:102B5000535B0493019B08EB0302D3B20393BE4281
:102B600003D808F101080235E4E7049B07EB0A00EB
:102B700003FA07F2130456BF029B029AB3FA83F2D8
:102B80000399C0B258BF5209FFF792FF0137E6E739
:102B90000024D4E7CA09002070B586B003AC84E8ED
:102BA0000E009DF82860451E15F8010F40B10096F3
:102BB00094E80E00FFF794FF034628788342F3D091
:102BC00006B070BD014B188059807047CA090020BB
:102BD0002DE9F74F9046A8EB0009A3EB010AB9F1E4
:102BE000000F1E46B8BFC9F10009BAF1000FB8BF07
:102BF000CAF1000A804594BF4FF0FF330123054618
:102C00000C468E4294BF4FF0FF3B4FF0010B404605
:102C100031469DF830200093A9EB0A07FFF748FFE3
:102C2000CAF10003454504D1B44202D103B0BDE866
:102C3000F08F214628460193FFF73AFF019B790068
:102C4000B3EB470FBFBF0098A7EB0A072D18EDB2F3
:102C50008945C2BF5C444F44E4B2E3E72DE9F0414B
:102C60001446A042804628BFA046A042064638BF70
:102C7000264699420C4628BF1C46994238BF194641
:102C80000F469DF81820BC4201D83F2C01D9BDE861
:102C9000F081454607E02B0607D428462146FFF77A
:102CA00007FF0135EDB2B542F5D90134E4B2EAE7E8
:102CB00010B504468120FFF749FE2046BDE81040CC
:102CC000FFF744BE002803460CBF03460123034A16
:102CD0000CBFAE20AF205371FFF738BECA090020E9
:102CE00008B5642000F020FC0020FFF7EBFF202057
:102CF000FFF72CFE0020FFF729FEB020FFF726FE8D
:102D0000C820FFF723FE0020FFF720FE1020FFF76A
:102D10001DFE4020FFF71AFEFF20FFF7C9FFA1208C
:102D2000FFF714FEA620FFF711FEA820FFF70EFE06
:102D30003F20FFF70BFEA420FFF708FED320FFF78C
:102D400005FE0020FFF702FED520FFF7FFFDF02073
:102D5000FFF7FCFDD920FFF7F9FD2220FFF7F6FD74
:102D6000DA20FFF7F3FD1220FFF7F0FDDB20FFF77D
:102D7000EDFD2020FFF7EAFD8D20FFF7E7FD142091
:102D8000FFF7E4FD0120FFF79DFF0020FFF728FE7D
:102D9000FFF732FE0022034B1A805A8001221A717B
:102DA00008BD00BFCA0900200E4B82B09A6942F0EC
:102DB00001029A619A6902F001020092009ADA69AE
:102DC00042F08052DA61DB69074A03F080530193D5
:102DD000019B536823F0E06343F08063536002B0CB
:102DE000704700BF001002400000014030B50546AA
:102DF00087B01022002102A806F0D6F92A68204BDD
:102E00009A423BD103F56C439A691E4842F4007222
:102E10009A619A6902A902F400720092009A9A6972
:102E2000194C42F004029A619B69FF2203F00403EB
:102E30000193019B0323CDE9022300F0F1FF8020E1
:102E40004FF480720023C4E903024FF480620F49FB
:102E50002046C4E90013C4E90523A360E36100F040
:102E600075FE08B1FFF71CFC002212202C621146EF
:102E7000656200F019FE122000F046FE07B030BD7A
:102E800000240140000801402C09002008000240F5
:102E900030B5054687B01022002102A806F084F95B
:102EA0002A682E4B9A4256D12D4C4FF44061A369AB
:102EB0002C4843F00803A361A36903F008030093BF
:102EC000009B1223CDE90213032302A9059300F00E
:102ED000A7FFE369802243F48003E361E3692248AA
:102EE00003F480030193019B0023204CC4E90003F9
:102EF0002046C4E90323C4E90533A360E36100F07D
:102F000025FE08B1FFF7CCFB1023194AAC636562BC
:102F1000184CC4E90023002380222046C4E9023271
:102F2000C4E90433C4E9063300F010FE08B1FFF72A
:102F3000B7FB0022212011466C63656200F0B4FDEE
:102F4000212000F0E1FD00222220114600F0ACFD1E
:102F5000222000F0D9FD07B030BD00BF005800406E
:102F600000100240000C014058000240940800206C
:102F700044000240500800201FB50368374A9342BE
:102F80002CD1374B18209A6942F400629A610022D2
:102F90009B69114603F400630093009B00F084FDDD
:102FA000182000F0B1FD00221920114600F07CFD30
:102FB000192000F0A9FD00221A20114600F074FD2E
:102FC0001A2000F0A1FD00221B20114600F06CFD2C
:102FD0001B2005B05DF804EB00F096BDB3F1804F07
:102FE00011D103F50433DA691C2042F00102DA61E1
:102FF0000022DB69114603F001030193019B00F0FD
:1030000053FD1C20E5E7174A934210D1144B1D20B5
:10301000DA6942F00202DA610022DB69114603F04C
:1030200002030293029B00F03FFD1D20D1E70E4AF0
:10303000934210D10A4B1E20DA6942F00402DA6191
:103040000022DB69114603F004030393039B00F0A5
:103050002BFD1E20BDE705B05DF804FB002C0140F0
:1030600000100240000400400008004010B5044673
:1030700086B01022002102A806F096F82268114BB3
:103080009A421CD103F503339A690F4842F00802B3
:103090009A619B69332203F008030193019B022389
:1030A00002A9CDE90223059300F0BAFE074A53684E
:1030B00023F4406343F0E06343F40063536006B0DD
:1030C00010BD00BF00040040000C014000000140A2
:1030D00010B5044686B01022002102A806F064F85C
:1030E00022681B4B9A4230D103F558439A6919481C
:1030F00042F480429A619A6902A902F480420092E5
:10310000009A9A69002442F004029A619B694FF484
:10311000007203F004030193019B0223CDE9022313
:103120000323059300F07CFE4FF48063094802A955
:10313000CDE90234049400F073FE25202246214696
:1031400000F0B2FC252000F0DFFC06B010BD00BF8F
:103150000038014000080140FEE7FEE7FEE7FEE719
:10316000FEE770477047704700F0CCB9014800F0A7
:10317000BFBD00BF2C090020014800F0B9BD00BF51
:1031800050080020014800F0B3BD00BF94080020A3
:10319000014800F009BA00BF70090020014802F0A0
:1031A00071BB00BFD41C0020FFF7F8BF014803F03B
:1031B00018BD00BF08080020FFF7F8BFFFF7F6BFF3
:1031C000FFF7F4BF014803F00CBD00BFC0070020AB
:1031D000014803F006BD00BF78070020014803F056
:1031E00000BD00BF30070020014801F0C1BD00BF95
:1031F000D8080020014802F013BA00BFD808002008
:10320000014804F05FB900BFE80600200B4A0346FE
:10321000116810B509B90A491160106809490A4CCA
:103220000344091B8B4206D905F0DAFF0C23036027
:103230004FF0FF3010BD1360FCE700BFDC0D002035
:10324000F8200020005000200004000070470346D2
:10325000002030B5587258791C68451C5D715525A1
:103260001872255458799C7901322040451C5D71B3
:103270004E251C68D2B2255458799C792040451CB3
:103280005D7145251C68255458799C792040451C62
:103290005D7152251C68255458799C7920401C6822
:1032A000451C5D71225458799C794A402040451C48
:1032B0005D713A251C68255458799C7920401C681A
:1032C000451C5D71215458799C7920405871072024
:1032D000D871587A504080F03600587230BD03469D
:1032E00010B5C2790132C2715A790068541C5C7100
:1032F00081545A79987902405A715A7A81EA0200C7
:10330000587210BD002337B58DF807309DF807308F
:10331000CB5C13B9407A03B030BDC3799DF8074048
:103320000133C371437902685D1C45710C5DD4544F
:103330004379827913409DF807204371531CDBB217
:103340008DF807308B5C427A53404372DEE70346C8
:1033500010B58479007A0144214018681972405CE4
:1033600011440C401C7210BD0021F0B50C46304ECB
:10337000477932780379BB4203D101B13270002022
:103380004FE0072A14D8DFE802F0040B161D242EA4
:10339000133C0568EB5C552B1FD101210A461CE04C
:1033A0000568ED5C4E2D3DD0552D16D0013B0371C7
:1033B0000121002211E00268D25C452AF6D10121E8
:1033C00003220AE00268D25C522AEFD101210422D2
:1033D00003E002680121D45C052203798579013379
:1033E0002B400371C6E701688279C95C3A29DDD1B7
:1033F00001331340037284F0360301210722437224
:10340000EBE7D0F800C0013C14F0FF04457A1CF84B
:10341000033002D05D404572DFE7AB4205D10120A9
:103420003470F0BD01210222D7E722460121D4E702
:10343000E00D002010B502604FF47F0400224460CC
:103440000281C1E900340A8110BD0000FFF7FEFED1
:103450000B480C490C4A002302E0D458C4500433F2
:10346000C4188C42F9D3094A094C002301E01360C7
:103470000432A242FBD305F0B9FEFEF721FE7047ED
:103480000000002008020020CCB300080802002041
:10349000F4200020FEE7000038B50E4B05461A78F0
:1034A0004FF47A73B3FBF2F30B4A1068B0FBF3F0FE
:1034B00000F038FB044658B90F2D09D802462946BA
:1034C0004FF0FF3000F0F0FA2046044B1D6038BD8D
:1034D0000120FCE738000020340000203C000020E0
:1034E000074A08B51368032043F01003136000F087
:1034F000C9FA0F20FFF7D0FFFFF756FC002008BDE8
:1035000000200240034A044B11681B780B441360EF
:10351000704700BFE40D002038000020014B186800
:10352000704700BFE40D002038B50446FFF7F6FFF2
:103530000546631C1EBF044B1B78E418FFF7EEFF23
:10354000431BA342FAD338BD38000020436A10B5AC
:103550009A6A12F0500F1BD19A6A42F400729A6272
:103560001A68926802F46022B2F5602F0CD11A7BBF
:1035700052B99A6A22F480729A629A6AD2045EBF41
:103580009A6A42F001029A621846FEF75BF910BD92
:103590001B6ABDE810401B6B1847704708B5406AAE
:1035A000FFF7FBFF08BD7047036870B51D685E68D4
:1035B0000446B00626D5A90724D5A26AD2065EBF66
:1035C000A26A42F40072A2629A6802F46022B2F522
:1035D000602F10D1227B72B95A6822F020025A6003
:1035E000A36A23F48073A362A36AD8045EBFA36AAC
:1035F00043F00103A3622046FEF724F96FF01202A4
:1036000023681A60310630D56A072ED5A36ADB0617
:103610005EBFA36A43F40053A36223689A6802F46E
:10362000E042B2F5E04F0AD05A68500516D49A68C5
:1036300002F46022B2F5602F10D1227B72B95A6871
:1036400022F080025A60A36A23F48053A362A36A23
:10365000D9055EBFA36A43F00103A362204600F0D0
:103660000FFA6FF00C0223681A6072060CD5EB0794
:103670000AD5A36A204643F48033A362FFF793FF81
:103680006FF0010223681A6070BD7047406A08B588
:10369000836A43F040038362C36A43F00403C36256
:1036A000FFF7F3FF08BD0000002373B5019390F806
:1036B00024300446012B6CD0012380F824304D685F
:1036C0000268062D086805EB850322D81F26556B76
:1036D000053B9E4025EA060500FA03F32B4353639E
:1036E00009288B6800EB40054FF0070129D9D668FF
:1036F0001E3DA94026EA0101AB400B43D360A0F177
:103700001003012B25D90020002384F8243002B0B7
:1037100070BD0C2D4FF01F0509D8166B233B9D4043
:1037200026EA050500FA03F32B431363D8E7D66AAC
:10373000413B9D4026EA050500FA03F32B43D36283
:10374000CEE71069A94020EA0101AB400B431361A9
:10375000D9E7114B9A4216D193681B02D3D49368D0
:10376000102843F400039360CDD10C4B0C4A1B6826
:10377000B3FBF2F30A2253430193019B002BC2D007
:10378000019B013BF8E7A36A012043F02003A362F9
:10379000BAE70220BBE700BF00240140340000204C
:1037A00040420F00002337B50193036804469A682E
:1037B000D20702D5002003B030BD9A6842F0010262
:1037C0009A60144B144A1B68B3FBF2F30193019BFC
:1037D000E3B9FFF7A3FE054623689B68DB07E9D43E
:1037E000FFF79CFE401B0228F6D923689B6813F064
:1037F0000103F1D1A26A012042F01002A262E26A42
:1038000084F8243042F00102E262D4E7019B013BDC
:10381000DCE700BF3400002040420F002DE9F041FA
:10382000404B9046026804469A420F4602D03E49F9
:103830008A4203D15B6813F4702F6ED194F8243060
:10384000012B6CD00123204684F82430FFF7AAFF17
:10385000064600285DD1A56A2168334B25F47065C2
:1038600025F0010545F480759942A56204D12D4AE1
:10387000536813F4702F3ED1A36A23F48013A3621C
:103880004B685A0505D5A36A23F4405343F480538B
:10389000A362A36A206A13F4805318BFE36A3A460E
:1038A00018BF23F00603E362002384F824301F4B83
:1038B0004C3183621E4BC3621E4B03636FF00203E5
:1038C00041F84C3C51F8443C43F4807341F8443C8B
:1038D000434600F06BF923689A6802F46022B2F55F
:1038E000602F9A680CBF42F4A00242F480129A60E2
:1038F0003046BDE8F081A36A43F48013A3625368A5
:103900005B0541BFA06A20F4405040F48050A062A3
:10391000BFE7002384F82430EAE70126E8E702261F
:10392000E6E700BF00240140002801404D350008B3
:103930009D3500088D36000838B5036804469A683E
:10394000D10701D4002038BD9A6822F001029A60A4
:10395000FFF7E4FD054623689B68DB07F2D5FFF718
:10396000DDFD401B0228F6D923689B68DA07F2D5F3
:10397000A36A012043F01003A362E36A43F001034A
:10398000E362E0E7F8B5044600286DD0836A23B906
:10399000C36280F82430FFF729FA2046FFF7CCFFF6
:1039A000A36A13F0100361D100285FD1A26A616895
:1039B00022F4885222F0020242F00202E569A6686F
:1039C000A262227B2943B6F5807F41EA420136D0CC
:1039D000771E7D427D412D02277D012F06D182BBBE
:1039E000A269013A45EA423242F400652268B6F51E
:1039F000807F576827F4694745EA0705556097684F
:103A00001D4D05EA070545EA0105956001D0012E27
:103A100002D12369013B1B05D56A25F470052B43B0
:103A2000D3629268154B1340994213D10023E3628D
:103A3000A36A23F0030343F00103A362F8BD3546F4
:103A4000CAE7A26A42F02002A262E26A42F00102E0
:103A5000E262CBE7A36A23F0120343F01003A362F0
:103A6000E36A43F00103E3620120E7E7A36A43F05E
:103A70001003A362F8E700BFFDF7E1FFFE0E1FFF92
:103A80007047000007490302CA6803F4E06322F4A8
:103A9000E0621204120C134343F0BF6343F400339B
:103AA000CB60704700ED00E0154B30B5DC68C4F327
:103AB0000224C4F10703251D042B28BF0423062D6F
:103AC0004FF0FF3594BF0024033C05FA03F321EACD
:103AD0000303A54022EA0502A340002843EA0203AB
:103AE000ACBF00F16040074A4FEA0313DBB2ABBF43
:103AF00000F5614000F00F0080F80033135430BD32
:103B000000ED00E014ED00E0002807DB012341098F
:103B1000034A00F01F00834042F82130704700BF85
:103B200000E100E00138B0F1807F0BD24FF0E023DC
:103B3000F021054A586182F823100020072298617D
:103B40001A6170470120704700ED00E0034610B590
:103B500030B301681420134A0A44B2FBF0F2920019
:103B60001A64114ADA63022283F82120D3E901247E
:103B70002243DC68086822431C696FF30D1022435E
:103B80005C6922439C692243DC69224302430A6048
:103B900000200122986383F8200083F8212010BDC3
:103BA0000120FCE7F8FFFDBF00000240F0B590F8EF
:103BB0002040012C34D0012480F8204090F821408E
:103BC000012CE5B24FF0000428D1022680F82160D4
:103BD00084630468266826F001062660D0E90F6732
:103BE000BD40756063604368102BC36A0BBFA26061
:103BF000A160E160E2604BB1236843F00E03002056
:103C00002360236843F001032360F0BD236823F0A1
:103C100004032360236843F00A03F0E780F82040A0
:103C20000220F2E790F821200346022A06D004225F
:103C300082630120002283F8202070470268C06B55
:103C4000116821F00E011160116821F0010111606D
:103C500001211A6C01FA02F24260002083F821105F
:103C6000E8E7000008B590F82130022B03D00423C8
:103C70008363012008BD03681A6822F00E021A60EF
:103C80001A6822F001021A60174A93421FD01432B8
:103C900093421ED0143293421DD0143293421DD051
:103CA000143293421DD01432934214BF4FF08073EC
:103CB0004FF480130D4A5360012380F82130002314
:103CC00080F82030436B03B198470020D2E70123EE
:103CD000F0E71023EEE74FF48073EBE74FF48053E7
:103CE000E8E74FF48033E5E70800024000000240B7
:103CF00070B40425C66B026C346803689540254295
:103D0000196832D04D0730D51A6896065EBF1A681A
:103D100022F004021A603E4A934219D014329342B0
:103D200018D01432934217D01432934217D0143261
:103D3000934217D01432934214BF4FF080634FF474
:103D40008003344A5360C36A002B5ED070BC1847AE
:103D50000423F6E74023F4E74FF48063F1E74FF4E0
:103D60008043EEE74FF48023EBE7022595402542A0
:103D700035D08D0733D51A68940606D41A6822F018
:103D80000A021A60012280F82120214A934219D0A8
:103D90001432934218D01432934217D01432934203
:103DA00017D01432934217D01432934214BF4FF0FD
:103DB00000734FF40013174A5360002380F820303B
:103DC000836AC1E70223F6E72023F4E74FF4007388
:103DD000F1E74FF40053EEE74FF40033EBE708252B
:103DE0009540254211D009070FD5196821F00E0121
:103DF0001960012303FA02F27260836380F82130B4
:103E0000002380F82030036B9EE770BC704700BF32
:103E1000080002400000024090F8210070470000B6
:103E20002DE9F74F00244FF00F0E2646DFF884C12E
:103E3000614B00F104080A6832FA06F502D103B0BA
:103E4000BDE8F08F012505FA06F702EA070537EA13
:103E5000020276D14A68032A07D8013A022A00F200
:103E60008380DFE802F091969C00122A00F0948093
:103E700069D8112A00F08A80FF2D94BF8146C1467F
:103E80004FEA8602D9F8007088BF203A0EFA02FA8B
:103E900027EA0A0704FA02F21743C9F80070D1F8BA
:103EA000049019F0805F4CD0DCF8182026F003074E
:103EB00042F00102CCF81820DCF8182007F1804706
:103EC00002F00102019207F5803706F0030A019A19
:103ED0004FEA8A0ABA680EFA0AFB22EA0B0B374A43
:103EE000904260D002F5806290425ED002F580621E
:103EF00090425CD002F58062904214BF04220322FB
:103F000002FA0AF242EA0B02BA609A6819F4801FB8
:103F100014BF2A43AA439A60DA6819F4001F14BF39
:103F20002A43AA43DA605A6819F4003F14BF2A43AF
:103F3000AA435A601A6819F4803F14BF2A43AA435F
:103F40001A60013677E7DFF878904A450CD014D82C
:103F5000A9F580194A4507D009F570294A4503D0CB
:103F6000A9F580194A4587D18A68D2B1012A4FF054
:103F700008040CBF076147617EE7DFF848904A45B7
:103F8000F2D009F58039EDE7CC6875E7CC680434E8
:103F900072E7CC6808346FE7CC680C346CE7002417
:103FA0006AE7042468E70022AAE70122A8E70222C0
:103FB000A6E700BF001002400004014000080140D5
:103FC00000002210000031100AB10161704709049D
:103FD000FBE7C36801EA030221EA030141EA024167
:103FE00001617047016800224B6913F4806310D0AF
:103FF0006FF480634B612023026380F83D3080F8CA
:104000003E20036C80F83C2043F00403036401204D
:104010007047184670472DE9F84606460F46914608
:104020001D464FEA114A3368BAF1010F0CBF5C69B3
:104030009C6927EA0404A4B2B4FA84F46409A14593
:1040400001D0002025E06A1CEED0FFF767FA089B3C
:10405000C01AA84201D8002DE5D13368BAF1010F8A
:104060000CBF5B699B6927EA03039BB2B3FA83F336
:104070005B099945D7D1002320220120336386F8BC
:104080003D2086F83E30326C86F83C3042F020020B
:104090003264BDE8F8862DE9F04104460F46164625
:1040A00098462568686927EA000080B2C0B16B694C
:1040B0005A0517D52B68202243F400732B606FF448
:1040C00080636B610023236384F83D2084F83E30D5
:1040D000236C43F0040323640023012084F83C3064
:1040E000BDE8F081731CDDD0FFF718FAA0EB0800E3
:1040F000B04201D8002ED4D123685A6927EA0202BF
:1041000092B2002ACDD000232022236384F83D20E0
:1041100084F83E30236C1343DDE770B504460D464A
:10412000164623685B691B0601D500201EE0204669
:10413000FFF758FFC8B96A1CF3D0FFF7EFF9801BEF
:10414000A84201D8002DECD123685B6913F08003ED
:10415000E7D12022236384F83D2084F83E30226C8E
:1041600084F83C3042F020022264012070BD00003F
:104170002DE9F043154602689946136885B043F46B
:1041800080731360DDE90C780E463B4600224FF049
:104190000111CDF800800446FFF73DFF236838B1D8
:1041A0001B68DB0502D54FF400732364032620E06F
:1041B00006F0FE061E613A46434620461849FFF7C0
:1041C0006AFFA8B9236803905A69394603929B692C
:1041D000424603932046039BFFF79FFF064660B1CC
:1041E000236C042B01BF2268136843F4007313602F
:1041F0000126304605B0BDE8F083B9F1010F236810
:1042000002D1EDB21D61F4E72A0A1A61394642462D
:104210002046FFF782FF0028E2D12368F1E700BFC4
:10422000020001002DE9FF479A46DDE90C7803689A
:1042300015461A680E4642F480621A601A684FF0FA
:10424000011142F480721A603B460022CDF80080D2
:104250000446FFF7E0FE236848B11B68DB0548BF52
:104260004FF400734FF0030048BF236421E05FFA6E
:1042700086F906F0FE061E613A46434620462A4964
:10428000FFF709FFA0B9236803905A6939460392E2
:104290009B69424603932046039BFFF73EFF58B1BC
:1042A000236C042B01BF2268136843F4007313606E
:1042B000012004B0BDE8F087BAF1010F23681AD1DC
:1042C000EDB24246394620461D61FFF726FF024601
:1042D0000028E5D1216820460B6843F480730B6009
:1042E0003B464FF00111CDF80080FFF794FE2268A5
:1042F00060B11368B2E72A0A1A613946424620467D
:10430000FFF70BFF0028CBD12368D9E749F0010361
:104310001361204643463A460349FFF7BCFE003886
:1043200018BF0120C5E700BF0200010070B50446B8
:104330000D46164623685B695B0701D500201EE029
:104340002046FFF74FFEC8B96A1CF3D0FFF7E6F826
:10435000801BA84201D8002DECD123685B6913F0C3
:104360000403E7D12022236384F83D2084F83E3003
:10437000226C84F83C3042F020022264012070BD9F
:1043800070B5044608B9012070BD90F83D3003F0C7
:10439000FF021BB980F83C20FEF77AFD242384F845
:1043A0003D3023681A6822F001021A601A6842F44C
:1043B00000421A601A6822F400421A6002F0D4FA2D
:1043C0003F4B65689D4294BF3E4B3F4B98428CBF2C
:1043D00000230123002BD6D1394E3C4BB542B0FB14
:1043E000F3F388BF4FF496762268516821F03F01BD
:1043F00041EA030182BF73434FF47A76B3FBF6F3CD
:104400005160116A013321F03F010B431362D169FE
:10441000431E2B4821F44F41854221F0FF0132D841
:104420006D00B3FBF5F340F6FC700133034242D05C
:10443000C3F30B031943D1611168D4E9073021F0AC
:10444000C00103430B4313609168D4E9030321F4D3
:104450000341034321F0FF010B439360D168D4E98A
:10446000053021F0FF0103430B43D36013680020A4
:1044700043F0010313602023206484F83D3020635F
:1044800084F83E0080E7A06850B905EB4505B3FB12
:10449000F5F30133C3F30B037BB143F40043C9E7E6
:1044A00019206843B3FBF0F30133C3F30B0323B1CB
:1044B00043F44043BEE70423BCE70123BAE700BF4F
:1044C000A08601007F841E00FF083D0040420F00CF
:1044D0002DE9F743044699460F4690460C9EFFF798
:1044E0001DF894F83D300546202B03D0022003B080
:1044F000BDE8F08300901923012220463A49FFF7D6
:104500008AFD0028F2D194F83C30012BEED0012333
:10451000206884F83C3003684246D90758BF0368D6
:1045200039465CBF43F001030360036823F4006372
:104530000360212384F83D30402384F83E3000237B
:1045400023640A9B20466362BDF82C306385638D2B
:104550002385264BE3624B46CDE90065FFF708FE55
:1045600000282AD00120C2E7FFF7D7FD40B1236C15
:10457000042B01BF2268136843F400731360F1E752
:10458000636A27681A4612F8011B39616262628DFC
:10459000218D013A92B262857A69481E80B2520733
:1045A00020850AD548B15A7802333A616362638D37
:1045B0000239013B9BB221856385238D2A46314612
:1045C0002046002BD0D1FFF7B1FE0028CFD12268C2
:1045D000136843F400731360202384F83C0084F8CC
:1045E0003D3084F83E0082E7020010000000FFFF2B
:1045F0002DE9FF4799460023044602930F46904653
:104600000C9EFEF78BFF94F83D308246202B16D18E
:1046100046F2A812554B1B68B3FBF2F31922534321
:104620000293029B013B0293029B53B92022236316
:1046300084F83D2084F83E30236C13432364022029
:1046400066E0226893699907EBD494F83C30012B1B
:10465000F5D0012384F83C3013680025DB0758BFF0
:10466000136843495CBF43F001031360136823F4EC
:1046700000631360212384F83D30402384F83E30EA
:10468000BDF8343025646385638D66629BB2E16258
:1046900023856764C4F84880C4F84C902565002BD6
:1046A00057D0606B40B33349456381623249103261
:1046B000C0E90B513146FFF779FA064600283CD194
:1046C00023234246009339464B462046CDF804A0AA
:1046D000FFF74EFDF8B1606BFFF7C4FA636B9E62A3
:1046E00023681A6822F480621A6066851A68268533
:1046F00022F001021A600AE0202384F83D3084F899
:104700003E00236C84F83C0043F0800323640120C6
:1047100004B0BDE8F087236803905A6903929A6950
:1047200084F83C000392039A5A6842F480725A60FB
:104730005A6842F400625A60EAE7202384F83D3068
:1047400084F83E50236C84F83C5043F010032364FB
:10475000DDE7202284F83D2084F83E30226C84F886
:104760003C3042F040022264D1E700BF3400002018
:104770000000FFFF494A00080F4A00082DE9F047F2
:1047800086B0044698460E461746DDF838A0FEF778
:10479000C5FE0023039394F83D308146202B03D0BF
:1047A000022006B0BDE8F08746F2A812644B1B68F1
:1047B000B3FBF2F3192253430393039B013B03938F
:1047C000039B4BB92022236384F83D2084F83E30BC
:1047D000236C13432364E3E721688B699A07ECD4C5
:1047E00094F83C30012BDBD0012384F83C300B687B
:1047F0000025DB0758BF0B68524A5CBF43F001033A
:104800000B600B6823F400630B60222384F83D30B7
:10481000402384F83E30BDF83C3025646385638DC9
:10482000C4F824A09BB2E26223856664A764C4F83E
:104830004C802565002B66D0A06B58B3424A456377
:104840008262424A1031C0E90B525246FFF7AEF97C
:10485000824600284BD123233A46009331464346F3
:104860002046CDF80490FFF7DDFC00B3A06BFFF706
:10487000F9F9A36BC3F828A023681A6822F48062B0
:104880001A60A4F82AA01A68A4F828A022F001024D
:104890001A600AE0202384F83D3084F83E00236C3F
:1048A00084F83C0043F080032364012079E7228DE3
:1048B0002368012A0BBF1A685A6822F4806242F406
:1048C00080520CBF1A605A60002204925969049108
:1048D000996984F83C20049104995A6842F48072E2
:1048E0005A605A6842F400625A60002059E7202357
:1048F00084F83D3084F83E50236C84F83C5043F0FB
:1049000010032364D1E723233A46009331464346FC
:104910002046CDF80490FFF785FC0028C5D1236818
:1049200005905A6905929A690592059A1A6842F4A7
:1049300000721A60202384F83C0084F83D30D4E7EC
:10494000340000200000FFFF494A00080F4A000819
:1049500070477047704770477047704790F83D2028
:1049600008B5036DD2B283B9C36C0268012B836CA6
:1049700005D1DBB21361036D0233036508BDC3F3D8
:1049800007231361036D0133F7E7036D012B03D197
:10499000836C0268DBB2F4E7036D022B2FD1222A6D
:1049A00005D10268136843F480731360EAE7438D0E
:1049B0009BB263B1212A0AD1436A026813F8011B32
:1049C00011614362438D013B9BB24385D6E7438D22
:1049D0009BB2002BD2D1212AD0D10268516821F498
:1049E000E0615160116841F400711160202203639D
:1049F00080F83D2080F83E30FCF734FFBEE70368C6
:104A00005A69120644BF00221A61B7E77047406A2C
:104A100008B5436B0BB100229A62836B0BB1002285
:104A20009A620268136823F48063136000232022D3
:104A3000438580F83D2080F83E30036C43F010033E
:104A40000364FFF7E3FF08BD70B5446A236894F878
:104A50003D1094F83E00E26A5D68C9B225F44075E5
:104A60005D60656BC0B20DB10026AE62A56B0DB185
:104A70000026AE6201F02105212D05D001F02205AE
:104A8000222D23D1202821D15A68292922F400621D
:104A90005A604FF0000363850DD12123236328233F
:104AA000204684F83D30FFF755FF2268536843F4F1
:104AB0004073536070BD2A29F7D122232363282332
:104AC000204684F83D30FFF746FFEEE794F83E10AD
:104AD0000029EFD0618D89B2012902BF196821F444
:104AE00080611960596812F5803F21F44071596066
:104AF00006D0082A04D0B2F12A4F01D0202A03D1CF
:104B0000196841F400711960596821F480515960A5
:104B1000596821F40061596000236385236C1BB13F
:104B20002046FFF773FFC5E7202184F83D1094F875
:104B30003E1084F83E30402904D120462363FCF720
:104B400097FEB7E7082A01D0202A05D10023204686
:104B50002363FFF7FEFEADE71223F8E7704700007E
:104B6000002337B546F2A81101932C4B406A1B680D
:104B700090F83D20B3FBF1F323214B4301930368ED
:104B8000D2B2019941BB016C41F020010164446B38
:104B90000CB10021A162816B09B100258D621D68F5
:104BA00025F480651D600025458504B1656301B16C
:104BB0004D63196821F00101196090F83D106029DA
:104BC00011D1202380F83D30002380F83E3003646B
:104BD000FFF7C4FF03B030BD019901390191196895
:104BE0008905CED4D3E702F02802282A0ED119680D
:104BF00041F001011960196841F4806119600023D6
:104C0000036380F83D20FFF701FFE3E7202380F8EE
:104C10003D30002380F83E30F5E700BF340000202F
:104C200010B590F83D2090F83E300446102BD9B2D4
:104C3000D2B2036801D0402913D1222A11D11968B8
:104C400021F400611960596811F4006106D1602AED
:104C50001EBF202284F83D2084F83E1000222263EB
:104C600007E002F028012829EDD10022226384F810
:104C70003D105A6812F400624FD05A68606B22F4FB
:104C800000625A6090F82130012B374B2BD04363E0
:104C9000FEF7E8FF50B12268606B136823F0010350
:104CA0001360202384F83D30436B9847236C190729
:104CB0001FBF2268536823F4E063536094F83D30CB
:104CC000226CDBB252070DD5282B0BD1274B2022AB
:104CD000E36200232046236384F83D2084F83E30BD
:104CE000FFF73BFE10BDA06B4363FEF7BBFF002840
:104CF000DCD023685A69510605D51A69636A1A70AF
:104D0000636A013363622268A06B136823F00103B6
:104D10001360202384F83D30C6E794F83D106029E5
:104D200015D1202184F83D1022645A69520605D518
:104D30001A69636A1A70636A0133636222682046E3
:104D4000136823F001031360FFF708FFAEE75A6909
:104D5000500605D51A69636A1A70636A0133636283
:104D60002046FFF753FEA1E7614B00080000FFFF5C
:104D7000F0B5044603688FB05A68C66A90F83E00E2
:104D800094F83D101028C5B2C9B202D0402D40F0B1
:104D9000E5829F69586910F0010F07D1B6F52A0F17
:104DA00002D0B6F12A4F51D10FB0F0BD96054DD5C6
:104DB000E26AB2F52A0F0CD10122E26294F83E2099
:104DC000402A11D1226D52B9626C02F0FE021A61C2
:104DD000EAE7E26AB2F12A4FF0D10822EDE7626C0D
:104DE00042F00102D2B2F2E72269B2F5804F1AD145
:104DF00094F83D20212A626C11D102F0FE021A6162
:104E0000626B0AB1926A2AB9A26B002ACCD0926A6C
:104E1000002AC9D05A6842F400625A60C4E742F0DE
:104E20000102D2B2EBE7226D32B9626CD21102F00C
:104E3000060242F0F002CAE7226D012AB4D1626C88
:104E4000D21102F0060242F0F102C0E7060703D5D4
:104E5000960501D5626CE4E7860740F1F08096057F
:104E600040F1ED8094F83E10E26A256B94F83D0025
:104E7000C9B2222840F0DB80206D40B9402906D11C
:104E800000905A6900929B690093009B8CE7216D0A
:104E900089B92069B0F5404F0DD101915A6901924D
:104EA0009A690192019A1A6842F480721A60236D1D
:104EB0000133236578E7618D89B251B902915A694E
:104EC00002929A690292029A1A6842F400721A6077
:104ED00019E0618D89B2012949D112F5803F1BD1BA
:104EE0001A6822F480621A605A6812F400620CD0C8
:104EF0001A6822F480621A60002203925A690392AF
:104F00009B690393039B0023D3E704925A6904929D
:104F10009A690492049AD7E7082A1CD0202A1AD04A
:104F2000122D0DD1012A16D11A6822F480621A605E
:104F3000002205925A6905929B690593059BE2E759
:104F4000102AF1D8864941FA02F2D707ECD41A6840
:104F500042F48062EBE71A6822F480621A60002251
:104F600006925A6906929A690692069AACE7618D92
:104F700089B2022938D1102A03D87A49D140CE0704
:104F800018D4196841F4006119600021079159692A
:104F90000791996907910799196821F4806119604F
:104FA00059680D05AFD5202A1BD8072A0ED8012A2B
:104FB000A9D111E0196841F48061196000210891BC
:104FC00059690891996908910899E9E7A2F10801DE
:104FD000654ACA40D00796D55A6842F480525A6052
:104FE00091E712F5803FE3E7196841F480611960A9
:104FF0005968090510D5202A16D8072A06D8012A8B
:105000000AD15A6842F480525A6005E0A2F10801C0
:10501000554ACA40D207F4D4002209925A6909922B
:105020009B690993099B6EE712F5803FE8E7002230
:105030000A925A690A929B690A930A9BB4E67F070F
:1050400040F194805E6836053FF5AEAE070600F08D
:1050500004063ED550053CD5002E3DD194F83D20A8
:10506000258D94F83E10D2B2E06AC9B2C5B9212AA2
:1050700018D1082858D0202856D010F5803F53D09A
:105080005A6822F4E0625A6011232363002384F8F3
:105090003E302023204684F83D30FFF759FC83E65C
:1050A000212A05D040297FF47FAE222A7FF47CAEEE
:1050B000628D92B21AB95A6822F48062ADE694F811
:1050C0003E20402A16D120460FB0BDE8F040FFF741
:1050D00045BC002E3FF468AE97057FF565AE2129EB
:1050E00039D1E16A94F83D20212A7FF45DAE628DCA
:1050F00092B24AB1626A12F8011B19616262638D51
:10510000013B9BB263854FE608290DD020290BD0C7
:1051100011F5803F08D0596821F4E06159601123EE
:10512000236384F83E20B4E75A68204622F4E06204
:105130005A601A6842F400721A6000232022236326
:1051400084F83D2094F83E2084F83E30402AA4D1D3
:10515000FCF788FB28E6402D7FF426AEB3E700BFBE
:10516000EBFFFEFF140001000101000159680E056C
:105170003FF51AAE450600F0040140F18680500567
:1051800040F18380002940F0838094F83D20222A5A
:105190007FF40AAEE06A628D92B2032A14D91A69CA
:1051A000636A1A70636A01336362638D013B9BB269
:1051B0006385638D9BB2032B7FF4F6AD2268536841
:1051C00023F480635360EFE5E56A022D3FF473AF8B
:1051D000012A3FF670AF0B9146F2A811784A126887
:1051E000B2FBF1F202EB82020B920B9A013A0B92A4
:1051F0000B99D1B9226C204642F0200222645A68F1
:1052000022F4E0625A601A69636A1A70636A0133B1
:105210006362638D013B9BB26385202384F83D303C
:1052200084F83E10FFF7F2FBBEE51A6812F4007234
:10523000DBD1196821F480611960596821F4E061BB
:1052400059601969636A1970636A01336362638D17
:10525000013B9BB26385202384F83D3094F83E30B7
:1052600084F83E20402B04D122632046FCF700FB4B
:105270009AE5082801D0202801D1002300E012235C
:1052800020462363FFF765FB8EE500293FF48CADD4
:1052900092057FF589ADE26A608D616A80B204286B
:1052A00009D15A6822F480625A601B690B70636AE4
:1052B0000133636223E7608D80B203280CD1586804
:1052C000042A20F480605860EFD0022AEDD01A68DA
:1052D00022F480621A60E8E7608D80B20228E4D18F
:1052E000042A33D007D8012A07D0022A2ED0186802
:1052F00040F4007004E0102AF9D1186820F48060AE
:1053000018601B690B70616A4B1C6362638D013B03
:105310009BB2638523681B694B70636A2168013304
:105320006362638D013B9BB263854B6823F44073DA
:105330004B60202384F83D3094F83E30402B4FF0F2
:10534000000384F83E3005D123638EE7186840F4EB
:105350008060D5E7082A90D0202A8DE7206C10B312
:105360000025586987072DD596052BD5226C02B1EB
:105370009D6994F83D2002F02802282A16D15A6827
:105380002F0622F480625A604FF0000385F004017A
:10539000204654BFA289228BC1F3800184F83C309F
:1053A000FFF7DAFA00E59D695869DBE700220C9205
:1053B00059690C919B6984F83C200C930C9BF3E495
:1053C00034000020C60640F1B180950540F1AE8062
:1053D00094F83D505A68EDB222F4E0625A6000221F
:1053E0000D925A690D921A6842F001021A600D9AE4
:1053F0001A6822F480621A605A68100520D505F0F8
:10540000F702222A4AD1A06B0268526892B26285E2
:10541000628D92B21AB1226C42F0040222645A6880
:1054200022F400625A60FEF7F7FC012808D0A06B56
:10543000794B4363FEF716FC10B1A06B436B9847A2
:10544000638D9BB213B323685A69510709D51A6952
:10545000636A1A70636A01336362638D013B9BB2B6
:10546000638523685A69520609D51A69636A1A70F6
:10547000636A01336362638D013B9BB26385638D15
:105480009BB21BB1236C43F004032364236C13B35E
:1054900020460FB0BDE8F040FFF7C2BB606B02686A
:1054A000526892B26285628D92B21AB1226C42F059
:1054B000040222645A6822F400625A60FEF7ACFCCF
:1054C0000128BDD0606B544B4363FEF7CBFB002833
:1054D000B6D0606BB2E72A2D06D12363282320467D
:1054E00084F83D30FFF737FA94F83D30282B0CD183
:1054F0004A4B2022E36200232046236384F83D20A8
:1055000084F83E30FFF729FA4EE4236B222B02D0B9
:10551000222D7FF449AC00232022236384F83D2010
:1055200084F83E302046FFF716FA3DE401F0F7011B
:10553000212900F0040535D1070627D5560525D5C4
:105540003DBB94F83D00628DC0B292B2002A3FF498
:105550002BAC626A12F8015B1D616262628D013AD6
:1055600092B26285628D92B2002A7FF41DAC292826
:105570007FF41AAC5A68204622F480625A602823CD
:10558000216384F83D30FFF7E5F90DE4002D3FF489
:105590000BAC95057FF508AC628D92B2002A3FF402
:1055A00003ACA7E5400627D5510525D53DBB94F8AA
:1055B0003D20618DD2B289B200293FF4F5AB196963
:1055C000636A1970636A01336362638D013B9BB246
:1055D0006385638D9BB2002B7FF4E6AB2A2A7FF4B0
:1055E000E3AB2268536823F4806353602223236370
:1055F000282384F83D3095E7002D3FF4D5AB920584
:105600007FF5D2AB628D92B2002A3FF4CDAB1A691E
:10561000636A1A704BE600BF614B00080000FFFF91
:10562000F8B5036804465F695E6890F83E2017F499
:105630008075D2B20AD016F4807507D06FF48071ED
:1056400001255961196841F400411960B80506D572
:10565000F10542BF6FF4007145F00205596178050C
:1056600036D5F10534D5608D94F83D10202AD4F854
:1056700030C080B2C9B25FD100285DD101F0F7001F
:10568000212804D0282957D1BCF1210F54D194F8F6
:105690003D20E16AD2B2082901D020292AD1282A46
:1056A00028D12E4A2046E2625A6822F4E0625A600B
:1056B0006FF480625A611A6822F480621A600023D3
:1056C0002022236384F83D2084F83E30FFF745F91B
:1056D0003A053FD5F3053DD56FF40062236845F0E8
:1056E00008055A61236C20462B432364BDE8F8402B
:1056F000FFF796BA212A1BD11849E16222630021E3
:10570000202284F83D2084F83E105A6822F4E0629A
:105710005A606FF480625A611A6822F480621A60DB
:105720005A69100648BF19612046FFF713F9CFE701
:105730006FF480625A61CBE76FF48061102A59617F
:1057400045F0040501D0402AC2D11A6842F4007223
:105750001A60BDE7002DC5D1F8BD00BF0000FFFFF6
:1057600090F83D007047F8B50446E0B190F89132EA
:1057700003F0FF021BB980F8902203F073FB0323B0
:1057800084F8913200232546637155F8040B02F02A
:105790001DF895E80E00206802F008F8014628B1CF
:1057A000022384F8913201252846F8BD206802F0D2
:1057B00017F80028F4D102460127267904F11003D6
:1057C000C1B28E4203F1280318D800210A4604F51D
:1057D000A873C8B2864203F128031BD895E80E00CF
:1057E000206801F0FFFF05460028D9D1012360732E
:1057F000206884F8913202F0ABFAD5E743E906223B
:1058000003F8277C03F8281C03F8252C43F8102CF8
:105810000130D5E743E9062203F8272C03F8280CCA
:1058200003F8252C43F8102C0131D2E738B590F855
:1058300090320446012B10D0012580F89052006868
:1058400001F0BBFF2946204603F01BFC206802F054
:105850007DFA002084F8900238BD0220FCE710B5E4
:1058600090F890220446012A0AD00122417380F860
:105870009022006802F064FA002084F8900210BDC3
:105880000220FCE72DE9F04F044685B0006802F0E5
:1058900061FA10F4004500F04F842825C64E2068B8
:1058A000B0F844301F0402D405B0BDE8F08FB0F862
:1058B000443013F00F0799B240F0C08011F010018E
:1058C00026D103889BB2334043F400430380B0F8F1
:1058D0005030227C9BB203EBC20300EB4303B3F8CE
:1058E0000434626AC3F309031A44E3622046626225
:1058F00003F0EFFA637B002BD1D0A26A2168002A63
:10590000CDD1637B43F08003A1F84C306273C6E7CE
:105910000788BBB217F4006721D0B0F8503094F874
:1059200050219BB203EBC20300EB4303B3F80C34EA
:10593000B4F85621C3F30903C4F86C3104F5267199
:1059400002F053FC22682046138823F070031B05E5
:105950001B0D43F08003138003F0ACFA9FE719049A
:105960009DD5038823F070031B051B0D43F08003B6
:105970000380B0F8503094F850219BB203EBC2037F
:1059800000EB4303B3F80C34C3F30903C4F86C31E0
:105990008BB1D4F8641171B1B4F8562102F025FC32
:1059A000D4F86431D4F86C21394613442046C4F845
:1059B000643103F085FA21680A8893B212053FF535
:1059C0006EAF03F44053B3F5405F3FF468AFB1F8F6
:1059D000502001F20C4092B2835AC3F30903835260
:1059E000D4F860313E2B1DD95F09DB06835A08BF0E
:1059F00007F1FF379BB243EA87236FEA43436FEA1D
:105A000053439BB283520B8823F4804323F07003EB
:105A10001B041B0C83F4405343F4004343F0800306
:105A20000B803CE70BB9835AE7E75F08DB07835A33
:105A300048BF01379BB243EA8723E2E730F82730BB
:105A400019041FFA83F840F1F68030F8273005FB7F
:105A5000074123F070031B051B0D43F0800320F862
:105A6000273091F85C3100F5806EBBB9B0F850304A
:105A700091F850219BB2063303EBC2033EF813901A
:105A8000C9F30909B9F1000F00F0BA804B46B1F82B
:105A90005621D1F8641102F0A8FBB1E091F853311E
:105AA00091F85021022B40F08980B0F850904FEAD5
:105AB000C20B1FFA89F918F4804AD1F86831D94429
:105AC00008F0400C3CD009F102093EF81990C9F3E6
:105AD0000909994513D90023C1F8683130F82230FB
