:020000040800F2
:1000000000500020D9500008F54D0008F74D0008B9
:10001000F94D0008FB4D0008FD4D000800000000F0
:10002000000000000000000000000000FF4D00087C
:10003000014E000800000000034E0008054E0008B5
:1000400021510008215100082151000821510008C8
:1000500021510008215100082151000821510008B8
:10006000215100082151000821510008094E0008C3
:100070002151000821510008154E0008214E0008AA
:1000800021510008215100082D4E0008394E00086A
:10009000454E000821510008215100082151000857
:1000A000494E0008554E0008594E00085D4E0008A4
:1000B000614E00086D4E0008794E0008215100087D
:1000C00021510008854E0008914E0008215100087A
:1000D000215100089D4E00082151000821510008BF
:1000E00021510008215100082151000800000000A2
:1000F0000000000000000000000000000000000000
:0C01000000000000000000005FF808F1A3
:1001100010B5054C237833B9044B13B10448AFF341
:1001200000800123237010BD580200200000000051
:10013000E8B8000808B5034B1BB103490348AFF307
:10014000008008BD000000005C020020E8B8000844
:10015000034613F8012B002AFBD1181A0138704707
:100160007BB972B90029BEBF00204FF0004106E004
:1001700008BF00281CBF6FF000414FF0FF3000F0B7
:10018000B9B9ADF1080C6DE904CE002909DB002BEB
:100190001ADB00F035F8DDF804E0DDE9022304B0F5
:1001A0007047404261EB4101002B1BDB00F028F857
:1001B000DDF804E0DDE9022304B0404261EB4101D7
:1001C000524263EB43037047524263EB430300F038
:1001D00017F8DDF804E0DDE9022304B0404261EBEA
:1001E00041017047524263EB430300F009F8DDF828
:1001F00004E0DDE9022304B0524263EB430370479D
:100200002DE9F047089D0F4604468E46002B48D145
:100210008A42164661D9B2FA82F24AB1C2F120038B
:1002200001FA02FE20FA03F3964043EA0E0E9440D0
:100230004FEA164CBEFBFCF1B7B20CFB11EE01FB12
:1002400007F0230C43EA0E43984209D9F31801F151
:10025000FF3E80F0ED80984240F2EA80023933445C
:100260001B1AB3FBFCF00CFB103300FB07F7A4B226
:1002700044EA0344A74209D9341900F1FF3380F05E
:10028000D980A74240F2D6803444023840EA014087
:100290000021E41B1DB10023D440C5E90043BDE8A3
:1002A000F0878B4206D90DB1C5E90001002108464F
:1002B000BDE8F087B3FA83F1002947D1BB4202D3EE
:1002C000824200F20481841A67EB03020120964601
:1002D000002DE4D0C5E9004EE1E7002A00F090804F
:1002E000B2FA82F2002A40F0A780881B0121370C65
:1002F0001FFA86FEB0FBF7FC07FB1C00230C43EA49
:1003000000430EFB0CF0984207D9F3180CF1FF38AC
:1003100002D2984200F2E080C4461B1AB3FBF7F009
:1003200007FB10330EFB00FEA4B244EA0344A645CB
:1003300007D9341900F1FF3302D2A64500F2C98073
:100340001846A4EB0E0440EA0C40A3E7C1F12006D6
:100350008B4022FA06FC4CEA030C27FA06FA4FEA15
:100360001C49BAFBF9F88F4020FA06F309FB18AADA
:100370001FFA8CFE3B4300FA01F708FB0EF01C0C41
:1003800044EA0A44A04202FA01F20BD91CEB04042D
:1003900008F1FF3A80F09980A04240F29680A8F1DF
:1003A00002086444241A98B2B4FBF9F309FB13441D
:1003B00003FB0EFE40EA0444A64508D91CEB0404E6
:1003C00003F1FF307FD2A6457DD9023B644443EA66
:1003D0000840A4EB0E04A0FB028E74454346F14690
:1003E00061D35ED055B1FA1A64EB090404FA06F63B
:1003F00022FA01F31E43CC40C5E9006400214EE718
:1004000043084FEA510C43EAC1710A0C42EA0C421C
:100410008BB2C407B2FBF6F143EA0243BCFBF6FC25
:10042000B646304637461F22181A41EA0C4161E7AA
:10043000714615E7184629E7C2F1200321FA03F0B7
:10044000964024FA03F397403B43370CB0FBF7F890
:1004500007FB18001FFA86FE190C41EA004108FB51
:100460000EF0884204FA02F43AD9711808F1FF3C00
:1004700001D288421ED8091AB1FBF7F808FB0EF02A
:1004800007FB18119BB243EA014383422FD2F318B2
:1004900008F1FF31C8D28342C6D2A8F10201334429
:1004A000C2E747459ED2B8EB02036EEB0C0E013853
:1004B000F14697E7301A0144A8F1020CB1FBF7F8B6
:1004C00008FB0EF0DCE7034681E7D0466AE7084602
:1004D000FEE63444023834E7ACF1020C33441CE746
:1004E000091AC446B1FBF7F808FB0EF0C8E741460D
:1004F0009AE700BF704700BF00220A4930B50B8859
:10050000094D013810F8014F14B902B10B8030BD0C
:100510005A1C92B2B2F5806FEC5414BF13460023FC
:100520000122EFE7860200208E020020074A10B564
:100530001188074C4B1C9BB2B3F5806F138008BF2A
:100540000023605408BF138010BD00BF8602002046
:100550008E02002038B500240D460E4B01461C705B
:100560000D4B3F220D481C700AF0FEFC0B4B1F2266
:1005700029460B4883F83F400AF0F6FC3222084B2C
:10058000DC77084B1A601422074B1A70074B1C705B
:1005900038BD00BF780B0020920A00201F0B0020FE
:1005A000FF0A0020740B0020790B00208402002039
:1005B000014B1878704700BF910A0020194B70B5A5
:1005C0005B6806460D4614463BB347F23053164966
:1005D0001648002A08BF1C460AF01CFD0F223146AF
:1005E00013480AF0C1FC0023114A1249D37328466C
:1005F0000A220AF037FC0A2220460F490AF032FC90
:100600000E4B1B7863B10E4B187810F0020003D02C
:10061000102206200B4B1A7070BD4FF0FF30FBE725
:100620000120F9E77802002000B900080500002049
:10063000EF0A0020E90A0020D30A00201F0B002047
:10064000780B0020790B0020064B5B683BB1064B12
:100650001B7813F0400F0CBF0520072070474FF0A8
:10066000FF30704778020020780B0020074A10B551
:100670001188074C4B1C9BB2B3F5806F138008BFE9
:100680000023605408BF138010BD00BF8C020020FF
:100690008E0600202DE9FF471F463D4B04465B6850
:1006A00088461546BDF83090002B6CD0394EDFF8E7
:1006B000E8A033789AF8001003F040020A4365D0AE
:1006C0001B0758D40A2201A938460AF0CBFB01A81F
:1006D000FFF73EFD421ED2B2032A4AD82F48FFF749
:1006E0000BFF9AF8003053B10A22694620460AF0FF
:1006F000B9FB6846FFF700FF2C20FFF717FF01A8A2
:10070000FFF7FAFE2648FFF7F7FE002211462548BC
:10071000DFF894C0038894B2A74216D801B10380D1
:100720003378224C23F00C0343F00C03337023681E
:100730003BB11F489847236801A8984723681D4884
:100740009847092004B0BDE8F0875C1CA4B2B4F55A
:10075000806F08BF0024691C18F8055089B20CF896
:1007600003500132494514BF0D460025234601219F
:10077000D1E70B20E6E70D4B1B680BB90820E1E73A
:100780000D489847FAE74FF0FF30DBE70520D9E73F
:1007900078020020780B0020920A0020EBBF0008AE
:1007A00004B90008860200208E020020600B0020A1
:1007B00007B9000816BB00081AB9000802460F4B1B
:1007C0000068516803C390680D4A186000231370D5
:1007D0000C4A13700C4A13800C4A13800C4A138085
:1007E0000C4A13800C4A13700C4A13700C4A137095
:1007F0000C4A13600C4A1360704700BF7802002057
:10080000790B0020900A0020880200208602002038
:100810008A0200208C020020780B0020920A00201F
:10082000910A0020640B0020600B0020114A13681D
:100830000BB1013B1360104A136823B1013B1360F5
:100840000BB90E4A13700E4A13680BB1013B1360CB
:100850000C4A13686BB1013B136053B90A490A781B
:10086000100706D563F3C302084B0A701A88084BB9
:100870001A807047740B0020700B0020900A002033
:100880006C0B0020680B0020780B002086020020F3
:10089000880200202DE9F84FA54AA64EB2F800B014
:1008A000338800255B4506D0A34F3A78143A022AD4
:1008B00027D8A6F800B0A14EA14C3368002B40F019
:1008C0006D8264239C4D33602B78162B00F2668278
:1008D000DFE813F04404AD02C602CC02DA02E00203
:1008E000E902EF0202030D033E03480352038303B0
:1008F0008C039D03AC03FE033B04410459029802A0
:10090000A70202228F49904C0A609B45D3D08F4AA0
:10091000D05C22780D2A00F23182DFE812F00E005E
:100920005500CC002F022F02A501BA01C301D0014E
:100930002F02EB0108021A02F90100230421984654
:10094000DFF80CC2834ADFF810928CF80030117087
:100950005FFA83FE59F82E10D1B9B8F1000F01D01B
:100960008CF800E00022774B75491A600B7813F081
:10097000010F00F092803E2840F08F8062F3000368
:100980000B70764B1A604FF49672754B1A6084E0C8
:1009900091F804A00133824513D1B8F1000F01D0C2
:1009A0008CF800E00B784978303B313903EB830356
:1009B00001EB43036B490B80012323700523137064
:1009C0006BE04FF00108C3E7DFF884C162499CF88F
:1009D000002051F822205F49097812F801E086458D
:1009E00014D1DFF880C1BCF80030013B9BB2ACF8F9
:1009F00000300BB10D284DD19378D278303B03EB0A
:100A00008303303A02EB4303237046E00022914611
:100A1000C1F57F4A8CF800200AF1D30ADFF838C10B
:100A20005FFA82F85CF828C0BCF1000F0CD1B9F174
:100A3000000F04D04B4A1580454A82F800800022FE
:100A4000013B2270338028E09CF800E09CF80150C4
:100A5000AEF1300E0EEB8E0E554405EB4E05ADB2E9
:100A60007F2D24D81CF801E0864520D13D4B1D8008
:100A7000B9F1000F02D0364B83F8008055B99CF8CD
:100A800002309CF80320303B03EB8303303A02EB47
:100A9000430323702F4B01311970338801339BB20C
:100AA000B3F5806F338004BF002333802DE74FF010
:100AB00001090132B2E70A28EFD100232370244B49
:100AC0001B78023B0F2BE8D801A252F823F000BF9D
:100AD000110B0008690B0008850B00089B0A000831
:100AE000AF0B0008AF0B0008DD0B0008E70B000898
:100AF000050C0008DD0B00089B0A00082F0C0008FD
:100B00009B0A0008390C0008450C0008450C000839
:100B10003A78082AC1D84FF4AA73D340DB07BCD572
:100B20000022064B1A60064A137843F0200346E77A
:100B30008C0200208A020020790B0020740B002018
:100B4000780B0020700B0020900A00208E060020F9
:100B500075020020740200206CBE00086C0B00209F
:100B6000680B00208E0A0020944A1378180794D549
:100B700023F009031370924B1A88924B1A80924B00
:100B8000002203E73B780D2B87D100228F4B1A60A0
:100B90008A4A137823F0220343F0220313708C4B0C
:100BA0001B68002B3FF479AF0320984775E7834A11
:100BB000137823F0420313703B780E3B052B3FF66E
:100BC0006CAF834B1B680BB100209847814B1B789F
:100BD000002B7FF462AF16233B705EE7774A1378F1
:100BE00023F04003EBE6754A137823F008031370F3
:100BF0000022754B1A60764B1B68002B3FF44DAFFB
:100C00000A20D2E7734B1B78002B7FF446AF6F4A64
:100C100013606A4A137823F0600343F06003137093
:100C20006B4B1B68002B3FF438AF0720BDE7634ACE
:100C3000137823F04203C2E6604A137823F042039C
:100C40001370C8E75D4A1378190706D523F0090326
:100C500013705B4B1A885B4B1A803B78013B0D2B62
:100C60003FF61BAF594B8BE75B4A2C28126807D124
:100C700006232370002A3FF410AF584890470CE732
:100C80000021013B21703380002A3FF406AF544815
:100C9000F4E722287FF401AF072300222370514B91
:100CA0001A80FAE6222803D04E4A1388102B01D16D
:100CB0000823A9E6591C11804B4AD054EDE60A28B6
:100CC0007FF4EBAE0023474A23701188464A0F2970
:100CD0009BBF5354394913700A789FBF42F02002DA
:100CE0000A703A4A13603A4B1B68002B3FF4D5AEAA
:100CF00004205AE72C287FF4A2AE364B1B782BB188
:100D00000D2300222370394B1A70C6E60B23C4E76B
:100D10002C28FBD0A0F13002092A3FF690AE334ACE
:100D2000137803EB830300EB4303303B47E63A2899
:100D300001D10C2368E6A0F13002092A3FF67FAE0C
:100D4000284A138803EB830300EB4303303B1380F3
:100D5000A3E6274B9B6803B19847224A1388013BBF
:100D60009BB21380002B7FF498AE23701A4B1B6844
:100D7000002B3FF492AE1F4898478EE600231E4A90
:100D80002370136089E61A4B00201B689847124BAA
:100D90001B680BB11948984715232B702378DA0785
:100DA00040F1E581164A126832B9054A23F0090379
:100DB0001188044A23701180BDE8F88F780B002059
:100DC0008602002088020020680B0020740B00209F
:100DD000640B0020920A0020600B002032B900084A
:100DE00047B900088E0A0020D90A0020910A002085
:100DF000780200205BB90008700B00206EB9000873
:100E00006C0B0020914B01201B689847904B1B688E
:100E10000BB19048984716232B704FF4FA73336048
:100E2000BCE7012300222B708B4B1A70B6E78A4A6D
:100E300013782BB1013BDBB213701BB91423ACE761
:100E4000042313702378854823F020032370FFF7D1
:100E500053FB7F4B1B680BB18148984702239CE7EB
:100E600023789E0640F17581032396E77D48FFF7BE
:100E700043FB774B1B680BB17B489847237823F0E3
:100E800020032370042388E72378980640F16181CA
:100E9000052382E77548FFF72FFB237823F0200313
:100EA0002370062379E72378990640F152810723BE
:100EB00073E76F4B1B786BB16E48FFF71DFB644BFC
:100EC0001B680BB16C489847237823F020032370EC
:100ED000082362E76948F0E723789A0640F13981F0
:100EE000634B1B78002B0CBF0C23092355E7644888
:100EF000FFF702FB2220FFF719FB6248FFF7FCFA1D
:100F00002220FFF713FB2C20FFF710FB2220FFF716
:100F10000DFB5D48FFF7F0FA2220FFF707FB2C20BE
:100F2000FFF704FB5948FFF7E7FA2C20FFF7FEFA1A
:100F30005748FFF7E1FA0D20FFF7F8FA0A20FFF70C
:100F4000F5FA434B1B680BB1524898470A2324E734
:100F50005148FFF7D1FA3E4B1B680BB14F489847F9
:100F60000B231AE74E48FFF7C7FA394B1B680BB142
:100F70004C489847132310E74B4F3B78002B3FF426
:100F80000DAF4A48FFF7B8FA2220FFF7CFFA3846EC
:100F9000FFF7B2FA2220FFF7C9FA2C20FFF7C6FAB2
:100FA0002220FFF7C3FA4248FFF7A6FA2220FFF7F4
:100FB000BDFA0D20FFF7BAFA0A20FFF7B7FA244B63
:100FC0001B680BB13B489847237823F0200323701C
:100FD0000D232B7040F2DC5321E723789B0640F170
:100FE000B8800E2304222B701B4B1EE70022324BCD
:100FF00032481A70FFF780FA154B1B680BB1304866
:101000009847237823F0200323700F23C5E6237825
:101010009F0601D51023C0E60F4A1378013BDBB2CF
:101020001370002B00F095800E23B6E6254B1B783D
:10103000002B3FF4B3AE2448FFF75EFA044B1B6865
:101040000BB1224898471123A7E600BF7802002081
:10105000600B002084B900088402002035C000081D
:101060009AB9000827C00008A8B90008BCB9000850
:10107000920A0020CEB90008EAB90008DCB90008DD
:10108000DDBF0008B30A0020930A00200200002000
:1010900000000020FEB90008C9BF000811BA00080E
:1010A000B5BF000825BA00081F0B00201DC00008AE
:1010B000FF0A00203CBA0008D90A002012C000082C
:1010C0004FBA0008EF0A0020F7BF000860BA000816
:1010D0003C48FFF711FA2220FFF728FA3A48FFF7B9
:1010E0000BFA2220FFF722FA2C20FFF71FFA22200A
:1010F000FFF71CFA3548FFF7FFF92220FFF716FA31
:101100002C20FFF713FA3248FFF7F6F92C20FFF7EF
:101110000DFA3048FFF7F0F92C20FFF707FA3020DE
:10112000FFF704FA0D20FFF701FA0A20FFF7FEF996
:10113000294B1B680BB129489847237823F060039B
:10114000237012232B70C82369E623789E063FF58F
:1011500011AF012321E6224B1B780BB100235EE681
:1011600023789807F5D559067FF554AFF6E71D4D5E
:101170001D492A88098891423FF41EAE1B4E5F0725
:10118000B05C02D53E2808BF0A20194B5B6898471F
:1011900000283FF411AE22782B8851070AD5F15C64
:1011A0003E2907D1322122F0050242F001022270CD
:1011B000104A116001339BB2B3F5806F08BF002362
:1011C0002B80F9E505C0000805000020EF0A00208B
:1011D000E90A0020D30A0020600B002076BA00083C
:1011E000920A002088020020860200208E02002041
:1011F000780200206C0B0020014B1860704700BF84
:10120000640B0020014B1860704700BF600B00208A
:101210000022F0B5084BD4B2A14202F1010200D87D
:10122000F0BD5D791E686F1C5F71045D74555C795B
:10123000DD792C405C71EEE74C120020021E18BFD5
:1012400001224FF40071014804F0B2BD000C0140CE
:101250001FB514461A464FF0FF330091CDE9014304
:1012600001460123024805F043F804B010BD00BF59
:10127000A4140020FFF7ECBF13B514461A46CDE9BD
:10128000001401230146024805F0C2F802B010BD67
:10129000A414002013B514461A46CDE90014012306
:1012A0000146024805F07AF902B010BDA4140020EE
:1012B00007B501228DF807000DF10701034807F07B
:1012C0006AFFB0FA80F0400903B000BDB4120020FC
:1012D00010B50446FEF73CFF81B22046BDE8104041
:1012E00009F006BC10B5164B1B78F3B115490C7804
:1012F000FF2C15D07E2C144B13D818550020621CDF
:10130000D2B2012A0A7098540AD0134413F8022C5E
:101310000D2A05D113F8013C0A2B01D1FF230B70D4
:1013200010BD00220A701A70FAE7084B5A79196842
:10133000541C5C7188545A79D9790A405A71EFE784
:101340008B0D00208C0D00208D0D0020341200200C
:10135000032810B5184C15D10C21184B18481A78D1
:10136000184B01FB02330F22996809F0FDFD0023A1
:10137000134A2370D3730122134B1A700522134BA7
:101380001A7010BD124B22781B7813431843C0B259
:101390000028F6D1012340F6B8320C2123700D4B02
:1013A000BDE810401A80054B064A1B784B43D11804
:1013B0004968D058FFF7CEB8340C0020350C002017
:1013C00050000020BCD50008360C00206000002032
:1013D0008B0D00204C000020038830B58B421FD2BB
:1013E000C38B8B4219D9002330F8024BA14211D391
:1013F000028891420ED80B48121BC55A0230C35ABC
:10140000091B5B1B500801FB0300B0FBF2F02844F2
:1014100080B230BD02331E2BE6D14FF47A70F8E76C
:101420000020F6E71CD50008054B064A03F1100121
:1014300053F8040B8B4242F8040BF9D1704700BFFC
:1014400074120020641200200122014B1A707047B0
:10145000AD1200200122014B1A707047AC1200201F
:101460000268264B10B59A42044612D1244A2549F7
:10147000137825480133DBB2282B01BF00231370FA
:10148000224A137808BF43F080031370082204F047
:101490000BF82368B3F1804F18D11D4A13782BB194
:1014A0001378012B02D01378022B08D1012419499B
:1014B00019480B78C454234403F00F030B701749E9
:1014C0000B78013B13F0FF0301D00B7010BD142308
:1014D0000B701378032B02D01378042BF6D1012064
:1014E0000C4A0D491378C8540344002003F00F033D
:1014F000C854013303F00F031370E7E7002C0140D9
:10150000AE120020741200203C1500202E0E002088
:10151000B0120020841200208512002066000020F6
:10152000F0B5026883790C46D15C0546A1F1A003B1
:1015300091B0512B00F2D986DFE813F052005C0025
:101540006C00B80007013201AB01C8015301710101
:101550008E010A0250046D048A04A704C404E10445
:101560002902FE041B053805550573059105AF05D5
:10157000D706D706D706D706D706D706CD05440225
:101580006102EB0509062C064A0668068606A406D3
:10159000C206D706D706D706D706D706D706D70678
:1015A000D706D706D706D706D706D706D706D70653
:1015B000D706D706D706D706D706D706D706D70643
:1015C000D706D706D706D706D706D706D706D70633
:1015D000D706D706D706D706D706D7068602CC0386
:1015E000A0210222204603F07EFC0D21204603F0BC
:1015F000C2FC08E0A1210D22204603F074FC204625
:10160000C14903F0CBFC2046217A11B0BDE8F0407F
:1016100003F0B1BC0D22A221204603F064FCBB4BB9
:10162000BB4DB3F9001020462980C9B203F0A3FCDA
:101630006978204603F09FFCB64B2046B3F90010B2
:101640002980C9B203F097FC6978204603F093FC27
:10165000B14B2046B3F900102980C9B203F08BFCCE
:101660006978204603F087FCAC4B2046B3F90010A4
:101670002980C9B203F07FFC6978204603F07BFC27
:10168000A74B2046B3F900102980C9B203F073FCC0
:101690006978204603F06FFCA24BB3F90010298053
:1016A0002046C9B203F067FC69789FE79E4E11227D
:1016B000A321204603F017FC954D31882046298050
:1016C000C9B203F058FC6978204603F054FC7188D5
:1016D00020462980C9B203F04EFC6978204603F009
:1016E0004AFCB18820462980C9B203F044FC6978DD
:1016F000204603F040FCF18820462980C9B203F05F
:101700003AFC6978204603F036FC3189204629806E
:10171000C9B203F030FC6978204603F02CFC7189D3
:1017200020462980C9B203F026FC6978204603F0E0
:1017300022FCB18920462980C9B203F01CFC6978DB
:10174000204603F018FCF189A9E70222A4212046D3
:1017500003F0C9FB0D21204603F00DFC217A204641
:1017600003F009FC00220121284603F03CFC684CF0
:10177000002201212070284603F035FC6070B4F986
:1017800000202388002A6949694AB5BF5B4213805B
:101790000B800023B6BF00230B80138011B0F0BD77
:1017A0000222A521204603F09EFB0D21204603F0D6
:1017B000E2FB217A204603F0DEFB002201212846CD
:1017C00003F011FC524C002201212070284603F046
:1017D0000AFC6070B4F900202388002A5549564A53
:1017E000D3E70222A821204603F07DFB0D212046ED
:1017F00003F0C1FB217A204603F0BDFB002201214A
:10180000284603F0F0FB424C0022207001212846BC
:1018100003F0E9FB60702288484B1A80BEE7022281
:10182000A921204603F05FFB0D21204603F0A3FB16
:10183000217A204603F09FFB00220121284603F075
:10184000D2FB334C002220700121284603F0CBFB51
:10185000607022883A4BE0E70222AA21204603F07A
:1018600042FB0D21204603F086FB217A204603F03F
:1018700082FB00220121284603F0B5FB244C002204
:1018800020700121284603F0AEFB607022882D4BAA
:10189000C3E70222A621204603F025FB0D212046A6
:1018A00003F069FB217A204603F065FB0022012149
:1018B000284603F098FB164C002220700121284690
:1018C00003F091FB607022881F4BA6E70222A7213C
:1018D000204603F008FB0D21204603F04CFB217A43
:1018E000204603F048FB00220121284603F07BFB41
:1018F000074C002220700121284603F074FB607021
:101900002288124B89E700BFF8D50008AA120020F0
:10191000300E0020A8120020A6120020A4120020E1
:10192000A2120020A012002064120020280E002025
:10193000260E00202C0E00202A0E0020440000203D
:1019400042000020F40B00203C0000203E0000205C
:101950000222AB21204603F0C6FA0D21204603F0F7
:101960000AFB217A204603F006FB002201212846CB
:1019700003F039FB304C002220700121284603F08F
:1019800032FB6070B4F900202C4B1A6006E702228B
:10199000B221204603F0A7FA0D21204603F0EBFA0E
:1019A000217A204603F0E7FA00220121284603F0BD
:1019B0001AFB214C002220700121284603F013FB62
:1019C0006070EBE60222C121204603F08CFA0D2163
:1019D000204603F0D0FA217A204603F0CCFA002208
:1019E0000121284603F0FFFA134C00222070012148
:1019F000284603F0F8FA60702288114B0DE70222A6
:101A0000C221204603F06FFA0D21204603F0B3FAFD
:101A1000217A204603F0AFFA00220121284603F084
:101A2000E2FA054C002220700121284603F0DBFA7F
:101A300060702288034BF0E6300E00203400002056
:101A4000640000206200002000254F22F021204683
:101A500003F049FAB94B03AF1B88ADF80C30B84B13
:101A60001B88ADF80E30B74B1B88ADF81030B64B65
:101A70001B88ADF81230B54B1B88ADF8143037F920
:101A8000026B2046F1B203F076FA01352046C6F328
:101A9000072103F070FA052DF1D1AD4D20462978CC
:101AA00003F069FA6978204603F065FAA9782046C0
:101AB00003F061FAE9780025204603F05CFAA54BB3
:101AC000ADF830501B8809AFADF82430A24B1B880D
:101AD000ADF82630A14B1B88ADF82830A04B1B88F1
:101AE000ADF82A309F4B1B88ADF82C309E4B1B88DD
:101AF000ADF82E3037F9026B2046F1B203F03BFA15
:101B000001352046C6F3072103F035FA072DF1D140
:101B10000025964B06AF1B88ADF81830944B1B88F8
:101B2000ADF81A30934B1B88ADF81C30924B1B88D4
:101B3000ADF81E30914B1B88ADF82030904B1B88C0
:101B4000ADF8223037F8026B2046F1B203F013FAF9
:101B500001352046310A03F00EFA062DF2D1002598
:101B6000884B01AF1B88ADF80430874B1B88ADF85C
:101B70000630864B1B88ADF80830854B1B88ADF8C6
:101B80000A3037F8026B2046F1B203F0F4F9013560
:101B90002046310A03F0EFF9042DF2D17D4B0021EC
:101BA000B3F90050204603F0E6F90021204603F087
:101BB000E2F9E9B2204603F0DEF9C5F30721204639
:101BC00003F0D9F9744B754AB3F90060B2F90050CB
:101BD0001978204603F0CFF9C6F30721204603F019
:101BE000CAF9E9B2204603F0C6F9C5F307216C4DE6
:101BF000204603F0C0F92978204603F0BCF9697843
:101C0000204603F0B8F9A978204603F0B4F9E97842
:101C1000204603F0B0F9634B634AB3F90060B2F9B0
:101C200000501978204603F0A6F9C6F30721204694
:101C300003F0A1F9E9B2204603F09DF9C5F30721AD
:101C40005A4D204603F097F92978204603F093F97E
:101C50006978574D204603F08EF9A978204603F0A5
:101C60008AF969882046090A03F085F9A97920468E
:101C700003F081F9E9882046090A03F07CF9A97A82
:101C8000204603F078F969894A4D090A204603F095
:101C900072F929882046C9B203F06DF92988464DAA
:101CA000C1F30721204603F066F929882046C9B20E
:101CB00003F061F92988414DC1F30721204603F063
:101CC0005AF929882046C9B203F055F92988C1F389
:101CD00007218BE400261D22F121204603F003F9A1
:101CE000374B09AF1B680993364B1B680A93364B79
:101CF0001B680B93354B1B680C93354B1B680D937E
:101D0000344B1B680E93344B1B680F9357F8045BDE
:101D10002046E9B203F02FF9C5F30721204603F06E
:101D20002AF9C5F30741204603F025F9013620467C
:101D3000290E03F020F9072EE8D164E444000020C6
:101D4000F40B0020420000203C0000203E00002058
:101D5000340000202E0000202C000020F20B002078
:101D6000F00B002026000020320000201E00002082
:101D7000180000201A000020160000201C0000207F
:101D8000140000203A0000203800002064000020E9
:101D900062000020E20B0020E00B00203000002059
:101DA000180C002024000020220000202000002029
:101DB00064120020320C0020300C00202E0C002079
:101DC000080C0020FC0B0020000C0020F80B002069
:101DD000140C0020D00B0020480000200222AC216F
:101DE000204603F080F80D21204603F0C4F8217A44
:101DF000204603F0C0F800220121284603F0F3F842
:101E0000D44C002220700121284603F0ECF86070C9
:101E10002288D14B01E50222AD21204603F063F870
:101E20000D21204603F0A7F8217A204603F0A3F8FD
:101E300000220121284603F0D6F8C64C002220706B
:101E40000121284603F0CFF860702288C34BE4E4F8
:101E50000222AE21204603F046F80D21204603F071
:101E60008AF8217A204603F086F8002201212846CC
:101E700003F0B9F8B74C002220700121284603F086
:101E8000B2F860702288B64BC7E40222AF21204628
:101E900003F029F80D21204603F06DF8217A204641
:101EA00003F069F800220121284603F09CF8A94CB0
:101EB000002220700121284603F095F860702288E6
:101EC000A84BAAE40222B021204603F00CF80D2111
:101ED000204603F050F8217A204603F04CF8002207
:101EE0000121284603F07FF89A4C0022207001213E
:101EF000284603F078F8607022889B4B8DE402221C
:101F0000B121204602F0EFFF0D21204603F033F807
:101F1000217A204603F02FF800220121284603F001
:101F200062F88C4C002220700121284603F05BF8F7
:101F3000607022888D4B70E40222B321204602F0AB
:101F4000D2FF0D21204603F016F8217A204603F037
:101F500012F800220121284603F045F87D4C0022AA
:101F600020700121284603F03EF860702288804BE3
:101F700053E40222B421204602F0B5FF0D21204691
:101F800002F0F9FF217A204602F0F5FF002201213C
:101F9000284603F028F86F4C0022207001212846C3
:101FA00003F021F860702288724B36E40222B521DA
:101FB000204602F098FF0D21204602F0DCFF217A36
:101FC000204602F0D8FF00220121284603F00BF83A
:101FD000604C002220700121284603F004F8607054
:101FE0002288654B19E40222B621204602F07BFFCD
:101FF0000D21204602F0BFFF217A204602F0BBFFF0
:1020000000220121284602F0EEFF524C00222070EF
:102010000121284602F0E7FF60702288574BFFF746
:10202000FCBB0222B721204602F05DFF0D212046B5
:1020300002F0A1FF217A204602F09DFF002201213B
:10204000284602F0D0FF434C002220700121284690
:1020500002F0C9FF60702288494BFFF7DEBB022205
:10206000B821204602F03FFF0D21204602F083FFF9
:10207000217A204602F07FFF00220121284602F04B
:10208000B2FF344C002220700121284602F0ABFF41
:10209000607022883B4BFFF7C0BB0222B92120466B
:1020A00002F021FF0D21204602F065FF217A204633
:1020B00002F061FF00220121284602F094FF254C26
:1020C000002220700121284602F08DFF60702288D6
:1020D0002D4BFFF7A2BB0222C021204602F003FFD6
:1020E0000D21204602F047FF217A204602F043FFEF
:1020F00000220121284602F076FF164C00222070B3
:102100000121284602F06FFF607022881F4BFFF705
:1021100084BB0222C321204602F0E5FE0D212046A9
:1021200002F029FF217A204602F025FF002201213A
:10213000284602F058FF074C002220700121284653
:1021400002F051FF60702288114BFFF766BB02223C
:10215000C4211EE4300E00202E0000202C000020A0
:10216000F20B0020F00B002026000020320000209F
:102170001E000020180000201A0000201600002079
:102180001C000020140000203A000020380000202D
:10219000E20B00200222C521204602F0A4FE0D2100
:1021A000204602F0E8FE217A204602F0E4FE0022FA
:1021B0000121284602F017FF4F4C00222070012118
:1021C000284602F010FF607022884C4BFFF725BBB9
:1021D0000222C621204602F086FE0D21204602F092
:1021E000CAFE217A204602F0C6FE002201212846BE
:1021F00002F0F9FE404C002220700121284602F036
:10220000F2FE607022883E4BFFF707BB0222C72117
:10221000204602F068FE0D21204602F0ACFE217A35
:10222000204602F0A8FE00220121284602F0DBFE33
:10223000314C002220700121284602F0D4FE60704B
:102240002288304BFFF7E9BA0222C821204602F06B
:102250004AFE0D21204602F08EFE217A204602F031
:102260008AFE00220121284602F0BDFE224C0022F7
:1022700020700121284602F0B6FE60702288224BB1
:10228000FFF7CBBA0222C921204602F02CFE0D2115
:10229000204602F070FE217A204602F06CFE0022F9
:1022A0000121284602F09FFE134C002220700121DC
:1022B000284602F098FE60702288144BFFF7ADBAF2
:1022C000134D04222B88CA21013320462B8002F0B3
:1022D0000AFE0D21204602F04EFE29882046090AFA
:1022E00002F049FE2978FFF781B90222204602F068
:1022F000FAFDFF21FFF77AB9300E0020E00B002035
:1023000030000020240000202200002020000020B7
:10231000B80B0020F0B516464379027905469A427B
:102320000C46C3B01DD002F06BFED0B1012E04BF2D
:102330000022154B2146284608BF1A70FFF7F0F817
:102340000022617A02A8D3B299420CD8C6B1FEF736
:102350002FF94FF4807300930022637A02A9FEF7ED
:1023600099F943B0F0BDA77925687B1CDBB2A37156
:10237000ED5D013200F8015BE5792B40A371E2E7E6
:1023800002A808F0B5FBECE76000002010B50D4B8B
:102390000D4C1A780D4B0E4853F822100122237869
:1023A00002FA03F38B4308BF1A464FF4005103F0BF
:1023B000FFFC23780133DBB2142B28BF00232370EA
:1023C00010BD00BFAF120020B60B00206C00002033
:1023D000001001402DE9F0418C4B8D4C1B788AB0E8
:1023E000032B5FFA83F840F02B810025012002F0D7
:1023F0000BF94023202229461E20009502F054FAB2
:102400001623802214212846009502F04DFA40231D
:10241000522229465020009502F046FA7D4E294668
:10242000282002F0F5F97C4902A808F0F3FD96E8AF
:102430000E00009502A802F0D5F92946552002F0B9
:10244000E7F9764902A808F0E5FD96E80E00009548
:1024500002A802F0C7F91921282002F0D9F9704B1F
:102460002021B3F900306F4A02A808F03FFD94E83C
:102470000E00009502A802F0B5F91921552002F0CE
:10248000C7F9694B2021B3F90030664A02A808F069
:102490002DFD94E80E00009502A802F0A3F9252175
:1024A000282002F0B5F9614B2021B3F900305D4AD4
:1024B00002A808F01BFD94E80E00009502A802F0A7
:1024C00091F92521552002F0A3F9594B2021B3F9A8
:1024D0000030544A02A808F009FD94E80E00009567
:1024E00002A802F07FF93121282002F091F9514B26
:1024F0002021B3F900304B4A02A808F0F7FC94E819
:102500000E00009502A81E2602F06CF9312155201C
:1025100002F07EF9484B2021B3F90030414A02A86D
:1025200008F0E4FC94E80E0040F6FA74434F00957E
:1025300002A802F057F93B8842467343B3FBF4F319
:10254000C3F13C033C214046DBB2009502F066F942
:102550007B8806227343B3FBF4F3C3F13C031046BC
:102560003C21DBB2009502F059F9BB880922734384
:10257000B3FBF4F3C3F13C0310463C21DBB20095FE
:1025800002F04CF9FB880C227343B3FBF4F3C3F164
:102590003C0310463C21DBB2009502F03FF93B8939
:1025A0000F227343B3FBF4F3C3F13C0310463C2109
:1025B000DBB2009502F032F97B8912227343B3FB40
:1025C000F4F3C3F13C0310463C21DBB2009502F06A
:1025D00025F9BB8915227343B3FBF4F3C3F13C0324
:1025E00010463C21DBB2009502F018F91822FB8955
:1025F0003C217343B3FBF4F31046C3F13C03009555
:10260000DBB202F00BF90AB0BDE8F081B012002095
:1026100048C000083CC000088CBA000890BA000806
:10262000AA12002094BA0008A4120020A8120020C8
:10263000A2120020A6120020A01200206412002086
:10264000002001F0E1FF02210125084602F0E0F838
:1026500094E80E004548009502F0C4F802212420B9
:1026600002F0D6F8424B20211B68424A02A808F02B
:102670003DFC94E80E00009502A802F0B3F8112189
:10268000022002F0C5F894E80E003B48009502F0E5
:10269000A9F81121242002F0BBF80522374B202194
:1026A0001B6802A803EB430393FBF2F3344A08F0E0
:1026B0001DFC94E80E00009502A802F093F820217A
:1026C000022002F0A5F894E80E002E48009502F0D2
:1026D00089F82021242002F09BF864212A4E02A8C8
:1026E000326892FBF1F301FB1322002AB8BF524279
:1026F00020210092254A08F0F9FB94E80E0000958D
:1027000002A802F06FF82F21022002F081F894E86D
:102710000E001F48009502F065F824202F2102F0DA
:1027200077F842F226323368009503F58C53133361
:10273000934298BF174894E80E0088BF164802F0ED
:1027400051F801240E237F2219460020009402F044
:1027500065F81D237F2219460020009402F05EF8E0
:102760002C237F221946002000944AE797BA0008DC
:102770009C1200209CBA0008A5BA000898120020FC
:10278000AABA0008B4BA0008140C0020B9BA0008AC
:10279000C3BA0008C8BA0008D2BA000837B53F4B20
:1027A0003F4C1A782AB11A78012A02D01B78022BE2
:1027B00016D12378013B012B12D800232370394A0C
:1027C000394B11781B788B4208D038484B1C415C40
:1027D00003F00F0391B103212170137003B030BDDA
:1027E0002378032B57D801A252F823F0BF27000803
:1027F000012800080B280008252800080121EBE724
:10280000FFF7E8FD02232370E8E7294804F0BAFE49
:102810002028E3D101F01EFF0028DFD00023254A45
:102820001370F0E7224804F0B0FE234D10B14FF4CE
:102830007A732B601E4804F0A5FE202816D101F003
:1028400029FE98B11D4B1E4A01931E4B1E49009351
:102850001E481F4B01F066FE00231E4A1E491370DE
:102860000A7842F008020A702B60CCE72B6801332B
:10287000B3F5FA7F2B60B1D90D4803F01FFD01209D
:1028800002F098FC0A4803F071FC01F0CDFD01F064
:10289000F3FD0023E8E70023B5E700BFB0120020F6
:1028A000B50B0020B40B00208412002085120020FC
:1028B000A4140020AD120020B00B0020A0120020B4
:1028C000A6120020A2120020A8120020AA120020A6
:1028D000A4120020AC1200202E0E0020074B084A44
:1028E0001B6812885A63074A1288DA63064A1288FC
:1028F0009A63064A12881A64704700BF4413002086
:102900002C0E0020280E00202A0E0020260E00206B
:1029100013B50B4B044600934FF4AA71094B0A4AB6
:102920000A4808F0E3FA4FF4AA7300220093204605
:1029300040F243130549FDF7ADFE02B010BD00BFE4
:102940001DBB0008D8BA000818BB0008370C0020CF
:1029500013B50A4B044600934FF4AA71084B094A79
:10296000094808F0C3FA4FF4AA73002200932046E6
:10297000B3230549FDF78EFE02B010BD22BC00084E
:10298000D8BA000818BB0008370C00202DE9F8431E
:1029900000241F460C7014701C7047F23A53089DB7
:1029A00089462B8032490646904608F0F0FA58B125
:1029B000043010F8013FE2B213F0DF0F01D0262BF4
:1029C00036D1002309F8023030462A4908F0DFFAF0
:1029D00060B10023043010F8012FD9B212F0DF0FDC
:1029E00001D0262A2ED1002308F801303046224992
:1029F00008F0CDFA58B10023C21C12F8011FD8B25A
:102A000011F0DF0F01D0262926D100233B54304698
:102A10001A4908F0BCFA48B10023053010F8012F1C
:102A2000303AD1B209291DD903B12B80BDE8F88312
:102A30002B2B08BF202309F8043001343F2CB8D1D8
:102A40002246BEE72B2A08BF202208F803200133C4
:102A50003F2BC0D11946C6E7F95401330F2BCCD117
:102A60001846D2E703EB830302EB430293B2D5E7A8
:102A700097BC00089DBC0008A3BC0008A8BC0008C7
:102A80002DE9F043344BA9B01E785EB100221A70D4
:102A900047F23152314B3248198829B0BDE8F04332
:102AA000FDF78CBDDFF8BC9099F80030002B42D0C8
:102AB0002D4F3B78FF2B3ED1FDF77AFD2B4C804606
:102AC0002B49204608F063FA0546002836D04022FC
:102AD000314608A808F040FA4022314618A808F00C
:102AE0003BFA102231460DEB020008F035FA0DF1E9
:102AF0000E030093204604AB18AA08A9FFF746FF6F
:102B00009DF8103033B1164B0F22184604A908F077
:102B10002BFAC673BDF80E300BB1104A1380404635
:102B2000FFF716FF002318A908A889F800303B70AA
:102B30002370FDF70FFD29B0BDE8F08320460D4955
:102B400008F025FA28B14046FFF7E2FE3D702570F7
:102B5000F1E738702070EEE7360C00204E000020C0
:102B6000500000208B0D00208C0D00208D0D0020CA
:102B7000AFBC0008B9BC000840F201230380002369
:102B800083708380C380704702780346032A1DD870
:102B9000DFE802F00F021407427842B903221A70EC
:102BA00005E0417801220029F9D1017082700020EE
:102BB00070474278012AFAD10222F0E740780022D9
:102BC0000128ECD118709A70D87170470122E6E79D
:102BD00070B504464FF400411D4803F0E3F8A678B1
:102BE0001C4A1D491D4DAEB188B113780133DBB2CB
:102BF000072B137003D90123637000231370002384
:102C00000B702B78EBB1A3880A33A38070BD607082
:102C10001070F4E70B781670042B0FD9003818BF2A
:102C200001200E70607000232B70A3796BB1A38814
:102C3000002BEBD0092B08D90A3BE6E701330B70D8
:102C4000F1E7A38001232B70DDE70023DDE700BF60
:102C5000000C0140AC0B0020AB0B0020AA0B0020A5
:102C600037B53E4D2B78DB0934D02B7823F0800329
:102C70002B70FDF7DBFD3A48FFF7AAFF394890F8C3
:102C80004230222B09D0036837491A685B68202339
:102C9000012280F8423006F05EFC344B1B7823B1F1
:102CA00033490A88C2B1013A0A80324A1378013B9B
:102CB00013F0FF0303BF022313702B78137004BFBC
:102CC00043F040032B702C4B1C78013C14F0FF04A4
:102CD00017D01C7003B030BD284803780133DBB235
:102CE000042B94BF1A461346027040F6B8320A808D
:102CF0000C214B43224AD1184968D058FDF72AFCD1
:102D0000D3E70A221A702B7843F020032B70FFF7C9
:102D10003DFB1C4A13780133DBB2092B01D8137039
:102D2000D8E71470184C2378042B9CBF0133237010
:102D3000164B1D78002DCDD1FDF786FC0728C9D193
:102D40002378042BC6D94FF480732A460093284673
:102D500009230F49FDF79EFCBCE700BF2E0E0020A3
:102D60000E0E0020B4120020240E0020340C00208F
:102D70004C0000206700002068000020350C002077
:102D8000BCD50008250E0020600000208B0D00201F
:102D90000B000020F8B583780446002B4CD18388C3
:102DA000002B49D18379002B46D0C579EDB140F68F
:102DB000B732A388934258D8A3F5FA62B2F57A7F66
:102DC00057D2374804F0DEFB202838D100250426EE
:102DD000E571344B1E7001F07FFC012001F098FD7D
:102DE000314BA5711E70A58029E02D4804F0CAFB67
:102DF000202824D1284601F007FC01F011FC94F8AA
:102E000006C02A492A4ABCF1020FB1F90030B2F9D2
:102E10000000244F244E24D0BCF1030F10D0BCF18D
:102E2000010F1ED13570234E3D703380224B0D8033
:102E3000188015800023A371E379002BB7D1F8BD6A
:102E40004FF0020C87F800C01C4F86F800C03D70A0
:102E50000343EFD1174B1B880B80174B1B88138044
:102E6000E8E701253D703570F2E70023E371A380A8
:102E7000E5E7A3F57A73B3F57A7F08D2084804F042
:102E800081FB2028DBD100250326E571A1E7002383
:102E9000E371A3790133A3714FF4C873E7E700BF6F
:102EA000A4140020B0120020AF1200202E00002039
:102EB0002C0000202A00002028000020C40B002045
:102EC000F8B51D4640F2F3139A42CCBF002401240A
:102ED0009942D8BF01347B4F9842D8BF01343B7828
:102EE0008446032B00F2EB80DFE813F004001100AE
:102EF0006E00E500B1F5FA7F02DA01233B7009E0CC
:102F0000714B724AB3F900305B42136002E0032C4C
:102F100001D13C70F8BD6E4E6E4914BB3388086811
:102F200001339BB2052B33800FD90028B4BF012297
:102F30004FF0FF32684B34801C80684B1C70684B2C
:102F40001C60684B1A700223D8E7674B1860674B08
:102F50001A685E4B1A60664B0860B3F900302B604C
:102F6000D8E7002333804FF47A7303FB02F0614A01
:102F700002FB0C00604A126890FBF2F00A2290FB00
:102F8000F2F0594A80EAE07410605C4AA4EBE07405
:102F900014605B4AB2F900204243624392FBF3F2B1
:102FA000584B4A4CB3F9003000FB0322564B2260C9
:102FB000B3F900309A4202DD1A46236002E05B4218
:102FC0009A42F9DB494BC5E7B1F5FA7F95DB41F24F
:102FD00088304E4B4E4A1B88B2F900101BB2C91AFA
:102FE0004C4A002381FB0001FDF7BAF83C4B3B49FA
:102FF0001A680C7810446FF0630218602A60334A34
:10300000032C56D8DFE804F0021A283F354C94F917
:103010000040002C404CC8BF4FF4AF74146047F21E
:103020002F520028B8BF404290427FF773AF002272
:103030001A60294B1A8001230B706BE70024264885
:1030400014600288013292B2632A02807FF662AF76
:103050001C6004800223EFE7224C94F90040002C0E
:103060002D4CD8BF4FF4AF7414604EF65F22002889
:10307000B8BF404290427FF74DAF00221A60164B16
:103080001A800323D8E7174C94F90040002C224CF7
:10309000C8BF4FF4AF7400281460204AB8BF404244
:1030A00090427FF737AF00221A600B4B1A8004233F
:1030B000C2E7002329E7032C7FF41FAF2AE7002390
:1030C0001CE700BFC80B002026000020D00B00200A
:1030D000A80B0020CC0B0020C60B0020C50B002045
:1030E000A40B00200A000020D80B0020A00B002019
:1030F0003200002018FCFFFFDC0B0020D40B002066
:103100002C0000202E00002020000020BA0B002000
:10311000A0120020B8FF0100A2FEFFFF3F7E0500C5
:1031200038B50C46054601880948FEF755F9208058
:1031300069880848FEF750F96080A9880648FEF7BC
:103140004BF9A080E9880548FEF746F9E08038BDD4
:103150009CD500087CD500085CD500083CD500084B
:1031600037B5354B354C19782278914261D02278A9
:103170001A7023782BB12378012B02D02378022BED
:1031800057D12F4804F0FEF92028FAD1012001F090
:10319000BFFB002001F038FA2378D3B90125294C70
:1031A0001421162001F034FB94E80E002648009507
:1031B00001F018FB2221242001F02AFB94E80E00E4
:1031C0002248009501F00EFB03B0BDE8304001F04D
:1031D00027BA2378012BDDB213D11A4C1421162003
:1031E00001F016FB94E80E001948009501F0FAFA78
:1031F0002221042001F00CFB94E80E0015480095F4
:10320000E0E72378022BDFD101250E4C1421162094
:1032100001F0FEFA94E80E000F48009501F0E2FA82
:103220002221242001F0F4FA94E80E000B480095C6
:10323000C8E703B030BD00BF09000020B012002075
:10324000A414002048C00008BFBC0008CCBC000883
:10325000D5BC0008E2BC0008F4BC000801BD0008B1
:1032600010B594B0142200210CA807F075FE1422AA
:1032700000210DEB020007F06FFE1022002101A8D3
:1032800007F06AFE02244FF480330122CDE9114396
:10329000CDE90A234FF4E0130AA80E92139304F029
:1032A000EFFF08B172B6FEE70F23CDE905344FF406
:1032B00080630790CDE90830214605A805F0A2F902
:1032C00008B172B6FEE7122301934FF40043CDE933
:1032D000033001A805F052FA08B172B6FEE714B047
:1032E00010BD00000268084B10B59A420AD1074C85
:1032F0002078FDF7BBF92146BDE8104001220448C3
:1033000006F029B910BD00BF00380140240E00208E
:10331000B41200200368074A934209D11A685B6817
:103320002023012280F842300349044806F013B9F3
:10333000704700BF00380140240E0020B412002066
:103340008D4A2DE9F04F15688C4ADFF834A21468D5
:103350008C4A85B0B2F900B08B4ADAF80030B2F985
:10336000002003900292894AB2F9007043EA0502F4
:10337000224300F0B2805A210A224B4302FB0B3059
:10338000642390FBF3F04D434C430190029802FB01
:10339000074402FB005594FBF3F495FBF3F5019B06
:1033A0007B4ACAF80030744BB2F900801D60734B41
:1033B0001C60784B1B68002B00F09480434403EBA7
:1033C000D3735B1000934FF48F704FF06409714B0F
:1033D000009A1A60704A116800FB01F292FBF9F63C
:1033E00081FB01024FEAE17C00FB0CFC01FB02CCFB
:1033F0005DA3D3E90023A0FB01016144FCF7B0FE0B
:10340000311A664E33889BB2952B6ED833889BB2A7
:10341000272B31D8624B4FF48F70C3F80080614B7B
:103420005549B3F90020604B029C1A605F4B604A1B
:103430001F60232303FB08F3136093FBF9F3564A41
:103440000C60136000FB03F483FB0302DD174543AC
:103450004A4903FB02550F60A0FB030142A3D3E9D5
:103460000023CAF800B02944FCF77AFE94FBF9F473
:10347000484B211AC3F8008033889BB2312B0AD9FC
:10348000444A4C4B10681A68401A10444A4A186063
:1034900013683B441360338801339BB23380338815
:1034A0009BB2962B0DD16422424B44491B6893FB7F
:1034B000F2F30B80404B1B6893FBF2F3404A1BB2C4
:1034C000138000233F4A13603F4A13602B4B1A6856
:1034D000364B1A6005B0BDE8F08F3C46029DCDF832
:1034E00004B05CE7CDF800806DE7304B00981A68B7
:1034F0001C60324BA21AB3F900306443C31A5B1A42
:10350000019905FB0544694330482F4DB4FBF0F4A5
:1035100091FBF0F11B1B0B44062192FBF1F21344CB
:10352000284A03981360136840F6262203F21351C9
:10353000914298BF00230399DA17A3FB013100FBE6
:103540000211D81841EB0106C01841EB060108A38F
:10355000D3E90023FCF704FE62232C685C4394FB50
:10356000F9F404442C60B5E7420A1B040000000093
:10357000404B4C0000000000900B00208C0B002002
:10358000940B0020A4120020A2120020A012002000
:10359000AA120020880B0020140C00209612002094
:1035A000100C0020A61200200C0C0020840B002020
:1035B000180C0020800B00207C0B0020CA0B002080
:1035C000BA0B0020981200209C12002028512200E3
:1035D0002DE9F04FBA4A89B013781B0740F1B48344
:1035E0001378B84C23F0080313700522B64BE1881A
:1035F0001A6063886289ADF810300B44ADF814206E
:1036000013440322B3FBF2F3ADF8121004A806A989
:10361000ADF81630FFF784FDBDF91850AB4BBDF87F
:1036200018001D80BDF91A50A94BBDF81A101D8055
:10363000BDF91C50A74BBDF81C201D804318134436
:10364000012BB8BF0123A44DDFF890822B60B4F9A1
:103650000050A34BA34E1D80B4F90450A24B376811
:103660001D80B4F90850A14B1D80B4F90C30B4F999
:103670000E40A8F800309E4B1C809E4C9E4BD4F808
:1036800000C0B3F900509D4B57EA0C0EB3F900305F
:103690000ED04FF05F0E05EB85050EFB0755642736
:1036A00003EB83030EFB0C3395FBF7F593FBF7F36A
:1036B000236003F57A64B4F5FA5F88BF23236FF0C3
:1036C000310488BF6B4335608D4E8E4D88BF3360AB
:1036D0008D4BB3F900306343832493FBF4F38B4C9D
:1036E00023602C681C443368142673434FF47576AA
:1036F00006FB0433864CA34200F38B81854CA34226
:10370000C0F289814FF47A7493FBF4F364242B6044
:1037100093FBF4F3804E814D3360814B95F800E0CC
:10372000D3F800C000237F4FBEF1010FCDF80CC0CD
:103730003B605FFA8EF900F07081B9F1020F00F082
:1037400070812B781BB12B78012B40F0E38132681C
:10375000002AD4BF00220122734B30681A702B78E4
:10376000002B40F0D98171498842ACBF0021012172
:103770006F4BDFF8C0C119702B78DFF8BCE1012B6B
:1037800040F014826D4C23780133DBB2072B00F23A
:10379000C5812370039BBEF9004023440393C824D2
:1037A000039BDFF89C91A3EB000E664BDFF898813A
:1037B000C3F800E0D9F800301B1A04FB03FA634B8E
:1037C0000EF19504B4F5957FC3F800A0D8F8003049
:1037D00000F2F4810EEB8E0423445D4CA342B8BF8B
:1037E000234649F64044A342A8BF2346594CC8F893
:1037F0000030B4F90040C9F800005C434FF47A731C
:1038000094FBF3F4544BB3F900300EFB0344534BD9
:10381000B3F900300AFB034A42F210749AFBF4F445
:103820004F4BCCF800401888DFF838C14E4BCCF82D
:1038300000E0B3F800E02B78022B40F0C4814B4B42
:1038400093F80090B9F1020F05D093F80090B9F108
:10385000040F40F0B8811B78022B40F0B7814FF085
:1038600001094FF4966E4FF4AF702B78022B40F0A5
:10387000B4813E4B93F800B0BBF1020F03D01B782C
:10388000042B40F0AA8109FB00433948D7F800A077
:10389000B0F90000034403EB0A07364809FB1E4356
:1038A000B0F900001B1AA3EB0A04002A00F02A82D8
:1038B0000023314CC8F80030CCF8003027465DE0DA
:1038C0002E0E00206412002048000020320C002040
:1038D000300C00202E0C0020DC0B0020260C0020D9
:1038E0002C0C0020100C00202A0C0020280C00209A
:1038F000240C00200C0C0020AA120020A61200208C
:10390000200C0020180C0020A21200201C0C00200B
:10391000E7ECA43519135BCA140C0020B012002088
:1039200034000020D00B00209E0B002024FAFFFF63
:103930009D0B0020F80B0020E40B00209C0B0020C6
:10394000980B0020080C0020FC0B0020000C00202D
:10395000C063FFFFF40B0020440000204200002061
:103960003E000020040C00203C000020C40B00207E
:10397000F20B0020F00B002048F4FFFF41F28830EA
:10398000FFF7DEFC42F22832336803F58C53143320
:10399000934205D900242746B04BC8F800401C606C
:1039A000AF4BB04A1B8812889BB2952B00F2B481B2
:1039B00000242346C8F8004051428B42B8BF0B4652
:1039C000A242A8BF22462C788A42B8BF0A46A6481F
:1039D000A6492CB12C78012C02D02C78022C0DD1C8
:1039E0002C78012C40F09D81A14C2478022C40F0D1
:1039F0009881A04C2478042C40F093810022974BAE
:103A0000C8F800201A6013465B42038000230B8035
:103A10008DE1994B7AE6994B78E603ABFFF750FAC4
:103A20008FE6DFF85C9299F800E00EF0FF0ABEF135
:103A3000000F29D103ABFFF743FAB8F800301BB2EF
:103A4000B3F5FA7F06DB8F4BC3F800A0012389F89A
:103A5000003076E6B8F800301BB2642B7FF771AE09
:103A60004FF4C871B8F80030874A1BB2643B634317
:103A700093FBF1F3B2F90020C2F1FA014B4393FB3F
:103A8000F4F3134403935CE699F800100229CAB2D8
:103A90001BD0052A3FF455AE012AD8D1794B1A68BC
:103AA00005321A601A681B68B2F5967F3CBF40F277
:103AB000DC520392B3F5FA6FFFF443AE0022734B6E
:103AC000CDF80CC01A600223C1E741F28830704B78
:103AD000704A1B88B2F900101BB2C91A6E4A002343
:103AE00081FB0001FCF73CFB684C6C4AD4F8008079
:103AF000404420602368002B2368B8BF5B42934298
:103B000005DD00235F4A2360136005239FE7FA2346
:103B10003B6016E600221FE6002129E60023DFF8BD
:103B200080812370D8F800405E4B0194B3F90030D7
:103B3000DCF80040C3F164096343019C04FB0933D2
:103B4000642493FBF4F3504CC8F80030B4F90080BF
:103B5000554CA8EB03082368DFF8509143444B45CC
:103B6000B8BF4B464CF250394B45A8BF4B4623607B
:103B70004F4CB4F90040634342F2107493FBF4F3EA
:103B80004C4CB4F9004008FB04F44FF47A7894FBF1
:103B9000F8F42344484CA342B8BF234640F2DC5417
:103BA000A342A8BF2346AEF80030F3E500243C4B07
:103BB000AEF800401C603C4B1C60F0E50A24DB00C2
:103BC00093FBF4F312E64FF001094EE64FF0FF3994
:103BD00040F28A2E4FF4966047E6254B1B78022B65
:103BE00030D0B3B142F20F739A457ADC334B9A4529
:103BF00080F28580231A3248A4EB0E04B0F900004D
:103C00001B1A3048B0F90000241A38681F18241A0B
:103C10004BE62D4B2D481B88B0F800E0386827187C
:103C2000002FA4EB000412DDD819254BB3F90030A6
:103C3000C718002C4CDD23480EEB0403B0F90040FC
:103C40001C4432E640F2023340F2EE2EE6E71FBF9C
:103C5000F81A1B4BB3F90030C71AEAE79C12002090
:103C60009612002040000020280E0020260E002082
:103C7000C80B0020C50B0020A0BB0D006044F2FF64
:103C8000C40B0020BC0B002032000020C00B002021
:103C9000BA0B0020A0120020B8FF01008F5F0100C6
:103CA000EC0B002030000020E80B0020B03CFFFFB0
:103CB000E00B0020E20B002024FAFFFFF1D8FFFF09
:103CC000F20B0020F00B00203A000020380000200A
:103CD0003FF4EBAD1E48A4EB0E03B0F900401C1BF3
:103CE000E3E503191B48A644B0F9009018483C6866
:103CF000B0F900004B4486441F1B7444D5E50024F2
:103D00002746D2E500293FF439AE40F6B834C8F86A
:103D10000020CCF80020D1E597423B46A8BF1346CF
:103D20004AE6002B7FF770AE0B800023038093B22E
:103D3000002A0949094AD5BF5B4213800B80002342
:103D4000D6BF00230B80138009B0BDE8F08F00BF01
:103D5000F00B0020F20B00202C0E00202A0E002079
:103D600080B5A74D9AB001F001FAFFF779FA102259
:103D7000002113A807F0F0F8AB69002243F010030C
:103D8000AB61AB694FF4005103F010030493049B43
:103D9000AB699C4843F02003AB61AB69002403F09E
:103DA00020030593059BAB69012743F00403AB6136
:103DB000AB69022603F004030693069BAB6943F04C
:103DC0000803AB61AB6903F008030793079B01F09D
:103DD000EFFF00224FF400718B4801F0E9FF4FF430
:103DE0000053884813A9CDE91337CDE9154601F0F2
:103DF00097FE4FF40043844813A9CDE9133415947A
:103E000001F08EFE4FF400737F4813A9CDE91337FC
:103E1000CDE9154601F084FE6B6922463B436B6198
:103E20006B6921463B400B200393039B01F080FC10
:103E30000B2001F0ADFC224621460E2001F078FC5B
:103E40000E2001F0A5FC224621460F2001F070FC57
:103E50000F2001F09DFC6D4A6D4B082513604FF457
:103E6000807393604FF460231046CDE9134415949A
:103E700014731475D3615460156101F0C7FB08B168
:103E800072B6FEE70624CDE9130713A95F4815941F
:103E900001F050FA08B172B6FEE75C4813A9CDE90B
:103EA000137601F047FA08B172B6FEE713960326BF
:103EB000564813A9149601F03DFA08B172B6FEE710
:103EC00013960426514813A9149601F033FA08B149
:103ED00072B6FEE7139605264C4813A9149601F016
:103EE00029FA08B172B6FEE7484813A9CDE9136470
:103EF00001F020FA08B172B6FEE713940724434894
:103F000013A9149401F016FA08B172B6FEE73F48FF
:103F100013A9CDE9134501F00DFA044608B172B6B4
:103F2000FEE70EAE01461022304607F015F81422C7
:103F3000214613A807F010F847233648DFF8D8C009
:103F40000AAFC0E900C3F9230A947C60C0E90334D6
:103F5000C0E90544846004F0F5FD08B172B6FEE7DF
:103F60004FF4805831462B48CDF8388004F0D0FE0D
:103F700008B172B6FEE7CDE9130013A9254804F095
:103F8000BEFF08B172B6FEE7CDE90A003946214806
:103F900005F03AF8054608B172B6FEE70146102270
:103FA000304606F0D9FF1422294613A806F0D4FFA4
:103FB0004FF047094FF08043184C0A95C4E9003987
:103FC00041F2873320467D60C4E90335A560A561D1
:103FD00004F0B8FD08B172B6FEE731462046CDF8D0
:103FE000388004F095FE08B172B6FEE7CDE9130003
:103FF00013A9204604F083FF90B172B6FEE700BF1C
:104000000010024000100140000C01403C1500204F
:1040100000240140D4130020002C01408C13002008
:10402000CDE90A003946204604F0EEFF044608B107
:1040300072B6FEE701461022384606F08DFF1422C4
:104040002146304606F088FF1C22214613A85B4D0E
:104050000894099406F080FF594B2846C5E90039B9
:1040600042F20F730DF1200AC5E90334AC60AC6174
:1040700004F068FD08B172B6FEE739462846CDF86F
:10408000288004F045FE08B172B6FEE7284604F029
:1040900085FD08B172B6FEE7002331464748CDE9F9
:1040A0000E3304F02CFF08B172B6FEE7CDE908002C
:1040B0005146424804F0A8FF024608B172B6FEE736
:1040C00060231590CDE91330179013A93B4804F0F5
:1040D000BDFD08B172B6FEE70422384813A904F00A
:1040E000B5FD08B172B6FEE70822344813A904F002
:1040F000ADFD08B172B6FEE70C22304813A904F0FA
:10410000A5FD044608B172B6FEE72C4800F0FCFDA0
:104110004FF4E1332B482C4DC0E90244C0E9005371
:104120000C230461C0E90534C46105F005F80446B8
:1041300008B172B6FEE706F067FC24482449254B17
:10414000C0E90244C0E900134FF48043C0E90644CB
:10415000C0E90434046202F009F8044608B172B6FA
:10416000FEE71022014613A806F0F6FE47231A4D7B
:104170001A4A0E94C5E9002342F20F732846746070
:10418000C5E90334AC60AC6104F0DCFC08B172B684
:10419000FEE74FF48053284613A9139304F0B8FDAB
:1041A00008B172B6FEE7002331460B48CDE90E3365
:1041B00004F02AFF044698B172B6FEE744130020CB
:1041C00000040040B412002000380140A414002074
:1041D00000580040801A0600FC1200200008004031
:1041E000524806F09BFC524804F0B6FB514804F0DC
:1041F000B3FB514804F0B0FB21464F4804F002FFE6
:1042000004214D4804F0FEFE08214B4804F0FAFE5C
:104210000C21494804F0F6FE4FF4005101224748B2
:1042200001F0C6FD464800F0E9F9464800F0E0F923
:10423000454800F0D7F900F077FB204600F068FB16
:10424000424800F0C7F8424800F0CAF8414800F080
:10425000CDF800F0E9F8404A404B10461360404B5F
:104260005360404B9360FCF7A9FA3F48FCF7CAFF44
:104270003E48FCF7C1FF01223D493E4805F06BF97D
:1042800040F6B8323C4B3D491C703D4B3D481C70DC
:104290003D4B1A8001223D4B1A70FCF75BF93C4BF9
:1042A0003C4A3D493D4800F00AFF3D4B3D4A3E48EF
:1042B0003E4900F004FF3E4B3E4A1C703E4B3F48D7
:1042C0001C803F4B1C803F4B1C803F4B1C80FEF7EB
:1042D00053FCD2F8FC3043F08073C2F8FC303B4B07
:1042E0005C601A6842F001021A600190FEF7B8FCA7
:1042F000FCF7D0FAFEF7C4FB002227492748FEF757
:1043000009F8012229492848FEF704F8FEF7E6FAE1
:10431000FEF744FAFFF75CF90198FEF735FC0198C7
:10432000FEF738FDFEF71CFFE0E700BF11120008A2
:10433000D41300208C1300204413002000100140EF
:10434000AD1200205112000879120008AC120020B2
:104350007512000895120008180E00203D12000882
:10436000B1120008E5120008D1120008511300082C
:10437000240E0020B41200208B0D00200ABD00087E
:10438000350C002019BD00084C000020340C002022
:104390003411002034100020581200204C1200204C
:1043A000340F0020340E0020341200204012002070
:1043B0002E0E002000ED00E02C0E00200E0E00203E
:1043C000280E00202A0E0020260E0020001000E0FB
:1043D00072B6FEE7014B1860704700BF9C150020C5
:1043E000014B1860704700BF98150020014B186002
:1043F000704700BF94150020044A10B414680B469F
:10440000A44601460122D02010BC60479815002028
:104410001346044A10B41468CAB2A446014610BC3C
:10442000D02060479415002013B500240DF107003B
:104430006B218DF80740FFF7DFFF04230DF1070024
:1044400019218DF80730FFF7D7FF02230DF1070080
:104450001A218DF80730FFF7CFFF0DF107001C215F
:104460008DF80740FFF7C8FF1B210DF10700FFF78C
:10447000C3FF02B010BD00000122044B1A70044BB0
:104480001B680BB100221A70704700BF800000202B
:104490009C15002008B51A4B19681A4B08781A7831
:1044A00018B9012A23D0002008BD0020012A087075
:1044B0001DD0022AF7D101201870134B13491A8816
:1044C000D2BA0A605A881249D2BA0A609A88114947
:1044D000D2BA0A601A891049D2BA0A605A890F49B9
:1044E000D2BA9B890A600E4ADBBA1360DCE702226B
:1044F0000E211A7004483B22FFF78AFFD3E700BF62
:104500009C150020800000206C15002090150020D4
:104510008C150020881500208415002080150020AF
:104520007C15002070B5DDE9045410B10B4E3668DF
:10453000068011B10A480068088012B1094909686B
:10454000118013B1084A12681A8015B1074B1B6815
:104550002B8014B1064B1B68238070BD9015002082
:104560008C1500208815002084150020801500205F
:104570007C15002013B5064B8DF807001C6801223E
:10458000002378200DF10701A04702B010BD00BF45
:10459000AC19002013B5064B8DF807001C680122EA
:1045A000002378200DF10701A04702B010BD00BF25
:1045B000A8190020044B10B41C68CAB2A4460146D6
:1045C0004023782010BC6047AC190020044B10B485
:1045D0001C68CAB2A44601464023782010BC60473C
:1045E000A8190020014B1860704700BFA8190020CF
:1045F000014B1860704700BFAC190020014B1860D8
:10460000704700BFB019002000284FF4806214BF2B
:10461000FF210021014806F09FBC00BFA615002025
:1046200038B5B0240A4D2046FFF7A4FF0020FFF75D
:10463000A1FF01341020FFF79DFFE4B2284680213E
:10464000FFF7B8FFB82C05F18005ECD138BD00BFED
:10465000A615002038B51C4B1C4C1A68237811781D
:1046600019B9012B0AD0002038BD0021013B11707F
:10467000032BF8D8DFE803F0020B1015144B187861
:104680005038C0B2FFF786FF02232370EBE700200B
:10469000FFF780FF0323F8E71020FFF77BFF0423D9
:1046A000F3E70B4D0B4B2878802103EBC010FFF78D
:1046B0008DFF01202B7820700133DBB2072B2B708C
:1046C000D1D900232B70CFE7B01900208100002042
:1046D000A6190020A61500200022054B1A70012201
:1046E000044B1A70044B1B6803B11A70704700BF6B
:1046F000A619002081000020B0190020030630B563
:1047000010D43F290ED80124CB08074D00EBC3106D
:104710002B5C01F0070104FA01F1A2420CBF0B432C
:104720008B432B5430BD00BFA61500202DE9F04F60
:10473000044689B008A800E90E009DF84830A4F1AD
:1047400020050293EBB25E2B47D8079B23B323448B
:1047500013F8206C224AB2F8009009EB0603802B74
:104760003BDC53889DF815B0019303EB0B02402A04
:1047700033DC029B4FF00008B3FA83FA0BFB05F51C
:104780004FEA5A1A6D00C34509D8154B4E441E8096
:10479000204609B0BDE8F08F9DF81460DAE70027E5
:1047A000069A535B0493019B08EB0302D3B2039375
:1047B000BE4203D808F101080235E4E7049B07EB89
:1047C000090003FA07F2130454BF5246029A0399F0
:1047D000C0B2FFF793FF0137EAE70024D8E700BF34
:1047E000A015002070B586B003AC84E80E009DF8DB
:1047F0002860451E15F8010F40B1009694E80E00A0
:10480000FFF794FF034628788342F3D006B070BDCB
:10481000014B188059807047A01500202DE9F74FF3
:104820009046A8EB0009A3EB010AB9F1000F1E4660
:10483000B8BFC9F10009BAF1000FB8BFCAF1000A48
:10484000804594BF4FF0FF33012305460C468E424E
:1048500094BF4FF0FF3B4FF0010B404631469DF8AF
:1048600030200093A9EB0A07FFF748FFCAF10003C5
:10487000454504D1B44202D103B0BDE8F08F2146D2
:1048800028460193FFF73AFF019B7900B3EB470FEE
:10489000BFBF0098A7EB0A072D18EDB28945C2BF2C
:1048A0005C444F44E4B2E3E72DE9F0411446A042F2
:1048B000804628BFA046A042064638BF26469942F9
:1048C0000C4628BF1C46994238BF19460F469DF832
:1048D0001820BC4201D83F2C01D9BDE8F0814546E3
:1048E00007E02B0607D428462146FFF707FF0135CE
:1048F000EDB2B542F5D90134E4B2EAE710B50446A9
:104900008120FFF737FE2046BDE81040FFF732BE9A
:10491000034628B10123AF20024A5371FFF72ABE94
:10492000AE20F9E7A015002008B5642000F042FC95
:104930000020FFF7EDFF2020FFF71CFE0020FFF70F
:1049400019FEB020FFF716FEC820FFF713FE002067
:10495000FFF710FE1020FFF70DFE4020FFF70AFEC4
:10496000FF20FFF7CBFFA120FFF704FEA620FFF7F3
:1049700001FEA820FFF7FEFD3F20FFF7FBFDA4206E
:10498000FFF7F8FDD320FFF7F5FD0020FFF7F2FD5C
:10499000D520FFF7EFFDF020FFF7ECFDD920FFF762
:1049A000E9FD2220FFF7E6FDDA20FFF7E3FD122004
:1049B000FFF7E0FDDB20FFF7DDFD2020FFF7DAFD4C
:1049C0008D20FFF7D7FD1420FFF7D4FD0120FFF75E
:1049D0009FFF0020FFF718FEFFF722FE0022034B87
:1049E0001A805A8001221A7108BD00BFA01500204C
:1049F0000E4B82B09A6942F001029A619A6902F004
:104A000001020092009ADA6942F08052DA61DB69B1
:104A1000074A03F080530193019B536823F0E0633E
:104A200043F08063536002B0704700BF0010024043
:104A30000000014030B5054687B01022002102A8D1
:104A400006F08AFA2A68204B9A423BD103F56C4360
:104A50009A691E4842F400729A619A6902A902F4A6
:104A600000720092009A9A69194C42F004029A610D
:104A70009B69FF2203F004030193019B0323CDE90B
:104A8000022301F04DF880204FF480720023C4E926
:104A900003024FF480620F492046C4E90013C4E9C1
:104AA0000523A360E36100F0A7FE08B1FFF790FCC7
:104AB000002212202C621146656200F039FE12209D
:104AC00000F066FE07B030BD002401400008014040
:104AD000F81400200800024030B5054687B01022C7
:104AE000002102A806F038FA2A682E4B9A4256D1C5
:104AF0002D4C4FF44061A3692C4843F00803A36197
:104B0000A36903F008030093009B1223CDE902136D
:104B1000032302A9059301F003F8E369802243F41B
:104B20008003E361E369224803F480030193019B5E
:104B30000023204CC4E900032046C4E90323C4E950
:104B40000533A360E36100F057FE08B1FFF740FCB6
:104B50001023194AAC636562184CC4E90023002392
:104B600080222046C4E90232C4E90433C4E9063392
:104B700000F042FE08B1FFF72BFC00222120114675
:104B80006C63656200F0D4FD212000F001FE00227C
:104B90002220114600F0CCFD222000F0F9FD07B0E4
:104BA00030BD00BF0058004000100240000C014022
:104BB0005800024060140020440002401C140020F1
:104BC0000268114B10B59A4204461CD10F4A4FF4AB
:104BD0008061D3690E4823F48003D36101F074F837
:104BE0004FF400610A4801F06FF8A06B00F034FE4A
:104BF000606B00F031FE212000F0D8FDBDE81040D0
:104C0000222000F0D3BD10BD00580040001002402B
:104C1000000C01401FB50368374A93422CD1374B33
:104C200018209A6942F400629A6100229B69114639
:104C300003F400630093009B00F07AFD182000F05D
:104C4000A7FD00221920114600F072FD192000F086
:104C50009FFD00221A20114600F06AFD1A2000F084
:104C600097FD00221B20114600F062FD1B2005B0BD
:104C70005DF804EB00F08CBDB3F1804F11D103F56A
:104C80000433DA691C2042F00102DA610022DB6998
:104C9000114603F001030193019B00F049FD1C2024
:104CA000E5E7174A934210D1144B1D20DA6942F010
:104CB0000202DA610022DB69114603F0020302936B
:104CC000029B00F035FD1D20D1E70E4A934210D122
:104CD0000A4B1E20DA6942F00402DA610022DB6925
:104CE000114603F004030393039B00F021FD1E20F3
:104CF000BDE705B000BD00BF002C01400010024020
:104D0000000400400008004010B5044686B01022A0
:104D1000002102A806F020F92268114B9A421CD10A
:104D200003F503339A690F4842F008029A619B69C0
:104D3000332203F008030193019B022302A9CDE96A
:104D40000223059300F0ECFE074A536823F4406306
:104D500043F0E06343F40063536006B010BD00BF4E
:104D600000040040000C01400000014010B5044662
:104D700086B01022002102A806F0EEF822681B4B34
:104D80009A4230D103F558439A69194842F4804257
:104D90009A619A6902A902F480420092009A9A6983
:104DA000002442F004029A619B694FF4007203F000
:104DB00004030193019B0223CDE9022303230593FE
:104DC00000F0AEFE4FF48063094802A9CDE9023439
:104DD000049400F0A5FE25202246214600F0A8FC00
:104DE000252000F0D5FC06B010BD00BF0038014002
:104DF00000080140FEE7FEE7FEE7FEE7FEE770473A
:104E00007047704700F0C4B9014800F0F1BD00BF21
:104E1000F8140020014800F0EBBD00BF1C14002076
:104E2000014800F0E5BD00BF60140020014800F01B
:104E300001BA00BF3C150020014802F037BC00BF9A
:104E4000A8280020FFF7F8BF014803F0B4BD00BF59
:104E5000D4130020FFF7F8BFFFF7F6BFFFF7F4BF4A
:104E6000014803F0A8BD00BF8C130020014803F0E7
:104E7000A2BD00BF44130020014803F09CBD00BF49
:104E8000FC120020014801F083BE00BFA4140020E2
:104E9000014802F0D7BA00BFA4140020014804F072
:104EA000F7B900BFB41200200A4A0346106810B5D3
:104EB00008B9094810600949094C0344091B8B4291
:104EC00006D906F07BF80C2303604FF0FF3010BDCD
:104ED0001360FCE7B4190020C82C0020005000200B
:104EE0000004000070470346002030B5187258795E
:104EF0001C68451C5D715525987125545879DC79DD
:104F000001322040451C5D714E251C68D2B22554EB
:104F10005879DC792040451C5D7145251C68255475
:104F20005879DC792040451C5D7152251C68255458
:104F30005879DC7920401C68451C5D7122545879F1
:104F4000DC794A402040451C5D713A251C68255497
:104F50005879DC7920401C68451C5D7121545879D2
:104F6000DC792040587107205872187A504080F040
:104F70003600187230BD034610B5427A01324272D3
:104F80005A790068541C5C7181545A79D87902406E
:104F90005A711A7A81EA0200187210BD002337B5DF
:104FA0008DF807309DF80730CB5C13B9007A03B059
:104FB00030BD437A9DF8074001334372437902685C
:104FC0005D1C45710C5DD4544379C27913409DF842
:104FD00007204371531CDBB28DF807308B5C027ADB
:104FE00053400372DEE7034610B5C479807901446B
:104FF000214018689971405C11440C409C7110BDAF
:10500000F0B50024052645790379AB4201D1002093
:10501000F0BD827A072A50D8DFE802F0040F1C2284
:10502000282D4F3E0268D25C552A01D1012282729E
:10503000C279013313400371E6E70268D25C4E2A5D
:1050400001D10222F3E7552AF2D000228272013BFD
:10505000DBB2EDE70268D25C452A1BD10322E6E70A
:105060000268D25C522A15D10422E0E70268D25CC1
:1050700086724272DCE70268D25C3A2A0AD10721C2
:10508000C2798172591C0A408271427A82F03602DA
:105090000272CDE78472DAE7427A0768013AD2B247
:1050A000017A42721AB1FA5C51400172C0E7827211
:1050B000FA5C8A42BCD10120AAE78472B8E710B535
:1050C00002604FF07F440022446002818272C1E995
:1050D00000340A818A7210BDFFF704FF0B480C49A7
:1050E0000C4A002302E0D458C4500433C4188C4244
:1050F000F9D3094A094C002301E013600432A242AB
:10510000FBD305F061FFFEF72BFE70470000002087
:105110005802002040D6000858020020C82C002069
:10512000FEE7000038B50E4B05461A784FF47A7347
:10513000B3FBF2F30B4A1068B0FBF3F000F048FB4E
:10514000044658B90F2D09D8024629464FF0FF30C2
:1051500000F0EEFA2046044B1D6038BD0120FCE74C
:1051600088000020840000208C000020074A08B539
:105170001368032043F01003136000F0C7FA0F20F8
:10518000FFF7D0FFFFF734FC002008BD00200240ED
:10519000034A044B11681B780B441360704700BF2F
:1051A000B819002088000020014B1868704700BF24
:1051B000B819002038B50446FFF7F6FF0546631C12
:1051C0001EBF044B1B78E418FFF7EEFF431BA342FE
:1051D000FAD338BD88000020436A10B59A6A12F0ED
:1051E000500F1BD19A6A42F400729A621A68926850
:1051F00002F46022B2F5602F0CD11A7B52B99A6A80
:1052000022F480729A629A6AD2045EBF9A6A42F06D
:1052100001029A621846FCF707F910BD1B6ABDE847
:1052200010401B6B1847704708B5406AFFF7FBFF3B
:1052300008BD7047036870B51D685E680446B00617
:1052400026D5A90724D5A26AD2065EBFA26A42F477
:105250000072A2629A6802F46022B2F5602F10D147
:10526000227B72B95A6822F020025A60A36A23F4A2
:105270008073A362A36AD8045EBFA36A43F00103EC
:10528000A3622046FCF7D0F86FF0120223681A6080
:10529000310630D56A072ED5A36ADB065EBFA36A46
:1052A00043F40053A36223689A6802F4E042B2F523
:1052B000E04F0AD05A68500516D49A6802F460226A
:1052C000B2F5602F10D1227B72B95A6822F08002A9
:1052D0005A60A36A23F48053A362A36AD9055EBF10
:1052E000A36A43F00103A362204600F00DFA6FF0B9
:1052F0000C0223681A6072060CD5EB070AD5A36A64
:10530000204643F48033A362FFF793FF6FF001025E
:1053100023681A6070BD7047406A08B5836A43F01D
:1053200040038362C36A43F00403C362FFF7F3FFE1
:1053300008BD0000002373B5019390F824300446A3
:10534000012B6CD0012380F824304D680268062DB3
:10535000086805EB850322D81F26556B053B9E4048
:1053600025EA060500FA03F32B43536309288B68EB
:1053700000EB40054FF0070129D9D6681E3DA94032
:1053800026EA0101AB400B43D360A0F11003012BCF
:1053900025D90020002384F8243002B070BD0C2DE4
:1053A0004FF01F0509D8166B233B9D4026EA0505E3
:1053B00000FA03F32B431363D8E7D66A413B9D40C1
:1053C00026EA050500FA03F32B43D362CEE7106902
:1053D000A94020EA0101AB400B431361D9E7114B0F
:1053E0009A4216D193681B02D3D49368102843F4D1
:1053F00000039360CDD10C4B0C4A1B68B3FBF2F356
:105400000A2253430193019B002BC2D0019B013B15
:10541000F8E7A36A012043F02003A362BAE7022061
:10542000BBE700BF002401408400002040420F0081
:10543000002337B50193036804469A68D20702D562
:10544000002003B030BD9A6842F001029A60144B0C
:10545000144A1B68B3FBF2F30193019BE3B9FFF716
:10546000A3FE054623689B68DB07E9D4FFF79CFE93
:10547000401B0228F6D923689B6813F00103F1D181
:10548000A26A012042F01002A262E26A84F824308B
:1054900042F00102E262D4E7019B013BDCE700BF7E
:1054A0008400002040420F002DE9F0413F4B904620
:1054B000026804469A420F4602D03D498A4203D10F
:1054C0005B6813F4702F6DD194F82430012B6BD0EE
:1054D0000123204684F82430FFF7AAFF064600285F
:1054E0005DD1A56A2168324B25F4706525F0010570
:1054F00045F480759942A56204D12C4A536813F48F
:10550000702F3ED1A36A23F48013A3624B685A051F
:1055100005D5A36A23F4405343F48053A362A36ADE
:10552000206A13F4805318BFE36A3A4618BF23F089
:105530000603E362002384F824301E4B4C3183625F
:105540001D4BC3621D4B03636FF0020341F84C3CDB
:1055500051F8443C43F4807341F8443C434600F026
:10556000A5F923689A6802F46022B2F5602F9A6860
:105570000CBF42F4A00242F480129A603046BDE8AB
:10558000F081A36A43F48013A36253685B0541BFB3
:10559000A06A20F4405040F48050A062BFE700238E
:1055A00084F824300126E9E70226E7E700240140D9
:1055B00000280140D9510008295200081953000859
:1055C00038B5036804469A68D10701D4002038BD75
:1055D0009A6822F001029A60FFF7E6FD054623680B
:1055E0009B68DB07F2D5FFF7DFFD401B0228F6D9E9
:1055F00023689B68DA07F2D5A36A012043F0100301
:10560000A362E36A43F00103E362E0E7F8B504460E
:1056100000286DD0836A23B9C36280F82430FFF775
:1056200009FA2046FFF7CCFFA36A13F0100361D1FB
:1056300000285FD1A26A616822F4885222F0020237
:1056400042F00202E569A668A262227B2943B6F510
:10565000807F41EA420136D0771E7D427D412D0296
:10566000277D012F06D182BBA269013A45EA423269
:1056700042F400652268B6F5807F576827F46947D1
:1056800045EA0705556097681D4D05EA070545EA97
:105690000105956001D0012E02D12369013B1B0554
:1056A000D56A25F470052B43D3629268154B1340DD
:1056B000994213D10023E362A36A23F0030343F06A
:1056C0000103A362F8BD3546CAE7A26A42F0200290
:1056D000A262E26A42F00102E262CBE7A36A23F02F
:1056E000120343F01003A362E36A43F00103E36291
:1056F0000120E7E7A36A43F01003A362F8E700BFC5
:10570000FDF7E1FFFE0E1FFF70470000074903028F
:10571000CA6803F4E06322F4E0621204120C13433B
:1057200043F0BF6343F40033CB60704700ED00E00B
:10573000154B30B5DC68C4F30224C4F10703251D02
:10574000042B28BF0423062D4FF0FF3594BF0024FF
:10575000033C05FA03F321EA0303A54022EA05020C
:10576000A340002843EA0203ACBF00F16040074AAF
:105770004FEA0313DBB2ABBF00F5614000F00F004E
:1057800080F80033135430BD00ED00E014ED00E06C
:10579000002807DB01234109034A00F01F00834072
:1057A00042F82130704700BF00E100E000280CDB28
:1057B00001220649430900F01F008240203341F8CE
:1057C0002320BFF34F8FBFF36F8F704700E100E0DE
:1057D0000138B0F1807F0BD24FF0E023F021054A71
:1057E000586182F823100020072298611A617047DF
:1057F0000120704700ED00E0034610B530B30168AA
:105800001420134A0A44B2FBF0F292001A64114ABF
:10581000DA63022283F82120D3E901242243DC68E1
:10582000086822431C696FF30D1022435C69224310
:105830009C692243DC69224302430A600020012262
:10584000986383F8200083F8212010BD0120FCE735
:10585000F8FFFDBF0000024010B508B30168114A0F
:105860000B680A4423F001030B6000230B604B60BC
:105870008B60CB601421B2FBF1F201210A4C920043
:10588000026401FA02F2C46362608363C0E90A330E
:10589000C0E90C3380F8213080F82030184610BD64
:1058A0000120FCE7F8FFFDBF00000240F0B590F8D2
:1058B0002040012C34D0012480F8204090F8214071
:1058C000012CE5B24FF0000428D1022680F82160B7
:1058D00084630468266826F001062660D0E90F6715
:1058E000BD40756063604368102BC36A0BBFA26044
:1058F000A160E160E2604BB1236843F00E03002039
:105900002360236843F001032360F0BD236823F084
:1059100004032360236843F00A03F0E780F8204083
:105920000220F2E790F821200346022A06D0042242
:1059300082630120002283F8202070470268C06B38
:10594000116821F00E011160116821F00101116050
:1059500001211A6C01FA02F24260002083F8211042
:10596000E8E7000008B590F82130022B03D00423AB
:105970008363012008BD03681A6822F00E021A60D2
:105980001A6822F001021A60174A93421FD014329B
:1059900093421ED0143293421DD0143293421DD034
:1059A000143293421DD01432934214BF4FF08073CF
:1059B0004FF480130D4A5360012380F821300023F7
:1059C00080F82030436B03B198470020D2E70123D1
:1059D000F0E71023EEE74FF48073EBE74FF48053CA
:1059E000E8E74FF48033E5E708000240000002409A
:1059F00070B40425C66B026C346803689540254278
:105A0000196832D04D0730D51A6896065EBF1A68FD
:105A100022F004021A603E4A934219D01432934293
:105A200018D01432934217D01432934217D0143244
:105A3000934217D01432934214BF4FF080634FF457
:105A40008003344A5360C36A002B5ED070BC184791
:105A50000423F6E74023F4E74FF48063F1E74FF4C3
:105A60008043EEE74FF48023EBE702259540254283
:105A700035D08D0733D51A68940606D41A6822F0FB
:105A80000A021A60012280F82120214A934219D08B
:105A90001432934218D01432934217D014329342E6
:105AA00017D01432934217D01432934214BF4FF0E0
:105AB00000734FF40013174A5360002380F820301E
:105AC000836AC1E70223F6E72023F4E74FF400736B
:105AD000F1E74FF40053EEE74FF40033EBE708250E
