:020000040800F2
:1000000000500020015200081D4F00081F4F00083B
:10001000214F0008234F0008254F00080000000072
:10002000000000000000000000000000274F000852
:10003000294F0008000000002B4F00082D4F00083A
:100040004952000849520008495200084952000824
:100050004952000849520008495200084952000814
:10006000495200084952000849520008314F00081F
:1000700049520008495200083D4F0008494F000806
:100080004952000849520008554F0008614F0008C6
:100090006D4F0008495200084952000849520008B3
:1000A000714F00087D4F0008814F0008854F000800
:1000B000894F0008954F0008A14F000849520008D9
:1000C00049520008AD4F0008B94F000849520008D6
:1000D00049520008C54F000849520008495200081B
:1000E0004952000849520008495200080000000027
:1000F0000000000000000000000000000000000000
:0C01000000000000000000005FF808F1A3
:1001100010B5054C237833B9044B13B10448AFF341
:1001200000800123237010BD680200200000000041
:1001300010BA000808B5034B1BB103490348AFF3DD
:10014000008008BD000000006C02002010BA00080A
:10015000034613F8012B002AFBD1181A0138704707
:100160007BB972B90029BEBF00204FF0004106E004
:1001700008BF00281CBF6FF000414FF0FF3000F0B7
:10018000B9B9ADF1080C6DE904CE002909DB002BEB
:100190001ADB00F035F8DDF804E0DDE9022304B0F5
:1001A0007047404261EB4101002B1BDB00F028F857
:1001B000DDF804E0DDE9022304B0404261EB4101D7
:1001C000524263EB43037047524263EB430300F038
:1001D00017F8DDF804E0DDE9022304B0404261EBEA
:1001E00041017047524263EB430300F009F8DDF828
:1001F00004E0DDE9022304B0524263EB430370479D
:100200002DE9F047089D0F4604468E46002B48D145
:100210008A42164661D9B2FA82F24AB1C2F120038B
:1002200001FA02FE20FA03F3964043EA0E0E9440D0
:100230004FEA164CBEFBFCF1B7B20CFB11EE01FB12
:1002400007F0230C43EA0E43984209D9F31801F151
:10025000FF3E80F0ED80984240F2EA80023933445C
:100260001B1AB3FBFCF00CFB103300FB07F7A4B226
:1002700044EA0344A74209D9341900F1FF3380F05E
:10028000D980A74240F2D6803444023840EA014087
:100290000021E41B1DB10023D440C5E90043BDE8A3
:1002A000F0878B4206D90DB1C5E90001002108464F
:1002B000BDE8F087B3FA83F1002947D1BB4202D3EE
:1002C000824200F20481841A67EB03020120964601
:1002D000002DE4D0C5E9004EE1E7002A00F090804F
:1002E000B2FA82F2002A40F0A780881B0121370C65
:1002F0001FFA86FEB0FBF7FC07FB1C00230C43EA49
:1003000000430EFB0CF0984207D9F3180CF1FF38AC
:1003100002D2984200F2E080C4461B1AB3FBF7F009
:1003200007FB10330EFB00FEA4B244EA0344A645CB
:1003300007D9341900F1FF3302D2A64500F2C98073
:100340001846A4EB0E0440EA0C40A3E7C1F12006D6
:100350008B4022FA06FC4CEA030C27FA06FA4FEA15
:100360001C49BAFBF9F88F4020FA06F309FB18AADA
:100370001FFA8CFE3B4300FA01F708FB0EF01C0C41
:1003800044EA0A44A04202FA01F20BD91CEB04042D
:1003900008F1FF3A80F09980A04240F29680A8F1DF
:1003A00002086444241A98B2B4FBF9F309FB13441D
:1003B00003FB0EFE40EA0444A64508D91CEB0404E6
:1003C00003F1FF307FD2A6457DD9023B644443EA66
:1003D0000840A4EB0E04A0FB028E74454346F14690
:1003E00061D35ED055B1FA1A64EB090404FA06F63B
:1003F00022FA01F31E43CC40C5E9006400214EE718
:1004000043084FEA510C43EAC1710A0C42EA0C421C
:100410008BB2C407B2FBF6F143EA0243BCFBF6FC25
:10042000B646304637461F22181A41EA0C4161E7AA
:10043000714615E7184629E7C2F1200321FA03F0B7
:10044000964024FA03F397403B43370CB0FBF7F890
:1004500007FB18001FFA86FE190C41EA004108FB51
:100460000EF0884204FA02F43AD9711808F1FF3C00
:1004700001D288421ED8091AB1FBF7F808FB0EF02A
:1004800007FB18119BB243EA014383422FD2F318B2
:1004900008F1FF31C8D28342C6D2A8F10201334429
:1004A000C2E747459ED2B8EB02036EEB0C0E013853
:1004B000F14697E7301A0144A8F1020CB1FBF7F8B6
:1004C00008FB0EF0DCE7034681E7D0466AE7084602
:1004D000FEE63444023834E7ACF1020C33441CE746
:1004E000091AC446B1FBF7F808FB0EF0C8E741460D
:1004F0009AE700BF704700BF00220A4930B50B8859
:10050000094D013810F8014F14B902B10B8030BD0C
:100510005A1C92B2B2F5806FEC5414BF13460023FC
:100520000122EFE7960200209E020020074A10B544
:100530001188074C4B1C9BB2B3F5806F138008BF2A
:100540000023605408BF138010BD00BF9602002036
:100550009E02002038B500240D460E4B01461C704B
:100560000D4B3F220D481C700AF092FD0B4B1F22D1
:1005700029460B4883F83F400AF08AFD3222084B97
:10058000DC77084B1A601422074B1A70074B1C705B
:1005900038BD00BF880B0020A20A00202F0B0020CE
:1005A0000F0B0020840B0020890B002094020020F8
:1005B000014B1878704700BFA10A0020194B70B595
:1005C0005B6806460D4614463BB347F23053164966
:1005D0001648002A08BF1C460AF0B0FD0F2231461B
:1005E00013480AF055FD0023114A1249D3732846D7
:1005F0000A220AF0CBFC0A2220460F490AF0C6FC68
:100600000E4B1B7863B10E4B187810F0020003D02C
:10061000102206200B4B1A7070BD4FF0FF30FBE725
:100620000120F9E78802002028BA00080500002010
:10063000FF0A0020F90A0020E30A00202F0B002007
:10064000880B0020890B0020064B5B683BB1064BF2
:100650001B7813F0400F0CBF0520072070474FF0A8
:10066000FF30704788020020880B0020074A10B531
:100670001188074C4B1C9BB2B3F5806F138008BFE9
:100680000023605408BF138010BD00BF9C020020EF
:100690009E0600202DE9FF471F463D4B04465B6840
:1006A00088461546BDF83090002B6CD0394EDFF8E7
:1006B000E8A033789AF8001003F040020A4365D0AE
:1006C0001B0758D40A2201A938460AF05FFC01A88A
:1006D000FFF73EFD421ED2B2032A4AD82F48FFF749
:1006E0000BFF9AF8003053B10A22694620460AF0FF
:1006F0004DFC6846FFF700FF2C20FFF717FF01A80D
:10070000FFF7FAFE2648FFF7F7FE002211462548BC
:10071000DFF894C0038894B2A74216D801B10380D1
:100720003378224C23F00C0343F00C03337023681E
:100730003BB11F489847236801A8984723681D4884
:100740009847092004B0BDE8F0875C1CA4B2B4F55A
:10075000806F08BF0024691C18F8055089B20CF896
:1007600003500132494514BF0D460025234601219F
:10077000D1E70B20E6E70D4B1B680BB90820E1E73A
:100780000D489847FAE74FF0FF30DBE70520D9E73F
:1007900088020020880B0020A20A002017C1000850
:1007A0002CBA0008960200209E020020700B002048
:1007B0002FBA00083EBC000842BA000802460F4BA0
:1007C0000068516803C390680D4A186000231370D5
:1007D0000C4A13700C4A13800C4A13800C4A138085
:1007E0000C4A13800C4A13700C4A13700C4A137095
:1007F0000C4A13600C4A1360704700BF8802002047
:10080000890B0020A00A00209802002096020020F8
:100810009A0200209C020020880B0020A20A0020DF
:10082000A10A0020740B0020700B0020114A1368ED
:100830000BB1013B1360104A136823B1013B1360F5
:100840000BB90E4A13700E4A13680BB1013B1360CB
:100850000C4A13686BB1013B136053B90A490A781B
:10086000100706D563F3C302084B0A701A88084BB9
:100870001A807047840B0020800B0020A00A002003
:100880007C0B0020780B0020880B002096020020B3
:10089000980200202DE9F84FA54AA64EB2F800B004
:1008A000338800255B4506D0A34F3A78143A022AD4
:1008B00027D8A6F800B0A14EA14C3368002B40F019
:1008C0006D8264239C4D33602B78162B00F2668278
:1008D000DFE813F04404AD02C602CC02DA02E00203
:1008E000E902EF0202030D033E03480352038303B0
:1008F0008C039D03AC03FE033B04410459029802A0
:10090000A70202228F49904C0A609B45D3D08F4AA0
:10091000D05C22780D2A00F23182DFE812F00E005E
:100920005500CC002F022F02A501BA01C301D0014E
:100930002F02EB0108021A02F90100230421984654
:10094000DFF80CC2834ADFF810928CF80030117087
:100950005FFA83FE59F82E10D1B9B8F1000F01D01B
:100960008CF800E00022774B75491A600B7813F081
:10097000010F00F092803E2840F08F8062F3000368
:100980000B70764B1A604FF49672754B1A6084E0C8
:1009900091F804A00133824513D1B8F1000F01D0C2
:1009A0008CF800E00B784978303B313903EB830356
:1009B00001EB43036B490B80012323700523137064
:1009C0006BE04FF00108C3E7DFF884C162499CF88F
:1009D000002051F822205F49097812F801E086458D
:1009E00014D1DFF880C1BCF80030013B9BB2ACF8F9
:1009F00000300BB10D284DD19378D278303B03EB0A
:100A00008303303A02EB4303237046E00022914611
:100A1000C1F57F4A8CF800200AF1D30ADFF838C10B
:100A20005FFA82F85CF828C0BCF1000F0CD1B9F174
:100A3000000F04D04B4A1580454A82F800800022FE
:100A4000013B2270338028E09CF800E09CF80150C4
:100A5000AEF1300E0EEB8E0E554405EB4E05ADB2E9
:100A60007F2D24D81CF801E0864520D13D4B1D8008
:100A7000B9F1000F02D0364B83F8008055B99CF8CD
:100A800002309CF80320303B03EB8303303A02EB47
:100A9000430323702F4B01311970338801339BB20C
:100AA000B3F5806F338004BF002333802DE74FF010
:100AB00001090132B2E70A28EFD100232370244B49
:100AC0001B78023B0F2BE8D801A252F823F000BF9D
:100AD000110B0008690B0008850B00089B0A000831
:100AE000AF0B0008AF0B0008DD0B0008E70B000898
:100AF000050C0008DD0B00089B0A00082F0C0008FD
:100B00009B0A0008390C0008450C0008450C000839
:100B10003A78082AC1D84FF4AA73D340DB07BCD572
:100B20000022064B1A60064A137843F0200346E77A
:100B30009C0200209A020020890B0020840B0020D8
:100B4000880B0020800B0020A00A00209E060020B9
:100B5000850200208402002098BF00087C0B002042
:100B6000780B00209E0A0020944A1378180794D529
:100B700023F009031370924B1A88924B1A80924B00
:100B8000002203E73B780D2B87D100228F4B1A60A0
:100B90008A4A137823F0220343F0220313708C4B0C
:100BA0001B68002B3FF479AF0320984775E7834A11
:100BB000137823F0420313703B780E3B052B3FF66E
:100BC0006CAF834B1B680BB100209847814B1B789F
:100BD000002B7FF462AF16233B705EE7774A1378F1
:100BE00023F04003EBE6754A137823F008031370F3
:100BF0000022754B1A60764B1B68002B3FF44DAFFB
:100C00000A20D2E7734B1B78002B7FF446AF6F4A64
:100C100013606A4A137823F0600343F06003137093
:100C20006B4B1B68002B3FF438AF0720BDE7634ACE
:100C3000137823F04203C2E6604A137823F042039C
:100C40001370C8E75D4A1378190706D523F0090326
:100C500013705B4B1A885B4B1A803B78013B0D2B62
:100C60003FF61BAF594B8BE75B4A2C28126807D124
:100C700006232370002A3FF410AF584890470CE732
:100C80000021013B21703380002A3FF406AF544815
:100C9000F4E722287FF401AF072300222370514B91
:100CA0001A80FAE6222803D04E4A1388102B01D16D
:100CB0000823A9E6591C11804B4AD054EDE60A28B6
:100CC0007FF4EBAE0023474A23701188464A0F2970
:100CD0009BBF5354394913700A789FBF42F02002DA
:100CE0000A703A4A13603A4B1B68002B3FF4D5AEAA
:100CF00004205AE72C287FF4A2AE364B1B782BB188
:100D00000D2300222370394B1A70C6E60B23C4E76B
:100D10002C28FBD0A0F13002092A3FF690AE334ACE
:100D2000137803EB830300EB4303303B47E63A2899
:100D300001D10C2368E6A0F13002092A3FF67FAE0C
:100D4000284A138803EB830300EB4303303B1380F3
:100D5000A3E6274B9B6803B19847224A1388013BBF
:100D60009BB21380002B7FF498AE23701A4B1B6844
:100D7000002B3FF492AE1F4898478EE600231E4A90
:100D80002370136089E61A4B00201B689847124BAA
:100D90001B680BB11948984715232B702378DA0785
:100DA00040F1E581164A126832B9054A23F0090379
:100DB0001188044A23701180BDE8F88F880B002049
:100DC0009602002098020020780B0020840B00205F
:100DD000740B0020A20A0020700B00205ABA0008F1
:100DE0006FBA00089E0A0020E90A0020A10A00202C
:100DF0008802002083BA0008800B002096BA000801
:100E00007C0B0020914B01201B689847904B1B687E
:100E10000BB19048984716232B704FF4FA73336048
:100E2000BCE7012300222B708B4B1A70B6E78A4A6D
:100E300013782BB1013BDBB213701BB91423ACE761
:100E4000042313702378854823F020032370FFF7D1
:100E500053FB7F4B1B680BB18148984702239CE7EB
:100E600023789E0640F17581032396E77D48FFF7BE
:100E700043FB774B1B680BB17B489847237823F0E3
:100E800020032370042388E72378980640F16181CA
:100E9000052382E77548FFF72FFB237823F0200313
:100EA0002370062379E72378990640F152810723BE
:100EB00073E76F4B1B786BB16E48FFF71DFB644BFC
:100EC0001B680BB16C489847237823F020032370EC
:100ED000082362E76948F0E723789A0640F13981F0
:100EE000634B1B78002B0CBF0C23092355E7644888
:100EF000FFF702FB2220FFF719FB6248FFF7FCFA1D
:100F00002220FFF713FB2C20FFF710FB2220FFF716
:100F10000DFB5D48FFF7F0FA2220FFF707FB2C20BE
:100F2000FFF704FB5948FFF7E7FA2C20FFF7FEFA1A
:100F30005748FFF7E1FA0D20FFF7F8FA0A20FFF70C
:100F4000F5FA434B1B680BB1524898470A2324E734
:100F50005148FFF7D1FA3E4B1B680BB14F489847F9
:100F60000B231AE74E48FFF7C7FA394B1B680BB142
:100F70004C489847132310E74B4F3B78002B3FF426
:100F80000DAF4A48FFF7B8FA2220FFF7CFFA3846EC
:100F9000FFF7B2FA2220FFF7C9FA2C20FFF7C6FAB2
:100FA0002220FFF7C3FA4248FFF7A6FA2220FFF7F4
:100FB000BDFA0D20FFF7BAFA0A20FFF7B7FA244B63
:100FC0001B680BB13B489847237823F0200323701C
:100FD0000D232B7040F2DC5321E723789B0640F170
:100FE000B8800E2304222B701B4B1EE70022324BCD
:100FF00032481A70FFF780FA154B1B680BB1304866
:101000009847237823F0200323700F23C5E6237825
:101010009F0601D51023C0E60F4A1378013BDBB2CF
:101020001370002B00F095800E23B6E6254B1B783D
:10103000002B3FF4B3AE2448FFF75EFA044B1B6865
:101040000BB1224898471123A7E600BF8802002071
:10105000700B0020ACBA00089402002061C10008A7
:10106000C2BA000853C10008D0BA0008E4BA0008A8
:10107000A20A0020F6BA000812BB000804BB000850
:1010800009C10008C30A0020A30A002002000020B2
:101090000000002026BB0008F5C0000839BB00088E
:1010A000E1C000084DBB00082F0B002049C100081B
:1010B0000F0B002064BB0008E90A00203EC10008B5
:1010C00077BB0008FF0A002023C1000888BB000886
:1010D0003C48FFF711FA2220FFF728FA3A48FFF7B9
:1010E0000BFA2220FFF722FA2C20FFF71FFA22200A
:1010F000FFF71CFA3548FFF7FFF92220FFF716FA31
:101100002C20FFF713FA3248FFF7F6F92C20FFF7EF
:101110000DFA3048FFF7F0F92C20FFF707FA3020DE
:10112000FFF704FA0D20FFF701FA0A20FFF7FEF996
:10113000294B1B680BB129489847237823F060039B
:10114000237012232B70C82369E623789E063FF58F
:1011500011AF012321E6224B1B780BB100235EE681
:1011600023789807F5D559067FF554AFF6E71D4D5E
:101170001D492A88098891423FF41EAE1B4E5F0725
:10118000B05C02D53E2808BF0A20194B5B6898471F
:1011900000283FF411AE22782B8851070AD5F15C64
:1011A0003E2907D1322122F0050242F001022270CD
:1011B000104A116001339BB2B3F5806F08BF002362
:1011C0002B80F9E531C1000805000020FF0A00204E
:1011D000F90A0020E30A0020700B00209EBB0008E3
:1011E000A20A002098020020960200209E02002001
:1011F000880200207C0B0020014B1860704700BF64
:10120000740B0020014B1860704700BF700B00206A
:101210000022F0B5084BD4B2A14202F1010200D87D
:10122000F0BD5D791E686F1C5F71045D74555C795B
:10123000DD792C405C71EEE75C120020021E18BFC5
:1012400001224FF40071014804F046BE000C014039
:101250001FB514461A464FF0FF330091CDE9014304
:1012600001460123024805F0D7F804B010BD00BFC5
:10127000B4140020FFF7ECBF13B514461A46CDE9AD
:10128000001401230146024805F056F902B010BDD2
:10129000B414002013B514461A46CDE900140123F6
:1012A0000146024805F00EFA02B010BDB414002049
:1012B00007B501228DF807000DF10701034807F07B
:1012C000FEFFB0FA80F0400903B000BDC412002058
:1012D00010B50446FEF73CFF81B22046BDE8104041
:1012E00009F09ABC10B5164B1B78F3B115490C7870
:1012F000FF2C15D07E2C144B13D818550020621CDF
:10130000D2B2012A0A7098540AD0134413F8022C5E
:101310000D2A05D113F8013C0A2B01D1FF230B70D4
:1013200010BD00220A701A70FAE7084B5A79196842
:10133000541C5C7188545A79D9790A405A71EFE784
:101340009B0D00209C0D00209D0D002044120020CC
:10135000032810B5184C15D10C21184B18481A78D1
:10136000184B01FB02330F22996809F091FE00230C
:10137000134A2370D3730122134B1A700522134BA7
:101380001A7010BD124B22781B7813431843C0B259
:101390000028F6D1012340F6B8320C2123700D4B02
:1013A000BDE810401A80054B064A1B784B43D11804
:1013B0004968D058FFF7CEB8440C0020450C0020F7
:1013C00060000020E8D60008460C002070000020D5
:1013D0009B0D00205C000020038830B58B421FD29B
:1013E000C38B8B4219D9002330F8024BA14211D391
:1013F000028891420ED80B48121BC55A0230C35ABC
:10140000091B5B1B500801FB0300B0FBF2F02844F2
:1014100080B230BD02331E2BE6D14FF47A70F8E76C
:101420000020F6E748D60008054B064A03F11001F4
:1014300053F8040B8B4242F8040BF9D1704700BFFC
:1014400084120020741200200122014B1A70704790
:10145000BD1200200122014B1A707047BC120020FF
:101460000268264B10B59A42044612D1244A2549F7
:10147000137825480133DBB2282B01BF00231370FA
:10148000224A137808BF43F080031370082204F047
:101490009FF82368B3F1804F18D11D4A13782BB100
:1014A0001378012B02D01378022B08D1012419499B
:1014B00019480B78C454234403F00F030B701749E9
:1014C0000B78013B13F0FF0301D00B7010BD142308
:1014D0000B701378032B02D01378042BF6D1012064
:1014E0000C4A0D491378C8540344002003F00F033D
:1014F000C854013303F00F031370E7E7002C0140D9
:10150000BE120020841200204C1500203E0E002048
:10151000C0120020941200209512002076000020B6
:10152000F0B5026883790C46D15C0546A1F1A003B1
:1015300091B0512B00F21987DFE813F052005C00E4
:101540006C00B80007013201AB01C8015301710101
:101550008E010A0250046D048A04A704C404E10445
:101560002902FE041B053805550573059105AF05D5
:10157000170717071707170717071707CD0544029F
:101580006102EB0568066C068A06A806C606E40634
:1015900002072A064906170717071707170717072D
:1015A000170717071707170717071707170717074B
:1015B000170717071707170717071707170717073B
:1015C000170717071707170717071707170717072B
:1015D0001707170717071707170717078602CC0300
:1015E000A0210222204603F012FD0D21204603F027
:1015F00056FD08E0A1210D22204603F008FD2046FB
:10160000C14903F05FFD2046217A11B0BDE8F040EA
:1016100003F045BD0D22A221204603F0F8FCBB4B90
:10162000BB4DB3F9001020462980C9B203F037FD45
:101630006978204603F033FDB64B2046B3F900101D
:101640002980C9B203F02BFD6978204603F027FDFD
:10165000B14B2046B3F900102980C9B203F01FFD39
:101660006978204603F01BFDAC4B2046B3F900100F
:101670002980C9B203F013FD6978204603F00FFDFD
:10168000A74B2046B3F900102980C9B203F007FD2B
:101690006978204603F003FDA24BB3F900102980BE
:1016A0002046C9B203F0FBFC69789FE79E4E1122E9
:1016B000A321204603F0ABFC954D318820462980BC
:1016C000C9B203F0ECFC6978204603F0E8FC7188AD
:1016D00020462980C9B203F0E2FC6978204603F075
:1016E000DEFCB18820462980C9B203F0D8FC6978B5
:1016F000204603F0D4FCF18820462980C9B203F0CB
:10170000CEFC6978204603F0CAFC31892046298046
:10171000C9B203F0C4FC6978204603F0C0FC7189AB
:1017200020462980C9B203F0BAFC6978204603F04C
:10173000B6FCB18920462980C9B203F0B0FC6978B3
:10174000204603F0ACFCF189A9E70222A42120463F
:1017500003F05DFC0D21204603F0A1FC217A204618
:1017600003F09DFC00220121284603F0D0FC684CC8
:10177000002201212070284603F0C9FC6070B4F9F2
:1017800000202388002A6949694AB5BF5B4213805B
:101790000B800023B6BF00230B80138011B0F0BD77
:1017A0000222A521204603F032FC0D21204603F041
:1017B00076FC217A204603F072FC002201212846A3
:1017C00003F0A5FC524C002201212070284603F0B2
:1017D0009EFC6070B4F900202388002A5549564ABF
:1017E000D3E70222A821204603F011FC0D21204658
:1017F00003F055FC217A204603F051FC0022012120
:10180000284603F084FC424C002220700121284627
:1018100003F07DFC60702288484B1A80BEE70222EC
:10182000A921204603F0F3FB0D21204603F037FCED
:10183000217A204603F033FC00220121284603F0E0
:1018400066FC334C002220700121284603F05FFC27
:10185000607022883A4BE0E70222AA21204603F07A
:10186000D6FB0D21204603F01AFC217A204603F016
:1018700016FC00220121284603F049FC244C0022DA
:1018800020700121284603F042FC607022882D4B15
:10189000C3E70222A621204603F0B9FB0D21204612
:1018A00003F0FDFB217A204603F0F9FB0022012121
:1018B000284603F02CFC164C0022207001212846FB
:1018C00003F025FC607022881F4BA6E70222A721A7
:1018D000204603F09CFB0D21204603F0E0FB217A1B
:1018E000204603F0DCFB00220121284603F00FFC18
:1018F000074C002220700121284603F008FC60708C
:101900002288124B89E700BF24D70008BA120020B2
:10191000400E0020B8120020B6120020B4120020A1
:10192000B2120020B012002074120020380E0020E5
:10193000360E00203C0E00203A0E002054000020FD
:1019400052000020040C00204C0000204E0000201B
:101950000222AB21204603F05AFB0D21204603F062
:101960009EFB217A204603F09AFB002201212846A3
:1019700003F0CDFB304C002220700121284603F0FB
:10198000C6FB6070B4F900202C4B1A6006E70222F7
:10199000B221204603F03BFB0D21204603F07FFBE4
:1019A000217A204603F07BFB00220121284603F028
:1019B000AEFB214C002220700121284603F0A7FB3A
:1019C0006070EBE60222C121204603F020FB0D21CE
:1019D000204603F064FB217A204603F060FB0022DE
:1019E0000121284603F093FB134C002220700121B3
:1019F000284603F08CFB60702288114B0DE7022211
:101A0000C221204603F003FB0D21204603F047FBD3
:101A1000217A204603F043FB00220121284603F0EF
:101A200076FB054C002220700121284603F06FFB55
:101A300060702288034BF0E6400E00204400002036
:101A4000740000207200002000254F22F021204663
:101A500003F0DDFAB94B03AF1B88ADF80C30B84B7F
:101A60001B88ADF80E30B74B1B88ADF81030B64B65
:101A70001B88ADF81230B54B1B88ADF8143037F920
:101A8000026B2046F1B203F00AFB01352046C6F393
:101A9000072103F004FB052DF1D1AD4D2046297837
:101AA00003F0FDFA6978204603F0F9FAA978204698
:101AB00003F0F5FAE9780025204603F0F0FAA54B8B
:101AC000ADF830501B8809AFADF82430A24B1B880D
:101AD000ADF82630A14B1B88ADF82830A04B1B88F1
:101AE000ADF82A309F4B1B88ADF82C309E4B1B88DD
:101AF000ADF82E3037F9026B2046F1B203F0CFFA81
:101B000001352046C6F3072103F0C9FA072DF1D1AC
:101B10000025964B06AF1B88ADF81830944B1B88F8
:101B2000ADF81A30934B1B88ADF81C30924B1B88D4
:101B3000ADF81E30914B1B88ADF82030904B1B88C0
:101B4000ADF8223037F8026B2046F1B203F0A7FA65
:101B500001352046310A03F0A2FA062DF2D1002504
:101B6000884B01AF1B88ADF80430874B1B88ADF85C
:101B70000630864B1B88ADF80830854B1B88ADF8C6
:101B80000A3037F8026B2046F1B203F088FA0135CB
:101B90002046310A03F083FA042DF2D17D4B002157
:101BA000B3F90050204603F07AFA0021204603F0F2
:101BB00076FAE9B2204603F072FAC5F3072120460F
:101BC00003F06DFA744B754AB3F90060B2F9005036
:101BD0001978204603F063FAC6F30721204603F084
:101BE0005EFAE9B2204603F05AFAC5F307216C4DBC
:101BF000204603F054FA2978204603F050FA697819
:101C0000204603F04CFAA978204603F048FAE97818
:101C1000204603F044FA634B634AB3F90060B2F91B
:101C200000501978204603F03AFAC6F307212046FF
:101C300003F035FAE9B2204603F031FAC5F3072183
:101C40005A4D204603F02BFA2978204603F027FA54
:101C50006978574D204603F022FAA978204603F010
:101C60001EFA69882046090A03F019FAA979204664
:101C700003F015FAE9882046090A03F010FAA97A58
:101C8000204603F00CFA69894A4D090A204603F000
:101C900006FA29882046C9B203F001FA2988464D80
:101CA000C1F30721204603F0FAF929882046C9B27A
:101CB00003F0F5F92988414DC1F30721204603F0CF
:101CC000EEF929882046C9B203F0E9F92988C1F361
:101CD00007218BE400261D22F121204603F097F90D
:101CE000374B09AF1B680993364B1B680A93364B79
:101CF0001B680B93354B1B680C93354B1B680D937E
:101D0000344B1B680E93344B1B680F9357F8045BDE
:101D10002046E9B203F0C3F9C5F30721204603F0DA
:101D2000BEF9C5F30741204603F0B9F90136204654
:101D3000290E03F0B4F9072EE8D164E45400002022
:101D4000040C0020520000204C0000204E00002017
:101D5000440000203800002036000020020C002043
:101D6000000C00203000002040000020280000204F
:101D7000180000202400002016000020260000206B
:101D8000140000204A0000204800002074000020B9
:101D9000720000203E0000203C0000203A0000209D
:101DA000280C00202E0000202C0000202A000020FB
:101DB00074120020420C0020400C00203E0C002039
:101DC000180C00200C0C0020100C0020080C002027
:101DD000240C0020E40B0020580000200222AC213B
:101DE000204603F014F90D21204603F058F9217A1A
:101DF000204603F054F900220121284603F087F918
:101E0000D34C002220700121284603F080F9607035
:101E10002288D04B01E50222AD21204603F0F7F8DD
:101E20000D21204603F03BF9217A204603F037F9D3
:101E300000220121284603F06AF9C54C00222070D7
:101E40000121284603F063F960702288C24BE4E464
:101E50000222AE21204603F0DAF80D21204603F0DD
:101E60001EF9217A204603F01AF9002201212846A2
:101E700003F04DF9B64C002220700121284603F0F2
:101E800046F960702288B54BC7E40222AF21204694
:101E900003F0BDF80D21204603F001F9217A204618
:101EA00003F0FDF800220121284603F030F9A84C88
:101EB000002220700121284603F029F96070228851
:101EC000A74BAAE40222B021204603F0A0F80D217E
:101ED000204603F0E4F8217A204603F0E0F80022DF
:101EE0000121284603F013F9994C002220700121AA
:101EF000284603F00CF9607022889A4B8DE4022288
:101F0000B121204603F083F80D21204603F0C7F8E5
:101F1000217A204603F0C3F800220121284603F06D
:101F2000F6F88B4C002220700121284603F0EFF8D0
:101F3000607022888C4B70E40222B321204603F0AB
:101F400066F80D21204603F0AAF8217A204603F016
:101F5000A6F800220121284603F0D9F87C4C002283
:101F600020700121284603F0D2F8607022887F4B50
:101F700053E40222B421204603F049F80D21204603
:101F800003F08DF8217A204603F089F80022012120
:101F9000284603F0BCF86E4C002220700121284630
:101FA00003F0B5F860702288714B36E40222B52147
:101FB000204603F02CF80D21204603F070F8217A1A
:101FC000204603F06CF800220121284603F09FF818
:101FD0005F4C002220700121284603F098F86070C1
:101FE0002288644B19E40222B621204603F00FF840
:101FF0000D21204603F053F8217A204603F04FF8D4
:1020000000220121284603F082F8514C0022207062
:102010000121284603F07BF860702288564BFFF7B9
:10202000FCBB0222B721204602F0F1FF0D21204621
:1020300003F035F8217A204603F031F8002201211F
:10204000284603F064F8424C002220700121284603
:1020500003F05DF860702288484BFFF7DEBB022278
:10206000B821204602F0D3FF0D21204603F017F8D7
:10207000217A204603F013F800220121284603F0BC
:1020800046F8334C002220700121284603F03FF827
:10209000607022883A4BFFF7C0BB0222B92120466C
:1020A00002F0B5FF0D21204602F0F9FF217A20460B
:1020B00002F0F5FF00220121284603F028F8244C05
:1020C000002220700121284603F021F86070228848
:1020D0002C4BFFF7A2BB0222C021204602F097FF43
:1020E0000D21204602F0DBFF217A204602F0D7FFC7
:1020F00000220121284603F00AF8154C0022207026
:102100000121284603F003F8607022881E4BFFF778
:1021100084BB0222C321204602F079FF0D21204614
:1021200002F0BDFF217A204602F0B9FF0022012112
:10213000284602F0ECFF064C0022207001212846C0
:1021400002F0E5FF60702288104BFFF766BB00BF0E
:10215000400E00203800002036000020020C002035
:10216000000C00203000002040000020280000204B
:102170001800002024000020160000202600002067
:10218000140000204A000020480000203E000020EB
:102190000222CB21204602F03AFF0D21204602F018
:1021A0007EFF217A204602F07AFF00220121284694
:1021B00002F0ADFF704C002220700121284602F091
:1021C000A6FF6070B4F900206C4BFFF7DEBB022263
:1021D000CC21204602F01BFF0D21204602F05FFFBC
:1021E000217A204602F05BFF00220121284602F0FE
:1021F0008EFF614C002220700121284602F087FFEB
:102200006070B4F900205E4BFFF7BFBB0222C4210F
:10221000FFF7BFBB0222C521204602F0F8FE0D21C8
:10222000204602F03CFF217A204602F038FF0022CF
:102230000121284602F06BFF4F4C00222070012143
:10224000284602F064FF607022884E4BFFF7E5BA23
:102250000222C621204602F0DAFE0D21204602F0BD
:102260001EFF217A204602F01AFF00220121284693
:1022700002F04DFF404C002220700121284602F060
:1022800046FF60702288404BFFF7C7BA0222C72181
:10229000204602F0BCFE0D21204602F000FF217A0C
:1022A000204602F0FCFE00220121284602F02FFF0A
:1022B000314C002220700121284602F028FF607076
:1022C0002288324BFFF7A9BA0222C821204602F029
:1022D0009EFE0D21204602F0E2FE217A204602F009
:1022E000DEFE00220121284602F011FF224C0022CE
:1022F00020700121284602F00AFF60702288244BDA
:10230000FFF78BBA0222C921204602F080FE0D2180
:10231000204602F0C4FE217A204602F0C0FE0022D0
:102320000121284602F0F3FE134C00222070012107
:10233000284602F0ECFE60702288164BFFF76DBA5B
:10234000154D04222B88CA21013320462B8002F030
:102350005EFE0D21204602F0A2FE29882046090AD1
:1023600002F09DFE2978FFF741B90222204602F0D3
:102370004EFEFF21FFF73AB9400E0020200000205A
:102380001C0000203C0000203A0000202E0000200D
:102390002C0000202A000020CC0B0020F0B51646AF
:1023A0004379027905469A420C46C3B01DD002F02B
:1023B000BBFED0B1012E04BF0022154B214628469A
:1023C00008BF1A70FFF7ACF80022617A02A8D3B2F6
:1023D00099420CD8C6B1FEF7EBF84FF48073009326
:1023E0000022637A02A9FEF755F943B0F0BDA77940
:1023F00025687B1CDBB2A371ED5D013200F8015B47
:10240000E5792B40A371E2E702A808F005FCECE7B0
:102410007000002010B50D4B0D4C1A780D4B0E4876
:1024200053F822100122237802FA03F38B4308BFEA
:102430001A464FF4005103F04FFD23780133DBB20D
:10244000142B28BF0023237010BD00BFBF12002033
:10245000CA0B00207C000020001001402DE9F04153
:102460008C4B8D4C1B788AB0032B5FFA83F840F0BD
:102470002B810025012002F05BF940232022294610
:102480001E20009502F0A4FA16238022142128466B
:10249000009502F09DFA40235222294650200095D3
:1024A00002F096FA7D4E2946282002F045FA7C4932
:1024B00002A808F043FE96E80E00009502A802F07C
:1024C00025FA2946552002F037FA764902A808F085
:1024D00035FE96E80E00009502A802F017FA1921C1
:1024E000282002F029FA704B2021B3F900306F4AFE
:1024F00002A808F08FFD94E80E00009502A802F0F3
:1025000005FA1921552002F017FA694B2021B3F979
:102510000030664A02A808F07DFD94E80E000095A0
:1025200002A802F0F3F92521282002F005FA614BF8
:102530002021B3F900305D4A02A808F06BFD94E851
:102540000E00009502A802F0E1F92521552002F0C5
:10255000F3F9594B2021B3F90030544A02A808F08E
:1025600059FD94E80E00009502A802F0CFF9312140
:10257000282002F0E1F9514B2021B3F900304B4AF9
:1025800002A808F047FD94E80E00009502A81E2658
:1025900002F0BCF93121552002F0CEF9484B202140
:1025A000B3F90030414A02A808F034FD94E80E0067
:1025B00040F6FA74434F009502A802F0A7F93B8851
:1025C00042467343B3FBF4F3C3F13C033C21404662
:1025D000DBB2009502F0B6F97B8806227343B3FBA9
:1025E000F4F3C3F13C0310463C21DBB2009502F04A
:1025F000A9F9BB8809227343B3FBF4F3C3F13C038D
:1026000010463C21DBB2009502F09CF9FB880C22BD
:102610007343B3FBF4F3C3F13C0310463C21DBB23C
:10262000009502F08FF93B890F227343B3FBF4F35B
:10263000C3F13C0310463C21DBB2009502F082F965
:102640007B8912227343B3FBF4F3C3F13C031046BE
:102650003C21DBB2009502F075F9BB89152273436A
:10266000B3FBF4F3C3F13C0310463C21DBB200950D
:1026700002F068F91822FB893C217343B3FBF4F3A1
:102680001046C3F13C030095DBB202F05BF90AB0DF
:10269000BDE8F081C012002074C1000868C10008C4
:1026A000B4BB0008B8BB0008BA120020BCBB0008CD
:1026B000B4120020B8120020B2120020B61200207E
:1026C000B012002074120020002002F031F8022124
:1026D0000125084602F030F994E80E0045480095BF
:1026E00002F014F90221242002F026F9424B2021A5
:1026F0001B68424A02A808F08DFC94E80E00009581
:1027000002A802F003F91121022002F015F994E861
:102710000E003B48009502F0F9F81121242002F048
:102720000BF90522374B20211B6802A803EB43035A
:1027300093FBF2F3344A08F06DFC94E80E00009528
:1027400002A802F0E3F82021022002F0F5F894E854
:102750000E002E48009502F0D9F82021242002F026
:10276000EBF864212A4E02A8326892FBF1F301FBD8
:102770001322002AB8BF524220210092254A08F0B5
:1027800049FC94E80E00009502A802F0BFF82F2142
:10279000022002F0D1F894E80E001F48009502F0E4
:1027A000B5F824202F2102F0C7F842F22632336810
:1027B000009503F58C531333934298BF174894E860
:1027C0000E0088BF164802F0A1F801240E237F22D4
:1027D00019460020009402F0B5F81D237F22194607
:1027E0000020009402F0AEF82C237F22194600202E
:1027F00000944AE7BFBB0008AC120020C4BB00082D
:10280000CDBB0008A8120020D2BB0008DCBB00082A
:10281000240C0020E1BB0008EBBB0008F0BB000863
:10282000FABB000837B53F4B3F4C1A782AB11A78EB
:10283000012A02D01B78022B16D12378013B012BF1
:1028400012D800232370394A394B11781B788B42F8
:1028500008D038484B1C415C03F00F0391B10321B1
:102860002170137003B030BD2378032B57D801A219
:1028700052F823F047280008892800089328000808
:10288000AD2800080121EBE7FFF7E8FD02232370E4
:10289000E8E7294804F00AFF2028E3D101F06EFFA1
:1028A0000028DFD00023254A1370F0E7224804F007
:1028B00000FF234D10B14FF47A732B601E4804F0D3
:1028C000F5FE202816D101F079FE98B11D4B1E4A65
:1028D00001931E4B1E4900931E481F4B01F0B6FE8C
:1028E00000231E4A1E4913700A7842F008020A703B
:1028F0002B60CCE72B680133B3F5FA7F2B60B1D99D
:102900000D4803F06FFD012002F0E8FC0A4803F0D7
:10291000C1FC01F01DFE01F043FE0023E8E70023A7
:10292000B5E700BFC0120020C90B0020C80B002073
:102930009412002095120020B4140020BD12002033
:10294000C40B0020B0120020B6120020B2120020EA
:10295000B8120020BA120020B4120020BC120020CD
:102960003E0E0020074B084A1B6812885A63074A2C
:102970001288DA63064A12889A63064A12881A6431
:10298000704700BF541300203C0E0020380E00207A
:102990003A0E0020360E002013B50B4B0446009370
:1029A0004FF4AA71094B0A4A0A4808F033FB4FF466
:1029B000AA7300220093204640F243130549FDF715
:1029C00069FE02B010BD00BF45BC000800BC000895
:1029D00040BC0008470C002013B50A4B0446009386
:1029E0004FF4AA71084B094A094808F013FB4FF449
:1029F000AA73002200932046B3230549FDF74AFE3F
:102A000002B010BD4ABD000800BC000840BC000870
:102A1000470C00202DE9F84300241F460C70147069
:102A20001C7047F23A53089D89462B80324906466E
:102A3000904608F040FB58B1043010F8013FE2B274
:102A400013F0DF0F01D0262B36D1002309F8023016
:102A500030462A4908F02FFB60B10023043010F8FB
:102A6000012FD9B212F0DF0F01D0262A2ED1002378
:102A700008F801303046224908F01DFB58B1002308
:102A8000C21C12F8011FD8B211F0DF0F01D02629A5
:102A900026D100233B5430461A4908F00CFB48B1BC
:102AA0000023053010F8012F303AD1B209291DD981
:102AB00003B12B80BDE8F8832B2B08BF202309F836
:102AC000043001343F2CB8D12246BEE72B2A08BF80
:102AD000202208F8032001333F2BC0D11946C6E756
:102AE000F95401330F2BCCD11846D2E703EB830303
:102AF00002EB430293B2D5E7BFBD0008C5BD000895
:102B0000CBBD0008D0BD00082DE9F043344BA9B07F
:102B10001E785EB100221A7047F23152314B3248B2
:102B2000198829B0BDE8F043FDF748BDDFF8BC9037
:102B300099F80030002B42D02D4F3B78FF2B3ED12F
:102B4000FDF736FD2B4C80462B49204608F0B3FAA2
:102B50000546002836D04022314608A808F090FAF1
:102B60004022314618A808F08BFA102231460DEBAE
:102B7000020008F085FA0DF10E030093204604AB25
:102B800018AA08A9FFF746FF9DF8103033B1164B7D
:102B90000F22184604A908F07BFAC673BDF80E3060
:102BA0000BB1104A13804046FFF716FF002318A907
:102BB00008A889F800303B702370FDF7CBFC29B0E2
:102BC000BDE8F08320460D4908F075FA28B140466B
:102BD000FFF7E2FE3D702570F1E738702070EEE7F8
:102BE000460C00205E000020600000209B0D0020AD
:102BF0009C0D00209D0D0020D7BD0008E1BD000800
:102C000040F201230380002383708380C3807047D8
:102C100002780346032A1DD8DFE802F00F021407EA
:102C2000427842B903221A7005E041780122002956
:102C3000F9D101708270002070474278012AFAD1E0
:102C40000222F0E7407800220128ECD118709A7037
:102C5000D87170470122E6E770B504464FF4004191
:102C60001D4803F033F9A6781C4A1D491D4DAEB12D
:102C700088B113780133DBB2072B137003D901231A
:102C800063700023137000230B702B78EBB1A388C3
:102C90000A33A38070BD60701070F4E70B78167073
:102CA000042B0FD9003818BF01200E70607000236C
:102CB0002B70A3796BB1A388002BEBD0092B08D91B
:102CC0000A3BE6E701330B70F1E7A38001232B7089
:102CD000DDE70023DDE700BF000C0140C00B002052
:102CE000BF0B0020BE0B002037B53E4D2B78DB0913
:102CF00034D02B7823F080032B70FDF797FD3A48F2
:102D0000FFF7AAFF394890F84230222B09D0036818
:102D100037491A685B682023012280F8423006F0A8
:102D2000AEFC344B1B7823B133490A88C2B1013A57
:102D30000A80324A1378013B13F0FF0303BF0223DA
:102D400013702B78137004BF43F040032B702C4B8F
:102D50001C78013C14F0FF0417D01C7003B030BD88
:102D6000284803780133DBB2042B94BF1A4613467C
:102D7000027040F6B8320A800C214B43224AD11827
:102D80004968D058FDF7E6FBD3E70A221A702B7882
:102D900043F020032B70FFF73DFB1C4A13780133EF
:102DA000DBB2092B01D81370D8E71470184C2378C4
:102DB000042B9CBF01332370164B1D78002DCDD101
:102DC000FDF742FC0728C9D12378042BC6D94FF45C
:102DD00080732A460093284609230F49FDF75AFCC1
:102DE000BCE700BF3E0E00201E0E0020C4120020D3
:102DF000340E0020440C00205C00002077000020EE
:102E000078000020450C0020E8D60008350E002090
:102E1000700000209B0D00200B000020F8B5837887
:102E20000446002B4CD18388002B49D18379002B99
:102E300046D0C579EDB140F6B732A388934258D851
:102E4000A3F5FA62B2F57A7F57D2374804F02EFC28
:102E5000202838D100250426E571344B1E7001F07E
:102E6000CFFC012001F0E8FD314BA5711E70A5805B
:102E700029E02D4804F01AFC202824D1284601F02E
:102E800057FC01F061FC94F806C02A492A4ABCF1BB
:102E9000020FB1F90030B2F90000244F244E24D0C3
:102EA000BCF1030F10D0BCF1010F1ED13570234EC1
:102EB0003D703380224B0D80188015800023A37154
:102EC000E379002BB7D1F8BD4FF0020C87F800C0B2
:102ED0001C4F86F800C03D700343EFD1174B1B8891
:102EE0000B80174B1B881380E8E701253D70357078
:102EF000F2E70023E371A380E5E7A3F57A73B3F566
:102F00007A7F08D2084804F0D1FB2028DBD10025C5
:102F10000326E571A1E70023E371A3790133A371CF
:102F20004FF4C873E7E700BFB4140020C0120020BC
:102F3000BF1200203800002036000020340000209E
:102F400032000020D80B0020F8B51D4640F2F313E4
:102F50009A42CCBF002401249942D8BF01347B4F50
:102F60009842D8BF01343B788446032B00F2EB80B3
:102F7000DFE813F0040011006E00E500B1F5FA7F00
:102F800002DA01233B7009E0714B724AB3F9003059
:102F90005B42136002E0032C01D13C70F8BD6E4E21
:102FA0006E4914BB3388086801339BB2052B33800C
:102FB0000FD90028B4BF01224FF0FF32684B348094
:102FC0001C80684B1C70684B1C60684B1A70022395
:102FD000D8E7674B1860674B1A685E4B1A60664B00
:102FE0000860B3F900302B60D8E7002333804FF43A
:102FF0007A7303FB02F0614A02FB0C00604A12681C
:1030000090FBF2F00A2290FBF2F0594A80EAE07459
:1030100010605C4AA4EBE07414605B4AB2F90020D3
:103020004243624392FBF3F2584B4A4CB3F90030EF
:1030300000FB0322564B2260B3F900309A4202DDB6
:103040001A46236002E05B429A42F9DB494BC5E72E
:10305000B1F5FA7F95DB41F288304E4B4E4A1B8822
:10306000B2F900101BB2C91A4C4A002381FB0001BF
:10307000FDF776F83C4B3B491A680C7810446FF02A
:10308000630218602A60334A032C56D8DFE804F044
:10309000021A283F354C94F90040002C404CC8BF20
:1030A0004FF4AF74146047F22F520028B8BF40426B
:1030B00090427FF773AF00221A60294B1A800123D8
:1030C0000B706BE70024264814600288013292B22C
:1030D000632A02807FF662AF1C6004800223EFE760
:1030E000224C94F90040002C2D4CD8BF4FF4AF7403
:1030F00014604EF65F220028B8BF404290427FF72E
:103100004DAF00221A60164B1A800323D8E7174CE4
:1031100094F90040002C224CC8BF4FF4AF74002833
:103120001460204AB8BF404290427FF737AF002278
:103130001A600B4B1A800423C2E7002329E7032CF3
:103140007FF41FAF2AE700231CE700BFDC0B002041
:1031500030000020E40B0020BC0B0020E00B00201E
:10316000DA0B0020D90B0020B80B00200A00002049
:10317000EC0B0020B40B00204000002018FCFFFFE7
:10318000F00B0020E80B0020360000203800002063
:103190002A000020CE0B0020B0120020B8FF010052
:1031A000A2FEFFFF3F7E050038B50C4605460188AC
:1031B0000948FEF711F9208069880848FEF70CF9E4
:1031C0006080A9880648FEF707F9A080E9880548CD
:1031D000FEF702F9E08038BDC8D60008A8D600087E
:1031E00088D6000868D6000837B5354B354C1978B5
:1031F0002278914261D022781A7023782BB12378FB
:10320000012B02D02378022B57D12F4804F04EFA1D
:103210002028FAD1012001F00FFC002001F088FAEB
:103220002378D3B90125294C1421162001F084FB01
:1032300094E80E002648009501F068FB2221242026
:1032400001F07AFB94E80E002248009501F05EFB45
:1032500003B0BDE8304001F077BA2378012BDDB22E
:1032600013D11A4C1421162001F066FB94E80E00CD
:103270001948009501F04AFB2221042001F05CFB73
:1032800094E80E0015480095E0E72378022BDFD183
:1032900001250E4C1421162001F04EFB94E80E007F
:1032A0000F48009501F032FB2221242001F044FB5D
:1032B00094E80E000B480095C8E703B030BD00BF8E
:1032C00009000020C0120020B414002074C10008BE
:1032D000E7BD0008F4BD0008FDBD00080ABE0008F7
:1032E0001CBE000829BE000810B594B014220021AD
:1032F0000CA807F0C5FE142200210DEB020007F018
:10330000BFFE1022002101A807F0BAFE02244FF4EC
:1033100080330122CDE91143CDE90A234FF4E013B4
:103320000AA80E92139305F03FF808B172B6FEE7B3
:103330000F23CDE905344FF480630790CDE90830C1
:10334000214605A805F0F2F908B172B6FEE712238E
:1033500001934FF40043CDE9033001A805F0A2FA30
:1033600008B172B6FEE714B010BD00000268084B49
:1033700010B59A420AD1074C2078FDF777F921461B
:10338000BDE810400122044806F079B910BD00BF25
:1033900000380140340E0020C41200200368074AA0
:1033A000934209D11A685B682023012280F84230D9
:1033B0000349044806F063B9704700BF0038014074
:1033C000340E0020C41200208D4A2DE9F04F1568FC
:1033D0008C4ADFF834A214688C4A85B0B2F900B088
:1033E0008B4ADAF80030B2F9002003900292894A41
:1033F000B2F9007043EA0502224300F0B2805A217C
:103400000A224B4302FB0B30642390FBF3F04D4345
:103410004C430190029802FB074402FB005594FBC9
:10342000F3F495FBF3F5019B7B4ACAF80030744B2B
:10343000B2F900801D60734B1C60784B1B68002B39
:1034400000F09480434403EBD3735B1000934FF47C
:103450008F704FF06409714B009A1A60704A1168BE
:1034600000FB01F292FBF9F681FB01024FEAE17CDD
:1034700000FB0CFC01FB02CC5DA3D3E90023A0FB05
:1034800001016144FCF76CFE311A664E33889BB231
:10349000952B6ED833889BB2272B31D8624B4FF4D3
:1034A0008F70C3F80080614B5549B3F90020604B21
:1034B000029C1A605F4B604A1F60232303FB08F3E2
:1034C000136093FBF9F3564A0C60136000FB03F49E
:1034D00083FB0302DD1745434A4903FB02550F6096
:1034E000A0FB030142A3D3E90023CAF800B029449A
:1034F000FCF736FE94FBF9F4484B211AC3F8008020
:1035000033889BB2312B0AD9444A4C4B10681A6855
:10351000401A10444A4A186013683B4413603388C9
:1035200001339BB2338033889BB2962B0DD164223A
:10353000424B44491B6893FBF2F30B80404B1B68E2
:1035400093FBF2F3404A1BB2138000233F4A1360FF
:103550003F4A13602B4B1A68364B1A6005B0BDE822
:10356000F08F3C46029DCDF804B05CE7CDF80080BA
:103570006DE7304B00981A681C60324BA21AB3F901
:1035800000306443C31A5B1A019905FB0544694383
:1035900030482F4DB4FBF0F491FBF0F11B1B0B44B2
:1035A000062192FBF1F21344284A03981360136832
:1035B00040F6262203F21351914298BF002303994B
:1035C000DA17A3FB013100FB0211D81841EB010609
:1035D000C01841EB060108A3D3E90023FCF7C0FDA6
:1035E00062232C685C4394FBF9F404442C60B5E737
:1035F000420A1B0400000000404B4C000000000089
:10360000A00B00209C0B0020A40B0020B412002073
:10361000B2120020B0120020BA120020980B002035
:10362000240C0020A6120020200C0020B61200203E
:103630001C0C0020940B0020280C0020900B002074
:103640008C0B0020DE0B0020CE0B0020A8120020E7
:10365000AC120020285122002DE9F04FB24A87B069
:1036600013781B0740F1EF831378B04C23F0080365
:1036700013700522AE4BE1881A6063886289ADF849
:1036800008300B44ADF80C2013440322B3FBF2F3D3
:10369000ADF80A1002A804A9ADF80E30FFF784FDBA
:1036A000BDF91050A34BBDF810001D80BDF912509C
:1036B000A14BBDF812101D80BDF914509F4BBDF8F1
:1036C00014201D8043181344012BB8BF01239C4DC7
:1036D0009C4F2B60B4F900509B4BDFF870E21D80CB
:1036E000B4F904309A4D9B4E2B80B4F908509A4B94
:1036F000DEF800801D80B4F90C50D6F800903D80B3
:10370000B4F90E50954C58EA090A2580944C954D11
:10371000B4F90040B5F900500FD04FF05F0A04EB48
:1037200084040AFB08444FF0640805EB85050AFB96
:10373000095594FBF8F495FBF8F5356005F57A65C5
:10374000B5F5FA5F88BF2325CEF8004088BF6C43EB
:103750006FF03105DFF810E2844E88BFCEF80040EC
:10376000834CB4F900406C43832594FBF5F4814D00
:103770002C6035682544DEF800404FF0140E0EFB37
:1037800004F44FF4757E0EFB05447B4DAC4200F310
:10379000C2807A4DAC42C0F2C0804FF47A7594FB7F
:1037A000F5F44FF0640B346094FBFBF4DFF8D08148
:1037B000744EC8F80040744C2468019400243460AE
:1037C000724C2578012D5FFA85FC714D00F0A780C1
:1037D000BCF1020F00F00A8123781BB12378012B82
:1037E00040F0E581D8F80020002AD4BF0022012251
:1037F000684BD8F800701A702378002B40F0D981FC
:1038000065488742ACBF00200120644BDFF890C1BF
:1038100018702378DFF88CE1012B03D02378022B7A
:1038200040F0108260490B780133DBB2072B00F2C5
:10383000C2810B70019BBEF900100B4401934FF045
:10384000C80E019B5949DFF86891DB1B0B60D9F862
:103850000010C91B0EFB01FA564903F1950EBEF587
:10386000957FC1F800A0296800F2F48103EB830E74
:103870007144DFF844E17145B8BF714649F6404EE6
:103880007145A8BF7146DFF834E12960BEF900E058
:10389000C9F8007001FB0EFE4FF47A719EFBF1FE39
:1038A00047492778B1F90010012F03FB01EE454984
:1038B000B1F900100AFB01EE42F2107A9EFBFAFA0F
:1038C0004149CCF800A00B60336806D13F4E96F812
:1038D00000C01CF0FD0F00F0C3813D4EB6F8009013
:1038E0003C4EB6F800C042F20F76B64500F369824E
:1038F000394EB64580F2AA82384EDFF8E4E0B6F9D8
:103900000060BEF900E0AAEB0907BF1BAAEB0C069A
:10391000A6EB0E0662E2334C43E7334C41E701ABC2
:10392000FFF712FB58E700BF3E0E00207412002084
:1039300058000020420C0020400C00203E0C0020CB
:10394000F00B0020360C00203C0C0020200C002046
:103950003A0C00201C0C0020380C0020340C0020F5
:10396000BA120020B6120020300C0020280C0020D3
:10397000B21200202C0C0020E7ECA43519135BCA0E
:10398000240C0020E40B002044000020C012002082
:103990000C0C0020AE0B002024FAFFFFAD0B002022
:1039A000080C0020F40B0020AC0B0020180C0020A9
:1039B000A80B0020100C0020C063FFFF040C0020A7
:1039C0005400002052000020140C0020DC0B0020CA
:1039D0004E0000204C000020F1D8FFFF020C002018
:1039E000000C0020A0BB0D006044F2FFDFF8C4A271
:1039F0009AF80090B9F1010F5FFA89FE3FD0BEF14D
:103A0000020F00F08E80BEF1000F40F0CD8001ABC0
:103A1000FFF79AFA3B881BB2322B1DDD3B88A64A82
:103A20001BB2B3F5967FCCBF4FF496733B88B2F9C7
:103A30000000D8BF1BB2A3F13201C0F548724A435F
:103A4000FA2192FBF1F2024401923268C3F59673B7
:103A5000534393FBF1F333603B881BB2B3F5967F7E
:103A6000FFF6BAAE4FF4487301930023934A3360D4
:103A70001360934A136001238AF80030ACE6DFF844
:103A80004092D9F800300533C9F80030D9F8003039
:103A9000B3F57A7F0AD2D9F80030B3F5FA7F34BF94
:103AA0004FF448734FF4AF73019395E64FF4AF7240
:103AB00001920A222B6841F28830C3EBC30393FBC7
:103AC000F2F32B607F4B804A1B88B2F900101BB2C7
:103AD000C91A7E4A002381FB0001FCF741FB774FA6
:103AE0007B4AD7F800B0584438603B68002B3B68ED
:103AF000B8BF5B42934207DD0023764A3B601380E8
:103B0000C9F800300223B7E7734B1B68002BB8BF1E
:103B10005B42FA2BCBBF00236FF0F9032B603360BD
:103B20005AE6654FDFF8B4E1B7F90070DEF800E05F
:103B300001976B4FDFF8ACC13F881B88DCF800C0F1
:103B40001BB2A3F548730EFB03F33FB2A7F548770A
:103B50000CFB0733644FBB4221DB44F68367BB4257
:103B60001FDC93FBFBF35B425A4F33603B8801330E
:103B70009BB2632B3B807FF62FAEB1F5FA7F06DB5D
:103B8000B0F5FA7F03DBB2F5FA7FBFF625AE01216F
:103B90000023564A33601170464A13701CE6C8234E
:103BA000E2E76FF0C703DFE78AF800C014E60022FF
:103BB0001EE6002029E600230B704D4BDCF80010B8
:103BC000B3F90090DFF82CA1C9F1640B01FB09F9EE
:103BD0006421DAF8003003FB0B9393FBF1F33649D1
:103BE000CAF80030B1F900904349A9EB03090B680A
:103BF000DFF808A14B445345B8BF53464CF2503A46
:103C00005345A8BF53460B603D49B1F900104B43E3
:103C100042F2107193FBF1F33A49B1F9001009FB3C
:103C200001F14FF47A7991FBF9F10B4436498B425B
:103C3000B8BF0B4640F2DC518B42A8BF0B46AEF832
:103C40000030F7E500212B4BAEF8001019602A4B2D
:103C50001960F4E54FF00A0EC90091FBFEF112E67F
:103C6000BCF1020F0AEB0307AAEB030619BFDFF84A
:103C70009CC0274B40F2023340F2EE2C1CBF1B8845
:103C8000BCF800C0002F0DDD3B44224FB7F9007097
:103C90001F44002E42DD0CEB06031F4EB6F90060F8
:103CA0001E4442E01FBFFB1A1A4FB7F90070DF1B1A
:103CB000EFE700BFD80B002040000020D40B00200D
:103CC000D00B0020CE0B0020B0120020B8FF010066
:103CD0008F5F0100B00B0020180C00201C0000209A
:103CE0003A0C0020200000207DB1FFFFDC0B0020FB
:103CF0003A000020FC0B0020F80B0020B03CFFFF36
:103D00003C0000203E00002024FAFFFF4800002075
:103D10004A000020020C0020000C002005D0A6EB79
:103D20000C034D4EB6F900609E1B002A6DD0002397
:103D30004A4E2B600B60374641F28830FFF744FB58
:103D400042F22832D8F8003003F58C5314339342F2
:103D500004D900263746424B2E601E60414B1A881C
:103D6000414B92B2952A1B8856D8002632462E60C7
:103D700059428A42B8BF0A46B342A8BF33462678A2
:103D80008B42B8BF0B46394839492EB12678012EEF
:103D900002D02678022E0AD12478012C41D1354C4C
:103DA0002478022C3DD1344C2478042C39D10023C2
:103DB0002B4A2B6013601A465242028000220A806E
:103DC00034E02E4EDFF890E0B6F90060BEF900E076
:103DD00009EB0A0737440CEB0A067644002BA4D003
:103DE00067B9002B4F4604DA66B1FF1A58E7002680
:103DF000F7E77F42002EF8D16646F6E7002EF4D1B1
:103E0000002BF9DACCF10006EFE7002894D040F659
:103E1000B8362A600A608EE79F423A46A8BF1A4623
:103E2000A6E7002AC8DD0A8000220280002B9AB291
:103E30001349144BD5BF52421A800A800023D6BFC3
:103E400000220B801A8007B0BDE8F08F002BCED186
:103E50001E461F4669E700BF000C002048F4FFFF24
:103E6000AC120020A612002050000020380E0020C6
:103E7000360E0020DC0B0020D90B0020020C0020A5
:103E80003C0E00203A0E002080B5A74D9AB001F0FC
:103E900001FAFFF729FA1022002113A807F0F0F821
:103EA000AB69002243F01003AB61AB694FF40051E2
:103EB00003F010030493049BAB699C4843F0200378
:103EC000AB61AB69002403F020030593059BAB694C
:103ED000012743F00403AB61AB69022603F004033E
:103EE0000693069BAB6943F00803AB61AB6903F033
:103EF00008030793079B01F0EFFF00224FF40071C6
:103F00008B4801F0E9FF4FF40053884813A9CDE92D
:103F10001337CDE9154601F097FE4FF4004384486E
:103F200013A9CDE91334159401F08EFE4FF40073FC
:103F30007F4813A9CDE91337CDE9154601F084FE7A
:103F40006B6922463B436B616B6921463B400B200A
:103F50000393039B01F080FC0B2001F0ADFC224693
:103F600021460E2001F078FC0E2001F0A5FC22462F
:103F700021460F2001F070FC0F2001F09DFC6D4ADE
:103F80006D4B082513604FF4807393604FF46023EA
:103F90001046CDE91344159414731475D36154601D
:103FA000156101F0C7FB08B172B6FEE70624CDE942
:103FB000130713A95F48159401F050FA08B172B6BF
:103FC000FEE75C4813A9CDE9137601F047FA08B182
:103FD00072B6FEE713960326564813A9149601F00D
:103FE0003DFA08B172B6FEE713960426514813A9AC
:103FF000149601F033FA08B172B6FEE7139605265F
:104000004C4813A9149601F029FA08B172B6FEE7DC
:10401000484813A9CDE9136401F020FA08B172B63B
:10402000FEE713940724434813A9149401F016FAE9
:1040300008B172B6FEE73F4813A9CDE9134501F078
:104040000DFA044608B172B6FEE70EAE0146102224
:10405000304607F015F81422214613A807F010F88F
:1040600047233648DFF8D8C00AAFC0E900C3F923B8
:104070000A947C60C0E90334C0E90544846004F01C
:10408000F5FD08B172B6FEE74FF4805831462B4873
:10409000CDF8388004F0D0FE08B172B6FEE7CDE965
:1040A000130013A9254804F0BEFF08B172B6FEE75D
:1040B000CDE90A003946214805F03AF8054608B12D
:1040C00072B6FEE701461022304606F0D9FF1422F0
:1040D000294613A806F0D4FF4FF047094FF080435C
:1040E000184C0A95C4E9003941F2873320467D60B7
:1040F000C4E90335A560A56104F0B8FD08B172B646
:10410000FEE731462046CDF8388004F095FE08B130
:1041100072B6FEE7CDE9130013A9204604F083FF31
:1041200090B172B6FEE700BF0010024000100140DF
:10413000000C01404C15002000240140E413002035
:10414000002C01409C130020CDE90A00394620468E
:1041500004F0EEFF044608B172B6FEE701461022F5
:10416000384606F08DFF14222146304606F088FFBF
:104170001C22214613A85B4D0894099406F080FF89
:10418000594B2846C5E9003942F20F730DF1200A58
:10419000C5E90334AC60AC6104F068FD08B172B6E7
:1041A000FEE739462846CDF8288004F045FE08B1E0
:1041B00072B6FEE7284604F085FD08B172B6FEE748
:1041C000002331464748CDE90E3304F02CFF08B1F7
:1041D00072B6FEE7CDE908005146424804F0A8FF58
:1041E000024608B172B6FEE760231590CDE91330A0
:1041F000179013A93B4804F0BDFD08B172B6FEE765
:104200000422384813A904F0B5FD08B172B6FEE7E0
:104210000822344813A904F0ADFD08B172B6FEE7D8
:104220000C22304813A904F0A5FD044608B172B66B
:10423000FEE72C4800F0FCFD4FF4E1332B482C4DF9
:10424000C0E90244C0E900530C230461C0E905340D
:10425000C46105F005F8044608B172B6FEE706F041
:1042600067FC24482449254BC0E90244C0E90013F7
:104270004FF48043C0E90644C0E90434046202F00C
:1042800009F8044608B172B6FEE71022014613A8E9
:1042900006F0F6FE47231A4D1A4A0E94C5E900238C
:1042A00042F20F7328467460C5E90334AC60AC6118
:1042B00004F0DCFC08B172B6FEE74FF480532846E8
:1042C00013A9139304F0B8FD08B172B6FEE70023FA
:1042D00031460B48CDE90E3304F02AFF044698B16D
:1042E00072B6FEE75413002000040040C412002000
:1042F00000380140B414002000580040801A060025
:104300000C13002000080040524806F09BFC524865
:1043100004F0B6FB514804F0B3FB514804F0B0FB85
:1043200021464F4804F002FF04214D4804F0FEFEF0
:1043300008214B4804F0FAFE0C21494804F0F6FE2F
:104340004FF400510122474801F0C6FD464800F0F5
:10435000E9F9464800F0E0F9454800F0D7F900F0E7
:1043600077FB204600F068FB424800F0C7F842485F
:1043700000F0CAF8414800F0CDF800F0E9F8404AF2
:10438000404B10461360404B5360404B9360FCF72A
:1043900015FA3F48FCF736FF3E48FCF72DFF012297
:1043A0003D493E4805F06BF940F6B8323C4B3D497B
:1043B0001C703D4B3D481C703D4B1A8001223D4B0B
:1043C0001A70FCF7C7F83C4B3C4A3D493D4800F0A9
:1043D0000AFF3D4B3D4A3E483E4900F004FF3E4B3C
:1043E0003E4A1C703E4B3F481C803F4B1C803F4B5D
:1043F0001C803F4B1C80FEF703FCD2F8FC3043F0DE
:104400008073C2F8FC303B4B5C601A6842F00102DA
:104410001A600190FEF768FCFCF73CFAFEF774FBAB
:10442000002227492748FDF7B9FF012229492848DA
:10443000FDF7B4FFFEF796FAFEF7F4F9FFF70CF973
:104440000198FEF7E5FB0198FEF7E8FCFEF7CCFECD
:10445000E0E700BF11120008E41300209C130020C5
:104460005413002000100140BD120020511200081A
:1044700079120008BC12002075120008951200087D
:10448000280E00203D120008B1120008E5120008B5
:10449000D112000851130008340E0020C41200206D
:1044A0009B0D002032BE0008450C00203BBE0008DA
:1044B0005C000020440C0020441100204410002027
:1044C000681200205C120020440F0020440E0020DF
:1044D00044120020501200203E0E002000ED00E0AB
:1044E0003C0E00201E0E0020380E00203A0E002048
:1044F000360E0020001000E072B6FEE7014B186097
:10450000704700BFAC150020014B1860704700BF1A
:10451000A8150020014B1860704700BFA4150020AB
:10452000044A10B414680B46A44601460122D02068
:1045300010BC6047A81500201346044A10B4146844
:10454000CAB2A446014610BCD0206047A415002082
:1045500013B500240DF107006B218DF80740FFF71C
:10456000DFFF04230DF1070019218DF80730FFF755
:10457000D7FF02230DF107001A218DF80730FFF74E
:10458000CFFF0DF107001C218DF80740FFF7C8FF92
:104590001B210DF10700FFF7C3FF02B010BD0000A3
:1045A0000122044B1A70044B1B680BB100221A70D5
:1045B000704700BF90000020AC15002008B51A4BD2
:1045C00019681A4B08781A7818B9012A23D00020E4
:1045D00008BD0020012A08701DD0022AF7D1012051
:1045E0001870134B13491A88D2BA0A605A881249B4
:1045F000D2BA0A609A881149D2BA0A601A89104957
:10460000D2BA0A605A890F49D2BA9B890A600E4A07
:10461000DBBA1360DCE702220E211A7004483B2249
:10462000FFF78AFFD3E700BFAC1500209000002001
:104630007C150020A01500209C1500209815002056
:1046400094150020901500208C15002070B5DDE930
:10465000045410B10B4E3668068011B10A48006848
:10466000088012B109490968118013B1084A12681B
:104670001A8015B1074B1B682B8014B1064B1B68C1
:10468000238070BDA01500209C15002098150020E7
:1046900094150020901500208C15002013B5064BB2
:1046A0008DF807001C680122002378200DF1070116
:1046B000A04702B010BD00BFBC19002013B5064BC7
:1046C0008DF807001C680122002378200DF10701F6
:1046D000A04702B010BD00BFB8190020044B10B4B1
:1046E0001C68CAB2A44601464023782010BC60472B
:1046F000BC190020044B10B41C68CAB2A446014681
:104700004023782010BC6047B8190020014B186086
:10471000704700BFB8190020014B1860704700BFF8
:10472000BC190020014B1860704700BFC019002061
:1047300000284FF4806214BFFF210021014806F0D9
:104740009FBC00BFB615002038B5B0240A4D2046E6
:10475000FFF7A4FF0020FFF7A1FF01341020FFF7AF
:104760009DFFE4B228468021FFF7B8FFB82C05F181
:104770008005ECD138BD00BFB615002038B51C4B04
:104780001C4C1A682378117819B9012B0AD0002023
:1047900038BD0021013B1170032BF8D8DFE803F08E
:1047A000020B1015144B18785038C0B2FFF786FF73
:1047B00002232370EBE70020FFF780FF0323F8E7D5
:1047C0001020FFF77BFF0423F3E70B4D0B4B2878FA
:1047D000802103EBC010FFF78DFF01202B782070A4
:1047E0000133DBB2072B2B70D1D900232B70CFE71D
:1047F000C019002091000020B6190020B615002035
:104800000022054B1A700122044B1A70044B1B68DE
:1048100003B11A70704700BFB61900209100002044
:10482000C0190020030630B510D43F290ED801244A
:10483000CB08074D00EBC3102B5C01F0070104FA15
:1048400001F1A2420CBF0B438B432B5430BD00BF80
:10485000B61500202DE9F04F044689B008A800E9FC
:104860000E009DF84830A4F120050293EBB25E2BB8
:1048700047D8079B23B3234413F8206C224AB2F88D
:10488000009009EB0603802B3BDC53889DF815B0A4
:10489000019303EB0B02402A33DC029B4FF000082C
:1048A000B3FA83FA0BFB05F54FEA5A1A6D00C345BC
:1048B00009D8154B4E441E80204609B0BDE8F08F44
:1048C0009DF81460DAE70027069A535B0493019B76
:1048D00008EB0302D3B20393BE4203D808F10108E8
:1048E0000235E4E7049B07EB090003FA07F213041F
:1048F00054BF5246029A0399C0B2FFF793FF0137A3
:10490000EAE70024D8E700BFB015002070B586B0F4
:1049100003AC84E80E009DF82860451E15F8010FD1
:1049200040B1009694E80E00FFF794FF0346287804
:104930008342F3D006B070BD014B18805980704798
:10494000B01500202DE9F74F9046A8EB0009A3EB26
:10495000010AB9F1000F1E46B8BFC9F10009BAF14A
:10496000000FB8BFCAF1000A804594BF4FF0FF3373
:10497000012305460C468E4294BF4FF0FF3B4FF09B
:10498000010B404631469DF830200093A9EB0A0701
:10499000FFF748FFCAF10003454504D1B44202D1F4
:1049A00003B0BDE8F08F214628460193FFF73AFF98
:1049B000019B7900B3EB470FBFBF0098A7EB0A0735
:1049C0002D18EDB28945C2BF5C444F44E4B2E3E721
:1049D0002DE9F0411446A042804628BFA046A042DF
:1049E000064638BF264699420C4628BF1C469942C7
:1049F00038BF19460F469DF81820BC4201D83F2CFD
:104A000001D9BDE8F081454607E02B0607D42846CA
:104A10002146FFF707FF0135EDB2B542F5D9013464
:104A2000E4B2EAE710B504468120FFF737FE2046DE
:104A3000BDE81040FFF732BE034628B10123AF2086
:104A4000024A5371FFF72ABEAE20F9E7B0150020E5
:104A500008B5642000F042FC0020FFF7EDFF2020A5
:104A6000FFF71CFE0020FFF719FEB020FFF716FE2F
:104A7000C820FFF713FE0020FFF710FE1020FFF7FD
:104A80000DFE4020FFF70AFEFF20FFF7CBFFA1201D
:104A9000FFF704FEA620FFF701FEA820FFF7FEFDAA
:104AA0003F20FFF7FBFDA420FFF7F8FDD320FFF721
:104AB000F5FD0020FFF7F2FDD520FFF7EFFDF02018
:104AC000FFF7ECFDD920FFF7E9FD2220FFF7E6FD17
:104AD000DA20FFF7E3FD1220FFF7E0FDDB20FFF710
:104AE000DDFD2020FFF7DAFD8D20FFF7D7FD142034
:104AF000FFF7D4FD0120FFF79FFF0020FFF718FE0E
:104B0000FFF722FE0022034B1A805A8001221A71FD
:104B100008BD00BFB01500200E4B82B09A6942F06C
:104B200001029A619A6902F001020092009ADA6920
:104B300042F08052DA61DB69074A03F08053019347
:104B4000019B536823F0E06343F08063536002B03D
:104B5000704700BF001002400000014030B505461C
:104B600087B01022002102A806F08AFA2A68204B9A
:104B70009A423BD103F56C439A691E4842F4007295
:104B80009A619A6902A902F400720092009A9A69E5
:104B9000194C42F004029A619B69FF2203F004035E
:104BA0000193019B0323CDE9022301F04DF88020FE
:104BB0004FF480720023C4E903024FF480620F496E
:104BC0002046C4E90013C4E90523A360E36100F0B3
:104BD000A7FE08B1FFF790FC002212202C621146BC
:104BE000656200F039FE122000F066FE07B030BDAD
:104BF0000024014000080140081500200800024080
:104C000030B5054687B01022002102A806F038FA18
:104C10002A682E4B9A4256D12D4C4FF44061A3691D
:104C20002C4843F00803A361A36903F00803009331
:104C3000009B1223CDE90213032302A9059301F07F
:104C400003F8E369802243F48003E361E3692248C7
:104C500003F480030193019B0023204CC4E900036B
:104C60002046C4E90323C4E90533A360E36100F0EF
:104C700057FE08B1FFF740FC1023194AAC63656288
:104C8000184CC4E90023002380222046C4E90232E4
:104C9000C4E90433C4E9063300F042FE08B1FFF76B
:104CA0002BFC0022212011466C63656200F0D4FDCC
:104CB000212000F001FE00222220114600F0CCFD50
:104CC000222000F0F9FD07B030BD00BF00580040C1
:104CD00000100240000C01405800024070140020F7
:104CE000440002402C1400200268114B10B59A4277
:104CF00004461CD10F4A4FF48061D3690E4823F457
:104D00008003D36101F074F84FF400610A4801F0A8
:104D10006FF8A06B00F034FE606B00F031FE2120D4
:104D200000F0D8FDBDE81040222000F0D3BD10BD3A
:104D30000058004000100240000C01401FB50368FD
:104D4000374A93422CD1374B18209A6942F40062BB
:104D50009A6100229B69114603F400630093009B53
:104D600000F07AFD182000F0A7FD0022192011465E
:104D700000F072FD192000F09FFD00221A2011465C
:104D800000F06AFD1A2000F097FD00221B2011465A
:104D900000F062FD1B2005B05DF804EB00F08CBD57
:104DA000B3F1804F11D103F50433DA691C2042F0CE
:104DB0000102DA610022DB69114603F0010301936D
:104DC000019B00F049FD1C20E5E7174A934210D1F2
:104DD000144B1D20DA6942F00202DA610022DB691D
:104DE000114603F002030293029B00F035FD1D20E3
:104DF000D1E70E4A934210D10A4B1E20DA6942F0E5
:104E00000402DA610022DB69114603F00403039314
:104E1000039B00F021FD1E20BDE705B000BD00BFD3
:104E2000002C014000100240000400400008004037
:104E300010B5044686B01022002102A806F020F921
:104E40002268114B9A421CD103F503339A690F482B
:104E500042F008029A619B69332203F00803019330
:104E6000019B022302A9CDE90223059300F0ECFE89
:104E7000074A536823F4406343F0E06343F400635C
:104E8000536006B010BD00BF00040040000C01409C
:104E90000000014010B5044686B01022002102A88F
:104EA00006F0EEF822681B4B9A4230D103F55843C6
:104EB0009A69194842F480429A619A6902A902F4F7
:104EC00080420092009A9A69002442F004029A619A
:104ED0009B694FF4007203F004030193019B0223CA
:104EE000CDE902230323059300F0AEFE4FF4806367
:104EF000094802A9CDE90234049400F0A5FE25205A
:104F00002246214600F0A8FC252000F0D5FC06B082
:104F100010BD00BF0038014000080140FEE7FEE779
:104F2000FEE7FEE7FEE770477047704700F0C4B940
:104F3000014800F0F1BD00BF08150020014800F055
:104F4000EBBD00BF2C140020014800F0E5BD00BF00
:104F500070140020014800F001BA00BF4C15002079
:104F6000014802F037BC00BFB8280020FFF7F8BFA7
:104F7000014803F0B4BD00BFE4130020FFF7F8BF01
:104F8000FFF7F6BFFFF7F4BF014803F0A8BD00BF6D
:104F90009C130020014803F0A2BD00BF5413002061
:104FA000014803F09CBD00BF0C130020014801F034
:104FB00083BE00BFB4140020014802F0D7BA00BF7E
:104FC000B4140020014804F0F7B900BFC412002057
:104FD0000A4A0346106810B508B909481060094923
:104FE000094C0344091B8B4206D906F07BF80C23BD
:104FF00003604FF0FF3010BD1360FCE7C4190020C0
:10500000D82C002000500020000400007047034608
:10501000002030B5187258791C68451C5D71552503
:10502000987125545879DC7901322040451C5D7116
:105030004E251C68D2B225545879DC792040451C95
:105040005D7145251C6825545879DC792040451C44
:105050005D7152251C6825545879DC7920401C6804
:10506000451C5D7122545879DC794A402040451C2A
:105070005D713A251C6825545879DC7920401C68FC
:10508000451C5D7121545879DC7920405871072006
:105090005872187A504080F03600187230BD0346BE
:1050A00010B5427A013242725A790068541C5C7120
:1050B00081545A79D87902405A711A7A81EA0200E9
:1050C000187210BD002337B58DF807309DF80730F2
:1050D000CB5C13B9007A03B030BD437A9DF807402A
:1050E00001334372437902685D1C45710C5DD454F1
:1050F0004379C27913409DF807204371531CDBB2FA
:105100008DF807308B5C027A53400372DEE703466A
:1051100010B5C47980790144214018689971405CC8
:1051200011440C409C7110BDF0B500240526457952
:105130000379AB4201D10020F0BD827A072A50D812
:10514000DFE802F0040F1C22282D4F3E0268D25CDB
:10515000552A01D101228272C279013313400371B1
:10516000E6E70268D25C4E2A01D10222F3E7552A13
:10517000F2D000228272013BDBB2EDE70268D25C22
:10518000452A1BD10322E6E70268D25C522A15D1D8
:105190000422E0E70268D25C86724272DCE70268B1
:1051A000D25C3A2A0AD10721C2798172591C0A407D
:1051B0008271427A82F036020272CDE78472DAE7B7
:1051C000427A0768013AD2B2017A42721AB1FA5CA5
:1051D00051400172C0E78272FA5C8A42BCD1012060
:1051E000AAE78472B8E710B502604FF07F4400224E
:1051F000446002818272C1E900340A818A7210BD62
:10520000FFF704FF0B480C490C4A002302E0D45876
:10521000C4500433C4188C42F9D3094A094C002302
:1052200001E013600432A242FBD305F061FFFEF7F8
:105230002BFE704700000020680200206CD7000899
:1052400068020020D82C0020FEE7000038B50E4B85
:1052500005461A784FF47A73B3FBF2F30B4A1068E1
:10526000B0FBF3F000F048FB044658B90F2D09D805
:10527000024629464FF0FF3000F0EEFA2046044B7C
:105280001D6038BD0120FCE798000020940000203C
:105290009C000020074A08B51368032043F0100360
:1052A000136000F0C7FA0F20FFF7D0FFFFF734FCC0
:1052B000002008BD00200240034A044B11681B78FF
:1052C0000B441360704700BFC819002098000020ED
:1052D000014B1868704700BFC819002038B5044654
:1052E000FFF7F6FF0546631C1EBF044B1B78E4184E
:1052F000FFF7EEFF431BA342FAD338BD980000200E
:10530000436A10B59A6A12F0500F1BD19A6A42F4A0
:1053100000729A621A68926802F46022B2F5602FF5
:105320000CD11A7B52B99A6A22F480729A629A6AF4
:10533000D2045EBF9A6A42F001029A621846FCF7F4
:1053400073F810BD1B6ABDE810401B6B184770470F
:1053500008B5406AFFF7FBFF08BD7047036870B5EA
:105360001D685E680446B00626D5A90724D5A26A42
:10537000D2065EBFA26A42F40072A2629A6802F488
:105380006022B2F5602F10D1227B72B95A6822F0E8
:1053900020025A60A36A23F48073A362A36AD8042C
:1053A0005EBFA36A43F00103A3622046FCF73CF80A
:1053B0006FF0120223681A60310630D56A072ED5C5
:1053C000A36ADB065EBFA36A43F40053A3622368AB
:1053D0009A6802F4E042B2F5E04F0AD05A685005EC
:1053E00016D49A6802F46022B2F5602F10D1227BA5
:1053F00072B95A6822F080025A60A36A23F480537B
:10540000A362A36AD9055EBFA36A43F00103A36246
:10541000204600F00DFA6FF00C0223681A60720645
:105420000CD5EB070AD5A36A204643F48033A36268
:10543000FFF793FF6FF0010223681A6070BD704799
:10544000406A08B5836A43F040038362C36A43F04D
:105450000403C362FFF7F3FF08BD0000002373B528
:10546000019390F824300446012B6CD0012380F87E
:1054700024304D680268062D086805EB850322D8A4
:105480001F26556B053B9E4025EA060500FA03F3EF
:105490002B43536309288B6800EB40054FF007014D
:1054A00029D9D6681E3DA94026EA0101AB400B432D
:1054B000D360A0F11003012B25D90020002384F82C
:1054C000243002B070BD0C2D4FF01F0509D8166BAB
:1054D000233B9D4026EA050500FA03F32B431363A3
:1054E000D8E7D66A413B9D4026EA050500FA03F35A
:1054F0002B43D362CEE71069A94020EA0101AB40FB
:105500000B431361D9E7114B9A4216D193681B02E2
:10551000D3D49368102843F400039360CDD10C4B8F
:105520000C4A1B68B3FBF2F30A2253430193019B1D
:10553000002BC2D0019B013BF8E7A36A012043F096
:105540002003A362BAE70220BBE700BF00240140AA
:105550009400002040420F00002337B501930368F8
:1055600004469A68D20702D5002003B030BD9A687D
:1055700042F001029A60144B144A1B68B3FBF2F329
:105580000193019BE3B9FFF7A3FE054623689B68DF
:10559000DB07E9D4FFF79CFE401B0228F6D92368FD
:1055A0009B6813F00103F1D1A26A012042F01002BE
:1055B000A262E26A84F8243042F00102E262D4E797
:1055C000019B013BDCE700BF9400002040420F003C
:1055D0002DE9F0413F4B9046026804469A420F463F
:1055E00002D03D498A4203D15B6813F4702F6DD11C
:1055F00094F82430012B6BD00123204684F824300A
:10560000FFF7AAFF064600285DD1A56A2168324B44
:1056100025F4706525F0010545F480759942A56271
:1056200004D12C4A536813F4702F3ED1A36A23F49B
:105630008013A3624B685A0505D5A36A23F440532F
:1056400043F48053A362A36A206A13F4805318BF03
:10565000E36A3A4618BF23F00603E362002384F8A6
:1056600024301E4B4C3183621D4BC3621D4B0363C0
:105670006FF0020341F84C3C51F8443C43F4807312
:1056800041F8443C434600F0A5F923689A6802F4C7
:105690006022B2F5602F9A680CBF42F4A00242F477
:1056A00080129A603046BDE8F081A36A43F480130B
:1056B000A36253685B0541BFA06A20F4405040F4E8
:1056C0008050A062BFE7002384F824300126E9E778
:1056D0000226E7E7002401400028014001530008AA
:1056E000515300084154000838B5036804469A68CD
:1056F000D10701D4002038BD9A6822F001029A60D7
:10570000FFF7E6FD054623689B68DB07F2D5FFF748
:10571000DFFD401B0228F6D923689B68DA07F2D523
:10572000A36A012043F01003A362E36A43F001037C
:10573000E362E0E7F8B5044600286DD0836A23B938
:10574000C36280F82430FFF709FA2046FFF7CCFF48
:10575000A36A13F0100361D100285FD1A26A6168C7
:1057600022F4885222F0020242F00202E569A668A1
:10577000A262227B2943B6F5807F41EA420136D0FE
:10578000771E7D427D412D02277D012F06D182BBF0
:10579000A269013A45EA423242F400652268B6F550
:1057A000807F576827F4694745EA07055560976881
:1057B0001D4D05EA070545EA0105956001D0012E5A
:1057C00002D12369013B1B05D56A25F470052B43E3
:1057D000D3629268154B1340994213D10023E362C0
:1057E000A36A23F0030343F00103A362F8BD354627
:1057F000CAE7A26A42F02002A262E26A42F0010213
:10580000E262CBE7A36A23F0120343F01003A36222
:10581000E36A43F00103E3620120E7E7A36A43F090
:105820001003A362F8E700BFFDF7E1FFFE0E1FFFC4
:105830007047000007490302CA6803F4E06322F4DA
:10584000E0621204120C134343F0BF6343F40033CD
:10585000CB60704700ED00E0154B30B5DC68C4F359
:105860000224C4F10703251D042B28BF0423062DA1
:105870004FF0FF3594BF0024033C05FA03F321EAFF
:105880000303A54022EA0502A340002843EA0203DD
:10589000ACBF00F16040074A4FEA0313DBB2ABBF75
:1058A00000F5614000F00F0080F80033135430BD64
:1058B00000ED00E014ED00E0002807DB01234109C2
:1058C000034A00F01F00834042F82130704700BFB8
:1058D00000E100E000280CDB01220649430900F04A
:1058E0001F008240203341F82320BFF34F8FBFF3C6
:1058F0006F8F704700E100E00138B0F1807F0BD27C
:105900004FF0E023F021054A586182F8231000206F
:10591000072298611A6170470120704700ED00E08E
:10592000034610B530B301681420134A0A44B2FB91
:10593000F0F292001A64114ADA63022283F82120FD
:10594000D3E901242243DC68086822431C696FF311
:105950000D1022435C6922439C692243DC69224387
:1059600002430A6000200122986383F8200083F834
:10597000212010BD0120FCE7F8FFFDBF0000024020
:1059800010B508B30168114A0B680A4423F00103FB
:105990000B6000230B604B608B60CB601421B2FB6B
:1059A000F1F201210A4C9200026401FA02F2C4638E
:1059B00062608363C0E90A33C0E90C3380F82130A8
:1059C00080F82030184610BD0120FCE7F8FFFDBF2D
:1059D00000000240F0B590F82040012C34D00124A2
:1059E00080F8204090F82140012CE5B24FF00004EF
:1059F00028D1022680F8216084630468266826F096
:105A000001062660D0E90F67BD407560636043689A
:105A1000102BC36A0BBFA260A160E160E2604BB1D2
:105A2000236843F00E0300202360236843F0010342
:105A30002360F0BD236823F004032360236843F050
:105A40000A03F0E780F820400220F2E790F82120D6
:105A50000346022A06D0042282630120002283F832
:105A6000202070470268C06B116821F00E011160A0
:105A7000116821F00101116001211A6C01FA02F292
:105A80004260002083F82110E8E7000008B590F894
:105A90002130022B03D004238363012008BD036857
:105AA0001A6822F00E021A601A6822F001021A60C7
:105AB000174A93421FD0143293421ED0143293429D
:105AC0001DD0143293421DD0143293421DD0143293
:105AD000934214BF4FF080734FF480130D4A53600C
