:020000040800F2
:1000000000500020CD4B0008E9480008EB480008EC
:10001000ED480008EF480008F14800080000000023
:10002000000000000000000000000000F34800088D
:10003000F548000800000000F7480008F9480008EB
:10004000154C0008154C0008154C0008154C00080C
:10005000154C0008154C0008154C0008154C0008FC
:10006000154C0008154C0008154C0008FD48000808
:10007000154C0008154C00080949000815490008EE
:10008000154C0008154C0008214900082D490008AE
:1000900039490008154C0008154C0008154C00089B
:1000A0003D490008494900084D49000851490008E8
:1000B00055490008614900086D490008154C0008C1
:1000C000154C00087949000885490008154C0008BE
:1000D000154C000891490008154C0008154C000803
:1000E000154C0008154C0008154C000800000000D5
:1000F0000000000000000000000000000000000000
:0C01000000000000000000005FF808F1A3
:1001100010B5054C237833B9044B13B10448AFF341
:1001200000800123237010BD580200200000000051
:10013000DCB3000808B5034B1BB103490348AFF318
:10014000008008BD000000005C020020DCB3000855
:10015000034613F8012B002AFBD1181A0138704707
:100160007BB972B90029BEBF00204FF0004106E004
:1001700008BF00281CBF6FF000414FF0FF3000F0B7
:10018000B9B9ADF1080C6DE904CE002909DB002BEB
:100190001ADB00F035F8DDF804E0DDE9022304B0F5
:1001A0007047404261EB4101002B1BDB00F028F857
:1001B000DDF804E0DDE9022304B0404261EB4101D7
:1001C000524263EB43037047524263EB430300F038
:1001D00017F8DDF804E0DDE9022304B0404261EBEA
:1001E00041017047524263EB430300F009F8DDF828
:1001F00004E0DDE9022304B0524263EB430370479D
:100200002DE9F047089D0F4604468E46002B48D145
:100210008A42164661D9B2FA82F24AB1C2F120038B
:1002200001FA02FE20FA03F3964043EA0E0E9440D0
:100230004FEA164CBEFBFCF1B7B20CFB11EE01FB12
:1002400007F0230C43EA0E43984209D9F31801F151
:10025000FF3E80F0ED80984240F2EA80023933445C
:100260001B1AB3FBFCF00CFB103300FB07F7A4B226
:1002700044EA0344A74209D9341900F1FF3380F05E
:10028000D980A74240F2D6803444023840EA014087
:100290000021E41B1DB10023D440C5E90043BDE8A3
:1002A000F0878B4206D90DB1C5E90001002108464F
:1002B000BDE8F087B3FA83F1002947D1BB4202D3EE
:1002C000824200F20481841A67EB03020120964601
:1002D000002DE4D0C5E9004EE1E7002A00F090804F
:1002E000B2FA82F2002A40F0A780881B0121370C65
:1002F0001FFA86FEB0FBF7FC07FB1C00230C43EA49
:1003000000430EFB0CF0984207D9F3180CF1FF38AC
:1003100002D2984200F2E080C4461B1AB3FBF7F009
:1003200007FB10330EFB00FEA4B244EA0344A645CB
:1003300007D9341900F1FF3302D2A64500F2C98073
:100340001846A4EB0E0440EA0C40A3E7C1F12006D6
:100350008B4022FA06FC4CEA030C27FA06FA4FEA15
:100360001C49BAFBF9F88F4020FA06F309FB18AADA
:100370001FFA8CFE3B4300FA01F708FB0EF01C0C41
:1003800044EA0A44A04202FA01F20BD91CEB04042D
:1003900008F1FF3A80F09980A04240F29680A8F1DF
:1003A00002086444241A98B2B4FBF9F309FB13441D
:1003B00003FB0EFE40EA0444A64508D91CEB0404E6
:1003C00003F1FF307FD2A6457DD9023B644443EA66
:1003D0000840A4EB0E04A0FB028E74454346F14690
:1003E00061D35ED055B1FA1A64EB090404FA06F63B
:1003F00022FA01F31E43CC40C5E9006400214EE718
:1004000043084FEA510C43EAC1710A0C42EA0C421C
:100410008BB2C407B2FBF6F143EA0243BCFBF6FC25
:10042000B646304637461F22181A41EA0C4161E7AA
:10043000714615E7184629E7C2F1200321FA03F0B7
:10044000964024FA03F397403B43370CB0FBF7F890
:1004500007FB18001FFA86FE190C41EA004108FB51
:100460000EF0884204FA02F43AD9711808F1FF3C00
:1004700001D288421ED8091AB1FBF7F808FB0EF02A
:1004800007FB18119BB243EA014383422FD2F318B2
:1004900008F1FF31C8D28342C6D2A8F10201334429
:1004A000C2E747459ED2B8EB02036EEB0C0E013853
:1004B000F14697E7301A0144A8F1020CB1FBF7F8B6
:1004C00008FB0EF0DCE7034681E7D0466AE7084602
:1004D000FEE63444023834E7ACF1020C33441CE746
:1004E000091AC446B1FBF7F808FB0EF0C8E741460D
:1004F0009AE700BF704700BF00220A4930B50B8859
:10050000094D013810F8014F14B902B10B8030BD0C
:100510005A1C92B2B2F5806FEC5414BF13460023FC
:100520000122EFE7860200208E020020074A10B564
:100530001188074C4B1C9BB2B3F5806F138008BF2A
:100540000023605408BF138010BD00BF8602002046
:100550008E02002038B500240D460E4B01461C705B
:100560000D4B3F220D481C700AF078FA0B4B1F22EE
:1005700029460B4883F83F400AF070FA3222084BB4
:10058000DC77084B1A601422074B1A70074B1C705B
:1005900038BD00BF780B0020920A00201F0B0020FE
:1005A000FF0A0020740B0020790B00208402002039
:1005B000014B1878704700BF910A0020194B70B5A5
:1005C0005B6806460D4614463BB347F23053164966
:1005D0001648002A08BF1C460AF096FA0F22314638
:1005E00013480AF03BFA0023114A1249D3732846F4
:1005F0000A220AF0B1F90A2220460F490AF0ACF9A2
:100600000E4B1B7863B10E4B187810F0020003D02C
:10061000102206200B4B1A7070BD4FF0FF30FBE725
:100620000120F9E778020020F4B30008050000205B
:10063000EF0A0020E90A0020D30A00201F0B002047
:10064000780B0020790B0020064B5B683BB1064B12
:100650001B7813F0400F0CBF0520072070474FF0A8
:10066000FF30704778020020780B0020074A10B551
:100670001188074C4B1C9BB2B3F5806F138008BFE9
:100680000023605408BF138010BD00BF8C020020FF
:100690008E0600202DE9FF471F463D4B04465B6850
:1006A00088461546BDF83090002B6CD0394EDFF8E7
:1006B000E8A033789AF8001003F040020A4365D0AE
:1006C0001B0758D40A2201A938460AF045F901A8A7
:1006D000FFF73EFD421ED2B2032A4AD82F48FFF749
:1006E0000BFF9AF8003053B10A22694620460AF0FF
:1006F00033F96846FFF700FF2C20FFF717FF01A82A
:10070000FFF7FAFE2648FFF7F7FE002211462548BC
:10071000DFF894C0038894B2A74216D801B10380D1
:100720003378224C23F00C0343F00C03337023681E
:100730003BB11F489847236801A8984723681D4884
:100740009847092004B0BDE8F0875C1CA4B2B4F55A
:10075000806F08BF0024691C18F8055089B20CF896
:1007600003500132494514BF0D460025234601219F
:10077000D1E70B20E6E70D4B1B680BB90820E1E73A
:100780000D489847FAE74FF0FF30DBE70520D9E73F
:1007900078020020780B0020920A00206BBA000833
:1007A000F8B30008860200208E020020600B0020B3
:1007B000FBB300080AB600080EB4000802460F4B4F
:1007C0000068516803C390680D4A186000231370D5
:1007D0000C4A13700C4A13800C4A13800C4A138085
:1007E0000C4A13800C4A13700C4A13700C4A137095
:1007F0000C4A13600C4A1360704700BF7802002057
:10080000790B0020900A0020880200208602002038
:100810008A0200208C020020780B0020920A00201F
:10082000910A0020640B0020600B0020114A13681D
:100830000BB1013B1360104A136823B1013B1360F5
:100840000BB90E4A13700E4A13680BB1013B1360CB
:100850000C4A13686BB1013B136053B90A490A781B
:10086000100706D563F3C302084B0A701A88084BB9
:100870001A807047740B0020700B0020900A002033
:100880006C0B0020680B0020780B002086020020F3
:10089000880200202DE9F84FA54AA64EB2F800B014
:1008A000338800255B4506D0A34F3A78143A022AD4
:1008B00027D8A6F800B0A14EA14C3368002B40F019
:1008C0006D8264239C4D33602B78162B00F2668278
:1008D000DFE813F04404AD02C602CC02DA02E00203
:1008E000E902EF0202030D033E03480352038303B0
:1008F0008C039D03AC03FE033B04410459029802A0
:10090000A70202228F49904C0A609B45D3D08F4AA0
:10091000D05C22780D2A00F23182DFE812F00E005E
:100920005500CC002F022F02A501BA01C301D0014E
:100930002F02EB0108021A02F90100230421984654
:10094000DFF80CC2834ADFF810928CF80030117087
:100950005FFA83FE59F82E10D1B9B8F1000F01D01B
:100960008CF800E00022774B75491A600B7813F081
:10097000010F00F092803E2840F08F8062F3000368
:100980000B70764B1A604FF49672754B1A6084E0C8
:1009900091F804A00133824513D1B8F1000F01D0C2
:1009A0008CF800E00B784978303B313903EB830356
:1009B00001EB43036B490B80012323700523137064
:1009C0006BE04FF00108C3E7DFF884C162499CF88F
:1009D000002051F822205F49097812F801E086458D
:1009E00014D1DFF880C1BCF80030013B9BB2ACF8F9
:1009F00000300BB10D284DD19378D278303B03EB0A
:100A00008303303A02EB4303237046E00022914611
:100A1000C1F57F4A8CF800200AF1D30ADFF838C10B
:100A20005FFA82F85CF828C0BCF1000F0CD1B9F174
:100A3000000F04D04B4A1580454A82F800800022FE
:100A4000013B2270338028E09CF800E09CF80150C4
:100A5000AEF1300E0EEB8E0E554405EB4E05ADB2E9
:100A60007F2D24D81CF801E0864520D13D4B1D8008
:100A7000B9F1000F02D0364B83F8008055B99CF8CD
:100A800002309CF80320303B03EB8303303A02EB47
:100A9000430323702F4B01311970338801339BB20C
:100AA000B3F5806F338004BF002333802DE74FF010
:100AB00001090132B2E70A28EFD100232370244B49
:100AC0001B78023B0F2BE8D801A252F823F000BF9D
:100AD000110B0008690B0008850B00089B0A000831
:100AE000AF0B0008AF0B0008DD0B0008E70B000898
:100AF000050C0008DD0B00089B0A00082F0C0008FD
:100B00009B0A0008390C0008450C0008450C000839
:100B10003A78082AC1D84FF4AA73D340DB07BCD572
:100B20000022064B1A60064A137843F0200346E77A
:100B30008C0200208A020020790B0020740B002018
:100B4000780B0020700B0020900A00208E060020F9
:100B50007502002074020020ECB800086C0B002025
:100B6000680B00208E0A0020944A1378180794D549
:100B700023F009031370924B1A88924B1A80924B00
:100B8000002203E73B780D2B87D100228F4B1A60A0
:100B90008A4A137823F0220343F0220313708C4B0C
:100BA0001B68002B3FF479AF0320984775E7834A11
:100BB000137823F0420313703B780E3B052B3FF66E
:100BC0006CAF834B1B680BB100209847814B1B789F
:100BD000002B7FF462AF16233B705EE7774A1378F1
:100BE00023F04003EBE6754A137823F008031370F3
:100BF0000022754B1A60764B1B68002B3FF44DAFFB
:100C00000A20D2E7734B1B78002B7FF446AF6F4A64
:100C100013606A4A137823F0600343F06003137093
:100C20006B4B1B68002B3FF438AF0720BDE7634ACE
:100C3000137823F04203C2E6604A137823F042039C
:100C40001370C8E75D4A1378190706D523F0090326
:100C500013705B4B1A885B4B1A803B78013B0D2B62
:100C60003FF61BAF594B8BE75B4A2C28126807D124
:100C700006232370002A3FF410AF584890470CE732
:100C80000021013B21703380002A3FF406AF544815
:100C9000F4E722287FF401AF072300222370514B91
:100CA0001A80FAE6222803D04E4A1388102B01D16D
:100CB0000823A9E6591C11804B4AD054EDE60A28B6
:100CC0007FF4EBAE0023474A23701188464A0F2970
:100CD0009BBF5354394913700A789FBF42F02002DA
:100CE0000A703A4A13603A4B1B68002B3FF4D5AEAA
:100CF00004205AE72C287FF4A2AE364B1B782BB188
:100D00000D2300222370394B1A70C6E60B23C4E76B
:100D10002C28FBD0A0F13002092A3FF690AE334ACE
:100D2000137803EB830300EB4303303B47E63A2899
:100D300001D10C2368E6A0F13002092A3FF67FAE0C
:100D4000284A138803EB830300EB4303303B1380F3
:100D5000A3E6274B9B6803B19847224A1388013BBF
:100D60009BB21380002B7FF498AE23701A4B1B6844
:100D7000002B3FF492AE1F4898478EE600231E4A90
:100D80002370136089E61A4B00201B689847124BAA
:100D90001B680BB11948984715232B702378DA0785
:100DA00040F1E581164A126832B9054A23F0090379
:100DB0001188044A23701180BDE8F88F780B002059
:100DC0008602002088020020680B0020740B00209F
:100DD000640B0020920A0020600B002026B400085B
:100DE0003BB400088E0A0020D90A0020910A002096
:100DF000780200204FB40008700B002062B4000895
:100E00006C0B0020914B01201B689847904B1B688E
:100E10000BB19048984716232B704FF4FA73336048
:100E2000BCE7012300222B708B4B1A70B6E78A4A6D
:100E300013782BB1013BDBB213701BB91423ACE761
:100E4000042313702378854823F020032370FFF7D1
:100E500053FB7F4B1B680BB18148984702239CE7EB
:100E600023789E0640F17581032396E77D48FFF7BE
:100E700043FB774B1B680BB17B489847237823F0E3
:100E800020032370042388E72378980640F16181CA
:100E9000052382E77548FFF72FFB237823F0200313
:100EA0002370062379E72378990640F152810723BE
:100EB00073E76F4B1B786BB16E48FFF71DFB644BFC
:100EC0001B680BB16C489847237823F020032370EC
:100ED000082362E76948F0E723789A0640F13981F0
:100EE000634B1B78002B0CBF0C23092355E7644888
:100EF000FFF702FB2220FFF719FB6248FFF7FCFA1D
:100F00002220FFF713FB2C20FFF710FB2220FFF716
:100F10000DFB5D48FFF7F0FA2220FFF707FB2C20BE
:100F2000FFF704FB5948FFF7E7FA2C20FFF7FEFA1A
:100F30005748FFF7E1FA0D20FFF7F8FA0A20FFF70C
:100F4000F5FA434B1B680BB1524898470A2324E734
:100F50005148FFF7D1FA3E4B1B680BB14F489847F9
:100F60000B231AE74E48FFF7C7FA394B1B680BB142
:100F70004C489847132310E74B4F3B78002B3FF426
:100F80000DAF4A48FFF7B8FA2220FFF7CFFA3846EC
:100F9000FFF7B2FA2220FFF7C9FA2C20FFF7C6FAB2
:100FA0002220FFF7C3FA4248FFF7A6FA2220FFF7F4
:100FB000BDFA0D20FFF7BAFA0A20FFF7B7FA244B63
:100FC0001B680BB13B489847237823F0200323701C
:100FD0000D232B7040F2DC5321E723789B0640F170
:100FE000B8800E2304222B701B4B1EE70022324BCD
:100FF00032481A70FFF780FA154B1B680BB1304866
:101000009847237823F0200323700F23C5E6237825
:101010009F0601D51023C0E60F4A1378013BDBB2CF
:101020001370002B00F095800E23B6E6254B1B783D
:10103000002B3FF4B3AE2448FFF75EFA044B1B6865
:101040000BB1224898471123A7E600BF7802002081
:10105000600B002078B4000884020020B5BA0008B4
:101060008EB40008A7BA00089CB40008B0B4000809
:10107000920A0020C2B40008DEB40008D0B4000810
:101080005DBA0008B30A0020930A00200200002085
:1010900000000020F2B4000849BA000805B50008B5
:1010A00035BA000819B500081F0B00209DBA0008CA
:1010B000FF0A002030B50008D90A002092BA0008C3
:1010C00043B50008EF0A002077BA000854B50008BD
:1010D0003C48FFF711FA2220FFF728FA3A48FFF7B9
:1010E0000BFA2220FFF722FA2C20FFF71FFA22200A
:1010F000FFF71CFA3548FFF7FFF92220FFF716FA31
:101100002C20FFF713FA3248FFF7F6F92C20FFF7EF
:101110000DFA3048FFF7F0F92C20FFF707FA3020DE
:10112000FFF704FA0D20FFF701FA0A20FFF7FEF996
:10113000294B1B680BB129489847237823F060039B
:10114000237012232B70C82369E623789E063FF58F
:1011500011AF012321E6224B1B780BB100235EE681
:1011600023789807F5D559067FF554AFF6E71D4D5E
:101170001D492A88098891423FF41EAE1B4E5F0725
:10118000B05C02D53E2808BF0A20194B5B6898471F
:1011900000283FF411AE22782B8851070AD5F15C64
:1011A0003E2907D1322122F0050242F001022270CD
:1011B000104A116001339BB2B3F5806F08BF002362
:1011C0002B80F9E585BA000805000020EF0A002011
:1011D000E90A0020D30A0020600B00206AB500084D
:1011E000920A002088020020860200208E02002041
:1011F000780200206C0B0020014B1860704700BF84
:10120000640B0020014B1860704700BF600B00208A
:101210000022F0B5084BD4B2A14202F1010200D87D
:10122000F0BD5D791E686F1C5F71045D74555C795B
:10123000DD792C405C71EEE720120020021E18BF01
:1012400001224FF40071014804F02CBB000C014056
:101250001FB514461A464FF0FF330091CDE9014304
:1012600001460123024804F0BDFD04B010BD00BFDB
:1012700078140020FFF7ECBF13B514461A46CDE9E9
:10128000001401230146024804F03CFE02B010BDE8
:101290007814002013B514461A46CDE90014012332
:1012A0000146024804F0F4FE02B010BD781400209C
:1012B00007B501228DF807000DF10701034807F07B
:1012C000E4FCB0FA80F0400903B000BD88120020B1
:1012D00010B50446FEF73CFF81B22046BDE8104041
:1012E00009F080B910B5164B1B78F3B115490C788D
:1012F000FF2C15D07E2C144B13D818550020621CDF
:10130000D2B2012A0A7098540AD0134413F8022C5E
:101310000D2A05D113F8013C0A2B01D1FF230B70D4
:1013200010BD00220A701A70FAE7084B5A79196842
:10133000541C5C7188545A79D9790A405A71EFE784
:10134000610D0020620D0020630D002008120020B6
:10135000032810B5184C15D10C21184B18481A78D1
:10136000184B01FB02330F22996809F077FB002329
:10137000134A2370D3730122134B1A700522134BA7
:101380001A7010BD124B22781B7813431843C0B259
:101390000028F6D1012340F6B8320C2123700D4B02
:1013A000BDE810401A80054B064A1B784B43D11804
:1013B0004968D058FFF7CEB80A0C00200B0C00206B
:1013C000500000203CD000080C0C002060000020E1
:1013D000610D00204C000020038830B58B421FD2E5
:1013E000C38B8B4219D9002330F8024BA14211D391
:1013F000028891420ED80B48121BC55A0230C35ABC
:10140000091B5B1B500801FB0300B0FBF2F02844F2
:1014100080B230BD02331E2BE6D14FF47A70F8E76C
:101420000020F6E79CCF0008054B064A03F11001A7
:1014300053F8040B8B4242F8040BF9D1704700BFFC
:1014400048120020381200200122014B1A70704708
:10145000811200200122014B1A7070478012002077
:1014600002681E4B10B59A42044612D11C4A1D490F
:1014700013781D480133DBB2282B01BF0023137002
:101480001A4A137808BF43F080031370082203F050
:1014900085FD2368B3F1804F0FD10122144915480F
:1014A0000B78154CC2541344227803F00F03013A11
:1014B00012F0FF020B7001D0227010BD05222270C5
:1014C0000E4A1478032C02D01278042AF5D1002297
:1014D000C254013303F00F030B70EEE7002C014000
:1014E000821200204812002010150020020E002059
:1014F000581200205912002066000020841200209B
:10150000F0B5026883790C46D15C0546A1F1A003D1
:1015100091B0512B00F2D986DFE813F052005C0045
:101520006C00B80007013201AB01C8015301710121
:101530008E010A0250046D048A04A704C404E10465
:101540002902FE041B053805550573059105AF05F5
:10155000D706D706D706D706D706D706CD05440245
:101560006102EB0509062C064A0668068606A406F3
:10157000C206D706D706D706D706D706D706D70698
:10158000D706D706D706D706D706D706D706D70673
:10159000D706D706D706D706D706D706D706D70663
:1015A000D706D706D706D706D706D706D706D70653
:1015B000D706D706D706D706D706D7068602CC03A6
:1015C000A0210222204603F008FA0D21204603F054
:1015D0004CFA08E0A1210D22204603F0FEF9204636
:1015E000C14903F055FA2046217A11B0BDE8F04018
:1015F00003F03BBA0D22A221204603F0EEF9BB4BCB
:10160000BB4DB3F9001020462980C9B203F02DFA72
:101610006978204603F029FAB64B2046B3F900104A
:101620002980C9B203F021FA6978204603F01DFA37
:10163000B14B2046B3F900102980C9B203F015FA66
:101640006978204603F011FAAC4B2046B3F900103C
:101650002980C9B203F009FA6978204603F005FA37
:10166000A74B2046B3F900102980C9B203F0FDF959
:101670006978204603F0F9F9A24BB3F900102980EC
:101680002046C9B203F0F1F969789FE79E4E112216
:10169000A321204603F0A1F9954D318820462980E9
:1016A000C9B203F0E2F96978204603F0DEF97188E7
:1016B00020462980C9B203F0D8F96978204603F0A2
:1016C000D4F9B18820462980C9B203F0CEF96978EF
:1016D000204603F0CAF9F18820462980C9B203F0F8
:1016E000C4F96978204603F0C0F931892046298081
:1016F000C9B203F0BAF96978204603F0B6F97189E6
:1017000020462980C9B203F0B0F96978204603F079
:10171000ACF9B18920462980C9B203F0A6F96978ED
:10172000204603F0A2F9F189A9E70222A42120466C
:1017300003F053F90D21204603F097F9217A204652
:1017400003F093F900220121284603F0C6F9684C02
:10175000002201212070284603F0BFF96070B4F91F
:1017600000202388002A6949694AB5BF5B4213807B
:101770000B800023B6BF00230B80138011B0F0BD97
:101780000222A521204603F028F90D21204603F06E
:101790006CF9217A204603F068F9002201212846DD
:1017A00003F09BF9524C002201212070284603F0DF
:1017B00094F96070B4F900202388002A5549564AEC
:1017C000D3E70222A821204603F007F90D21204685
:1017D00003F04BF9217A204603F047F9002201215A
:1017E000284603F07AF9424C002220700121284655
:1017F00003F073F960702288484B1A80BEE702221A
:10180000A921204603F0E9F80D21204603F02DF927
:10181000217A204603F029F900220121284603F00D
:101820005CF9334C002220700121284603F055F961
:10183000607022883A4BE0E70222AA21204603F09A
:10184000CCF80D21204603F010F9217A204603F050
:101850000CF900220121284603F03FF9244C002214
:1018600020700121284603F038F9607022882D4B42
:10187000C3E70222A621204603F0AFF80D2120463F
:1018800003F0F3F8217A204603F0EFF8002201215B
:10189000284603F022F9164C002220700121284628
:1018A00003F01BF9607022881F4BA6E70222A721D4
:1018B000204603F092F80D21204603F0D6F8217A55
:1018C000204603F0D2F800220121284603F005F952
:1018D000074C002220700121284603F0FEF86070BA
:1018E0002288124B89E700BF6CD000087E120020CE
:1018F000040E00207C1200207A12002078120020B2
:10190000761200207412002038120020FC0D0020F6
:10191000FA0D0020000E0020FE0D002044000020E3
:1019200042000020D40B00203C0000203E0000209C
:101930000222AB21204603F050F80D21204603F08F
:1019400094F8217A204603F090F8002201212846DD
:1019500003F0C3F8304C002220700121284603F028
:10196000BCF86070B4F900202C4B1A6006E7022224
:10197000B221204603F031F80D21204603F075F81E
:10198000217A204603F071F800220121284603F055
:10199000A4F8214C002220700121284603F09DF874
:1019A0006070EBE60222C121204603F016F80D21FB
:1019B000204603F05AF8217A204603F056F8002218
:1019C0000121284603F089F8134C002220700121E0
:1019D000284603F082F860702288114B0DE702223E
:1019E000C221204602F0F9FF0D21204603F03DF808
:1019F000217A204603F039F800220121284603F01D
:101A00006CF8054C002220700121284603F065F88F
:101A100060702288034BF0E6040E002034000020A2
:101A2000640000206200002000254F22F0212046A3
:101A300002F0D3FFB94B03AF1B88ADF80C30B84BA5
:101A40001B88ADF80E30B74B1B88ADF81030B64B85
:101A50001B88ADF81230B54B1B88ADF8143037F940
:101A6000026B2046F1B203F000F801352046C6F3C0
:101A7000072102F0FAFF052DF1D1AD4D204629785E
:101A800002F0F3FF6978204602F0EFFFA9782046C4
:101A900002F0EBFFE9780025204602F0E6FFA54BB7
:101AA000ADF830501B8809AFADF82430A24B1B882D
:101AB000ADF82630A14B1B88ADF82830A04B1B8811
:101AC000ADF82A309F4B1B88ADF82C309E4B1B88FD
:101AD000ADF82E3037F9026B2046F1B202F0C5FFA7
:101AE00001352046C6F3072102F0BFFF072DF1D1D3
:101AF0000025964B06AF1B88ADF81830944B1B8819
:101B0000ADF81A30934B1B88ADF81C30924B1B88F4
:101B1000ADF81E30914B1B88ADF82030904B1B88E0
:101B2000ADF8223037F8026B2046F1B202F09DFF8B
:101B300001352046310A02F098FF062DF2D100252A
:101B4000884B01AF1B88ADF80430874B1B88ADF87C
:101B50000630864B1B88ADF80830854B1B88ADF8E6
:101B60000A3037F8026B2046F1B202F07EFF0135F1
:101B70002046310A02F079FF042DF2D17D4B00217D
:101B8000B3F90050204602F070FF0021204602F019
:101B90006CFFE9B2204602F068FFC5F3072120463A
:101BA00002F063FF744B754AB3F90060B2F900505C
:101BB0001978204602F059FFC6F30721204602F0AB
:101BC00054FFE9B2204602F050FFC5F307216C4DE7
:101BD000204602F04AFF2978204602F046FF697845
:101BE000204602F042FFA978204602F03EFFE97845
:101BF000204602F03AFF634B634AB3F90060B2F942
:101C000000501978204602F030FFC6F30721204625
:101C100002F02BFFE9B2204602F027FFC5F30721AF
:101C20005A4D204602F021FF2978204602F01DFF80
:101C30006978574D204602F018FFA978204602F037
:101C400014FF69882046090A02F00FFFA97920468F
:101C500002F00BFFE9882046090A02F006FFA97A84
:101C6000204602F002FF69894A4D090A204602F027
:101C7000FCFE29882046C9B202F0F7FE2988464DAD
:101C8000C1F30721204602F0F0FE29882046C9B2A0
:101C900002F0EBFE2988414DC1F30721204602F0F6
:101CA000E4FE29882046C9B202F0DFFE2988C1F38C
:101CB00007218BE400261D22F121204602F08DFE33
:101CC000374B09AF1B680993364B1B680A93364B99
:101CD0001B680B93354B1B680C93354B1B680D939E
:101CE000344B1B680E93344B1B680F9357F8045BFF
:101CF0002046E9B202F0B9FEC5F30721204602F002
:101D0000B4FEC5F30741204602F0AFFE013620467F
:101D1000290E02F0AAFE072EE8D164E44400002058
:101D2000D40B0020420000203C0000203E00002098
:101D3000340000202A00002028000020D20B0020C0
:101D4000D00B002026000020300000201C000020C6
:101D50001600002018000020140000201A000020A7
:101D6000120000203A00002038000020640000200B
:101D700062000020240000202E0000202C00002003
:101D8000F80B002022000020200000201E00002070
:101D900038120020080C0020060C0020040C002043
:101DA000E80B0020DC0B0020E00B0020D80B00200B
:101DB000F40B0020B80B0020480000200222AC21C8
:101DC000204602F00AFE0D21204602F04EFE217A46
:101DD000204602F04AFE00220121284602F07DFE44
:101DE000D44C002220700121284602F076FE60705B
:101DF0002288D14B01E50222AD21204602F0EDFD03
:101E00000D21204602F031FE217A204602F02DFEFF
:101E100000220121284602F060FEC64C00222070FC
:101E20000121284602F059FE60702288C34BE4E489
:101E30000222AE21204602F0D0FD0D21204602F004
:101E400014FE217A204602F010FE002201212846CD
:101E500002F043FEB74C002220700121284602F018
:101E60003CFE60702288B64BC7E40222AF212046B8
:101E700002F0B3FD0D21204602F0F7FD217A204645
:101E800002F0F3FD00220121284602F026FEA94CB3
:101E9000002220700121284602F01FFE6070228877
:101EA000A84BAAE40222B021204602F096FD0D21A3
:101EB000204602F0DAFD217A204602F0D6FD00220B
:101EC0000121284602F009FE9A4C002220700121CF
:101ED000284602F002FE607022889B4B8DE40222AD
:101EE000B121204602F079FD0D21204602F0BDFD12
:101EF000217A204602F0B9FD00220121284602F095
:101F0000ECFD8C4C002220700121284602F0E5FDFA
:101F1000607022888D4B70E40222B321204602F0CB
:101F20005CFD0D21204602F0A0FD217A204602F042
:101F30009CFD00220121284602F0CFFD7D4C0022AD
:101F400020700121284602F0C8FD60702288804B75
:101F500053E40222B421204602F03FFD0D21204629
:101F600002F083FD217A204602F07FFD002201214C
:101F7000284602F0B2FD6F4C002220700121284655
:101F800002F0ABFD60702288724B36E40222B5216C
:101F9000204602F022FD0D21204602F066FD217A46
:101FA000204602F062FD00220121284602F095FD44
:101FB000604C002220700121284602F08EFD6070E6
:101FC0002288654B19E40222B621204602F005FD65
:101FD0000D21204602F049FD217A204602F045FD00
:101FE00000220121284602F078FD524C0022207088
:101FF0000121284602F071FD60702288574BFFF7DF
:10200000FCBB0222B721204602F0E7FC0D2120464E
:1020100002F02BFD217A204602F027FD002201214B
:10202000284602F05AFD434C002220700121284628
:1020300002F053FD60702288494BFFF7DEBB02229D
:10204000B821204602F0C9FC0D21204602F00DFD0A
:10205000217A204602F009FD00220121284602F0E3
:102060003CFD344C002220700121284602F035FD51
:10207000607022883B4BFFF7C0BB0222B92120468B
:1020800002F0ABFC0D21204602F0EFFC217A204645
:1020900002F0EBFC00220121284602F01EFD254C37
:1020A000002220700121284602F017FD607022886E
:1020B0002D4BFFF7A2BB0222C021204602F08DFC6F
:1020C0000D21204602F0D1FC217A204602F0CDFC01
:1020D00000220121284602F000FD164C002220704B
:1020E0000121284602F0F9FC607022881F4BFFF79F
:1020F00084BB0222C321204602F06FFC0D21204642
:1021000002F0B3FC217A204602F0AFFC002201214C
:10211000284602F0E2FC074C0022207001212846EC
:1021200002F0DBFC60702288114BFFF766BB0222D5
:10213000C4211EE4040E00202A00002028000020F4
:10214000D20B0020D00B0020260000203000002001
:102150001C000020160000201800002014000020A1
:102160001A000020120000203A0000203800002051
:10217000240000200222C521204602F02EFC0D2161
:10218000204602F072FC217A204602F06EFC00220A
:102190000121284602F0A1FC4F4C002220700121B1
:1021A000284602F09AFC607022884C4BFFF725BB52
:1021B0000222C621204602F010FC0D21204602F02A
:1021C00054FC217A204602F050FC002201212846CE
:1021D00002F083FC404C002220700121284602F0CE
:1021E0007CFC607022883E4BFFF707BB0222C721B0
:1021F000204602F0F2FB0D21204602F036FC217A47
:10220000204602F032FC00220121284602F065FC43
:10221000314C002220700121284602F05EFC6070E3
:102220002288304BFFF7E9BA0222C821204602F08B
:10223000D4FB0D21204602F018FC217A204602F042
:1022400014FC00220121284602F047FC224C002207
:1022500020700121284602F040FC60702288224B49
:10226000FFF7CBBA0222C921204602F0B6FB0D21AE
:10227000204602F0FAFB217A204602F0F6FB00220B
:102280000121284602F029FC134C00222070012174
:10229000284602F022FC60702288144BFFF7ADBA8A
:1022A000134D04222B88CA21013320462B8002F0D3
:1022B00094FB0D21204602F0D8FB29882046090A0C
:1022C00002F0D3FB2978FFF781B90222204602F001
:1022D00084FBFF21FFF77AB9040E00202E000020B6
:1022E0002C00002022000020200000201E000020E2
:1022F000AC0B0020F0B516464379027905469A42A8
:102300000C46C3B01DD002F0F5FBD0B1012E04BFC6
:102310000022154B2146284608BF1A70FFF7F0F837
:102320000022617A02A8D3B299420CD8C6B1FEF756
:102330003FF94FF4807300930022637A02A9FEF7FD
:10234000A9F943B0F0BDA77925687B1CDBB2A37166
:10235000ED5D013200F8015BE5792B40A371E2E706
:1023600002A808F03FF9ECE76000002010B50D4B23
:102370000D4C1A780D4B0E4853F822100122237889
:1023800002FA03F38B4308BF1A464FF4005103F0DF
:1023900089FA23780133DBB2142B28BF0023237082
:1023A00010BD00BF83120020AA0B00206C0000208B
:1023B000001001402DE9F0418C4B8D4C1B788AB008
:1023C000032B5FFA83F840F02B810025012001F0F8
:1023D00095FE4023202229461E20009501F0DEFFB5
:1023E0001623802214212846009501F0D7FF4023B0
:1023F000522229465020009501F0D0FF7D4E2946FB
:10240000282001F07FFF7C4902A808F07DFB96E8B8
:102410000E00009502A801F05FFF2946552001F04B
:1024200071FF764902A808F06FFB96E80E00009550
:1024300002A801F051FF1921282001F063FF704B21
:102440002021B3F900306F4A02A808F0C9FA94E8D5
:102450000E00009502A801F03FFF1921552001F060
:1024600051FF694B2021B3F90030664A02A808F0F9
:10247000B7FA94E80E00009502A801F02DFF25217F
:10248000282001F03FFF614B2021B3F900305D4A65
:1024900002A808F0A5FA94E80E00009502A801F041
:1024A0001BFF2521552001F02DFF594B2021B3F9A9
:1024B0000030544A02A808F093FA94E80E00009500
:1024C00002A801F009FF3121282001F01BFF514B28
:1024D0002021B3F900304B4A02A808F081FA94E8B1
:1024E0000E00009502A81E2601F0F6FE31215520AF
:1024F00001F008FF484B2021B3F90030414A02A8FF
:1025000008F06EFA94E80E0040F6FA74434F009516
:1025100002A801F0E1FE3B8842467343B3FBF4F3AB
:10252000C3F13C033C214046DBB2009501F0F0FED4
:102530007B8806227343B3FBF4F3C3F13C031046DC
:102540003C21DBB2009501F0E3FEBB880922734316
:10255000B3FBF4F3C3F13C0310463C21DBB200951E
:1025600001F0D6FEFB880C227343B3FBF4F3C3F1F6
:102570003C0310463C21DBB2009501F0C9FE3B89CB
:102580000F227343B3FBF4F3C3F13C0310463C2129
:10259000DBB2009501F0BCFE7B8912227343B3FBD2
:1025A000F4F3C3F13C0310463C21DBB2009501F08B
:1025B000AFFEBB8915227343B3FBF4F3C3F13C03B5
:1025C00010463C21DBB2009501F0A2FE1822FB89E7
:1025D0003C217343B3FBF4F31046C3F13C03009575
:1025E000DBB201F095FE0AB0BDE8F0818412002054
:1025F000C8BA0008BCBA000880B5000884B5000855
:102600007E12002088B50008781200207C1200207D
:10261000761200207A120020741200203812002056
:10262000002001F06BFD02210125084601F06AFE41
:1026300094E80E004548009501F04EFE022124204A
:1026400001F060FE424B20211B68424A02A808F0BC
:10265000C7F994E80E00009502A801F03DFE112193
:10266000022001F04FFE94E80E003B48009501F077
:1026700033FE1121242001F045FE0522374B202195
:102680001B6802A803EB430393FBF2F3344A08F000
:10269000A7F994E80E00009502A801F01DFE202184
:1026A000022001F02FFE94E80E002E48009501F064
:1026B00013FE2021242001F025FE64212A4E02A8C9
:1026C000326892FBF1F301FB1322002AB8BF524299
:1026D00020210092254A08F083F994E80E00009525
:1026E00002A801F0F9FD2F21022001F00BFE94E871
:1026F0000E001F48009501F0EFFD24202F2101F06E
:1027000001FE42F226323368009503F58C531333F1
:10271000934298BF174894E80E0088BF164801F00E
:10272000DBFD01240E237F2219460020009401F0D6
:10273000EFFD1D237F2219460020009401F0E8FDE3
:102740002C237F221946002000944AE78BB500080D
:102750007012002090B5000899B500086C12002096
:102760009EB50008A8B50008F40B0020ADB5000820
:10277000B7B50008BCB50008C6B5000837B53F4B73
:102780003F4C1A782AB11A78012A02D01B78022B02
:1027900016D12378013B012B12D800232370394A2C
:1027A000394B11781B788B4208D038484B1C415C60
:1027B00003F00F0391B103212170137003B030BDFA
:1027C0002378032B57D801A252F823F09F27000843
:1027D000E1270008EB270008052800080121EBE7A6
:1027E000FFF7E8FD02232370E8E7294804F044FCE2
:1027F0002028E3D101F0A8FC0028DFD00023254ADF
:102800001370F0E7224804F03AFC234D10B14FF466
:102810007A732B601E4804F02FFC202816D101F09B
:10282000B3FB98B11D4B1E4A01931E4B1E490093EA
:102830001E481F4B01F0F0FB00231E4A1E49137077
:102840000A7842F008020A702B60CCE72B6801334B
:10285000B3F5FA7F2B60B1D90D4803F0A9FA012036
:1028600002F022FA0A4803F0FBF901F05FFB01F0E5
:102870007DFB0023E8E70023B5E700BF84120020BA
:10288000A90B0020A80B002058120020591200208C
:102890007814002081120020A40B00207412002064
:1028A0007A120020761200207C1200207E12002076
:1028B0007812002080120020020E0020074B084AE8
:1028C0001B6812885A63074A1288DA63064A12881C
:1028D0009A63064A12881A64704700BF18130020D2
:1028E000000E0020FC0D0020FE0D0020FA0D00203F
:1028F00013B50B4B044600934FF4AA71094B0A4AD7
:102900000A4808F06DF84FF4AA730022009320469D
:1029100040F243130549FDF7BDFE02B010BD00BFF4
:1029200011B60008CCB500080CB600080D0C00204C
:1029300013B50A4B044600934FF4AA71084B094A99
:10294000094808F04DF84FF4AA730022009320467E
:10295000B3230549FDF79EFE02B010BD16B700086F
:10296000CCB500080CB600080D0C00202DE9F8438A
:1029700000241F460C7014701C7047F23A53089DD7
:1029800089462B8032490646904608F07AF858B1BD
:10299000043010F8013FE2B213F0DF0F01D0262B14
:1029A00036D1002309F8023030462A4908F069F888
:1029B00060B10023043010F8012FD9B212F0DF0FFC
:1029C00001D0262A2ED1002308F8013030462249B2
:1029D00008F057F858B10023C21C12F8011FD8B2F2
:1029E00011F0DF0F01D0262926D100233B543046B9
:1029F0001A4908F046F848B10023053010F8012FB5
:102A0000303AD1B209291DD903B12B80BDE8F88332
:102A10002B2B08BF202309F8043001343F2CB8D1F8
:102A20002246BEE72B2A08BF202208F803200133E4
:102A30003F2BC0D11946C6E7F95401330F2BCCD137
:102A40001846D2E703EB830302EB430293B2D5E7C8
:102A50008BB7000891B7000897B700089CB700082B
:102A60002DE9F043344BA9B01E785EB100221A70F4
:102A700047F23152314B3248198829B0BDE8F04352
:102A8000FDF79CBDDFF8BC9099F80030002B42D0D8
:102A90002D4F3B78FF2B3ED1FDF78AFD2B4C804616
:102AA0002B49204607F0EDFF0546002836D040228E
:102AB000314608A807F0CAFF4022314618A807F09F
:102AC000C5FF102231460DEB020007F0BFFF0DF1EC
:102AD0000E030093204604AB18AA08A9FFF746FF8F
:102AE0009DF8103033B1164B0F22184604A907F099
:102AF000B5FFC673BDF80E300BB1104A13804046C7
:102B0000FFF716FF002318A908A889F800303B70CA
:102B10002370FDF71FFD29B0BDE8F08320460D4965
:102B200007F0AFFF28B14046FFF7E2FE3D70257089
:102B3000F1E738702070EEE70C0C00204E0000200A
:102B400050000020610D0020620D0020630D002068
:102B5000A3B70008ADB7000840F2012303800023AB
:102B600083708380C380704702780346032A1DD890
:102B7000DFE802F00F021407427842B903221A700C
:102B800005E0417801220029F9D10170827000200E
:102B900070474278012AFAD10222F0E740780022F9
:102BA0000128ECD118709A70D87170470122E6E7BD
:102BB00070B504464FF400411D4802F06DFEA67842
:102BC0001C4A1D491D4DAEB188B113780133DBB2EB
:102BD000072B137003D901236370002313700023A4
:102BE0000B702B78EBB1A3880A33A38070BD6070A3
:102BF0001070F4E70B781670042B0FD9003818BF4B
:102C000001200E70607000232B70A3796BB1A38834
:102C1000002BEBD0092B08D90A3BE6E701330B70F8
:102C2000F1E7A38001232B70DDE70023DDE700BF80
:102C3000000C0140A20B0020A10B0020A00B0020E3
:102C400037B53E4D2B78DB0934D02B7823F0800349
:102C50002B70FDF7EBFD3A48FFF7AAFF394890F8D3
:102C60004230222B09D0036837491A685B68202359
:102C7000012280F8423006F0E8F9344B1B7823B18A
:102C800033490A88C2B1013A0A80324A1378013BBB
:102C900013F0FF0303BF022313702B78137004BFDC
:102CA00043F040032B702C4B1C78013C14F0FF04C4
:102CB00017D01C7003B030BD284803780133DBB255
:102CC000032B94BF1A461346027040F6B8320A80AE
:102CD0000C214B43224AD1184968D058FDF73AFCE1
:102CE000D3E70A221A702B7843F020032B70FFF7EA
:102CF0003DFB1C4A13780133DBB2092B01D813705A
:102D0000D8E71470184C2378042B9CBF0133237030
:102D1000164B1D78002DCDD1FDF796FC0728C9D1A3
:102D20002378042BC6D94FF480732A460093284693
:102D300009230F49FDF7AEFCBCE700BF020E0020DF
:102D4000E40D002088120020F80D00200A0C00205D
:102D50004C00002067000020680000200B0C0020C1
:102D60003CD00008F90D002060000020610D00201B
:102D70000900002070B583780446002B43D1838876
:102D8000002B40D18379002B3DD0C579EDB140F6C1
:102D9000B732A38893423CD8A3F5FA62B2F57A7FA2
:102DA0003BD2294804F068F920282FD100250426B9
:102DB000E571264B1E7001F009FA012001F022FB9B
:102DC000234BA5711E70A58020E01F4804F054F924
:102DD00020281BD1284601F091F901F09BF92846E3
:102DE00001F010FBA279194B022A05D0032A0ED05C
:102DF000012A01D11D7002E0012201251A70144B35
:102E00001D700023A371E379002BC0D170BD022592
:102E1000F0E70023E371A380F8E7A3F57A73B3F535
:102E20007A7F08D2084804F027F92028EED100253F
:102E30000326E571BDE70023E371A3790133A37194
:102E40004FF4C873E7E700BF781400208412002015
:102E50008312002038B50C46054601880948FEF764
:102E6000BBFA208069880848FEF7B6FA6080A98816
:102E70000648FEF7B1FAA080E9880548FEF7ACFAEB
:102E8000E08038BD1CD00008FCCF0008DCCF000873
:102E9000BCCF000810B594B0142200210CA807F094
:102EA000D5FD142200210DEB020007F0CFFD10220A
:102EB000002101A807F0CAFD02244FF4803301224B
:102EC000CDE91143CDE90A234FF4E0130AA80E928D
:102ED000139304F04FFF08B172B6FEE70F23CDE95C
:102EE00005344FF480630790CDE90830214605A8EA
:102EF00005F002F908B172B6FEE7122301934FF410
:102F00000043CDE9033001A805F0B2F908B172B66B
:102F1000FEE714B010BD00000268084B10B59A42DD
:102F20000AD1074C2078FDF7A1FB2146BDE81040EF
:102F30000122044806F089B810BD00BF00380140E6
:102F4000F80D0020881200200368074A934209D137
:102F50001A685B682023012280F842300349044844
:102F600006F073B8704700BF00380140F80D00202C
:102F70008812002000000000854A2DE9F04F1568F6
:102F8000844ADFF814A21468844ADAF80030B2F9EF
:102F900000B0834A85B0B2F90090824A0390B2F93A
:102FA0000020029243EA0502224300F0A3805A2146
:102FB0000A224B4302FB0B3064234D434C430299DE
:102FC00002FB095502FB014490FBF3F095FBF3F57E
:102FD00094FBF3F40190019B734ACAF800306C4BE8
:102FE000B2F900701D606B4B1C60704B1B68002BAE
:102FF00000F085803B4403EBD3735B1000934FF4E8
:103000008F704FF06408694B009A1A60684A116823
:1030100000FB01F292FBF8F681FB01024FEAE17C32
:1030200000FB0CFC01FB02CC55A3D3E90023A0FB61
:1030300001016144FDF794F8301A5E4E33889BB26B
:10304000952B5ED833889BB2272B2DD85A4B4FF443
:103050008F701F60594B4E49B3F90020584BC1F88F
:1030600000901A6023237B43564A4A49136093FB1E
:10307000F8F3029C4E4A0C60136000FB03F483FBE0
:103080000302DD174543A0FB030103FB02553CA3EC
:10309000D3E90023CAF800B02944FDF761F894FB96
:1030A000F8F4424B201A1F6033889BB2312B06D9AB
:1030B0003E4B454A1B6811681B1A0B44136033884A
:1030C00001339BB2338033889BB2962B06D16422A6
:1030D0003D4B1B6893FBF2F33C4A138000233C4AB0
:1030E00013603C4A13602B4B1A683B4B1A6005B0C7
:1030F000BDE8F08F4D46029CCDF804B06BE7009719
:103100007DE7354B00991A681C60304BA21A644366
:10311000B3F9003005FB0544CB1A01991B1A69432A
:103120002E482C4DB4FBF0F491FBF0F11B1B0B442B
:10313000062192FBF1F21344254A039813601368A9
:1031400040F6262203F21351914298BF00230399BF
:10315000DA17A3FB013100FB0211D81841EB01067D
:10316000C01841EB060108A3D3E90023FCF7F8FFE0
:1031700062232C685C4394FBF8F404442C60B6E7AB
:10318000420A1B0400000000404B4C0000000000FD
:103190008C0B0020880B0020900B00207812002060
:1031A00076120020741200207E120020840B002072
:1031B000F40B00206A120020F00B00207A1200208D
:1031C000EC0B0020F80B00207C0B0020B20B002041
:1031D0006C12002070120020800B00202851220069
:1031E0002DE9F04FB14A85B013781B0740F1FB82FF
:1031F000137823F008031370AD4B5A68AD4B1C686D
:10320000002C00F0B0804821141BB4FBF1F41A60CC
:1032100044F62063A84AA4F57A71914288BF1C46FF
:103220004FF47A73B4FBF3F3A44A68461360A44ADC
:10323000A44DD18853885289ADF800300B44ADF8C5
:10324000042013440322B3FBF2F3ADF8021002A9E9
:10325000ADF80630FFF7FEFDBDF908109A4ABDF83B
:1032600008801180BDF90A10984ABDF80AE0118063
:10327000BDF90C10964ABDF80C30118008EB0E0217
:103280001A44012AB8BF0122924893492E68076860
:103290000A60924A924956EA070CB2F90020B1F945
:1032A00000100ED04FF05F0C02EB82020CFB0622E6
:1032B000642601EB81010CFB071192FBF6F291FBF6
:1032C000F6F1016001F57A61B1F5FA5F88BF23215B
:1032D0002A6088BF4A436FF0C701824D824888BF89
:1032E0002A60824AB2F900204A43832192FBF1F21C
:1032F0007F490A6001680A442968312505FB0211EB
:103300007C4A914232DC7C4A914231DB322291FB91
:10331000F2F16422016091FBF2F1784ABEF5FA7F86
:103320001068D4BF002201224FF0000CB8F5FA7FDC
:10333000C8BF0132724FDFF8CCB1734D97F800A0CF
:10334000B3F5FA7FC8BF0132704ECBF80010C5F854
:1033500000C0BAF1030F00F2AB81DFE81AF00B00F6
:1033600018006B01A30144F6206450E76849D0E7D8
:103370006849CEE7BEF5FA7FA6F800C002DD01235A
:103380003B700BE0644BB3F900305B4288E1032AE9
:103390004FF0000E72D13A70A6F800E05F4E33781D
:1033A00003F0FF0203B92A60DFF87491A0EB010873
:1033B000D9F800105B4B5C48A8EB01012246C3F82A
:1033C000008081FB00010023FCF7CAFEDFF85CA14E
:1033D000574B08F19502B2F5957F1860DAF8003086
:1033E00000F26B814FF47A7108FB04F292FBF1F268
:1033F0001344504A9342B8BF134649F640429342A1
:10340000A8BF13464C4ACAF80030B2F90020C9F8E8
:10341000008053434FF47A7293FBF2F3474AB2F9B8
:10342000002008FB0233464AB2F9002000FB0230BC
:1034300042F2107390FBF3F3424A13603A7812F0B1
:10344000FD0F00F03F8142F20F72904200F39F8126
:103450003D4A904280F2AD813C4A2D6817883C4A33
:10346000DF1BB2F90020BF1A3A4A2F4412889A1A79
:10347000394BB3F90030D21A551B39E1DFF8DCC003
:10348000002A40F08380BCF8003001339BB2052B4A
:10349000ACF8003068D9324BACF800201A70314BD0
:1034A00032801A7002233B7078E700BF020E0020C2
:1034B000001000E09C0B0020B882010048000020B2
:1034C00048120020F00B0020080C0020060C002001
:1034D000040C0020EC0B0020CC0B00207E120020FE
:1034E0007A120020000C0020F80B00207612002039
:1034F000FC0B002071A5AE028F5A51FD3400002054
:10350000B00B0020F40B0020B80B00209A0B002019
:10351000A0BB0D006044F2FF2600002084120020B2
:10352000E40B0020E80B002040420F00DC0B0020E1
:10353000E00B0020C063FFFFD40B002044000020FC
:1035400042000020D80B0020F1D8FFFF3E000020F1
:10355000D20B00203C000020D00B0020980B002054
:10356000AF0B0020AE0B0020A04BA14A1B681360DC
:10357000A04A12682A609D4A13603388002B50D0FD
:10358000013B33809C4BB3F9000007E74FF47A709E
:1035900043439A4AACF800E002FB0833984ADFF84C
:1035A00064C2126893FBF2F30A2293FBF2F3904A8F
:1035B00083EAE37E1360944AAEEBE37EC2F800E058
:1035C000924AB2F900205A43CCF80020DFF840C2FA
:1035D000BCF900C003FB0CFC0EFB0CFC9CFBF0F0E8
:1035E000DFF830E2DFF830C2CCF80000BEF900C0EE
:1035F000BCF1000F03D14FF0010CAEF800C0024443
:1036000092FBFCF285482A60B0F90000824202DD9C
:103610000246286002E040428242F9DB75480260BF
:10362000A9E77F4BB3F90030994201DA0C23A8E7F0
:103630007C4BA8E7BEF5FA7FA6F800C03FF79FAE27
:103640006A4B794A1E6892F800C0784BB3F9003093
:10365000BCF1000F10D1002E754ED8BF5B422B601D
:1036600033780133DBB2222B01D8337096E6002386
:1036700033700123137091E6BCF1010F0DD1002EC0
:103680006B4EC8BF5B422B6033780133DBB2452BF6
:10369000EBD9002333700223ECE7002E3FF775AE21
:1036A0002B607BE6032AA6F800C07FF468AE75E6BF
:1036B000A6F800C087F800C070E60A22DB0093FB82
:1036C000F2F39FE62D685F19002FA3EB05054CDD93
:1036D000584B1A88584B3A44B3F90030D718002D8C
:1036E0004CDD564B564A1B882B44B2F900501D4402
:1036F0002046FFF741FC42F22832DBF8003003F5A8
:103700008C531433934205D900252F464D4BCAF8EC
:1037100000501D604C4B4D4A1B8812889BB2952B64
:103720004AD800252B46CAF8005051428B42B8BFF8
:103730000B469542A8BF154630788D42B8BF0D465E
:10374000434A444900283CD03078012839D03078A9
:10375000022836D000253B4BCAF800501D602B468E
:103760005B420B800023138030E0B8D0314B1A88C5
:10377000314BBA1AB3F90030D71AB0E7B8D02F4B93
:103780002F4A1B88EB1AB2F900505D1BB0E7324A92
:103790002D681788284A1F44B2F9002017442F4A81
:1037A0007F1B12881A44264BB3F900301A44154483
:1037B0009EE700252F469BE797423B46A8BF13464E
:1037C000B3E7002BCCDD138000230B80ABB2002DC0
:1037D000234A2449D5BF5B4213800B800023D6BF08
:1037E00000230B80138005B0BDE8F08FB40B0020E0
:1037F000C80B0020940B00202C00002018FCFFFFB9
:10380000CC0B0020C00B0020C40B00202A0000209D
:103810002800002024000020BC0B00201E000020F7
:103820002E00002030000020AE0B002026000020DB
:10383000AF0B00203A000020D20B002038000020FF
:10384000D00B0020701200206A12002040000020DF
:10385000FA0D0020FC0D00203E0000203C0000205E
:10386000FE0D0020000E002080B5A74D9AB001F09B
:10387000F7F9FFF70FFB1022002113A807F0E6F875
:10388000AB69002243F01003AB61AB694FF4005108
:1038900003F010030493049BAB699C4843F020039E
:1038A000AB61AB69002403F020030593059BAB6972
:1038B000012743F00403AB61AB69022603F0040364
:1038C0000693069BAB6943F00803AB61AB6903F059
:1038D00008030793079B01F0E5FF00224FF40071F6
:1038E0008B4801F0DFFF4FF40053884813A9CDE95E
:1038F0001337CDE9154601F08DFE4FF4004384489F
:1039000013A9CDE91334159401F084FE4FF400732C
:103910007F4813A9CDE91337CDE9154601F07AFEAA
:103920006B6922463B436B616B6921463B400B2030
:103930000393039B01F076FC0B2001F0A3FC2246CD
:1039400021460E2001F06EFC0E2001F09BFC224669
:1039500021460F2001F066FC0F2001F093FC6D4A18
:103960006D4B082513604FF4807393604FF4602310
:103970001046CDE91344159414731475D361546043
:10398000156101F0BDFB08B172B6FEE70624CDE972
:10399000130713A95F48159401F046FA08B172B6EF
:1039A000FEE75C4813A9CDE9137601F03DFA08B1B2
:1039B00072B6FEE713960326564813A9149601F033
:1039C00033FA08B172B6FEE713960426514813A9DC
:1039D000149601F029FA08B172B6FEE7139605268F
:1039E0004C4813A9149601F01FFA08B172B6FEE70D
:1039F000484813A9CDE9136401F016FA08B172B66C
:103A0000FEE713940724434813A9149401F00CFA19
:103A100008B172B6FEE73F4813A9CDE9134501F09E
:103A200003FA044608B172B6FEE70EAE0146102254
:103A3000304607F00BF81422214613A807F006F8C9
:103A400047233648DFF8D8C00AAFC0E900C3F923DE
:103A50000A947C60C0E90334C0E90544846004F042
:103A6000EBFD08B172B6FEE74FF4805831462B48A3
:103A7000CDF8388004F0C6FE08B172B6FEE7CDE995
:103A8000130013A9254804F0B4FF08B172B6FEE78D
:103A9000CDE90A003946214805F030F8054608B15D
:103AA00072B6FEE701461022304606F0CFFF142220
:103AB000294613A806F0CAFF4FF047094FF080438C
:103AC000184C0A95C4E9003944F61F6320467D600E
:103AD000C4E90335A560A56104F0AEFD08B172B676
:103AE000FEE731462046CDF8388004F08BFE08B161
:103AF00072B6FEE7CDE9130013A9204604F079FF62
:103B000090B172B6FEE700BF001002400010014005
:103B1000000C01401015002000240140A8130020D3
:103B2000002C014060130020CDE90A0039462046F0
:103B300004F0E4FF044608B172B6FEE70146102225
:103B4000384606F083FF14222146304606F07EFFF9
:103B50001C22214613A85B4D0894099406F076FFB9
:103B6000594B2846C5E9003942F20F730DF1200A7E
:103B7000C5E90334AC60AC6104F05EFD08B172B617
:103B8000FEE739462846CDF8288004F03BFE08B110
:103B900072B6FEE7284604F07BFD08B172B6FEE778
:103BA000002331464748CDE90E3304F022FF08B127
:103BB00072B6FEE7CDE908005146424804F09EFF88
:103BC000024608B172B6FEE760231590CDE91330C6
:103BD000179013A93B4804F0B3FD08B172B6FEE795
:103BE0000422384813A904F0ABFD08B172B6FEE711
:103BF0000822344813A904F0A3FD08B172B6FEE709
:103C00000C22304813A904F09BFD044608B172B69B
:103C1000FEE72C4800F0F2FD4FF4E1332B482C4D29
:103C2000C0E90244C0E900530C230461C0E9053433
:103C3000C46104F0FBFF044608B172B6FEE706F06B
:103C40005DFC24482449254BC0E90244C0E9001327
:103C50004FF48043C0E90644C0E90434046201F033
:103C6000FFFF044608B172B6FEE71022014613A812
:103C700006F0ECFE47231A4D1A4A0E94C5E90023BC
:103C800042F20F7328467460C5E90334AC60AC613E
:103C900004F0D2FC08B172B6FEE74FF48053284618
:103CA00013A9139304F0AEFD08B172B6FEE700232A
:103CB00031460B48CDE90E3304F020FF044698B19D
:103CC00072B6FEE71813002000040040881200209E
:103CD000003801407814002000580040801A060087
:103CE000D012002000080040514806F091FC5148D5
:103CF00004F0ACFB504804F0A9FB504804F0A6FBCC
:103D000021464E4804F0F8FE04214C4804F0F4FE2D
:103D100008214A4804F0F0FE0C21484804F0ECFE6B
:103D20004FF400510122464801F0BCFD454800F027
:103D3000DFF9454800F0D6F9444800F0CDF900F02D
:103D40006DFB204600F05EFB414800F0C5F841489D
:103D500000F0C8F8404800F0CBF800F0E7F83F4A20
:103D60003F4B104613603F4B53603F4B9360FCF753
:103D700025FD3E48FDF746FA3D48FDF73DFA012294
:103D80003C493D4805F061F940F6B8323B4B3C49AF
:103D90001C703C4B3C481C703C4B1A8001223C4B35
:103DA0001A70FCF7D7FB3B4B3B4A3C493C4800F0C0
:103DB00000FF3C4B3C4A3D483D4900F0FAFE3D4B7C
:103DC0003D4A1C703D4B3E481C803E4B1C803E4B88
:103DD0001C803E4B1C80FEF7BFFED2F8FC3043F047
:103DE0008073C2F8FC303A4B5C601A6842F0010202
:103DF0001A600190FEF724FFFCF74CFDFEF730FE41
:103E0000002226492648FEF775FA0122284927484C
:103E1000FEF770FAFEF752FDFEF7B0FCFFF7E0F98F
:103E20000198FEF7A1FE0198FEF7A4FFE2E700BFAC
:103E300011120008A813002060130020181300209E
:103E40000010014081120020511200087912000870
:103E5000801200207512000895120008EC0D002059
:103E60003D120008B1120008E5120008D112000846
:103E700051130008F80D002088120020610D002069
:103E8000B3B700080B0C0020C6B700084C00002098
:103E90000A0C002008110020081000202C1200201D
:103EA00020120020080F0020080E00200812002019
:103EB00014120020020E002000ED00E0000E002091
:103EC000E40D0020FC0D0020FE0D0020FA0D002066
:103ED000001000E072B6FEE7014B1860704700BFAB
:103EE00070150020014B1860704700BF6C15002052
:103EF000014B1860704700BF68150020044A10B4D9
:103F000014680B46A44601460122D02010BC60472D
:103F10006C1500201346044A10B41468CAB2A446B3
:103F2000014610BCD02060476815002013B500245E
:103F30000DF107006B218DF80740FFF7DFFF042329
:103F40000DF107001A218DF80730FFF7D7FF0DF1AB
:103F500007001C218DF80740FFF7D0FF1B210DF152
:103F60000700FFF7CBFF02B010BD00000122044B99
:103F70001A70044B1B680BB100221A70704700BF07
:103F8000800000207015002008B51A4B19681A4BE4
:103F900008781A7818B9012A23D0002008BD00201B
:103FA000012A08701DD0022AF7D101201870134B86
:103FB00013491A88D2BA0A605A881249D2BA0A60DA
:103FC0009A881149D2BA0A601A891049D2BA0A608D
:103FD0005A890F49D2BA9B890A600E4ADBBA13602C
:103FE000DCE702220E211A7004483B22FFF792FF01
:103FF000D3E700BF7015002080000020401500208E
:1040000064150020601500205C1500205815002064
:10401000541500205015002070B5DDE9045410B18E
:104020000B4E3668068011B10A480068088012B14C
:1040300009490968118013B1084A12681A8015B13C
:10404000074B1B682B8014B1064B1B68238070BD87
:1040500064150020601500205C1500205815002014
:10406000541500205015002013B5064B8DF807009D
:104070001C680122002378200DF10701A04702B03F
:1040800010BD00BF8019002013B5064B8DF8070046
:104090001C680122002378200DF10701A04702B01F
:1040A00010BD00BF7C190020044B10B41C68CAB2BC
:1040B000A44601464023782010BC604780190020A8
:1040C000044B10B41C68CAB2A446014640237820B1
:1040D00010BC60477C190020014B1860704700BF7E
:1040E0007C190020014B1860704700BF8019002028
:1040F000014B1860704700BF8419002000284FF45E
:10410000806214BFFF210021014806F09FBC00BF60
:104110007A15002038B5B0240A4D2046FFF7A4FFD9
:104120000020FFF7A1FF01341020FFF79DFFE4B24C
:1041300028468021FFF7B8FFB82C05F18005ECD1A7
:1041400038BD00BF7A15002038B51C4B1C4C1A68CE
:104150002378117819B9012B0AD0002038BD00212D
:10416000013B1170032BF8D8DFE803F0020B1015A8
:10417000144B18785038C0B2FFF786FF0223237023
:10418000EBE70020FFF780FF0323F8E71020FFF79D
:104190007BFF0423F3E70B4D0B4B2878802103EBC7
:1041A000C010FFF78DFF01202B7820700133DBB2A8
:1041B000072B2B70D1D900232B70CFE78419002057
:1041C000810000207A1900207A1500200022054B7A
:1041D0001A700122044B1A70044B1B6803B11A7049
:1041E000704700BF7A190020810000208419002048
:1041F000030630B510D43F290ED80124CB08074D53
:1042000000EBC3102B5C01F0070104FA01F1A2429C
:104210000CBF0B438B432B5430BD00BF7A150020DD
:104220002DE9F04F044689B008A800E90E009DF87A
:104230004830A4F120050293EBB25E2B47D8079BD0
:1042400023B3234413F8206C224AB2F8009009EB00
:104250000603802B3BDC53889DF815B0019303EBDC
:104260000B02402A33DC029B4FF00008B3FA83FABA
:104270000BFB05F54FEA5A1A6D00C34509D8154BDB
:104280004E441E80204609B0BDE8F08F9DF81460B2
:10429000DAE70027069A535B0493019B08EB0302BD
:1042A000D3B20393BE4203D808F101080235E4E714
:1042B000049B07EB090003FA07F2130454BF5246AC
:1042C000029A0399C0B2FFF793FF0137EAE700248F
:1042D000D8E700BF7415002070B586B003AC84E841
:1042E0000E009DF82860451E15F8010F40B100969C
:1042F00094E80E00FFF794FF034628788342F3D03A
:1043000006B070BD014B18805980704774150020AD
:104310002DE9F74F9046A8EB0009A3EB010AB9F18C
:10432000000F1E46B8BFC9F10009BAF1000FB8BFAF
:10433000CAF1000A804594BF4FF0FF3301230546C0
:104340000C468E4294BF4FF0FF3B4FF0010B4046AE
:1043500031469DF830200093A9EB0A07FFF748FF8C
:10436000CAF10003454504D1B44202D103B0BDE80F
:10437000F08F214628460193FFF73AFF019B790011
:10438000B3EB470FBFBF0098A7EB0A072D18EDB29C
:104390008945C2BF5C444F44E4B2E3E72DE9F041F4
:1043A0001446A042804628BFA046A042064638BF19
:1043B000264699420C4628BF1C46994238BF1946EA
:1043C0000F469DF81820BC4201D83F2C01D9BDE80A
:1043D000F081454607E02B0607D428462146FFF723
:1043E00007FF0135EDB2B542F5D90134E4B2EAE791
:1043F00010B504468120FFF737FE2046BDE8104087
:10440000FFF732BE034628B10123AF20024A5371A1
:10441000FFF72ABEAE20F9E77415002008B5642026
:1044200000F042FC0020FFF7EDFF2020FFF71CFE0C
:104430000020FFF719FEB020FFF716FEC820FFF797
:1044400013FE0020FFF710FE1020FFF70DFE4020A6
:10445000FFF70AFEFF20FFF7CBFFA120FFF704FEC6
:10446000A620FFF701FEA820FFF7FEFD3F20FFF783
:10447000FBFDA420FFF7F8FDD320FFF7F5FD00209A
:10448000FFF7F2FDD520FFF7EFFDF020FFF7ECFD81
:10449000D920FFF7E9FD2220FFF7E6FDDA20FFF73C
:1044A000E3FD1220FFF7E0FDDB20FFF7DDFD20201C
:1044B000FFF7DAFD8D20FFF7D7FD1420FFF7D4FDBD
:1044C0000120FFF79FFF0020FFF718FEFFF722FEF5
:1044D0000022034B1A805A8001221A7108BD00BFC6
:1044E000741500200E4B82B09A6942F001029A6165
:1044F0009A6902F001020092009ADA6942F0805251
:10450000DA61DB69074A03F080530193019B53682A
:1045100023F0E06343F08063536002B0704700BF54
:10452000001002400000014030B5054687B010225F
:10453000002102A806F08AFA2A68204B9A423BD151
:1045400003F56C439A691E4842F400729A619A69B5
:1045500002A902F400720092009A9A69194C42F082
:1045600004029A619B69FF2203F004030193019BFB
:104570000323CDE9022301F04DF880204FF480722F
:104580000023C4E903024FF480620F492046C4E9C6
:104590000013C4E90523A360E36100F0A7FE08B19E
:1045A000FFF798FC002212202C621146656200F091
:1045B00039FE122000F066FE07B030BD0024014035
:1045C00000080140CC1400200800024030B5054628
:1045D00087B01022002102A806F038FA2A682E4B74
:1045E0009A4256D12D4C4FF44061A3692C4843F0B8
:1045F0000803A361A36903F008030093009B12233F
:10460000CDE90213032302A9059301F003F8E3693E
:10461000802243F48003E361E369224803F48003CA
:104620000193019B0023204CC4E900032046C4E908
:104630000323C4E90533A360E36100F057FE08B12A
:10464000FFF748FC1023194AAC636562184CC4E9B3
:104650000023002380222046C4E90232C4E9043347
:10466000C4E9063300F042FE08B1FFF733FC002234
:10467000212011466C63656200F0D4FD212000F01A
:1046800001FE00222220114600F0CCFD222000F085
:10469000F9FD07B030BD00BF0058004000100240D7
:1046A000000C014058000240341400204400024035
:1046B000F01300200268114B10B59A4204461CD139
:1046C0000F4A4FF48061D3690E4823F48003D3610D
:1046D00001F074F84FF400610A4801F06FF8A06B24
:1046E00000F034FE606B00F031FE212000F0D8FDB8
:1046F000BDE81040222000F0D3BD10BD005800409E
:1047000000100240000C01401FB50368374A934275
:104710002CD1374B18209A6942F400629A6100222A
:104720009B69114603F400630093009B00F07AFD3F
:10473000182000F0A7FD00221920114600F072FD9C
:10474000192000F09FFD00221A20114600F06AFD9A
:104750001A2000F097FD00221B20114600F062FD98
:104760001B2005B05DF804EB00F08CBDB3F1804F69
:1047700011D103F50433DA691C2042F00102DA6139
:104780000022DB69114603F001030193019B00F055
:1047900049FD1C20E5E7174A934210D1144B1D2018
:1047A000DA6942F00202DA610022DB69114603F0A5
:1047B00002030293029B00F035FD1D20D1E70E4A53
:1047C000934210D10A4B1E20DA6942F00402DA61EA
:1047D0000022DB69114603F004030393039B00F0FE
:1047E00021FD1E20BDE705B000BD00BF002C01402B
:1047F00000100240000400400008004010B50446CC
:1048000086B01022002102A806F020F92268114B80
:104810009A421CD103F503339A690F4842F008020B
:104820009A619B69332203F008030193019B0223E1
:1048300002A9CDE90223059300F0ECFE074A536874
:1048400023F4406343F0E06343F40063536006B035
:1048500010BD00BF00040040000C014000000140FA
:1048600010B5044686B01022002102A806F0EEF82A
:1048700022681B4B9A4230D103F558439A69194874
:1048800042F480429A619A6902A902F4804200923D
:10489000009A9A69002442F004029A619B694FF4DD
:1048A000007203F004030193019B0223CDE902236C
:1048B0000323059300F0AEFE4FF48063094802A97C
:1048C000CDE90234049400F0A5FE252022462146BD
:1048D00000F0A8FC252000F0D5FC06B010BD00BFFC
:1048E0000038014000080140FEE7FEE7FEE7FEE772
:1048F000FEE770477047704700F0C4B9014800F008
:10490000F1BD00BFCC140020014800F0EBBD00BF9A
:10491000F0130020014800F0E5BD00BF3414002072
:10492000014800F001BA00BF10150020014802F054
:1049300037BC00BF7C280020FFF7F8BF014803F018
:10494000B4BD00BFA8130020FFF7F8BFFFF7F6BF04
:10495000FFF7F4BF014803F0A8BD00BF60130020BB
:10496000014803F0A2BD00BF18130020014803F066
:104970009CBD00BFD0120020014801F083BE00BFE3
:1049800078140020014802F0D7BA00BF7814002044
:10499000014804F0F7B900BF881200200A4A034614
:1049A000106810B508B9094810600949094C03445A
:1049B000091B8B4206D906F07BF80C2303604FF0ED
:1049C000FF3010BD1360FCE788190020A02C0020E8
:1049D000005000200004000070470346002030B55E
:1049E000187258791C68451C5D71552598712554BD
:1049F0005879DC7901322040451C5D714E251C68D8
:104A0000D2B225545879DC792040451C5D7145258A
:104A10001C6825545879DC792040451C5D7152256D
:104A20001C6825545879DC7920401C68451C5D7150
:104A300022545879DC794A402040451C5D713A2562
:104A40001C6825545879DC7920401C68451C5D7130
:104A500021545879DC792040587107205872187A0F
:104A6000504080F03600187230BD034610B5427ACF
:104A7000013242725A790068541C5C7181545A792F
:104A8000D87902405A711A7A81EA0200187210BD70
:104A9000002337B58DF807309DF80730CB5C13B98C
:104AA000007A03B030BD437A9DF80740013343726A
:104AB000437902685D1C45710C5DD4544379C27919
:104AC00013409DF807204371531CDBB28DF807306B
:104AD0008B5C027A53400372DEE7034610B5C4795B
:104AE00080790144214018689971405C11440C4060
:104AF0009C7110BDF0B50024052645790379AB42C1
:104B000001D10020F0BD827A072A50D8DFE802F0F8
:104B1000040F1C22282D4F3E0268D25C552A01D179
:104B200001228272C279013313400371E6E7026801
:104B3000D25C4E2A01D10222F3E7552AF2D000229C
:104B40008272013BDBB2EDE70268D25C452A1BD1E1
:104B50000322E6E70268D25C522A15D10422E0E77C
:104B60000268D25C86724272DCE70268D25C3A2A42
:104B70000AD10721C2798172591C0A408271427A96
:104B800082F036020272CDE78472DAE7427A076871
:104B9000013AD2B2017A42721AB1FA5C5140017202
:104BA000C0E78272FA5C8A42BCD10120AAE7847213
:104BB000B8E710B502604FF07F44002244600281E4
:104BC0008272C1E900340A818A7210BDFFF704FFC6
:104BD0000B480C490C4A002302E0D458C45004335B
:104BE000C4188C42F9D3094A094C002301E0136030
:104BF0000432A242FBD305F061FFFEF735FE704799
:104C00000000002058020020B4D000085802002004
:104C10009C2C0020FEE7000038B50E4B05461A78A4
:104C20004FF47A73B3FBF2F30B4A1068B0FBF3F066
:104C300000F048FB044658B90F2D09D80246294612
:104C40004FF0FF3000F0EEFA2046044B1D6038BDF7
:104C50000120FCE788000020840000208C00002058
:104C6000074A08B51368032043F01003136000F0EF
:104C7000C7FA0F20FFF7D0FFFFF734FC002008BD74
:104C800000200240034A044B11681B780B44136058
:104C9000704700BF8C19002088000020014B186865
:104CA000704700BF8C19002038B50446FFF7F6FFA7
:104CB0000546631C1EBF044B1B78E418FFF7EEFF8C
:104CC000431BA342FAD338BD88000020436A10B5C5
:104CD0009A6A12F0500F1BD19A6A42F400729A62DB
:104CE0001A68926802F46022B2F5602F0CD11A7B28
:104CF00052B99A6A22F480729A629A6AD2045EBFAA
:104D00009A6A42F001029A621846FCF78DFB10BDC8
:104D10001B6ABDE810401B6B1847704708B5406A16
:104D2000FFF7FBFF08BD7047036870B51D685E683C
:104D30000446B00626D5A90724D5A26AD2065EBFCE
:104D4000A26A42F40072A2629A6802F46022B2F58A
:104D5000602F10D1227B72B95A6822F020025A606B
:104D6000A36A23F48073A362A36AD8045EBFA36A14
:104D700043F00103A3622046FCF756FB6FF01202DA
:104D800023681A60310630D56A072ED5A36ADB0680
:104D90005EBFA36A43F40053A36223689A6802F4D7
:104DA000E042B2F5E04F0AD05A68500516D49A682E
:104DB00002F46022B2F5602F10D1227B72B95A68DA
:104DC00022F080025A60A36A23F48053A362A36A8C
:104DD000D9055EBFA36A43F00103A362204600F039
:104DE0000DFA6FF00C0223681A6072060CD5EB07FF
:104DF0000AD5A36A204643F48033A362FFF793FFEA
:104E00006FF0010223681A6070BD7047406A08B5F0
:104E1000836A43F040038362C36A43F00403C362BE
:104E2000FFF7F3FF08BD0000002373B5019390F86E
:104E300024300446012B6CD0012380F824304D68C7
:104E40000268062D086805EB850322D81F26556BDE
:104E5000053B9E4025EA060500FA03F32B43536306
:104E600009288B6800EB40054FF0070129D9D66867
:104E70001E3DA94026EA0101AB400B43D360A0F1DF
:104E80001003012B25D90020002384F8243002B020
:104E900070BD0C2D4FF01F0509D8166B233B9D40AC
:104EA00026EA050500FA03F32B431363D8E7D66A15
:104EB000413B9D4026EA050500FA03F32B43D362EC
:104EC000CEE71069A94020EA0101AB400B43136112
:104ED000D9E7114B9A4216D193681B02D3D4936839
:104EE000102843F400039360CDD10C4B0C4A1B688F
:104EF000B3FBF2F30A2253430193019B002BC2D070
:104F0000019B013BF8E7A36A012043F02003A36261
:104F1000BAE70220BBE700BF002401408400002064
:104F200040420F00002337B50193036804469A6896
:104F3000D20702D5002003B030BD9A6842F00102CA
:104F40009A60144B144A1B68B3FBF2F30193019B64
:104F5000E3B9FFF7A3FE054623689B68DB07E9D4A6
:104F6000FFF79CFE401B0228F6D923689B6813F0CC
:104F70000103F1D1A26A012042F01002A262E26AAA
:104F800084F8243042F00102E262D4E7019B013B45
:104F9000DCE700BF8400002040420F002DE9F04113
:104FA0003F4B9046026804469A420F4602D03D4964
:104FB0008A4203D15B6813F4702F6DD194F82430CA
:104FC000012B6BD00123204684F82430FFF7AAFF81
:104FD000064600285DD1A56A2168324B25F470652C
:104FE00025F0010545F480759942A56204D12C4A4B
:104FF000536813F4702F3ED1A36A23F48013A36285
:105000004B685A0505D5A36A23F4405343F48053F3
:10501000A362A36A206A13F4805318BFE36A3A4676
:1050200018BF23F00603E362002384F824301E4BEC
:105030004C3183621D4BC3621D4B03636FF002034F
:1050400041F84C3C51F8443C43F4807341F8443CF3
:10505000434600F0A5F923689A6802F46022B2F58D
:10506000602F9A680CBF42F4A00242F480129A604A
:105070003046BDE8F081A36A43F48013A36253680D
:105080005B0541BFA06A20F4405040F48050A0620C
:10509000BFE7002384F824300126E9E70226E7E78A
:1050A0000024014000280140CD4C00081D4D00089F
:1050B0000D4E000838B5036804469A68D10701D43C
:1050C000002038BD9A6822F001029A60FFF7E6FDE1
:1050D000054623689B68DB07F2D5FFF7DFFD401B21
:1050E0000228F6D923689B68DA07F2D5A36A012063
:1050F00043F01003A362E36A43F00103E362E0E7D5
:10510000F8B5044600286DD0836A23B9C36280F8DD
:105110002430FFF709FA2046FFF7CCFFA36A13F00B
:10512000100361D100285FD1A26A616822F488521D
:1051300022F0020242F00202E569A668A262227B26
:105140002943B6F5807F41EA420136D0771E7D4281
:105150007D412D02277D012F06D182BBA269013A34
:1051600045EA423242F400652268B6F5807F57680E
:1051700027F4694745EA0705556097681D4D05EA1C
:10518000070545EA0105956001D0012E02D123698A
:10519000013B1B05D56A25F470052B43D362926849
:1051A000154B1340994213D10023E362A36A23F005
:1051B000030343F00103A362F8BD3546CAE7A26AC0
:1051C00042F02002A262E26A42F00102E262CBE710
:1051D000A36A23F0120343F01003A362E36A43F0CF
:1051E0000103E3620120E7E7A36A43F01003A3622F
:1051F000F8E700BFFDF7E1FFFE0E1FFF704700005C
:1052000007490302CA6803F4E06322F4E06212046F
:10521000120C134343F0BF6343F40033CB60704779
:1052200000ED00E0154B30B5DC68C4F30224C4F196
:105230000703251D042B28BF0423062D4FF0FF353F
:1052400094BF0024033C05FA03F321EA0303A540BD
:1052500022EA0502A340002843EA0203ACBF00F1A2
:105260006040074A4FEA0313DBB2ABBF00F5614071
:1052700000F00F0080F80033135430BD00ED00E063
:1052800014ED00E0002807DB01234109034A00F088
:105290001F00834042F82130704700BF00E100E06A
:1052A00000280CDB01220649430900F01F00824060
:1052B000203341F82320BFF34F8FBFF36F8F704728
:1052C00000E100E00138B0F1807F0BD24FF0E02325
:1052D000F021054A586182F82310002007229861C6
:1052E0001A6170470120704700ED00E0034610B5D9
:1052F00030B301681420134A0A44B2FBF0F2920062
:105300001A64114ADA63022283F82120D3E90124C6
:105310002243DC68086822431C696FF30D102243A6
:105320005C6922439C692243DC69224302430A6090
:1053300000200122986383F8200083F8212010BD0B
:105340000120FCE7F8FFFDBF0000024010B508B3E4
:105350000168114A0B680A4423F001030B60002323
:105360000B604B608B60CB601421B2FBF1F201212A
:105370000A4C9200026401FA02F2C4636260836321
:10538000C0E90A33C0E90C3380F8213080F82030BE
:10539000184610BD0120FCE7F8FFFDBF00000240E9
:1053A000F0B590F82040012C34D0012480F8204042
:1053B00090F82140012CE5B24FF0000428D10226DC
:1053C00080F8216084630468266826F00106266060
:1053D000D0E90F67BD40756063604368102BC36AF6
:1053E0000BBFA260A160E160E2604BB1236843F0B3
:1053F0000E0300202360236843F001032360F0BD07
:10540000236823F004032360236843F00A03F0E7D2
:1054100080F820400220F2E790F821200346022A7B
:1054200006D0042282630120002283F820207047E6
:105430000268C06B116821F00E011160116821F043
:105440000101116001211A6C01FA02F24260002090
:1054500083F82110E8E7000008B590F82130022B0E
:1054600003D004238363012008BD03681A6822F077
:105470000E021A601A6822F001021A60174A93425B
:105480001FD0143293421ED0143293421DD01432D6
:1054900093421DD0143293421DD01432934214BF54
:1054A0004FF080734FF480130D4A5360012380F84E
:1054B0002130002380F82030436B03B1984700204F
:1054C000D2E70123F0E71023EEE74FF48073EBE718
:1054D0004FF48053E8E74FF48033E5E708000240DB
:1054E0000000024070B40425C66B026C3468036887
:1054F00095402542196832D04D0730D51A68960676
:105500005EBF1A6822F004021A603E4A934219D024
:105510001432934218D01432934217D0143293426B
:1055200017D01432934217D01432934214BF4FF065
:1055300080634FF48003344A5360C36A002B5ED00B
:1055400070BC18470423F6E74023F4E74FF4806368
:10555000F1E74FF48043EEE74FF48023EBE70225B9
:105560009540254235D08D0733D51A68940606D468
:105570001A6822F00A021A60012280F82120214ACA
:10558000934219D01432934218D01432934217D058
:105590001432934217D01432934217D014329342EC
:1055A00014BF4FF000734FF40013174A53600023E9
:1055B00080F82030836AC1E70223F6E72023F4E76E
:1055C0004FF40073F1E74FF40053EEE74FF400336C
:1055D000EBE708259540254211D009070FD519683A
:1055E00021F00E011960012303FA02F27260836355
:1055F00080F82130002380F82030036B9EE770BCD8
:10560000704700BF080002400000024090F82100EF
:10561000704700002DE9F74F00244FF00F0E26468B
:10562000DFF884C1614B00F104080A6832FA06F51C
:1056300002D103B0BDE8F08F012505FA06F702EAB2
:10564000070537EA020276D14A68032A07D8013AE9
:10565000022A00F28380DFE802F091969C00122A71
:1056600000F0948069D8112A00F08A80FF2D94BF41
:105670008146C1464FEA8602D9F8007088BF203AB9
:105680000EFA02FA27EA0A0704FA02F21743C9F8E7
:105690000070D1F8049019F0805F4CD0DCF818202D
:1056A00026F0030742F00102CCF81820DCF818209D
:1056B00007F1804702F00102019207F5803706F0FA
:1056C000030A019A4FEA8A0ABA680EFA0AFB22EA2A
:1056D0000B0B374A904260D002F5806290425ED058
:1056E00002F5806290425CD002F58062904214BF65
:1056F0000422032202FA0AF242EA0B02BA609A6812
:1057000019F4801F14BF2A43AA439A60DA6819F477
:10571000001F14BF2A43AA43DA605A6819F4003FF5
:1057200014BF2A43AA435A601A6819F4803F14BF71
:105730002A43AA431A60013677E7DFF878904A4592
:105740000CD014D8A9F580194A4507D009F570295D
:105750004A4503D0A9F580194A4587D18A68D2B154
:10576000012A4FF008040CBF076147617EE7DFF8AC
:1057700048904A45F2D009F58039EDE7CC6875E7E5
:10578000CC68043472E7CC6808346FE7CC680C341A
:105790006CE700246AE7042468E70022AAE70122F4
:1057A000A8E70222A6E700BF001002400004014063
:1057B0000008014000002210000031102DE9F74FD1
:1057C0004FF0040B00224FF0010A4FF00F0800EBDE
:1057D0000B0301932E4B31FA02F402D103B0BDE862
:1057E000F08F0AFA02F70F4049D022F0030404F1C7
:1057F000804404F5803402F0030CA5684FEA8C0C59
:1058000008FA0CF909EA050E224DA84239D005F52F
:105810008065A84237D005F58065A84235D005F5EA
:105820008065A84214BF0425032505FA0CF57545CB
:105830006FEA07060FD11D6835401D605D68354071
:105840005D60DD683540DD609D6835409D60A56820
:1058500025EA0905A560FF2F94BF0746019F4FEA7F
:1058600082043D6888BF203C08FA04FC25EA0C0548
:105870000BFA04F425433D60C4683440C46001322F
:10588000A9E70025D1E70125CFE70225CDE700BF35
:10589000000401400008014080680840003818BF3B
:1058A000012070470AB1016170470904FBE70168F4
:1058B00000224B6913F4806310D06FF480634B6156
:1058C0002023026380F83D3080F83E20036C80F88E
:1058D0003C2043F0040303640120704718467047DE
:1058E0002DE9F84606460F4691461D464FEA114AF5
:1058F0003368BAF1010F39D15C6927EA0404A4B214
:10590000B4FA84F46409A14501D0002024E06A1CA3
:10591000EFD0FFF7C3F9089BC01AA84201D8002DA9
:10592000E6D1BAF1010F336818D15B6927EA0303A6
:105930009BB2B3FA83F35B099945D9D100232022A6
:105940000120336386F83D2086F83E30326C86F8BD
:105950003C3042F020023264BDE8F8869B69DB43AC
:10596000C3F3400383F00103DBB2E5E79C69E44342
:10597000C4F3400484F00104E4B2C4E72DE9F0412B
:1059800004460F46164698462568686927EA0000CF
:1059900080B2C0B16B695A0517D52B68202243F439
:1059A00000732B606FF480636B610023236384F8C2
:1059B0003D2084F83E30236C43F00403236400232D
:1059C000012084F83C30BDE8F081731CDDD0FFF786
:1059D00065F9A0EB0800B04201D8002ED4D12368AD
:1059E0005A6927EA020292B2002ACDD0002320226F
:1059F000236384F83D2084F83E30236C1343DDE7B5
:105A000070B504460D46164623685B691B0601D532
:105A100000201EE02046FFF74AFFC8B96A1CF3D0F9
:105A2000FFF73CF9801BA84201D8002DECD1236878
:105A30005B6913F08003E7D12022236384F83D20C3
:105A400084F83E30226C84F83C3042F0200222641C
:105A5000012070BD2DE9F043154602689946136890
:105A600085B043F480731360DDE90C780E463B4645
:105A700000224FF00111CDF800800446FFF730FFFF
:105A8000236838B11B68DB0502D54FF4007323642B
:105A9000032620E006F0FE061E613A4643462046F5
:105AA0001849FFF76BFFA8B9236803905A69394674
:105AB00003929B69424603932046039BFFF7A0FF96
:105AC000064660B1236C042B01BF2268136843F4BF
:105AD000007313600126304605B0BDE8F083B9F1CC
