:020000040800F2
:1000000000500020215000083D4D00083F4D0008E1
:10001000414D0008434D0008454D00080000000018
:10002000000000000000000000000000474D000834
:10003000494D0008000000004B4D00084D4D0008E0
:1000400069500008695000086950000869500008AC
:10005000695000086950000869500008695000089C
:10006000695000086950000869500008514D0008A7
:1000700069500008695000085D4D0008694D00088E
:100080006950000869500008754D0008814D00084E
:100090008D4D00086950000869500008695000083B
:1000A000914D00089D4D0008A14D0008A54D000888
:1000B000A94D0008B54D0008C14D00086950000861
:1000C00069500008CD4D0008D94D0008695000085E
:1000D00069500008E54D00086950000869500008A3
:1000E00069500008695000086950000800000000CD
:1000F0000000000000000000000000000000000000
:0C01000000000000000000005FF808F1A3
:1001100010B5054C237833B9044B13B10448AFF341
:1001200000800123237010BD580200200000000051
:1001300030B8000808B5034B1BB103490348AFF3BF
:10014000008008BD000000005C02002030B80008FC
:10015000034613F8012B002AFBD1181A0138704707
:100160007BB972B90029BEBF00204FF0004106E004
:1001700008BF00281CBF6FF000414FF0FF3000F0B7
:10018000B9B9ADF1080C6DE904CE002909DB002BEB
:100190001ADB00F035F8DDF804E0DDE9022304B0F5
:1001A0007047404261EB4101002B1BDB00F028F857
:1001B000DDF804E0DDE9022304B0404261EB4101D7
:1001C000524263EB43037047524263EB430300F038
:1001D00017F8DDF804E0DDE9022304B0404261EBEA
:1001E00041017047524263EB430300F009F8DDF828
:1001F00004E0DDE9022304B0524263EB430370479D
:100200002DE9F047089D0F4604468E46002B48D145
:100210008A42164661D9B2FA82F24AB1C2F120038B
:1002200001FA02FE20FA03F3964043EA0E0E9440D0
:100230004FEA164CBEFBFCF1B7B20CFB11EE01FB12
:1002400007F0230C43EA0E43984209D9F31801F151
:10025000FF3E80F0ED80984240F2EA80023933445C
:100260001B1AB3FBFCF00CFB103300FB07F7A4B226
:1002700044EA0344A74209D9341900F1FF3380F05E
:10028000D980A74240F2D6803444023840EA014087
:100290000021E41B1DB10023D440C5E90043BDE8A3
:1002A000F0878B4206D90DB1C5E90001002108464F
:1002B000BDE8F087B3FA83F1002947D1BB4202D3EE
:1002C000824200F20481841A67EB03020120964601
:1002D000002DE4D0C5E9004EE1E7002A00F090804F
:1002E000B2FA82F2002A40F0A780881B0121370C65
:1002F0001FFA86FEB0FBF7FC07FB1C00230C43EA49
:1003000000430EFB0CF0984207D9F3180CF1FF38AC
:1003100002D2984200F2E080C4461B1AB3FBF7F009
:1003200007FB10330EFB00FEA4B244EA0344A645CB
:1003300007D9341900F1FF3302D2A64500F2C98073
:100340001846A4EB0E0440EA0C40A3E7C1F12006D6
:100350008B4022FA06FC4CEA030C27FA06FA4FEA15
:100360001C49BAFBF9F88F4020FA06F309FB18AADA
:100370001FFA8CFE3B4300FA01F708FB0EF01C0C41
:1003800044EA0A44A04202FA01F20BD91CEB04042D
:1003900008F1FF3A80F09980A04240F29680A8F1DF
:1003A00002086444241A98B2B4FBF9F309FB13441D
:1003B00003FB0EFE40EA0444A64508D91CEB0404E6
:1003C00003F1FF307FD2A6457DD9023B644443EA66
:1003D0000840A4EB0E04A0FB028E74454346F14690
:1003E00061D35ED055B1FA1A64EB090404FA06F63B
:1003F00022FA01F31E43CC40C5E9006400214EE718
:1004000043084FEA510C43EAC1710A0C42EA0C421C
:100410008BB2C407B2FBF6F143EA0243BCFBF6FC25
:10042000B646304637461F22181A41EA0C4161E7AA
:10043000714615E7184629E7C2F1200321FA03F0B7
:10044000964024FA03F397403B43370CB0FBF7F890
:1004500007FB18001FFA86FE190C41EA004108FB51
:100460000EF0884204FA02F43AD9711808F1FF3C00
:1004700001D288421ED8091AB1FBF7F808FB0EF02A
:1004800007FB18119BB243EA014383422FD2F318B2
:1004900008F1FF31C8D28342C6D2A8F10201334429
:1004A000C2E747459ED2B8EB02036EEB0C0E013853
:1004B000F14697E7301A0144A8F1020CB1FBF7F8B6
:1004C00008FB0EF0DCE7034681E7D0466AE7084602
:1004D000FEE63444023834E7ACF1020C33441CE746
:1004E000091AC446B1FBF7F808FB0EF0C8E741460D
:1004F0009AE700BF704700BF00220A4930B50B8859
:10050000094D013810F8014F14B902B10B8030BD0C
:100510005A1C92B2B2F5806FEC5414BF13460023FC
:100520000122EFE7860200208E020020074A10B564
:100530001188074C4B1C9BB2B3F5806F138008BF2A
:100540000023605408BF138010BD00BF8602002046
:100550008E02002038B500240D460E4B01461C705B
:100560000D4B3F220D481C700AF0A2FC0B4B1F22C2
:1005700029460B4883F83F400AF09AFC3222084B88
:10058000DC77084B1A601422074B1A70074B1C705B
:1005900038BD00BF780B0020920A00201F0B0020FE
:1005A000FF0A0020740B0020790B00208402002039
:1005B000014B1878704700BF910A0020194B70B5A5
:1005C0005B6806460D4614463BB347F23053164966
:1005D0001648002A08BF1C460AF0C0FC0F2231460C
:1005E00013480AF065FC0023114A1249D3732846C8
:1005F0000A220AF0DBFB0A2220460F490AF0D6FB4A
:100600000E4B1B7863B10E4B187810F0020003D02C
:10061000102206200B4B1A7070BD4FF0FF30FBE725
:100620000120F9E77802002048B800080500002002
:10063000EF0A0020E90A0020D30A00201F0B002047
:10064000780B0020790B0020064B5B683BB1064B12
:100650001B7813F0400F0CBF0520072070474FF0A8
:10066000FF30704778020020780B0020074A10B551
:100670001188074C4B1C9BB2B3F5806F138008BFE9
:100680000023605408BF138010BD00BF8C020020FF
:100690008E0600202DE9FF471F463D4B04465B6850
:1006A00088461546BDF83090002B6CD0394EDFF8E7
:1006B000E8A033789AF8001003F040020A4365D0AE
:1006C0001B0758D40A2201A938460AF06FFB01A87B
:1006D000FFF73EFD421ED2B2032A4AD82F48FFF749
:1006E0000BFF9AF8003053B10A22694620460AF0FF
:1006F0005DFB6846FFF700FF2C20FFF717FF01A8FE
:10070000FFF7FAFE2648FFF7F7FE002211462548BC
:10071000DFF894C0038894B2A74216D801B10380D1
:100720003378224C23F00C0343F00C03337023681E
:100730003BB11F489847236801A8984723681D4884
:100740009847092004B0BDE8F0875C1CA4B2B4F55A
:10075000806F08BF0024691C18F8055089B20CF896
:1007600003500132494514BF0D460025234601219F
:10077000D1E70B20E6E70D4B1B680BB90820E1E73A
:100780000D489847FAE74FF0FF30DBE70520D9E73F
:1007900078020020780B0020920A002033BF000866
:1007A0004CB80008860200208E020020600B00205A
:1007B0004FB800085EBA000862B8000802460F4B46
:1007C0000068516803C390680D4A186000231370D5
:1007D0000C4A13700C4A13800C4A13800C4A138085
:1007E0000C4A13800C4A13700C4A13700C4A137095
:1007F0000C4A13600C4A1360704700BF7802002057
:10080000790B0020900A0020880200208602002038
:100810008A0200208C020020780B0020920A00201F
:10082000910A0020640B0020600B0020114A13681D
:100830000BB1013B1360104A136823B1013B1360F5
:100840000BB90E4A13700E4A13680BB1013B1360CB
:100850000C4A13686BB1013B136053B90A490A781B
:10086000100706D563F3C302084B0A701A88084BB9
:100870001A807047740B0020700B0020900A002033
:100880006C0B0020680B0020780B002086020020F3
:10089000880200202DE9F84FA54AA64EB2F800B014
:1008A000338800255B4506D0A34F3A78143A022AD4
:1008B00027D8A6F800B0A14EA14C3368002B40F019
:1008C0006D8264239C4D33602B78162B00F2668278
:1008D000DFE813F04404AD02C602CC02DA02E00203
:1008E000E902EF0202030D033E03480352038303B0
:1008F0008C039D03AC03FE033B04410459029802A0
:10090000A70202228F49904C0A609B45D3D08F4AA0
:10091000D05C22780D2A00F23182DFE812F00E005E
:100920005500CC002F022F02A501BA01C301D0014E
:100930002F02EB0108021A02F90100230421984654
:10094000DFF80CC2834ADFF810928CF80030117087
:100950005FFA83FE59F82E10D1B9B8F1000F01D01B
:100960008CF800E00022774B75491A600B7813F081
:10097000010F00F092803E2840F08F8062F3000368
:100980000B70764B1A604FF49672754B1A6084E0C8
:1009900091F804A00133824513D1B8F1000F01D0C2
:1009A0008CF800E00B784978303B313903EB830356
:1009B00001EB43036B490B80012323700523137064
:1009C0006BE04FF00108C3E7DFF884C162499CF88F
:1009D000002051F822205F49097812F801E086458D
:1009E00014D1DFF880C1BCF80030013B9BB2ACF8F9
:1009F00000300BB10D284DD19378D278303B03EB0A
:100A00008303303A02EB4303237046E00022914611
:100A1000C1F57F4A8CF800200AF1D30ADFF838C10B
:100A20005FFA82F85CF828C0BCF1000F0CD1B9F174
:100A3000000F04D04B4A1580454A82F800800022FE
:100A4000013B2270338028E09CF800E09CF80150C4
:100A5000AEF1300E0EEB8E0E554405EB4E05ADB2E9
:100A60007F2D24D81CF801E0864520D13D4B1D8008
:100A7000B9F1000F02D0364B83F8008055B99CF8CD
:100A800002309CF80320303B03EB8303303A02EB47
:100A9000430323702F4B01311970338801339BB20C
:100AA000B3F5806F338004BF002333802DE74FF010
:100AB00001090132B2E70A28EFD100232370244B49
:100AC0001B78023B0F2BE8D801A252F823F000BF9D
:100AD000110B0008690B0008850B00089B0A000831
:100AE000AF0B0008AF0B0008DD0B0008E70B000898
:100AF000050C0008DD0B00089B0A00082F0C0008FD
:100B00009B0A0008390C0008450C0008450C000839
:100B10003A78082AC1D84FF4AA73D340DB07BCD572
:100B20000022064B1A60064A137843F0200346E77A
:100B30008C0200208A020020790B0020740B002018
:100B4000780B0020700B0020900A00208E060020F9
:100B50007502002074020020B4BD00086C0B002058
:100B6000680B00208E0A0020944A1378180794D549
:100B700023F009031370924B1A88924B1A80924B00
:100B8000002203E73B780D2B87D100228F4B1A60A0
:100B90008A4A137823F0220343F0220313708C4B0C
:100BA0001B68002B3FF479AF0320984775E7834A11
:100BB000137823F0420313703B780E3B052B3FF66E
:100BC0006CAF834B1B680BB100209847814B1B789F
:100BD000002B7FF462AF16233B705EE7774A1378F1
:100BE00023F04003EBE6754A137823F008031370F3
:100BF0000022754B1A60764B1B68002B3FF44DAFFB
:100C00000A20D2E7734B1B78002B7FF446AF6F4A64
:100C100013606A4A137823F0600343F06003137093
:100C20006B4B1B68002B3FF438AF0720BDE7634ACE
:100C3000137823F04203C2E6604A137823F042039C
:100C40001370C8E75D4A1378190706D523F0090326
:100C500013705B4B1A885B4B1A803B78013B0D2B62
:100C60003FF61BAF594B8BE75B4A2C28126807D124
:100C700006232370002A3FF410AF584890470CE732
:100C80000021013B21703380002A3FF406AF544815
:100C9000F4E722287FF401AF072300222370514B91
:100CA0001A80FAE6222803D04E4A1388102B01D16D
:100CB0000823A9E6591C11804B4AD054EDE60A28B6
:100CC0007FF4EBAE0023474A23701188464A0F2970
:100CD0009BBF5354394913700A789FBF42F02002DA
:100CE0000A703A4A13603A4B1B68002B3FF4D5AEAA
:100CF00004205AE72C287FF4A2AE364B1B782BB188
:100D00000D2300222370394B1A70C6E60B23C4E76B
:100D10002C28FBD0A0F13002092A3FF690AE334ACE
:100D2000137803EB830300EB4303303B47E63A2899
:100D300001D10C2368E6A0F13002092A3FF67FAE0C
:100D4000284A138803EB830300EB4303303B1380F3
:100D5000A3E6274B9B6803B19847224A1388013BBF
:100D60009BB21380002B7FF498AE23701A4B1B6844
:100D7000002B3FF492AE1F4898478EE600231E4A90
:100D80002370136089E61A4B00201B689847124BAA
:100D90001B680BB11948984715232B702378DA0785
:100DA00040F1E581164A126832B9054A23F0090379
:100DB0001188044A23701180BDE8F88F780B002059
:100DC0008602002088020020680B0020740B00209F
:100DD000640B0020920A0020600B00207AB8000803
:100DE0008FB800088E0A0020D90A0020910A00203E
:100DF00078020020A3B80008700B0020B6B80008E5
:100E00006C0B0020914B01201B689847904B1B688E
:100E10000BB19048984716232B704FF4FA73336048
:100E2000BCE7012300222B708B4B1A70B6E78A4A6D
:100E300013782BB1013BDBB213701BB91423ACE761
:100E4000042313702378854823F020032370FFF7D1
:100E500053FB7F4B1B680BB18148984702239CE7EB
:100E600023789E0640F17581032396E77D48FFF7BE
:100E700043FB774B1B680BB17B489847237823F0E3
:100E800020032370042388E72378980640F16181CA
:100E9000052382E77548FFF72FFB237823F0200313
:100EA0002370062379E72378990640F152810723BE
:100EB00073E76F4B1B786BB16E48FFF71DFB644BFC
:100EC0001B680BB16C489847237823F020032370EC
:100ED000082362E76948F0E723789A0640F13981F0
:100EE000634B1B78002B0CBF0C23092355E7644888
:100EF000FFF702FB2220FFF719FB6248FFF7FCFA1D
:100F00002220FFF713FB2C20FFF710FB2220FFF716
:100F10000DFB5D48FFF7F0FA2220FFF707FB2C20BE
:100F2000FFF704FB5948FFF7E7FA2C20FFF7FEFA1A
:100F30005748FFF7E1FA0D20FFF7F8FA0A20FFF70C
:100F4000F5FA434B1B680BB1524898470A2324E734
:100F50005148FFF7D1FA3E4B1B680BB14F489847F9
:100F60000B231AE74E48FFF7C7FA394B1B680BB142
:100F70004C489847132310E74B4F3B78002B3FF426
:100F80000DAF4A48FFF7B8FA2220FFF7CFFA3846EC
:100F9000FFF7B2FA2220FFF7C9FA2C20FFF7C6FAB2
:100FA0002220FFF7C3FA4248FFF7A6FA2220FFF7F4
:100FB000BDFA0D20FFF7BAFA0A20FFF7B7FA244B63
:100FC0001B680BB13B489847237823F0200323701C
:100FD0000D232B7040F2DC5321E723789B0640F170
:100FE000B8800E2304222B701B4B1EE70022324BCD
:100FF00032481A70FFF780FA154B1B680BB1304866
:101000009847237823F0200323700F23C5E6237825
:101010009F0601D51023C0E60F4A1378013BDBB2CF
:101020001370002B00F095800E23B6E6254B1B783D
:10103000002B3FF4B3AE2448FFF75EFA044B1B6865
:101040000BB1224898471123A7E600BF7802002081
:10105000600B0020CCB80008840200207DBF00088F
:10106000E2B800086FBF0008F0B8000804B9000833
:10107000920A002016B9000832B9000824B9000805
:1010800025BF0008B30A0020930A002002000020B8
:101090000000002046B9000811BF000859B9000837
:1010A000FDBE00086DB900081F0B002065BF0008D9
:1010B000FF0A002084B90008D90A00205ABF00089E
:1010C00097B90008EF0A00203FBF0008A8B9000840
:1010D0003C48FFF711FA2220FFF728FA3A48FFF7B9
:1010E0000BFA2220FFF722FA2C20FFF71FFA22200A
:1010F000FFF71CFA3548FFF7FFF92220FFF716FA31
:101100002C20FFF713FA3248FFF7F6F92C20FFF7EF
:101110000DFA3048FFF7F0F92C20FFF707FA3020DE
:10112000FFF704FA0D20FFF701FA0A20FFF7FEF996
:10113000294B1B680BB129489847237823F060039B
:10114000237012232B70C82369E623789E063FF58F
:1011500011AF012321E6224B1B780BB100235EE681
:1011600023789807F5D559067FF554AFF6E71D4D5E
:101170001D492A88098891423FF41EAE1B4E5F0725
:10118000B05C02D53E2808BF0A20194B5B6898471F
:1011900000283FF411AE22782B8851070AD5F15C64
:1011A0003E2907D1322122F0050242F001022270CD
:1011B000104A116001339BB2B3F5806F08BF002362
:1011C0002B80F9E54DBF000805000020EF0A002044
:1011D000E90A0020D30A0020600B0020BEB90008F5
:1011E000920A002088020020860200208E02002041
:1011F000780200206C0B0020014B1860704700BF84
:10120000640B0020014B1860704700BF600B00208A
:101210000022F0B5084BD4B2A14202F1010200D87D
:10122000F0BD5D791E686F1C5F71045D74555C795B
:10123000DD792C405C71EEE748120020021E18BFD9
:1012400001224FF40071014804F056BD000C01402A
:101250001FB514461A464FF0FF330091CDE9014304
:1012600001460123024804F0E7FF04B010BD00BFAF
:10127000A0140020FFF7ECBF13B514461A46CDE9C1
:10128000001401230146024805F066F802B010BDC3
:10129000A014002013B514461A46CDE9001401230A
:1012A0000146024805F01EF902B010BDA01400204E
:1012B00007B501228DF807000DF10701034807F07B
:1012C0000EFFB0FA80F0400903B000BDB01200205C
:1012D00010B50446FEF73CFF81B22046BDE8104041
:1012E00009F0AABB10B5164B1B78F3B115490C7861
:1012F000FF2C15D07E2C144B13D818550020621CDF
:10130000D2B2012A0A7098540AD0134413F8022C5E
:101310000D2A05D113F8013C0A2B01D1FF230B70D4
:1013200010BD00220A701A70FAE7084B5A79196842
:10133000541C5C7188545A79D9790A405A71EFE784
:10134000870D0020880D0020890D0020301200201C
:10135000032810B5184C15D10C21184B18481A78D1
:10136000184B01FB02330F22996809F0A1FD0023FD
:10137000134A2370D3730122134B1A700522134BA7
:101380001A7010BD124B22781B7813431843C0B259
:101390000028F6D1012340F6B8320C2123700D4B02
:1013A000BDE810401A80054B064A1B784B43D11804
:1013B0004968D058FFF7CEB8300C0020310C00201F
:1013C00050000020A4D50008320C0020600000204E
:1013D000870D00204C000020038830B58B421FD2BF
:1013E000C38B8B4219D9002330F8024BA14211D391
:1013F000028891420ED80B48121BC55A0230C35ABC
:10140000091B5B1B500801FB0300B0FBF2F02844F2
:1014100080B230BD02331E2BE6D14FF47A70F8E76C
:101420000020F6E704D50008054B064A03F1100139
:1014300053F8040B8B4242F8040BF9D1704700BFFC
:1014400070120020601200200122014B1A707047B8
:10145000A91200200122014B1A707047A812002027
:101460000268264B10B59A42044612D1244A2549F7
:10147000137825480133DBB2282B01BF00231370FA
:10148000224A137808BF43F080031370082203F048
:10149000AFFF2368B3F1804F18D11D4A13782BB1E9
:1014A0001378012B02D01378022B08D1012419499B
:1014B00019480B78C454234403F00F030B701749E9
:1014C0000B78013B13F0FF0301D00B7010BD142308
:1014D0000B701378032B02D01378042BF6D1012064
:1014E0000C4A0D491378C8540344002003F00F033D
:1014F000C854013303F00F031370E7E7002C0140D9
:10150000AA12002070120020381500202A0E002098
:10151000AC12002080120020811200206600002002
:10152000F0B5026883790C46D15C0546A1F1A003B1
:1015300091B0512B00F2D986DFE813F052005C0025
:101540006C00B80007013201AB01C8015301710101
:101550008E010A0250046D048A04A704C404E10445
:101560002902FE041B053805550573059105AF05D5
:10157000D706D706D706D706D706D706CD05440225
:101580006102EB0509062C064A0668068606A406D3
:10159000C206D706D706D706D706D706D706D70678
:1015A000D706D706D706D706D706D706D706D70653
:1015B000D706D706D706D706D706D706D706D70643
:1015C000D706D706D706D706D706D706D706D70633
:1015D000D706D706D706D706D706D7068602CC0386
:1015E000A0210222204603F022FC0D21204603F018
:1015F00066FC08E0A1210D22204603F018FC2046DD
:10160000C14903F06FFC2046217A11B0BDE8F040DB
:1016100003F055BC0D22A221204603F008FCBB4B71
:10162000BB4DB3F9001020462980C9B203F047FC36
:101630006978204603F043FCB64B2046B3F900100E
:101640002980C9B203F03BFC6978204603F037FCDF
:10165000B14B2046B3F900102980C9B203F02FFC2A
:101660006978204603F02BFCAC4B2046B3F9001000
:101670002980C9B203F023FC6978204603F01FFCDF
:10168000A74B2046B3F900102980C9B203F017FC1C
:101690006978204603F013FCA24BB3F900102980AF
:1016A0002046C9B203F00BFC69789FE79E4E1122D9
:1016B000A321204603F0BBFB954D318820462980AD
:1016C000C9B203F0FCFB6978204603F0F8FB71888F
:1016D00020462980C9B203F0F2FB6978204603F066
:1016E000EEFBB18820462980C9B203F0E8FB697897
:1016F000204603F0E4FBF18820462980C9B203F0BC
:10170000DEFB6978204603F0DAFB31892046298028
:10171000C9B203F0D4FB6978204603F0D0FB71898D
:1017200020462980C9B203F0CAFB6978204603F03D
:10173000C6FBB18920462980C9B203F0C0FB697895
:10174000204603F0BCFBF189A9E70222A421204630
:1017500003F06DFB0D21204603F0B1FB217A2046FA
:1017600003F0ADFB00220121284603F0E0FB684CAA
:10177000002201212070284603F0D9FB6070B4F9E3
:1017800000202388002A6949694AB5BF5B4213805B
:101790000B800023B6BF00230B80138011B0F0BD77
:1017A0000222A521204603F042FB0D21204603F032
:1017B00086FB217A204603F082FB00220121284685
:1017C00003F0B5FB524C002201212070284603F0A3
:1017D000AEFB6070B4F900202388002A5549564AB0
:1017E000D3E70222A821204603F021FB0D21204649
:1017F00003F065FB217A204603F061FB0022012102
:10180000284603F094FB424C002220700121284618
:1018100003F08DFB60702288484B1A80BEE70222DD
:10182000A921204603F003FB0D21204603F047FBCE
:10183000217A204603F043FB00220121284603F0D1
:1018400076FB334C002220700121284603F06FFB09
:10185000607022883A4BE0E70222AA21204603F07A
:10186000E6FA0D21204603F02AFB217A204603F0F8
:1018700026FB00220121284603F059FB244C0022BC
:1018800020700121284603F052FB607022882D4B06
:10189000C3E70222A621204603F0C9FA0D21204603
:1018A00003F00DFB217A204603F009FB0022012101
:1018B000284603F03CFB164C0022207001212846EC
:1018C00003F035FB607022881F4BA6E70222A72198
:1018D000204603F0ACFA0D21204603F0F0FA217AFD
:1018E000204603F0ECFA00220121284603F01FFBFA
:1018F000074C002220700121284603F018FB60707D
:101900002288124B89E700BFE0D50008A61200200C
:101910002C0E0020A4120020A2120020A0120020F1
:101920009E1200209C12002060120020240E002035
:10193000220E0020280E0020260E00204400002049
:1019400042000020F00B00203C0000203E00002060
:101950000222AB21204603F06AFA0D21204603F053
:10196000AEFA217A204603F0AAFA00220121284685
:1019700003F0DDFA304C002220700121284603F0EC
:10198000D6FA6070B4F900202C4B1A6006E70222E8
:10199000B221204603F04BFA0D21204603F08FFAC6
:1019A000217A204603F08BFA00220121284603F019
:1019B000BEFA214C002220700121284603F0B7FA1C
:1019C0006070EBE60222C121204603F030FA0D21BF
:1019D000204603F074FA217A204603F070FA0022C0
:1019E0000121284603F0A3FA134C002220700121A4
:1019F000284603F09CFA60702288114B0DE7022202
:101A0000C221204603F013FA0D21204603F057FAB5
:101A1000217A204603F053FA00220121284603F0E0
:101A200086FA054C002220700121284603F07FFA37
:101A300060702288034BF0E62C0E0020340000205A
:101A4000640000206200002000254F22F021204683
:101A500003F0EDF9B94B03AF1B88ADF80C30B84B70
:101A60001B88ADF80E30B74B1B88ADF81030B64B65
:101A70001B88ADF81230B54B1B88ADF8143037F920
:101A8000026B2046F1B203F01AFA01352046C6F384
:101A9000072103F014FA052DF1D1AD4D2046297828
:101AA00003F00DFA6978204603F009FAA978204678
:101AB00003F005FAE9780025204603F000FAA54B6B
:101AC000ADF830501B8809AFADF82430A24B1B880D
:101AD000ADF82630A14B1B88ADF82830A04B1B88F1
:101AE000ADF82A309F4B1B88ADF82C309E4B1B88DD
:101AF000ADF82E3037F9026B2046F1B203F0DFF972
:101B000001352046C6F3072103F0D9F9072DF1D19D
:101B10000025964B06AF1B88ADF81830944B1B88F8
:101B2000ADF81A30934B1B88ADF81C30924B1B88D4
:101B3000ADF81E30914B1B88ADF82030904B1B88C0
:101B4000ADF8223037F8026B2046F1B203F0B7F956
:101B500001352046310A03F0B2F9062DF2D10025F5
:101B6000884B01AF1B88ADF80430874B1B88ADF85C
:101B70000630864B1B88ADF80830854B1B88ADF8C6
:101B80000A3037F8026B2046F1B203F098F90135BC
:101B90002046310A03F093F9042DF2D17D4B002148
:101BA000B3F90050204603F08AF90021204603F0E3
:101BB00086F9E9B2204603F082F9C5F307212046F1
:101BC00003F07DF9744B754AB3F90060B2F9005027
:101BD0001978204603F073F9C6F30721204603F075
:101BE0006EF9E9B2204603F06AF9C5F307216C4D9E
:101BF000204603F064F92978204603F060F96978FB
:101C0000204603F05CF9A978204603F058F9E978FA
:101C1000204603F054F9634B634AB3F90060B2F90C
:101C200000501978204603F04AF9C6F307212046F0
:101C300003F045F9E9B2204603F041F9C5F3072165
:101C40005A4D204603F03BF92978204603F037F936
:101C50006978574D204603F032F9A978204603F001
:101C60002EF969882046090A03F029F9A979204646
:101C700003F025F9E9882046090A03F020F9A97A3A
:101C8000204603F01CF969894A4D090A204603F0F1
:101C900016F929882046C9B203F011F92988464D62
:101CA000C1F30721204603F00AF929882046C9B26A
:101CB00003F005F92988414DC1F30721204603F0BF
:101CC000FEF829882046C9B203F0F9F82988C1F343
:101CD00007218BE400261D22F121204603F0A7F8FE
:101CE000374B09AF1B680993364B1B680A93364B79
:101CF0001B680B93354B1B680C93354B1B680D937E
:101D0000344B1B680E93344B1B680F9357F8045BDE
:101D10002046E9B203F0D3F8C5F30721204603F0CB
:101D2000CEF8C5F30741204603F0C9F80136204636
:101D3000290E03F0C4F8072EE8D164E44400002023
:101D4000F00B0020420000203C0000203E0000205C
:101D5000340000202E0000202C000020EE0B00207C
:101D6000EC0B002026000020320000201E00002086
:101D7000180000201A000020160000201C0000207F
:101D8000140000203A0000203800002064000020E9
:101D900062000020DE0B0020DC0B00203000002061
:101DA000140C00202400002022000020200000202D
:101DB000601200202E0C00202C0C00202A0C002089
:101DC000040C0020F80B0020FC0B0020F40B00207A
:101DD000100C0020CC0B0020480000200222AC2177
:101DE000204603F024F80D21204603F068F8217AFC
:101DF000204603F064F800220121284603F097F8FA
:101E0000D44C002220700121284603F090F8607025
:101E10002288D14B01E50222AD21204603F007F8CC
:101E20000D21204603F04BF8217A204603F047F8B5
:101E300000220121284603F07AF8C64C00222070C7
:101E40000121284603F073F860702288C34BE4E454
:101E50000222AE21204602F0EAFF0D21204603F0C7
:101E60002EF8217A204603F02AF800220121284684
:101E700003F05DF8B74C002220700121284603F0E2
:101E800056F860702288B64BC7E40222AF21204684
:101E900002F0CDFF0D21204603F011F8217A2046F3
:101EA00003F00DF800220121284603F040F8A94C68
:101EB000002220700121284603F039F86070228842
:101EC000A84BAAE40222B021204602F0B0FF0D2167
:101ED000204602F0F4FF217A204602F0F0FF0022B3
:101EE0000121284603F023F89A4C0022207001219A
:101EF000284603F01CF8607022889B4B8DE4022278
:101F0000B121204602F093FF0D21204602F0D7FFB9
:101F1000217A204602F0D3FF00220121284603F057
:101F200006F88C4C002220700121284602F0FFFFA9
:101F3000607022888D4B70E40222B321204602F0AB
:101F400076FF0D21204602F0BAFF217A204602F0EA
:101F5000B6FF00220121284602F0E9FF7D4C002255
:101F600020700121284602F0E2FF60702288804B39
:101F700053E40222B421204602F059FF0D212046ED
:101F800002F09DFF217A204602F099FF00220121F4
:101F9000284602F0CCFF6F4C002220700121284619
:101FA00002F0C5FF60702288724B36E40222B52130
:101FB000204602F03CFF0D21204602F080FF217AEE
:101FC000204602F07CFF00220121284602F0AFFFEC
:101FD000604C002220700121284602F0A8FF6070AA
:101FE0002288654B19E40222B621204602F01FFF29
:101FF0000D21204602F063FF217A204602F05FFFA8
:1020000000220121284602F092FF524C002220704B
:102010000121284602F08BFF60702288574BFFF7A2
:10202000FCBB0222B721204602F001FF0D21204611
:1020300002F045FF217A204602F041FF00220121F3
:10204000284602F074FF434C0022207001212846EC
:1020500002F06DFF60702288494BFFF7DEBB022261
:10206000B821204602F0E3FE0D21204602F027FFB2
:10207000217A204602F023FF00220121284602F0A7
:1020800056FF344C002220700121284602F04FFFF9
:10209000607022883B4BFFF7C0BB0222B92120466B
:1020A00002F0C5FE0D21204602F009FF217A2046EC
:1020B00002F005FF00220121284602F038FF254CDE
:1020C000002220700121284602F031FF6070228832
:1020D0002D4BFFF7A2BB0222C021204602F0A7FE33
:1020E0000D21204602F0EBFE217A204602F0E7FEA9
:1020F00000220121284602F01AFF164C002220700F
:102100000121284602F013FF607022881F4BFFF761
:1021100084BB0222C321204602F089FE0D21204605
:1021200002F0CDFE217A204602F0C9FE00220121F4
:10213000284602F0FCFE074C0022207001212846B0
:1021400002F0F5FE60702288114BFFF766BB022299
:10215000C4211EE42C0E00202E0000202C000020A4
:10216000EE0B0020EC0B00202600002032000020A7
:102170001E000020180000201A0000201600002079
:102180001C000020140000203A000020380000202D
:10219000DE0B00200222C521204602F048FE0D2160
:1021A000204602F08CFE217A204602F088FE0022B2
:1021B0000121284602F0BBFE4F4C00222070012175
:1021C000284602F0B4FE607022884C4BFFF725BB16
:1021D0000222C621204602F02AFE0D21204602F0EE
:1021E0006EFE217A204602F06AFE00220121284676
:1021F00002F09DFE404C002220700121284602F092
:1022000096FE607022883E4BFFF707BB0222C72173
:10221000204602F00CFE0D21204602F050FE217AED
:10222000204602F04CFE00220121284602F07FFEEB
:10223000314C002220700121284602F078FE6070A7
:102240002288304BFFF7E9BA0222C821204602F06B
:10225000EEFD0D21204602F032FE217A204602F0EA
:102260002EFE00220121284602F061FE224C0022AF
:1022700020700121284602F05AFE60702288224B0D
:10228000FFF7CBBA0222C921204602F0D0FD0D2172
:10229000204602F014FE217A204602F010FE0022B1
:1022A0000121284602F043FE134C00222070012138
:1022B000284602F03CFE60702288144BFFF7ADBA4E
:1022C000134D04222B88CA21013320462B8002F0B3
:1022D000AEFD0D21204602F0F2FD29882046090AB4
:1022E00002F0EDFD2978FFF781B90222204602F0C5
:1022F0009EFDFF21FFF77AB92C0E0020DC0B002099
:1023000030000020240000202200002020000020B7
:10231000B80B0020F0B516464379027905469A427B
:102320000C46C3B01DD002F00FFED0B1012E04BF89
:102330000022154B2146284608BF1A70FFF7F0F817
:102340000022617A02A8D3B299420CD8C6B1FEF736
:102350002FF94FF4807300930022637A02A9FEF7ED
:1023600099F943B0F0BDA77925687B1CDBB2A37156
:10237000ED5D013200F8015BE5792B40A371E2E7E6
:1023800002A808F059FBECE76000002010B50D4BE7
:102390000D4C1A780D4B0E4853F822100122237869
:1023A00002FA03F38B4308BF1A464FF4005103F0BF
:1023B000A3FC23780133DBB2142B28BF0023237046
:1023C00010BD00BFAB120020B60B00206C00002037
:1023D000001001402DE9F0418C4B8D4C1B788AB0E8
:1023E000032B5FFA83F840F02B810025012002F0D7
:1023F000AFF84023202229461E20009502F0F8F96C
:102400001623802214212846009502F0F1F940237A
:10241000522229465020009502F0EAF97D4E2946C5
:10242000282002F099F97C4902A808F097FD96E867
:102430000E00009502A802F079F92946552002F015
:102440008BF9764902A808F089FD96E80E00009500
:1024500002A802F06BF91921282002F07DF9704BD7
:102460002021B3F900306F4A02A808F0E3FC94E899
:102470000E00009502A802F059F91921552002F02A
:102480006BF9694B2021B3F90030664A02A808F0C5
:10249000D1FC94E80E00009502A802F047F925212E
:1024A000282002F059F9614B2021B3F900305D4A30
:1024B00002A808F0BFFC94E80E00009502A802F004
:1024C00035F92521552002F047F9594B2021B3F960
:1024D0000030544A02A808F0ADFC94E80E000095C4
:1024E00002A802F023F93121282002F035F9514BDE
:1024F0002021B3F900304B4A02A808F09BFC94E875
:102500000E00009502A81E2602F010F93121552078
:1025100002F022F9484B2021B3F90030414A02A8C9
:1025200008F088FC94E80E0040F6FA74434F0095DA
:1025300002A802F0FBF83B8842467343B3FBF4F376
:10254000C3F13C033C214046DBB2009502F00AF99E
:102550007B8806227343B3FBF4F3C3F13C031046BC
:102560003C21DBB2009502F0FDF8BB8809227343E1
:10257000B3FBF4F3C3F13C0310463C21DBB20095FE
:1025800002F0F0F8FB880C227343B3FBF4F3C3F1C1
:102590003C0310463C21DBB2009502F0E3F83B8996
:1025A0000F227343B3FBF4F3C3F13C0310463C2109
:1025B000DBB2009502F0D6F87B8912227343B3FB9D
:1025C000F4F3C3F13C0310463C21DBB2009502F06A
:1025D000C9F8BB8915227343B3FBF4F3C3F13C0381
:1025E00010463C21DBB2009502F0BCF81822FB89B2
:1025F0003C217343B3FBF4F31046C3F13C03009555
:10260000DBB202F0AFF80AB0BDE8F081AC120020F6
:1026100090BF000884BF0008D4B90008D8B90008EA
:10262000A6120020DCB90008A0120020A41200208D
:102630009E120020A21200209C1200206012002096
:10264000002001F085FF02210125084602F084F8F0
:1026500094E80E004548009502F068F80221242015
:1026600002F07AF8424B20211B68424A02A808F087
:10267000E1FB94E80E00009502A802F057F8112142
:10268000022002F069F894E80E003B48009502F041
:102690004DF81121242002F05FF80522374B20214C
:1026A0001B6802A803EB430393FBF2F3344A08F0E0
:1026B000C1FB94E80E00009502A802F037F8202133
:1026C000022002F049F894E80E002E48009502F02E
:1026D0002DF82021242002F03FF864212A4E02A880
:1026E000326892FBF1F301FB1322002AB8BF524279
:1026F00020210092254A08F09DFB94E80E000095E9
:1027000002A802F013F82F21022002F025F894E825
:102710000E001F48009502F009F824202F2102F036
:102720001BF842F226323368009503F58C531333BD
:10273000934298BF174894E80E0088BF164801F0EE
:10274000F5FF01240E237F2219460020009402F099
:1027500009F81D237F2219460020009402F002F898
:102760002C237F221946002000944AE7DFB9000895
:1027700098120020E4B90008EDB900089412002076
:10278000F2B90008FCB90008100C002001BA0008DA
:102790000BBA000810BA00081ABA000837B53F4B48
:1027A0003F4C1A782AB11A78012A02D01B78022BE2
:1027B00016D12378013B012B12D800232370394A0C
:1027C000394B11781B788B4208D038484B1C415C40
:1027D00003F00F0391B103212170137003B030BDDA
:1027E0002378032B57D801A252F823F0BF27000803
:1027F000012800080B280008252800080121EBE724
:10280000FFF7E8FD02232370E8E7294804F05EFEA5
:102810002028E3D101F0C2FE0028DFD00023254AA2
:102820001370F0E7224804F054FE234D10B14FF42A
:102830007A732B601E4804F049FE202816D101F05F
:10284000CDFD98B11D4B1E4A01931E4B1E490093AE
:102850001E481F4B01F00AFE00231E4A1E4913703A
:102860000A7842F008020A702B60CCE72B6801332B
:10287000B3F5FA7F2B60B1D90D4803F0C3FC0120FA
:1028800002F03CFC0A4803F015FC01F071FD01F078
:1028900097FD0023E8E70023B5E700BFAC12002056
:1028A000B50B0020B40B0020801200208112002004
:1028B000A0140020A9120020B00B00209C120020C0
:1028C000A21200209E120020A4120020A6120020B6
:1028D000A0120020A81200202A0E0020074B084A50
:1028E0001B6812885A63074A1288DA63064A1288FC
:1028F0009A63064A12881A64704700BF401300208A
:10290000280E0020240E0020260E0020220E00207B
:1029100013B50B4B044600934FF4AA71094B0A4AB6
:102920000A4808F087FA4FF4AA7300220093204661
:1029300040F243130549FDF7ADFE02B010BD00BFE4
:1029400065BA000820BA000860BA0008330C0020FD
:1029500013B50A4B044600934FF4AA71084B094A79
:10296000094808F067FA4FF4AA7300220093204642
:10297000B3230549FDF78EFE02B010BD6ABB000807
:1029800020BA000860BA0008330C00202DE9F84393
:1029900000241F460C7014701C7047F23A53089DB7
:1029A00089462B8032490646904608F094FA58B181
:1029B000043010F8013FE2B213F0DF0F01D0262BF4
:1029C00036D1002309F8023030462A4908F083FA4C
:1029D00060B10023043010F8012FD9B212F0DF0FDC
:1029E00001D0262A2ED1002308F801303046224992
:1029F00008F071FA58B10023C21C12F8011FD8B2B6
:102A000011F0DF0F01D0262926D100233B54304698
:102A10001A4908F060FA48B10023053010F8012F78
:102A2000303AD1B209291DD903B12B80BDE8F88312
:102A30002B2B08BF202309F8043001343F2CB8D1D8
:102A40002246BEE72B2A08BF202208F803200133C4
:102A50003F2BC0D11946C6E7F95401330F2BCCD117
:102A60001846D2E703EB830302EB430293B2D5E7A8
:102A7000DFBB0008E5BB0008EBBB0008F0BB0008AB
:102A80002DE9F043344BA9B01E785EB100221A70D4
:102A900047F23152314B3248198829B0BDE8F04332
:102AA000FDF78CBDDFF8BC9099F80030002B42D0C8
:102AB0002D4F3B78FF2B3ED1FDF77AFD2B4C804606
:102AC0002B49204608F007FA0546002836D0402258
:102AD000314608A808F0E4F94022314618A808F069
:102AE000DFF9102231460DEB020008F0D9F90DF1A3
:102AF0000E030093204604AB18AA08A9FFF746FF6F
:102B00009DF8103033B1164B0F22184604A908F077
:102B1000CFF9C673BDF80E300BB1104A1380404692
:102B2000FFF716FF002318A908A889F800303B70AA
:102B30002370FDF70FFD29B0BDE8F08320460D4955
:102B400008F0C9F928B14046FFF7E2FE3D70257054
:102B5000F1E738702070EEE7320C00204E000020C4
:102B600050000020870D0020880D0020890D0020D6
:102B7000F7BB000801BC000840F2012303800023DA
:102B800083708380C380704702780346032A1DD870
:102B9000DFE802F00F021407427842B903221A70EC
:102BA00005E0417801220029F9D1017082700020EE
:102BB00070474278012AFAD10222F0E740780022D9
:102BC0000128ECD118709A70D87170470122E6E79D
:102BD00070B504464FF400411D4803F087F8A6780D
:102BE0001C4A1D491D4DAEB188B113780133DBB2CB
:102BF000072B137003D90123637000231370002384
:102C00000B702B78EBB1A3880A33A38070BD607082
:102C10001070F4E70B781670042B0FD9003818BF2A
:102C200001200E70607000232B70A3796BB1A38814
:102C3000002BEBD0092B08D90A3BE6E701330B70D8
:102C4000F1E7A38001232B70DDE70023DDE700BF60
:102C5000000C0140AC0B0020AB0B0020AA0B0020A5
:102C600037B53E4D2B78DB0934D02B7823F0800329
:102C70002B70FDF7DBFD3A48FFF7AAFF394890F8C3
:102C80004230222B09D0036837491A685B68202339
:102C9000012280F8423006F002FC344B1B7823B14D
:102CA00033490A88C2B1013A0A80324A1378013B9B
:102CB00013F0FF0303BF022313702B78137004BFBC
:102CC00043F040032B702C4B1C78013C14F0FF04A4
:102CD00017D01C7003B030BD284803780133DBB235
:102CE000042B94BF1A461346027040F6B8320A808D
:102CF0000C214B43224AD1184968D058FDF72AFCD1
:102D0000D3E70A221A702B7843F020032B70FFF7C9
:102D10003DFB1C4A13780133DBB2092B01D8137039
:102D2000D8E71470184C2378042B9CBF0133237010
:102D3000164B1D78002DCDD1FDF786FC0728C9D193
:102D40002378042BC6D94FF480732A460093284673
:102D500009230F49FDF79EFCBCE700BF2A0E0020A7
:102D60000A0E0020B0120020200E0020300C00209F
:102D70004C0000206700002068000020310C00207B
:102D8000A4D50008210E002060000020870D00203F
:102D90000B000020F8B583780446002B4CD18388C3
:102DA000002B49D18379002B46D0C579EDB140F68F
:102DB000B732A388934258D8A3F5FA62B2F57A7F66
:102DC00057D2374804F082FB202838D1002504264A
:102DD000E571344B1E7001F023FC012001F03CFD35
:102DE000314BA5711E70A58029E02D4804F06EFBC3
:102DF000202824D1284601F0ABFB01F0B5FB94F864
:102E000006C02A492A4ABCF1020FB1F90030B2F9D2
:102E10000000244F244E24D0BCF1030F10D0BCF18D
:102E2000010F1ED13570234E3D703380224B0D8033
:102E3000188015800023A371E379002BB7D1F8BD6A
:102E40004FF0020C87F800C01C4F86F800C03D70A0
:102E50000343EFD1174B1B880B80174B1B88138044
:102E6000E8E701253D703570F2E70023E371A380A8
:102E7000E5E7A3F57A73B3F57A7F08D2084804F042
:102E800025FB2028DBD100250326E571A1E70023DF
:102E9000E371A3790133A3714FF4C873E7E700BF6F
:102EA000A0140020AC120020AB1200202E00002045
:102EB0002C0000202A00002028000020C00B002049
:102EC000F8B51D4640F2F3139A42CCBF002401240A
:102ED0009942D8BF01347B4F9842D8BF01343B7828
:102EE0008446032B00F2EB80DFE813F004001100AE
:102EF0006E00E500B1F5FA7F02DA01233B7009E0CC
:102F0000714B724AB3F900305B42136002E0032C4C
:102F100001D13C70F8BD6E4E6E4914BB3388086811
:102F200001339BB2052B33800FD90028B4BF012297
:102F30004FF0FF32684B34801C80684B1C70684B2C
:102F40001C60684B1A700223D8E7674B1860674B08
:102F50001A685E4B1A60664B0860B3F900302B604C
:102F6000D8E7002333804FF47A7303FB02F0614A01
:102F700002FB0C00604A126890FBF2F00A2290FB00
:102F8000F2F0594A80EAE07410605C4AA4EBE07405
:102F900014605B4AB2F900204243624392FBF3F2B1
:102FA000584B4A4CB3F9003000FB0322564B2260C9
:102FB000B3F900309A4202DD1A46236002E05B4218
:102FC0009A42F9DB494BC5E7B1F5FA7F95DB41F24F
:102FD00088304E4B4E4A1B88B2F900101BB2C91AFA
:102FE0004C4A002381FB0001FDF7BAF83C4B3B49FA
:102FF0001A680C7810446FF0630218602A60334A34
:10300000032C56D8DFE804F0021A283F354C94F917
:103010000040002C404CC8BF4FF4AF74146047F21E
:103020002F520028B8BF404290427FF773AF002272
:103030001A60294B1A8001230B706BE70024264885
:1030400014600288013292B2632A02807FF662AF76
:103050001C6004800223EFE7224C94F90040002C0E
:103060002D4CD8BF4FF4AF7414604EF65F22002889
:10307000B8BF404290427FF74DAF00221A60164B16
:103080001A800323D8E7174C94F90040002C224CF7
:10309000C8BF4FF4AF7400281460204AB8BF404244
:1030A00090427FF737AF00221A600B4B1A8004233F
:1030B000C2E7002329E7032C7FF41FAF2AE7002390
:1030C0001CE700BFC40B002026000020CC0B002012
:1030D000A80B0020C80B0020C20B0020C10B002051
:1030E000A40B00200A000020D40B0020A00B00201D
:1030F0003200002018FCFFFFD80B0020D00B00206E
:103100002C0000202E00002020000020BA0B002000
:103110009C120020B8FF0100A2FEFFFF3F7E0500C9
:1031200038B50C46054601880948FEF755F9208058
:1031300069880848FEF750F96080A9880648FEF7BC
:103140004BF9A080E9880548FEF746F9E08038BDD4
:1031500084D5000864D5000844D5000824D50008AB
:1031600038B50C46054601880C48FEF735F9208035
:10317000A9880B48FEF730F9608029890948FEF7D5
:103180002BF9A080A9890848FEF726F9E080E98993
:103190000648FEF721F9208138BD00BFE4D40008BD
:1031A000C4D40008A4D4000884D4000864D400085F
:1031B00037B5354B354C19782278914261D0227859
:1031C0001A7023782BB12378012B02D02378022B9D
:1031D00057D12F4804F07AF92028FAD1012001F0C4
:1031E0003BFB002001F0B4F92378D3B90125294C29
:1031F0001421162001F0B0FA94E80E00264800953C
:1032000001F094FA2221242001F0A6FA94E80E009D
:103210002248009501F08AFA03B0BDE8304001F081
:10322000A3B92378012BDDB213D11A4C1421162037
:1032300001F092FA94E80E001948009501F076FA30
:103240002221042001F088FA94E80E001548009528
:10325000E0E72378022BDFD101250E4C1421162044
:1032600001F07AFA94E80E000F48009501F05EFA3A
:103270002221242001F070FA94E80E000B480095FA
:10328000C8E703B030BD00BF09000020AC12002029
:10329000A014002090BF000807BC000814BC000860
:1032A0001DBC00082ABC00083CBC000849BC000842
:1032B00010B594B0142200210CA807F0F1FD1422DF
:1032C00000210DEB020007F0EBFD1022002101A808
:1032D00007F0E6FD02244FF480330122CDE91143CB
:1032E000CDE90A234FF4E0130AA80E92139304F0D9
:1032F0006BFF08B172B6FEE70F23CDE905344FF43A
:1033000080630790CDE90830214605A805F01EF935
:1033100008B172B6FEE7122301934FF40043CDE9E2
:10332000033001A805F0CEF908B172B6FEE714B07B
:1033300010BD00000268084B10B59A420AD1074C34
:103340002078FDF793F92146BDE81040012204489A
:1033500006F0A5B810BD00BF00380140200E0020C7
:10336000B01200200368074A934209D11A685B68CB
:103370002023012280F842300349044806F08FB828
:10338000704700BF00380140200E0020B01200201E
:103390008D4A2DE9F04F15688C4ADFF834A2146885
:1033A0008C4A85B0B2F900B08B4ADAF80030B2F935
:1033B000002003900292894AB2F9007043EA0502A4
:1033C000224300F0B2805A210A224B4302FB0B3009
:1033D000642390FBF3F04D434C430190029802FBB1
:1033E000074402FB005594FBF3F495FBF3F5019BB6
:1033F0007B4ACAF80030744BB2F900801D60734BF1
:103400001C60784B1B68002B00F09480434403EB56
:10341000D3735B1000934FF48F704FF06409714BBE
:10342000009A1A60704A116800FB01F292FBF9F6EB
:1034300081FB01024FEAE17C00FB0CFC01FB02CCAA
:103440005DA3D3E90023A0FB01016144FCF788FEE2
:10345000311A664E33889BB2952B6ED833889BB257
:10346000272B31D8624B4FF48F70C3F80080614B2B
:103470005549B3F90020604B029C1A605F4B604ACB
:103480001F60232303FB08F3136093FBF9F3564AF1
:103490000C60136000FB03F483FB0302DD1745435C
:1034A0004A4903FB02550F60A0FB030142A3D3E985
:1034B0000023CAF800B02944FCF752FE94FBF9F44B
:1034C000484B211AC3F8008033889BB2312B0AD9AC
:1034D000444A4C4B10681A68401A10444A4A186013
:1034E00013683B441360338801339BB233803388C5
:1034F0009BB2962B0DD16422424B44491B6893FB2F
:10350000F2F30B80404B1B6893FBF2F3404A1BB273
:10351000138000233F4A13603F4A13602B4B1A6805
:10352000364B1A6005B0BDE8F08F3C46029DCDF8E1
:1035300004B05CE7CDF800806DE7304B00981A6866
:103540001C60324BA21AB3F900306443C31A5B1AF1
:10355000019905FB0544694330482F4DB4FBF0F455
:1035600091FBF0F11B1B0B44062192FBF1F213447B
:10357000284A03981360136840F6262203F2135179
:10358000914298BF00230399DA17A3FB013100FB96
:103590000211D81841EB0106C01841EB060108A33F
:1035A000D3E90023FCF7DCFD62232C685C4394FB29
:1035B000F9F404442C60B5E7420A1B040000000043
:1035C000404B4C0000000000900B00208C0B0020B2
:1035D000940B0020A01200209E1200209C120020BC
:1035E000A6120020880B0020100C00209212002050
:1035F0000C0C0020A2120020080C0020840B0020DC
:10360000140C0020800B00207C0B0020C60B002037
:10361000BA0B00209412002098120020285122009A
:103620002DE9F04FB54A8BB013781B0740F1FE82AD
:103630001378B34D23F0080313700522B14BE988CA
:103640001A606B886A89ADF80C300B44ADF8102015
:1036500013440322B3FBF2F3ADF80E1003A805A93F
:10366000ADF81230FFF75CFDBDF91410A64BBDF8A4
:1036700014901980BDF91610A44BBDF816A019803E
:10368000BDF91810A24BBDF81820198009EB0A03E8
:103690001344012BB8BF01239E4928460B6007A99C
:1036A0000192FFF75DFDBDF91C109B4B9B4C1980EF
:1036B000BDF91E109A4B26681980BDF92010994B50
:1036C000019A1980BDF92210974B1980BDF9241079
:1036D000964B19809649974B0F68B3F90000964BAB
:1036E00056EA070CB3F900300ED04FF05F0C00EB38
:1036F00080000CFB0600642603EB83030CFB0733FE
:1037000090FBF6F093FBF6F30B6003F57A61B1F5ED
:10371000FA5F88BF23236FF0310188BF43432060E5
:10372000864C874888BF2360864BB3F900304B43F3
:10373000832193FBF1F384490B60016819442368EA
:10374000142463434FF4757404FB01337F498B42A7
:1037500000F361817E498B42C0F25F814FF47A7140
:1037600093FBF1F36421036093FBF1F30021DFF895
:10377000E481794EC8F80030784B794F1B68396086
:1037800002933378012BD8B200F04981022800F06F
:103790004C8133781BB13378012B40F08B81D8F802
:1037A0000020002AD4BF002201226E4B6E491A70FD
:1037B00033786E4D012B40F0C0816D4803780133A2
:1037C000DBB2072B00F278810370029BB5F9000091
:1037D00003440293C824D8F800500298654BDFF8E0
:1037E00098C1401B1860DCF80030DFF890915B1B3B
:1037F0005C4300F1950E624BBEF5957F1C60D9F8D5
:10380000003000F2A18100EB800E7344DFF874E118
:103810007345B8BF734649F6404E7345A8BF73461B
:10382000DFF864E1C9F80030BEF900E0CCF80050E0
:1038300003FB0EF34FF47A7E93FBFEF3DFF84CE1CB
:10384000BEF900E000FB0E33DFF844E1BEF900E012
:1038500004FB0E3E42F210749EFBF4F44D4B0C60E0
:103860004D49186030780D884C490228098807D1E5
:103870004B480078012804BF4FF496614FF4AF75B0
:103880003078022840F0668145480078012840F0F1
:10389000618138682544611A424F434CB7F9007082
:1038A000B4F900403D44091B05440C1A2AB13F4CB1
:1038B00000222546C9F800201A6041F28830FFF73F
:1038C00067FD42F22832D8F8003003F58C531433E8
:1038D000934205D900242546354BC9F800401C60A9
:1038E000344B1A88344B92B2952A1B8800F2878198
:1038F00000242546C9F8004060E000BF2A0E0020E1
:1039000060120020480000202E0C00202C0C00200B
:103910002A0C0020D80B0020280C00200C0C0020C2
:10392000260C0020240C0020220C0020200C00205B
:10393000080C0020A6120020A21200201C0C00205F
:10394000140C00209E120020180C0020E7ECA43577
:1039500019135BCA100C0020AC12002034000020A8
:10396000CC0B00209D0B0020F40B0020E00B00206E
:103970009C0B0020040C0020980B0020F80B00206A
:10398000FC0B0020C063FFFFF00B00204400002070
:1039900042000020000C00203E0000203C000020DF
:1039A000C00B0020EE0B0020EC0B002048F4FFFFC2
:1039B0009812002092120020400000205A429542A6
:1039C000B8BF1546A342A8BF234630789342B8BF7C
:1039D00013469849984A28B13078012802D03078A7
:1039E00002280DD13078012840F00D8193480078ED
:1039F000022840F0088192480078042840F00381B2
:103A000000231D468F48C9F8003003606D420D80C9
:103A100000211180FDE08C4BA4E68C4BA2E65146C0
:103A2000484602ABFFF74CFAB3E6894C237803F023
:103A3000FF0B8BB902AB51464846FFF741FAAB8901
:103A4000B3F5FA6F7FF6A5AE824BC3F800B0824B98
:103A50000293012323709CE62278012AD3B205D079
:103A6000023B012B7FF695AE217092E641F2883041
:103A7000794B7A4A02937A4BB2F900101B88794A43
:103A80001BB2C91A81FB00010023FCF769FB714DD1
:103A9000754AD5F80090484428602B68002B2B68A5
:103AA000B8BF5B42934201DD0223D3E74FF4AF730B
:103AB0003B606EE6002278E600236C4C03702068C1
:103AC0006B4B0190B3F900300868C3F1640E4343B7
:103AD0000198DFF8A0C100FB0E33642093FBF0F3E4
:103AE00065482360B0F90040E41A644B186820442C
:103AF0006045B8BF60464CF2503C6045A8BF604688
:103B000018605F4BB3F90030434342F2107093FBEF
:103B1000F0F35C48B0F9000060434FF47A7490FB16
:103B2000F4F0034458488342B8BF034640F2DC50E7
:103B30008342A8BF03462B8047E600234B482B80D7
:103B400003604E48036045E64FF00A0EDB0093FB2E
:103B5000FEF365E63948007802282CD0A0B142F285
:103B60000F7086453BDC4948864545DA651B641A7B
:103B700047494848B1F90010B0F90000641A3968A3
:103B80002D1A0D44641A91E6434944480988008877
:103B90003F68E519002DA4EB070411DD29443D4DD4
:103BA000B5F900500D44002C11DD01193848B0F969
:103BB00000400C447AE640F2023140F2EE20E7E7A2
:103BC0001FBF691A334DB5F900504D1BEBE73FF4A9
:103BD0006DAE211A2E48B0F900400C1B66E62D4848
:103BE0002544B0F900002144054429483C68B0F957
:103BF00000002D1B0144DCE70024254656E69D42CB
:103C0000A8BF1D46DAE6002D7FF700AF1580002221
:103C10000A80002B9AB22249224BD5BF52421A8009
:103C20000A800023D6BF00220B801A800BB0BDE8AB
:103C3000F08F00BF240E0020220E0020C40B0020B5
:103C4000C10B002098120020A0BB0D006044F2FFC1
:103C5000C00B0020BC0B00205CF9FFFF9C12002071
:103C6000BA0B0020B8FF01008F5F0100E80B0020B5
:103C700030000020B03CFFFF32000020E40B0020A9
:103C8000DC0B0020DE0B002024FAFFFFF1D8FFFF41
:103C9000EC0B0020EE0B00203A0000203800002042
:103CA000280E0020260E002080B5A74D9AB001F006
:103CB00001FAFFF7FDFA1022002113A807F0F0F82F
:103CC000AB69002243F01003AB61AB694FF40051C4
:103CD00003F010030493049BAB699C4843F020035A
:103CE000AB61AB69002403F020030593059BAB692E
:103CF000012743F00403AB61AB69022603F0040320
:103D00000693069BAB6943F00803AB61AB6903F014
:103D100008030793079B01F0EFFF00224FF40071A7
:103D20008B4801F0E9FF4FF40053884813A9CDE90F
:103D30001337CDE9154601F097FE4FF40043844850
:103D400013A9CDE91334159401F08EFE4FF40073DE
:103D50007F4813A9CDE91337CDE9154601F084FE5C
:103D60006B6922463B436B616B6921463B400B20EC
:103D70000393039B01F080FC0B2001F0ADFC224675
:103D800021460E2001F078FC0E2001F0A5FC224611
:103D900021460F2001F070FC0F2001F09DFC6D4AC0
:103DA0006D4B082513604FF4807393604FF46023CC
:103DB0001046CDE91344159414731475D3615460FF
:103DC000156101F0C7FB08B172B6FEE70624CDE924
:103DD000130713A95F48159401F050FA08B172B6A1
:103DE000FEE75C4813A9CDE9137601F047FA08B164
:103DF00072B6FEE713960326564813A9149601F0EF
:103E00003DFA08B172B6FEE713960426514813A98D
:103E1000149601F033FA08B172B6FEE71396052640
:103E20004C4813A9149601F029FA08B172B6FEE7BE
:103E3000484813A9CDE9136401F020FA08B172B61D
:103E4000FEE713940724434813A9149401F016FACB
:103E500008B172B6FEE73F4813A9CDE9134501F05A
:103E60000DFA044608B172B6FEE70EAE0146102206
:103E7000304607F015F81422214613A807F010F871
:103E800047233648DFF8D8C00AAFC0E900C3F9239A
:103E90000A947C60C0E90334C0E90544846004F0FE
:103EA000F5FD08B172B6FEE74FF4805831462B4855
:103EB000CDF8388004F0D0FE08B172B6FEE7CDE947
:103EC000130013A9254804F0BEFF08B172B6FEE73F
:103ED000CDE90A003946214805F03AF8054608B10F
:103EE00072B6FEE701461022304606F0D9FF1422D2
:103EF000294613A806F0D4FF4FF047094FF080433E
:103F0000184C0A95C4E9003941F2873320467D6098
:103F1000C4E90335A560A56104F0B8FD08B172B627
:103F2000FEE731462046CDF8388004F095FE08B112
:103F300072B6FEE7CDE9130013A9204604F083FF13
:103F400090B172B6FEE700BF0010024000100140C1
:103F5000000C01403815002000240140D01300203F
:103F6000002C014088130020CDE90A003946204684
:103F700004F0EEFF044608B172B6FEE701461022D7
:103F8000384606F08DFF14222146304606F088FFA1
:103F90001C22214613A85B4D0894099406F080FF6B
:103FA000594B2846C5E9003942F20F730DF1200A3A
:103FB000C5E90334AC60AC6104F068FD08B172B6C9
:103FC000FEE739462846CDF8288004F045FE08B1C2
:103FD00072B6FEE7284604F085FD08B172B6FEE72A
:103FE000002331464748CDE90E3304F02CFF08B1D9
:103FF00072B6FEE7CDE908005146424804F0A8FF3A
:10400000024608B172B6FEE760231590CDE9133081
:10401000179013A93B4804F0BDFD08B172B6FEE746
:104020000422384813A904F0B5FD08B172B6FEE7C2
:104030000822344813A904F0ADFD08B172B6FEE7BA
:104040000C22304813A904F0A5FD044608B172B64D
:10405000FEE72C4800F0FCFD4FF4E1332B482C4DDB
:10406000C0E90244C0E900530C230461C0E90534EF
:10407000C46105F005F8044608B172B6FEE706F023
:1040800067FC24482449254BC0E90244C0E90013D9
:104090004FF48043C0E90644C0E90434046202F0EE
:1040A00009F8044608B172B6FEE71022014613A8CB
:1040B00006F0F6FE47231A4D1A4A0E94C5E900236E
:1040C00042F20F7328467460C5E90334AC60AC61FA
:1040D00004F0DCFC08B172B6FEE74FF480532846CA
:1040E00013A9139304F0B8FD08B172B6FEE70023DC
:1040F00031460B48CDE90E3304F02AFF044698B14F
:1041000072B6FEE74013002000040040B012002009
:1041100000380140A014002000580040801A06001A
:10412000F812002000080040524806F09BFC52485C
:1041300004F0B6FB514804F0B3FB514804F0B0FB67
:1041400021464F4804F002FF04214D4804F0FEFED2
:1041500008214B4804F0FAFE0C21494804F0F6FE11
:104160004FF400510122474801F0C6FD464800F0D7
:10417000E9F9464800F0E0F9454800F0D7F900F0C9
:1041800077FB204600F068FB424800F0C7F8424841
:1041900000F0CAF8414800F0CDF800F0E9F8404AD4
:1041A000404B10461360404B5360404B9360FCF70C
:1041B00005FB3F48FDF726F83E48FDF71DF80122B4
:1041C0003D493E4805F06BF940F6B8323C4B3D495D
:1041D0001C703D4B3D481C703D4B1A8001223D4BED
:1041E0001A70FCF7B7F93C4B3C4A3D493D4800F09A
:1041F0000AFF3D4B3D4A3E483E4900F004FF3E4B1E
:104200003E4A1C703E4B3F481C803F4B1C803F4B3E
:104210001C803F4B1C80FEF7AFFCD2F8FC3043F013
:104220008073C2F8FC303B4B5C601A6842F00102BC
:104230001A600190FEF714FDFCF72CFBFEF720FC42
:10424000002227492748FEF765F801222949284816
:10425000FEF760F8FEF742FBFEF7A0FAFFF7E0F981
:104260000198FEF791FC0198FEF794FDFEF7A0FF80
:10427000E0E700BF11120008D013002088130020CF
:104280004013002000100140A91200205112000824
:1042900079120008A8120020751200089512000873
:1042A000140E00203D120008B1120008E5120008AB
:1042B000D112000851130008200E0020B012002077
:1042C000870D002052BC0008310C002061BC0008A2
:1042D0004C000020300C0020301100203010002055
:1042E0005412002048120020300F0020300E002011
:1042F000301200203C1200202A0E002000ED00E0C9
:10430000280E00200A0E0020240E0020260E002079
:10431000220E0020001000E072B6FEE7014B18608C
:10432000704700BF98150020014B1860704700BF10
:1043300094150020014B1860704700BF90150020B5
:10434000044A10B414680B46A44601460122D0204A
:1043500010BC6047941500201346044A10B414683A
:10436000CAB2A446014610BCD02060479015002078
:1043700013B500240DF107006B218DF80740FFF7FE
:10438000DFFF04230DF1070019218DF80730FFF737
:10439000D7FF02230DF107001A218DF80730FFF730
:1043A000CFFF0DF107001C218DF80740FFF7C8FF74
:1043B0001B210DF10700FFF7C3FF02B010BD000085
:1043C0000122044B1A70044B1B680BB100221A70B7
:1043D000704700BF800000209815002008B51A4BD8
:1043E00019681A4B08781A7818B9012A23D00020C6
:1043F00008BD0020012A08701DD0022AF7D1012033
:104400001870134B13491A88D2BA0A605A88124995
:10441000D2BA0A609A881149D2BA0A601A89104938
:10442000D2BA0A605A890F49D2BA9B890A600E4AE9
:10443000DBBA1360DCE702220E211A7004483B222B
:10444000FFF78AFFD3E700BF981500208000002007
:10445000681500208C150020881500208415002088
:10446000801500207C1500207815002070B5DDE94E
:10447000045410B10B4E3668068011B10A4800682A
:10448000088012B109490968118013B1084A1268FD
:104490001A8015B1074B1B682B8014B1064B1B68A3
:1044A000238070BD8C150020881500208415002005
:1044B000801500207C1500207815002013B5064BD0
:1044C0008DF807001C680122002378200DF10701F8
:1044D000A04702B010BD00BFA819002013B5064BBD
:1044E0008DF807001C680122002378200DF10701D8
:1044F000A04702B010BD00BFA4190020044B10B4A7
:104500001C68CAB2A44601464023782010BC60470C
:10451000A8190020044B10B41C68CAB2A446014676
:104520004023782010BC6047A4190020014B18607C
:10453000704700BFA4190020014B1860704700BFEE
:10454000A8190020014B1860704700BFAC1900206B
:1045500000284FF4806214BFFF210021014806F0BB
:104560009FBC00BFA215002038B5B0240A4D2046DC
:10457000FFF7A4FF0020FFF7A1FF01341020FFF791
:104580009DFFE4B228468021FFF7B8FFB82C05F163
:104590008005ECD138BD00BFA215002038B51C4BFA
:1045A0001C4C1A682378117819B9012B0AD0002005
:1045B00038BD0021013B1170032BF8D8DFE803F070
:1045C000020B1015144B18785038C0B2FFF786FF55
:1045D00002232370EBE70020FFF780FF0323F8E7B7
:1045E0001020FFF77BFF0423F3E70B4D0B4B2878DC
:1045F000802103EBC010FFF78DFF01202B78207086
:104600000133DBB2072B2B70D1D900232B70CFE7FE
:10461000AC19002081000020A2190020A215002062
:104620000022054B1A700122044B1A70044B1B68C0
:1046300003B11A70704700BFA2190020810000204A
:10464000AC190020030630B510D43F290ED8012440
:10465000CB08074D00EBC3102B5C01F0070104FAF7
:1046600001F1A2420CBF0B438B432B5430BD00BF62
:10467000A21500202DE9F04F044689B008A800E9F2
:104680000E009DF84830A4F120050293EBB25E2B9A
:1046900047D8079B23B3234413F8206C224AB2F86F
:1046A000009009EB0603802B3BDC53889DF815B086
:1046B000019303EB0B02402A33DC029B4FF000080E
:1046C000B3FA83FA0BFB05F54FEA5A1A6D00C3459E
:1046D00009D8154B4E441E80204609B0BDE8F08F26
:1046E0009DF81460DAE70027069A535B0493019B58
:1046F00008EB0302D3B20393BE4203D808F10108CA
:104700000235E4E7049B07EB090003FA07F2130400
:1047100054BF5246029A0399C0B2FFF793FF013784
:10472000EAE70024D8E700BF9C15002070B586B0EA
:1047300003AC84E80E009DF82860451E15F8010FB3
:1047400040B1009694E80E00FFF794FF03462878E6
:104750008342F3D006B070BD014B1880598070477A
:104760009C1500202DE9F74F9046A8EB0009A3EB1C
:10477000010AB9F1000F1E46B8BFC9F10009BAF12C
:10478000000FB8BFCAF1000A804594BF4FF0FF3355
:10479000012305460C468E4294BF4FF0FF3B4FF07D
:1047A000010B404631469DF830200093A9EB0A07E3
:1047B000FFF748FFCAF10003454504D1B44202D1D6
:1047C00003B0BDE8F08F214628460193FFF73AFF7A
:1047D000019B7900B3EB470FBFBF0098A7EB0A0717
:1047E0002D18EDB28945C2BF5C444F44E4B2E3E703
:1047F0002DE9F0411446A042804628BFA046A042C1
:10480000064638BF264699420C4628BF1C469942A8
:1048100038BF19460F469DF81820BC4201D83F2CDE
:1048200001D9BDE8F081454607E02B0607D42846AC
:104830002146FFF707FF0135EDB2B542F5D9013446
:10484000E4B2EAE710B504468120FFF737FE2046C0
:10485000BDE81040FFF732BE034628B10123AF2068
:10486000024A5371FFF72ABEAE20F9E79C150020DB
:1048700008B5642000F042FC0020FFF7EDFF202087
:10488000FFF71CFE0020FFF719FEB020FFF716FE11
:10489000C820FFF713FE0020FFF710FE1020FFF7DF
:1048A0000DFE4020FFF70AFEFF20FFF7CBFFA120FF
:1048B000FFF704FEA620FFF701FEA820FFF7FEFD8C
:1048C0003F20FFF7FBFDA420FFF7F8FDD320FFF703
:1048D000F5FD0020FFF7F2FDD520FFF7EFFDF020FA
:1048E000FFF7ECFDD920FFF7E9FD2220FFF7E6FDF9
:1048F000DA20FFF7E3FD1220FFF7E0FDDB20FFF7F2
:10490000DDFD2020FFF7DAFD8D20FFF7D7FD142015
:10491000FFF7D4FD0120FFF79FFF0020FFF718FEEF
:10492000FFF722FE0022034B1A805A8001221A71DF
:1049300008BD00BF9C1500200E4B82B09A6942F062
:1049400001029A619A6902F001020092009ADA6902
:1049500042F08052DA61DB69074A03F08053019329
:10496000019B536823F0E06343F08063536002B01F
:10497000704700BF001002400000014030B50546FE
:1049800087B01022002102A806F08AFA2A68204B7C
:104990009A423BD103F56C439A691E4842F4007277
:1049A0009A619A6902A902F400720092009A9A69C7
:1049B000194C42F004029A619B69FF2203F0040340
:1049C0000193019B0323CDE9022301F04DF88020E0
:1049D0004FF480720023C4E903024FF480620F4950
:1049E0002046C4E90013C4E90523A360E36100F095
:1049F000A7FE08B1FFF790FC002212202C6211469E
:104A0000656200F039FE122000F066FE07B030BD8E
:104A10000024014000080140F41400200800024076
:104A200030B5054687B01022002102A806F038FAFA
:104A30002A682E4B9A4256D12D4C4FF44061A369FF
:104A40002C4843F00803A361A36903F00803009313
:104A5000009B1223CDE90213032302A9059301F061
:104A600003F8E369802243F48003E361E3692248A9
:104A700003F480030193019B0023204CC4E900034D
:104A80002046C4E90323C4E90533A360E36100F0D1
:104A900057FE08B1FFF740FC1023194AAC6365626A
:104AA000184CC4E90023002380222046C4E90232C6
:104AB000C4E90433C4E9063300F042FE08B1FFF74D
:104AC0002BFC0022212011466C63656200F0D4FDAE
:104AD000212000F001FE00222220114600F0CCFD32
:104AE000222000F0F9FD07B030BD00BF00580040A3
:104AF00000100240000C0140580002405C140020ED
:104B000044000240181400200268114B10B59A426C
:104B100004461CD10F4A4FF48061D3690E4823F438
:104B20008003D36101F074F84FF400610A4801F08A
:104B30006FF8A06B00F034FE606B00F031FE2120B6
:104B400000F0D8FDBDE81040222000F0D3BD10BD1C
:104B50000058004000100240000C01401FB50368DF
:104B6000374A93422CD1374B18209A6942F400629D
:104B70009A6100229B69114603F400630093009B35
:104B800000F07AFD182000F0A7FD00221920114640
:104B900000F072FD192000F09FFD00221A2011463E
:104BA00000F06AFD1A2000F097FD00221B2011463C
:104BB00000F062FD1B2005B05DF804EB00F08CBD39
:104BC000B3F1804F11D103F50433DA691C2042F0B0
:104BD0000102DA610022DB69114603F0010301934F
:104BE000019B00F049FD1C20E5E7174A934210D1D4
:104BF000144B1D20DA6942F00202DA610022DB69FF
:104C0000114603F002030293029B00F035FD1D20C4
:104C1000D1E70E4A934210D10A4B1E20DA6942F0C6
:104C20000402DA610022DB69114603F004030393F6
:104C3000039B00F021FD1E20BDE705B000BD00BFB5
:104C4000002C014000100240000400400008004019
:104C500010B5044686B01022002102A806F020F903
:104C60002268114B9A421CD103F503339A690F480D
:104C700042F008029A619B69332203F00803019312
:104C8000019B022302A9CDE90223059300F0ECFE6B
:104C9000074A536823F4406343F0E06343F400633E
:104CA000536006B010BD00BF00040040000C01407E
:104CB0000000014010B5044686B01022002102A871
:104CC00006F0EEF822681B4B9A4230D103F55843A8
:104CD0009A69194842F480429A619A6902A902F4D9
:104CE00080420092009A9A69002442F004029A617C
:104CF0009B694FF4007203F004030193019B0223AC
:104D0000CDE902230323059300F0AEFE4FF4806348
:104D1000094802A9CDE90234049400F0A5FE25203B
:104D20002246214600F0A8FC252000F0D5FC06B064
:104D300010BD00BF0038014000080140FEE7FEE75B
:104D4000FEE7FEE7FEE770477047704700F0C4B922
:104D5000014800F0F1BD00BFF4140020014800F04C
:104D6000EBBD00BF18140020014800F0E5BD00BFF6
:104D70005C140020014800F001BA00BF3815002083
:104D8000014802F037BC00BFA4280020FFF7F8BF9D
:104D9000014803F0B4BD00BFD0130020FFF7F8BFF7
:104DA000FFF7F6BFFFF7F4BF014803F0A8BD00BF4F
:104DB00088130020014803F0A2BD00BF401300206B
:104DC000014803F09CBD00BFF8120020014801F02B
:104DD00083BE00BFA0140020014802F0D7BA00BF74
:104DE000A0140020014804F0F7B900BFB012002061
:104DF0000A4A0346106810B508B909481060094905
:104E0000094C0344091B8B4206D906F07BF80C239E
:104E100003604FF0FF3010BD1360FCE7B0190020B5
:104E2000C82C0020005000200004000070470346FA
:104E3000002030B5187258791C68451C5D715525E5
:104E4000987125545879DC7901322040451C5D71F8
:104E50004E251C68D2B225545879DC792040451C77
:104E60005D7145251C6825545879DC792040451C26
:104E70005D7152251C6825545879DC7920401C68E6
:104E8000451C5D7122545879DC794A402040451C0C
:104E90005D713A251C6825545879DC7920401C68DE
:104EA000451C5D7121545879DC79204058710720E8
:104EB0005872187A504080F03600187230BD0346A0
:104EC00010B5427A013242725A790068541C5C7102
:104ED00081545A79D87902405A711A7A81EA0200CB
:104EE000187210BD002337B58DF807309DF80730D4
:104EF000CB5C13B9007A03B030BD437A9DF807400C
:104F000001334372437902685D1C45710C5DD454D2
:104F10004379C27913409DF807204371531CDBB2DB
:104F20008DF807308B5C027A53400372DEE703464C
:104F300010B5C47980790144214018689971405CAA
:104F400011440C409C7110BDF0B500240526457934
:104F50000379AB4201D10020F0BD827A072A50D8F4
:104F6000DFE802F0040F1C22282D4F3E0268D25CBD
:104F7000552A01D101228272C27901331340037193
:104F8000E6E70268D25C4E2A01D10222F3E7552AF5
:104F9000F2D000228272013BDBB2EDE70268D25C04
:104FA000452A1BD10322E6E70268D25C522A15D1BA
:104FB0000422E0E70268D25C86724272DCE7026893
:104FC000D25C3A2A0AD10721C2798172591C0A405F
:104FD0008271427A82F036020272CDE78472DAE799
:104FE000427A0768013AD2B2017A42721AB1FA5C87
:104FF00051400172C0E78272FA5C8A42BCD1012042
:10500000AAE78472B8E710B502604FF07F4400222F
:10501000446002818272C1E900340A818A7210BD43
:10502000FFF704FF0B480C490C4A002302E0D45858
:10503000C4500433C4188C42F9D3094A094C0023E4
:1050400001E013600432A242FBD305F061FFFEF7DA
:105050002BFE7047000000205802002028D60008D0
:1050600058020020C42C0020FEE7000038B50E4B8B
:1050700005461A784FF47A73B3FBF2F30B4A1068C3
:10508000B0FBF3F000F048FB044658B90F2D09D8E7
:10509000024629464FF0FF3000F0EEFA2046044B5E
:1050A0001D6038BD0120FCE788000020840000203E
:1050B0008C000020074A08B51368032043F0100352
:1050C000136000F0C7FA0F20FFF7D0FFFFF734FCA2
:1050D000002008BD00200240034A044B11681B78E1
:1050E0000B441360704700BFB419002088000020F3
:1050F000014B1868704700BFB419002038B504464A
:10510000FFF7F6FF0546631C1EBF044B1B78E4182F
:10511000FFF7EEFF431BA342FAD338BD88000020FF
:10512000436A10B59A6A12F0500F1BD19A6A42F482
:1051300000729A621A68926802F46022B2F5602FD7
:105140000CD11A7B52B99A6A22F480729A629A6AD6
:10515000D2045EBF9A6A42F001029A621846FCF7D6
:1051600063F910BD1B6ABDE810401B6B1847704700
:1051700008B5406AFFF7FBFF08BD7047036870B5CC
:105180001D685E680446B00626D5A90724D5A26A24
:10519000D2065EBFA26A42F40072A2629A6802F46A
:1051A0006022B2F5602F10D1227B72B95A6822F0CA
:1051B00020025A60A36A23F48073A362A36AD8040E
:1051C0005EBFA36A43F00103A3622046FCF72CF9FB
:1051D0006FF0120223681A60310630D56A072ED5A7
:1051E000A36ADB065EBFA36A43F40053A36223688D
:1051F0009A6802F4E042B2F5E04F0AD05A685005CE
:1052000016D49A6802F46022B2F5602F10D1227B86
:1052100072B95A6822F080025A60A36A23F480535C
:10522000A362A36AD9055EBFA36A43F00103A36228
:10523000204600F00DFA6FF00C0223681A60720627
:105240000CD5EB070AD5A36A204643F48033A3624A
:10525000FFF793FF6FF0010223681A6070BD70477B
:10526000406A08B5836A43F040038362C36A43F02F
:105270000403C362FFF7F3FF08BD0000002373B50A
:10528000019390F824300446012B6CD0012380F860
:1052900024304D680268062D086805EB850322D886
:1052A0001F26556B053B9E4025EA060500FA03F3D1
:1052B0002B43536309288B6800EB40054FF007012F
:1052C00029D9D6681E3DA94026EA0101AB400B430F
:1052D000D360A0F11003012B25D90020002384F80E
:1052E000243002B070BD0C2D4FF01F0509D8166B8D
:1052F000233B9D4026EA050500FA03F32B43136385
:10530000D8E7D66A413B9D4026EA050500FA03F33B
:105310002B43D362CEE71069A94020EA0101AB40DC
:105320000B431361D9E7114B9A4216D193681B02C4
:10533000D3D49368102843F400039360CDD10C4B71
:105340000C4A1B68B3FBF2F30A2253430193019BFF
:10535000002BC2D0019B013BF8E7A36A012043F078
:105360002003A362BAE70220BBE700BF002401408C
:105370008400002040420F00002337B501930368EA
:1053800004469A68D20702D5002003B030BD9A685F
:1053900042F001029A60144B144A1B68B3FBF2F30B
:1053A0000193019BE3B9FFF7A3FE054623689B68C1
:1053B000DB07E9D4FFF79CFE401B0228F6D92368DF
:1053C0009B6813F00103F1D1A26A012042F01002A0
:1053D000A262E26A84F8243042F00102E262D4E779
:1053E000019B013BDCE700BF8400002040420F002E
:1053F0002DE9F0413F4B9046026804469A420F4621
:1054000002D03D498A4203D15B6813F4702F6DD1FD
:1054100094F82430012B6BD00123204684F82430EB
:10542000FFF7AAFF064600285DD1A56A2168324B26
:1054300025F4706525F0010545F480759942A56253
:1054400004D12C4A536813F4702F3ED1A36A23F47D
:105450008013A3624B685A0505D5A36A23F4405311
:1054600043F48053A362A36A206A13F4805318BFE5
:10547000E36A3A4618BF23F00603E362002384F888
:1054800024301E4B4C3183621D4BC3621D4B0363A2
:105490006FF0020341F84C3C51F8443C43F48073F4
:1054A00041F8443C434600F0A5F923689A6802F4A9
:1054B0006022B2F5602F9A680CBF42F4A00242F459
:1054C00080129A603046BDE8F081A36A43F48013ED
:1054D000A36253685B0541BFA06A20F4405040F4CA
:1054E0008050A062BFE7002384F824300126E9E75A
:1054F0000226E7E70024014000280140215100086E
:10550000715100086152000838B5036804469A6872
:10551000D10701D4002038BD9A6822F001029A60B8
:10552000FFF7E6FD054623689B68DB07F2D5FFF72A
:10553000DFFD401B0228F6D923689B68DA07F2D505
:10554000A36A012043F01003A362E36A43F001035E
:10555000E362E0E7F8B5044600286DD0836A23B91A
:10556000C36280F82430FFF709FA2046FFF7CCFF2A
:10557000A36A13F0100361D100285FD1A26A6168A9
:1055800022F4885222F0020242F00202E569A66883
:10559000A262227B2943B6F5807F41EA420136D0E0
:1055A000771E7D427D412D02277D012F06D182BBD2
:1055B000A269013A45EA423242F400652268B6F532
:1055C000807F576827F4694745EA07055560976863
:1055D0001D4D05EA070545EA0105956001D0012E3C
:1055E00002D12369013B1B05D56A25F470052B43C5
:1055F000D3629268154B1340994213D10023E362A2
:10560000A36A23F0030343F00103A362F8BD354608
:10561000CAE7A26A42F02002A262E26A42F00102F4
:10562000E262CBE7A36A23F0120343F01003A36204
:10563000E36A43F00103E3620120E7E7A36A43F072
:105640001003A362F8E700BFFDF7E1FFFE0E1FFFA6
:105650007047000007490302CA6803F4E06322F4BC
:10566000E0621204120C134343F0BF6343F40033AF
:10567000CB60704700ED00E0154B30B5DC68C4F33B
:105680000224C4F10703251D042B28BF0423062D83
:105690004FF0FF3594BF0024033C05FA03F321EAE1
:1056A0000303A54022EA0502A340002843EA0203BF
:1056B000ACBF00F16040074A4FEA0313DBB2ABBF57
:1056C00000F5614000F00F0080F80033135430BD46
:1056D00000ED00E014ED00E0002807DB01234109A4
:1056E000034A00F01F00834042F82130704700BF9A
:1056F00000E100E000280CDB01220649430900F02C
:105700001F008240203341F82320BFF34F8FBFF3A7
:105710006F8F704700E100E00138B0F1807F0BD25D
:105720004FF0E023F021054A586182F82310002051
:10573000072298611A6170470120704700ED00E070
:10574000034610B530B301681420134A0A44B2FB73
:10575000F0F292001A64114ADA63022283F82120DF
:10576000D3E901242243DC68086822431C696FF3F3
:105770000D1022435C6922439C692243DC69224369
:1057800002430A6000200122986383F8200083F816
:10579000212010BD0120FCE7F8FFFDBF0000024002
:1057A00010B508B30168114A0B680A4423F00103DD
:1057B0000B6000230B604B608B60CB601421B2FB4D
:1057C000F1F201210A4C9200026401FA02F2C46370
:1057D00062608363C0E90A33C0E90C3380F821308A
:1057E00080F82030184610BD0120FCE7F8FFFDBF0F
:1057F00000000240F0B590F82040012C34D0012484
:1058000080F8204090F82140012CE5B24FF00004D0
:1058100028D1022680F8216084630468266826F077
:1058200001062660D0E90F67BD407560636043687C
:10583000102BC36A0BBFA260A160E160E2604BB1B4
:10584000236843F00E0300202360236843F0010324
:105850002360F0BD236823F004032360236843F032
:105860000A03F0E780F820400220F2E790F82120B8
:105870000346022A06D0042282630120002283F814
:10588000202070470268C06B116821F00E01116082
:10589000116821F00101116001211A6C01FA02F274
:1058A0004260002083F82110E8E7000008B590F876
:1058B0002130022B03D004238363012008BD036839
:1058C0001A6822F00E021A601A6822F001021A60A9
:1058D000174A93421FD0143293421ED0143293427F
:1058E0001DD0143293421DD0143293421DD0143275
:1058F000934214BF4FF080734FF480130D4A5360EE
:10590000012380F82130002380F82030436B03B15D
:1059100098470020D2E70123F0E71023EEE74FF489
:105920008073EBE74FF48053E8E74FF48033E5E70B
:10593000080002400000024070B40425C66B026CEF
:105940003468036895402542196832D04D0730D538
:105950001A6896065EBF1A6822F004021A603E4A70
:10596000934219D01432934218D01432934217D074
:105970001432934217D01432934217D01432934208
:1059800014BF4FF080634FF48003344A5360C36AFE
:10599000002B5ED070BC18470423F6E74023F4E7E1
:1059A0004FF48063F1E74FF48043EEE74FF4802338
:1059B000EBE702259540254235D08D0733D51A688F
:1059C000940606D41A6822F00A021A60012280F8AE
:1059D0002120214A934219D01432934218D0143214
:1059E000934217D01432934217D01432934217D0F7
:1059F0001432934214BF4FF000734FF40013174A50
:105A00005360002380F82030836AC1E70223F6E761
:105A10002023F4E74FF40073F1E74FF40053EEE76F
:105A20004FF40033EBE708259540254211D00907D4
:105A30000FD5196821F00E011960012303FA02F253
:105A40007260836380F82130002380F82030036B7C
:105A50009EE770BC704700BF080002400000024093
:105A600090F82100704700002DE9F74F00244FF017
:105A70000F0E2646DFF884C1614B00F104080A6866
:105A800032FA06F502D103B0BDE8F08F012505FA20
:105A900006F702EA070537EA020276D14A68032AC6
:105AA00007D8013A022A00F28380DFE802F09196DB
:105AB0009C00122A00F0948069D8112A00F08A8094
:105AC000FF2D94BF8146C1464FEA8602D9F8007087
:105AD00088BF203A0EFA02FA27EA0A0704FA02F20D
