:020000040800F2
:1000000000500020315200084D4F00084F4F0008AB
:10001000514F0008534F0008554F000800000000E2
:10002000000000000000000000000000574F000822
:10003000594F0008000000005B4F00085D4F0008AA
:100040007952000879520008795200087952000864
:100050007952000879520008795200087952000854
:10006000795200087952000879520008614F00085F
:1000700079520008795200086D4F0008794F000846
:100080007952000879520008854F0008914F000806
:100090009D4F0008795200087952000879520008F3
:1000A000A14F0008AD4F0008B14F0008B54F000840
:1000B000B94F0008C54F0008D14F00087952000819
:1000C00079520008DD4F0008E94F00087952000816
:1000D00079520008F54F000879520008795200085B
:1000E0007952000879520008795200080000000097
:1000F0000000000000000000000000000000000000
:0C01000000000000000000005FF808F1A3
:1001100010B5054C237833B9044B13B10448AFF341
:1001200000800123237010BD5C020020000000004D
:1001300040BA000808B5034B1BB103490348AFF3AD
:10014000008008BD000000006002002040BA0008E6
:10015000034613F8012B002AFBD1181A0138704707
:100160007BB972B90029BEBF00204FF0004106E004
:1001700008BF00281CBF6FF000414FF0FF3000F0B7
:10018000B9B9ADF1080C6DE904CE002909DB002BEB
:100190001ADB00F035F8DDF804E0DDE9022304B0F5
:1001A0007047404261EB4101002B1BDB00F028F857
:1001B000DDF804E0DDE9022304B0404261EB4101D7
:1001C000524263EB43037047524263EB430300F038
:1001D00017F8DDF804E0DDE9022304B0404261EBEA
:1001E00041017047524263EB430300F009F8DDF828
:1001F00004E0DDE9022304B0524263EB430370479D
:100200002DE9F047089D0F4604468E46002B48D145
:100210008A42164661D9B2FA82F24AB1C2F120038B
:1002200001FA02FE20FA03F3964043EA0E0E9440D0
:100230004FEA164CBEFBFCF1B7B20CFB11EE01FB12
:1002400007F0230C43EA0E43984209D9F31801F151
:10025000FF3E80F0ED80984240F2EA80023933445C
:100260001B1AB3FBFCF00CFB103300FB07F7A4B226
:1002700044EA0344A74209D9341900F1FF3380F05E
:10028000D980A74240F2D6803444023840EA014087
:100290000021E41B1DB10023D440C5E90043BDE8A3
:1002A000F0878B4206D90DB1C5E90001002108464F
:1002B000BDE8F087B3FA83F1002947D1BB4202D3EE
:1002C000824200F20481841A67EB03020120964601
:1002D000002DE4D0C5E9004EE1E7002A00F090804F
:1002E000B2FA82F2002A40F0A780881B0121370C65
:1002F0001FFA86FEB0FBF7FC07FB1C00230C43EA49
:1003000000430EFB0CF0984207D9F3180CF1FF38AC
:1003100002D2984200F2E080C4461B1AB3FBF7F009
:1003200007FB10330EFB00FEA4B244EA0344A645CB
:1003300007D9341900F1FF3302D2A64500F2C98073
:100340001846A4EB0E0440EA0C40A3E7C1F12006D6
:100350008B4022FA06FC4CEA030C27FA06FA4FEA15
:100360001C49BAFBF9F88F4020FA06F309FB18AADA
:100370001FFA8CFE3B4300FA01F708FB0EF01C0C41
:1003800044EA0A44A04202FA01F20BD91CEB04042D
:1003900008F1FF3A80F09980A04240F29680A8F1DF
:1003A00002086444241A98B2B4FBF9F309FB13441D
:1003B00003FB0EFE40EA0444A64508D91CEB0404E6
:1003C00003F1FF307FD2A6457DD9023B644443EA66
:1003D0000840A4EB0E04A0FB028E74454346F14690
:1003E00061D35ED055B1FA1A64EB090404FA06F63B
:1003F00022FA01F31E43CC40C5E9006400214EE718
:1004000043084FEA510C43EAC1710A0C42EA0C421C
:100410008BB2C407B2FBF6F143EA0243BCFBF6FC25
:10042000B646304637461F22181A41EA0C4161E7AA
:10043000714615E7184629E7C2F1200321FA03F0B7
:10044000964024FA03F397403B43370CB0FBF7F890
:1004500007FB18001FFA86FE190C41EA004108FB51
:100460000EF0884204FA02F43AD9711808F1FF3C00
:1004700001D288421ED8091AB1FBF7F808FB0EF02A
:1004800007FB18119BB243EA014383422FD2F318B2
:1004900008F1FF31C8D28342C6D2A8F10201334429
:1004A000C2E747459ED2B8EB02036EEB0C0E013853
:1004B000F14697E7301A0144A8F1020CB1FBF7F8B6
:1004C00008FB0EF0DCE7034681E7D0466AE7084602
:1004D000FEE63444023834E7ACF1020C33441CE746
:1004E000091AC446B1FBF7F808FB0EF0C8E741460D
:1004F0009AE700BF704700BF00220A4930B50B8859
:10050000094D013810F8014F14B902B10B8030BD0C
:100510005A1C92B2B2F5806FEC5414BF13460023FC
:100520000122EFE78A02002092020020074A10B55C
:100530001188074C4B1C9BB2B3F5806F138008BF2A
:100540000023605408BF138010BD00BF8A02002042
:100550009202002038B500240D460E4B01461C7057
:100560000D4B3F220D481C700AF0AAFD0B4B1F22B9
:1005700029460B4883F83F400AF0A2FD3222084B7F
:10058000DC77084B1A601422074B1A70074B1C705B
:1005900038BD00BF7C0B0020960A0020230B0020F2
:1005A000030B0020780B00207D0B00208802002028
:1005B000014B1878704700BF950A0020194B70B5A1
:1005C0005B6806460D4614463BB347F23053164966
:1005D0001648002A08BF1C460AF0C8FD0F22314603
:1005E00013480AF06DFD0023114A1249D3732846BF
:1005F0000A220AF0E3FC0A2220460F490AF0DEFC38
:100600000E4B1B7863B10E4B187810F0020003D02C
:10061000102206200B4B1A7070BD4FF0FF30FBE725
:100620000120F9E77C02002058BA000805000020EC
:10063000F30A0020ED0A0020D70A0020230B002037
:100640007C0B00207D0B0020064B5B683BB1064B0A
:100650001B7813F0400F0CBF0520072070474FF0A8
:10066000FF3070477C0200207C0B0020074A10B549
:100670001188074C4B1C9BB2B3F5806F138008BFE9
:100680000023605408BF138010BD00BF90020020FB
:10069000920600202DE9FF471F463D4B04465B684C
:1006A00088461546BDF83090002B6CD0394EDFF8E7
:1006B000E8A033789AF8001003F040020A4365D0AE
:1006C0001B0758D40A2201A938460AF077FC01A872
:1006D000FFF73EFD421ED2B2032A4AD82F48FFF749
:1006E0000BFF9AF8003053B10A22694620460AF0FF
:1006F00065FC6846FFF700FF2C20FFF717FF01A8F5
:10070000FFF7FAFE2648FFF7F7FE002211462548BC
:10071000DFF894C0038894B2A74216D801B10380D1
:100720003378224C23F00C0343F00C03337023681E
:100730003BB11F489847236801A8984723681D4884
:100740009847092004B0BDE8F0875C1CA4B2B4F55A
:10075000806F08BF0024691C18F8055089B20CF896
:1007600003500132494514BF0D460025234601219F
:10077000D1E70B20E6E70D4B1B680BB90820E1E73A
:100780000D489847FAE74FF0FF30DBE70520D9E73F
:100790007C0200207C0B0020960A002047C1000844
:1007A0005CBA00088A02002092020020640B00203C
:1007B0005FBA00086EBC000872BA000802460F4B10
:1007C0000068516803C390680D4A186000231370D5
:1007D0000C4A13700C4A13800C4A13800C4A138085
:1007E0000C4A13800C4A13700C4A13700C4A137095
:1007F0000C4A13600C4A1360704700BF7C02002053
:100800007D0B0020940A00208C0200208A02002028
:100810008E020020900200207C0B0020960A00200F
:10082000950A0020680B0020640B0020114A136811
:100830000BB1013B1360104A136823B1013B1360F5
:100840000BB90E4A13700E4A13680BB1013B1360CB
:100850000C4A13686BB1013B136053B90A490A781B
:10086000100706D563F3C302084B0A701A88084BB9
:100870001A807047780B0020740B0020940A002027
:10088000700B00206C0B00207C0B00208A020020E3
:100890008C0200202DE9F84FA54AA64EB2F800B010
:1008A000338800255B4506D0A34F3A78143A022AD4
:1008B00027D8A6F800B0A14EA14C3368002B40F019
:1008C0006D8264239C4D33602B78162B00F2668278
:1008D000DFE813F04404AD02C602CC02DA02E00203
:1008E000E902EF0202030D033E03480352038303B0
:1008F0008C039D03AC03FE033B04410459029802A0
:10090000A70202228F49904C0A609B45D3D08F4AA0
:10091000D05C22780D2A00F23182DFE812F00E005E
:100920005500CC002F022F02A501BA01C301D0014E
:100930002F02EB0108021A02F90100230421984654
:10094000DFF80CC2834ADFF810928CF80030117087
:100950005FFA83FE59F82E10D1B9B8F1000F01D01B
:100960008CF800E00022774B75491A600B7813F081
:10097000010F00F092803E2840F08F8062F3000368
:100980000B70764B1A604FF49672754B1A6084E0C8
:1009900091F804A00133824513D1B8F1000F01D0C2
:1009A0008CF800E00B784978303B313903EB830356
:1009B00001EB43036B490B80012323700523137064
:1009C0006BE04FF00108C3E7DFF884C162499CF88F
:1009D000002051F822205F49097812F801E086458D
:1009E00014D1DFF880C1BCF80030013B9BB2ACF8F9
:1009F00000300BB10D284DD19378D278303B03EB0A
:100A00008303303A02EB4303237046E00022914611
:100A1000C1F57F4A8CF800200AF1D30ADFF838C10B
:100A20005FFA82F85CF828C0BCF1000F0CD1B9F174
:100A3000000F04D04B4A1580454A82F800800022FE
:100A4000013B2270338028E09CF800E09CF80150C4
:100A5000AEF1300E0EEB8E0E554405EB4E05ADB2E9
:100A60007F2D24D81CF801E0864520D13D4B1D8008
:100A7000B9F1000F02D0364B83F8008055B99CF8CD
:100A800002309CF80320303B03EB8303303A02EB47
:100A9000430323702F4B01311970338801339BB20C
:100AA000B3F5806F338004BF002333802DE74FF010
:100AB00001090132B2E70A28EFD100232370244B49
:100AC0001B78023B0F2BE8D801A252F823F000BF9D
:100AD000110B0008690B0008850B00089B0A000831
:100AE000AF0B0008AF0B0008DD0B0008E70B000898
:100AF000050C0008DD0B00089B0A00082F0C0008FD
:100B00009B0A0008390C0008450C0008450C000839
:100B10003A78082AC1D84FF4AA73D340DB07BCD572
:100B20000022064B1A60064A137843F0200346E77A
:100B3000900200208E0200207D0B0020780B002008
:100B40007C0B0020740B0020940A002092060020E9
:100B50007902002078020020C8BF0008700B002036
:100B60006C0B0020920A0020944A1378180794D541
:100B700023F009031370924B1A88924B1A80924B00
:100B8000002203E73B780D2B87D100228F4B1A60A0
:100B90008A4A137823F0220343F0220313708C4B0C
:100BA0001B68002B3FF479AF0320984775E7834A11
:100BB000137823F0420313703B780E3B052B3FF66E
:100BC0006CAF834B1B680BB100209847814B1B789F
:100BD000002B7FF462AF16233B705EE7774A1378F1
:100BE00023F04003EBE6754A137823F008031370F3
:100BF0000022754B1A60764B1B68002B3FF44DAFFB
:100C00000A20D2E7734B1B78002B7FF446AF6F4A64
:100C100013606A4A137823F0600343F06003137093
:100C20006B4B1B68002B3FF438AF0720BDE7634ACE
:100C3000137823F04203C2E6604A137823F042039C
:100C40001370C8E75D4A1378190706D523F0090326
:100C500013705B4B1A885B4B1A803B78013B0D2B62
:100C60003FF61BAF594B8BE75B4A2C28126807D124
:100C700006232370002A3FF410AF584890470CE732
:100C80000021013B21703380002A3FF406AF544815
:100C9000F4E722287FF401AF072300222370514B91
:100CA0001A80FAE6222803D04E4A1388102B01D16D
:100CB0000823A9E6591C11804B4AD054EDE60A28B6
:100CC0007FF4EBAE0023474A23701188464A0F2970
:100CD0009BBF5354394913700A789FBF42F02002DA
:100CE0000A703A4A13603A4B1B68002B3FF4D5AEAA
:100CF00004205AE72C287FF4A2AE364B1B782BB188
:100D00000D2300222370394B1A70C6E60B23C4E76B
:100D10002C28FBD0A0F13002092A3FF690AE334ACE
:100D2000137803EB830300EB4303303B47E63A2899
:100D300001D10C2368E6A0F13002092A3FF67FAE0C
:100D4000284A138803EB830300EB4303303B1380F3
:100D5000A3E6274B9B6803B19847224A1388013BBF
:100D60009BB21380002B7FF498AE23701A4B1B6844
:100D7000002B3FF492AE1F4898478EE600231E4A90
:100D80002370136089E61A4B00201B689847124BAA
:100D90001B680BB11948984715232B702378DA0785
:100DA00040F1E581164A126832B9054A23F0090379
:100DB0001188044A23701180BDE8F88F7C0B002055
:100DC0008A0200208C0200206C0B0020780B00208F
:100DD000680B0020960A0020640B00208ABA0008E5
:100DE0009FBA0008920A0020DD0A0020950A002020
:100DF0007C020020B3BA0008740B0020C6BA0008B9
:100E0000700B0020914B01201B689847904B1B688A
:100E10000BB19048984716232B704FF4FA73336048
:100E2000BCE7012300222B708B4B1A70B6E78A4A6D
:100E300013782BB1013BDBB213701BB91423ACE761
:100E4000042313702378854823F020032370FFF7D1
:100E500053FB7F4B1B680BB18148984702239CE7EB
:100E600023789E0640F17581032396E77D48FFF7BE
:100E700043FB774B1B680BB17B489847237823F0E3
:100E800020032370042388E72378980640F16181CA
:100E9000052382E77548FFF72FFB237823F0200313
:100EA0002370062379E72378990640F152810723BE
:100EB00073E76F4B1B786BB16E48FFF71DFB644BFC
:100EC0001B680BB16C489847237823F020032370EC
:100ED000082362E76948F0E723789A0640F13981F0
:100EE000634B1B78002B0CBF0C23092355E7644888
:100EF000FFF702FB2220FFF719FB6248FFF7FCFA1D
:100F00002220FFF713FB2C20FFF710FB2220FFF716
:100F10000DFB5D48FFF7F0FA2220FFF707FB2C20BE
:100F2000FFF704FB5948FFF7E7FA2C20FFF7FEFA1A
:100F30005748FFF7E1FA0D20FFF7F8FA0A20FFF70C
:100F4000F5FA434B1B680BB1524898470A2324E734
:100F50005148FFF7D1FA3E4B1B680BB14F489847F9
:100F60000B231AE74E48FFF7C7FA394B1B680BB142
:100F70004C489847132310E74B4F3B78002B3FF426
:100F80000DAF4A48FFF7B8FA2220FFF7CFFA3846EC
:100F9000FFF7B2FA2220FFF7C9FA2C20FFF7C6FAB2
:100FA0002220FFF7C3FA4248FFF7A6FA2220FFF7F4
:100FB000BDFA0D20FFF7BAFA0A20FFF7B7FA244B63
:100FC0001B680BB13B489847237823F0200323701C
:100FD0000D232B7040F2DC5321E723789B0640F170
:100FE000B8800E2304222B701B4B1EE70022324BCD
:100FF00032481A70FFF780FA154B1B680BB1304866
:101000009847237823F0200323700F23C5E6237825
:101010009F0601D51023C0E60F4A1378013BDBB2CF
:101020001370002B00F095800E23B6E6254B1B783D
:10103000002B3FF4B3AE2448FFF75EFA044B1B6865
:101040000BB1224898471123A7E600BF7C0200207D
:10105000640B0020DCBA00088802002091C100085F
:10106000F2BA000883C1000800BB000814BB0008E6
:10107000960A002026BB000842BB000834BB0008CB
:1010800039C10008B70A0020970A0020020000209A
:101090000000002056BB000825C1000869BB0008FD
:1010A00011C100087DBB0008230B002079C1000896
:1010B000030B002094BB0008DD0A00206EC100086D
:1010C000A7BB0008F30A002053C10008B8BB000802
:1010D0003C48FFF711FA2220FFF728FA3A48FFF7B9
:1010E0000BFA2220FFF722FA2C20FFF71FFA22200A
:1010F000FFF71CFA3548FFF7FFF92220FFF716FA31
:101100002C20FFF713FA3248FFF7F6F92C20FFF7EF
:101110000DFA3048FFF7F0F92C20FFF707FA3020DE
:10112000FFF704FA0D20FFF701FA0A20FFF7FEF996
:10113000294B1B680BB129489847237823F060039B
:10114000237012232B70C82369E623789E063FF58F
:1011500011AF012321E6224B1B780BB100235EE681
:1011600023789807F5D559067FF554AFF6E71D4D5E
:101170001D492A88098891423FF41EAE1B4E5F0725
:10118000B05C02D53E2808BF0A20194B5B6898471F
:1011900000283FF411AE22782B8851070AD5F15C64
:1011A0003E2907D1322122F0050242F001022270CD
:1011B000104A116001339BB2B3F5806F08BF002362
:1011C0002B80F9E561C1000805000020F30A00202A
:1011D000ED0A0020D70A0020640B0020CEBB0008D7
:1011E000960A00208C0200208A0200209202002031
:1011F0007C020020700B0020014B1860704700BF7C
:10120000680B0020014B1860704700BF640B002082
:101210000022F0B5084BD4B2A14202F1010200D87D
:10122000F0BD5D791E686F1C5F71045D74555C795B
:10123000DD792C405C71EEE754120020021E18BFCD
:1012400001224FF40071014804F05EBE000C014021
:101250001FB514461A464FF0FF330091CDE9014304
:1012600001460123024805F0EFF804B010BD00BFAD
:10127000AC140020FFF7ECBF13B514461A46CDE9B5
:10128000001401230146024805F06EF902B010BDBA
:10129000AC14002013B514461A46CDE900140123FE
:1012A0000146024805F026FA02B010BDAC14002039
:1012B00007B501228DF807000DF10701034808F07A
:1012C00016F8B0FA80F0400903B000BDBC1200204F
:1012D00010B50446FEF73CFF81B22046BDE8104041
:1012E00009F0B2BC10B5164B1B78F3B115490C7858
:1012F000FF2C15D07E2C144B13D818550020621CDF
:10130000D2B2012A0A7098540AD0134413F8022C5E
:101310000D2A05D113F8013C0A2B01D1FF230B70D4
:1013200010BD00220A701A70FAE7084B5A79196842
:10133000541C5C7188545A79D9790A405A71EFE784
:10134000930D0020940D0020950D00203C120020EC
:10135000032810B5184C15D10C21184B18481A78D1
:10136000184B01FB02330F22996809F0A9FE0023F4
:10137000134A2370D3730122134B1A700522134BA7
:101380001A7010BD124B22781B7813431843C0B259
:101390000028F6D1012340F6B8320C2123700D4B02
:1013A000BDE810401A80054B064A1B784B43D11804
:1013B0004968D058FFF7CEB83C0C00203D0C002007
:1013C0005400002018D700083E0C002064000020C4
:1013D000930D002050000020038830B58B421FD2AF
:1013E000C38B8B4219D9002330F8024BA14211D391
:1013F000028891420ED80B48121BC55A0230C35ABC
:10140000091B5B1B500801FB0300B0FBF2F02844F2
:1014100080B230BD02331E2BE6D14FF47A70F8E76C
:101420000020F6E778D60008054B064A03F11001C4
:1014300053F8040B8B4242F8040BF9D1704700BFFC
:101440007C1200206C1200200122014B1A707047A0
:10145000B51200200122014B1A707047B41200200F
:101460000268264B10B59A42044612D1244A2549F7
:10147000137825480133DBB2282B01BF00231370FA
:10148000224A137808BF43F080031370082204F047
:10149000B7F82368B3F1804F18D11D4A13782BB1E8
:1014A0001378012B02D01378022B08D1012419499B
:1014B00019480B78C454234403F00F030B701749E9
:1014C0000B78013B13F0FF0301D00B7010BD142308
:1014D0000B701378032B02D01378042BF6D1012064
:1014E0000C4A0D491378C8540344002003F00F033D
:1014F000C854013303F00F031370E7E7002C0140D9
:10150000B61200207C12002044150020360E002068
:10151000B81200208C1200208D1200206A000020DA
:10152000F0B5026883790C46D15C0546A1F1A003B1
:1015300091B0512B00F2D986DFE813F052005C0025
:101540006C00B80007013201AB01C8015301710101
:101550008E010A0250046D048A04A704C404E10445
:101560002902FE041B053805550573059105AF05D5
:10157000D706D706D706D706D706D706CD05440225
:101580006102EB0509062C064A0668068606A406D3
:10159000C206D706D706D706D706D706D706D70678
:1015A000D706D706D706D706D706D706D706D70653
:1015B000D706D706D706D706D706D706D706D70643
:1015C000D706D706D706D706D706D706D706D70633
:1015D000D706D706D706D706D706D7068602CC0386
:1015E000A0210222204603F02AFD0D21204603F00F
:1015F0006EFD08E0A1210D22204603F020FD2046CB
:10160000C14903F077FD2046217A11B0BDE8F040D2
:1016100003F05DBD0D22A221204603F010FDBB4B5F
:10162000BB4DB3F9001020462980C9B203F04FFD2D
:101630006978204603F04BFDB64B2046B3F9001005
:101640002980C9B203F043FD6978204603F03FFDCD
:10165000B14B2046B3F900102980C9B203F037FD21
:101660006978204603F033FDAC4B2046B3F90010F7
:101670002980C9B203F02BFD6978204603F027FDCD
:10168000A74B2046B3F900102980C9B203F01FFD13
:101690006978204603F01BFDA24BB3F900102980A6
:1016A0002046C9B203F013FD69789FE79E4E1122D0
:1016B000A321204603F0C3FC954D318820462980A4
:1016C000C9B203F004FD6978204603F000FD71887B
:1016D00020462980C9B203F0FAFC6978204603F05D
:1016E000F6FCB18820462980C9B203F0F0FC697885
:1016F000204603F0ECFCF18820462980C9B203F0B3
:10170000E6FC6978204603F0E2FC31892046298016
:10171000C9B203F0DCFC6978204603F0D8FC71897B
:1017200020462980C9B203F0D2FC6978204603F034
:10173000CEFCB18920462980C9B203F0C8FC697883
:10174000204603F0C4FCF189A9E70222A421204627
:1017500003F075FC0D21204603F0B9FC217A2046E8
:1017600003F0B5FC00220121284603F0E8FC684C98
:10177000002201212070284603F0E1FC6070B4F9DA
:1017800000202388002A6949694AB5BF5B4213805B
:101790000B800023B6BF00230B80138011B0F0BD77
:1017A0000222A521204603F04AFC0D21204603F029
:1017B0008EFC217A204603F08AFC00220121284673
:1017C00003F0BDFC524C002201212070284603F09A
:1017D000B6FC6070B4F900202388002A5549564AA7
:1017E000D3E70222A821204603F029FC0D21204640
:1017F00003F06DFC217A204603F069FC00220121F0
:10180000284603F09CFC424C00222070012128460F
:1018100003F095FC60702288484B1A80BEE70222D4
:10182000A921204603F00BFC0D21204603F04FFCBC
:10183000217A204603F04BFC00220121284603F0C8
:101840007EFC334C002220700121284603F077FCF7
:10185000607022883A4BE0E70222AA21204603F07A
:10186000EEFB0D21204603F032FC217A204603F0E6
:101870002EFC00220121284603F061FC244C0022AA
:1018800020700121284603F05AFC607022882D4BFD
:10189000C3E70222A621204603F0D1FB0D212046FA
:1018A00003F015FC217A204603F011FC00220121EF
:1018B000284603F044FC164C0022207001212846E3
:1018C00003F03DFC607022881F4BA6E70222A7218F
:1018D000204603F0B4FB0D21204603F0F8FB217AEB
:1018E000204603F0F4FB00220121284603F027FCE8
:1018F000074C002220700121284603F020FC607074
:101900002288124B89E700BF54D70008B21200208A
:10191000380E0020B0120020AE120020AC120020C1
:10192000AA120020A81200206C120020300E002005
:101930002E0E0020340E0020320E00204800002021
:1019400046000020FC0B0020400000204200002048
:101950000222AB21204603F072FB0D21204603F04A
:10196000B6FB217A204603F0B2FB00220121284673
:1019700003F0E5FB304C002220700121284603F0E3
:10198000DEFB6070B4F900202C4B1A6006E70222DF
:10199000B221204603F053FB0D21204603F097FBB4
:1019A000217A204603F093FB00220121284603F010
:1019B000C6FB214C002220700121284603F0BFFB0A
:1019C0006070EBE60222C121204603F038FB0D21B6
:1019D000204603F07CFB217A204603F078FB0022AE
:1019E0000121284603F0ABFB134C0022207001219B
:1019F000284603F0A4FB60702288114B0DE70222F9
:101A0000C221204603F01BFB0D21204603F05FFBA3
:101A1000217A204603F05BFB00220121284603F0D7
:101A20008EFB054C002220700121284603F087FB25
:101A300060702288034BF0E6380E0020380000204A
:101A4000680000206600002000254F22F02120467B
:101A500003F0F5FAB94B03AF1B88ADF80C30B84B67
:101A60001B88ADF80E30B74B1B88ADF81030B64B65
:101A70001B88ADF81230B54B1B88ADF8143037F920
:101A8000026B2046F1B203F022FB01352046C6F37B
:101A9000072103F01CFB052DF1D1AD4D204629781F
:101AA00003F015FB6978204603F011FBA978204666
:101AB00003F00DFBE9780025204603F008FBA54B59
:101AC000ADF830501B8809AFADF82430A24B1B880D
:101AD000ADF82630A14B1B88ADF82830A04B1B88F1
:101AE000ADF82A309F4B1B88ADF82C309E4B1B88DD
:101AF000ADF82E3037F9026B2046F1B203F0E7FA69
:101B000001352046C6F3072103F0E1FA072DF1D194
:101B10000025964B06AF1B88ADF81830944B1B88F8
:101B2000ADF81A30934B1B88ADF81C30924B1B88D4
:101B3000ADF81E30914B1B88ADF82030904B1B88C0
:101B4000ADF8223037F8026B2046F1B203F0BFFA4D
:101B500001352046310A03F0BAFA062DF2D10025EC
:101B6000884B01AF1B88ADF80430874B1B88ADF85C
:101B70000630864B1B88ADF80830854B1B88ADF8C6
:101B80000A3037F8026B2046F1B203F0A0FA0135B3
:101B90002046310A03F09BFA042DF2D17D4B00213F
:101BA000B3F90050204603F092FA0021204603F0DA
:101BB0008EFAE9B2204603F08AFAC5F307212046DF
:101BC00003F085FA744B754AB3F90060B2F900501E
:101BD0001978204603F07BFAC6F30721204603F06C
:101BE00076FAE9B2204603F072FAC5F307216C4D8C
:101BF000204603F06CFA2978204603F068FA6978E9
:101C0000204603F064FAA978204603F060FAE978E8
:101C1000204603F05CFA634B634AB3F90060B2F903
:101C200000501978204603F052FAC6F307212046E7
:101C300003F04DFAE9B2204603F049FAC5F3072153
:101C40005A4D204603F043FA2978204603F03FFA24
:101C50006978574D204603F03AFAA978204603F0F8
:101C600036FA69882046090A03F031FAA979204634
:101C700003F02DFAE9882046090A03F028FAA97A28
:101C8000204603F024FA69894A4D090A204603F0E8
:101C90001EFA29882046C9B203F019FA2988464D50
:101CA000C1F30721204603F012FA29882046C9B261
:101CB00003F00DFA2988414DC1F30721204603F0B6
:101CC00006FA29882046C9B203F001FA2988C1F32F
:101CD00007218BE400261D22F121204603F0AFF9F5
:101CE000374B09AF1B680993364B1B680A93364B79
:101CF0001B680B93354B1B680C93354B1B680D937E
:101D0000344B1B680E93344B1B680F9357F8045BDE
:101D10002046E9B203F0DBF9C5F30721204603F0C2
:101D2000D6F9C5F30741204603F0D1F90136204624
:101D3000290E03F0CCF9072EE8D164E44800002016
:101D4000FC0B002046000020400000204200002044
:101D5000380000202E0000202C000020FA0B00206C
:101D6000F80B002026000020360000201E00002076
:101D7000180000201A000020160000201C0000207F
:101D8000140000203E0000203C00002068000020DD
:101D900066000020340000203200002030000020C7
:101DA000200C002024000020220000202000002021
:101DB0006C1200203A0C0020380C0020360C002059
:101DC000100C0020040C0020080C0020000C002047
:101DD0001C0C0020DC0B00204C0000200222AC2157
:101DE000204603F02CF90D21204603F070F9217AEA
:101DF000204603F06CF900220121284603F09FF9E8
:101E0000D44C002220700121284603F098F960701C
:101E10002288D14B01E50222AD21204603F00FF9C3
:101E20000D21204603F053F9217A204603F04FF9A3
:101E300000220121284603F082F9C64C00222070BE
:101E40000121284603F07BF960702288C34BE4E44B
:101E50000222AE21204603F0F2F80D21204603F0C5
:101E600036F9217A204603F032F900220121284672
:101E700003F065F9B74C002220700121284603F0D9
:101E80005EF960702288B64BC7E40222AF2120467B
:101E900003F0D5F80D21204603F019F9217A2046E8
:101EA00003F015F900220121284603F048F9A94C56
:101EB000002220700121284603F041F96070228839
:101EC000A84BAAE40222B021204603F0B8F80D2165
:101ED000204603F0FCF8217A204603F0F8F80022AF
:101EE0000121284603F02BF99A4C00222070012191
:101EF000284603F024F9607022889B4B8DE402226F
:101F0000B121204603F09BF80D21204603F0DFF8B5
:101F1000217A204603F0DBF800220121284603F055
:101F20000EF98C4C002220700121284603F007F99D
:101F3000607022888D4B70E40222B321204603F0AA
:101F40007EF80D21204603F0C2F8217A204603F0E6
:101F5000BEF800220121284603F0F1F87D4C002252
:101F600020700121284603F0EAF860702288804B37
:101F700053E40222B421204603F061F80D212046EB
:101F800003F0A5F8217A204603F0A1F800220121F0
:101F9000284603F0D4F86F4C002220700121284617
:101FA00003F0CDF860702288724B36E40222B5212E
:101FB000204603F044F80D21204603F088F8217AEA
:101FC000204603F084F800220121284603F0B7F8E8
:101FD000604C002220700121284603F0B0F86070A8
:101FE0002288654B19E40222B621204603F027F827
:101FF0000D21204603F06BF8217A204603F067F8A4
:1020000000220121284603F09AF8524C0022207049
:102010000121284603F093F860702288574BFFF7A0
:10202000FCBB0222B721204603F009F80D2120460F
:1020300003F04DF8217A204603F049F800220121EF
:10204000284603F07CF8434C0022207001212846EA
:1020500003F075F860702288494BFFF7DEBB02225F
:10206000B821204602F0EBFF0D21204603F02FF8A7
:10207000217A204603F02BF800220121284603F0A4
:102080005EF8344C002220700121284603F057F8F6
:10209000607022883B4BFFF7C0BB0222B92120466B
:1020A00002F0CDFF0D21204603F011F8217A2046E1
:1020B00003F00DF800220121284603F040F8254CDA
:1020C000002220700121284603F039F86070228830
:1020D0002D4BFFF7A2BB0222C021204602F0AFFF2A
:1020E0000D21204602F0F3FF217A204602F0EFFF97
:1020F00000220121284603F022F8164C002220700D
:102100000121284603F01BF8607022881F4BFFF75F
:1021100084BB0222C321204602F091FF0D212046FC
:1021200002F0D5FF217A204602F0D1FF00220121E2
:10213000284603F004F8074C0022207001212846AD
:1021400002F0FDFF60702288114BFFF766BB022290
:10215000C4211EE4380E00202E0000202C00002098
:10216000FA0B0020F80B002026000020360000208B
:102170001E000020180000201A0000201600002079
:102180001C000020140000203E0000203C00002025
:10219000340000200222C521204602F050FF0D210C
:1021A000204602F094FF217A204602F090FF0022A0
:1021B0000121284602F0C3FF4F4C0022207001216C
:1021C000284602F0BCFF607022884C4BFFF725BB0D
:1021D0000222C621204602F032FF0D21204602F0E5
:1021E00076FF217A204602F072FF00220121284664
:1021F00002F0A5FF404C002220700121284602F089
:102200009EFF607022883E4BFFF707BB0222C7216A
:10221000204602F014FF0D21204602F058FF217ADB
:10222000204602F054FF00220121284602F087FFD9
:10223000314C002220700121284602F080FF60709E
:102240002288304BFFF7E9BA0222C821204602F06B
:10225000F6FE0D21204602F03AFF217A204602F0D8
:1022600036FF00220121284602F069FF224C00229D
:1022700020700121284602F062FF60702288224B04
:10228000FFF7CBBA0222C921204602F0D8FE0D2169
:10229000204602F01CFF217A204602F018FF00229F
:1022A0000121284602F04BFF134C0022207001212F
:1022B000284602F044FF60702288144BFFF7ADBA45
:1022C000134D04222B88CA21013320462B8002F0B3
:1022D000B6FE0D21204602F0FAFE29882046090AA2
:1022E00002F0F5FE2978FFF781B90222204602F0BC
:1022F000A6FEFF21FFF77AB9380E00203200002039
:1023000030000020240000202200002020000020B7
:10231000C00B0020F0B516464379027905469A4273
:102320000C46C3B01DD002F017FFD0B1012E04BF80
:102330000022154B2146284608BF1A70FFF7F0F817
:102340000022617A02A8D3B299420CD8C6B1FEF736
:102350002FF94FF4807300930022637A02A9FEF7ED
:1023600099F943B0F0BDA77925687B1CDBB2A37156
:10237000ED5D013200F8015BE5792B40A371E2E7E6
:1023800002A808F061FCECE76400002010B50D4BDA
:102390000D4C1A780D4B0E4853F822100122237869
:1023A00002FA03F38B4308BF1A464FF4005103F0BF
:1023B000ABFD23780133DBB2142B28BF002323703D
:1023C00010BD00BFB7120020BE0B0020700000201F
:1023D000001001402DE9F0418C4B8D4C1B788AB0E8
:1023E000032B5FFA83F840F02B810025012002F0D7
:1023F000B7F94023202229461E20009502F000FB59
:102400001623802214212846009502F0F9FA402371
:10241000522229465020009502F0F2FA7D4E2946BC
:10242000282002F0A1FA7C4902A808F09FFE96E855
:102430000E00009502A802F081FA2946552002F00C
:1024400093FA764902A808F091FE96E80E000095EE
:1024500002A802F073FA1921282002F085FA704BC5
:102460002021B3F900306F4A02A808F0EBFD94E890
:102470000E00009502A802F061FA1921552002F021
:1024800073FA694B2021B3F90030664A02A808F0BC
:10249000D9FD94E80E00009502A802F04FFA25211C
:1024A000282002F061FA614B2021B3F900305D4A27
:1024B00002A808F0C7FD94E80E00009502A802F0FB
:1024C0003DFA2521552002F04FFA594B2021B3F94E
:1024D0000030544A02A808F0B5FD94E80E000095BB
:1024E00002A802F02BFA3121282002F03DFA514BCC
:1024F0002021B3F900304B4A02A808F0A3FD94E86C
:102500000E00009502A81E2602F018FA312155206F
:1025100002F02AFA484B2021B3F90030414A02A8C0
:1025200008F090FD94E80E0040F6FA74434F0095D1
:1025300002A802F003FA3B8842467343B3FBF4F36C
:10254000C3F13C033C214046DBB2009502F012FA95
:102550007B8806227343B3FBF4F3C3F13C031046BC
:102560003C21DBB2009502F005FABB8809227343D7
:10257000B3FBF4F3C3F13C0310463C21DBB20095FE
:1025800002F0F8F9FB880C227343B3FBF4F3C3F1B8
:102590003C0310463C21DBB2009502F0EBF93B898D
:1025A0000F227343B3FBF4F3C3F13C0310463C2109
:1025B000DBB2009502F0DEF97B8912227343B3FB94
:1025C000F4F3C3F13C0310463C21DBB2009502F06A
:1025D000D1F9BB8915227343B3FBF4F3C3F13C0378
:1025E00010463C21DBB2009502F0C4F91822FB89A9
:1025F0003C217343B3FBF4F31046C3F13C03009555
:10260000DBB202F0B7F90AB0BDE8F081B8120020E1
:10261000A4C1000898C10008E4BB0008E8BB00089A
:10262000B2120020ECBB0008AC120020B012002057
:10263000AA120020AE120020A81200206C12002066
:10264000002002F08DF802210125084602F08CF9E5
:1026500094E80E004548009502F070F9022124200C
:1026600002F082F9424B20211B68424A02A808F07E
:10267000E9FC94E80E00009502A802F05FF9112130
:10268000022002F071F994E80E003B48009502F038
:1026900055F91121242002F067F90522374B20213A
:1026A0001B6802A803EB430393FBF2F3344A08F0E0
:1026B000C9FC94E80E00009502A802F03FF9202121
:1026C000022002F051F994E80E002E48009502F025
:1026D00035F92021242002F047F964212A4E02A86E
:1026E000326892FBF1F301FB1322002AB8BF524279
:1026F00020210092254A08F0A5FC94E80E000095E0
:1027000002A802F01BF92F21022002F02DF994E813
:102710000E001F48009502F011F924202F2102F02D
:1027200023F942F226323368009503F58C531333B4
:10273000934298BF174894E80E0088BF164802F0ED
:10274000FDF801240E237F2219460020009402F098
:1027500011F91D237F2219460020009402F00AF986
:102760002C237F221946002000944AE7EFBB000883
:10277000A4120020F4BB0008FDBB0008A01200203A
:1027800002BC00080CBC00081C0C002011BC000896
:102790001BBC000820BC00082ABC000837B53F4B12
:1027A0003F4C1A782AB11A78012A02D01B78022BE2
:1027B00016D12378013B012B12D800232370394A0C
:1027C000394B11781B788B4208D038484B1C415C40
:1027D00003F00F0391B103212170137003B030BDDA
:1027E0002378032B57D801A252F823F0BF27000803
:1027F000012800080B280008252800080121EBE724
:10280000FFF7E8FD02232370E8E7294804F066FF9C
:102810002028E3D101F0CAFF0028DFD00023254A99
:102820001370F0E7224804F05CFF234D10B14FF421
:102830007A732B601E4804F051FF202816D101F056
:10284000D5FE98B11D4B1E4A01931E4B1E490093A5
:102850001E481F4B01F012FF00231E4A1E49137031
:102860000A7842F008020A702B60CCE72B6801332B
:10287000B3F5FA7F2B60B1D90D4803F0CBFD0120F1
:1028800002F044FD0A4803F01DFD01F079FE01F05D
:102890009FFE0023E8E70023B5E700BFB812002041
:1028A000BD0B0020BC0B00208C1200208D120020DC
:1028B000AC140020B5120020B80B0020A812002094
:1028C000AE120020AA120020B0120020B212002086
:1028D000AC120020B4120020360E0020074B084A2C
:1028E0001B6812885A63074A1288DA63064A1288FC
:1028F0009A63064A12881A64704700BF4C1300207E
:10290000340E0020300E0020320E00202E0E00204B
:1029100013B50B4B044600934FF4AA71094B0A4AB6
:102920000A4808F08FFB4FF4AA7300220093204658
:1029300040F243130549FDF7ADFE02B010BD00BFE4
:1029400075BC000830BC000870BC00083F0C0020BB
:1029500013B50A4B044600934FF4AA71084B094A79
:10296000094808F06FFB4FF4AA7300220093204639
:10297000B3230549FDF78EFE02B010BD7ABD0008F5
:1029800030BC000870BC00083F0C00202DE9F84363
:1029900000241F460C7014701C7047F23A53089DB7
:1029A00089462B8032490646904608F09CFB58B178
:1029B000043010F8013FE2B213F0DF0F01D0262BF4
:1029C00036D1002309F8023030462A4908F08BFB43
:1029D00060B10023043010F8012FD9B212F0DF0FDC
:1029E00001D0262A2ED1002308F801303046224992
:1029F00008F079FB58B10023C21C12F8011FD8B2AD
:102A000011F0DF0F01D0262926D100233B54304698
:102A10001A4908F068FB48B10023053010F8012F6F
:102A2000303AD1B209291DD903B12B80BDE8F88312
:102A30002B2B08BF202309F8043001343F2CB8D1D8
:102A40002246BEE72B2A08BF202208F803200133C4
:102A50003F2BC0D11946C6E7F95401330F2BCCD117
:102A60001846D2E703EB830302EB430293B2D5E7A8
:102A7000EFBD0008F5BD0008FBBD000800BE000862
:102A80002DE9F043344BA9B01E785EB100221A70D4
:102A900047F23152314B3248198829B0BDE8F04332
:102AA000FDF78CBDDFF8BC9099F80030002B42D0C8
:102AB0002D4F3B78FF2B3ED1FDF77AFD2B4C804606
:102AC0002B49204608F00FFB0546002836D040224F
:102AD000314608A808F0ECFA4022314618A808F060
:102AE000E7FA102231460DEB020008F0E1FA0DF191
:102AF0000E030093204604AB18AA08A9FFF746FF6F
:102B00009DF8103033B1164B0F22184604A908F077
:102B1000D7FAC673BDF80E300BB1104A1380404689
:102B2000FFF716FF002318A908A889F800303B70AA
:102B30002370FDF70FFD29B0BDE8F08320460D4955
:102B400008F0D1FA28B14046FFF7E2FE3D7025704B
:102B5000F1E738702070EEE73E0C002052000020B4
:102B600054000020930D0020940D0020950D0020AE
:102B700007BE000811BE000840F2012303800023B5
:102B800083708380C380704702780346032A1DD870
:102B9000DFE802F00F021407427842B903221A70EC
:102BA00005E0417801220029F9D1017082700020EE
:102BB00070474278012AFAD10222F0E740780022D9
:102BC0000128ECD118709A70D87170470122E6E79D
:102BD00070B504464FF400411D4803F08FF9A67804
:102BE0001C4A1D491D4DAEB188B113780133DBB2CB
:102BF000072B137003D90123637000231370002384
:102C00000B702B78EBB1A3880A33A38070BD607082
:102C10001070F4E70B781670042B0FD9003818BF2A
:102C200001200E70607000232B70A3796BB1A38814
:102C3000002BEBD0092B08D90A3BE6E701330B70D8
:102C4000F1E7A38001232B70DDE70023DDE700BF60
:102C5000000C0140B40B0020B30B0020B20B00208D
:102C600037B53E4D2B78DB0934D02B7823F0800329
:102C70002B70FDF7DBFD3A48FFF7AAFF394890F8C3
:102C80004230222B09D0036837491A685B68202339
:102C9000012280F8423006F00AFD344B1B7823B144
:102CA00033490A88C2B1013A0A80324A1378013B9B
:102CB00013F0FF0303BF022313702B78137004BFBC
:102CC00043F040032B702C4B1C78013C14F0FF04A4
:102CD00017D01C7003B030BD284803780133DBB235
:102CE000042B94BF1A461346027040F6B8320A808D
:102CF0000C214B43224AD1184968D058FDF72AFCD1
:102D0000D3E70A221A702B7843F020032B70FFF7C9
:102D10003DFB1C4A13780133DBB2092B01D8137039
:102D2000D8E71470184C2378042B9CBF0133237010
:102D3000164B1D78002DCDD1FDF786FC0728C9D193
:102D40002378042BC6D94FF480732A460093284673
:102D500009230F49FDF79EFCBCE700BF360E00209B
:102D6000160E0020BC1200202C0E00203C0C00206F
:102D7000500000206B0000206C0000203D0C002063
:102D800018D700082D0E002064000020930D0020AD
:102D90000B000020F8B583780446002B4CD18388C3
:102DA000002B49D18379002B46D0C579EDB140F68F
:102DB000B732A388934258D8A3F5FA62B2F57A7F66
:102DC00057D2374804F08AFC202838D10025042641
:102DD000E571344B1E7001F02BFD012001F044FE23
:102DE000314BA5711E70A58029E02D4804F076FCBA
:102DF000202824D1284601F0B3FC01F0BDFC94F852
:102E000006C02A492A4ABCF1020FB1F90030B2F9D2
:102E10000000244F244E24D0BCF1030F10D0BCF18D
:102E2000010F1ED13570234E3D703380224B0D8033
:102E3000188015800023A371E379002BB7D1F8BD6A
:102E40004FF0020C87F800C01C4F86F800C03D70A0
:102E50000343EFD1174B1B880B80174B1B88138044
:102E6000E8E701253D703570F2E70023E371A380A8
:102E7000E5E7A3F57A73B3F57A7F08D2084804F042
:102E80002DFC2028DBD100250326E571A1E70023D6
:102E9000E371A3790133A3714FF4C873E7E700BF6F
:102EA000AC140020B8120020B71200202E00002021
:102EB0002C0000202A00002028000020D00B002039
:102EC000F8B51D4640F2F3139A42CCBF002401240A
:102ED0009942D8BF01347B4F9842D8BF01343B7828
:102EE0008446032B00F2EB80DFE813F004001100AE
:102EF0006E00E500B1F5FA7F02DA01233B7009E0CC
:102F0000714B724AB3F900305B42136002E0032C4C
:102F100001D13C70F8BD6E4E6E4914BB3388086811
:102F200001339BB2052B33800FD90028B4BF012297
:102F30004FF0FF32684B34801C80684B1C70684B2C
:102F40001C60684B1A700223D8E7674B1860674B08
:102F50001A685E4B1A60664B0860B3F900302B604C
:102F6000D8E7002333804FF47A7303FB02F0614A01
:102F700002FB0C00604A126890FBF2F00A2290FB00
:102F8000F2F0594A80EAE07410605C4AA4EBE07405
:102F900014605B4AB2F900204243624392FBF3F2B1
:102FA000584B4A4CB3F9003000FB0322564B2260C9
:102FB000B3F900309A4202DD1A46236002E05B4218
:102FC0009A42F9DB494BC5E7B1F5FA7F95DB41F24F
:102FD00088304E4B4E4A1B88B2F900101BB2C91AFA
:102FE0004C4A002381FB0001FDF7BAF83C4B3B49FA
:102FF0001A680C7810446FF0630218602A60334A34
:10300000032C56D8DFE804F0021A283F354C94F917
:103010000040002C404CC8BF4FF4AF74146047F21E
:103020002F520028B8BF404290427FF773AF002272
:103030001A60294B1A8001230B706BE70024264885
:1030400014600288013292B2632A02807FF662AF76
:103050001C6004800223EFE7224C94F90040002C0E
:103060002D4CD8BF4FF4AF7414604EF65F22002889
:10307000B8BF404290427FF74DAF00221A60164B16
:103080001A800323D8E7174C94F90040002C224CF7
:10309000C8BF4FF4AF7400281460204AB8BF404244
:1030A00090427FF737AF00221A600B4B1A8004233F
:1030B000C2E7002329E7032C7FF41FAF2AE7002390
:1030C0001CE700BFD40B002026000020DC0B0020F2
:1030D000B00B0020D80B0020D20B0020D10B002019
:1030E000AC0B00200A000020E40B0020A80B0020FD
:1030F0003600002018FCFFFFE80B0020E00B00204A
:103100002C0000202E00002020000020C20B0020F8
:10311000A8120020B8FF0100A2FEFFFF3F7E0500BD
:1031200038B50C46054601880948FEF755F9208058
:1031300069880848FEF750F96080A9880648FEF7BC
:103140004BF9A080E9880548FEF746F9E08038BDD4
:10315000F8D60008D8D60008B8D6000898D60008D7
:1031600037B5354B354C19782278914261D02278A9
:103170001A7023782BB12378012B02D02378022BED
:1031800057D12F4804F0AAFA2028FAD1012001F0E3
:103190006BFC002001F0E4FA2378D3B90125294C17
:1031A0001421162001F0E0FB94E80E00264800955B
:1031B00001F0C4FB2221242001F0D6FB94E80E008C
:1031C0002248009501F0BAFB03B0BDE8304001F0A1
:1031D000D3BA2378012BDDB213D11A4C1421162057
:1031E00001F0C2FB94E80E001948009501F0A6FB1F
:1031F0002221042001F0B8FB94E80E001548009548
:10320000E0E72378022BDFD101250E4C1421162094
:1032100001F0AAFB94E80E000F48009501F08EFB28
:103220002221242001F0A0FB94E80E000B48009519
:10323000C8E703B030BD00BF09000020B81200206D
:10324000AC140020A4C1000817BE000824BE00086A
:103250002DBE00083ABE00084CBE000859BE00084A
:1032600010B594B0142200210CA807F021FF1422FD
:1032700000210DEB020007F01BFF1022002101A826
:1032800007F016FF02244FF480330122CDE91143E9
:10329000CDE90A234FF4E0130AA80E92139305F028
:1032A0009BF808B172B6FEE70F23CDE905344FF461
:1032B00080630790CDE90830214605A805F04EFA55
:1032C00008B172B6FEE7122301934FF40043CDE933
:1032D000033001A805F0FEFA08B172B6FEE714B09B
:1032E00010BD00000268084B10B59A420AD1074C85
:1032F0002078FDF7BBF92146BDE8104001220448C3
:1033000006F0D5B910BD00BF003801402C0E0020DA
:10331000BC1200200368074A934209D11A685B680F
:103320002023012280F842300349044806F0BFB947
:10333000704700BF003801402C0E0020BC12002056
:103340008D4A2DE9F04F15688C4ADFF834A21468D5
:103350008C4A85B0B2F900B08B4ADAF80030B2F985
:10336000002003900292894AB2F9007043EA0502F4
:10337000224300F0B2805A210A224B4302FB0B3059
:10338000642390FBF3F04D434C430190029802FB01
:10339000074402FB005594FBF3F495FBF3F5019B06
:1033A0007B4ACAF80030744BB2F900801D60734B41
:1033B0001C60784B1B68002B00F09480434403EBA7
:1033C000D3735B1000934FF48F704FF06409714B0F
:1033D000009A1A60704A116800FB01F292FBF9F63C
:1033E00081FB01024FEAE17C00FB0CFC01FB02CCFB
:1033F0005DA3D3E90023A0FB01016144FCF7B0FE0B
:10340000311A664E33889BB2952B6ED833889BB2A7
:10341000272B31D8624B4FF48F70C3F80080614B7B
:103420005549B3F90020604B029C1A605F4B604A1B
:103430001F60232303FB08F3136093FBF9F3564A41
:103440000C60136000FB03F483FB0302DD174543AC
:103450004A4903FB02550F60A0FB030142A3D3E9D5
:103460000023CAF800B02944FCF77AFE94FBF9F473
:10347000484B211AC3F8008033889BB2312B0AD9FC
:10348000444A4C4B10681A68401A10444A4A186063
:1034900013683B441360338801339BB23380338815
:1034A0009BB2962B0DD16422424B44491B6893FB7F
:1034B000F2F30B80404B1B6893FBF2F3404A1BB2C4
:1034C000138000233F4A13603F4A13602B4B1A6856
:1034D000364B1A6005B0BDE8F08F3C46029DCDF832
:1034E00004B05CE7CDF800806DE7304B00981A68B7
:1034F0001C60324BA21AB3F900306443C31A5B1A42
:10350000019905FB0544694330482F4DB4FBF0F4A5
:1035100091FBF0F11B1B0B44062192FBF1F21344CB
:10352000284A03981360136840F6262203F21351C9
:10353000914298BF00230399DA17A3FB013100FBE6
:103540000211D81841EB0106C01841EB060108A38F
:10355000D3E90023FCF704FE62232C685C4394FB50
:10356000F9F404442C60B5E7420A1B040000000093
:10357000404B4C0000000000940B0020900B0020FA
:10358000980B0020AC120020AA120020A8120020E4
:10359000B21200208C0B00201C0C00209E12002078
:1035A000180C0020AE120020140C0020880B002004
:1035B000200C0020840B0020800B0020D60B002064
:1035C000C20B0020A0120020A412002028512200CB
:1035D0002DE9F04FB64A87B01378190740F14384BC
:1035E0001378B44C23F0080313700522B24BE18822
:1035F0001A6063886289ADF808300B44ADF80C207E
:1036000013440322B3FBF2F3ADF80A1002A804A995
:10361000ADF80E30FFF784FDBDF91050A74BBDF893
:1036200010001D80BDF91250A54BBDF812101D8071
:10363000BDF91450A34BBDF814201D80431813444A
:10364000012BB8BF0123A04DDFF880C22B60B4F975
:1036500000509F4BDFF87C821D80B4F90430B4F930
:103660000850ACF800309C4B9C4E1D80B4F90C30D7
:103670009B4DB4F90E40A8F800309A4B3768D5F846
:1036800000E01C80984B994C57EA0E09B3F90030C2
:10369000B4F900400ED04FF05F0903EB830309FB40
:1036A0000733642704EB840409FB0E4493FBF7F310
:1036B00094FBF7F42C6004F57A64B4F5FA5F88BFE4
:1036C0002324336088BF63436FF03104884E894DF3
:1036D00088BF3360884BB3F900306343832493FB86
:1036E000F4F3864C23602C681C443368142673431F
:1036F0004FF4757606FB0433814CA34200F3C0807F
:10370000804CA342C0F2BE804FF47A7493FBF4F372
:1037100064242B6093FBF4F37B4F7C4E3B607C4B2B
:103720007C4C1B687C4D0193002333602378012B74
:103730005FFA83FE00F0A880BEF1020F00F0A880BF
:1037400023781BB12378012B40F042823A68002A8B
:10375000D4BF00220122714B38681A702378002BE5
:1037600040F03882A3F2DC539842ACBF4FF0000E19
:103770004FF0010E6A4BDFF8ACC183F800E023780C
:10378000DFF8A481012B03D02378022B40F096822E
:1037900066490B780133DBB2072B00F21E820B70F7
:1037A000019BB8F900100B4401934FF0C808019B2E
:1037B0005F49DFF880911B1A0B60D9F80010091AD5
:1037C00008FB01FA5C4903F19508B8F5957FC1F84B
:1037D00000A0296800F27A8203EB83084144DFF8F5
:1037E0005C814145B8BF414649F640484145A8BFC4
:1037F0004146DFF84C812960B8F90080C9F8000023
:1038000001FB08F84FF47A7198FBF1F84D49B1F9D2
:10381000001003FB01884C49B1F900100AFB018834
:1038200042F2107A98FBFAFA4849CCF800A00B60F3
:103830002378D6F800C0012B05D1454B1B7813F037
:10384000FD0F00F0498242F20F76424BB0451888D6
:10385000414B1B8800F3BC82404EB04580F206838A
:103860003F4EDFF80091B6F90060B9F90090AAEB7D
:103870000008A8EB0608AAEB0306A6EB0906B4E2CB
:10388000394B45E7394B43E701ABFFF719FB57E7E6
:10389000DFF8DC9099F80030062B00F29781DFE822
:1038A00013F06900A700B900E9002F01410184016C
:1038B000360E00206C1200204C0000203A0C002034
:1038C000380C0020360C0020E80B0020320C0020C1
:1038D000340C00202E0C0020300C0020180C00208E
:1038E000140C00202C0C0020B2120020AE1200207C
:1038F000280C0020200C0020AA120020240C0020FC
:10390000E7ECA43519135BCA1C0C0020DC0B00206B
:1039100038000020B8120020040C0020A20B002068
:10392000A10B0020000C0020EC0B0020A00B0020BD
:10393000100C00209C0B0020080C0020C063FFFF2F
:10394000FC0B002048000020460000200C0C00204A
:10395000D40B00204200002040000020F1D8FFFFDF
:10396000FA0B0020F80B0020A0BB0D006044F2FF12
:10397000D00B002001ABFFF7A3FAB8F800301BB260
:10398000322B1FDDB8F80030BA4A1BB2B3F5967F70
:10399000CCBF4FF49673B8F80030B2F90000D8BF2E
:1039A0001BB2A3F13201C0F548724A43FA2192FBDF
:1039B000F1F2024401923268C3F59673534393FBCC
:1039C000F1F33360B8F800301BB2B3F5967FFFF621
:1039D000B7AE4FF4487301930023A74A33601360D6
:1039E000A64A1360A64A1370012389F80030A7E69F
:1039F0004FF448730193A14B1A6805321A601A6894
:103A0000B2F5FA7FFFF49CAE00221A609A4B1A605E
:103A10000223EAE70A229B4B41F2883001932B688C
:103A2000DFF8548203EBC30393FBF2F32B60964B56
:103A3000964A1B88B2F900101BB2C91A944A002397
:103A400081FB0001FCF78CFBD8F800A0914A5044A0
:103A5000C8F80000D8F80030002BD8F80030B8BF04
:103A60005B42934248DD0023844AC8F8003013606B
:103A70000323BAE78149BCF800000B680022053334
:103A80000B600B6800B2B3F57A7F834B12D21A60D9
:103A9000784BB3F900300193B0F5487344BF6FF42D
:103AA000477283189B105B4210F1CB0F33601EDA14
:103AB000FA2323E031280CDC18680530B0F5FA7FD2
:103AC00001D218603CE61A606B4B0A601A6004234E
:103AD0008BE71A60674BB3F900300193B0F5487378
:103AE00044BF6FF44773C3189B105B42336040F2CE
:103AF0000B7398427FF724AE6FF0F90333601FE633
:103B00004FF4AF7301935D4B1A6805321A601A685F
:103B1000B2F5FA6FFFF414AE00221A60564B1A6029
:103B2000052362E74FF4AF730A2201932B6841F239
:103B3000883003EBC30393FBF2F32B60524B534AE1
:103B40001B88B2F900101BB2C91A514A002381FB2D
:103B50000001FCF705FBDFF8208147F23051D8F86F
:103B600000A0474A5044C8F800004AF6C870D8F888
:103B70000030002BD8F8003092F800C0B8BF5B428C
:103B8000BCF1000F08BF01468B42B5DB00233B4967
:103B9000C8F800300B6013780133DBB21370137870
:103BA000012B7FF665AF06231FE7324BB1F5FA7F95
:103BB000B3F90030019306DAB0F5FA7F03DAB2F513
:103BC000FA7FFFF6BDAD0122344B1A7000230CE7DB
:103BD0000022C0E54FF0000ECCE500230B70304B07
:103BE000DCF80010B3F90090DFF8B8A0C9F1640B5D
:103BF00001FB09F96421DAF8003003FB0B9393FB16
:103C0000F1F31C49DFF8A090B1F90010CAF80030B8
:103C1000C91AD9F80030DFF894A00B445345B8BF57
:103C200053464CF2503A5345A8BF5346C9F80030AA
:103C3000DFF87C90B9F9009003FB09F342F21079A8
:103C400093FBF9F3DFF86C90B9F9009001FB09F1EF
:103C50004FF47A7991FBF9F10B4417498B42B8BFC5
:103C60000B4640F2DC518B42A8BF0B46A8F800304F
:103C700096E500BF36000020CC0B0020C80B0020CA
:103C8000C40B0020A2FEFFFFC20B0020A8120020E0
:103C9000B8FF01008F5F0100A40B0020D40B0020AF
:103CA00030000020F40B0020F00B0020B03CFFFFA0
:103CB000320000203400002024FAFFFF00216E4B68
:103CC000A8F8001019606D4B19606EE54FF00A08F6
:103CD000C90091FBF8F18CE5022B1CBF684B6948C9
:103CE0000AEB0C0807BF40F2023340F2EE201B88BB
:103CF0000088B8F1000FAAEB0C0658DDDFF888C188
:103D00004344BCF900809844002E5ADD83195F4873
:103D1000B0F900601E44002A00F0858000235C4E4C
:103D20002B600B60B04641F28830FFF709FB42F28E
:103D300028323B6803F58C531433934204D9002690
:103D4000B046544B2E601E60534B1A88534B92B2B0
:103D5000952A1B8870D8002632462E6059428A4226
:103D6000B8BF0A46B342A8BF334626788B42B8BFD5
:103D70000B464B484B492EB12678012E02D02678AF
:103D8000022E0AD12478012C5BD1474C2478022CD6
:103D900057D1464C2478042C53D100233D4A2B6044
:103DA00013601A465242028000220A804EE01FBF72
:103DB000DFF8D4C0A8EB0303BCF90080A3EB08082C
:103DC000A2E7A8D0331A3148B0F900609E1BA2E7E1
:103DD0002D4EDFF8B890B6F90060B9F9009000EB0D
:103DE0000A08B04403EB0A064E44BCF1000F92D01F
:103DF000B8F1000F10D1BCF1000F804606DA86B191
:103E0000A8EB0C08664486E70026F4E7C0F100083A
:103E1000002EF5D11E46F3E7002EF1D1BCF1000FC4
:103E2000F8DA5E42ECE7BEF1000F3FF47CAF40F6FB
:103E3000B8362A600A6075E798454246A8BF1A4618
:103E40008CE7002AAEDD0A8000220280002B9AB2A5
:103E50001749184BD5BF52421A800A800023D6BF9B
:103E600000220B801A8007B0BDE8F08FBCF1000F74
:103E7000CAD16646E0464EE7F40B0020F00B002066
:103E80003E0000203C000020FA0B0020F80B002030
:103E900048F4FFFFA41200209E12002044000020DE
:103EA000300E00202E0E0020D40B0020D10B00205D
:103EB000340E0020320E002080B5A74D9AB001F0DC
:103EC00001FAFFF7CDF91022002113A807F0F0F84E
:103ED000AB69002243F01003AB61AB694FF40051B2
:103EE00003F010030493049BAB699C4843F0200348
:103EF000AB61AB69002403F020030593059BAB691C
:103F0000012743F00403AB61AB69022603F004030D
:103F10000693069BAB6943F00803AB61AB6903F002
:103F200008030793079B01F0EFFF00224FF4007195
:103F30008B4801F0E9FF4FF40053884813A9CDE9FD
:103F40001337CDE9154601F097FE4FF4004384483E
:103F500013A9CDE91334159401F08EFE4FF40073CC
:103F60007F4813A9CDE91337CDE9154601F084FE4A
:103F70006B6922463B436B616B6921463B400B20DA
:103F80000393039B01F080FC0B2001F0ADFC224663
:103F900021460E2001F078FC0E2001F0A5FC2246FF
:103FA00021460F2001F070FC0F2001F09DFC6D4AAE
:103FB0006D4B082513604FF4807393604FF46023BA
:103FC0001046CDE91344159414731475D3615460ED
:103FD000156101F0C7FB08B172B6FEE70624CDE912
:103FE000130713A95F48159401F050FA08B172B68F
:103FF000FEE75C4813A9CDE9137601F047FA08B152
:1040000072B6FEE713960326564813A9149601F0DC
:104010003DFA08B172B6FEE713960426514813A97B
:10402000149601F033FA08B172B6FEE7139605262E
:104030004C4813A9149601F029FA08B172B6FEE7AC
:10404000484813A9CDE9136401F020FA08B172B60B
:10405000FEE713940724434813A9149401F016FAB9
:1040600008B172B6FEE73F4813A9CDE9134501F048
:104070000DFA044608B172B6FEE70EAE01461022F4
:10408000304607F015F81422214613A807F010F85F
:1040900047233648DFF8D8C00AAFC0E900C3F92388
:1040A0000A947C60C0E90334C0E90544846004F0EC
:1040B000F5FD08B172B6FEE74FF4805831462B4843
:1040C000CDF8388004F0D0FE08B172B6FEE7CDE935
:1040D000130013A9254804F0BEFF08B172B6FEE72D
:1040E000CDE90A003946214805F03AF8054608B1FD
:1040F00072B6FEE701461022304606F0D9FF1422C0
:10410000294613A806F0D4FF4FF047094FF080432B
:10411000184C0A95C4E9003941F2873320467D6086
:10412000C4E90335A560A56104F0B8FD08B172B615
:10413000FEE731462046CDF8388004F095FE08B100
:1041400072B6FEE7CDE9130013A9204604F083FF01
:1041500090B172B6FEE700BF0010024000100140AF
:10416000000C01404415002000240140DC13002015
:10417000002C014094130020CDE90A003946204666
:1041800004F0EEFF044608B172B6FEE701461022C5
:10419000384606F08DFF14222146304606F088FF8F
:1041A0001C22214613A85B4D0894099406F080FF59
:1041B000594B2846C5E9003942F20F730DF1200A28
:1041C000C5E90334AC60AC6104F068FD08B172B6B7
:1041D000FEE739462846CDF8288004F045FE08B1B0
:1041E00072B6FEE7284604F085FD08B172B6FEE718
:1041F000002331464748CDE90E3304F02CFF08B1C7
:1042000072B6FEE7CDE908005146424804F0A8FF27
:10421000024608B172B6FEE760231590CDE913306F
:10422000179013A93B4804F0BDFD08B172B6FEE734
:104230000422384813A904F0B5FD08B172B6FEE7B0
:104240000822344813A904F0ADFD08B172B6FEE7A8
:104250000C22304813A904F0A5FD044608B172B63B
:10426000FEE72C4800F0FCFD4FF4E1332B482C4DC9
:10427000C0E90244C0E900530C230461C0E90534DD
:10428000C46105F005F8044608B172B6FEE706F011
:1042900067FC24482449254BC0E90244C0E90013C7
:1042A0004FF48043C0E90644C0E90434046202F0DC
:1042B00009F8044608B172B6FEE71022014613A8B9
:1042C00006F0F6FE47231A4D1A4A0E94C5E900235C
:1042D00042F20F7328467460C5E90334AC60AC61E8
:1042E00004F0DCFC08B172B6FEE74FF480532846B8
:1042F00013A9139304F0B8FD08B172B6FEE70023CA
:1043000031460B48CDE90E3304F02AFF044698B13C
:1043100072B6FEE74C13002000040040BC120020DF
:1043200000380140AC14002000580040801A0600FC
:104330000413002000080040524806F09BFC52483D
:1043400004F0B6FB514804F0B3FB514804F0B0FB55
:1043500021464F4804F002FF04214D4804F0FEFEC0
:1043600008214B4804F0FAFE0C21494804F0F6FEFF
:104370004FF400510122474801F0C6FD464800F0C5
:10438000E9F9464800F0E0F9454800F0D7F900F0B7
:1043900077FB204600F068FB424800F0C7F842482F
:1043A00000F0CAF8414800F0CDF800F0E9F8404AC2
:1043B000404B10461360404B5360404B9360FCF7FA
:1043C000FDF93F48FCF71EFF3E48FCF715FF0122B0
:1043D0003D493E4805F06BF940F6B8323C4B3D494B
:1043E0001C703D4B3D481C703D4B1A8001223D4BDB
:1043F0001A70FCF7AFF83C4B3C4A3D493D4800F091
:104400000AFF3D4B3D4A3E483E4900F004FF3E4B0B
:104410003E4A1C703E4B3F481C803F4B1C803F4B2C
:104420001C803F4B1C80FEF7A7FBD2F8FC3043F00A
:104430008073C2F8FC303B4B5C601A6842F00102AA
:104440001A600190FEF70CFCFCF724FAFEF718FB4B
:10445000002227492748FDF75DFF01222949284806
:10446000FDF758FFFEF73AFAFEF798F9FFF7B0F8B4
:104470000198FEF789FB0198FEF78CFCFEF770FEB1
:10448000E0E700BF11120008DC13002094130020A5
:104490004C13002000100140B512002051120008FA
:1044A00079120008B4120020751200089512000855
:1044B000200E00203D120008B1120008E51200088D
:1044C000D1120008511300082C0E0020BC1200204D
:1044D000930D002062BE00083D0C00206BBE00085A
:1044E000500000203C0C00203C1100203C1000201B
:1044F00060120020541200203C0F00203C0E0020CF
:104500003C12002048120020360E002000ED00E092
:10451000340E0020160E0020300E0020320E002037
:104520002E0E0020001000E072B6FEE7014B18606E
:10453000704700BFA4150020014B1860704700BFF2
:10454000A0150020014B1860704700BF9C1500208B
:10455000044A10B414680B46A44601460122D02038
:1045600010BC6047A01500201346044A10B414681C
:10457000CAB2A446014610BCD02060479C1500205A
:1045800013B500240DF107006B218DF80740FFF7EC
:10459000DFFF04230DF1070019218DF80730FFF725
:1045A000D7FF02230DF107001A218DF80730FFF71E
:1045B000CFFF0DF107001C218DF80740FFF7C8FF62
:1045C0001B210DF10700FFF7C3FF02B010BD000073
:1045D0000122044B1A70044B1B680BB100221A70A5
:1045E000704700BF84000020A415002008B51A4BB6
:1045F00019681A4B08781A7818B9012A23D00020B4
:1046000008BD0020012A08701DD0022AF7D1012020
:104610001870134B13491A88D2BA0A605A88124983
:10462000D2BA0A609A881149D2BA0A601A89104926
:10463000D2BA0A605A890F49D2BA9B890A600E4AD7
:10464000DBBA1360DCE702220E211A7004483B2219
:10465000FFF78AFFD3E700BFA415002084000020E5
:104660007415002098150020941500209015002046
:104670008C150020881500208415002070B5DDE918
:10468000045410B10B4E3668068011B10A48006818
:10469000088012B109490968118013B1084A1268EB
:1046A0001A8015B1074B1B682B8014B1064B1B6891
:1046B000238070BD981500209415002090150020CF
:1046C0008C150020881500208415002013B5064B9A
:1046D0008DF807001C680122002378200DF10701E6
:1046E000A04702B010BD00BFB419002013B5064B9F
:1046F0008DF807001C680122002378200DF10701C6
:10470000A04702B010BD00BFB0190020044B10B488
:104710001C68CAB2A44601464023782010BC6047FA
:10472000B4190020044B10B41C68CAB2A446014658
:104730004023782010BC6047B0190020014B18605E
:10474000704700BFB0190020014B1860704700BFD0
:10475000B4190020014B1860704700BFB819002041
:1047600000284FF4806214BFFF210021014806F0A9
:104770009FBC00BFAE15002038B5B0240A4D2046BE
:10478000FFF7A4FF0020FFF7A1FF01341020FFF77F
:104790009DFFE4B228468021FFF7B8FFB82C05F151
:1047A0008005ECD138BD00BFAE15002038B51C4BDC
:1047B0001C4C1A682378117819B9012B0AD00020F3
:1047C00038BD0021013B1170032BF8D8DFE803F05E
:1047D000020B1015144B18785038C0B2FFF786FF43
:1047E00002232370EBE70020FFF780FF0323F8E7A5
:1047F0001020FFF77BFF0423F3E70B4D0B4B2878CA
:10480000802103EBC010FFF78DFF01202B78207073
:104810000133DBB2072B2B70D1D900232B70CFE7EC
:10482000B819002085000020AE190020AE15002028
:104830000022054B1A700122044B1A70044B1B68AE
:1048400003B11A70704700BFAE1900208500002028
:10485000B8190020030630B510D43F290ED8012422
:10486000CB08074D00EBC3102B5C01F0070104FAE5
:1048700001F1A2420CBF0B438B432B5430BD00BF50
:10488000AE1500202DE9F04F044689B008A800E9D4
:104890000E009DF84830A4F120050293EBB25E2B88
:1048A00047D8079B23B3234413F8206C224AB2F85D
:1048B000009009EB0603802B3BDC53889DF815B074
:1048C000019303EB0B02402A33DC029B4FF00008FC
:1048D000B3FA83FA0BFB05F54FEA5A1A6D00C3458C
:1048E00009D8154B4E441E80204609B0BDE8F08F14
:1048F0009DF81460DAE70027069A535B0493019B46
:1049000008EB0302D3B20393BE4203D808F10108B7
:104910000235E4E7049B07EB090003FA07F21304EE
:1049200054BF5246029A0399C0B2FFF793FF013772
:10493000EAE70024D8E700BFA815002070B586B0CC
:1049400003AC84E80E009DF82860451E15F8010FA1
:1049500040B1009694E80E00FFF794FF03462878D4
:104960008342F3D006B070BD014B18805980704768
:10497000A81500202DE9F74F9046A8EB0009A3EBFE
:10498000010AB9F1000F1E46B8BFC9F10009BAF11A
:10499000000FB8BFCAF1000A804594BF4FF0FF3343
:1049A000012305460C468E4294BF4FF0FF3B4FF06B
:1049B000010B404631469DF830200093A9EB0A07D1
:1049C000FFF748FFCAF10003454504D1B44202D1C4
:1049D00003B0BDE8F08F214628460193FFF73AFF68
:1049E000019B7900B3EB470FBFBF0098A7EB0A0705
:1049F0002D18EDB28945C2BF5C444F44E4B2E3E7F1
:104A00002DE9F0411446A042804628BFA046A042AE
:104A1000064638BF264699420C4628BF1C46994296
:104A200038BF19460F469DF81820BC4201D83F2CCC
:104A300001D9BDE8F081454607E02B0607D428469A
:104A40002146FFF707FF0135EDB2B542F5D9013434
:104A5000E4B2EAE710B504468120FFF737FE2046AE
:104A6000BDE81040FFF732BE034628B10123AF2056
:104A7000024A5371FFF72ABEAE20F9E7A8150020BD
:104A800008B5642000F042FC0020FFF7EDFF202075
:104A9000FFF71CFE0020FFF719FEB020FFF716FEFF
:104AA000C820FFF713FE0020FFF710FE1020FFF7CD
:104AB0000DFE4020FFF70AFEFF20FFF7CBFFA120ED
:104AC000FFF704FEA620FFF701FEA820FFF7FEFD7A
:104AD0003F20FFF7FBFDA420FFF7F8FDD320FFF7F1
:104AE000F5FD0020FFF7F2FDD520FFF7EFFDF020E8
:104AF000FFF7ECFDD920FFF7E9FD2220FFF7E6FDE7
:104B0000DA20FFF7E3FD1220FFF7E0FDDB20FFF7DF
:104B1000DDFD2020FFF7DAFD8D20FFF7D7FD142003
:104B2000FFF7D4FD0120FFF79FFF0020FFF718FEDD
:104B3000FFF722FE0022034B1A805A8001221A71CD
:104B400008BD00BFA81500200E4B82B09A6942F044
:104B500001029A619A6902F001020092009ADA69F0
:104B600042F08052DA61DB69074A03F08053019317
:104B7000019B536823F0E06343F08063536002B00D
:104B8000704700BF001002400000014030B50546EC
:104B900087B01022002102A806F08AFA2A68204B6A
:104BA0009A423BD103F56C439A691E4842F4007265
:104BB0009A619A6902A902F400720092009A9A69B5
:104BC000194C42F004029A619B69FF2203F004032E
:104BD0000193019B0323CDE9022301F04DF88020CE
:104BE0004FF480720023C4E903024FF480620F493E
:104BF0002046C4E90013C4E90523A360E36100F083
:104C0000A7FE08B1FFF790FC002212202C6211468B
:104C1000656200F039FE122000F066FE07B030BD7C
:104C20000024014000080140001500200800024057
:104C300030B5054687B01022002102A806F038FAE8
:104C40002A682E4B9A4256D12D4C4FF44061A369ED
:104C50002C4843F00803A361A36903F00803009301
:104C6000009B1223CDE90213032302A9059301F04F
:104C700003F8E369802243F48003E361E369224897
:104C800003F480030193019B0023204CC4E900033B
:104C90002046C4E90323C4E90533A360E36100F0BF
:104CA00057FE08B1FFF740FC1023194AAC63656258
:104CB000184CC4E90023002380222046C4E90232B4
:104CC000C4E90433C4E9063300F042FE08B1FFF73B
:104CD0002BFC0022212011466C63656200F0D4FD9C
:104CE000212000F001FE00222220114600F0CCFD20
:104CF000222000F0F9FD07B030BD00BF0058004091
:104D000000100240000C01405800024068140020CE
:104D100044000240241400200268114B10B59A424E
:104D200004461CD10F4A4FF48061D3690E4823F426
:104D30008003D36101F074F84FF400610A4801F078
:104D40006FF8A06B00F034FE606B00F031FE2120A4
:104D500000F0D8FDBDE81040222000F0D3BD10BD0A
:104D60000058004000100240000C01401FB50368CD
:104D7000374A93422CD1374B18209A6942F400628B
:104D80009A6100229B69114603F400630093009B23
:104D900000F07AFD182000F0A7FD0022192011462E
:104DA00000F072FD192000F09FFD00221A2011462C
:104DB00000F06AFD1A2000F097FD00221B2011462A
:104DC00000F062FD1B2005B05DF804EB00F08CBD27
:104DD000B3F1804F11D103F50433DA691C2042F09E
:104DE0000102DA610022DB69114603F0010301933D
:104DF000019B00F049FD1C20E5E7174A934210D1C2
:104E0000144B1D20DA6942F00202DA610022DB69EC
:104E1000114603F002030293029B00F035FD1D20B2
:104E2000D1E70E4A934210D10A4B1E20DA6942F0B4
:104E30000402DA610022DB69114603F004030393E4
:104E4000039B00F021FD1E20BDE705B000BD00BFA3
:104E5000002C014000100240000400400008004007
:104E600010B5044686B01022002102A806F020F9F1
:104E70002268114B9A421CD103F503339A690F48FB
:104E800042F008029A619B69332203F00803019300
:104E9000019B022302A9CDE90223059300F0ECFE59
:104EA000074A536823F4406343F0E06343F400632C
:104EB000536006B010BD00BF00040040000C01406C
:104EC0000000014010B5044686B01022002102A85F
:104ED00006F0EEF822681B4B9A4230D103F5584396
:104EE0009A69194842F480429A619A6902A902F4C7
:104EF00080420092009A9A69002442F004029A616A
:104F00009B694FF4007203F004030193019B022399
:104F1000CDE902230323059300F0AEFE4FF4806336
:104F2000094802A9CDE90234049400F0A5FE252029
:104F30002246214600F0A8FC252000F0D5FC06B052
:104F400010BD00BF0038014000080140FEE7FEE749
:104F5000FEE7FEE7FEE770477047704700F0C4B910
:104F6000014800F0F1BD00BF00150020014800F02D
:104F7000EBBD00BF24140020014800F0E5BD00BFD8
:104F800068140020014800F001BA00BF4415002059
:104F9000014802F037BC00BFB0280020FFF7F8BF7F
:104FA000014803F0B4BD00BFDC130020FFF7F8BFD9
:104FB000FFF7F6BFFFF7F4BF014803F0A8BD00BF3D
:104FC00094130020014803F0A2BD00BF4C13002041
:104FD000014803F09CBD00BF04130020014801F00C
:104FE00083BE00BFAC140020014802F0D7BA00BF56
:104FF000AC140020014804F0F7B900BFBC12002037
:105000000A4A0346106810B508B9094810600949F2
:10501000094C0344091B8B4206D906F07BF80C238C
:1050200003604FF0FF3010BD1360FCE7BC19002097
:10503000D02C0020005000200004000070470346E0
:10504000002030B5187258791C68451C5D715525D3
:10505000987125545879DC7901322040451C5D71E6
:105060004E251C68D2B225545879DC792040451C65
:105070005D7145251C6825545879DC792040451C14
:105080005D7152251C6825545879DC7920401C68D4
:10509000451C5D7122545879DC794A402040451CFA
:1050A0005D713A251C6825545879DC7920401C68CC
:1050B000451C5D7121545879DC79204058710720D6
:1050C0005872187A504080F03600187230BD03468E
:1050D00010B5427A013242725A790068541C5C71F0
:1050E00081545A79D87902405A711A7A81EA0200B9
:1050F000187210BD002337B58DF807309DF80730C2
:10510000CB5C13B9007A03B030BD437A9DF80740F9
:1051100001334372437902685D1C45710C5DD454C0
:105120004379C27913409DF807204371531CDBB2C9
:105130008DF807308B5C027A53400372DEE703463A
:1051400010B5C47980790144214018689971405C98
:1051500011440C409C7110BDF0B500240526457922
:105160000379AB4201D10020F0BD827A072A50D8E2
:10517000DFE802F0040F1C22282D4F3E0268D25CAB
:10518000552A01D101228272C27901331340037181
:10519000E6E70268D25C4E2A01D10222F3E7552AE3
:1051A000F2D000228272013BDBB2EDE70268D25CF2
:1051B000452A1BD10322E6E70268D25C522A15D1A8
:1051C0000422E0E70268D25C86724272DCE7026881
:1051D000D25C3A2A0AD10721C2798172591C0A404D
:1051E0008271427A82F036020272CDE78472DAE787
:1051F000427A0768013AD2B2017A42721AB1FA5C75
:1052000051400172C0E78272FA5C8A42BCD101202F
:10521000AAE78472B8E710B502604FF07F4400221D
:10522000446002818272C1E900340A818A7210BD31
:10523000FFF704FF0B480C490C4A002302E0D45846
:10524000C4500433C4188C42F9D3094A094C0023D2
:1052500001E013600432A242FBD305F061FFFEF7C8
:105260002BFE7047000000205C0200209CD7000845
:105270005C020020D02C0020FEE7000038B50E4B69
:1052800005461A784FF47A73B3FBF2F30B4A1068B1
:10529000B0FBF3F000F048FB044658B90F2D09D8D5
:1052A000024629464FF0FF3000F0EEFA2046044B4C
:1052B0001D6038BD0120FCE78C0000208800002024
:1052C00090000020074A08B51368032043F010033C
:1052D000136000F0C7FA0F20FFF7D0FFFFF734FC90
:1052E000002008BD00200240034A044B11681B78CF
:1052F0000B441360704700BFC01900208C000020D1
:10530000014B1868704700BFC019002038B504462B
:10531000FFF7F6FF0546631C1EBF044B1B78E4181D
:10532000FFF7EEFF431BA342FAD338BD8C000020E9
:10533000436A10B59A6A12F0500F1BD19A6A42F470
:1053400000729A621A68926802F46022B2F5602FC5
:105350000CD11A7B52B99A6A22F480729A629A6AC4
:10536000D2045EBF9A6A42F001029A621846FCF7C4
:105370005BF810BD1B6ABDE810401B6B18477047F7
:1053800008B5406AFFF7FBFF08BD7047036870B5BA
:105390001D685E680446B00626D5A90724D5A26A12
:1053A000D2065EBFA26A42F40072A2629A6802F458
:1053B0006022B2F5602F10D1227B72B95A6822F0B8
:1053C00020025A60A36A23F48073A362A36AD804FC
:1053D0005EBFA36A43F00103A3622046FCF724F8F2
:1053E0006FF0120223681A60310630D56A072ED595
:1053F000A36ADB065EBFA36A43F40053A36223687B
:105400009A6802F4E042B2F5E04F0AD05A685005BB
:1054100016D49A6802F46022B2F5602F10D1227B74
:1054200072B95A6822F080025A60A36A23F480534A
:10543000A362A36AD9055EBFA36A43F00103A36216
:10544000204600F00DFA6FF00C0223681A60720615
:105450000CD5EB070AD5A36A204643F48033A36238
:10546000FFF793FF6FF0010223681A6070BD704769
:10547000406A08B5836A43F040038362C36A43F01D
:105480000403C362FFF7F3FF08BD0000002373B5F8
:10549000019390F824300446012B6CD0012380F84E
:1054A00024304D680268062D086805EB850322D874
:1054B0001F26556B053B9E4025EA060500FA03F3BF
:1054C0002B43536309288B6800EB40054FF007011D
:1054D00029D9D6681E3DA94026EA0101AB400B43FD
:1054E000D360A0F11003012B25D90020002384F8FC
:1054F000243002B070BD0C2D4FF01F0509D8166B7B
:10550000233B9D4026EA050500FA03F32B43136372
:10551000D8E7D66A413B9D4026EA050500FA03F329
:105520002B43D362CEE71069A94020EA0101AB40CA
:105530000B431361D9E7114B9A4216D193681B02B2
:10554000D3D49368102843F400039360CDD10C4B5F
:105550000C4A1B68B3FBF2F30A2253430193019BED
:10556000002BC2D0019B013BF8E7A36A012043F066
:105570002003A362BAE70220BBE700BF002401407A
:105580008800002040420F00002337B501930368D4
:1055900004469A68D20702D5002003B030BD9A684D
:1055A00042F001029A60144B144A1B68B3FBF2F3F9
:1055B0000193019BE3B9FFF7A3FE054623689B68AF
:1055C000DB07E9D4FFF79CFE401B0228F6D92368CD
:1055D0009B6813F00103F1D1A26A012042F010028E
:1055E000A262E26A84F8243042F00102E262D4E767
:1055F000019B013BDCE700BF8800002040420F0018
:105600002DE9F0413F4B9046026804469A420F460E
:1056100002D03D498A4203D15B6813F4702F6DD1EB
:1056200094F82430012B6BD00123204684F82430D9
:10563000FFF7AAFF064600285DD1A56A2168324B14
:1056400025F4706525F0010545F480759942A56241
:1056500004D12C4A536813F4702F3ED1A36A23F46B
:105660008013A3624B685A0505D5A36A23F44053FF
:1056700043F48053A362A36A206A13F4805318BFD3
:10568000E36A3A4618BF23F00603E362002384F876
:1056900024301E4B4C3183621D4BC3621D4B036390
:1056A0006FF0020341F84C3C51F8443C43F48073E2
:1056B00041F8443C434600F0A5F923689A6802F497
:1056C0006022B2F5602F9A680CBF42F4A00242F447
:1056D00080129A603046BDE8F081A36A43F48013DB
:1056E000A36253685B0541BFA06A20F4405040F4B8
:1056F0008050A062BFE7002384F824300126E9E748
:105700000226E7E700240140002801403153000849
:10571000815300087154000838B5036804469A683C
:10572000D10701D4002038BD9A6822F001029A60A6
:10573000FFF7E6FD054623689B68DB07F2D5FFF718
:10574000DFFD401B0228F6D923689B68DA07F2D5F3
:10575000A36A012043F01003A362E36A43F001034C
:10576000E362E0E7F8B5044600286DD0836A23B908
:10577000C36280F82430FFF709FA2046FFF7CCFF18
:10578000A36A13F0100361D100285FD1A26A616897
:1057900022F4885222F0020242F00202E569A66871
:1057A000A262227B2943B6F5807F41EA420136D0CE
:1057B000771E7D427D412D02277D012F06D182BBC0
:1057C000A269013A45EA423242F400652268B6F520
:1057D000807F576827F4694745EA07055560976851
:1057E0001D4D05EA070545EA0105956001D0012E2A
:1057F00002D12369013B1B05D56A25F470052B43B3
:10580000D3629268154B1340994213D10023E3628F
:10581000A36A23F0030343F00103A362F8BD3546F6
:10582000CAE7A26A42F02002A262E26A42F00102E2
:10583000E262CBE7A36A23F0120343F01003A362F2
:10584000E36A43F00103E3620120E7E7A36A43F060
:105850001003A362F8E700BFFDF7E1FFFE0E1FFF94
:105860007047000007490302CA6803F4E06322F4AA
:10587000E0621204120C134343F0BF6343F400339D
:10588000CB60704700ED00E0154B30B5DC68C4F329
:105890000224C4F10703251D042B28BF0423062D71
:1058A0004FF0FF3594BF0024033C05FA03F321EACF
:1058B0000303A54022EA0502A340002843EA0203AD
:1058C000ACBF00F16040074A4FEA0313DBB2ABBF45
:1058D00000F5614000F00F0080F80033135430BD34
:1058E00000ED00E014ED00E0002807DB0123410992
:1058F000034A00F01F00834042F82130704700BF88
:1059000000E100E000280CDB01220649430900F019
:105910001F008240203341F82320BFF34F8FBFF395
:105920006F8F704700E100E00138B0F1807F0BD24B
:105930004FF0E023F021054A586182F8231000203F
:10594000072298611A6170470120704700ED00E05E
:10595000034610B530B301681420134A0A44B2FB61
:10596000F0F292001A64114ADA63022283F82120CD
:10597000D3E901242243DC68086822431C696FF3E1
:105980000D1022435C6922439C692243DC69224357
:1059900002430A6000200122986383F8200083F804
:1059A000212010BD0120FCE7F8FFFDBF00000240F0
:1059B00010B508B30168114A0B680A4423F00103CB
:1059C0000B6000230B604B608B60CB601421B2FB3B
:1059D000F1F201210A4C9200026401FA02F2C4635E
:1059E00062608363C0E90A33C0E90C3380F8213078
:1059F00080F82030184610BD0120FCE7F8FFFDBFFD
:105A000000000240F0B590F82040012C34D0012471
:105A100080F8204090F82140012CE5B24FF00004BE
:105A200028D1022680F8216084630468266826F065
:105A300001062660D0E90F67BD407560636043686A
:105A4000102BC36A0BBFA260A160E160E2604BB1A2
:105A5000236843F00E0300202360236843F0010312
:105A60002360F0BD236823F004032360236843F020
:105A70000A03F0E780F820400220F2E790F82120A6
:105A80000346022A06D0042282630120002283F802
:105A9000202070470268C06B116821F00E01116070
:105AA000116821F00101116001211A6C01FA02F262
:105AB0004260002083F82110E8E7000008B590F864
:105AC0002130022B03D004238363012008BD036827
:105AD0001A6822F00E021A601A6822F001021A6097
