:020000040800F2
:10000000005000206D4A0008894700088B4700080F
:100010008D4700088F470008914700080000000046
:1000200000000000000000000000000093470008EE
:10003000954700080000000097470008994700080E
:10004000B54A0008B54A0008B54A0008B54A000894
:10005000B54A0008B54A0008B54A0008B54A000884
:10006000B54A0008B54A0008B54A00089D4700088F
:10007000B54A0008B54A0008A9470008B547000876
:10008000B54A0008B54A0008C1470008CD47000836
:10009000D9470008B54A0008B54A0008B54A000823
:1000A000DD470008E9470008ED470008F147000870
:1000B000F5470008014800080D480008B54A000847
:1000C000B54A00081948000825480008B54A000844
:1000D000B54A000831480008B54A0008B54A00088A
:1000E000B54A0008B54A0008B54A000800000000FB
:1000F0000000000000000000000000000000000000
:0C01000000000000000000005FF808F1A3
:1001100010B5054C237833B9044B13B10448AFF341
:1001200000800123237010BD7C020020000000002D
:100130007CB2000808B5034B1BB103490348AFF379
:10014000008008BD00000000800200207CB2000892
:10015000034613F8012B002AFBD1181A0138704707
:100160007BB972B90029BEBF00204FF0004106E004
:1001700008BF00281CBF6FF000414FF0FF3000F0B7
:10018000B9B9ADF1080C6DE904CE002909DB002BEB
:100190001ADB00F035F8DDF804E0DDE9022304B0F5
:1001A0007047404261EB4101002B1BDB00F028F857
:1001B000DDF804E0DDE9022304B0404261EB4101D7
:1001C000524263EB43037047524263EB430300F038
:1001D00017F8DDF804E0DDE9022304B0404261EBEA
:1001E00041017047524263EB430300F009F8DDF828
:1001F00004E0DDE9022304B0524263EB430370479D
:100200002DE9F047089D0F4604468E46002B48D145
:100210008A42164661D9B2FA82F24AB1C2F120038B
:1002200001FA02FE20FA03F3964043EA0E0E9440D0
:100230004FEA164CBEFBFCF1B7B20CFB11EE01FB12
:1002400007F0230C43EA0E43984209D9F31801F151
:10025000FF3E80F0ED80984240F2EA80023933445C
:100260001B1AB3FBFCF00CFB103300FB07F7A4B226
:1002700044EA0344A74209D9341900F1FF3380F05E
:10028000D980A74240F2D6803444023840EA014087
:100290000021E41B1DB10023D440C5E90043BDE8A3
:1002A000F0878B4206D90DB1C5E90001002108464F
:1002B000BDE8F087B3FA83F1002947D1BB4202D3EE
:1002C000824200F20481841A67EB03020120964601
:1002D000002DE4D0C5E9004EE1E7002A00F090804F
:1002E000B2FA82F2002A40F0A780881B0121370C65
:1002F0001FFA86FEB0FBF7FC07FB1C00230C43EA49
:1003000000430EFB0CF0984207D9F3180CF1FF38AC
:1003100002D2984200F2E080C4461B1AB3FBF7F009
:1003200007FB10330EFB00FEA4B244EA0344A645CB
:1003300007D9341900F1FF3302D2A64500F2C98073
:100340001846A4EB0E0440EA0C40A3E7C1F12006D6
:100350008B4022FA06FC4CEA030C27FA06FA4FEA15
:100360001C49BAFBF9F88F4020FA06F309FB18AADA
:100370001FFA8CFE3B4300FA01F708FB0EF01C0C41
:1003800044EA0A44A04202FA01F20BD91CEB04042D
:1003900008F1FF3A80F09980A04240F29680A8F1DF
:1003A00002086444241A98B2B4FBF9F309FB13441D
:1003B00003FB0EFE40EA0444A64508D91CEB0404E6
:1003C00003F1FF307FD2A6457DD9023B644443EA66
:1003D0000840A4EB0E04A0FB028E74454346F14690
:1003E00061D35ED055B1FA1A64EB090404FA06F63B
:1003F00022FA01F31E43CC40C5E9006400214EE718
:1004000043084FEA510C43EAC1710A0C42EA0C421C
:100410008BB2C407B2FBF6F143EA0243BCFBF6FC25
:10042000B646304637461F22181A41EA0C4161E7AA
:10043000714615E7184629E7C2F1200321FA03F0B7
:10044000964024FA03F397403B43370CB0FBF7F890
:1004500007FB18001FFA86FE190C41EA004108FB51
:100460000EF0884204FA02F43AD9711808F1FF3C00
:1004700001D288421ED8091AB1FBF7F808FB0EF02A
:1004800007FB18119BB243EA014383422FD2F318B2
:1004900008F1FF31C8D28342C6D2A8F10201334429
:1004A000C2E747459ED2B8EB02036EEB0C0E013853
:1004B000F14697E7301A0144A8F1020CB1FBF7F8B6
:1004C00008FB0EF0DCE7034681E7D0466AE7084602
:1004D000FEE63444023834E7ACF1020C33441CE746
:1004E000091AC446B1FBF7F808FB0EF0C8E741460D
:1004F0009AE700BF704700BF00220A4930B50B8859
:10050000094D013810F8014F14B902B10B8030BD0C
:100510005A1C92B2B2F5806FEC5414BF13460023FC
:100520000122EFE7AA020020B2020020074A10B51C
:100530001188074C4B1C9BB2B3F5806F138008BF2A
:100540000023605408BF138010BD00BFAA02002022
:10055000B202002038B500240D460E4B01461C7037
:100560000D4B3F220D481C700AF0C8F90B4B1F229F
:1005700029460B4883F83F400AF0C0F93222084B65
:10058000DC77084B1A601422074B1A70074B1C705B
:1005900038BD00BF9C0B0020B60A0020430B002092
:1005A000230B0020980B00209D0B0020A8020020A8
:1005B000014B1878704700BFB50A0020194B70B581
:1005C0005B6806460D4614463BB347F23053164966
:1005D0001648002A08BF1C460AF0E6F90F223146E9
:1005E00013480AF08BF90023114A1249D3732846A5
:1005F0000A220AF001F90A2220460F490AF0FCF803
:100600000E4B1B7863B10E4B187810F0020003D02C
:10061000102206200B4B1A7070BD4FF0FF30FBE725
:100620000120F9E79C02002094B200080500002098
:10063000130B00200D0B0020F70A0020430B0020B5
:100640009C0B00209D0B0020064B5B683BB1064BCA
:100650001B7813F0400F0CBF0520072070474FF0A8
:10066000FF3070479C0200209C0B0020074A10B509
:100670001188074C4B1C9BB2B3F5806F138008BFE9
:100680000023605408BF138010BD00BFB0020020DB
:10069000B20600202DE9FF471F463D4B04465B682C
:1006A00088461546BDF83090002B6CD0394EDFF8E7
:1006B000E8A033789AF8001003F040020A4365D0AE
:1006C0001B0758D40A2201A938460AF095F801A858
:1006D000FFF73EFD421ED2B2032A4AD82F48FFF749
:1006E0000BFF9AF8003053B10A22694620460AF0FF
:1006F00083F86846FFF700FF2C20FFF717FF01A8DB
:10070000FFF7FAFE2648FFF7F7FE002211462548BC
:10071000DFF894C0038894B2A74216D801B10380D1
:100720003378224C23F00C0343F00C03337023681E
:100730003BB11F489847236801A8984723681D4884
:100740009847092004B0BDE8F0875C1CA4B2B4F55A
:10075000806F08BF0024691C18F8055089B20CF896
:1007600003500132494514BF0D460025234601219F
:10077000D1E70B20E6E70D4B1B680BB90820E1E73A
:100780000D489847FAE74FF0FF30DBE70520D9E73F
:100790009C0200209C0B0020B60A00200FB9000824
:1007A00098B20008AA020020B2020020840B0020A8
:1007B0009BB20008AFB40008AEB2000802460F4B6F
:1007C0000068516803C390680D4A186000231370D5
:1007D0000C4A13700C4A13800C4A13800C4A138085
:1007E0000C4A13800C4A13700C4A13700C4A137095
:1007F0000C4A13600C4A1360704700BF9C02002033
:100800009D0B0020B40A0020AC020020AA020020A8
:10081000AE020020B00200209C0B0020B60A00208F
:10082000B50A0020880B0020840B0020114A1368B1
:100830000BB1013B1360104A136823B1013B1360F5
:100840000BB90E4A13700E4A13680BB1013B1360CB
:100850000C4A13686BB1013B136053B90A490A781B
:10086000100706D563F3C302084B0A701A88084BB9
:100870001A807047980B0020940B0020B40A0020C7
:10088000900B00208C0B00209C0B0020AA02002063
:10089000AC0200202DE9F84FA54AA64EB2F800B0F0
:1008A000338800255B4506D0A34F3A78143A022AD4
:1008B00027D8A6F800B0A14EA14C3368002B40F019
:1008C0006D8264239C4D33602B78162B00F2668278
:1008D000DFE813F04404AD02C602CC02DA02E00203
:1008E000E902EF0202030D033E03480352038303B0
:1008F0008C039D03AC03FE033B04410459029802A0
:10090000A70202228F49904C0A609B45D3D08F4AA0
:10091000D05C22780D2A00F23182DFE812F00E005E
:100920005500CC002F022F02A501BA01C301D0014E
:100930002F02EB0108021A02F90100230421984654
:10094000DFF80CC2834ADFF810928CF80030117087
:100950005FFA83FE59F82E10D1B9B8F1000F01D01B
:100960008CF800E00022774B75491A600B7813F081
:10097000010F00F092803E2840F08F8062F3000368
:100980000B70764B1A604FF49672754B1A6084E0C8
:1009900091F804A00133824513D1B8F1000F01D0C2
:1009A0008CF800E00B784978303B313903EB830356
:1009B00001EB43036B490B80012323700523137064
:1009C0006BE04FF00108C3E7DFF884C162499CF88F
:1009D000002051F822205F49097812F801E086458D
:1009E00014D1DFF880C1BCF80030013B9BB2ACF8F9
:1009F00000300BB10D284DD19378D278303B03EB0A
:100A00008303303A02EB4303237046E00022914611
:100A1000C1F57F4A8CF800200AF1D30ADFF838C10B
:100A20005FFA82F85CF828C0BCF1000F0CD1B9F174
:100A3000000F04D04B4A1580454A82F800800022FE
:100A4000013B2270338028E09CF800E09CF80150C4
:100A5000AEF1300E0EEB8E0E554405EB4E05ADB2E9
:100A60007F2D24D81CF801E0864520D13D4B1D8008
:100A7000B9F1000F02D0364B83F8008055B99CF8CD
:100A800002309CF80320303B03EB8303303A02EB47
:100A9000430323702F4B01311970338801339BB20C
:100AA000B3F5806F338004BF002333802DE74FF010
:100AB00001090132B2E70A28EFD100232370244B49
:100AC0001B78023B0F2BE8D801A252F823F000BF9D
:100AD000110B0008690B0008850B00089B0A000831
:100AE000AF0B0008AF0B0008DD0B0008E70B000898
:100AF000050C0008DD0B00089B0A00082F0C0008FD
:100B00009B0A0008390C0008450C0008450C000839
:100B10003A78082AC1D84FF4AA73D340DB07BCD572
:100B20000022064B1A60064A137843F0200346E77A
:100B3000B0020020AE0200209D0B0020980B002088
:100B40009C0B0020940B0020B40A0020B206002069
:100B5000990200209802002090B70008900B002016
:100B60008C0B0020B20A0020944A1378180794D501
:100B700023F009031370924B1A88924B1A80924B00
:100B8000002203E73B780D2B87D100228F4B1A60A0
:100B90008A4A137823F0220343F0220313708C4B0C
:100BA0001B68002B3FF479AF0320984775E7834A11
:100BB000137823F0420313703B780E3B052B3FF66E
:100BC0006CAF834B1B680BB100209847814B1B789F
:100BD000002B7FF462AF16233B705EE7774A1378F1
:100BE00023F04003EBE6754A137823F008031370F3
:100BF0000022754B1A60764B1B68002B3FF44DAFFB
:100C00000A20D2E7734B1B78002B7FF446AF6F4A64
:100C100013606A4A137823F0600343F06003137093
:100C20006B4B1B68002B3FF438AF0720BDE7634ACE
:100C3000137823F04203C2E6604A137823F042039C
:100C40001370C8E75D4A1378190706D523F0090326
:100C500013705B4B1A885B4B1A803B78013B0D2B62
:100C60003FF61BAF594B8BE75B4A2C28126807D124
:100C700006232370002A3FF410AF584890470CE732
:100C80000021013B21703380002A3FF406AF544815
:100C9000F4E722287FF401AF072300222370514B91
:100CA0001A80FAE6222803D04E4A1388102B01D16D
:100CB0000823A9E6591C11804B4AD054EDE60A28B6
:100CC0007FF4EBAE0023474A23701188464A0F2970
:100CD0009BBF5354394913700A789FBF42F02002DA
:100CE0000A703A4A13603A4B1B68002B3FF4D5AEAA
:100CF00004205AE72C287FF4A2AE364B1B782BB188
:100D00000D2300222370394B1A70C6E60B23C4E76B
:100D10002C28FBD0A0F13002092A3FF690AE334ACE
:100D2000137803EB830300EB4303303B47E63A2899
:100D300001D10C2368E6A0F13002092A3FF67FAE0C
:100D4000284A138803EB830300EB4303303B1380F3
:100D5000A3E6274B9B6803B19847224A1388013BBF
:100D60009BB21380002B7FF498AE23701A4B1B6844
:100D7000002B3FF492AE1F4898478EE600231E4A90
:100D80002370136089E61A4B00201B689847124BAA
:100D90001B680BB11948984715232B702378DA0785
:100DA00040F1E581164A126832B9054A23F0090379
:100DB0001188044A23701180BDE8F88F9C0B002035
:100DC000AA020020AC0200208C0B0020980B00200F
:100DD000880B0020B60A0020840B0020C6B2000851
:100DE000DBB20008B20A0020FD0A0020B50A00208C
:100DF0009C020020EFB20008940B002002B3000810
:100E0000900B0020914B01201B689847904B1B686A
:100E10000BB19048984716232B704FF4FA73336048
:100E2000BCE7012300222B708B4B1A70B6E78A4A6D
:100E300013782BB1013BDBB213701BB91423ACE761
:100E4000042313702378854823F020032370FFF7D1
:100E500053FB7F4B1B680BB18148984702239CE7EB
:100E600023789E0640F17581032396E77D48FFF7BE
:100E700043FB774B1B680BB17B489847237823F0E3
:100E800020032370042388E72378980640F16181CA
:100E9000052382E77548FFF72FFB237823F0200313
:100EA0002370062379E72378990640F152810723BE
:100EB00073E76F4B1B786BB16E48FFF71DFB644BFC
:100EC0001B680BB16C489847237823F020032370EC
:100ED000082362E76948F0E723789A0640F13981F0
:100EE000634B1B78002B0CBF0C23092355E7644888
:100EF000FFF702FB2220FFF719FB6248FFF7FCFA1D
:100F00002220FFF713FB2C20FFF710FB2220FFF716
:100F10000DFB5D48FFF7F0FA2220FFF707FB2C20BE
:100F2000FFF704FB5948FFF7E7FA2C20FFF7FEFA1A
:100F30005748FFF7E1FA0D20FFF7F8FA0A20FFF70C
:100F4000F5FA434B1B680BB1524898470A2324E734
:100F50005148FFF7D1FA3E4B1B680BB14F489847F9
:100F60000B231AE74E48FFF7C7FA394B1B680BB142
:100F70004C489847132310E74B4F3B78002B3FF426
:100F80000DAF4A48FFF7B8FA2220FFF7CFFA3846EC
:100F9000FFF7B2FA2220FFF7C9FA2C20FFF7C6FAB2
:100FA0002220FFF7C3FA4248FFF7A6FA2220FFF7F4
:100FB000BDFA0D20FFF7BAFA0A20FFF7B7FA244B63
:100FC0001B680BB13B489847237823F0200323701C
:100FD0000D232B7040F2DC5321E723789B0640F170
:100FE000B8800E2304222B701B4B1EE70022324BCD
:100FF00032481A70FFF780FA154B1B680BB1304866
:101000009847237823F0200323700F23C5E6237825
:101010009F0601D51023C0E60F4A1378013BDBB2CF
:101020001370002B00F095800E23B6E6254B1B783D
:10103000002B3FF4B3AE2448FFF75EFA044B1B6865
:101040000BB1224898471123A7E600BF9C0200205D
:10105000840B002018B30008A802002059B900082A
:101060002EB300084BB900083CB3000850B3000889
:10107000B60A002062B300087EB3000870B300080F
:1010800001B90008D70A0020B70A0020020000209A
:101090000000002092B30008EDB80008A5B30008D6
:1010A000D9B80008B9B30008430B002041B90008C3
:1010B000230B0020D0B30008FD0A002036B9000839
:1010C000E3B30008130B00201BB90008F4B30008B9
:1010D0003C48FFF711FA2220FFF728FA3A48FFF7B9
:1010E0000BFA2220FFF722FA2C20FFF71FFA22200A
:1010F000FFF71CFA3548FFF7FFF92220FFF716FA31
:101100002C20FFF713FA3248FFF7F6F92C20FFF7EF
:101110000DFA3048FFF7F0F92C20FFF707FA3020DE
:10112000FFF704FA0D20FFF701FA0A20FFF7FEF996
:10113000294B1B680BB129489847237823F060039B
:10114000237012232B70C82369E623789E063FF58F
:1011500011AF012321E6224B1B780BB100235EE681
:1011600023789807F5D559067FF554AFF6E71D4D5E
:101170001D492A88098891423FF41EAE1B4E5F0725
:10118000B05C02D53E2808BF0A20194B5B6898471F
:1011900000283FF411AE22782B8851070AD5F15C64
:1011A0003E2907D1322122F0050242F001022270CD
:1011B000104A116001339BB2B3F5806F08BF002362
:1011C0002B80F9E529B9000805000020130B002049
:1011D0000D0B0020F70A0020840B00200AB4000841
:1011E000B60A0020AC020020AA020020B2020020B1
:1011F0009C020020900B0020014B1860704700BF3C
:10120000880B0020014B1860704700BF840B002042
:101210000022F0B5084BD4B2A14202F1010200D87D
:10122000F0BD5D791E686F1C5F71045D74555C795B
:10123000DD792C405C71EEE770120020021E18BFB1
:1012400001224FF40071014804F07CBA000C014007
:101250001FB514461A464FF0FF330091CDE9014304
:1012600001460123024804F00DFD04B010BD00BF8B
:10127000A0140020FFF7ECBF13B514461A46CDE9C1
:10128000001401230146024804F08CFD02B010BD99
:10129000A014002013B514461A46CDE9001401230A
:1012A0000146024804F044FE02B010BDA014002024
:1012B00007B501228DF807000DF10701034807F07B
:1012C00034FCB0FA80F0400903B000BDB012002039
:1012D00010B50446FEF73CFF81B22046BDE8104041
:1012E00009F0D0B810B5164B1B78F3B115490C783E
:1012F000FF2C15D07E2C144B13D818550020621CDF
:10130000D2B2012A0A7098540AD0134413F8022C5E
:101310000D2A05D113F8013C0A2B01D1FF230B70D4
:1013200010BD00220A701A70FAE7084B5A79196842
:10133000541C5C7188545A79D9790A405A71EFE784
:10134000870D0020880D0020890D002058120020F4
:10135000032810B5184C15D10C21184B18481A78D1
:10136000184B01FB02330F22996809F0C7FA0023DA
:10137000134A2370D3730122134B1A700522134BA7
:101380001A7010BD124B22781B7813431843C0B259
:101390000028F6D1012340F6B8320C2123700D4B02
:1013A000BDE810401A80054B064A1B784B43D11804
:1013B0004968D058FFF7CEB8300C0020310C00201F
:1013C0006000002040CE0008320C00207000002099
:1013D000870D00205C000020054B064A03F1100138
:1013E00053F8040B8B4242F8040BF9D1704700BF4D
:1013F00098120020881200200122014B1A707047B9
:10140000510E00200122014B1A707047500E00202F
:1014100038B502681A4B04469A4212D1194A1A4941
:1014200013781A480133DBB2282B01BF0023137055
:10143000174A137808BF43F080031370082203F0A3
:10144000FDFC2368B3F1804F18D1012211491248E5
:101450000B78124CE2541344027803F00F03013A64
:1014600012F0FF0208BF05250B7003BFE2540133E1
:1014700003F00F03027004BF05700B7038BD00BF8E
:10148000002C0140A81200209812002038150020DE
:10149000520E0020320E002071000020330E00207A
:1014A000F0B5026883790C46D15C0546A1F1A00332
:1014B00091B0512B00F2E986DFE813F052005C0096
:1014C0006C00B80007013201AB01C8015301710182
:1014D0008E010A0250046D048A04A704C404E104C6
:1014E0002902FE041B053805550573059105D8052D
:1014F000E706E706E706E706E706E706F60546021B
:1015000063021406320651066F068D06AB06C90645
:10151000E706E706E706E706E706E706E706E70663
:10152000E706E706E706E706E706E706E706E70653
:10153000E706E706E706E706E706E706E706E70643
:10154000E706E706E706E706E706E706E706E70633
:10155000E706E706E706E706E706E7068A021C0451
:10156000A0210222204603F088F90D21204603F035
:10157000CCF908E0A1210D22204603F07EF9204697
:10158000C14903F0D5F92046217A11B0BDE8F040F9
:1015900003F0BBB90D22A221204603F06EF9BB4B2C
:1015A000BB4DB3F9001020462980C9B203F0ADF954
:1015B0006978204603F0A9F9B64B2046B3F900102C
:1015C0002980C9B203F0A1F96978204603F09DF99A
:1015D000B14B2046B3F900102980C9B203F095F948
:1015E0006978204603F091F9AC4B2046B3F900101E
:1015F0002980C9B203F089F96978204603F085F99A
:10160000A74B2046B3F900102980C9B203F07DF939
:101610006978204603F079F9A24BB3F900102980CC
:101620002046C9B203F071F969789FE79E4E1122F6
:10163000A321204603F021F9954D318820462980C9
:10164000C9B203F062F96978204603F05EF9718847
:1016500020462980C9B203F058F96978204603F082
:1016600054F9B18820462980C9B203F04EF969784F
:10167000204603F04AF9F18820462980C9B203F0D8
:1016800044F96978204603F040F9318920462980E1
:10169000C9B203F03AF96978204603F036F9718946
:1016A00020462980C9B203F030F96978204603F05A
:1016B0002CF9B18920462980C9B203F026F969784E
:1016C000204603F022F9F189A9E70222A42120464D
:1016D00003F0D3F80D21204603F017F9217A2046B4
:1016E00003F013F900220121284603F046F9684C63
:1016F000002201212070284603F03FF96070B4F900
:1017000000202388002A6949694AB5BF5B421380DB
:101710000B800023B6BF00230B80138011B0F0BDF7
:101720000222A521204603F0A8F80D21204603F04F
:10173000ECF8217A204603F0E8F80022012128463F
:1017400003F01BF9524C002201212070284603F0BF
:1017500014F96070B4F900202388002A5549564ACC
:10176000D3E70222A821204603F087F80D21204666
:1017700003F0CBF8217A204603F0C7F800220121BC
:10178000284603F0FAF8424C002220700121284636
:1017900003F0F3F860702288484B1A80BEE70222FB
:1017A000A921204603F069F80D21204603F0ADF889
:1017B000217A204603F0A9F800220121284603F0EF
:1017C000DCF8334C002220700121284603F0D5F8C4
:1017D000607022883A4BE0E70222AA21204603F0FB
:1017E0004CF80D21204603F090F8217A204603F0B2
:1017F0008CF800220121284603F0BFF8244C002277
:1018000020700121284603F0B8F8607022882D4B23
:10181000C3E70222A621204603F02FF80D2120461F
:1018200003F073F8217A204603F06FF800220121BB
:10183000284603F0A2F8164C002220700121284609
:1018400003F09BF8607022881F4BA6E70222A721B5
:10185000204603F012F80D21204603F056F8217AB5
:10186000204603F052F800220121284603F085F8B3
:10187000074C002220700121284603F07EF860709A
:101880002288124B89E700BF70CE00084E0E002060
:10189000540E00204C0E00204A0E0020480E00205E
:1018A000460E0020440E0020881200202C0E00203E
:1018B0002A0E0020300E00202E0E002054000020A2
:1018C00052000020000C00204C0000204E000020A0
:1018D0000222AB21204602F0D0FF0D21204603F06A
:1018E00014F8217A204603F010F80022012128463E
:1018F00003F043F8314C002220700121284603F008
:101900003CF86070B4F900202D4B1A6006E7022203
:10191000B221204602F0B1FF0D21204602F0F5FF72
:10192000217A204602F0F1FF00220121284603F02F
:1019300024F8224C002220700121284603F01DF8D3
:10194000607022881F4B28E70222C121204602F046
:1019500094FF0D21204602F0D8FF217A204602F0A4
:10196000D4FF00220121284603F007F8134C00227F
:1019700020700121284603F000F860702288124B85
:101980000BE70222C221204602F077FF0D212046FC
:1019900002F0BBFF217A204602F0B7FF00220121AE
:1019A000284602F0EAFF054C00222070012128465B
:1019B00002F0E3FF60702288044BEEE6540E002034
:1019C00044000020380000201400002012000020F5
:1019D00000254F22F021204602F04FFFA24B03AF1B
:1019E0001B88ADF80C30A14B1B88ADF80E30A04B16
:1019F0001B88ADF810309F4B1B88ADF812309E4B02
:101A00001B88ADF8143037F9026B2046F1B202F0B2
:101A10007CFF01352046C6F3072102F076FF052D35
:101A2000F1D1964D2046297802F06FFF6978204663
:101A300002F06BFFA978204602F067FFE9780025E5
:101A4000204602F062FF8E4B09AF1B88ADF82430B0
:101A50008C4B1B88ADF826308B4B1B88ADF828309B
:101A60008A4B1B88ADF82A30894B1B88ADF82C3087
:101A7000884B1B88ADF82E30874B1B88ADF8303073
:101A800037F9026B2046F1B202F03FFF01352046E4
:101A9000C6F3072102F039FF072DF1D100257F4B56
:101AA00006AF1B88ADF818307D4B1B88ADF81A3097
:101AB0007C4B1B88ADF81C307B4B1B88ADF81E306F
:101AC0007A4B1B88ADF82030794B1B88ADF822305B
:101AD00037F8026B2046F1B202F017FF01352046BD
:101AE000310A02F012FF062DF2D10025714B01AF31
:101AF0001B88ADF80430704B1B88ADF806306F4B77
:101B00001B88ADF808306E4B1B88ADF80A3037F8EB
:101B1000026B2046F1B202F0F8FE01352046310A90
:101B200002F0F3FE042DF2D1664B20461E68664B90
:101B3000F1B2B3F9005002F0E8FEC6F307212046E7
:101B400002F0E3FEE9B2204602F0DFFEC5F3072112
:101B5000204602F0DAFE5D4B5D4AB3F90060B2F94F
:101B600000501978204602F0D0FEC6F30721204627
:101B700002F0CBFEE9B2204602F0C7FEC5F3072112
:101B8000544D204602F0C1FE2978204602F0BDFEE9
:101B90006978204602F0B9FEA978204602F0B5FE29
:101BA000E978204602F0B1FE4B4B4C4AB3F9006095
:101BB000B2F900501978204602F0A7FEC6F30721BB
:101BC000204602F0A2FEE9B2204602F09EFEC5F3D6
:101BD0000721434D204602F098FE2978204602F066
:101BE00094FE69783F4D204602F08FFEA97820468A
:101BF00002F08BFE69882046090A02F086FEA97968
:101C0000204602F082FEE9882046090A02F07DFEA5
:101C1000A97A204602F079FE6989334D090A2046E7
:101C200002F073FE29882046C9B202F06EFE2988B0
:101C30002E4DC1F30721204602F067FE2988204679
:101C4000C9B202F062FE2988294DC1F3072120465E
:101C500002F05BFE29882046C9B202F056FE2988B0
:101C6000C1F3072182E400BF54000020000C0020D3
:101C7000520000204C0000204E00002044000020B4
:101C8000400000203E000020FE0B0020FC0B002046
:101C90003C0000203A0000203800002020000020F6
:101CA0001A0000201C000020180000201E00002048
:101CB000160000204A0000204800002014000020E8
:101CC00012000020340000203200002030000020EC
:101CD0002E000020240C00202C0000202A000020D0
:101CE0002800002088120020AE120020AC12002034
:101CF000AA12002000261D22F121204602F0BDFD7F
:101D0000C64B09AF1B680993C54B1B680A93C54BAB
:101D10001B680B93C44B1B680C93C44B1B680D933F
:101D2000C34B1B680E93C34B1B680F9357F8045BA0
:101D30002046E9B202F0E9FDC5F30721204602F092
:101D4000E4FDC5F30741204602F0DFFD01362046E1
:101D5000290E02F0DAFD072EE8D114E40222AC21AC
:101D6000204602F08AFD0D21204602F0CEFD217AA8
:101D7000204602F0CAFD00220121284602F0FDFDA6
:101D8000AD4C002220700121284602F0F6FD607063
:101D90002288AA4B01E50222AD21204602F06DFD0A
:101DA0000D21204602F0B1FD217A204602F0ADFD62
:101DB00000220121284602F0E0FD9F4C0022207005
:101DC0000121284602F0D9FD607022889C4BE4E492
:101DD0000222AE21204602F050FD0D21204602F0E5
:101DE00094FD217A204602F090FD00220121284630
:101DF00002F0C3FD904C002220700121284602F021
:101E0000BCFD607022888F4BC7E40222AF212046C0
:101E100002F033FD0D21204602F077FD217A2046A5
:101E200002F073FD00220121284602F0A6FD824C3B
:101E3000002220700121284602F09FFD6070228858
:101E4000814BAAE40222B021204602F016FD0D21AA
:101E5000204602F05AFD217A204602F056FD00226B
:101E60000121284602F089FD734C002220700121D7
:101E7000284602F082FD60702288744B8DE40222B5
:101E8000B121204602F0F9FC0D21204602F03DFD73
:101E9000217A204602F039FD00220121284602F075
:101EA0006CFD654C002220700121284602F065FD82
:101EB00060702288664B70E40222B321204602F053
:101EC000DCFC0D21204602F020FD217A204602F0A4
:101ED0001CFD00220121284602F04FFD564C002235
:101EE00020700121284602F048FD60702288594B7D
:101EF00053E40222B421204602F0BFFC0D2120460B
:101F000002F003FD217A204602F0FFFC00220121AD
:101F1000284602F032FD484C00222070012128465C
:101F200002F02BFD607022884B4B36E40222B52173
:101F3000204602F0A2FC0D21204602F0E6FC217AA8
:101F4000204602F0E2FC00220121284602F015FDA5
:101F5000394C002220700121284602F00EFD6070ED
:101F600022883E4B19E40222B621204602F085FC6D
:101F70000D21204602F0C9FC217A204602F0C5FC62
:101F800000220121284602F0F8FC2B4C0022207090
:101F90000121284602F0F1FC60702288304BFFF7E7
:101FA000FCBB0222B721204602F067FC0D2120462F
:101FB00002F0ABFC217A204602F0A7FC00220121AE
:101FC000284602F0DAFC1C4C002220700121284631
:101FD00002F0D3FC60702288224BFFF7DEBB0222A6
:101FE000B821204602F049FC0D21204602F08DFC6C
:101FF000217A204602F089FC00220121284602F0C5
:10200000BCFC0D4C002220700121284602F0B5FCDA
:1020100060702288144BFFF7C0BB00BF200C00206B
:10202000140C0020180C0020100C00200C0C0020B8
:10203000E40B002058000020540E00204000002037
:102040003E000020FE0B0020FC0B00203C00002086
:102050003A000020200000201A0000201C00002070
:10206000180000201E000020160000200222B921C6
:10207000204602F002FC0D21204602F046FC217AA7
:10208000204602F042FC00220121284602F075FCA5
:10209000814C002220700121284602F06EFC607005
:1020A00022887E4BFFF779BB0222C021204602F036
:1020B000E4FB0D21204602F028FC217A204602F0A4
:1020C00024FC00220121284602F057FC724C002219
:1020D00020700121284602F050FC60702288704B6D
:1020E000FFF75BBB0222C321204602F0C6FB0D2195
:1020F000204602F00AFC217A204602F006FC00226B
:102100000121284602F039FC634C00222070012195
:10211000284602F032FC60702288624BFFF73DBB1C
:102120000222C421204602F0A8FB0D21204602F025
:10213000ECFB217A204602F0E8FB00220121284630
:1021400002F01BFC544C002220700121284602F0B2
:1021500014FC6070B4F90020534BFFF7D6BB022289
:10216000C521204602F089FB0D21204602F0CDFB5F
:10217000217A204602F0C9FB00220121284602F004
:10218000FCFB454C002220700121284602F0F5FBA3
:1021900060702288454BFFF700BB0222C621204613
:1021A00002F06BFB0D21204602F0AFFB217A2046A6
:1021B00002F0ABFB00220121284602F0DEFB364C88
:1021C000002220700121284602F0D7FB607022888F
:1021D000374BFFF7E2BA0222C721204602F04DFB3F
:1021E0000D21204602F091FB217A204602F08DFB62
:1021F00000220121284602F0C0FB274C002220705B
:102200000121284602F0B9FB60702288294BFFF7B4
:10221000C4BA0222C821204602F02FFB0D2120461D
:1022200002F073FB217A204602F06FFB00220121AD
:10223000284602F0A2FB184C0022207001212846FB
:1022400002F09BFB607022881B4BFFF7A6BA0222AC
:10225000C921204602F011FB0D21204602F055FB5A
:10226000217A204602F051FB00220121284602F08B
:1022700084FB094C002220700121284602F07DFBDE
:10228000607022880D4BFFF788BA0222204602F0C8
:10229000F4FAFF21FFF76AB9540E00204A0000202B
:1022A00048000020320000203400002030000020D0
:1022B0002E0000202C0000202A00002028000020F2
:1022C000F0B516464379027905469A420C46C3B0EA
:1022D0001DD002F05FFBD0B1012E04BF0022154BD0
:1022E0002146284608BF1A70FFF7DAF80022617A03
:1022F00002A8D3B299420CD8C6B1FEF759F94FF4EF
:10230000807300930022637A02A9FEF7C3F943B0F9
:10231000F0BDA77925687B1CDBB2A371ED5D0132AE
:1023200000F8015BE5792B40A371E2E702A808F011
:10233000A9F8ECE77000002010B50C4B0C4C1A7893
:102340000C4B0D4853F822100122237802FA03F3B4
:102350008B4308BF1A464FF4005103F0F3F923787A
:10236000013303F01F03237010BD00BF290E0020AE
:10237000D20B00207400002000100140F0B58C4BFF
:102380008C4C1B788BB003F0FF05002B40F02A81AA
:10239000012001F015FE4023202229461E20009531
:1023A00001F04CFF1623802214212846009501F0ED
:1023B00045FF4023522229465020009501F03EFF60
:1023C0007D4E2946282001F0EDFE7C4902A808F048
:1023D000EBFA96E80E00009502A801F0CDFE294622
:1023E000552001F0DFFE764902A808F0DDFA96E8F4
:1023F0000E00009502A801F0BFFE1921282001F06F
:10240000D1FE704B2021B3F900306F4A02A808F0CA
:1024100037FA94E80E00009502A801F0ADFE1921EC
:10242000552001F0BFFE694B2021B3F90030664A08
:1024300002A808F025FA94E80E00009502A801F021
:102440009BFE2521282001F0ADFE614B2021B3F930
:1024500000305D4A02A808F013FA94E80E000095D7
:1024600002A801F089FE2521552001F09BFE594B61
:102470002021B3F90030544A02A808F001FA94E888
:102480000E00009502A801F077FE3121282001F00E
:1024900089FE514B2021B3F900304B4A02A808F0C5
:1024A000EFF994E80E00009502A81E2601F064FEE4
:1024B0003121552001F076FE484B2021B3F9003040
:1024C000414A02A808F0DCF994E80E0040F6FA74DC
:1024D000434F009502A801F04FFE3B88032273434F
:1024E000B3FBF4F3C3F13C0310463C21DBB200958F
:1024F00001F05EFE7B8806227343B3FBF4F3C3F165
:102500003C0310463C21DBB2009501F051FEBB8834
:1025100009227343B3FBF4F3C3F13C0310463C219F
:10252000DBB2009501F044FEFB880C227343B3FB41
:10253000F4F3C3F13C0310463C21DBB2009501F0FB
:1025400037FE3B890F227343B3FBF4F3C3F13C0323
:1025500010463C21DBB2009501F02AFE7B89122255
:102560007343B3FBF4F3C3F13C0310463C21DBB2ED
:10257000009501F01DFEBB8915227343B3FBF4F3F4
:10258000C3F13C0310463C21DBB2009501F010FE84
:102590001822FB893C217343B3FBF4F31046C3F1CB
:1025A0003C030095DBB201F003FE0BB0F0BD00BFB1
:1025B000280E00206CB9000860B9000820B400089B
:1025C00024B400084E0E002028B40008480E002055
:1025D0004C0E0020460E00204A0E0020440E002023
:1025E00088120020002001F0EBFC022101250846A2
:1025F00001F0D8FD94E80E004548009501F0BCFDBF
:102600000221242001F0CEFD424B20211B68424ACA
:1026100002A808F035F994E80E00009502A801F030
:10262000ABFD1121022001F0BDFD94E80E003B48F6
:10263000009501F0A1FD1121242001F0B3FD052238
:10264000374B20211B6802A803EB430393FBF2F3F3
:10265000344A08F015F994E80E00009502A801F03C
:102660008BFD2021022001F09DFD94E80E002E48F4
:10267000009501F081FD2021242001F093FD6421CB
:102680002A4B02A81A6892FBF1F301FB1322002ADD
:10269000B8BF524220210092254A08F0F1F894E890
:1026A0000E00009502A801F067FD2F21022001F025
:1026B00079FD94E80E001F48009501F05DFD2F2183
:1026C000242001F06FFD1C4B1B78AB4211BF94E836
:1026D0000E000093194894E80E001CBF184800959E
:1026E00001F04AFD01240E237F22194600200094A8
:1026F00001F05EFD1D237F2219460020009401F0A9
:1027000057FD2C237F221946002000944BE700BF81
:102710002BB40008240E002030B4000839B400089F
:10272000200E00203EB4000848B400080C0C002025
:102730004DB4000857B40008D50B00205CB4000865
:1027400068B4000837B5344C2378032B61D8DFE830
:1027500003F002151A27314A314B11781B788B424E
:1027600008D030484B1C415C03F00F0321B103211A
:102770002170137003B030BD0121F9E7FFF7FEFDB2
:1027800002232370F6E7284804F0C6FB2028F1D185
:1027900001F03CFC0028EDD00023244A1370F0E740
:1027A000214804F0BCFB224D10B14FF47A732B602A
:1027B0001D4804F0B1FB202816D101F047FB98B169
:1027C0001C4B1D4A01931D4B1D4900931D481E4B78
:1027D00001F084FB00231D4A1D4913700A7842F062
:1027E00008020A702B60CCE72B680133B3F5FA7F3F
:1027F0002B60BFD90C4803F02BFA012002F0A4F99A
:10280000094803F07DF901F0F3FA01F011FB002310
:10281000E8E70023B5E700BFD10B0020D00B002074
:10282000320E0020330E0020A0140020510E002094
:10283000CC0B0020440E00204A0E0020460E002043
:102840004C0E00204E0E0020480E0020500E00209E
:10285000520E0020074B084A1B6812885A63074A29
:102860001288DA63064A12889A63064A12881A6442
:10287000704700BF40130020300E00202C0E0020B7
:102880002E0E00202A0E002013B50B4B0446009399
:102890004FF4AA71094B0A4A0A4807F0F1FF4FF4B6
:1028A000AA7300220093204640F243130549FDF726
:1028B000F1FE02B010BD00BFB6B4000871B400084C
:1028C000B1B40008330C002013B50A4B0446009342
:1028D0004FF4AA71084B094A094807F0D1FF4FF499
:1028E000AA73002200932046B3230549FDF7D2FEC8
:1028F00002B010BDBBB5000871B40008B1B4000847
:10290000330C00202DE9F84300241F460C7014708E
:102910001C7047F23A53089D89462B80324906467F
:10292000904607F0FEFF58B1043010F8013FE2B2C4
:1029300013F0DF0F01D0262B36D1002309F8023027
:1029400030462A4907F0EDFF60B10023043010F84B
:10295000012FD9B212F0DF0F01D0262A2ED1002389
:1029600008F801303046224907F0DBFF58B1002358
:10297000C21C12F8011FD8B211F0DF0F01D02629B6
:1029800026D100233B5430461A4907F0CAFF48B10C
:102990000023053010F8012F303AD1B209291DD992
:1029A00003B12B80BDE8F8832B2B08BF202309F847
:1029B000043001343F2CB8D12246BEE72B2A08BF91
:1029C000202208F8032001333F2BC0D11946C6E767
:1029D000F95401330F2BCCD11846D2E703EB830314
:1029E00002EB430293B2D5E730B6000836B60008D2
:1029F0003CB6000841B600082DE9F043344BA9B0BD
:102A00001E785EB100221A7047F23152314B3248C3
:102A1000198829B0BDE8F043FDF7D0BDDFF8BC90C0
:102A200099F80030002B42D02D4F3B78FF2B3ED140
:102A3000FDF7BEFD2B4C80462B49204607F071FF69
:102A40000546002836D04022314608A807F04EFF40
:102A50004022314618A807F049FF102231460DEBFD
:102A6000020007F043FF0DF10E030093204604AB74
:102A700018AA08A9FFF746FF9DF8103033B1164B8E
:102A80000F22184604A907F039FFC673BDF80E30AF
:102A90000BB1104A13804046FFF716FF002318A918
:102AA00008A889F800303B702370FDF753FD29B06A
:102AB000BDE8F08320460D4907F033FF28B14046BA
:102AC000FFF7E2FE3D702570F1E738702070EEE709
:102AD000320C00205E00002060000020870D0020E6
:102AE000880D0020890D002048B6000852B6000865
:102AF00002780346032A1CD8DFE802F00F0214070D
:102B0000427842B903221A7005E041780122002977
:102B1000F9D101708270002070474278012AFAD101
:102B20000222F0E7407800220128ECD118709A7058
:102B300070470122E7E7000008B5837813B1838866
:102B40000A339BB20A4A83801378042B0DD90023E1
:102B50004FF400410748137002F0EEFD064B08B930
:102B6000587008BD01225A70FBE701331370F8E773
:102B7000C80B0020000C01400A0E002073B53C4E2B
:102B80003378DB0940D033783A4C23F0800333703C
:102B90002378394D013B23702B78013B2B70FDF7D7
:102BA00045FE3648FFF7C8FF354B1B7823B1354942
:102BB0000A885AB3013A0A80334890F84230222BEF
:102BC00009D0036831491A685B682023012280F824
:102BD000423006F08AF92B782BB902232B70337818
:102BE00043F040033370257875B90A232370337896
:102BF00043F020033370FFF79FFB254A137801331E
:102C0000DBB2092B17D8137002B070BD21480378CE
:102C10000133DBB2032B94BF1A461346027040F611
:102C2000B8320A800C214B431B4AD1184968D0584E
:102C3000FDF790FCC0E7194C15702378042B9CBF5E
:102C400001332370164B1D78002DDDD1FDF7FCFC00
:102C50000728D9D12378042BD6D94FF480732A467C
:102C60000093284609230F49FDF714FDCCE700BF68
:102C7000520E002073000020720000200A0E002077
:102C8000300C00205C000020B01200201C0E002040
:102C90001D0E0020310C002040CE000870000020E6
:102CA000870D00200900002082787AB98388642B80
:102CB0000CD9B3F57A7F0AD20121074B1970074965
:102CC00082800B78B3FA83F35B090B707047FDD0F9
:102CD000014B1A70F3E700BF290E0020280E0020D8
:102CE0002DE9F04FB64A87B013781B0740F10184F5
:102CF000137823F008031370B24BB34A5968136872
:102D0000002B00F0CE804820CB1AB3FBF0F30093E9
:102D1000009B1160A3F57A7144F62063AB4A0098DA
:102D2000AB4C914288BF18464FF47A73B0FBF3F373
:102D3000A84AB4F80A80136040F6FF7340F6B83230
:102D4000B4F802E0A3EB0808A3EB0E0E009028EA0B
:102D5000E878E088A8F62A782EEAEE7E02FB08F8EA
:102D6000181AAEF6A55E02FB0EFE20EAE0709A4944
:102D7000A0F617705043994A98FBF1F19EFBF2FCC4
:102D800001F5167199420CF5167CA8BF19469C45B1
:102D9000A8BF9C46924D934B90FBF5F02CEAEC7C3F
:102DA0000FFA8CF21A8000F516708F4B02B21A805F
:102DB0008E4B0AB21A808E4A00EB0C0303EB010A19
:102DC0008C4D8D4B8D4CB2F900B08D4A2768B2F90D
:102DD0000020C3F800A02B68059253EA070263D0D5
:102DE0004FF05F0964260BEB8B0209FB0322059B66
:102DF00092FBF6F203EB830309FB073393FBF6F335
:102E0000236003F57A63B3F5FA5F88BF23236FF07D
:102E1000C70488BF53437B4F7B4E88BF3B607B4BCF
:102E20002A60B3F900303D685C430193832394FB2F
:102E3000F3F4774B1C6033681C44312303FB0455C7
:102E4000744B9D4233DC744B9D4232DB322395FB45
:102E5000F3F50024714F35603C60714C6426A04549
:102E6000ACBF00240124DFF8BC8195FBF6F6C64513
:102E7000B8BF013440F2DC5E6B4B7045C8BF013413
:102E8000DFF8A8E11E609EF80090694B1B68B9F15D
:102E9000030F00F2E181DFE819F00E008E00A401BB
:102EA000D80144F6206332E75A46059BA8E7614DF6
:102EB000CFE7614DCDE740F2DC52904201DD0122C7
:102EC000EDE05E4AB2F9002052423A60574A5C494E
:102ED00092F800800968B8F1010F40F2DC5218BF87
:102EE0004FF47A728E42574C40F3B981002323602D
:102EF0000B46DFF854919D1BD9F80010534B5448F2
:102F0000691A009A1D6081FB00010023FDF728F972
:102F1000504B05F19502B2F5957F1860236800F2D9
:102F2000AE814FF47A71009A6A4392FBF1F2134436
:102F3000494A9342B8BF134649F640429342A8BF5C
:102F40001346464A2360B2F9002042F210745343FC
:102F50004FF47A7293FBF2F3414A18F0FD0FB2F985
:102F60000020C9F8005005FB02333E4AB2F90020A8
:102F700000FB023090FBF4F43B4B1C6000F08481BA
:102F800042F20F73984200F3B782384B984280F2B6
:102F9000C482374B1D88374B651BB3F90030ED1ADF
:102FA000354B1B88E41A354BB3F90030E41A3B6803
:102FB0001D44E41ACAE1032C62D18EF8004085E773
:102FC000520E0020001000E0C40B0020B882010067
:102FD0009812002058000020F1F4FFFFF0F4FFFFEA
:102FE000E9F2FFFFAE120020AC120020AA1200206E
:102FF0004E0E0020080C0020F80B0020040C0020CE
:103000004A0E00202C0C0020240C0020460E00202C
:10301000280C002071A5AE028F5A51FDE40B002050
:103020003614D9FFB110D9FF0C0C0020D50B0020AD
:1030300044000020A0BB0D006044F2FF3C000020D3
:1030400034000020140C00201C0C0020200C002058
:1030500040420F00180C0020C063FFFF000C00204E
:103060005400002052000020100C0020F1D8FFFF77
:103070004E000020FE0B00204C000020FC0B002026
:103080009148002C6DD10188013189B20529018058
:1030900008D98E4A048014708D4A147002228EF86A
:1030A000002013E78B4B19688B4B19608B4B1C6806
:1030B0003C605023534314224FF0640E02FB0B3349
:1030C00093FBFEF3864ADFF81CC21360864ADCF8E5
:1030D0000000B2F90020424392FBFEF2DFF80CE25E
:1030E000A80390FBFEF01B1A1344814ACCF8003071
:1030F000B2F900E07F487345C8BF7346CEF10002C5
:10310000C8BFCCF800E09A42C8BF1346B0F900002F
:10311000C8BFCCF800204343774893FBF0F37345D6
:10312000A8BF73469342B8BF1346744AB2F900C0B1
:10313000BCF1000F05D084EAE472A2EBE47292FBCA
:10314000FCFC6F4AB2F90020624413448342B8BFCA
:103150000346604AB3F57A7FA8BF4FF47A731160D3
:10316000B4E6002303804FF47A735943624800FBAE
:103170000C110A2091FBFAF191FBF0F1564881EA1B
:10318000E17C01605F48ACEBE17CC0F800C05E48C8
:10319000B0F900405D484C4304605D48B0F9000060
:1031A00048430CFB00F090FBF3F3DFF868C15A488A
:1031B0000360BCF9000010B90120ACF800001C4409
:1031C00094FBF0F4554B3C60B3F900309C4202DDB7
:1031D0001C463B6002E05B429C42F9DB3F4B1C60BB
:1031E00067E740F2DC5290423FF769AE394B384A0C
:1031F000196810784A4BB3F9003088B9002933496F
:10320000D8BF5B423B600B780133DBB2222B03D883
:103210002E4A1370002359E600230B700123F8E7B0
:1032200001280DD100292949C8BF5B423B600B78BA
:103230000133DBB2452BEBD900230B700223E8E707
:103240000029C8BF5B423B60E4E7032C7FF437AE44
:103250002B4BB3F9003039E64FF000021FE744F67C
:1032600083618D4205DD2F4B0022B3F900302260CF
:103270003FE652429642BFF63CAE2B4BF4E70A22A1
:10328000DB0093FBF2F35CE63B68E518002DA4EB52
:10329000030410DD254B264A1B882B44B2F900504D
:1032A0001D44002C4ADD234B234A1B882344B2F9DA
:1032B00000401C444AE0F4D01C4B1D4A1B88EB1A0A
:1032C000B2F900505D1BECE7C00B0020D40B0020CE
:1032D000D30B0020E00B0020F40B0020BC0B0020DF
:1032E000D80B0020DC0B00202600002048BE080080
:1032F000220000202400002018FCFFFF38000020DE
:103300003A000020F00B002040000020EC0B0020D1
:103310003E00002032000020E80B002028000020A2
:103320003C000020300000202E0000204A00002039
:10333000FE0B002048000020FC0B002006D0A84B0C
:10334000A84A1B88E31AB2F900401C1BA648A74BE9
:10335000B0F90000A64F0390A6481A68A64BB0F932
:10336000000039681B68049041EA0200184300F02D
:10337000D7804FF05A080A2008FB01FC039908FB8C
:1033800002F900FB01CC642108FB03F8019A049BBD
:1033900000FB029900FB03889CFBF1FC99FBF1F90F
:1033A00098FBF1F8CDF808C0029B3B608F4BC3F847
:1033B0000090914BC3F80080904B1F68002F00F0E5
:1033C000B6805F4407EBD7777F104FF48F7A642283
:1033D0008A4BF1171F6086FB060341430AFB06FA7E
:1033E00006FB0311A0FB060C9AFBF2FA78A3D3E9C3
:1033F00000236144FCF7B4FE814BAAEB0000B3F854
:1034000000A0804ABAF1950F00F29C80BAF1270F14
:1034100000F28F807C49059EC1F800B07B49642092
:103420000E607349039E0E607049019E0E607249E2
:10343000049E0E60232606FB0BF675490E6096FB74
:10344000F0F674490E606D49C1F800B00AF1010A46
:103450001FFA8AFABAF1960FA3F800A006D16421E8
:103460006D4B1B6893FBF1F36C490B8000231360D9
:103470006B4A1360604B1A686A4B1A6042F2283339
:1034800006F58C5614369E4205D900242546664B17
:103490001C60634B1C60654BBAF1950F1B8800F2F2
:1034A000938000242546604A14605A429542B8BF72
:1034B00015469C42A8BF1C469442ABB2B8BF144606
:1034C0005B49002D5B4AD5BF5B4213800B80002314
:1034D000D6BF00230B8013805749A3B2002C574A54
:1034E000D5BF5B4213800B800023D6BF00230B8027
:1034F000138007B0BDE8F08F514B3A4A1D88514BFD
:103500002544B3F90030B2F900201D444E4B1B880E
:1035100023443C6813442D1BCBE60024254615E7C5
:10352000039BDDF80490DDF8108002933CE75F46D2
:103530004BE7BAF1310F89D93749381A0F68384447
:10354000086083E7374B1968C3F80080334BA8EB5A
:10355000010108FB08F8B3F9003009FB0988FB1AE0
:10356000029F1B1A09FB07F73848B8FBF0F897FBD6
:10357000F0F0A3EB08030344062091FBF0F10B44A9
:103580001360136840F6262203F21351914298BF4C
:103590000023009ADFF8888083FB0231D81841EBC2
:1035A000010CC01841EB0C010BA3D3E90023FCF77D
:1035B000D7FD6223D8F800705F43642397FBF3F7CD
:1035C0000744C8F8007059E79D42A8BF1D466CE744
:1035D000420A1B0400000000404B4C0000000000A9
:1035E00048000020FC0B0020480E0020B40B0020F7
:1035F000B80B0020440E0020B00B0020AC0B0020C4
:10360000A80B0020200E0020080C0020040C002035
:10361000240C00200C0C0020A00B0020D60B002056
:10362000240E0020A40B0020140C002050000020C9
:103630002C0E00202A0E0020300E00202E0E00201E
:103640004E000020FE0B00204C00002028512200DC
:1036500010B594B0142200210CA807F047F91422E9
:1036600000210DEB020007F041F91022002101A812
:1036700007F03CF902244FF480330122CDE91143D5
:10368000CDE90A234FF4E0130AA80E92139304F035
:10369000C1FA08B172B6FEE70F23CDE905344FF445
:1036A00080630790CDE90830214605A804F074FC3A
:1036B00008B172B6FEE7122301934FF40043CDE93F
:1036C000033001A804F024FD08B172B6FEE714B07F
:1036D00010BD000080B5A74D98B001F011FAFFF7BA
:1036E000B7FF1022002111A807F000F9AB690022F2
:1036F00043F01003AB61AB694FF4005103F01003CA
:103700000293029BAB699C4843F02003AB61AB6919
:10371000002403F020030393039BAB69012743F0CC
:103720000403AB61AB69022603F004030493049B1A
:10373000AB6943F00803AB61AB6903F00803059381
:10374000059B01F0FFFF00224FF400718B4801F050
:10375000F9FF4FF40053884811A9CDE91137CDE99D
:10376000134601F0A7FE4FF40043844811A9CDE9A8
:103770001134139401F09EFE4FF400737F4811A999
:10378000CDE91137CDE9134601F094FE6B6922466D
:103790003B436B616B6921463B400B200193019BCE
:1037A00001F090FC0B2001F0BDFC224621460E20CA
:1037B00001F088FC0E2001F0B5FC224621460F20C6
:1037C00001F080FC0F2001F0ADFC6D4A6D4B082527
:1037D00013604FF4807393604FF460231046CDE97B
:1037E0001144139414731475D3615460156101F07E
:1037F000D7FB08B172B6FEE70624CDE9110711A97F
:103800005F48139401F060FA08B172B6FEE75C48B5
:1038100011A9CDE9117601F057FA08B172B6FEE7A9
:1038200011960326564811A9129601F04DFA08B1D7
:1038300072B6FEE711960426514811A9129601F0BE
:1038400043FA08B172B6FEE7119605264C4811A955
:10385000129601F039FA08B172B6FEE7484811A98C
:10386000CDE9116401F030FA08B172B6FEE71194A7
:103870000724434811A9129401F026FA08B172B640
:10388000FEE73F4811A9CDE9114501F01DFA0446B4
:1038900008B172B6FEE70CAE01461022304607F0C2
:1038A00025F81422214611A807F020F847233648AE
:1038B000DFF8D8C008AFC0E900C3F92308947C60E2
:1038C000C0E90334C0E90544846004F005FE08B192
:1038D00072B6FEE74FF4805831462B48CDF8308061
:1038E00004F0E0FE08B172B6FEE7CDE9110011A9BF
:1038F000254804F0CEFF08B172B6FEE7CDE9080016
:103900003946214805F04AF8054608B172B6FEE787
:1039100001461022304606F0E9FF1422294611A87C
:1039200006F0E4FF4FF047094FF08043184C08952C
:10393000C4E9003944F61F6320467D60C4E90335BD
:10394000A560A56104F0C8FD08B172B6FEE7314676
:103950002046CDF8308004F0A5FE08B172B6FEE72F
:10396000CDE9110011A9204604F093FF90B172B681
:10397000FEE700BF0010024000100140000C0140B3
:103980003815002000240140D0130020002C0140F5
:1039900088130020CDE908003946204604F0FEFFD8
:1039A000044608B172B6FEE701461022384606F01A
:1039B0009DFF14222146304606F098FF1C22214626
:1039C00011A85B4D0694079406F090FF594B2846CA
:1039D000C5E9003942F20F730DF1180AC5E9033445
:1039E000AC60AC6104F078FD08B172B6FEE7394610
:1039F0002846CDF8208004F055FE08B172B6FEE7E7
:103A0000284604F095FD08B172B6FEE70023314662
:103A10004748CDE90C3304F03CFF08B172B6FEE72D
:103A2000CDE906005146424804F0B8FF024608B10D
:103A300072B6FEE760231390CDE91130159011A9FD
:103A40003B4804F0CDFD08B172B6FEE704223848C9
:103A500011A904F0C5FD08B172B6FEE7082234488A
:103A600011A904F0BDFD08B172B6FEE70C22304882
:103A700011A904F0B5FD044608B172B6FEE72C4862
:103A800000F00CFE4FF4E1332B482C4DC0E902440A
:103A9000C0E900530C230461C0E90534C46105F09A
:103AA00015F8044608B172B6FEE706F077FC244824
:103AB0002449254BC0E90244C0E900134FF4804378
:103AC000C0E90644C0E90434046202F019F804466F
:103AD00008B172B6FEE71022014611A806F006FFF3
:103AE00047231A4D1A4A0C94C5E9002342F20F737A
:103AF00028467460C5E90334AC60AC6104F0ECFCAA
:103B000008B172B6FEE74FF48053284611A911930D
:103B100004F0C8FD08B172B6FEE7002331460B4839
:103B2000CDE90C3304F03AFF044698B172B6FEE7D3
:103B30004013002000040040B01200200038014073
:103B4000A014002000580040801A0600F81200203F
:103B500000080040504806F0ABFC504804F0C6FB9B
:103B60004F4804F0C3FB4F4804F0C0FB21464D48CA
:103B700004F012FF04214B4804F00EFF08214948CD
:103B800004F00AFF0C21474804F006FF4FF40051EF
:103B90000122454801F0D6FD444800F00BFA4448A4
:103BA00000F002FA434800F0F9F900F087FB4248C0
:103BB00000F0F4F8414800F0F7F8414800F0FAF856
:103BC00000F016F93F4A404B104613603F4B5360DC
:103BD0003F4B9360FCF7F2FD3E48FDF713FB3E4878
:103BE000FDF70AFB01223D493D4805F07EF940F60C
:103BF000B8323C4B3C491C703C4B3D481C703D4B23
:103C00001A8001223C4B1A70FCF7A4FC3B4B3C4A47
:103C10003C493D4800F01DFF3C4B3D4A3D493E4874
:103C200000F017FF40F201223C4B1C703C4B1C8003
:103C30003C4B1C803C4B1C803C4B1C803C4B1A80FA
:103C40003C4A9C709C80D2F8FC3043F08073C2F8F0
:103C5000FC30394B5C601A6842F001021A60FEF7D2
:103C60008DFFFCF717FEFEF7C7FE00222549264808
:103C7000FEF726FB012227492748FEF721FBFEF726
:103C8000E9FDFEF75FFDFFF72BF82948FFF70CF879
:103C9000FEF72EFFE3E700BF11120008D01300204B
:103CA000881300204013002000100140510E002016
:103CB0005112000879120008500E002075120008F9
:103CC00095120008100E00203D120008B1120008E5
:103CD000E5120008D1120008511300081C0E002044
:103CE000B0120020870D002058B60008310C0020CB
:103CF0006BB600085C000020300C0020581100203A
:103D0000581000207C12002070120020580F002054
:103D1000580E00206412002058120020520E00207D
:103D2000300E00202C0E00202E0E00202A0E002027
:103D30000A0E002000ED00E0001000E00268084BD1
:103D400010B59A420AD1074C2078FCF78FFC214627
:103D5000BDE810400122044805F0C7B810BD00BFFF
:103D6000003801401C0E0020B01200200368074AF2
:103D7000934209D11A685B682023012280F84230FF
:103D80000349044805F0B1B8704700BF003801404E
:103D90001C0E0020B012002072B6FEE7014B186026
:103DA000704700BF98150020014B1860704700BF96
:103DB00094150020014B1860704700BF901500203B
:103DC000044A10B414680B46A44601460122D020D0
:103DD00010BC6047941500201346044A10B41468C0
:103DE000CAB2A446014610BCD020604790150020FE
:103DF00013B500240DF107006B218DF80740FFF784
:103E0000DFFF04230DF107001A218DF80730FFF7BB
:103E1000D7FF0DF107001C218DF80740FFF7D0FFF9
:103E20001B210DF10700FFF7CBFF02B010BD000012
:103E30000122044B1A70044B1B680BB100221A704C
:103E4000704700BFA40000209815002008B51A4B49
:103E500019681A4B08781A7818B9012A23D000205B
:103E600008BD0020012A08701DD0022AF7D10120C8
:103E70001870134B13491A88D2BA0A605A8812492B
:103E8000D2BA0A609A881149D2BA0A601A891049CE
:103E9000D2BA0A605A890F49D2BA9B890A600E4A7F
:103EA000DBBA1360DCE702220E211A7004483B22C1
:103EB000FFF792FFD3E700BF98150020A400002071
:103EC000681500208C15002088150020841500201E
:103ED000801500207C1500207815002070B5DDE9E4
:103EE000045410B10B4E3668068011B10A480068C0
:103EF000088012B109490968118013B1084A126893
:103F00001A8015B1074B1B682B8014B1064B1B6838
:103F1000238070BD8C15002088150020841500209A
:103F2000801500207C1500207815002013B5064B65
:103F30008DF807001C680122002378200DF107018D
:103F4000A04702B010BD00BFA819002013B5064B52
:103F50008DF807001C680122002378200DF107016D
:103F6000A04702B010BD00BFA4190020044B10B43C
:103F70001C68CAB2A44601464023782010BC6047A2
:103F8000A8190020044B10B41C68CAB2A44601460C
:103F90004023782010BC6047A4190020014B186012
:103FA000704700BFA4190020014B1860704700BF84
:103FB000A8190020014B1860704700BFAC19002001
:103FC00000284FF4806214BFFF210021014806F051
:103FD0008DBC00BFA415002038B5B0240A4D204682
:103FE000FFF7A4FF0020FFF7A1FF01341020FFF727
:103FF0009DFFE4B228468021FFF7B8FFB82C05F1F9
:104000008005ECD138BD00BFA415002038B51C4B8D
:104010001C4C1A682378117819B9012B0AD000209A
:1040200038BD0021013B1170032BF8D8DFE803F005
:10403000020B1015144B18785038C0B2FFF786FFEA
:1040400002232370EBE70020FFF780FF0323F8E74C
:104050001020FFF77BFF0423F3E70B4D0B4B287871
:10406000802103EBC010FFF78DFF01202B7820701B
:104070000133DBB2072B2B70D1D900232B70CFE794
:10408000AC190020A50000209C150020A4150020DC
:10409000030630B510D43F290ED80124CB08074DB4
:1040A00000EBC3102B5C01F0070104FA01F1A242FE
:1040B0000CBF0B438B432B5430BD00BFA415002015
:1040C0002DE9F04F044689B008A800E90E009DF8DC
:1040D0004830A4F120050293EBB25E2B47D8079B32
:1040E00023B3234413F8206C224AB2F8009009EB62
:1040F0000603802B3BDC53889DF815B0019303EB3E
:104100000B02402A33DC029B4FF00008B3FA83FA1B
:104110000BFB05F54FEA5A1A6D00C34509D8154B3C
:104120004E441E80204609B0BDE8F08F9DF8146013
:10413000DAE70027069A535B0493019B08EB03021E
:10414000D3B20393BE4203D808F101080235E4E775
:10415000049B07EB090003FA07F2130454BF52460D
:10416000029A0399C0B2FFF793FF0137EAE70024F0
:10417000D8E700BF9E15002070B586B003AC84E878
:104180000E009DF82860451E15F8010F40B10096FD
:1041900094E80E00FFF794FF034628788342F3D09B
:1041A00006B070BD014B1880598070479E150020E5
:1041B0002DE9F74F9046A8EB0009A3EB010AB9F1EE
:1041C000000F1E46B8BFC9F10009BAF1000FB8BF11
:1041D000CAF1000A804594BF4FF0FF330123054622
:1041E0000C468E4294BF4FF0FF3B4FF0010B404610
:1041F00031469DF830200093A9EB0A07FFF748FFEE
:10420000CAF10003454504D1B44202D103B0BDE870
:10421000F08F214628460193FFF73AFF019B790072
:10422000B3EB470FBFBF0098A7EB0A072D18EDB2FD
:104230008945C2BF5C444F44E4B2E3E72DE9F04155
:104240001446A042804628BFA046A042064638BF7A
:10425000264699420C4628BF1C46994238BF19464B
:104260000F469DF81820BC4201D83F2C01D9BDE86B
:10427000F081454607E02B0607D428462146FFF784
:1042800007FF0135EDB2B542F5D90134E4B2EAE7F2
:1042900010B504468120FFF749FE2046BDE81040D6
:1042A000FFF744BE034628B10123AF20024A5371F1
:1042B000FFF73CBEAE20F9E79E15002008B564204C
:1042C00000F042FC0020FFF7EDFF2020FFF72EFE5C
:1042D0000020FFF72BFEB020FFF728FEC820FFF7D5
:1042E00025FE0020FFF722FE1020FFF71FFE4020D2
:1042F000FFF71CFEFF20FFF7CBFFA120FFF716FE04
:10430000A620FFF713FEA820FFF710FE3F20FFF7BF
:104310000DFEA420FFF70AFED320FFF707FE0020C2
:10432000FFF704FED520FFF701FEF020FFF7FEFDAA
:10433000D920FFF7FBFD2220FFF7F8FDDA20FFF779
:10434000F5FD1220FFF7F2FDDB20FFF7EFFD202047
:10435000FFF7ECFD8D20FFF7E9FD1420FFF7E6FDE8
:104360000120FFF79FFF0020FFF72AFEFFF734FE32
:104370000022034B1A805A8001221A7108BD00BF27
:104380009E1500200E4B82B09A6942F001029A619C
:104390009A6902F001020092009ADA6942F08052B2
:1043A000DA61DB69074A03F080530193019B53688C
:1043B00023F0E06343F08063536002B0704700BFB6
:1043C000001002400000014030B5054687B01022C1
:1043D000002102A806F08AFA2A68204B9A423BD1B3
:1043E00003F56C439A691E4842F400729A619A6917
:1043F00002A902F400720092009A9A69194C42F0E4
:1044000004029A619B69FF2203F004030193019B5C
:104410000323CDE9022301F04DF880204FF4807290
:104420000023C4E903024FF480620F492046C4E927
:104430000013C4E90523A360E36100F0A7FE08B1FF
:10444000FFF7AAFC002212202C621146656200F0E0
:1044500039FE122000F066FE07B030BD0024014096
:1044600000080140F41400200800024030B5054661
:1044700087B01022002102A806F038FA2A682E4BD5
:104480009A4256D12D4C4FF44061A3692C4843F019
:104490000803A361A36903F008030093009B1223A0
:1044A000CDE90213032302A9059301F003F8E369A0
:1044B000802243F48003E361E369224803F480032C
:1044C0000193019B0023204CC4E900032046C4E96A
:1044D0000323C4E90533A360E36100F057FE08B18C
:1044E000FFF75AFC1023194AAC636562184CC4E903
:1044F0000023002380222046C4E90232C4E90433A9
:10450000C4E9063300F042FE08B1FFF745FC002283
:10451000212011466C63656200F0D4FD212000F07B
:1045200001FE00222220114600F0CCFD222000F0E6
:10453000F9FD07B030BD00BF005800400010024038
:10454000000C0140580002405C140020440002406E
:10455000181400200268114B10B59A4204461CD171
:104560000F4A4FF48061D3690E4823F48003D3616E
:1045700001F074F84FF400610A4801F06FF8A06B85
:1045800000F034FE606B00F031FE212000F0D8FD19
:10459000BDE81040222000F0D3BD10BD00580040FF
:1045A00000100240000C01401FB50368374A9342D7
:1045B0002CD1374B18209A6942F400629A6100228C
:1045C0009B69114603F400630093009B00F07AFDA1
:1045D000182000F0A7FD00221920114600F072FDFE
:1045E000192000F09FFD00221A20114600F06AFDFC
:1045F0001A2000F097FD00221B20114600F062FDFA
:104600001B2005B05DF804EB00F08CBDB3F1804FCA
:1046100011D103F50433DA691C2042F00102DA619A
:104620000022DB69114603F001030193019B00F0B6
:1046300049FD1C20E5E7174A934210D1144B1D2079
:10464000DA6942F00202DA610022DB69114603F006
:1046500002030293029B00F035FD1D20D1E70E4AB4
:10466000934210D10A4B1E20DA6942F00402DA614B
:104670000022DB69114603F004030393039B00F05F
:1046800021FD1E20BDE705B000BD00BF002C01408C
:1046900000100240000400400008004010B504462D
:1046A00086B01022002102A806F020F92268114BE2
:1046B0009A421CD103F503339A690F4842F008026D
:1046C0009A619B69332203F008030193019B022343
:1046D00002A9CDE90223059300F0ECFE074A5368D6
:1046E00023F4406343F0E06343F40063536006B097
:1046F00010BD00BF00040040000C0140000001405C
:1047000010B5044686B01022002102A806F0EEF88B
:1047100022681B4B9A4230D103F558439A691948D5
:1047200042F480429A619A6902A902F4804200929E
:10473000009A9A69002442F004029A619B694FF43E
:10474000007203F004030193019B0223CDE90223CD
:104750000323059300F0AEFE4FF48063094802A9DD
:10476000CDE90234049400F0A5FE2520224621461E
:1047700000F0A8FC252000F0D5FC06B010BD00BF5D
:104780000038014000080140FEE7FEE7FEE7FEE7D3
:10479000FEE770477047704700F0C4B9014800F069
:1047A000F1BD00BFF4140020014800F0EBBD00BFD4
:1047B00018140020014800F0E5BD00BF5C14002083
:1047C000014800F001BA00BF38150020014802F08E
:1047D00037BC00BFA4280020FFF7F8BF014803F052
:1047E000B4BD00BFD0130020FFF7F8BFFFF7F6BF3E
:1047F000FFF7F4BF014803F0A8BD00BF88130020F5
:10480000014803F0A2BD00BF40130020014803F09F
:104810009CBD00BFF8120020014801F083BE00BF1C
:10482000A0140020014802F0D7BA00BFA014002055
:10483000014804F0F7B900BFB01200200A4A03464D
:10484000106810B508B9094810600949094C0344BB
:10485000091B8B4206D906F07BF80C2303604FF04E
:10486000FF3010BD1360FCE7B0190020C82C0020F9
:10487000005000200004000070470346002030B5BF
:10488000187258791C68451C5D715525987125541E
:104890005879DC7901322040451C5D714E251C6839
:1048A000D2B225545879DC792040451C5D714525EC
:1048B0001C6825545879DC792040451C5D715225CF
:1048C0001C6825545879DC7920401C68451C5D71B2
:1048D00022545879DC794A402040451C5D713A25C4
:1048E0001C6825545879DC7920401C68451C5D7192
:1048F00021545879DC792040587107205872187A71
:10490000504080F03600187230BD034610B5427A30
:10491000013242725A790068541C5C7181545A7990
:10492000D87902405A711A7A81EA0200187210BDD1
:10493000002337B58DF807309DF80730CB5C13B9ED
:10494000007A03B030BD437A9DF8074001334372CB
:10495000437902685D1C45710C5DD4544379C2797A
:1049600013409DF807204371531CDBB28DF80730CC
:104970008B5C027A53400372DEE7034610B5C479BC
:1049800080790144214018689971405C11440C40C1
:104990009C7110BDF0B50024052645790379AB4222
:1049A00001D10020F0BD827A072A50D8DFE802F05A
:1049B000040F1C22282D4F3E0268D25C552A01D1DB
:1049C00001228272C279013313400371E6E7026863
:1049D000D25C4E2A01D10222F3E7552AF2D00022FE
:1049E0008272013BDBB2EDE70268D25C452A1BD143
:1049F0000322E6E70268D25C522A15D10422E0E7DE
:104A00000268D25C86724272DCE70268D25C3A2AA3
:104A10000AD10721C2798172591C0A408271427AF7
:104A200082F036020272CDE78472DAE7427A0768D2
:104A3000013AD2B2017A42721AB1FA5C5140017263
:104A4000C0E78272FA5C8A42BCD10120AAE7847274
:104A5000B8E710B502604FF07F4400224460028145
:104A60008272C1E900340A818A7210BDFFF704FF27
:104A70000B480C490C4A002302E0D458C4500433BC
:104A8000C4188C42F9D3094A094C002301E0136091
:104A90000432A242FBD305F061FFFEF71BFE704714
:104AA000000000207C020020B8CE00087C0200201C
:104AB000C42C0020FEE7000038B50E4B05461A78DE
:104AC0004FF47A73B3FBF2F30B4A1068B0FBF3F0C8
:104AD00000F048FB044658B90F2D09D80246294674
:104AE0004FF0FF3000F0EEFA2046044B1D6038BD59
:104AF0000120FCE7AC000020A8000020B00000204E
:104B0000074A08B51368032043F01003136000F050
:104B1000C7FA0F20FFF7D0FFFFF734FC002008BDD5
:104B200000200240034A044B11681B780B441360B9
:104B3000704700BFB4190020AC000020014B18687A
:104B4000704700BFB419002038B50446FFF7F6FFE0
:104B50000546631C1EBF044B1B78E418FFF7EEFFED
:104B6000431BA342FAD338BDAC000020436A10B502
:104B70009A6A12F0500F1BD19A6A42F400729A623C
:104B80001A68926802F46022B2F5602F0CD11A7B89
:104B900052B99A6A22F480729A629A6AD2045EBF0B
:104BA0009A6A42F001029A621846FCF715FC10BDA1
:104BB0001B6ABDE810401B6B1847704708B5406A78
:104BC000FFF7FBFF08BD7047036870B51D685E689E
:104BD0000446B00626D5A90724D5A26AD2065EBF30
:104BE000A26A42F40072A2629A6802F46022B2F5EC
:104BF000602F10D1227B72B95A6822F020025A60CD
:104C0000A36A23F48073A362A36AD8045EBFA36A75
:104C100043F00103A3622046FCF7DEFB6FF01202B3
:104C200023681A60310630D56A072ED5A36ADB06E1
:104C30005EBFA36A43F40053A36223689A6802F438
:104C4000E042B2F5E04F0AD05A68500516D49A688F
:104C500002F46022B2F5602F10D1227B72B95A683B
:104C600022F080025A60A36A23F48053A362A36AED
:104C7000D9055EBFA36A43F00103A362204600F09A
:104C80000DFA6FF00C0223681A6072060CD5EB0760
:104C90000AD5A36A204643F48033A362FFF793FF4B
:104CA0006FF0010223681A6070BD7047406A08B552
:104CB000836A43F040038362C36A43F00403C36220
:104CC000FFF7F3FF08BD0000002373B5019390F8D0
:104CD00024300446012B6CD0012380F824304D6829
:104CE0000268062D086805EB850322D81F26556B40
:104CF000053B9E4025EA060500FA03F32B43536368
:104D000009288B6800EB40054FF0070129D9D668C8
:104D10001E3DA94026EA0101AB400B43D360A0F140
:104D20001003012B25D90020002384F8243002B081
:104D300070BD0C2D4FF01F0509D8166B233B9D400D
:104D400026EA050500FA03F32B431363D8E7D66A76
:104D5000413B9D4026EA050500FA03F32B43D3624D
:104D6000CEE71069A94020EA0101AB400B43136173
:104D7000D9E7114B9A4216D193681B02D3D493689A
:104D8000102843F400039360CDD10C4B0C4A1B68F0
:104D9000B3FBF2F30A2253430193019B002BC2D0D1
:104DA000019B013BF8E7A36A012043F02003A362C3
:104DB000BAE70220BBE700BF00240140A8000020A2
:104DC00040420F00002337B50193036804469A68F8
:104DD000D20702D5002003B030BD9A6842F001022C
:104DE0009A60144B144A1B68B3FBF2F30193019BC6
:104DF000E3B9FFF7A3FE054623689B68DB07E9D408
:104E0000FFF79CFE401B0228F6D923689B6813F02D
:104E10000103F1D1A26A012042F01002A262E26A0B
:104E200084F8243042F00102E262D4E7019B013BA6
:104E3000DCE700BFA800002040420F002DE9F04150
:104E40003F4B9046026804469A420F4602D03D49C5
:104E50008A4203D15B6813F4702F6DD194F824302B
:104E6000012B6BD00123204684F82430FFF7AAFFE2
:104E7000064600285DD1A56A2168324B25F470658D
:104E800025F0010545F480759942A56204D12C4AAC
:104E9000536813F4702F3ED1A36A23F48013A362E6
:104EA0004B685A0505D5A36A23F4405343F4805355
:104EB000A362A36A206A13F4805318BFE36A3A46D8
:104EC00018BF23F00603E362002384F824301E4B4E
:104ED0004C3183621D4BC3621D4B03636FF00203B1
:104EE00041F84C3C51F8443C43F4807341F8443C55
:104EF000434600F0A5F923689A6802F46022B2F5EF
:104F0000602F9A680CBF42F4A00242F480129A60AB
:104F10003046BDE8F081A36A43F48013A36253686E
:104F20005B0541BFA06A20F4405040F48050A0626D
:104F3000BFE7002384F824300126E9E70226E7E7EB
:104F400000240140002801406D4B0008BD4B0008C3
:104F5000AD4C000838B5036804469A68D10701D4FF
:104F6000002038BD9A6822F001029A60FFF7E6FD42
:104F7000054623689B68DB07F2D5FFF7DFFD401B82
:104F80000228F6D923689B68DA07F2D5A36A0120C4
:104F900043F01003A362E36A43F00103E362E0E736
:104FA000F8B5044600286DD0836A23B9C36280F83F
:104FB0002430FFF709FA2046FFF7CCFFA36A13F06D
:104FC000100361D100285FD1A26A616822F488527F
:104FD00022F0020242F00202E569A668A262227B88
:104FE0002943B6F5807F41EA420136D0771E7D42E3
:104FF0007D412D02277D012F06D182BBA269013A96
:1050000045EA423242F400652268B6F5807F57686F
:1050100027F4694745EA0705556097681D4D05EA7D
:10502000070545EA0105956001D0012E02D12369EB
:10503000013B1B05D56A25F470052B43D3629268AA
:10504000154B1340994213D10023E362A36A23F066
:10505000030343F00103A362F8BD3546CAE7A26A21
:1050600042F02002A262E26A42F00102E262CBE771
:10507000A36A23F0120343F01003A362E36A43F030
:105080000103E3620120E7E7A36A43F01003A36290
:10509000F8E700BFFDF7E1FFFE0E1FFF70470000BD
:1050A00007490302CA6803F4E06322F4E0621204D1
:1050B000120C134343F0BF6343F40033CB607047DB
:1050C00000ED00E0154B30B5DC68C4F30224C4F1F8
:1050D0000703251D042B28BF0423062D4FF0FF35A1
:1050E00094BF0024033C05FA03F321EA0303A5401F
:1050F00022EA0502A340002843EA0203ACBF00F104
:105100006040074A4FEA0313DBB2ABBF00F56140D2
:1051100000F00F0080F80033135430BD00ED00E0C4
:1051200014ED00E0002807DB01234109034A00F0E9
:105130001F00834042F82130704700BF00E100E0CB
:1051400000280CDB01220649430900F01F008240C1
:10515000203341F82320BFF34F8FBFF36F8F704789
:1051600000E100E00138B0F1807F0BD24FF0E02386
:10517000F021054A586182F8231000200722986127
:105180001A6170470120704700ED00E0034610B53A
:1051900030B301681420134A0A44B2FBF0F29200C3
:1051A0001A64114ADA63022283F82120D3E9012428
:1051B0002243DC68086822431C696FF30D10224308
:1051C0005C6922439C692243DC69224302430A60F2
:1051D00000200122986383F8200083F8212010BD6D
:1051E0000120FCE7F8FFFDBF0000024010B508B346
:1051F0000168114A0B680A4423F001030B60002385
:105200000B604B608B60CB601421B2FBF1F201218B
:105210000A4C9200026401FA02F2C4636260836382
:10522000C0E90A33C0E90C3380F8213080F820301F
:10523000184610BD0120FCE7F8FFFDBF000002404A
:10524000F0B590F82040012C34D0012480F82040A3
:1052500090F82140012CE5B24FF0000428D102263D
:1052600080F8216084630468266826F001062660C1
:10527000D0E90F67BD40756063604368102BC36A57
:105280000BBFA260A160E160E2604BB1236843F014
:105290000E0300202360236843F001032360F0BD68
:1052A000236823F004032360236843F00A03F0E734
:1052B00080F820400220F2E790F821200346022ADD
:1052C00006D0042282630120002283F82020704748
:1052D0000268C06B116821F00E011160116821F0A5
:1052E0000101116001211A6C01FA02F242600020F2
:1052F00083F82110E8E7000008B590F82130022B70
:1053000003D004238363012008BD03681A6822F0D8
:105310000E021A601A6822F001021A60174A9342BC
:105320001FD0143293421ED0143293421DD0143237
:1053300093421DD0143293421DD01432934214BFB5
:105340004FF080734FF480130D4A5360012380F8AF
:105350002130002380F82030436B03B198470020B0
:10536000D2E70123F0E71023EEE74FF48073EBE779
:105370004FF48053E8E74FF48033E5E7080002403C
:105380000000024070B40425C66B026C34680368E8
:1053900095402542196832D04D0730D51A689606D7
:1053A0005EBF1A6822F004021A603E4A934219D086
:1053B0001432934218D01432934217D014329342CD
:1053C00017D01432934217D01432934214BF4FF0C7
:1053D00080634FF48003344A5360C36A002B5ED06D
:1053E00070BC18470423F6E74023F4E74FF48063CA
:1053F000F1E74FF48043EEE74FF48023EBE702251B
:105400009540254235D08D0733D51A68940606D4C9
:105410001A6822F00A021A60012280F82120214A2B
:10542000934219D01432934218D01432934217D0B9
:105430001432934217D01432934217D0143293424D
:1054400014BF4FF000734FF40013174A536000234A
:1054500080F82030836AC1E70223F6E72023F4E7CF
:105460004FF40073F1E74FF40053EEE74FF40033CD
:10547000EBE708259540254211D009070FD519689B
:1054800021F00E011960012303FA02F272608363B6
:1054900080F82130002380F82030036B9EE770BC39
:1054A000704700BF080002400000024090F8210051
:1054B000704700002DE9F74F00244FF00F0E2646ED
:1054C000DFF884C1614B00F104080A6832FA06F57E
:1054D00002D103B0BDE8F08F012505FA06F702EA14
:1054E000070537EA020276D14A68032A07D8013A4B
:1054F000022A00F28380DFE802F091969C00122AD3
:1055000000F0948069D8112A00F08A80FF2D94BFA2
:105510008146C1464FEA8602D9F8007088BF203A1A
:105520000EFA02FA27EA0A0704FA02F21743C9F848
:105530000070D1F8049019F0805F4CD0DCF818208E
:1055400026F0030742F00102CCF81820DCF81820FE
:1055500007F1804702F00102019207F5803706F05B
:10556000030A019A4FEA8A0ABA680EFA0AFB22EA8B
:105570000B0B374A904260D002F5806290425ED0B9
:1055800002F5806290425CD002F58062904214BFC6
:105590000422032202FA0AF242EA0B02BA609A6873
:1055A00019F4801F14BF2A43AA439A60DA6819F4D9
:1055B000001F14BF2A43AA43DA605A6819F4003F57
:1055C00014BF2A43AA435A601A6819F4803F14BFD3
:1055D0002A43AA431A60013677E7DFF878904A45F4
:1055E0000CD014D8A9F580194A4507D009F57029BF
:1055F0004A4503D0A9F580194A4587D18A68D2B1B6
:10560000012A4FF008040CBF076147617EE7DFF80D
:1056100048904A45F2D009F58039EDE7CC6875E746
:10562000CC68043472E7CC6808346FE7CC680C347B
:105630006CE700246AE7042468E70022AAE7012255
:10564000A8E70222A6E700BF0010024000040140C4
:105650000008014000002210000031102DE9F74F32
:105660004FF0040B00224FF0010A4FF00F0800EB3F
:105670000B0301932E4B31FA02F402D103B0BDE8C3
:10568000F08F0AFA02F70F4049D022F0030404F128
:10569000804404F5803402F0030CA5684FEA8C0CBA
:1056A00008FA0CF909EA050E224DA84239D005F591
:1056B0008065A84237D005F58065A84235D005F54C
:1056C0008065A84214BF0425032505FA0CF575452D
:1056D0006FEA07060FD11D6835401D605D683540D3
:1056E0005D60DD683540DD609D6835409D60A56882
:1056F00025EA0905A560FF2F94BF0746019F4FEAE1
:1057000082043D6888BF203C08FA04FC25EA0C05A9
:105710000BFA04F425433D60C4683440C460013290
:10572000A9E70025D1E70125CFE70225CDE700BF96
:10573000000401400008014080680840003818BF9C
:10574000012070470AB1016170470904FBE7016855
:1057500000224B6913F4806310D06FF480634B61B7
:105760002023026380F83D3080F83E20036C80F8EF
:105770003C2043F00403036401207047184670473F
:105780002DE9F84606460F4691461D464FEA114A56
:105790003368BAF1010F39D15C6927EA0404A4B275
:1057A000B4FA84F46409A14501D0002024E06A1C05
:1057B000EFD0FFF7C3F9089BC01AA84201D8002D0B
:1057C000E6D1BAF1010F336818D15B6927EA030308
:1057D0009BB2B3FA83F35B099945D9D10023202208
:1057E0000120336386F83D2086F83E30326C86F81F
:1057F0003C3042F020023264BDE8F8869B69DB430E
:10580000C3F3400383F00103DBB2E5E79C69E443A3
:10581000C4F3400484F00104E4B2C4E72DE9F0418C
:1058200004460F46164698462568686927EA000030
:1058300080B2C0B16B695A0517D52B68202243F49A
:1058400000732B606FF480636B610023236384F823
:105850003D2084F83E30236C43F00403236400238E
:10586000012084F83C30BDE8F081731CDDD0FFF7E7
:1058700065F9A0EB0800B04201D8002ED4D123680E
:105880005A6927EA020292B2002ACDD000232022D0
:10589000236384F83D2084F83E30236C1343DDE716
:1058A00070B504460D46164623685B691B0601D594
:1058B00000201EE02046FFF74AFFC8B96A1CF3D05B
:1058C000FFF73CF9801BA84201D8002DECD12368DA
:1058D0005B6913F08003E7D12022236384F83D2025
:1058E00084F83E30226C84F83C3042F0200222647E
:1058F000012070BD2DE9F0431546026899461368F2
:1059000085B043F480731360DDE90C780E463B46A6
:1059100000224FF00111CDF800800446FFF730FF60
:10592000236838B11B68DB0502D54FF4007323648C
:10593000032620E006F0FE061E613A464346204656
:105940001849FFF76BFFA8B9236803905A693946D5
:1059500003929B69424603932046039BFFF7A0FFF7
:10596000064660B1236C042B01BF2268136843F420
:10597000007313600126304605B0BDE8F083B9F12D
:10598000010F236802D1EDB21D61F4E72A0A1A6102
:10599000394642462046FFF783FF0028E2D12368BC
:1059A000F1E700BF020001002DE9FF479A46DDE95B
:1059B0000C78036815461A680E4642F480621A6035
:1059C0001A684FF0011142F480721A603B460022BF
:1059D000CDF800800446FFF7D3FE236848B11B686A
:1059E000DB0548BF4FF400734FF0030048BF23644A
:1059F00021E05FFA86F906F0FE061E613A4643464C
:105A000020462949FFF70AFFA0B9236803905A6985
:105A1000394603929B69424603932046039BFFF756
:105A20003FFF58B1236C042B01BF2268136843F475
:105A300000731360012004B0BDE8F087BAF1010FD4
:105A400023681AD1EDB24246394620461D61FFF760
:105A500027FF02460028E5D1216820460B6843F461
:105A600080730B603B464FF00111CDF80080FFF7CB
:105A700087FE226860B11368B2E72A0A1A613946C4
:105A800042462046FFF70CFF0028CBD12368D9E718
:105A900049F001031361204643463A46024904B0E7
:105AA000BDE8F047FFF7BABE0200010070B504463A
:105AB0000D46164623685B695B0701D500201EE092
:105AC0002046FFF744FEC8B96A1CF3D0FFF736F84A
:105AD000801BA84201D8002DECD123685B6913F02C
