:020000040800F2
:100000000050002005570008215400082354000820
:100010002554000827540008295400080000000057
:100020000000000000000000000000002B54000849
:100030002D540008000000002F540008315400081F
:100040004D5700084D5700084D5700084D57000800
:100050004D5700084D5700084D5700084D570008F0
:100060004D5700084D5700084D57000835540008FB
:100070004D5700084D570008415400084D540008E2
:100080004D5700084D5700085954000865540008A2
:10009000715400084D5700084D5700084D5700088F
:1000A00075540008815400088554000889540008DC
:1000B0008D54000899540008A55400084D570008B5
:1000C0004D570008B1540008BD5400084D570008B2
:1000D0004D570008C95400084D5700084D570008F7
:1000E0004D5700084D5700084D570008000000000C
:1000F0000000000000000000000000000000000000
:0C01000000000000000000005FF808F1A3
:1001100010B5054C237833B9044B13B10448AFF341
:1001200000800123237010BD6C020020000000003D
:1001300038BF000808B5034B1BB103490348AFF3B0
:10014000008008BD000000007002002038BF0008D9
:1001500010F8012B11F8013B012A28BF9A42F7D071
:10016000D01A7047034613F8012B002AFBD1181A46
:10017000013870477BB972B90029BEBF00204FF02B
:10018000004106E008BF00281CBF6FF000414FF09F
:10019000FF3000F0B9B9ADF1080C6DE904CE0029CB
:1001A00009DB002B1ADB00F035F8DDF804E0DDE9AF
:1001B000022304B07047404261EB4101002B1BDB7E
:1001C00000F028F8DDF804E0DDE9022304B0404245
:1001D00061EB4101524263EB43037047524263EBD0
:1001E000430300F017F8DDF804E0DDE9022304B072
:1001F000404261EB41017047524263EB430300F020
:1002000009F8DDF804E0DDE9022304B0524263EBB3
:10021000430370472DE9F047089D0F4604468E467C
:10022000002B48D18A42164661D9B2FA82F24AB10D
:10023000C2F1200301FA02FE20FA03F3964043EADA
:100240000E0E94404FEA164CBEFBFCF1B7B20CFB0D
:1002500011EE01FB07F0230C43EA0E43984209D943
:10026000F31801F1FF3E80F0ED80984240F2EA8001
:10027000023933441B1AB3FBFCF00CFB103300FBB8
:1002800007F7A4B244EA0344A74209D9341900F19C
:10029000FF3380F0D980A74240F2D6803444023840
:1002A00040EA01400021E41B1DB10023D440C5E910
:1002B0000043BDE8F0878B4206D90DB1C5E90001C6
:1002C00000210846BDE8F087B3FA83F1002947D141
:1002D000BB4202D3824200F20481841A67EB03021C
:1002E00001209646002DE4D0C5E9004EE1E7002A42
:1002F00000F09080B2FA82F2002A40F0A780881BBA
:100300000121370C1FFA86FEB0FBF7FC07FB1C002F
:10031000230C43EA00430EFB0CF0984207D9F31874
:100320000CF1FF3802D2984200F2E080C4461B1A5A
:10033000B3FBF7F007FB10330EFB00FEA4B244EA58
:100340000344A64507D9341900F1FF3302D2A6456C
:1003500000F2C9801846A4EB0E0440EA0C40A3E763
:10036000C1F120068B4022FA06FC4CEA030C27FA66
:1003700006FA4FEA1C49BAFBF9F88F4020FA06F357
:1003800009FB18AA1FFA8CFE3B4300FA01F708FB91
:100390000EF01C0C44EA0A44A04202FA01F20BD906
:1003A0001CEB040408F1FF3A80F09980A04240F26F
:1003B0009680A8F102086444241A98B2B4FBF9F3B9
:1003C00009FB134403FB0EFE40EA0444A64508D98A
:1003D0001CEB040403F1FF307FD2A6457DD9023B1C
:1003E000644443EA0840A4EB0E04A0FB028E74456B
:1003F0004346F14661D35ED055B1FA1A64EB090465
:1004000004FA06F622FA01F31E43CC40C5E9006463
:1004100000214EE743084FEA510C43EAC1710A0C30
:1004200042EA0C428BB2C407B2FBF6F143EA024344
:10043000BCFBF6FCB646304637461F22181A41EA86
:100440000C4161E7714615E7184629E7C2F1200320
:1004500021FA03F0964024FA03F397403B43370C0C
:10046000B0FBF7F807FB18001FFA86FE190C41EAEB
:10047000004108FB0EF0884204FA02F43AD97118E0
:1004800008F1FF3C01D288421ED8091AB1FBF7F8E7
:1004900008FB0EF007FB18119BB243EA01438342AD
:1004A0002FD2F31808F1FF31C8D28342C6D2A8F187
:1004B00002013344C2E747459ED2B8EB02036EEB1C
:1004C0000C0E0138F14697E7301A0144A8F1020CEE
:1004D000B1FBF7F808FB0EF0DCE7034681E7D046F6
:1004E0006AE70846FEE63444023834E7ACF1020C11
:1004F00033441CE7091AC446B1FBF7F808FB0EF0B9
:10050000C8E741469AE700BF704700BF00220A498A
:1005100030B50B88094D013810F8014F14B902B1FC
:100520000B8030BD5A1C92B2B2F5006FEC5414BF70
:10053000134600230122EFE79A020020A2020020C6
:10054000074A10B51188074C4B1C9BB2B3F5006FDE
:10055000138008BF0023605408BF138010BD00BF84
:100560009A020020A202002038B500240D460E4B4E
:1005700001461C700D4B3F220D481C700BF01CF8FF
:100580000B4B1F2229460B4883F83F400BF014F811
:100590003222084BDC77084B1A601722074B1A707F
:1005A000074B1C7038BD00BF8C0F0020A60E00202A
:1005B000330F0020130F0020880F00208D0F002024
:1005C00098020020014B1878704700BFA50E00204C
:1005D000194B70B55B6806460D4614463BB347F2AF
:1005E000305316491648002A08BF1C460BF03AF84B
:1005F0000F22314613480AF0DFFF0023114A124947
:10060000D37328460A220AF043FF0A2220460F49E4
:100610000AF03EFF0E4B1B7863B10E4B187810F0BA
:10062000020003D0132206200B4B1A7070BD4FF04E
:10063000FF30FBE70120F9E78C02002050BF0008E3
:1006400005000020030F0020FD0E0020E70E002013
:10065000330F00208C0F00208D0F0020194B70B538
:100660005B6806460D4614463BB347F230531649C5
:100670001648002A08BF1C460AF0F4FF0F22314634
:1006800013480AF099FF0023114A1249D3732846F0
:100690000A220AF0FDFE0A2220460F490AF0F8FE5F
:1006A0000E4B1B7863B10E4B187810F0020003D08C
:1006B000132206200B4B1A7070BD4FF0FF30FBE782
:1006C0000120F9E78C02002054BF0008050000203B
:1006D000030F0020FD0E0020E70E0020330F002046
:1006E0008C0F00208D0F0020064B5B683BB1064B42
:1006F0001B7813F0400F0CBF0520072070474FF008
:10070000FF3070478C0200208C0F0020074A10B584
:100710001188074C4B1C9BB2B3F5806F138008BF48
:100720000023605408BF138010BD00BFA00200204A
:10073000A20A00202DE9FF471F463D4B04465B6897
:1007400088461546BDF83090002B6CD0394EDFF846
:10075000E8A033789AF8001003F040020A4365D00D
:100760001B0758D40A2201A938460AF091FE01A8B5
:10077000FFF7F8FC421ED2B2032A4AD82F48FFF7EF
:10078000C5FE9AF8003053B10A22694620460AF0A5
:100790007FFE6846FFF7BAFE2C20FFF7D1FE01A8C6
:1007A000FFF7B4FE2648FFF7B1FE002211462548A8
:1007B000DFF894C0038894B2A74216D801B1038031
:1007C0003378224C23F00C0343F00C03337023687E
:1007D0003BB11F489847236801A8984723681D48E4
:1007E0009847092004B0BDE8F0875C1CA4B2B4F5BA
:1007F000006F08BF0024691C18F8055089B20CF876
:1008000003500132494514BF0D46002523460121FE
:10081000D1E70B20E6E70D4B1B680BB90820E1E799
:100820000D489847FAE74FF0FF30DBE70520D9E79E
:100830008C0200208C0F0020A60E002063CD000843
:1008400058BF00089A020020A2020020740F002066
:100850005BBF0008A2C100086EBF000802460F4B34
:100860000068516803C390680D4A18600023137034
:100870000C4A13700C4A13800C4A13800C4A1380E4
:100880000C4A13800C4A13700C4A13700C4A1370F4
:100890000C4A13600C4A1360704700BF8C020020A2
:1008A0008D0F0020A40E00209C0200209A02002040
:1008B0009E020020A00200208C0F0020A60E002027
:1008C000A50E0020780F0020740F0020114A136835
:1008D0000BB1013B1360104A136823B1013B136055
:1008E0000BB90E4A13700E4A13680BB1013B13602B
:1008F0000C4A13686BB1013B136053B90A490A787B
:10090000100706D563F3C302084B0A701A88084B18
:100910001A807047880F0020840F0020A40E00204A
:10092000800F00207C0F00208C0F00209A020020F6
:100930009C0200202DE9F74FA64EA74A3388B2F853
:1009400000B000255B4506D0A44F3A78173A022A3A
:100950002AD8A6F800B0A24EA24C3368002B40F073
:10096000A88264239D4D33602B78192B00F2A1825D
:10097000DFE813F08404C502DE02E502F302F802A8
:1009800001030603190323035B036003700376036B
:1009900084038A03BB030204130422043104710498
:1009A00081049402B002BF0202228F498F4C0A6078
:1009B0009B45D0D08E4AD05C22780D2A00F244822A
:1009C000DFE812F00E005500CC0042024202B801EE
:1009D000CD01D601E3014202FE011B022D020C02F1
:1009E000002304219846DFF80CC2834ADFF80C92FA
:1009F0008CF8003011705FFA83FE59F82E10D1B9CF
:100A0000B8F1000F01D08CF800E00022764B754958
:100A10001A600B7813F0010F00F092803E2840F02E
:100A20008F8062F300030B70754B1A604FF496725F
:100A3000744B1A6084E091F804A00133824513D10D
:100A4000B8F1000F01D08CF800E00B784978303B0A
:100A5000313903EB830301EB43036B490B80012323
:100A60002370052313706BE04FF00108C3E7DFF834
:100A700084C162499CF8002051F822205E4909781F
:100A800012F801E0864514D1DFF87CC1BCF80030D3
:100A9000013B9BB2ACF800300BB10D284DD19378DF
:100AA000D278303B03EB8303303A02EB43032370ED
:100AB00046E000229146C1F57F4A8CF800200AF1F9
:100AC000D30ADFF838C15FFA82F85CF828C0BCF1BD
:100AD000000F0CD1B9F1000F04D04B4A1580454AE4
:100AE00082F800800022013B2270338028E09CF8CD
:100AF00000E09CF80150AEF1300E0EEB8E0E554426
:100B000005EB4E05ADB27F2D24D81CF801E08645DB
:100B100020D13D4B1D80B9F1000F02D0354B83F839
:100B2000008055B99CF802309CF80320303B03EB61
:100B30008303303A02EB430323702F4B01311970CA
:100B4000338801339BB2B3F5806F338004BF002339
:100B500033802DE74FF001090132B2E70A28EFD1C7
:100B600000232370234B1B78023B0F2BE8D801A2F4
:100B700052F823F0B50B0008110C00082D0C0008EA
:100B8000410B0008570C0008570C0008850C0008A2
:100B90008F0C0008D10C0008850C0008410B0008E0
:100BA000FB0C0008410B0008050D0008110D0008A2
:100BB000110D00083A78152AC2D8144BD340D80733
:100BC000BED50022064B1A60064A137843F0200374
:100BD00048E700BF9E020020A00200208D0F0020E9
:100BE000880F00208C0F0020840F0020A40E00200E
:100BF000A20A00208902002088020020E4CB00081D
:100C0000800F00207C0F0020A20E002054552000F1
:100C1000904A1378190793D523F0090313708E4B6C
:100C20001A888E4B1A808E4B002202E73B78102BDD
:100C300086D100228B4B1A60864A137823F0220358
:100C400043F022031370884B1B68002B3FF478AFEE
:100C50000320984774E77F4A137823F04203137008
:100C60003B78113B052B3FF66BAF7F4B1B680BB1FD
:100C7000002098477D4B1B78002B7FF461AF192330
:100C80003B705DE7734A137823F04003EAE6714A4C
:100C9000137823F0080313700022714B1A60734B12
:100CA0001B7873B1724B0A22187801A90AF0F0FB85
:100CB0007048FFF72BFC01A8FFF728FC6E48FFF7F0
:100CC00025FC694B1B68002B3FF43AAF0A20C0E7B4
:100CD000664B1B78002B7FF433AF624A13605D4A8A
:100CE000137823F0600343F0600313705E4B1B68BE
:100CF000002B3FF425AF0720ABE7564A137823F0CB
:100D00004203AFE6534A137823F042031370B6E769
:100D1000504A1378180706D523F0090313704E4B79
:100D20001A884E4B1A803B78013B102B3FF608AFD8
:100D30004C4B79E7514A2C28126807D106232370BF
:100D4000002A3FF4FDAE4E489047F9E60021013BF2
:100D500021703380002A3FF4F3AE4A48F4E722289A
:100D60007FF4EEAE072300222370474B1A80E7E69C
:100D7000222803D0444A1388102B01D1082396E679
:100D8000591C1180414AD054DAE60A287FF4D8AEC3
:100D900000233D4A237011883C4A0F299BBF5354BE
:100DA0002C4913700A789FBF42F020020A702D4A26
:100DB00013602D4B1B68002B3FF4C2AE042048E7A4
:100DC0002C287FF48FAE294B1B782BB10D230022EA
:100DD0002370274B1A70B3E60B23C4E72C28FBD0F3
:100DE000A0F13002092A3FF67DAE214A137803EBC9
:100DF000830300EB4303303B34E63A2801D10C2354
:100E000055E6A0F13002092A3FF66CAE1E4A13885F
:100E100003EB830300EB4303303B138090E61C4B52
:100E20009B6803B19847184A1388013B9BB2138013
:100E3000002B7FF485AE2370104B1B68002B3FF412
:100E40007FAE144898477BE60023134A2370136053
:100E500076E600BF8C0F00209A0200209C02002042
:100E60007C0F0020880F0020780F0020A60E0020A5
:100E7000A50E002086BF0008A1C10008740F002045
:100E800093BF0008A8BF0008A20E0020ED0E0020AE
:100E90008C020020BCBF0008840F0020974B00206C
:100EA0001B689847964B1B680BB1964898471823C8
:100EB0002B702378DA0740F1EA81934A126832B93D
:100EC000924A23F009031188914A2370118003B0DC
:100ED000BDE8F08F894B01201B689847884B1B6841
:100EE0000BB18C48984719232B704FF4FA73336079
:100EF000DFE7012300222B70874B1A70D9E7864A5F
:100F000013782BB1013BDBB213701BB91723CFE76A
:100F1000042313702378814823F020032370FFF704
:100F2000F5FA774B1B680BB17D4898470223BFE762
:100F30002378990601D50323BAE70123B8E7794856
:100F4000FFF7E4FA6E4B1B680BB17748984723789C
:100F500023F0200323700423AAE723789A06ECD514
:100F60000523A5E77148FFF7D1FA237823F0200382
:100F7000237006239CE723789B06DED5072397E79B
:100F80006B4B1B786BB16B48FFF7C0FA5C4B1B686F
:100F90000BB169489847237823F020032370082376
:100FA00086E76648F0E723789F06C6D5604B1B7836
:100FB000002B0CBF0F2309237AE76148FFF7A6FA3D
:100FC0002220FFF7BDFA5F48FFF7A0FA2220FFF7C3
:100FD000B7FA2C20FFF7B4FA2220FFF7B1FA5A48EB
:100FE000FFF794FA2220FFF7ABFA2C20FFF7A8FABC
:100FF0005648FFF78BFA2C20FFF7A2FA5448FFF768
:1010000085FA0D20FFF79CFA0A20FFF799FA3C4B6E
:101010001B680BB14F489847237823F020032370B7
:101020000A232B704FF4967361E723789E0684D5CC
:101030000B233DE74848FFF769FA314B1B680BB1BA
:1010400046489847237823F0200323700C232B7005
:10105000C8234CE7237898067FF56FAF0D2327E769
:101060003F48FFF753FA264B1B680BB13D489847A2
:10107000237823F0200323700E23E8E723789906D2
:101080007FF55BAF162313E7374F3B78002B3FF418
:1010900010AF3648FFF73AFA2220FFF751FA3846E8
:1010A000FFF734FA2220FFF74BFA2C20FFF748FA1B
:1010B0002220FFF745FA2E48FFF728FA2220FFF7F3
:1010C0003FFA0D20FFF73CFA0A20FFF739FA0C4BE4
:1010D0001B680BB127489847237823F0200323701F
:1010E00010232B7040F2DC5301E723789A067FF53A
:1010F00024AF112304222B70074BFEE68C02002044
:10110000740F0020CFBF0008800F00209A0200203B
:101110009C020020E5BF000898020020ADCD000829
:10112000FBBF00089FCD000809C000081DC00008D3
:10113000A60E00202FC000084BC000083DC00008CC
:1011400055CD0008C70E0020A70E00200200002089
:10115000000000205FC0000841CD000872C00008F8
:101160002DCD000886C00008330F002095CD000863
:10117000130F00209DC0000800225A4B5A481A70D5
:10118000FFF7C4F9594B1B680BB1594898472378AE
:1011900023F02003237012238AE623789B0601D5CF
:1011A000132385E6534A1378013BDBB21370002BFF
:1011B0003FF4C3AE11237BE64F4B1B78002B3FF46B
:1011C00078AE4E48FFF7A2F9484B1B680BB14C486C
:1011D000984714236CE64B48FFF798F92220FFF755
:1011E000AFF94948FFF792F92220FFF7A9F92C201F
:1011F000FFF7A6F92220FFF7A3F93F48FFF786F98A
:101200002220FFF79DF92C20FFF79AF93F48FFF7BE
:101210007DF93F493C48FEF79BFF58B92C20FFF76A
:101220008FF93C48FFF772F92C20FFF789F930203D
:10123000FFF786F90D20FFF783F90A20FFF780F901
:101240002A4B1B680BB134489847237823F060037E
:1012500023701523FBE6237813F0200203D043F01C
:10126000400323700EE762F386139F0723707FF518
:1012700064AE1423D5E6294B1B780BB1002336E668
:10128000237898077FF559AE590689D5F6E7244D9E
:1012900024492A88098891423FF419AE224E5F07FB
:1012A000B05C02D53E2808BF0A20204B5B689847F7
:1012B00000283FF40CAE22782B8851070AD5F15C48
:1012C0003E2907D1322122F0050242F001022270AC
:1012D000174A116001339BB2B3F5006F08BF0023BA
:1012E0002B80F4E5ED0E00208ACD0008740F00205D
:1012F000B0C0000898020020030F00206FCD000846
:10130000C1C000087DCD000805000020FD0E0020B2
:1013100050BF0008E70E0020D7C00008A60E00202E
:101320009C0200209A020020A20200208C020020D1
:10133000800F0020014B1860704700BF780F00201D
:10134000014B1860704700BF740F00200022F0B5F9
:10135000084BD4B2A14202F1010200D8F0BD5D7980
:101360001E686F1C5F71045D74555C79DD792C40DB
:101370005C71EEE7AC240020021E18BF01224FF47E
:101380000071014805F02AB8000C01401FB5144651
:101390001A464FF0FF330091CDE901430146012386
:1013A000024805F0BBFA04B010BD00BF04270020BE
:1013B000FFF7ECBF13B514461A46CDE9001401231C
:1013C0000146024805F03AFB02B010BD0427002098
:1013D00013B514461A46CDE900140123014602480C
:1013E00005F0F2FB02B010BD0427002007B5012272
:1013F0008DF807000DF10701034808F0E2F9B0FA93
:1014000080F0400903B000BD1425002010B504464B
:10141000FEF7A8FE81B22046BDE8104009F07EBE6E
:1014200010B5164B1B78F3B115490C78FF2C15D06D
:101430007E2C144B13D818550020621CD2B2012AFE
:101440000A7098540AD0134413F8022C0D2A05D1BF
:1014500013F8013C0A2B01D1FF230B7010BD0022B1
:101460000A701A70FAE7084B5A791968541C5C71B3
:1014700088545A79D9790A405A71EFE7EB1F002056
:10148000EC1F0020ED1F002094240020032810B53D
:10149000184C15D10C21184B18481A78184B01FB21
:1014A00002330F2299680AF087F80023134A237049
:1014B000D3730122134B1A700522134B1A7010BDFF
:1014C000124B22781B7813431843C0B20028F6D180
:1014D000012340F6B8320C2123700D4BBDE81040BB
:1014E0001A80054B064A1B784B43D1184968D058DF
:1014F000FFF73AB8E8170020E91700206400002041
:1015000034E30008EA17002074000020EB1F0020DD
:101510005C000020038830B58B421FD2C38B8B4206
:1015200019D9002330F8024BA14211D3028891420D
:101530000ED80B48121BC55A0230C35A091B5B1B3D
:10154000500801FB0300B0FBF2F0284480B230BD2C
:1015500002331E2BE6D14FF47A70F8E70020F6E74D
:1015600094E200084FF47A7381EAE172A2EBE1722F
:1015700013B5B2FBF3F403FB14220A230029B2FBD8
:10158000F3F20DDA074954EA0203074B08BF0B4692
:10159000CDE900421021054A09F0BEFF02B010BD9E
:1015A000004BF5E7A3C10008EDC00008EFC000083C
:1015B00042F2107381EAE172A2EBE17213B5B2FB61
:1015C000F3F403FB142264230029B2FBF3F20DDAD7
:1015D000074954EA0203074B08BF0B46CDE9004216
:1015E0001021054A09F098FF02B010BD004BF5E745
:1015F000A3C10008EDC00008EFC00008054B064A73
:1016000003F1100153F8040B8B4242F8040BF9D19B
:10161000704700BFD4240020C42400200122014BC5
:101620001A7070470D2500200122014B1A70704777
:101630000C2500200268264B10B59A42044612D1B0
:10164000244A2549137825480133DBB2282B01BFF2
:1016500000231370224A137808BF43F080031370ED
:10166000082204F037FA2368B3F1804F18D11D4ADD
:1016700013782BB11378012B02D01378022B08D1E9
:101680000124194919480B78C454234403F00F036B
:101690000B7017490B78013B13F0FF0301D00B705F
:1016A00010BD14230B701378032B02D01378042B76
:1016B000F6D101200C4A0D491378C8540344002088
:1016C00003F00F03C854013303F00F031370E7E76F
:1016D000002C01400E250020D42400209C2700204F
:1016E0008E20002010250020E4240020E524002086
:1016F0007A000020F0B5026883790C46D15C05467B
:10170000A1F1A00391B0512B00F21987DFE813F08B
:1017100052005C006C00B80007013201AB01C80147
:10172000530171018E010A0250046D048A04A7045A
:10173000C404E1042902FE041B05380555057305A0
:101740009105AF051707170717071707170717079B
:10175000CD0544026102EB0568066C068A06A80600
:10176000C606E40602072A064906170717071707E1
:101770001707170717071707170717071707170779
:101780001707170717071707170717071707170769
:101790001707170717071707170717071707170759
:1017A0001707170717071707170717071707170749
:1017B0008602CC03A0210222204603F0AAFE0D21BE
:1017C000204603F0EEFE08E0A1210D22204603F0A2
:1017D000A0FE2046C14903F0F7FE2046217A11B051
:1017E000BDE8F04003F0DDBE0D22A221204603F04B
:1017F00090FEBB4BBB4DB3F9001020462980C9B207
:1018000003F0CFFE6978204603F0CBFEB64B2046AE
:10181000B3F900102980C9B203F0C3FE69782046ED
:1018200003F0BFFEB14B2046B3F900102980C9B2C6
:1018300003F0B7FE6978204603F0B3FEAC4B2046B8
:10184000B3F900102980C9B203F0ABFE69782046D5
:1018500003F0A7FEA74B2046B3F900102980C9B2B8
:1018600003F09FFE6978204603F09BFEA24BB3F97C
:10187000001029802046C9B203F093FE69789FE7E3
:101880009E4E1122A321204603F043FE954D318840
:1018900020462980C9B203F084FE6978204603F00F
:1018A00080FE718820462980C9B203F07AFE6978EB
:1018B000204603F076FEB18820462980C9B203F0A5
:1018C00070FE6978204603F06CFEF188204629807E
:1018D000C9B203F066FE6978204603F062FE3189E2
:1018E00020462980C9B203F05CFE6978204603F0E7
:1018F00058FE718920462980C9B203F052FE6978EA
:10190000204603F04EFEB18920462980C9B203F07B
:1019100048FE6978204603F044FEF189A9E70222D7
:10192000A421204603F0F5FD0D21204603F039FEE9
:10193000217A204603F035FE00220121284603F0DB
:1019400068FE684C002201212070284603F061FEE9
:101950006070B4F900202388002A6949694AB5BF3C
:101960005B4213800B800023B6BF00230B801380E3
:1019700011B0F0BD0222A521204603F0CAFD0D21C1
:10198000204603F00EFE217A204603F00AFE0022D4
:101990000121284603F03DFE524C00220121207017
:1019A000284603F036FE6070B4F900202388002A30
:1019B0005549564AD3E70222A821204603F0A9FD43
:1019C0000D21204603F0EDFD217A204603F0E9FDCC
:1019D00000220121284603F01CFE424C0022207008
:1019E0000121284603F015FE60702288484B1A80BA
:1019F000BEE70222A921204603F08BFD0D212046DF
:101A000003F0CFFD217A204603F0CBFD0022012117
:101A1000284603F0FEFD334C0022207001212846A9
:101A200003F0F7FD607022883A4BE0E70222AA211A
:101A3000204603F06EFD0D21204603F0B2FD217A11
:101A4000204603F0AEFD00220121284603F0E1FD0F
:101A5000244C002220700121284603F0DAFD60703A
:101A600022882D4BC3E70222A621204603F051FD18
:101A70000D21204603F095FD217A204603F091FDCB
:101A800000220121284603F0C4FD164C00222070DC
:101A90000121284603F0BDFD607022881F4BA6E798
:101AA0000222A721204603F034FD0D21204603F039
:101AB00078FD217A204603F074FD0022012128469A
:101AC00003F0A7FD074C002220700121284603F0F7
:101AD000A0FD60702288124B89E700BF70E3000808
:101AE0000A2500209020002008250020062500203F
:101AF000042500200225002000250020C424002009
:101B000088200020862000208C2000208A200020B1
:101B10005400002052000020A81700204C00002094
:101B20004E0000200222AB21204603F0F2FC0D21E2
:101B3000204603F036FD217A204603F032FD0022D4
:101B40000121284603F065FD304C00222070012160
:101B5000284603F05EFD6070B4F900202C4B1A603B
:101B600006E70222B221204603F0D3FC0D212046D5
:101B700003F017FD217A204603F013FD0022012116
:101B8000284603F046FD214C002220700121284602
:101B900003F03FFD6070EBE60222C121204603F016
:101BA000B8FC0D21204603F0FCFC217A204603F00E
:101BB000F8FC00220121284603F02BFD134C0022E3
:101BC00020700121284603F024FD60702288114B0B
:101BD0000DE70222C221204603F09BFC0D21204686
:101BE00003F0DFFC217A204603F0DBFC0022012118
:101BF000284603F00EFD054C0022207001212846E6
:101C000003F007FD60702288034BF0E6902000206F
:101C100044000020780000207600002000254F229C
:101C2000F021204603F075FCB94B03AF1B88ADF8DB
:101C30000C30B84B1B88ADF80E30B74B1B88ADF895
:101C40001030B64B1B88ADF81230B54B1B88ADF881
:101C5000143037F9026B2046F1B203F0A2FC0135D3
:101C60002046C6F3072103F09CFC052DF1D1AD4DB4
:101C70002046297803F095FC6978204603F091FC12
:101C8000A978204603F08DFCE9780025204603F072
:101C900088FCA54BADF830501B8809AFADF8243057
:101CA000A24B1B88ADF82630A14B1B88ADF828301D
:101CB000A04B1B88ADF82A309F4B1B88ADF82C3009
:101CC0009E4B1B88ADF82E3037F9026B2046F1B2DF
:101CD00003F067FC01352046C6F3072103F061FCE1
:101CE000072DF1D10025964B06AF1B88ADF81830B3
:101CF000944B1B88ADF81A30934B1B88ADF81C3001
:101D0000924B1B88ADF81E30914B1B88ADF82030EC
:101D1000904B1B88ADF8223037F8026B2046F1B2A9
:101D200003F03FFC01352046310A03F03AFC062D52
:101D3000F2D10025884B01AF1B88ADF80430874BEA
:101D40001B88ADF80630864B1B88ADF80830854BF4
:101D50001B88ADF80A3037F8026B2046F1B203F069
:101D600020FC01352046310A03F01BFC042DF2D182
:101D70007D4B0021B3F90050204603F012FC0021F6
:101D8000204603F00EFCE9B2204603F00AFCC5F33E
:101D90000721204603F005FC744B754AB3F9006037
:101DA000B2F900501978204603F0FBFBC6F3072177
:101DB000204603F0F6FBE9B2204603F0F2FBC5F340
:101DC00007216C4D204603F0ECFB2978204603F0F8
:101DD000E8FB6978204603F0E4FBA978204603F08D
:101DE000E0FBE978204603F0DCFB634B634AB3F980
:101DF0000060B2F900501978204603F0D2FBC6F318
:101E00000721204603F0CDFBE9B2204603F0C9FBD1
:101E1000C5F307215A4D204603F0C3FB297820461D
:101E200003F0BFFB6978574D204603F0BAFBA97851
:101E3000204603F0B6FB69882046090A03F0B1FB8F
:101E4000A979204603F0ADFBE9882046090A03F092
:101E5000A8FBA97A204603F0A4FB69894A4D090A28
:101E6000204603F09EFB29882046C9B203F099FB67
:101E70002988464DC1F30721204603F092FB2988AB
:101E80002046C9B203F08DFB2988414DC1F30721DB
:101E9000204603F086FB29882046C9B203F081FB67
:101EA0002988C1F307218BE400261D22F121204659
:101EB00003F02FFB374B09AF1B680993364B1B68A8
:101EC0000A93364B1B680B93354B1B680C93354BB1
:101ED0001B680D93344B1B680E93344B1B680F9398
:101EE00057F8045B2046E9B203F05BFBC5F307211A
:101EF000204603F056FBC5F30741204603F051FB93
:101F000001362046290E03F04CFB072EE8D164E48D
:101F100054000020A8170020520000204C00002090
:101F20004E00002044000020380000203600002031
:101F3000A6170020A4170020300000204000002039
:101F40002800002018000020240000201600002097
:101F500026000020140000204A0000204800002035
:101F600078000020760000203E0000203C00002089
:101F70003A000020CC1700202E0000202C0000206A
:101F80002A000020C4240020E6170020E4170020C7
:101F9000E2170020BC170020B0170020B417002063
:101FA000AC170020C8170020881700205800002018
:101FB0000222AC21204603F0ACFA0D21204603F0AA
:101FC000F0FA217A204603F0ECFA0022012128469B
:101FD00003F01FFBD34C002220700121284603F0A0
:101FE00018FB60702288D04B01E50222AD2120460B
:101FF00003F08FFA0D21204603F0D3FA217A204610
:1020000003F0CFFA00220121284603F002FBC54C61
:10201000002220700121284603F0FBFA607022881C
:10202000C24BE4E40222AE21204603F072FA0D21F5
:10203000204603F0B6FA217A204603F0B2FA0022D5
:102040000121284603F0E5FAB64C00222070012158
:10205000284603F0DEFA60702288B54BC7E40222FE
:10206000AF21204603F055FA0D21204603F099FADE
:10207000217A204603F095FA00220121284603F038
:10208000C8FAA84C002220700121284603F0C1FAAA
:1020900060702288A74BAAE40222B021204603F0F8
:1020A00038FA0D21204603F07CFA217A204603F00D
:1020B00078FA00220121284603F0ABFA994C00225D
:1020C00020700121284603F0A4FA607022889A4B00
:1020D0008DE40222B121204603F01BFA0D21204697
:1020E00003F05FFA217A204603F05BFA0022012117
:1020F000284603F08EFA8B4C0022207001212846DE
:1021000003F087FA607022888C4B70E40222B321BE
:10211000204603F0FEF90D21204603F042FA217A11
:10212000204603F03EFA00220121284603F071FA0E
:102130007C4C002220700121284603F06AFA60706E
:1021400022887F4B53E40222B421204603F0E1F9B8
:102150000D21204603F025FA217A204603F021FACA
:1021600000220121284603F054FA6E4C0022207010
:102170000121284603F04DFA60702288714B36E445
:102180000222B521204603F0C4F90D21204603F0B8
:1021900008FA217A204603F004FA00220121284699
:1021A00003F037FA5F4C002220700121284603F02B
:1021B00030FA60702288644B19E40222B62120466E
:1021C00003F0A7F90D21204603F0EBF9217A204610
:1021D00003F0E7F900220121284603F01AFA514CD6
:1021E000002220700121284603F013FA6070228833
:1021F000564BFFF7FCBB0222B721204603F089F9BA
:102200000D21204603F0CDF9217A204603F0C9F9CB
:1022100000220121284603F0FCF9424C00222070E4
:102220000121284603F0F5F960702288484BFFF73A
:10223000DEBB0222B821204603F06BF90D212046B7
:1022400003F0AFF9217A204603F0ABF90022012117
:10225000284603F0DEF9334C002220700121284685
:1022600003F0D7F9607022883A4BFFF7C0BB022217
:10227000B921204603F04DF90D21204603F091F9D4
:10228000217A204603F08DF900220121284603F02F
:10229000C0F9244C002220700121284603F0B9F92E
:1022A000607022882C4BFFF7A2BB0222C02120467F
:1022B00003F02FF90D21204603F073F9217A20460F
:1022C00003F06FF900220121284603F0A2F9154C12
:1022D000002220700121284603F09BF960702288BB
:1022E0001E4BFFF784BB0222C321204603F011F9E5
:1022F0000D21204603F055F9217A204603F051F9CB
:1023000000220121284603F084F9064C00222070A7
:102310000121284603F07DF960702288104BFFF7F9
:1023200066BB00BF9020002038000020360000204F
:10233000A6170020A4170020300000204000002035
:102340002800002018000020240000201600002093
:1023500026000020140000204A0000204800002031
:102360003E0000200222CB21204603F0D2F80D21AE
:10237000204603F016F9217A204603F012F90022D4
:102380000121284603F045F9704C002220700121FC
:10239000284603F03EF96070B4F900206C4BFFF75B
:1023A000DEBB0222CC21204603F0B3F80D212046EB
:1023B00003F0F7F8217A204603F0F3F80022012118
:1023C000284603F026F9614C00222070012128469E
:1023D00003F01FF96070B4F900205E4BFFF7BFBB3C
:1023E0000222C421FFF7BFBB0222C521204603F011
:1023F00090F80D21204603F0D4F8217A204603F00E
:10240000D0F800220121284603F003F94F4C0022A6
:1024100020700121284603F0FCF8607022884E4BA2
:10242000FFF7E5BA0222C621204603F072F80D211B
:10243000204603F0B6F8217A204603F0B2F80022D5
:102440000121284603F0E5F8404C002220700121CC
:10245000284603F0DEF860702288404BFFF7C7BAC9
:102460000222C721204603F054F80D21204603F034
:1024700098F8217A204603F094F80022012128469A
:1024800003F0C7F8314C002220700121284603F0E8
:10249000C0F860702288324BFFF7A9BA0222C82127
:1024A000204603F036F80D21204603F07AF8217A11
:1024B000204603F076F800220121284603F0A9F80F
:1024C000224C002220700121284603F0A2F86070FF
:1024D0002288244BFFF78BBA0222C921204603F041
:1024E00018F80D21204603F05CF8217A204603F00D
:1024F00058F800220121284603F08BF8134C0022E3
:1025000020700121284603F084F860702288164B61
:10251000FFF76DBA154D04222B88CA2101332046DE
:102520002B8002F0F6FF0D21204603F03AF82988AF
:102530002046090A03F035F82978FFF741B902224D
:10254000204602F0E6FFFF21FFF73AB99020002075
:10255000200000201C0000203C0000203A00002049
:102560002E0000202C0000202A0000206C170020E4
:10257000F0B516464379027905469A420C46C3B037
:102580001DD003F053F8D0B1012E04BF0022154B2B
:102590002146284608BF1A70FFF7ACF80022617A7E
:1025A00002A8D3B299420CD8C6B1FEF70BF84FF48B
:1025B000807300930022637A02A9FEF7BBF843B050
:1025C000F0BDA77925687B1CDBB2A371ED5D0132FC
:1025D00000F8015BE5792B40A371E2E702A808F05F
:1025E0009DFDECE77400002010B50D4B0D4C1A78E2
:1025F0000D4B0E4853F822100122237802FA03F300
:102600008B4308BF1A464FF4005103F0E7FE2378CE
:102610000133DBB2142B28BF0023237010BD00BF91
:102620000F2500206A1700208000002000100140C4
:102630002DE9F0418C4B8D4C1B788AB0032B5FFA4F
:1026400083F840F02B810025012002F0F3FA4023AB
:10265000202229461E20009502F03CFC16238022F1
:1026600014212846009502F035FC402352222946C9
:102670005020009502F02EFC7D4E2946282002F0C5
:10268000DDFB7C4902A808F0EDFF96E80E000095FE
:1026900002A802F0BDFB2946552002F0CFFB764987
:1026A00002A808F0DFFF96E80E00009502A802F0ED
:1026B000AFFB1921282002F0C1FB704B2021B3F998
:1026C00000306F4A02A808F027FF94E80E0000953A
:1026D00002A802F09DFB1921552002F0AFFB694BC7
:1026E0002021B3F90030664A02A808F015FF94E8EB
:1026F0000E00009502A802F08BFB2521282002F095
:102700009DFB614B2021B3F900305D4A02A808F01F
:1027100003FF94E80E00009502A802F079FB252142
:10272000552002F08BFB594B2021B3F90030544A5D
:1027300002A808F0F1FE94E80E00009502A802F04D
:1027400067FB3121282002F079FB514B2021B3F99E
:1027500000304B4A02A808F0DFFE94E80E00009516
:1027600002A81E2602F054FB3121552002F066FB20
:10277000484B2021B3F90030414A02A808F0CCFEB2
:1027800094E80E0040F6FA74434F009502A802F058
:102790003FFB3B8842467343B3FBF4F3C3F13C0376
:1027A0003C214046DBB2009502F04EFB7B880622BE
:1027B0007343B3FBF4F3C3F13C0310463C21DBB29B
:1027C000009502F041FBBB8809227343B3FBF4F38D
:1027D000C3F13C0310463C21DBB2009502F034FB10
:1027E000FB880C227343B3FBF4F3C3F13C031046A4
:1027F0003C21DBB2009502F027FB3B890F2273439B
:10280000B3FBF4F3C3F13C0310463C21DBB200956B
:1028100002F01AFB7B8912227343B3FBF4F3C3F17A
:102820003C0310463C21DBB2009502F00DFBBB8956
:1028300015227343B3FBF4F3C3F13C0310463C2170
:10284000DBB2009502F000FB1822FB893C217343A8
:10285000B3FBF4F31046C3F13C030095DBB202F086
:10286000F3FA0AB0BDE8F08110250020C0CD0008C1
:10287000B4CD0008FBC00008FFC000080A250020F6
:1028800003C100080425002008250020022500209F
:102890000625002000250020C4240020002002F08E
:1028A000C9F902210125084602F0C8FA94E80E0091
:1028B0004548009502F0ACFA0221242002F0BEFA4D
:1028C000424B20211B68424A02A808F025FE94E8EA
:1028D0000E00009502A802F09BFA1121022002F0DE
:1028E000ADFA94E80E003B48009502F091FA1121F0
:1028F000242002F0A3FA0522374B20211B6802A8EE
:1029000003EB430393FBF2F3344A08F005FE94E82B
:102910000E00009502A802F07BFA2021022002F0AE
:102920008DFA94E80E002E48009502F071FA2021ED
:10293000242002F083FA64212A4E02A8326892FB16
:10294000F1F301FB1322002AB8BF5242202100926A
:10295000254A08F0E1FD94E80E00009502A802F077
:1029600057FA2F21022002F069FA94E80E001F485E
:10297000009502F04DFA24202F2102F05FFA42F276
:1029800026323368009503F58C531333934298BF76
:10299000174894E80E0088BF164802F039FA01245F
:1029A0000E237F2219460020009402F04DFA1D23C9
:1029B0007F2219460020009402F046FA2C237F2241
:1029C0001946002000944AE706C10008FC240020B4
:1029D0000BC1000814C10008F824002019C1000828
:1029E00023C10008C8170020F1C0000828C1000852
:1029F0002DC1000837C1000837B53F4B3F4C1A784E
:102A00002AB11A78012A02D01B78022B16D123781A
:102A1000013B012B12D800232370394A394B11781E
:102A20001B788B4208D038484B1C415C03F00F03E5
:102A300091B103212170137003B030BD2378032BB3
:102A400057D801A252F823F01B2A00085D2A00087B
:102A5000672A0008812A00080121EBE7FFF7E8FD5B
:102A600002232370E8E7294805F0A2F82028E3D1E3
:102A700002F006F90028DFD00023254A1370F0E7A2
:102A8000224805F098F8234D10B14FF47A732B606B
:102A90001E4805F08DF8202816D102F011F898B1E3
:102AA0001D4B1E4A01931E4B1E4900931E481F4B8F
:102AB00002F04EF800231E4A1E4913700A7842F0B5
:102AC00008020A702B60CCE72B680133B3F5FA7F5C
:102AD0002B60B1D90D4803F007FF012002F080FE02
:102AE0000A4803F059FE01F0B5FF01F0DBFF0023B7
:102AF000E8E70023B5E700BF102500206917002094
:102B000068170020E4240020E5240020042700208A
:102B10000D25002064170020002500200625002038
:102B200002250020082500200A2500200425002079
:102B30000C2500208E200020074B084A1B681288B5
:102B40005A63074A1288DA63064A12889A63064A69
:102B500012881A64704700BFA42500208C20002032
:102B6000882000208A200020862000202DE9F041C6
:102B700098B010AE14AF044610220021304608F081
:102B800001FD10220021384608F0FCFC2F4B304696
:102B90001968FEF70DFD2E4B38461968FEF7E2FC6A
:102BA0002C4D2D4B2D4A2E492E48DFF8BCC0DFF8A6
:102BB000BCE0DFF8BC801B881288098800882D885B
:102BC000BCF800C0BEF800E0B8F80080CDE90E67A0
:102BD000284E1BB2B6F9006012B20D96264E09B20D
:102BE000B6F9006000B20C96244E2DB2B6F9006022
:102BF0000FFA8CFC0B96224E0FFA8EFEB6F900608F
:102C00000FFA88F80A961F4EB6F9006009961E4E14
:102C1000B6F90060CDE90121CDE9030500934FF439
:102C200000611A4B1A4A1B48CDE905CECDE907864B
:102C300008F072FC4FF4006300220093154983B240
:102C40002046FDF777FD18B0BDE8F081CC170020D5
:102C500074170020DE170020E6170020E41700207C
:102C6000E2170020E0170020DC170020DA17002010
:102C7000D817002000250020022500200425002070
:102C800006250020082500200A2500203DC1000857
:102C9000A4C10008EB1700202DE9F04798B010AE52
:102CA00014AF044610220021304608F06BFC1022BD
:102CB0000021384608F066FC394B30461968FEF7AB
:102CC00077FC384B38461968FEF74CFC364BDFF87A
:102CD000DCA0B3F80090364BBAF900A01A88354B47
:102CE000DFF8D4C01988354BDFF8D4E01888354BAD
:102CF000DFF8D4801D88354B12B21B88BCF800C0A9
:102D0000BEF800E0CDF838A0DFF8C4A00FFA8CFCC4
:102D1000BAF900A009B2CDF834A0DFF8B8A000B22B
:102D2000BAF900A02DB2CDF830A0DFF8ACA01BB2EC
:102D3000BAF900A00FFA8EFECDF82CA0DFF89CA007
:102D4000BAF900A0CDF828A0DFF894A0BAF900A045
:102D5000CDE9043CCDE90021CDE902050FFA89F364
:102D600040F29E7140461F4ACDE906E6CDE9087A59
:102D700008F0D2FB4FF400611B4B1C4ACDF80080D9
:102D80001B4808F0C9FB4FF4006300220093184968
:102D900083B22046FDF7CEFC18B0BDE8F08700BF37
:102DA000CC17002074170020E61700200025002013
:102DB000E4170020E2170020E0170020DA170020B7
:102DC000D8170020DE170020C50F0020DC170020D8
:102DD00002250020042500200625002008250020CB
:102DE0000A2500202FC200083AC900087AC9000845
:102DF000EB17002013B50A4B044600934FF4006113
:102E0000084B094A094808F087FB4FF40063002289
:102E100000932046B3230549FDF78CFC02B010BD9A
:102E20007FC900083AC900087AC90008EB170020DA
:102E30002DE9F0470024DDE908760C7098461470FF
:102E40001C7047F23A5305468A46304642493B8059
:102E5000914608F007FC2846404908F0C0FB58B1ED
:102E6000043010F8013FE2B213F0DF0F01D0262B3F
:102E70004DD100230AF802302846394908F0AFFB4B
:102E800060B10023043010F8012FD9B212F0DF0F27
:102E900001D0262A45D1002309F8013028463149BE
:102EA00008F09DFB60B10023033010F8012FD9B268
:102EB00012F0DF0F01D0262A3DD1002308F801309F
:102EC0002846294908F08BFB48B10023053010F84B
:102ED000012F303AD1B2092934D903B13B802846B9
:102EE000224908F07CFBA8B3C41D032220462049D8
:102EF00008F050FB28B1032220461E4908F04AFB87
:102F000030BB1B493046BDE8F04708F0ABBB2B2B6C
:102F100008BF20230AF8043001343F2CA1D12246F7
:102F2000A7E72B2A08BF202209F8032001333F2BF3
:102F3000A9D11946AFE708F8032001330F2BB4D10C
:102F40001946BAE703EB830302EB430293B2BEE7F1
:102F50000149D7E7BDE8F08750BF0008F4C9000871
:102F6000FAC9000800CA000805CA00080CCA00080F
:102F700054BF000814CA00082DE9F043464BA9B01D
:102F80001A78B2B10022454945481A70FDF7E0F8B9
:102F9000444B47F23152198828B9434829B0BDE85B
:102FA000F043FDF75BBB404829B0BDE8F043FDF7B7
:102FB0000FBB3E4F3B78ABB13D4E3378FF2B11D169
:102FC000FDF700FB3B4905463B4808F008FB04467B
:102FD00058B12846FFF7CAFD092803D10023364A15
:102FE0003370137029B0BDE8F0833449324808F0DB
:102FF000F6FA002845D04022214608A808F0C2FA77
:103000004022214618A808F0BDFA102221460DEBF7
:10301000020008F0B7FA2A4B0DF10C0803930DF1EA
:103020000A030093244804ABCDF8048018AA08A929
:10303000FFF7FEFE9DF810309DF80C9033B11A4B4F
:103040000F22184604A908F0B7FAC473BDF80A3075
:103050000BB1144A1380B9F1000F03D04146104858
:1030600008F000FB2846FFF7C5FE0928BAD1002367
:10307000114A18A908A83B7033701370FDF774FA51
:10308000B0E710490C4808F0AAFA0028A6D0284654
:10309000FFF702FEA0E700BFEA17002054BF0008B8
:1030A0005E0000206200002064000020EB1F002072
:1030B000EC1F002018CA0008ED1F002022CA0008DB
:1030C000554450002CCA000840F20123038000231D
:1030D00083708380C380704702780346032A1DD81B
:1030E000DFE802F00F021407427842B903221A7097
:1030F00005E0417801220029F9D101708270002099
:1031000070474278012AFAD10222F0E74078002283
:103110000128ECD118709A70D87170470122E6E747
:1031200070B504464FF400411D4803F051F9A678EC
:103130001C4A1D491D4DAEB188B113780133DBB275
:10314000072B137003D9012363700023137000232E
:103150000B702B78EBB1A3880A33A38070BD60702D
:103160001070F4E70B781670042B0FD9003818BFD5
:1031700001200E70607000232B70A3796BB1A388BF
:10318000002BEBD0092B08D90A3BE6E701330B7083
:10319000F1E7A38001232B70DDE70023DDE700BF0B
:1031A000000C0140C40F0020C30F0020C20F0020FC
:1031B00037B53E4D2B78DB0934D02B7823F08003D4
:1031C0002B70FDF783FB3A48FFF7AAFF394890F8C8
:1031D0004230222B09D0036837491A685B682023E4
:1031E000012280F8423006F0CCFC344B1B7823B12E
:1031F00033490A88C2B1013A0A80324A1378013B46
:1032000013F0FF0303BF022313702B78137004BF66
:1032100043F040032B702C4B1C78013C14F0FF044E
:1032200017D01C7003B030BD284803780133DBB2DF
:10323000042B94BF1A461346027040F6B8320A8037
:103240000C214B43224AD1184968D058FDF78CF91C
:10325000D3E70A221A702B7843F020032B70FFF774
:10326000C3F91C4A13780133DBB2092B01D8137060
:10327000D8E71470184C2378042B9CBF01332370BB
:10328000164B1D78002DCDD1FDF72EFA0728C9D198
:103290002378042BC6D94FF480732A46009328461E
:1032A00009230F49FDF746FABCE700BF8E20002036
:1032B0006E2000201425002084200020E817002024
:1032C0005C0000207B0000207C000020E91700202B
:1032D00034E300088520002074000020EB1F00204C
:1032E0000B000020F8B583780446002B4CD183886E
:1032F000002B49D18379002B46D0C579EDB140F63A
:10330000B732A388934258D8A3F5FA62B2F57A7F10
:1033100057D2374804F04CFC202838D10025042629
:10332000E571344B1E7001F0EDFC012001F006FE4A
:10333000314BA5711E70A58029E02D4804F038FCA2
:10334000202824D1284601F075FC01F07FFC94F878
:1033500006C02A492A4ABCF1020FB1F90030B2F97D
:103360000000244F244E24D0BCF1030F10D0BCF138
:10337000010F1ED13570234E3D703380224B0D80DE
:10338000188015800023A371E379002BB7D1F8BD15
:103390004FF0020C87F800C01C4F86F800C03D704B
:1033A0000343EFD1174B1B880B80174B1B881380EF
:1033B000E8E701253D703570F2E70023E371A38053
:1033C000E5E7A3F57A73B3F57A7F08D2084804F0ED
:1033D000EFFB2028DBD100250326E571A1E70023C0
:1033E000E371A3790133A3714FF4C873E7E700BF1A
:1033F00004270020102500200F2500203800002081
:103400003600002034000020320000207C1700200D
:10341000C72AF8B5CCBF00240124C729D8BF01347E
:10342000794F1D463B78C728D8BF0134032B00F2E3
:10343000E880DFE813F0040010006C00E200C72908
:1034400002DC01233B7009E0704B714AB3F9003094
:103450005B42136002E0032C01D13C70F8BD6D4E5D
:103460006D4914BB3388086801339BB2052B338048
:103470000FD90028B4BF01224FF0FF32674B3480D0
:103480001C80674B1C70674B1C60674B1A700223D3
:10349000D8E7664B1860664B1A685D4B1A60654B3F
:1034A0000860B3F900302B60D8E7002333804FF475
:1034B0007A735A43604C04FB0020604A126890FB08
:1034C000F2F00A2290FBF2F0584A80EAE0741060B1
:1034D0005B4AA4EBE07414605A4AB2F900204243FC
:1034E000624392FBF3F2584B494CB3F9003000FBB6
:1034F0000322564B2260B3F900309A4202DD1A468D
:10350000236002E05B429A42F9DB494BC6E7C729D8
:1035100097DD41F288304E4B4E4A1B88B2F90010BD
:103520001BB2C91A4C4A002381FB0001FCF722FEA2
:103530003C4B3B491A680C7810446FF063021860EA
:103540002A60334A032C56D8DFE804F0021A283FD9
:10355000354C94F90040002C404CC8BF4FF4AF7478
:10356000146047F22F520028B8BF404290427FF7C4
:1035700075AF00221A60294B1A8001230B706DE78A
:103580000024264814600288013292B2632A028025
:103590007FF664AF1C6004800223EFE7224C94F9AD
:1035A0000040002C2D4CD8BF4FF4AF7414604EF681
:1035B0005F220028B8BF404290427FF74FAF002201
:1035C0001A60164B1A800323D8E7174C94F9004071
:1035D000002C224CC8BF4FF4AF7400281460204A5E
:1035E000B8BF404290427FF739AF00221A600B4BC0
:1035F0001A800423C2E700232BE7032C7FF421AFBA
:103600002CE700231EE700BF8017002030000020B9
:1036100088170020C00F0020841700207E1700208C
:103620007D170020BC0F00200A000020901700200A
:10363000B80F00204000002018FCFFFF9417002066
:103640008C17002036000020380000202A000020BF
:103650006E17002000250020B8FF0100A2FEFFFF2A
:103660003F7E050038B50C46054601880948FDF740
:1036700051FF208069880848FDF74CFF6080A988C9
:103680000648FDF747FFA080E9880548FDF742FF9F
:10369000E08038BD14E30008F4E20008D4E200083A
:1036A000B4E2000837B5354B354C19782278914291
:1036B00061D022781A7023782BB12378012B02D0A5
:1036C0002378022B57D12F4804F072FA2028FAD120
:1036D000012001F033FC002001F0ACFA2378D3B9CB
:1036E0000125294C1421162001F0A8FB94E80E00B6
:1036F0002648009501F08CFB2221242001F09EFB3E
:1037000094E80E002248009501F082FB03B0BDE86A
:10371000304001F09BBA2378012BDDB213D11A4C53
:103720001421162001F08AFB94E80E001948009538
:1037300001F06EFB2221042001F080FB94E80E00D2
:1037400015480095E0E72378022BDFD101250E4CC8
:103750001421162001F072FB94E80E000F4800952A
:1037600001F056FB2221242001F068FB94E80E00B2
:103770000B480095C8E703B030BD00BF090000202A
:103780001025002004270020C0CD000832CA000800
:103790003FCA000848CA000855CA000867CA00089E
:1037A00074CA000810B594B0142200210CA807F0C8
:1037B000E9FE142200210DEB020007F0E3FE1022C7
:1037C000002101A807F0DEFE02244FF4803301221D
:1037D000CDE91143CDE90A234FF4E0130AA80E9274
:1037E000139305F063F808B172B6FEE70F23CDE935
:1037F00005344FF480630790CDE90830214605A8D1
:1038000005F016FA08B172B6FEE7122301934FF4E1
:103810000043CDE9033001A805F0C6FA08B172B63D
:10382000FEE714B010BD00000268084B10B59A42C4
:103830000AD1074C2078FCF769FF2146BDE810400B
:103840000122044806F09DB910BD00BF00380140B8
:1038500084200020142500200368074A934209D1E0
:103860001A685B682023012280F84230034904482B
:1038700006F087B9704700BF00380140842000205F
:1038800014250020000000008D4A2DE9F04F156836
:103890008C4ADFF834A214688C4A85B0B2F900B0C3
:1038A0008B4ADAF80030B2F9002003900292894A7C
:1038B000B2F9007043EA0502224300F0B2805A21B7
:1038C0000A224B4302FB0B30642390FBF3F04D4381
:1038D0004C430190029802FB074402FB005594FB05
:1038E000F3F495FBF3F5019B7B4ACAF80030744B67
:1038F000B2F900801D60734B1C60784B1B68002B75
:1039000000F09480434403EBD3735B1000934FF4B7
:103910008F704FF06409714B009A1A60704A1168F9
:1039200000FB01F292FBF9F681FB01024FEAE17C18
:1039300000FB0CFC01FB02CC5DA3D3E90023A0FB40
:1039400001016144FCF716FC311A664E33889BB2C4
:10395000952B6ED833889BB2272B31D8624B4FF40E
:103960008F70C3F80080614B5549B3F90020604B5C
:10397000029C1A605F4B604A1F60232303FB08F31D
:10398000136093FBF9F3564A0C60136000FB03F4D9
:1039900083FB0302DD1745434A4903FB02550F60D1
:1039A000A0FB030142A3D3E90023CAF800B02944D5
:1039B000FCF7E0FB94FBF9F4484B211AC3F80080B4
:1039C00033889BB2312B0AD9444A4C4B10681A6891
:1039D000401A10444A4A186013683B441360338805
:1039E00001339BB2338033889BB2962B0DD1642276
:1039F000424B44491B6893FBF2F30B80404B1B681E
:103A000093FBF2F3404A1BB2138000233F4A13603A
:103A10003F4A13602B4B1A68364B1A6005B0BDE85D
:103A2000F08F3C46029DCDF804B05CE7CDF80080F5
:103A30006DE7304B00981A681C60324BA21AB3F93C
:103A400000306443C31A5B1A019905FB05446943BE
:103A500030482F4DB4FBF0F491FBF0F11B1B0B44ED
:103A6000062192FBF1F21344284A0398136013686D
:103A700040F6262203F21351914298BF0023039986
:103A8000DA17A3FB013100FB0211D81841EB010644
:103A9000C01841EB060108A3D3E90023FCF76AFB39
:103AA00062232C685C4394FBF9F404442C60B5E772
:103AB000420A1B0400000000404B4C0000000000C4
:103AC000A40F0020A00F0020A80F00200425002034
:103AD00002250020002500200A2500209C0F002040
:103AE000C8170020F6240020C41700200625002057
:103AF000C0170020980F0020CC170020940F002042
:103B0000900F0020821700206E170020F82400205C
:103B1000FC240020285122002DE9F04FB94A89B039
:103B200013781B0740F111841378B74C23F0080376
:103B300013700522B54BE1881A6063886289ADF87D
:103B400010300B44ADF8142013440322B3FBF2F3FE
:103B5000ADF8121004A806A9ADF81630FFF782FDE3
:103B6000BDF91820AA4BBDF818901A80BDF91A208B
:103B7000A84BBDF81AA01A80BDF91C20A64BBDF8B1
:103B80001C701A8009EB0A033B44012BB8BF0123C8
:103B9000A24ADFF88CB21360B4F90020A14BA2480E
:103BA0001A80B4F90430A14AA1491380B4F908304D
:103BB000A04A0D681380B4F90C30B4F90E20ABF8AC
:103BC00000309D4B04681A809C4B9D4A54EA0506C0
:103BD000B3F90030B2F900200DD05F2603EB830368
:103BE00006FB0433642402EB820206FB052293FBEE
:103BF000F4F392FBF4F20A6002F57A62B2F5FA5F2E
:103C000088BF2322036084BF53438E4A41F2883029
:103C100088BF13608C4B8D4AB3F900406FF03103BD
:103C20005C43832394FBF3F4894B8A4E1C608A4BDC
:103C3000B3F900300193894B1988019B09B2591AD5
:103C400081FB00010023FCF795FA35687D4B0544A4
:103C500014201B68824943434FF475700A6835602D
:103C6000224400FB02337F4A934200F3BF807E4A26
:103C70009342C0F2BD804FF47A7293FBF2F3642258
:103C80000B6093FBF2F3DFF8E481794CC8F8003065
:103C9000784B21781B68784E039300230129336009
:103CA000764DCBB200F0A680022B00F01581237870
:103CB0001BB12378012B40F0FA81D8F80020002AAC
:103CC000D4BF002201226E4BD8F800701A702378FE
:103CD000002B40F0EE816B488742ACBF00200120F2
:103CE000694BDFF8A8C118702378DFF8A4E1012B35
:103CF00003D02378022B40F0258266490B780133EC
:103D0000DBB2072B00F2D7810B70039BBEF90010CA
:103D10000B4403934FF0C80E039B5F49DFF87C917F
:103D2000DB1B0B60D9F80010C91B0EFB01FA5C49C4
:103D300003F1950EBEF5957FC1F800A0296800F249
:103D4000098203EB830E7144DFF858E17145B8BF77
:103D5000714649F6404E7145A8BF7146DFF848E10B
:103D60002960BEF900E0C9F8007001FB0EFE4FF4B7
:103D70007A719EFBF1FE4D492778B1F90010012FB1
:103D800003FB01EE4A49B1F900100AFB01EE42F2D1
:103D9000107A9EFBFAFA4749CCF800A00B60336812
:103DA00006D1454E96F800C01CF0FD0F00F0D881FA
:103DB000424EB6F80090424EB6F800C042F20F767E
:103DC000B64500F380823F4EB64580F2C1823E4E3A
:103DD000DFF8F8E0B6F90060BEF900E0AAEB0907E9
:103DE000BF1BAAEB0C06A6EB0E0679E2384B46E7A2
:103DF000384B44E73A465146484603ABFFF708FBC9
:103E000055E700BF8E200020C42400205800002069
:103E1000E6170020E4170020E21700209417002086
:103E2000DA170020E0170020C4170020DE1700205A
:103E3000C0170020DC170020D81700200A2500201A
:103E400006250020D417002002250020B8FF01001D
:103E5000D017002074170020002500206E170020C6
:103E6000CC170020E7ECA43519135BCAC817002053
:103E7000102500204400002088170020B0170020E3
:103E8000B20F002024FAFFFFB10F0020AC17002072
:103E900098170020B00F0020BC170020AC0F0020A6
:103EA000B4170020C063FFFFA817002054000020B3
:103EB00052000020B8170020801700204E0000207C
:103EC0004C000020F1D8FFFFA6170020A417002007
:103ED000A0BB0D006044F2FFB64908780128C1B2CA
:103EE00044D0022900F0948000293CD103AB3A462B
:103EF00051464846FFF78CFABBF800301BB2322B14
:103F000020DDBBF80030AC4A1BB2B3F5FA7FCCBF62
:103F10004FF4FA73BBF80030B2F90000D8BF1BB2FF
:103F2000A3F13201C0F548724A434FF4E17192FBAC
:103F3000F1F2024403923268C3F5FA73534393FBE0
:103F4000F1F33360BBF800301BB2B3F5FA7FFFF634
:103F5000AEAE4FF4487303930023984A3360136066
:103F6000974A13600123934A1370A0E6DFF850923A
:103F7000D9F800300533C9F80030D9F80030B3F56E
:103F80007A7F0AD2D9F80030B3F5FA7F34BF4FF404
:103F900048734FF4AF73039389E64FF4AF72039203
:103FA0000A222B6841F28830C3EBC30393FBF2F380
:103FB0002B60844B019A1B88804F1BB2D11A81FB66
:103FC00000010023804AFCF7D5F8D7F800A07F4A0B
:103FD000504438603B68002B3B68B8BF5B4293425B
:103FE00009DD00237A4A3B6013807A4AC9F8003021
:103FF00013700223B7E7784B1B68002BB8BF5B42F6
:10400000FA2BCBBF00236FF0F9032B6033604EE631
:10401000694BDFF8C8C1B3F90030DCF800C0039386
:104020006F4B70481988704B00681B8809B21BB22F
:10403000A3F548730CFB03F3A1F5487100FB0133B2
:104040006A498B422EDB44F683618B422CDC93FB66
:10405000F2F35B42BAF1C70F5E4A336006DDB9F195
:10406000C70F03DDC72FC4BF01231370584912784F
:104070000B8801339BB20B80002A3FF418AEB3F5D6
:10408000167FFFF414AEBAF1C70F05DDB9F1C70F03
:1040900002DDC72F3FF70BAE00230121544A3360E6
:1040A000117060E7C823D5E76FF0C703D2E700229D
:1040B00009E6002014E600230B704E4BDCF80010DC
:1040C000B3F90090DFF830A1C9F1640B01FB09F9E5
:1040D0006421DAF8003003FB0B9393FBF1F33649CC
:1040E000CAF80030B1F900904449A9EB03090B6804
:1040F000DFF80CA14B445345B8BF53464CF2503A3D
:104100005345A8BF53460B603E49B1F900104B43DD
:1041100042F2107193FBF1F33B49B1F9001009FB36
:1041200001F14FF47A7991FBF9F10B4437498B4255
:10413000B8BF0B4640F2DC518B42A8BF0B46AEF82D
:104140000030E2E500212C4BAEF8001019602B4B3B
:104150001960DFE54FF00A0EC90091FBFEF1FDE5A5
:10416000BCF1020F0AEB0307AAEB030619BFDFF845
:10417000A0C0284B40F2023340F2EE2C1CBF1B883B
:10418000BCF800C0002F0DDD3B44234FB7F9007091
:104190001F44002E44DD0CEB0603204EB6F90060F0
:1041A0001E4444E01FBFFB1A1B4FB7F90070DF1B12
:1041B000EFE700BF7C1700204000002078170020A8
:1041C000701700206E170020B8FF01008F5F0100FC
:1041D000B40F0020B30F0020BC1700201C000020EB
:1041E000DE17002020000020DC1700207DB1FFFF3B
:1041F000801700203A000020A01700209C17002004
:10420000B03CFFFF3C0000203E00002024FAFFFFEE
:10421000480000204A000020A6170020A417002014
:1042200005D0A6EB0C034D4EB6F900609E1B002A8C
:104230006DD000234A4E2B600B60374641F2883028
:10424000FFF722FB42F22832D8F8003003F58C53F6
:104250001433934204D900263746424B2E601E6029
:10426000414B1A88414B92B2952A1B8856D800269A
:1042700032462E6059428A42B8BF0A46B342A8BFAE
:10428000334626788B42B8BF0B46394839492EB1A0
:104290002678012E02D02678022E0AD12478012C0D
:1042A00041D1354C2478022C3DD1344C2478042C57
:1042B00039D100232B4A2B6013601A4652420280E8
:1042C00000220A8034E02E4EDFF890E0B6F900605C
:1042D000BEF900E009EB0A0737440CEB0A06764406
:1042E000002BA4D067B9002B4F4604DA66B1FF1A41
:1042F00056E70026F7E77F42002EF8D16646F6E73C
:10430000002EF4D1002BF9DACCF10006EFE70028FB
:1043100094D040F6B8362A600A608EE79F423A464B
:10432000A8BF1A46A6E7002AC8DD0A80002202803C
:10433000002B9AB21349144BD5BF52421A800A80FF
:104340000023D6BF00220B801A8009B0BDE8F08F91
:10435000002BCED11E461F4669E700BFA4170020E0
:1043600048F4FFFFFC240020F62400205000002029
:104370008820002086200020801700207D17002044
:10438000A61700208C2000208A20002080B5A74D91
:104390009AB001F001FAFFF705FA1022002113A8E4
:1043A00007F0F0F8AB69002243F01003AB61AB6992
:1043B0004FF4005103F010030493049BAB699C4835
:1043C00043F02003AB61AB69002403F020030593A5
:1043D000059BAB69012743F00403AB61AB6902267F
:1043E00003F004030693069BAB6943F00803AB613B
:1043F000AB6903F008030793079B01F0EFFF00226E
:104400004FF400718B4801F0E9FF4FF400538848E6
:1044100013A9CDE91337CDE9154601F097FE4FF406
:104420000043844813A9CDE91334159401F08EFE9E
:104430004FF400737F4813A9CDE91337CDE9154632
:1044400001F084FE6B6922463B436B616B69214638
:104450003B400B200393039B01F080FC0B2001F0F9
:10446000ADFC224621460E2001F078FC0E2001F022
:10447000A5FC224621460F2001F070FC0F2001F020
:104480009DFC6D4A6D4B082513604FF4807393605B
:104490004FF460231046CDE913441594147314753A
:1044A000D3615460156101F0C7FB08B172B6FEE735
:1044B0000624CDE9130713A95F48159401F050FABB
:1044C00008B172B6FEE75C4813A9CDE9137601F096
:1044D00047FA08B172B6FEE713960326564813A9A9
:1044E000149601F03DFA08B172B6FEE71396042661
:1044F000514813A9149601F033FA08B172B6FEE7D9
:10450000139605264C4813A9149601F029FA08B110
:1045100072B6FEE7484813A9CDE9136401F020FA0A
:1045200008B172B6FEE713940724434813A9149404
:1045300001F016FA08B172B6FEE73F4813A9CDE9BB
:10454000134501F00DFA044608B172B6FEE70EAE4F
:1045500001461022304607F015F81422214613A810
:1045600007F010F847233648DFF8D8C00AAFC0E993
:1045700000C3F9230A947C60C0E90334C0E9054410
:10458000846004F0F5FD08B172B6FEE74FF4805880
:1045900031462B48CDF8388004F0D0FE08B172B611
:1045A000FEE7CDE9130013A9254804F0BEFF08B1CA
:1045B00072B6FEE7CDE90A003946214805F03AF81F
:1045C000054608B172B6FEE701461022304606F0F5
:1045D000D9FF1422294613A806F0D4FF4FF047094B
:1045E0004FF08043184C0A95C4E9003941F28733F3
:1045F00020467D60C4E90335A560A56104F0B8FDDF
:1046000008B172B6FEE731462046CDF8388004F096
:1046100095FE08B172B6FEE7CDE9130013A9204656
:1046200004F083FF90B172B6FEE700BF00100240B5
:1046300000100140000C01409C2700200024014094
:1046400034260020002C0140EC250020CDE90A0092
:104650003946204604F0EEFF044608B172B6FEE784
:1046600001461022384606F08DFF142221463046BE
:1046700006F088FF1C22214613A85B4D089409947C
:1046800006F080FF594B2846C5E9003942F20F7306
:104690000DF1200AC5E90334AC60AC6104F068FD9B
:1046A00008B172B6FEE739462846CDF8288004F0F6
:1046B00045FE08B172B6FEE7284604F085FD08B154
:1046C00072B6FEE7002331464748CDE90E3304F0C9
:1046D0002CFF08B172B6FEE7CDE90800514642480A
:1046E00004F0A8FF024608B172B6FEE760231590F9
:1046F000CDE91330179013A93B4804F0BDFD08B174
:1047000072B6FEE70422384813A904F0B5FD08B1DB
:1047100072B6FEE70822344813A904F0ADFD08B1D3
:1047200072B6FEE70C22304813A904F0A5FD04463A
:1047300008B172B6FEE72C4800F0FCFD4FF4E133FF
:104740002B482C4DC0E90244C0E900530C230461FE
:10475000C0E90534C46105F005F8044608B172B635
:10476000FEE706F067FC24482449254BC0E90244D3
:10477000C0E900134FF48043C0E90644C0E90434A3
:10478000046202F009F8044608B172B6FEE710228E
:10479000014613A806F0F6FE47231A4D1A4A0E9456
:1047A000C5E9002342F20F7328467460C5E903345B
:1047B000AC60AC6104F0DCFC08B172B6FEE74FF40B
:1047C0008053284613A9139304F0B8FD08B172B6BC
:1047D000FEE7002331460B48CDE90E3304F02AFFF3
:1047E000044698B172B6FEE7A425002000040040FC
:1047F0001425002000380140042700200058004004
:10480000801A06005C25002000080040524806F08F
:104810009BFC524804F0B6FB514804F0B3FB5148EE
:1048200004F0B0FB21464F4804F002FF04214D483C
:1048300004F0FEFE08214B4804F0FAFE0C21494822
:1048400004F0F6FE4FF400510122474801F0C6FD86
:10485000464800F0E9F9464800F0E0F9454800F024
:10486000D7F900F077FB204600F068FB424800F0E3
:10487000C7F8424800F0CAF8414800F0CDF800F00F
:10488000E9F8404A404B10461360404B5360404BA0
:104890009360FBF7E3FF3F48FCF752FD3E48FCF70F
:1048A00049FD01223D493E4805F06BF940F6B8321A
:1048B0003C4B3D491C703D4B3D481C703D4B1A80A4
:1048C00001223D4B1A70FBF74FFE3C4B3C4A3D49E1
:1048D0003D4800F00AFF3D4B3D4A3E483E4900F04E
:1048E00004FF3E4B3E4A1C703E4B3F481C803F4BF2
:1048F0001C803F4B1C803F4B1C80FEF7E5FBD2F831
:10490000FC3043F08073C2F8FC303B4B5C601A68AB
:1049100042F001021A600190FEF74AFCFCF70AF827
:10492000FEF72AFB002227492748FDF721FE012236
:1049300029492848FDF71CFEFEF7FEF8FEF75CF853
:10494000FFF7EAF80198FEF7C7FB0198FEF7CAFCEB
:10495000FEF7A8FEE0E700BF4D1300083426002054
:10496000EC250020A4250020001001400D2500208A
:104970008D130008B51300080C250020B1130008A2
:10498000D11300087820002079130008ED130008E7
:10499000211400080D1400088D1400088420002044
:1049A00014250020EB1F00207DCA0008E917002015
:1049B00090CA00085C000020E81700209423002023
:1049C00094220020B8240020AC2400209421002050
:1049D0009420002094240020A02400208E20002079
:1049E00000ED00E08C2000206E20002088200020B8
:1049F0008A20002086200020001000E072B6FEE72A
:104A0000014B1860704700BFFC270020014B186065
:104A1000704700BFF8270020014B1860704700BFA7
:104A2000F4270020044A10B414680B46A44601463B
:104A30000122D02010BC6047F82700201346044A0A
:104A400010B41468CAB2A446014610BCD020604716
:104A5000F427002013B500240DF107006B218DF819
:104A60000740FFF7DFFF04230DF1070019218DF840
:104A70000730FFF7D7FF02230DF107001A218DF849
:104A80000730FFF7CFFF0DF107001C218DF807401D
:104A9000FFF7C8FF1B210DF10700FFF7C3FF02B0AE
:104AA00010BD00000122044B1A70044B1B680BB1AF
:104AB00000221A70704700BF94000020FC270020DD
:104AC00008B51A4B19681A4B08781A7818B9012AD0
:104AD00023D0002008BD0020012A08701DD0022A22
:104AE000F7D101201870134B13491A88D2BA0A6003
:104AF0005A881249D2BA0A609A881149D2BA0A6011
:104B00001A891049D2BA0A605A890F49D2BA9B89C8
:104B10000A600E4ADBBA1360DCE702220E211A702B
:104B200004483B22FFF78AFFD3E700BFFC270020A1
:104B300094000020CC270020F0270020EC27002044
:104B4000E8270020E4270020E0270020DC270020C1
:104B500070B5DDE9045410B10B4E3668068011B112
:104B60000A480068088012B109490968118013B128
:104B7000084A12681A8015B1074B1B682B8014B1C4
:104B8000064B1B68238070BDF0270020EC27002017
:104B9000E8270020E4270020E0270020DC27002071
:104BA00013B5064B8DF807001C68012200237820FE
:104BB0000DF10701A04702B010BD00BF0C2C002072
:104BC00013B5064B8DF807001C68012200237820DE
:104BD0000DF10701A04702B010BD00BF082C002056
:104BE000044B10B41C68CAB2A44601464023782086
:104BF00010BC60470C2C0020044B10B41C68CAB2D7
:104C0000A44601464023782010BC6047082C0020B1
:104C1000014B1860704700BF082C0020014B186042
:104C2000704700BF0C2C0020014B1860704700BF7C
:104C3000102C002000284FF4806214BFFF210021B7
:104C4000014806F09FBC00BF0628002038B5B024FC
:104C50000A4D2046FFF7A4FF0020FFF7A1FF013413
:104C60001020FFF79DFFE4B228468021FFF7B8FF30
:104C7000B82C05F18005ECD138BD00BF0628002016
:104C800038B51C4B1C4C1A682378117819B9012BC4
:104C90000AD0002038BD0021013B1170032BF8D849
:104CA000DFE803F0020B1015144B18785038C0B22F
:104CB000FFF786FF02232370EBE70020FFF780FF5A
:104CC0000323F8E71020FFF77BFF0423F3E70B4DE6
:104CD0000B4B2878802103EBC010FFF78DFF0120DC
:104CE0002B7820700133DBB2072B2B70D1D9002336
:104CF0002B70CFE7102C002095000020062C002000
:104D0000062800200022054B1A700122044B1A705D
:104D1000044B1B6803B11A70704700BF062C0020BB
:104D200095000020102C0020030630B510D43F2938
:104D30000ED80124CB08074D00EBC3102B5C01F00B
:104D4000070104FA01F1A2420CBF0B438B432B5421
:104D500030BD00BF062800202DE9F04F044689B081
:104D600008A800E90E009DF84830A4F12005029340
:104D7000EBB25E2B47D8079B23B3234413F8206C78
:104D8000224AB2F8009009EB0603802B3BDC5388E3
:104D90009DF815B0019303EB0B02402A33DC029B14
:104DA0004FF00008B3FA83FA0BFB05F54FEA5A1AE5
:104DB0006D00C34509D8154B4E441E80204609B0EE
:104DC000BDE8F08F9DF81460DAE70027069A535B80
:104DD0000493019B08EB0302D3B20393BE4203D8B2
:104DE00008F101080235E4E7049B07EB090003FA28
:104DF00007F2130454BF5246029A0399C0B2FFF758
:104E000093FF0137EAE70024D8E700BF002800201D
:104E100070B586B003AC84E80E009DF82860451E8E
:104E200015F8010F40B1009694E80E00FFF794FFCB
:104E3000034628788342F3D006B070BD014B18803A
:104E400059807047002800202DE9F74F9046A8EBC5
:104E50000009A3EB010AB9F1000F1E46B8BFC9F162
:104E60000009BAF1000FB8BFCAF1000A804594BF2B
:104E70004FF0FF33012305460C468E4294BF4FF09E
:104E8000FF3B4FF0010B404631469DF83020009328
:104E9000A9EB0A07FFF748FFCAF10003454504D113
:104EA000B44202D103B0BDE8F08F214628460193F9
:104EB000FFF73AFF019B7900B3EB470FBFBF0098A4
:104EC000A7EB0A072D18EDB28945C2BF5C444F44D9
:104ED000E4B2E3E72DE9F0411446A042804628BF42
:104EE000A046A042064638BF264699420C4628BF37
:104EF0001C46994238BF19460F469DF81820BC42FF
:104F000001D83F2C01D9BDE8F081454607E02B06CA
:104F100007D428462146FFF707FF0135EDB2B54219
:104F2000F5D90134E4B2EAE710B504468120FFF771
:104F300037FE2046BDE81040FFF732BE034628B1D9
:104F40000123AF20024A5371FFF72ABEAE20F9E7D2
:104F50000028002008B5642000F042FC0020FFF784
:104F6000EDFF2020FFF71CFE0020FFF719FEB02008
:104F7000FFF716FEC820FFF713FE0020FFF710FE14
:104F80001020FFF70DFE4020FFF70AFEFF20FFF77D
:104F9000CBFFA120FFF704FEA620FFF701FEA8200B
:104FA000FFF7FEFD3F20FFF7FBFDA420FFF7F8FD14
:104FB000D320FFF7F5FD0020FFF7F2FDD520FFF726
:104FC000EFFDF020FFF7ECFDD920FFF7E9FD2220EF
:104FD000FFF7E6FDDA20FFF7E3FD1220FFF7E0FD23
:104FE000DB20FFF7DDFD2020FFF7DAFD8D20FFF746
:104FF000D7FD1420FFF7D4FD0120FFF79FFF00200D
:10500000FFF718FEFFF722FE0022034B1A805A809A
:1050100001221A7108BD00BF002800200E4B82B08B
:105020009A6942F001029A619A6902F001020092C3
:10503000009ADA6942F08052DA61DB69074A03F0CC
:1050400080530193019B536823F0E06343F0806336
:10505000536002B0704700BF0010024000000140E2
:1050600030B5054687B01022002102A806F08AFA62
:105070002A68204B9A423BD103F56C439A691E483B
:1050800042F400729A619A6902A902F400720092D5
:10509000009A9A69194C42F004029A619B69FF22B6
:1050A00003F004030193019B0323CDE9022301F0E4
:1050B0004DF880204FF480720023C4E903024FF4BE
:1050C00080620F492046C4E90013C4E90523A360A8
:1050D000E36100F0A7FE08B1FFF790FC0022122068
:1050E0002C621146656200F039FE122000F066FE67
:1050F00007B030BD002401400008014058270020BF
:105100000800024030B5054687B01022002102A8F1
:1051100006F038FA2A682E4B9A4256D12D4C4FF49D
:105120004061A3692C4843F00803A361A36903F01D
:1051300008030093009B1223CDE90213032302A965
:10514000059301F003F8E369802243F48003E361EF
:10515000E369224803F480030193019B0023204C60
:10516000C4E900032046C4E90323C4E90533A3606E
:10517000E36100F057FE08B1FFF740FC1023194A25
:10518000AC636562184CC4E90023002380222046EA
:10519000C4E90232C4E90433C4E9063300F042FE34
:1051A00008B1FFF72BFC0022212011466C636562D9
:1051B00000F0D4FD212000F001FE00222220114643
:1051C00000F0CCFD222000F0F9FD07B030BD00BF9B
:1051D0000058004000100240000C014058000240FE
:1051E000C0260020440002407C2600200268114BAB
:1051F00010B59A4204461CD10F4A4FF48061D3691E
:105200000E4823F48003D36101F074F84FF4006179
:105210000A4801F06FF8A06B00F034FE606B00F0FC
:1052200031FE212000F0D8FDBDE81040222000F022
:10523000D3BD10BD0058004000100240000C0140DA
:105240001FB50368374A93422CD1374B18209A690F
:1052500042F400629A6100229B69114603F40063E4
:105260000093009B00F07AFD182000F0A7FD0022BB
:105270001920114600F072FD192000F09FFD002258
:105280001A20114600F06AFD1A2000F097FD002256
:105290001B20114600F062FD1B2005B05DF804EBF9
:1052A00000F08CBDB3F1804F11D103F50433DA69FE
:1052B0001C2042F00102DA610022DB69114603F092
:1052C00001030193019B00F049FD1C20E5E7174A0B
:1052D000934210D1144B1D20DA6942F00202DA61C8
:1052E0000022DB69114603F002030293029B00F0E7
:1052F00035FD1D20D1E70E4A934210D10A4B1E20E6
:10530000DA6942F00402DA610022DB69114603F037
:1053100004030393039B00F021FD1E20BDE705B0AD
:1053200000BD00BF002C01400010024000040040FE
:105330000008004010B5044686B01022002102A8E3
:1053400006F020F92268114B9A421CD103F5033371
:105350009A690F4842F008029A619B69332203F070
:1053600008030193019B022302A9CDE902230593BF
:1053700000F0ECFE074A536823F4406343F0E06317
:1053800043F40063536006B010BD00BF000400404A
:10539000000C01400000014010B5044686B0102208
:1053A000002102A806F0EEF822681B4B9A4230D189
:1053B00003F558439A69194842F480429A619A6900
:1053C00002A902F480420092009A9A69002442F0F5
:1053D00004029A619B694FF4007203F00403019385
:1053E000019B0223CDE902230323059300F0AEFEC7
:1053F0004FF48063094802A9CDE90234049400F017
:10540000A5FE25202246214600F0A8FC252000F01C
:10541000D5FC06B010BD00BF0038014000080140B7
:10542000FEE7FEE7FEE7FEE7FEE7704770477047DE
:1054300000F0C4B9014800F0F1BD00BF58270020BA
:10544000014800F0EBBD00BF7C260020014800F0C1
:10545000E5BD00BFC0260020014800F001BA00BF32
:105460009C270020014802F037BC00BF083B002009
:10547000FFF7F8BF014803F0B4BD00BF3426002099
:10548000FFF7F8BFFFF7F6BFFFF7F4BF014803F0DF
:10549000A8BD00BFEC250020014803F0A2BD00BF5D
:1054A000A4250020014803F09CBD00BF5C2500201E
:1054B000014801F083BE00BF04270020014802F02C
:1054C000D7BA00BF04270020014804F0F7B900BF95
:1054D000142500200A4A0346106810B508B9094887
:1054E00010600949094C0344091B8B4206D906F098
:1054F0008DF80C2303604FF0FF3010BD1360FCE704
:10550000142C0020283F0020005000200004000040
:1055100070470346002030B5187258791C68451C46
:105520005D715525987125545879DC7901322040F8
:10553000451C5D714E251C68D2B225545879DC7922
:105540002040451C5D7145251C6825545879DC793F
:105550002040451C5D7152251C6825545879DC7922
:1055600020401C68451C5D7122545879DC794A4002
:105570002040451C5D713A251C6825545879DC791A
:1055800020401C68451C5D7121545879DC7920400D
:10559000587107205872187A504080F036001872FF
:1055A00030BD034610B5427A013242725A79006822
:1055B000541C5C7181545A79D87902405A711A7A14
:1055C00081EA0200187210BD002337B58DF807304C
:1055D0009DF80730CB5C13B9007A03B030BD437A35
:1055E0009DF8074001334372437902685D1C4571A1
:1055F0000C5DD4544379C27913409DF80720437160
:10560000531CDBB28DF807308B5C027A5340037277
:10561000DEE7034610B5C47980790144214018685B
:105620009971405C11440C409C7110BDF0B5002490
:10563000052645790379AB4201D10020F0BD827A7D
:10564000072A50D8DFE802F0040F1C22282D4F3E15
:105650000268D25C552A01D101228272C2790133DB
:1056600013400371E6E70268D25C4E2A01D10222A0
:10567000F3E7552AF2D000228272013BDBB2EDE75C
:105680000268D25C452A1BD10322E6E70268D25C9D
:10569000522A15D10422E0E70268D25C8672427277
:1056A000DCE70268D25C3A2A0AD10721C27981720A
:1056B000591C0A408271427A82F036020272CDE7AA
:1056C0008472DAE7427A0768013AD2B2017A42720A
:1056D0001AB1FA5C51400172C0E78272FA5C8A42E8
:1056E000BCD10120AAE78472B8E710B502604FF080
:1056F0007F440022446002818272C1E900340A8141
:105700008A7210BDFFF704FF0B480C490C4A0023B6
:1057100002E0D458C4500433C4188C42F9D3094A67
:10572000094C002301E013600432A242FBD305F0D0
:1057300073FFFEF72BFE7047000000206C02002074
:10574000B8E300086C020020283F0020FEE70000BC
:1057500038B50E4B05461A784FF47A73B3FBF2F363
:105760000B4A1068B0FBF3F000F048FB044658B950
:105770000F2D09D8024629464FF0FF3000F0EEFA0F
:105780002046044B1D6038BD0120FCE79C00002032
:1057900098000020A0000020074A08B513680320E5
:1057A00043F01003136000F0C7FA0F20FFF7D0FF9B
:1057B000FFF734FC002008BD00200240034A044BE0
:1057C00011681B780B441360704700BF182C002031
:1057D0009C000020014B1868704700BF182C002067
:1057E00038B50446FFF7F6FF0546631C1EBF044BA1
:1057F0001B78E418FFF7EEFF431BA342FAD338BD32
:105800009C000020436A10B59A6A12F0500F1BD119
:105810009A6A42F400729A621A68926802F46022EC
:10582000B2F5602F0CD11A7B52B99A6A22F48072B9
:105830009A629A6AD2045EBF9A6A42F001029A6240
:105840001846FBF7DBFE10BD1B6ABDE810401B6B62
:105850001847704708B5406AFFF7FBFF08BD70475F
:10586000036870B51D685E680446B00626D5A907B2
:1058700024D5A26AD2065EBFA26A42F40072A26276
:105880009A6802F46022B2F5602F10D1227B72B9BF
:105890005A6822F020025A60A36A23F48073A3623C
:1058A000A36AD8045EBFA36A43F00103A362204643
:1058B000FBF7A4FE6FF0120223681A60310630D5A0
:1058C0006A072ED5A36ADB065EBFA36A43F40053C2
:1058D000A36223689A6802F4E042B2F5E04F0AD06E
:1058E0005A68500516D49A6802F46022B2F5602F07
:1058F00010D1227B72B95A6822F080025A60A36AE2
:1059000023F48053A362A36AD9055EBFA36A43F060
:105910000103A362204600F00DFA6FF00C02236829
:105920001A6072060CD5EB070AD5A36A204643F429
:105930008033A362FFF793FF6FF0010223681A60C0
:1059400070BD7047406A08B5836A43F040038362C4
:10595000C36A43F00403C362FFF7F3FF08BD00000E
:10596000002373B5019390F824300446012B6CD0CA
:10597000012380F824304D680268062D086805EB85
:10598000850322D81F26556B053B9E4025EA060558
:1059900000FA03F32B43536309288B6800EB40059F
:1059A0004FF0070129D9D6681E3DA94026EA01011A
:1059B000AB400B43D360A0F11003012B25D900208D
:1059C000002384F8243002B070BD0C2D4FF01F0569
:1059D00009D8166B233B9D4026EA050500FA03F320
:1059E0002B431363D8E7D66A413B9D4026EA050561
:1059F00000FA03F32B43D362CEE71069A94020EAF3
:105A00000101AB400B431361D9E7114B9A4216D108
:105A100093681B02D3D49368102843F40003936067
:105A2000CDD10C4B0C4A1B68B3FBF2F30A22534353
:105A30000193019B002BC2D0019B013BF8E7A36AB5
:105A4000012043F02003A362BAE70220BBE700BFB6
:105A5000002401409800002040420F00002337B589
:105A60000193036804469A68D20702D5002003B068
:105A700030BD9A6842F001029A60144B144A1B68C8
:105A8000B3FBF2F30193019BE3B9FFF7A3FE0546D5
:105A900023689B68DB07E9D4FFF79CFE401B0228C4
:105AA000F6D923689B6813F00103F1D1A26A0120A3
:105AB00042F01002A262E26A84F8243042F001024D
:105AC000E262D4E7019B013BDCE700BF98000020C5
:105AD00040420F002DE9F0413F4B904602680446DA
