:020000040800F2
:1000000000500020C14F0008DD4C0008DF4C000804
:10001000E14C0008E34C0008E54C0008000000003B
:10002000000000000000000000000000E74C000895
:10003000E94C000800000000EB4C0008ED4C000803
:10004000095000080950000809500008095000082C
:10005000095000080950000809500008095000081C
:10006000095000080950000809500008F14C000828
:100070000950000809500008FD4C0008094D00080F
:100080000950000809500008154D0008214D0008CE
:100090002D4D0008095000080950000809500008BB
:1000A000314D00083D4D0008414D0008454D000808
:1000B000494D0008554D0008614D000809500008E1
:1000C000095000086D4D0008794D000809500008DE
:1000D00009500008854D0008095000080950000823
:1000E00009500008095000080950000800000000ED
:1000F0000000000000000000000000000000000000
:0C01000000000000000000005FF808F1A3
:1001100010B5054C237833B9044B13B10448AFF341
:1001200000800123237010BD5C020020000000004D
:10013000D0B7000808B5034B1BB103490348AFF320
:10014000008008BD0000000060020020D0B7000859
:10015000034613F8012B002AFBD1181A0138704707
:100160007BB972B90029BEBF00204FF0004106E004
:1001700008BF00281CBF6FF000414FF0FF3000F0B7
:10018000B9B9ADF1080C6DE904CE002909DB002BEB
:100190001ADB00F035F8DDF804E0DDE9022304B0F5
:1001A0007047404261EB4101002B1BDB00F028F857
:1001B000DDF804E0DDE9022304B0404261EB4101D7
:1001C000524263EB43037047524263EB430300F038
:1001D00017F8DDF804E0DDE9022304B0404261EBEA
:1001E00041017047524263EB430300F009F8DDF828
:1001F00004E0DDE9022304B0524263EB430370479D
:100200002DE9F047089D0F4604468E46002B48D145
:100210008A42164661D9B2FA82F24AB1C2F120038B
:1002200001FA02FE20FA03F3964043EA0E0E9440D0
:100230004FEA164CBEFBFCF1B7B20CFB11EE01FB12
:1002400007F0230C43EA0E43984209D9F31801F151
:10025000FF3E80F0ED80984240F2EA80023933445C
:100260001B1AB3FBFCF00CFB103300FB07F7A4B226
:1002700044EA0344A74209D9341900F1FF3380F05E
:10028000D980A74240F2D6803444023840EA014087
:100290000021E41B1DB10023D440C5E90043BDE8A3
:1002A000F0878B4206D90DB1C5E90001002108464F
:1002B000BDE8F087B3FA83F1002947D1BB4202D3EE
:1002C000824200F20481841A67EB03020120964601
:1002D000002DE4D0C5E9004EE1E7002A00F090804F
:1002E000B2FA82F2002A40F0A780881B0121370C65
:1002F0001FFA86FEB0FBF7FC07FB1C00230C43EA49
:1003000000430EFB0CF0984207D9F3180CF1FF38AC
:1003100002D2984200F2E080C4461B1AB3FBF7F009
:1003200007FB10330EFB00FEA4B244EA0344A645CB
:1003300007D9341900F1FF3302D2A64500F2C98073
:100340001846A4EB0E0440EA0C40A3E7C1F12006D6
:100350008B4022FA06FC4CEA030C27FA06FA4FEA15
:100360001C49BAFBF9F88F4020FA06F309FB18AADA
:100370001FFA8CFE3B4300FA01F708FB0EF01C0C41
:1003800044EA0A44A04202FA01F20BD91CEB04042D
:1003900008F1FF3A80F09980A04240F29680A8F1DF
:1003A00002086444241A98B2B4FBF9F309FB13441D
:1003B00003FB0EFE40EA0444A64508D91CEB0404E6
:1003C00003F1FF307FD2A6457DD9023B644443EA66
:1003D0000840A4EB0E04A0FB028E74454346F14690
:1003E00061D35ED055B1FA1A64EB090404FA06F63B
:1003F00022FA01F31E43CC40C5E9006400214EE718
:1004000043084FEA510C43EAC1710A0C42EA0C421C
:100410008BB2C407B2FBF6F143EA0243BCFBF6FC25
:10042000B646304637461F22181A41EA0C4161E7AA
:10043000714615E7184629E7C2F1200321FA03F0B7
:10044000964024FA03F397403B43370CB0FBF7F890
:1004500007FB18001FFA86FE190C41EA004108FB51
:100460000EF0884204FA02F43AD9711808F1FF3C00
:1004700001D288421ED8091AB1FBF7F808FB0EF02A
:1004800007FB18119BB243EA014383422FD2F318B2
:1004900008F1FF31C8D28342C6D2A8F10201334429
:1004A000C2E747459ED2B8EB02036EEB0C0E013853
:1004B000F14697E7301A0144A8F1020CB1FBF7F8B6
:1004C00008FB0EF0DCE7034681E7D0466AE7084602
:1004D000FEE63444023834E7ACF1020C33441CE746
:1004E000091AC446B1FBF7F808FB0EF0C8E741460D
:1004F0009AE700BF704700BF00220A4930B50B8859
:10050000094D013810F8014F14B902B10B8030BD0C
:100510005A1C92B2B2F5806FEC5414BF13460023FC
:100520000122EFE78A02002092020020074A10B55C
:100530001188074C4B1C9BB2B3F5806F138008BF2A
:100540000023605408BF138010BD00BF8A02002042
:100550009202002038B500240D460E4B01461C7057
:100560000D4B3F220D481C700AF072FC0B4B1F22F2
:1005700029460B4883F83F400AF06AFC3222084BB8
:10058000DC77084B1A601422074B1A70074B1C705B
:1005900038BD00BF7C0B0020960A0020230B0020F2
:1005A000030B0020780B00207D0B00208802002028
:1005B000014B1878704700BF950A0020194B70B5A1
:1005C0005B6806460D4614463BB347F23053164966
:1005D0001648002A08BF1C460AF090FC0F2231463C
:1005E00013480AF035FC0023114A1249D3732846F8
:1005F0000A220AF0ABFB0A2220460F490AF0A6FBAA
:100600000E4B1B7863B10E4B187810F0020003D02C
:10061000102206200B4B1A7070BD4FF0FF30FBE725
:100620000120F9E77C020020E8B70008050000205F
:10063000F30A0020ED0A0020D70A0020230B002037
:100640007C0B00207D0B0020064B5B683BB1064B0A
:100650001B7813F0400F0CBF0520072070474FF0A8
:10066000FF3070477C0200207C0B0020074A10B549
:100670001188074C4B1C9BB2B3F5806F138008BFE9
:100680000023605408BF138010BD00BF90020020FB
:10069000920600202DE9FF471F463D4B04465B684C
:1006A00088461546BDF83090002B6CD0394EDFF8E7
:1006B000E8A033789AF8001003F040020A4365D0AE
:1006C0001B0758D40A2201A938460AF03FFB01A8AB
:1006D000FFF73EFD421ED2B2032A4AD82F48FFF749
:1006E0000BFF9AF8003053B10A22694620460AF0FF
:1006F0002DFB6846FFF700FF2C20FFF717FF01A82E
:10070000FFF7FAFE2648FFF7F7FE002211462548BC
:10071000DFF894C0038894B2A74216D801B10380D1
:100720003378224C23F00C0343F00C03337023681E
:100730003BB11F489847236801A8984723681D4884
:100740009847092004B0BDE8F0875C1CA4B2B4F55A
:10075000806F08BF0024691C18F8055089B20CF896
:1007600003500132494514BF0D460025234601219F
:10077000D1E70B20E6E70D4B1B680BB90820E1E73A
:100780000D489847FAE74FF0FF30DBE70520D9E73F
:100790007C0200207C0B0020960A0020D3BE0008BB
:1007A000ECB700088A02002092020020640B0020AF
:1007B000EFB70008FEB9000802B8000802460F4B68
:1007C0000068516803C390680D4A186000231370D5
:1007D0000C4A13700C4A13800C4A13800C4A138085
:1007E0000C4A13800C4A13700C4A13700C4A137095
:1007F0000C4A13600C4A1360704700BF7C02002053
:100800007D0B0020940A00208C0200208A02002028
:100810008E020020900200207C0B0020960A00200F
:10082000950A0020680B0020640B0020114A136811
:100830000BB1013B1360104A136823B1013B1360F5
:100840000BB90E4A13700E4A13680BB1013B1360CB
:100850000C4A13686BB1013B136053B90A490A781B
:10086000100706D563F3C302084B0A701A88084BB9
:100870001A807047780B0020740B0020940A002027
:10088000700B00206C0B00207C0B00208A020020E3
:100890008C0200202DE9F84FA54AA64EB2F800B010
:1008A000338800255B4506D0A34F3A78143A022AD4
:1008B00027D8A6F800B0A14EA14C3368002B40F019
:1008C0006D8264239C4D33602B78162B00F2668278
:1008D000DFE813F04404AD02C602CC02DA02E00203
:1008E000E902EF0202030D033E03480352038303B0
:1008F0008C039D03AC03FE033B04410459029802A0
:10090000A70202228F49904C0A609B45D3D08F4AA0
:10091000D05C22780D2A00F23182DFE812F00E005E
:100920005500CC002F022F02A501BA01C301D0014E
:100930002F02EB0108021A02F90100230421984654
:10094000DFF80CC2834ADFF810928CF80030117087
:100950005FFA83FE59F82E10D1B9B8F1000F01D01B
:100960008CF800E00022774B75491A600B7813F081
:10097000010F00F092803E2840F08F8062F3000368
:100980000B70764B1A604FF49672754B1A6084E0C8
:1009900091F804A00133824513D1B8F1000F01D0C2
:1009A0008CF800E00B784978303B313903EB830356
:1009B00001EB43036B490B80012323700523137064
:1009C0006BE04FF00108C3E7DFF884C162499CF88F
:1009D000002051F822205F49097812F801E086458D
:1009E00014D1DFF880C1BCF80030013B9BB2ACF8F9
:1009F00000300BB10D284DD19378D278303B03EB0A
:100A00008303303A02EB4303237046E00022914611
:100A1000C1F57F4A8CF800200AF1D30ADFF838C10B
:100A20005FFA82F85CF828C0BCF1000F0CD1B9F174
:100A3000000F04D04B4A1580454A82F800800022FE
:100A4000013B2270338028E09CF800E09CF80150C4
:100A5000AEF1300E0EEB8E0E554405EB4E05ADB2E9
:100A60007F2D24D81CF801E0864520D13D4B1D8008
:100A7000B9F1000F02D0364B83F8008055B99CF8CD
:100A800002309CF80320303B03EB8303303A02EB47
:100A9000430323702F4B01311970338801339BB20C
:100AA000B3F5806F338004BF002333802DE74FF010
:100AB00001090132B2E70A28EFD100232370244B49
:100AC0001B78023B0F2BE8D801A252F823F000BF9D
:100AD000110B0008690B0008850B00089B0A000831
:100AE000AF0B0008AF0B0008DD0B0008E70B000898
:100AF000050C0008DD0B00089B0A00082F0C0008FD
:100B00009B0A0008390C0008450C0008450C000839
:100B10003A78082AC1D84FF4AA73D340DB07BCD572
:100B20000022064B1A60064A137843F0200346E77A
:100B3000900200208E0200207D0B0020780B002008
:100B40007C0B0020740B0020940A002092060020E9
:100B5000790200207802002054BD0008700B0020AC
:100B60006C0B0020920A0020944A1378180794D541
:100B700023F009031370924B1A88924B1A80924B00
:100B8000002203E73B780D2B87D100228F4B1A60A0
:100B90008A4A137823F0220343F0220313708C4B0C
:100BA0001B68002B3FF479AF0320984775E7834A11
:100BB000137823F0420313703B780E3B052B3FF66E
:100BC0006CAF834B1B680BB100209847814B1B789F
:100BD000002B7FF462AF16233B705EE7774A1378F1
:100BE00023F04003EBE6754A137823F008031370F3
:100BF0000022754B1A60764B1B68002B3FF44DAFFB
:100C00000A20D2E7734B1B78002B7FF446AF6F4A64
:100C100013606A4A137823F0600343F06003137093
:100C20006B4B1B68002B3FF438AF0720BDE7634ACE
:100C3000137823F04203C2E6604A137823F042039C
:100C40001370C8E75D4A1378190706D523F0090326
:100C500013705B4B1A885B4B1A803B78013B0D2B62
:100C60003FF61BAF594B8BE75B4A2C28126807D124
:100C700006232370002A3FF410AF584890470CE732
:100C80000021013B21703380002A3FF406AF544815
:100C9000F4E722287FF401AF072300222370514B91
:100CA0001A80FAE6222803D04E4A1388102B01D16D
:100CB0000823A9E6591C11804B4AD054EDE60A28B6
:100CC0007FF4EBAE0023474A23701188464A0F2970
:100CD0009BBF5354394913700A789FBF42F02002DA
:100CE0000A703A4A13603A4B1B68002B3FF4D5AEAA
:100CF00004205AE72C287FF4A2AE364B1B782BB188
:100D00000D2300222370394B1A70C6E60B23C4E76B
:100D10002C28FBD0A0F13002092A3FF690AE334ACE
:100D2000137803EB830300EB4303303B47E63A2899
:100D300001D10C2368E6A0F13002092A3FF67FAE0C
:100D4000284A138803EB830300EB4303303B1380F3
:100D5000A3E6274B9B6803B19847224A1388013BBF
:100D60009BB21380002B7FF498AE23701A4B1B6844
:100D7000002B3FF492AE1F4898478EE600231E4A90
:100D80002370136089E61A4B00201B689847124BAA
:100D90001B680BB11948984715232B702378DA0785
:100DA00040F1E581164A126832B9054A23F0090379
:100DB0001188044A23701180BDE8F88F7C0B002055
:100DC0008A0200208C0200206C0B0020780B00208F
:100DD000680B0020960A0020640B00201AB8000857
:100DE0002FB80008920A0020DD0A0020950A002092
:100DF0007C02002043B80008740B002056B800089D
:100E0000700B0020914B01201B689847904B1B688A
:100E10000BB19048984716232B704FF4FA73336048
:100E2000BCE7012300222B708B4B1A70B6E78A4A6D
:100E300013782BB1013BDBB213701BB91423ACE761
:100E4000042313702378854823F020032370FFF7D1
:100E500053FB7F4B1B680BB18148984702239CE7EB
:100E600023789E0640F17581032396E77D48FFF7BE
:100E700043FB774B1B680BB17B489847237823F0E3
:100E800020032370042388E72378980640F16181CA
:100E9000052382E77548FFF72FFB237823F0200313
:100EA0002370062379E72378990640F152810723BE
:100EB00073E76F4B1B786BB16E48FFF71DFB644BFC
:100EC0001B680BB16C489847237823F020032370EC
:100ED000082362E76948F0E723789A0640F13981F0
:100EE000634B1B78002B0CBF0C23092355E7644888
:100EF000FFF702FB2220FFF719FB6248FFF7FCFA1D
:100F00002220FFF713FB2C20FFF710FB2220FFF716
:100F10000DFB5D48FFF7F0FA2220FFF707FB2C20BE
:100F2000FFF704FB5948FFF7E7FA2C20FFF7FEFA1A
:100F30005748FFF7E1FA0D20FFF7F8FA0A20FFF70C
:100F4000F5FA434B1B680BB1524898470A2324E734
:100F50005148FFF7D1FA3E4B1B680BB14F489847F9
:100F60000B231AE74E48FFF7C7FA394B1B680BB142
:100F70004C489847132310E74B4F3B78002B3FF426
:100F80000DAF4A48FFF7B8FA2220FFF7CFFA3846EC
:100F9000FFF7B2FA2220FFF7C9FA2C20FFF7C6FAB2
:100FA0002220FFF7C3FA4248FFF7A6FA2220FFF7F4
:100FB000BDFA0D20FFF7BAFA0A20FFF7B7FA244B63
:100FC0001B680BB13B489847237823F0200323701C
:100FD0000D232B7040F2DC5321E723789B0640F170
:100FE000B8800E2304222B701B4B1EE70022324BCD
:100FF00032481A70FFF780FA154B1B680BB1304866
:101000009847237823F0200323700F23C5E6237825
:101010009F0601D51023C0E60F4A1378013BDBB2CF
:101020001370002B00F095800E23B6E6254B1B783D
:10103000002B3FF4B3AE2448FFF75EFA044B1B6865
:101040000BB1224898471123A7E600BF7C0200207D
:10105000640B00206CB80008880200201DBF000847
:1010600082B800080FBF000890B80008A4B80008B4
:10107000960A0020B6B80008D2B80008C4B8000824
:10108000C5BE0008B70A0020970A00200200002011
:1010900000000020E6B80008B1BE0008F9B800085A
:1010A0009DBE00080DB90008230B002005BF0008F5
:1010B000030B002024B90008DD0A0020FABE000856
:1010C00037B90008F30A0020DFBE000848B900085D
:1010D0003C48FFF711FA2220FFF728FA3A48FFF7B9
:1010E0000BFA2220FFF722FA2C20FFF71FFA22200A
:1010F000FFF71CFA3548FFF7FFF92220FFF716FA31
:101100002C20FFF713FA3248FFF7F6F92C20FFF7EF
:101110000DFA3048FFF7F0F92C20FFF707FA3020DE
:10112000FFF704FA0D20FFF701FA0A20FFF7FEF996
:10113000294B1B680BB129489847237823F060039B
:10114000237012232B70C82369E623789E063FF58F
:1011500011AF012321E6224B1B780BB100235EE681
:1011600023789807F5D559067FF554AFF6E71D4D5E
:101170001D492A88098891423FF41EAE1B4E5F0725
:10118000B05C02D53E2808BF0A20194B5B6898471F
:1011900000283FF411AE22782B8851070AD5F15C64
:1011A0003E2907D1322122F0050242F001022270CD
:1011B000104A116001339BB2B3F5806F08BF002362
:1011C0002B80F9E5EDBE000805000020F30A0020A1
:1011D000ED0A0020D70A0020640B00205EB9000849
:1011E000960A00208C0200208A0200209202002031
:1011F0007C020020700B0020014B1860704700BF7C
:10120000680B0020014B1860704700BF640B002082
:101210000022F0B5084BD4B2A14202F1010200D87D
:10122000F0BD5D791E686F1C5F71045D74555C795B
:10123000DD792C405C71EEE744120020021E18BFDD
:1012400001224FF40071014804F026BD000C01405A
:101250001FB514461A464FF0FF330091CDE9014304
:1012600001460123024804F0B7FF04B010BD00BFDF
:101270009C140020FFF7ECBF13B514461A46CDE9C5
:10128000001401230146024805F036F802B010BDF3
:101290009C14002013B514461A46CDE9001401230E
:1012A0000146024805F0EEF802B010BD9C14002083
:1012B00007B501228DF807000DF10701034807F07B
:1012C000DEFEB0FA80F0400903B000BDAC12002091
:1012D00010B50446FEF73CFF81B22046BDE8104041
:1012E00009F07ABB10B5164B1B78F3B115490C7891
:1012F000FF2C15D07E2C144B13D818550020621CDF
:10130000D2B2012A0A7098540AD0134413F8022C5E
:101310000D2A05D113F8013C0A2B01D1FF230B70D4
:1013200010BD00220A701A70FAE7084B5A79196842
:10133000541C5C7188545A79D9790A405A71EFE784
:10134000850D0020860D0020870D00202C12002026
:10135000032810B5184C15D10C21184B18481A78D1
:10136000184B01FB02330F22996809F071FD00232D
:10137000134A2370D3730122134B1A700522134BA7
:101380001A7010BD124B22781B7813431843C0B259
:101390000028F6D1012340F6B8320C2123700D4B02
:1013A000BDE810401A80054B064A1B784B43D11804
:1013B0004968D058FFF7CEB82E0C00202F0C002023
:1013C00054000020A4D40008300C00206400002049
:1013D000850D002050000020038830B58B421FD2BD
:1013E000C38B8B4219D9002330F8024BA14211D391
:1013F000028891420ED80B48121BC55A0230C35ABC
:10140000091B5B1B500801FB0300B0FBF2F02844F2
:1014100080B230BD02331E2BE6D14FF47A70F8E76C
:101420000020F6E704D40008054B064A03F110013A
:1014300053F8040B8B4242F8040BF9D1704700BFFC
:101440006C1200205C1200200122014B1A707047C0
:10145000A51200200122014B1A707047A41200202F
:101460000268264B10B59A42044612D1244A2549F7
:10147000137825480133DBB2282B01BF00231370FA
:10148000224A137808BF43F080031370082203F048
:101490007FFF2368B3F1804F18D11D4A13782BB119
:1014A0001378012B02D01378022B08D1012419499B
:1014B00019480B78C454234403F00F030B701749E9
:1014C0000B78013B13F0FF0301D00B7010BD142308
:1014D0000B701378032B02D01378042BF6D1012064
:1014E0000C4A0D491378C8540344002003F00F033D
:1014F000C854013303F00F031370E7E7002C0140D9
:10150000A61200206C12002034150020260E0020A8
:10151000A81200207C1200207D1200206A0000200A
:10152000F0B5026883790C46D15C0546A1F1A003B1
:1015300091B0512B00F2D986DFE813F052005C0025
:101540006C00B80007013201AB01C8015301710101
:101550008E010A0250046D048A04A704C404E10445
:101560002902FE041B053805550573059105AF05D5
:10157000D706D706D706D706D706D706CD05440225
:101580006102EB0509062C064A0668068606A406D3
:10159000C206D706D706D706D706D706D706D70678
:1015A000D706D706D706D706D706D706D706D70653
:1015B000D706D706D706D706D706D706D706D70643
:1015C000D706D706D706D706D706D706D706D70633
:1015D000D706D706D706D706D706D7068602CC0386
:1015E000A0210222204603F0F2FB0D21204603F049
:1015F00036FC08E0A1210D22204603F0E8FB20463E
:10160000C14903F03FFC2046217A11B0BDE8F0400B
:1016100003F025BC0D22A221204603F0D8FBBB4BD2
:10162000BB4DB3F9001020462980C9B203F017FC66
:101630006978204603F013FCB64B2046B3F900103E
:101640002980C9B203F00BFC6978204603F007FC3F
:10165000B14B2046B3F900102980C9B203F0FFFB5B
:101660006978204603F0FBFBAC4B2046B3F9001031
:101670002980C9B203F0F3FB6978204603F0EFFB41
:10168000A74B2046B3F900102980C9B203F0E7FB4D
:101690006978204603F0E3FBA24BB3F900102980E0
:1016A0002046C9B203F0DBFB69789FE79E4E11220A
:1016B000A321204603F08BFB954D318820462980DD
:1016C000C9B203F0CCFB6978204603F0C8FB7188EF
:1016D00020462980C9B203F0C2FB6978204603F096
:1016E000BEFBB18820462980C9B203F0B8FB6978F7
:1016F000204603F0B4FBF18820462980C9B203F0EC
:10170000AEFB6978204603F0AAFB31892046298088
:10171000C9B203F0A4FB6978204603F0A0FB7189ED
:1017200020462980C9B203F09AFB6978204603F06D
:1017300096FBB18920462980C9B203F090FB6978F5
:10174000204603F08CFBF189A9E70222A421204660
:1017500003F03DFB0D21204603F081FB217A20465A
:1017600003F07DFB00220121284603F0B0FB684C0A
:10177000002201212070284603F0A9FB6070B4F913
:1017800000202388002A6949694AB5BF5B4213805B
:101790000B800023B6BF00230B80138011B0F0BD77
:1017A0000222A521204603F012FB0D21204603F062
:1017B00056FB217A204603F052FB002201212846E5
:1017C00003F085FB524C002201212070284603F0D3
:1017D0007EFB6070B4F900202388002A5549564AE0
:1017E000D3E70222A821204603F0F1FA0D2120467A
:1017F00003F035FB217A204603F031FB0022012162
:10180000284603F064FB424C002220700121284648
:1018100003F05DFB60702288484B1A80BEE702220D
:10182000A921204603F0D3FA0D21204603F017FB2F
:10183000217A204603F013FB00220121284603F001
:1018400046FB334C002220700121284603F03FFB69
:10185000607022883A4BE0E70222AA21204603F07A
:10186000B6FA0D21204603F0FAFA217A204603F059
:10187000F6FA00220121284603F029FB244C00221D
:1018800020700121284603F022FB607022882D4B36
:10189000C3E70222A621204603F099FA0D21204633
:1018A00003F0DDFA217A204603F0D9FA0022012163
:1018B000284603F00CFB164C00222070012128461C
:1018C00003F005FB607022881F4BA6E70222A721C8
:1018D000204603F07CFA0D21204603F0C0FA217A5D
:1018E000204603F0BCFA00220121284603F0EFFA5B
:1018F000074C002220700121284603F0E8FA6070AE
:101900002288124B89E700BFE0D40008A212002011
:10191000280E0020A01200209E1200209C12002001
:101920009A120020981200205C120020200E002045
:101930001E0E0020240E0020220E00204800002051
:1019400046000020F80B002040000020420000204C
:101950000222AB21204603F03AFA0D21204603F083
:101960007EFA217A204603F07AFA002201212846E5
:1019700003F0ADFA304C002220700121284603F01C
:10198000A6FA6070B4F900202C4B1A6006E7022218
:10199000B221204603F01BFA0D21204603F05FFA26
:1019A000217A204603F05BFA00220121284603F049
:1019B0008EFA214C002220700121284603F087FA7C
:1019C0006070EBE60222C121204603F000FA0D21EF
:1019D000204603F044FA217A204603F040FA002220
:1019E0000121284603F073FA134C002220700121D4
:1019F000284603F06CFA60702288114B0DE7022232
:101A0000C221204603F0E3F90D21204603F027FA16
:101A1000217A204603F023FA00220121284603F010
:101A200056FA054C002220700121284603F04FFA97
:101A300060702288034BF0E6280E0020380000205A
:101A4000680000206600002000254F22F02120467B
:101A500003F0BDF9B94B03AF1B88ADF80C30B84BA0
:101A60001B88ADF80E30B74B1B88ADF81030B64B65
:101A70001B88ADF81230B54B1B88ADF8143037F920
:101A8000026B2046F1B203F0EAF901352046C6F3B5
:101A9000072103F0E4F9052DF1D1AD4D2046297859
:101AA00003F0DDF96978204603F0D9F9A9782046DA
:101AB00003F0D5F9E9780025204603F0D0F9A54BCD
:101AC000ADF830501B8809AFADF82430A24B1B880D
:101AD000ADF82630A14B1B88ADF82830A04B1B88F1
:101AE000ADF82A309F4B1B88ADF82C309E4B1B88DD
:101AF000ADF82E3037F9026B2046F1B203F0AFF9A2
:101B000001352046C6F3072103F0A9F9072DF1D1CD
:101B10000025964B06AF1B88ADF81830944B1B88F8
:101B2000ADF81A30934B1B88ADF81C30924B1B88D4
:101B3000ADF81E30914B1B88ADF82030904B1B88C0
:101B4000ADF8223037F8026B2046F1B203F087F986
:101B500001352046310A03F082F9062DF2D1002525
:101B6000884B01AF1B88ADF80430874B1B88ADF85C
:101B70000630864B1B88ADF80830854B1B88ADF8C6
:101B80000A3037F8026B2046F1B203F068F90135EC
:101B90002046310A03F063F9042DF2D17D4B002178
:101BA000B3F90050204603F05AF90021204603F013
:101BB00056F9E9B2204603F052F9C5F30721204651
:101BC00003F04DF9744B754AB3F90060B2F9005057
:101BD0001978204603F043F9C6F30721204603F0A5
:101BE0003EF9E9B2204603F03AF9C5F307216C4DFE
:101BF000204603F034F92978204603F030F969785B
:101C0000204603F02CF9A978204603F028F9E9785A
:101C1000204603F024F9634B634AB3F90060B2F93C
:101C200000501978204603F01AF9C6F30721204620
:101C300003F015F9E9B2204603F011F9C5F30721C5
:101C40005A4D204603F00BF92978204603F007F996
:101C50006978574D204603F002F9A978204603F031
:101C6000FEF869882046090A03F0F9F8A9792046A8
:101C700003F0F5F8E9882046090A03F0F0F8A97A9C
:101C8000204603F0ECF869894A4D090A204603F022
:101C9000E6F829882046C9B203F0E1F82988464DC4
:101CA000C1F30721204603F0DAF829882046C9B29B
:101CB00003F0D5F82988414DC1F30721204603F0F0
:101CC000CEF829882046C9B203F0C9F82988C1F3A3
:101CD00007218BE400261D22F121204603F077F82E
:101CE000374B09AF1B680993364B1B680A93364B79
:101CF0001B680B93354B1B680C93354B1B680D937E
:101D0000344B1B680E93344B1B680F9357F8045BDE
:101D10002046E9B203F0A3F8C5F30721204603F0FB
:101D20009EF8C5F30741204603F099F80136204696
:101D3000290E03F094F8072EE8D164E4480000204F
:101D4000F80B002046000020400000204200002048
:101D500038000020300000202E000020F60B00206C
:101D6000F40B002028000020340000202000002078
:101D70001A0000201C000020180000201E00002077
:101D8000160000203E0000203C00002068000020DB
:101D900066000020E60B0020E40B0020320000204B
:101DA0001C0C00202600002024000020220000201F
:101DB0005C1200202C0C00202A0C0020280C002093
:101DC0000C0C0020000C0020040C0020FC0B002058
:101DD000180C0020D40B00204C0000200222AC2163
:101DE000204602F0F4FF0D21204603F038F8217A56
:101DF000204603F034F800220121284603F067F85A
:101E0000D44C002220700121284603F060F8607055
:101E10002288D14B01E50222AD21204602F0D7FFF6
:101E20000D21204603F01BF8217A204603F017F815
:101E300000220121284603F04AF8C64C00222070F7
:101E40000121284603F043F860702288C34BE4E484
:101E50000222AE21204602F0BAFF0D21204602F0F8
:101E6000FEFF217A204602F0FAFF002201212846D7
:101E700003F02DF8B74C002220700121284603F012
:101E800026F860702288B64BC7E40222AF212046B4
:101E900002F09DFF0D21204602F0E1FF217A20464D
:101EA00002F0DDFF00220121284603F010F8A94CC2
:101EB000002220700121284603F009F86070228872
:101EC000A84BAAE40222B021204602F080FF0D2197
:101ED000204602F0C4FF217A204602F0C0FF002213
:101EE0000121284602F0F3FF9A4C002220700121C4
:101EF000284602F0ECFF607022889B4B8DE40222A2
:101F0000B121204602F063FF0D21204602F0A7FF19
:101F1000217A204602F0A3FF00220121284602F088
:101F2000D6FF8C4C002220700121284602F0CFFF02
:101F3000607022888D4B70E40222B321204602F0AB
:101F400046FF0D21204602F08AFF217A204602F04A
:101F500086FF00220121284602F0B9FF7D4C0022B5
:101F600020700121284602F0B2FF60702288804B69
:101F700053E40222B421204602F029FF0D2120461D
:101F800002F06DFF217A204602F069FF0022012154
:101F9000284602F09CFF6F4C002220700121284649
:101FA00002F095FF60702288724B36E40222B52160
:101FB000204602F00CFF0D21204602F050FF217A4E
:101FC000204602F04CFF00220121284602F07FFF4C
:101FD000604C002220700121284602F078FF6070DA
:101FE0002288654B19E40222B621204602F0EFFE5A
:101FF0000D21204602F033FF217A204602F02FFF08
:1020000000220121284602F062FF524C002220707B
:102010000121284602F05BFF60702288574BFFF7D2
:10202000FCBB0222B721204602F0D1FE0D21204642
:1020300002F015FF217A204602F011FF0022012153
:10204000284602F044FF434C00222070012128461C
:1020500002F03DFF60702288494BFFF7DEBB022291
:10206000B821204602F0B3FE0D21204602F0F7FE13
:10207000217A204602F0F3FE00220121284602F0D8
:1020800026FF344C002220700121284602F01FFF59
:10209000607022883B4BFFF7C0BB0222B92120466B
:1020A00002F095FE0D21204602F0D9FE217A20464D
:1020B00002F0D5FE00220121284602F008FF254C3F
:1020C000002220700121284602F001FF6070228862
:1020D0002D4BFFF7A2BB0222C021204602F077FE63
:1020E0000D21204602F0BBFE217A204602F0B7FE09
:1020F00000220121284602F0EAFE164C0022207040
:102100000121284602F0E3FE607022881F4BFFF792
:1021100084BB0222C321204602F059FE0D21204635
:1021200002F09DFE217A204602F099FE0022012154
:10213000284602F0CCFE074C0022207001212846E0
:1021400002F0C5FE60702288114BFFF766BB0222C9
:10215000C4211EE4280E0020300000202E000020A4
:10216000F60B0020F40B0020280000203400002093
:10217000200000201A0000201C0000201800002071
:102180001E000020160000203E0000203C00002021
:10219000E60B00200222C521204602F018FE0D2188
:1021A000204602F05CFE217A204602F058FE002212
:1021B0000121284602F08BFE4F4C002220700121A5
:1021C000284602F084FE607022884C4BFFF725BB46
:1021D0000222C621204602F0FAFD0D21204602F01F
:1021E0003EFE217A204602F03AFE002201212846D6
:1021F00002F06DFE404C002220700121284602F0C2
:1022000066FE607022883E4BFFF707BB0222C721A3
:10221000204602F0DCFD0D21204602F020FE217A4E
:10222000204602F01CFE00220121284602F04FFE4B
:10223000314C002220700121284602F048FE6070D7
:102240002288304BFFF7E9BA0222C821204602F06B
:10225000BEFD0D21204602F002FE217A204602F04A
:10226000FEFD00220121284602F031FE224C002210
:1022700020700121284602F02AFE60702288224B3D
:10228000FFF7CBBA0222C921204602F0A0FD0D21A2
:10229000204602F0E4FD217A204602F0E0FD002213
:1022A0000121284602F013FE134C00222070012168
:1022B000284602F00CFE60702288144BFFF7ADBA7E
:1022C000134D04222B88CA21013320462B8002F0B3
:1022D0007EFD0D21204602F0C2FD29882046090A14
:1022E00002F0BDFD2978FFF781B90222204602F0F5
:1022F0006EFDFF21FFF77AB9280E0020E40B0020C5
:1023000032000020260000202400002022000020AF
:10231000BC0B0020F0B516464379027905469A4277
:102320000C46C3B01DD002F0DFFDD0B1012E04BFBA
:102330000022154B2146284608BF1A70FFF7F0F817
:102340000022617A02A8D3B299420CD8C6B1FEF736
:102350002FF94FF4807300930022637A02A9FEF7ED
:1023600099F943B0F0BDA77925687B1CDBB2A37156
:10237000ED5D013200F8015BE5792B40A371E2E7E6
:1023800002A808F029FBECE76400002010B50D4B13
:102390000D4C1A780D4B0E4853F822100122237869
:1023A00002FA03F38B4308BF1A464FF4005103F0BF
:1023B00073FC23780133DBB2142B28BF0023237076
:1023C00010BD00BFA7120020BA0B00207000002033
:1023D000001001402DE9F0418C4B8D4C1B788AB0E8
:1023E000032B5FFA83F840F02B810025012002F0D7
:1023F0007FF84023202229461E20009502F0C8F9CC
:102400001623802214212846009502F0C1F94023AA
:10241000522229465020009502F0BAF97D4E2946F5
:10242000282002F069F97C4902A808F067FD96E8C7
:102430000E00009502A802F049F92946552002F045
:102440005BF9764902A808F059FD96E80E00009560
:1024500002A802F03BF91921282002F04DF9704B37
:102460002021B3F900306F4A02A808F0B3FC94E8C9
:102470000E00009502A802F029F91921552002F05A
:102480003BF9694B2021B3F90030664A02A808F0F5
:10249000A1FC94E80E00009502A802F017F925218E
:1024A000282002F029F9614B2021B3F900305D4A60
:1024B00002A808F08FFC94E80E00009502A802F034
:1024C00005F92521552002F017F9594B2021B3F9C0
:1024D0000030544A02A808F07DFC94E80E000095F4
:1024E00002A802F0F3F83121282002F005F9514B3F
:1024F0002021B3F900304B4A02A808F06BFC94E8A5
:102500000E00009502A81E2602F0E0F831215520A9
:1025100002F0F2F8484B2021B3F90030414A02A8FA
:1025200008F058FC94E80E0040F6FA74434F00950A
:1025300002A802F0CBF83B8842467343B3FBF4F3A6
:10254000C3F13C033C214046DBB2009502F0DAF8CF
:102550007B8806227343B3FBF4F3C3F13C031046BC
:102560003C21DBB2009502F0CDF8BB880922734311
:10257000B3FBF4F3C3F13C0310463C21DBB20095FE
:1025800002F0C0F8FB880C227343B3FBF4F3C3F1F1
:102590003C0310463C21DBB2009502F0B3F83B89C6
:1025A0000F227343B3FBF4F3C3F13C0310463C2109
:1025B000DBB2009502F0A6F87B8912227343B3FBCD
:1025C000F4F3C3F13C0310463C21DBB2009502F06A
:1025D00099F8BB8915227343B3FBF4F3C3F13C03B1
:1025E00010463C21DBB2009502F08CF81822FB89E2
:1025F0003C217343B3FBF4F31046C3F13C03009555
:10260000DBB202F07FF80AB0BDE8F081A81200202A
:1026100030BF000824BF000874B9000878B900086A
:10262000A21200207CB900089C120020A0120020F9
:102630009A1200209E120020981200205C120020A6
:10264000002001F055FF02210125084602F054F850
:1026500094E80E004548009502F038F80221242045
:1026600002F04AF8424B20211B68424A02A808F0B7
:10267000B1FB94E80E00009502A802F027F81121A2
:10268000022002F039F894E80E003B48009502F071
:102690001DF81121242002F02FF80522374B2021AC
:1026A0001B6802A803EB430393FBF2F3344A08F0E0
:1026B00091FB94E80E00009502A802F007F8202193
:1026C000022002F019F894E80E002E48009501F05F
:1026D000FDFF2021242002F00FF864212A4E02A8D9
:1026E000326892FBF1F301FB1322002AB8BF524279
:1026F00020210092254A08F06DFB94E80E00009519
:1027000002A801F0E3FF2F21022001F0F5FF94E879
:102710000E001F48009501F0D9FF24202F2101F061
:10272000EBFF42F226323368009503F58C531333E6
:10273000934298BF174894E80E0088BF164801F0EE
:10274000C5FF01240E237F2219460020009401F0CA
:10275000D9FF1D237F2219460020009401F0D2FFEB
:102760002C237F221946002000944AE77FB90008F5
:102770009412002084B900088DB90008901200203E
:1027800092B900089CB90008180C0020A1B90008F3
:10279000ABB90008B0B90008BAB9000837B53F4B6B
:1027A0003F4C1A782AB11A78012A02D01B78022BE2
:1027B00016D12378013B012B12D800232370394A0C
:1027C000394B11781B788B4208D038484B1C415C40
:1027D00003F00F0391B103212170137003B030BDDA
:1027E0002378032B57D801A252F823F0BF27000803
:1027F000012800080B280008252800080121EBE724
:10280000FFF7E8FD02232370E8E7294804F02EFED5
:102810002028E3D101F092FE0028DFD00023254AD2
:102820001370F0E7224804F024FE234D10B14FF45A
:102830007A732B601E4804F019FE202816D101F08F
:102840009DFD98B11D4B1E4A01931E4B1E490093DE
:102850001E481F4B01F0DAFD00231E4A1E4913706B
:102860000A7842F008020A702B60CCE72B6801332B
:10287000B3F5FA7F2B60B1D90D4803F093FC01202A
:1028800002F00CFC0A4803F0E5FB01F041FD01F009
:1028900067FD0023E8E70023B5E700BFA81200208A
:1028A000B90B0020B80B00207C1200207D12002004
:1028B0009C140020A5120020B40B002098120020C8
:1028C0009E1200209A120020A0120020A2120020C6
:1028D0009C120020A4120020260E0020074B084A5C
:1028E0001B6812885A63074A1288DA63064A1288FC
:1028F0009A63064A12881A64704700BF3C1300208E
:10290000240E0020200E0020220E00201E0E00208B
:1029100013B50B4B044600934FF4AA71094B0A4AB6
:102920000A4808F057FA4FF4AA7300220093204691
:1029300040F243130549FDF7ADFE02B010BD00BFE4
:1029400005BA0008C0B9000800BA0008310C002020
:1029500013B50A4B044600934FF4AA71084B094A79
:10296000094808F037FA4FF4AA7300220093204672
:10297000B3230549FDF78EFE02B010BD0ABB000867
:10298000C0B9000800BA0008310C00202DE9F84356
:1029900000241F460C7014701C7047F23A53089DB7
:1029A00089462B8032490646904608F064FA58B1B1
:1029B000043010F8013FE2B213F0DF0F01D0262BF4
:1029C00036D1002309F8023030462A4908F053FA7C
:1029D00060B10023043010F8012FD9B212F0DF0FDC
:1029E00001D0262A2ED1002308F801303046224992
:1029F00008F041FA58B10023C21C12F8011FD8B2E6
:102A000011F0DF0F01D0262926D100233B54304698
:102A10001A4908F030FA48B10023053010F8012FA8
:102A2000303AD1B209291DD903B12B80BDE8F88312
:102A30002B2B08BF202309F8043001343F2CB8D1D8
:102A40002246BEE72B2A08BF202208F803200133C4
:102A50003F2BC0D11946C6E7F95401330F2BCCD117
:102A60001846D2E703EB830302EB430293B2D5E7A8
:102A70007FBB000885BB00088BBB000890BB00082B
:102A80002DE9F043344BA9B01E785EB100221A70D4
:102A900047F23152314B3248198829B0BDE8F04332
:102AA000FDF78CBDDFF8BC9099F80030002B42D0C8
:102AB0002D4F3B78FF2B3ED1FDF77AFD2B4C804606
:102AC0002B49204608F0D7F90546002836D0402289
:102AD000314608A808F0B4F94022314618A808F099
:102AE000AFF9102231460DEB020008F0A9F90DF103
:102AF0000E030093204604AB18AA08A9FFF746FF6F
:102B00009DF8103033B1164B0F22184604A908F077
:102B10009FF9C673BDF80E300BB1104A13804046C2
:102B2000FFF716FF002318A908A889F800303B70AA
:102B30002370FDF70FFD29B0BDE8F08320460D4955
:102B400008F099F928B14046FFF7E2FE3D70257084
:102B5000F1E738702070EEE7300C002052000020C2
:102B600054000020850D0020860D0020870D0020D8
:102B700097BB0008A1BB000840F20123038000239B
:102B800083708380C380704702780346032A1DD870
:102B9000DFE802F00F021407427842B903221A70EC
:102BA00005E0417801220029F9D1017082700020EE
:102BB00070474278012AFAD10222F0E740780022D9
:102BC0000128ECD118709A70D87170470122E6E79D
:102BD00070B504464FF400411D4803F057F8A6783D
:102BE0001C4A1D491D4DAEB188B113780133DBB2CB
:102BF000072B137003D90123637000231370002384
:102C00000B702B78EBB1A3880A33A38070BD607082
:102C10001070F4E70B781670042B0FD9003818BF2A
:102C200001200E70607000232B70A3796BB1A38814
:102C3000002BEBD0092B08D90A3BE6E701330B70D8
:102C4000F1E7A38001232B70DDE70023DDE700BF60
:102C5000000C0140B00B0020AF0B0020AE0B002099
:102C600037B53E4D2B78DB0934D02B7823F0800329
:102C70002B70FDF7DBFD3A48FFF7AAFF394890F8C3
:102C80004230222B09D0036837491A685B68202339
:102C9000012280F8423006F0D2FB344B1B7823B17E
:102CA00033490A88C2B1013A0A80324A1378013B9B
:102CB00013F0FF0303BF022313702B78137004BFBC
:102CC00043F040032B702C4B1C78013C14F0FF04A4
:102CD00017D01C7003B030BD284803780133DBB235
:102CE000042B94BF1A461346027040F6B8320A808D
:102CF0000C214B43224AD1184968D058FDF72AFCD1
:102D0000D3E70A221A702B7843F020032B70FFF7C9
:102D10003DFB1C4A13780133DBB2092B01D8137039
:102D2000D8E71470184C2378042B9CBF0133237010
:102D3000164B1D78002DCDD1FDF786FC0728C9D193
:102D40002378042BC6D94FF480732A460093284673
:102D500009230F49FDF79EFCBCE700BF260E0020AB
:102D6000080E0020AC1200201C0E00202E0C0020AB
:102D7000500000206B0000206C0000202F0C002071
:102D8000A4D400081D0E002064000020850D002042
:102D90000C000020F8B583780446002B4CD18388C2
:102DA000002B49D18379002B46D0C579EDB140F68F
:102DB000B732A388934251D8A3F5FA62B2F57A7F6D
:102DC00050D2334804F052FB202838D10025042685
:102DD000E571304B1E7001F0F3FB012001F00CFD9A
:102DE0002D4BA5711E70A58029E0294804F03EFBFB
:102DF000202824D1284601F07BFB01F085FB94F8C4
:102E000006C02649264ABCF1020FB1F90000B2F90A
:102E10000030204F204E1FD0BCF1030F10D0BCF16A
:102E2000010F19D135701F4E3D7030801E480D8046
:102E3000038015800023A371E379002BB7D1F8BD7F
:102E4000022503433D703570F4D1164B1B880B806F
:102E5000154B1B881380EDE70125F2E70023E37192
:102E6000A380ECE7A3F57A73B3F57A7F08D208481C
:102E700004F0FCFA2028E2D100250326E571A8E73A
:102E80000023E371A3790133A3714FF4C873E7E71B
:102E90009C140020A8120020A7120020300000205F
:102EA0002E0000202C0000202A00002038B50C46FF
:102EB000054601880948FEF78FFA2080698808488E
:102EC000FEF78AFA6080A9880648FEF785FAA08096
:102ED000E9880548FEF780FAE08038BD84D4000810
:102EE00064D4000844D4000824D4000837B5354B16
:102EF000354C19782278914261D022781A70237863
:102F00002BB12378012B02D02378022B57D12F48E5
:102F100004F0ACFA2028FAD1012001F06DFC002069
:102F200001F0E6FA2378D3B90125294C14211620A3
:102F300001F0E2FB94E80E002648009501F0C6FB84
:102F40002221242001F0D8FB94E80E0022480095AD
:102F500001F0BCFB03B0BDE8304001F0D5BA2378E6
:102F6000012BDDB213D11A4C1421162001F0C4FB41
:102F700094E80E001948009501F0A8FB22210420D6
:102F800001F0BAFB94E80E0015480095E0E72378BD
:102F9000022BDFD101250E4C1421162001F0ACFBD1
:102FA00094E80E000F48009501F090FB22212420A8
:102FB00001F0A2FB94E80E000B480095C8E703B0AF
:102FC00030BD00BF09000020A81200209C14002082
:102FD00030BF0008A7BB0008B4BB0008BDBB000899
:102FE000CABB0008DCBB0008E9BB000810B594B000
:102FF000142200210CA807F023FF142200210DEB5E
:10300000020007F01DFF1022002101A807F018FFA1
:1030100002244FF480330122CDE91143CDE90A2384
:103020004FF4E0130AA80E92139305F09DF808B12F
:1030300072B6FEE70F23CDE905344FF480630790A5
:10304000CDE90830214605A805F050FA08B172B65E
:10305000FEE7122301934FF40043CDE9033001A8AA
:1030600005F000FB08B172B6FEE714B010BD000019
:103070000268084B10B59A420AD1074C2078FDF738
:10308000F5FA2146BDE810400122044806F0D7B900
:1030900010BD00BF003801401C0E0020AC12002003
:1030A0000368074A934209D11A685B68202301220A
:1030B00080F842300349044806F0C1B9704700BFA8
:1030C000003801401C0E0020AC120020000000005F
:1030D0008D4A2DE9F04F15688C4ADFF834A2146848
:1030E0008C4A85B0B2F900B08B4ADAF80030B2F9F8
:1030F000002003900292894AB2F9007043EA050267
:10310000224300F0B2805A210A224B4302FB0B30CB
:10311000642390FBF3F04D434C430190029802FB73
:10312000074402FB005594FBF3F495FBF3F5019B78
:103130007B4ACAF80030744BB2F900801D60734BB3
:103140001C60784B1B68002B00F09480434403EB19
:10315000D3735B1000934FF48F704FF06409714B81
:10316000009A1A60704A116800FB01F292FBF9F6AE
:1031700081FB01024FEAE17C00FB0CFC01FB02CC6D
:103180005DA3D3E90023A0FB01016144FCF7E8FF44
:10319000311A664E33889BB2952B6ED833889BB21A
:1031A000272B31D8624B4FF48F70C3F80080614BEE
:1031B0005549B3F90020604B029C1A605F4B604A8E
:1031C0001F60232303FB08F3136093FBF9F3564AB4
:1031D0000C60136000FB03F483FB0302DD1745431F
:1031E0004A4903FB02550F60A0FB030142A3D3E948
:1031F0000023CAF800B02944FCF7B2FF94FBF9F4AD
:10320000484B211AC3F8008033889BB2312B0AD96E
:10321000444A4C4B10681A68401A10444A4A1860D5
:1032200013683B441360338801339BB23380338887
:103230009BB2962B0DD16422424B44491B6893FBF1
:10324000F2F30B80404B1B6893FBF2F3404A1BB236
:10325000138000233F4A13603F4A13602B4B1A68C8
:10326000364B1A6005B0BDE8F08F3C46029DCDF8A4
:1032700004B05CE7CDF800806DE7304B00981A6829
:103280001C60324BA21AB3F900306443C31A5B1AB4
:10329000019905FB0544694330482F4DB4FBF0F418
:1032A00091FBF0F11B1B0B44062192FBF1F213443E
:1032B000284A03981360136840F6262203F213513C
:1032C000914298BF00230399DA17A3FB013100FB59
:1032D0000211D81841EB0106C01841EB060108A302
:1032E000D3E90023FCF73CFF62232C685C4394FB8A
:1032F000F9F404442C60B5E7420A1B040000000006
:10330000404B4C0000000000940B0020900B00206C
:10331000980B00209C1200209A1200209812002086
:10332000A21200208C0B0020180C00208E1200200E
:10333000140C00209E120020100C0020880B00208E
:103340001C0C0020840B0020800B0020CE0B0020E2
:10335000BE0B002090120020941200202851220061
:103360002DE9F04FB74A87B013781B0740F143842B
:10337000137802A823F0080313700522B24BB34D53
:103380001A60B34AD18853885289ADF808300B448B
:10339000ADF80C2013440322B3FBF2F3ADF80A108E
:1033A00004A9ADF80E30FFF781FDBDF91000A94B5F
:1033B000BDF810E01880BDF91200A74BBDF812103F
:1033C0001880BDF91400A54BBDF8142018800EEB31
:1033D00001031344012BB8BF0123DFF884C2A148C5
:1033E000CCF80030A04B2E680768B3F900409F4B23
:1033F00056EA0708B3F900300ED04FF05F0804EB2F
:10340000840408FB0644642603EB830308FB0733AC
:1034100094FBF6F493FBF6F3036003F57A60B0F5E2
:10342000FA5F88BF23236FF0310088BF63432C60AD
:103430008F4D88BF2B608F4BB3F9003043438320FF
:1034400093FBF0F38C4803608C48046823442C6899
:1034500014256C434FF4757505FB0344884B9C425F
:1034600000F35881874B9C42C0F256814FF47A7327
:1034700094FBF3F464274FF0000994FBF7F7824EB6
:1034800004603078DFF804B2814B824D01281B685C
:10349000CBF80070C5F800905FFA80F800F03E812C
:1034A000B8F1020F00F03A82327832B13278012A54
:1034B00003D03278022A40F0BC82632CD4BF0021B2
:1034C0000121754ADFF8D4E111703278DFF8D0C1FC
:1034D000012A40F0F382734802780132D2B2072AFF
:1034E00000F2A9820270BCF900201344C822A3EBA9
:1034F0000708DFF8B4916D4B6D4CC3F80080D9F824
:103500000030DB1B02FB03F06A4B08F19502B2F5B9
:10351000957F1860236800F2D98208EB8802134473
:10352000654A9342B8BF134649F640429342A8BF4A
:103530001346624A2360B2F90020C9F800705A436A
:103540004FF47A7392FBF3F25D4BB3F9003008FB52
:1035500003225C4BB3F9003000FB032A42F21073E4
:103560009AFBF3FC33785848022BCEF800C0C0F821
:10357000008000F0B082554B1A88554B1B88377875
:10358000022F40F0CB82534F3F78012F40F0C6828C
:10359000514FB7F90080514FB7F900E02F6842F260
:1035A0000F75AA4540F3A382624402EB0805634409
:1035B0003D447344DF1B21B1494F00233D46236046
:1035C000036041F28830FFF783FD42F22832DBF8D6
:1035D000003003F58C531433934204D900273D4641
:1035E000404B27601F60404B1A88404B92B2952A8F
:1035F0001B8800F2E98200273D4627605A42954227
:10360000B8BF1546BB42A8BF3B4630789342B8BF0F
:1036100013463749374A28B13078012802D030782C
:1036200002286DD13078012840F0D28232480078EB
:10363000022840F0CD8231480078042840F0C8824A
:103640005EE000BF260E00204C000020140C00207D
:103650005C1200202C0C00202A0C0020280C0020DA
:10366000E00B0020100C0020A21200209E1200206F
:10367000240C00209A120020200C00201C0C00209A
:10368000E7ECA43519135BCAA8120020180C00201F
:1036900038000020D40B0020A10B0020FC0B0020E0
:1036A000E80B0020A00B00209C0B00200C0C00203D
:1036B000000C0020040C0020C063FFFFF80B00206A
:1036C0004800002046000020080C00204200002096
:1036D00040000020C80B0020F60B0020F40B002057
:1036E00048F4FFFF941200208E12002044000020B6
:1036F000200E00201E0E0020CC0B0020C90B002045
:1037000000231D46A848236003606D420D80002100
:10371000118063E2A54CADE6A54CABE640F2F31890
:103720004145CCBF00200120C645D8BF01304245ED
:10373000D8BF0130DFF87C8298F80090B9F1030F10
:1037400000F2EA80DFE819F004000F007700E400DF
:10375000B1F5FA7F01DA01222AE0974AB2F9002096
:1037600052422A60A0E6032802D188F800009BE6B6
:10377000DFF84892924940BBB9F800C00A680CF1E2
:10378000010C1FFA8CFCBCF1050FA9F800C012D97E
:103790008C49002A08808C498C4A08708C49A9F809
:1037A00000000860B4BF01214FF0FF311170022208
:1037B00088F8002078E6874B1A60874B1B682B60DF
:1037C000864B0A60B3F900306EE64FF47A7000233E
:1037D0004243A9F80030A3F57A7303FB0E22DCF80C
:1037E000003092FBF3F20A2392FBF3F2794B82EA68
:1037F000E27C1A607A4BACEBE27CC3F800C0794BF8
:10380000B3F9003053430CFB03F393FBF0F376481A
:10381000B0F9000002FB003374482B60B0F90000DF
:10382000834202DD0346286002E040428342F9DB26
:1038300069480360C4E7B1F5FA7F8CDB41F2883058
:103840006B4B6C4A1B88B2F900101BB2C91A6A4A4A
:10385000002381FB0001FCF783FC5D4A5A49136891
:1038600018440B781060032B19D8DFE803F0021A14
:10387000263C564B93F90030002B604BC8BF4FF4E9
:10388000AF732B6047F22F530028B8BF40429842D5
:1038900005DD002313604B4A138001230B70584B46
:1038A00002E64848038801339BB2632B0380F6D9B4
:1038B0000023136003800223F0E7444B93F90030A8
:1038C000002B4E4BD8BF4FF4AF732B604EF65F23E7
:1038D0000028B8BF40429842E1DD00231360394A16
:1038E00013800323DAE7394B93F90030002B434B65
:1038F000C8BF4FF4AF7300282B60424BB8BF4042A3
:103900009842CCDD002313602E4A13800423C5E7C0
:1039100003287FF420AFC7E5002249E741F2883A47
:10392000DFF8E480324B1B88D8F800201BB20192EC
:10393000304AB2F90000304AC01A80FB0A01002365
:10394000FCF70EFC019B31491844C8F800000A78C6
:10395000012AD3B20BD0022B60D0002B66D12C4AA7
:10396000C8F80030136001230B7000239CE5D8F8E1
:103970000030D8F80020002BDFF898C02648B8BFE8
:103980005242624590F9003008DD4FF0000C204AA9
:103990005B420370C2F800C00223E5E74FF4AF7248
:1039A00053432B60E1E700BF94120020A0BB0D0041
:1039B0006044F2FFCC0B002028000020AC0B00205C
:1039C000D00B0020CA0B0020C90B00200B000020E8
:1039D000A80B0020DC0B0020A40B002034000020EA
:1039E000D80B00202E0000203000002022000020F4
:1039F000BE0B002098120020B8FF0100A2FEFFFFBE
:103A0000D4FEFFFF3F7E0500C40B0020C80B002042
:103A1000C00B00208F5F01000A000020774B1A685E
:103A200052441A601A68764B9A429ED981F80090E7
:103A30009BE7002145E50022724C02702068724A23
:103A40000190B2F90020DEF80000C2F1640942439F
:103A50000198DFF8B88100FB0922642092FBF0F2A4
:103A60006B482260B0F900406A48A41A02682244F8
:103A70004245B8BF42464CF250384245A8BF424684
:103A800002606548B0F90000424342F2107092FBB8
:103A9000F0F26248B0F9000060434FF47A7490FB92
:103AA000F4F002445E488242B8BF024640F2DC5065
:103AB0008242A8BF0246ACF8002014E50020514A1B
:103AC000ACF800001060534A10600FE50A22DB00DA
:103AD00093FBF2F32DE5534B93F90030012B07BF15
:103AE00040F2E973002200234FF4E16247E54E4DB6
:103AF000AA4509DAACEB0205A5EB08053D44ACEBA1
:103B00000303A3EB0E0355E5464D5B4295F900C058
:103B100002FB0C820CFB03F3D519F2E7434F3F780D
:103B2000022F2ED0AFB142F20F77BA453CDC3E4FA8
:103B3000BA4546DA3E4FACEB0202B7F90070ACEB87
:103B40000303D21B3B4FB7F90070DB1B2F68D5195D
:103B500030E5394B394A1B8812882F680CEB070572
:103B6000002DACEB070711DD2B44314DB5F90050AA
:103B70001D44002F11DDD3192E4AB2F900701F44E5
:103B800019E540F2023340F2EE22E6E71FBFEB1ADE
:103B9000274DB5F900505D1BEBE73FF40CADBB1AA8
:103BA000244AB2F9007005E5214F6244B7F900706C
:103BB00063443A441F4FB7F900703B442F68D51B4C
:103BC000DDE700273D46F6E49D42A8BF1D4615E50A
:103BD000002D7FF79AAD158000220A80002B9AB243
:103BE0001749184BD5BF52421A800A800023D6BF0E
:103BF00000220B801A8007B0BDE8F08FC00B0020B8
:103C0000FF083D00F00B002032000020B03CFFFF19
:103C100034000020EC0B0020E40B0020E60B002019
:103C200024FAFFFF0A000020F1D8FFFFCC0B002090
:103C3000F60B0020F40B00203E0000203C0000208A
:103C4000240E0020220E002080B5A74D9AB001F06E
:103C500001FAFFF7CBF91022002113A807F0F0F8C2
:103C6000AB69002243F01003AB61AB694FF4005124
:103C700003F010030493049BAB699C4843F02003BA
:103C8000AB61AB69002403F020030593059BAB698E
:103C9000012743F00403AB61AB69022603F0040380
:103CA0000693069BAB6943F00803AB61AB6903F075
:103CB00008030793079B01F0EFFF00224FF4007108
:103CC0008B4801F0E9FF4FF40053884813A9CDE970
:103CD0001337CDE9154601F097FE4FF400438448B1
:103CE00013A9CDE91334159401F08EFE4FF400733F
:103CF0007F4813A9CDE91337CDE9154601F084FEBD
:103D00006B6922463B436B616B6921463B400B204C
:103D10000393039B01F080FC0B2001F0ADFC2246D5
:103D200021460E2001F078FC0E2001F0A5FC224671
:103D300021460F2001F070FC0F2001F09DFC6D4A20
:103D40006D4BCDE9134413604FF480731594936069
:103D500014734FF460231475546008241046D36123
:103D6000146101F0C7FB08B172B6FEE7CDE9130795
:103D7000159013A95F4801F051FA08B172B6FEE739
:103D80005C4813A9CDE9137601F048FA08B172B680
:103D9000FEE70325574813A91396149501F03EFA40
:103DA00008B172B6FEE713950425524813A914957D
:103DB00001F034FA08B172B6FEE7139505254D48B7
:103DC00013A9149501F02AFA08B172B6FEE713950B
:103DD0000625484813A9149501F020FA08B172B6D7
:103DE000FEE713950725434813A9149501F016FA29
:103DF00008B172B6FEE73F4813A9CDE9135401F0AC
:103E00000DFA044608B172B6FEE70EAE0146102266
:103E1000304607F015F81422214613A807F010F8D1
:103E200047233648DFF8D8C00AAFC0E900C3F923FA
:103E30000A947C60C0E90334C0E90544846004F05E
:103E4000F5FD08B172B6FEE74FF4805831462B48B5
:103E5000CDF8388004F0D0FE08B172B6FEE7CDE9A7
:103E6000130013A9254804F0BEFF08B172B6FEE79F
:103E7000CDE90A003946214805F03AF8054608B16F
:103E800072B6FEE701461022304606F0D9FF142232
:103E9000294613A806F0D4FF4FF047094FF080439E
:103EA000184C0A95C4E9003941F2873320467D60F9
:103EB000C4E90335A560A56104F0B8FD08B172B688
:103EC000FEE731462046CDF8388004F095FE08B173
:103ED00072B6FEE7CDE9130013A9204604F083FF74
:103EE00090B172B6FEE700BF001002400010014022
:103EF000000C01403415002000240140CC130020A8
:103F0000002C014084130020CDE90A0039462046E8
:103F100004F0EEFF044608B172B6FEE70146102237
:103F2000384606F08DFF14222146304606F088FF01
:103F30001C22214613A85B4D0894099406F080FFCB
:103F4000594B2846C5E9003942F20F730DF1200A9A
:103F5000C5E90334AC60AC6104F068FD08B172B629
:103F6000FEE739462846CDF8288004F045FE08B122
:103F700072B6FEE7284604F085FD08B172B6FEE78A
:103F8000002331464748CDE90E3304F02CFF08B139
:103F900072B6FEE7CDE908005146424804F0A8FF9A
:103FA000024608B172B6FEE760231590CDE91330E2
:103FB000179013A93B4804F0BDFD08B172B6FEE7A7
:103FC0000422384813A904F0B5FD08B172B6FEE723
:103FD0000822344813A904F0ADFD08B172B6FEE71B
:103FE0000C22304813A904F0A5FD044608B172B6AE
:103FF000FEE72C4800F0FCFD4FF4E1332B482C4D3C
:10400000C0E90244C0E900530C230461C0E905344F
:10401000C46105F005F8044608B172B6FEE706F083
:1040200067FC24482449254BC0E90244C0E9001339
:104030004FF48043C0E90644C0E90434046202F04E
:1040400009F8044608B172B6FEE71022014613A82B
:1040500006F0F6FE47231A4D1A4A0E94C5E90023CE
:1040600042F20F7328467460C5E90334AC60AC615A
:1040700004F0DCFC08B172B6FEE74FF4805328462A
:1040800013A9139304F0B8FD08B172B6FEE700233C
:1040900031460B48CDE90E3304F02AFF044698B1AF
:1040A00072B6FEE73C13002000040040AC12002072
:1040B000003801409C14002000580040801A06007F
:1040C000F412002000080040524806F09BFC5248C1
:1040D00004F0B6FB514804F0B3FB514804F0B0FBC8
:1040E00021464F4804F002FF04214D4804F0FEFE33
:1040F00008214B4804F0FAFE0C21494804F0F6FE72
:104100004FF400510122474801F0C6FD464800F037
:10411000E9F9464800F0E0F9454800F0D7F900F029
:1041200077FB204600F068FB424800F0C7F84248A1
:1041300000F0CAF8414800F0CDF800F0E9F8404A34
:10414000404B10461360404B5360404B9360FCF76C
:1041500035FB3F48FDF756F83E48FDF74DF8012284
:104160003D493E4805F06BF940F6B8323C4B3D49BD
:104170001C703D4B3D481C703D4B1A8001223D4B4D
:104180001A70FCF7E7F93C4B3C4A3D493D4800F0CA
:104190000AFF3D4B3D4A3E483E4900F004FF3E4B7E
:1041A0003E4A1C703E4B3F481C803F4B1C803F4B9F
:1041B0001C803F4B1C80FEF7DFFCD2F8FC3043F044
:1041C0008073C2F8FC303B4B5C601A6842F001021D
:1041D0001A600190FEF744FDFCF75CFBFEF750FC13
:1041E000002227492748FEF795F801222949284847
:1041F000FEF790F8FEF772FBFEF7D0FAFFF7B0F883
:104200000198FEF7C1FC0198FEF7C4FDFEF76EFEB3
:10421000E0E700BF11120008CC1300208413002037
:104220003C13002000100140A5120020511200088C
:1042300079120008A41200207512000895120008D7
:10424000100E00203D120008B1120008E51200080F
:10425000D1120008511300081C0E0020AC120020DF
:10426000850D0020F2BB00082F0C002001BC0008C7
:10427000500000202E0C00202C1100202C100020BB
:1042800050120020441200202C0F00202C0E002081
:104290002C12002038120020260E002000ED00E035
:1042A000240E0020080E0020200E0020220E0020E8
:1042B0001E0E0020001000E072B6FEE7014B1860F1
:1042C000704700BF94150020014B1860704700BF75
:1042D00090150020014B1860704700BF8C1500201E
:1042E000044A10B414680B46A44601460122D020AB
:1042F00010BC6047901500201346044A10B414689F
:10430000CAB2A446014610BCD02060478C150020DC
:1043100013B500240DF107006B218DF80740FFF75E
:10432000DFFF04230DF1070019218DF80730FFF797
:10433000D7FF02230DF107001A218DF80730FFF790
:10434000CFFF0DF107001C218DF80740FFF7C8FFD4
:104350001B210DF10700FFF7C3FF02B010BD0000E5
:104360000122044B1A70044B1B680BB100221A7017
:10437000704700BF840000209415002008B51A4B38
:1043800019681A4B08781A7818B9012A23D0002026
:1043900008BD0020012A08701DD0022AF7D1012093
:1043A0001870134B13491A88D2BA0A605A881249F6
:1043B000D2BA0A609A881149D2BA0A601A89104999
:1043C000D2BA0A605A890F49D2BA9B890A600E4A4A
:1043D000DBBA1360DCE702220E211A7004483B228C
:1043E000FFF78AFFD3E700BF941500208400002068
:1043F00064150020881500208415002080150020F9
:104400007C150020781500207415002070B5DDE9BA
:10441000045410B10B4E3668068011B10A4800688A
:10442000088012B109490968118013B1084A12685D
:104430001A8015B1074B1B682B8014B1064B1B6803
:10444000238070BD88150020841500208015002071
:104450007C150020781500207415002013B5064B3C
:104460008DF807001C680122002378200DF1070158
:10447000A04702B010BD00BFA419002013B5064B21
:104480008DF807001C680122002378200DF1070138
:10449000A04702B010BD00BFA0190020044B10B40B
:1044A0001C68CAB2A44601464023782010BC60476D
:1044B000A4190020044B10B41C68CAB2A4460146DB
:1044C0004023782010BC6047A0190020014B1860E1
:1044D000704700BFA0190020014B1860704700BF53
:1044E000A4190020014B1860704700BFA8190020D4
:1044F00000284FF4806214BFFF210021014806F01C
:104500009FBC00BF9E15002038B5B0240A4D204640
:10451000FFF7A4FF0020FFF7A1FF01341020FFF7F1
:104520009DFFE4B228468021FFF7B8FFB82C05F1C3
:104530008005ECD138BD00BF9E15002038B51C4B5E
:104540001C4C1A682378117819B9012B0AD0002065
:1045500038BD0021013B1170032BF8D8DFE803F0D0
:10456000020B1015144B18785038C0B2FFF786FFB5
:1045700002232370EBE70020FFF780FF0323F8E717
:104580001020FFF77BFF0423F3E70B4D0B4B28783C
:10459000802103EBC010FFF78DFF01202B782070E6
:1045A0000133DBB2072B2B70D1D900232B70CFE75F
:1045B000A8190020850000209E1900209E150020CB
:1045C0000022054B1A700122044B1A70044B1B6821
:1045D00003B11A70704700BF9E19002085000020AB
:1045E000A8190020030630B510D43F290ED80124A5
:1045F000CB08074D00EBC3102B5C01F0070104FA58
:1046000001F1A2420CBF0B438B432B5430BD00BFC2
:104610009E1500202DE9F04F044689B008A800E956
:104620000E009DF84830A4F120050293EBB25E2BFA
:1046300047D8079B23B3234413F8206C224AB2F8CF
:10464000009009EB0603802B3BDC53889DF815B0E6
:10465000019303EB0B02402A33DC029B4FF000086E
:10466000B3FA83FA0BFB05F54FEA5A1A6D00C345FE
:1046700009D8154B4E441E80204609B0BDE8F08F86
:104680009DF81460DAE70027069A535B0493019BB8
:1046900008EB0302D3B20393BE4203D808F101082A
:1046A0000235E4E7049B07EB090003FA07F2130461
:1046B00054BF5246029A0399C0B2FFF793FF0137E5
:1046C000EAE70024D8E700BF9815002070B586B04F
:1046D00003AC84E80E009DF82860451E15F8010F14
:1046E00040B1009694E80E00FFF794FF0346287847
:1046F0008342F3D006B070BD014B188059807047DB
:10470000981500202DE9F74F9046A8EB0009A3EB80
:10471000010AB9F1000F1E46B8BFC9F10009BAF18C
:10472000000FB8BFCAF1000A804594BF4FF0FF33B5
:10473000012305460C468E4294BF4FF0FF3B4FF0DD
:10474000010B404631469DF830200093A9EB0A0743
:10475000FFF748FFCAF10003454504D1B44202D136
:1047600003B0BDE8F08F214628460193FFF73AFFDA
:10477000019B7900B3EB470FBFBF0098A7EB0A0777
:104780002D18EDB28945C2BF5C444F44E4B2E3E763
:104790002DE9F0411446A042804628BFA046A04221
:1047A000064638BF264699420C4628BF1C46994209
:1047B00038BF19460F469DF81820BC4201D83F2C3F
:1047C00001D9BDE8F081454607E02B0607D428460D
:1047D0002146FFF707FF0135EDB2B542F5D90134A7
:1047E000E4B2EAE710B504468120FFF737FE204621
:1047F000BDE81040FFF732BE034628B10123AF20C9
:10480000024A5371FFF72ABEAE20F9E7981500203F
:1048100008B5642000F042FC0020FFF7EDFF2020E7
:10482000FFF71CFE0020FFF719FEB020FFF716FE71
:10483000C820FFF713FE0020FFF710FE1020FFF73F
:104840000DFE4020FFF70AFEFF20FFF7CBFFA1205F
:10485000FFF704FEA620FFF701FEA820FFF7FEFDEC
:104860003F20FFF7FBFDA420FFF7F8FDD320FFF763
:10487000F5FD0020FFF7F2FDD520FFF7EFFDF0205A
:10488000FFF7ECFDD920FFF7E9FD2220FFF7E6FD59
:10489000DA20FFF7E3FD1220FFF7E0FDDB20FFF752
:1048A000DDFD2020FFF7DAFD8D20FFF7D7FD142076
:1048B000FFF7D4FD0120FFF79FFF0020FFF718FE50
:1048C000FFF722FE0022034B1A805A8001221A7140
:1048D00008BD00BF981500200E4B82B09A6942F0C7
:1048E00001029A619A6902F001020092009ADA6963
:1048F00042F08052DA61DB69074A03F0805301938A
:10490000019B536823F0E06343F08063536002B07F
:10491000704700BF001002400000014030B505465E
:1049200087B01022002102A806F08AFA2A68204BDC
:104930009A423BD103F56C439A691E4842F40072D7
:104940009A619A6902A902F400720092009A9A6927
:10495000194C42F004029A619B69FF2203F00403A0
:104960000193019B0323CDE9022301F04DF8802040
:104970004FF480720023C4E903024FF480620F49B0
:104980002046C4E90013C4E90523A360E36100F0F5
:10499000A7FE08B1FFF790FC002212202C621146FE
:1049A000656200F039FE122000F066FE07B030BDEF
:1049B0000024014000080140F014002008000240DB
:1049C00030B5054687B01022002102A806F038FA5B
:1049D0002A682E4B9A4256D12D4C4FF44061A36960
:1049E0002C4843F00803A361A36903F00803009374
:1049F000009B1223CDE90213032302A9059301F0C2
:104A000003F8E369802243F48003E361E369224809
:104A100003F480030193019B0023204CC4E90003AD
:104A20002046C4E90323C4E90533A360E36100F031
:104A300057FE08B1FFF740FC1023194AAC636562CA
:104A4000184CC4E90023002380222046C4E9023226
:104A5000C4E90433C4E9063300F042FE08B1FFF7AD
:104A60002BFC0022212011466C63656200F0D4FD0E
:104A7000212000F001FE00222220114600F0CCFD92
:104A8000222000F0F9FD07B030BD00BF0058004003
:104A900000100240000C0140580002405814002051
:104AA00044000240141400200268114B10B59A42D1
:104AB00004461CD10F4A4FF48061D3690E4823F499
:104AC0008003D36101F074F84FF400610A4801F0EB
:104AD0006FF8A06B00F034FE606B00F031FE212017
:104AE00000F0D8FDBDE81040222000F0D3BD10BD7D
:104AF0000058004000100240000C01401FB5036840
:104B0000374A93422CD1374B18209A6942F40062FD
:104B10009A6100229B69114603F400630093009B95
:104B200000F07AFD182000F0A7FD002219201146A0
:104B300000F072FD192000F09FFD00221A2011469E
:104B400000F06AFD1A2000F097FD00221B2011469C
:104B500000F062FD1B2005B05DF804EB00F08CBD99
:104B6000B3F1804F11D103F50433DA691C2042F010
:104B70000102DA610022DB69114603F001030193AF
:104B8000019B00F049FD1C20E5E7174A934210D134
:104B9000144B1D20DA6942F00202DA610022DB695F
:104BA000114603F002030293029B00F035FD1D2025
:104BB000D1E70E4A934210D10A4B1E20DA6942F027
:104BC0000402DA610022DB69114603F00403039357
:104BD000039B00F021FD1E20BDE705B000BD00BF16
:104BE000002C01400010024000040040000800407A
:104BF00010B5044686B01022002102A806F020F964
:104C00002268114B9A421CD103F503339A690F486D
:104C100042F008029A619B69332203F00803019372
:104C2000019B022302A9CDE90223059300F0ECFECB
:104C3000074A536823F4406343F0E06343F400639E
:104C4000536006B010BD00BF00040040000C0140DE
:104C50000000014010B5044686B01022002102A8D1
:104C600006F0EEF822681B4B9A4230D103F5584308
:104C70009A69194842F480429A619A6902A902F439
:104C800080420092009A9A69002442F004029A61DC
:104C90009B694FF4007203F004030193019B02230C
:104CA000CDE902230323059300F0AEFE4FF48063A9
:104CB000094802A9CDE90234049400F0A5FE25209C
:104CC0002246214600F0A8FC252000F0D5FC06B0C5
:104CD00010BD00BF0038014000080140FEE7FEE7BC
:104CE000FEE7FEE7FEE770477047704700F0C4B983
:104CF000014800F0F1BD00BFF0140020014800F0B1
:104D0000EBBD00BF14140020014800F0E5BD00BF5A
:104D100058140020014800F001BA00BF34150020EB
:104D2000014802F037BC00BFA0280020FFF7F8BF01
:104D3000014803F0B4BD00BFCC130020FFF7F8BF5B
:104D4000FFF7F6BFFFF7F4BF014803F0A8BD00BFAF
:104D500084130020014803F0A2BD00BF3C130020D3
:104D6000014803F09CBD00BFF4120020014801F08F
:104D700083BE00BF9C140020014802F0D7BA00BFD8
:104D80009C140020014804F0F7B900BFAC120020C9
:104D90000A4A0346106810B508B909481060094965
:104DA000094C0344091B8B4206D906F07BF80C23FF
:104DB00003604FF0FF3010BD1360FCE7AC1900201A
:104DC000C02C002000500020000400007047034663
:104DD000002030B5187258791C68451C5D71552546
:104DE000987125545879DC7901322040451C5D7159
:104DF0004E251C68D2B225545879DC792040451CD8
:104E00005D7145251C6825545879DC792040451C86
:104E10005D7152251C6825545879DC7920401C6846
:104E2000451C5D7122545879DC794A402040451C6C
:104E30005D713A251C6825545879DC7920401C683E
:104E4000451C5D7121545879DC7920405871072048
:104E50005872187A504080F03600187230BD034600
:104E600010B5427A013242725A790068541C5C7162
:104E700081545A79D87902405A711A7A81EA02002B
:104E8000187210BD002337B58DF807309DF8073034
:104E9000CB5C13B9007A03B030BD437A9DF807406C
:104EA00001334372437902685D1C45710C5DD45433
:104EB0004379C27913409DF807204371531CDBB23C
:104EC0008DF807308B5C027A53400372DEE70346AD
:104ED00010B5C47980790144214018689971405C0B
:104EE00011440C409C7110BDF0B500240526457995
:104EF0000379AB4201D10020F0BD827A072A50D855
:104F0000DFE802F0040F1C22282D4F3E0268D25C1D
:104F1000552A01D101228272C279013313400371F3
:104F2000E6E70268D25C4E2A01D10222F3E7552A55
:104F3000F2D000228272013BDBB2EDE70268D25C64
:104F4000452A1BD10322E6E70268D25C522A15D11A
:104F50000422E0E70268D25C86724272DCE70268F3
:104F6000D25C3A2A0AD10721C2798172591C0A40BF
:104F70008271427A82F036020272CDE78472DAE7F9
:104F8000427A0768013AD2B2017A42721AB1FA5CE7
:104F900051400172C0E78272FA5C8A42BCD10120A2
:104FA000AAE78472B8E710B502604FF07F44002290
:104FB000446002818272C1E900340A818A7210BDA4
:104FC000FFF704FF0B480C490C4A002302E0D458B9
:104FD000C4500433C4188C42F9D3094A094C002345
:104FE00001E013600432A242FBD305F061FFFEF73B
:104FF0002BFE7047000000205C02002028D500082E
:105000005C020020C02C0020FEE7000038B50E4BEB
:1050100005461A784FF47A73B3FBF2F30B4A106823
:10502000B0FBF3F000F048FB044658B90F2D09D847
:10503000024629464FF0FF3000F0EEFA2046044BBE
:105040001D6038BD0120FCE78C0000208800002096
:1050500090000020074A08B51368032043F01003AE
:10506000136000F0C7FA0F20FFF7D0FFFFF734FC02
:10507000002008BD00200240034A044B11681B7841
:105080000B441360704700BFB01900208C00002053
:10509000014B1868704700BFB019002038B50446AE
:1050A000FFF7F6FF0546631C1EBF044B1B78E41890
:1050B000FFF7EEFF431BA342FAD338BD8C0000205C
:1050C000436A10B59A6A12F0500F1BD19A6A42F4E3
:1050D00000729A621A68926802F46022B2F5602F38
:1050E0000CD11A7B52B99A6A22F480729A629A6A37
:1050F000D2045EBF9A6A42F001029A621846FCF737
:1051000093F910BD1B6ABDE810401B6B1847704730
:1051100008B5406AFFF7FBFF08BD7047036870B52C
:105120001D685E680446B00626D5A90724D5A26A84
:10513000D2065EBFA26A42F40072A2629A6802F4CA
:105140006022B2F5602F10D1227B72B95A6822F02A
:1051500020025A60A36A23F48073A362A36AD8046E
:105160005EBFA36A43F00103A3622046FCF75CF92B
:105170006FF0120223681A60310630D56A072ED507
:10518000A36ADB065EBFA36A43F40053A3622368ED
:105190009A6802F4E042B2F5E04F0AD05A6850052E
:1051A00016D49A6802F46022B2F5602F10D1227BE7
:1051B00072B95A6822F080025A60A36A23F48053BD
:1051C000A362A36AD9055EBFA36A43F00103A36289
:1051D000204600F00DFA6FF00C0223681A60720688
:1051E0000CD5EB070AD5A36A204643F48033A362AB
:1051F000FFF793FF6FF0010223681A6070BD7047DC
:10520000406A08B5836A43F040038362C36A43F08F
:105210000403C362FFF7F3FF08BD0000002373B56A
:10522000019390F824300446012B6CD0012380F8C0
:1052300024304D680268062D086805EB850322D8E6
:105240001F26556B053B9E4025EA060500FA03F331
:105250002B43536309288B6800EB40054FF007018F
:1052600029D9D6681E3DA94026EA0101AB400B436F
:10527000D360A0F11003012B25D90020002384F86E
:10528000243002B070BD0C2D4FF01F0509D8166BED
:10529000233B9D4026EA050500FA03F32B431363E5
:1052A000D8E7D66A413B9D4026EA050500FA03F39C
:1052B0002B43D362CEE71069A94020EA0101AB403D
:1052C0000B431361D9E7114B9A4216D193681B0225
:1052D000D3D49368102843F400039360CDD10C4BD2
:1052E0000C4A1B68B3FBF2F30A2253430193019B60
:1052F000002BC2D0019B013BF8E7A36A012043F0D9
:105300002003A362BAE70220BBE700BF00240140EC
:105310008800002040420F00002337B50193036846
:1053200004469A68D20702D5002003B030BD9A68BF
:1053300042F001029A60144B144A1B68B3FBF2F36B
:105340000193019BE3B9FFF7A3FE054623689B6821
:10535000DB07E9D4FFF79CFE401B0228F6D923683F
:105360009B6813F00103F1D1A26A012042F0100200
:10537000A262E26A84F8243042F00102E262D4E7D9
:10538000019B013BDCE700BF8800002040420F008A
:105390002DE9F0413F4B9046026804469A420F4681
:1053A00002D03D498A4203D15B6813F4702F6DD15E
:1053B00094F82430012B6BD00123204684F824304C
:1053C000FFF7AAFF064600285DD1A56A2168324B87
:1053D00025F4706525F0010545F480759942A562B4
:1053E00004D12C4A536813F4702F3ED1A36A23F4DE
:1053F0008013A3624B685A0505D5A36A23F4405372
:1054000043F48053A362A36A206A13F4805318BF45
:10541000E36A3A4618BF23F00603E362002384F8E8
:1054200024301E4B4C3183621D4BC3621D4B036302
:105430006FF0020341F84C3C51F8443C43F4807354
:1054400041F8443C434600F0A5F923689A6802F409
:105450006022B2F5602F9A680CBF42F4A00242F4B9
:1054600080129A603046BDE8F081A36A43F480134D
:10547000A36253685B0541BFA06A20F4405040F42A
:105480008050A062BFE7002384F824300126E9E7BA
:105490000226E7E70024014000280140C15000082F
:1054A000115100080152000838B5036804469A6893
:1054B000D10701D4002038BD9A6822F001029A6019
:1054C000FFF7E6FD054623689B68DB07F2D5FFF78B
:1054D000DFFD401B0228F6D923689B68DA07F2D566
:1054E000A36A012043F01003A362E36A43F00103BF
:1054F000E362E0E7F8B5044600286DD0836A23B97B
:10550000C36280F82430FFF709FA2046FFF7CCFF8A
:10551000A36A13F0100361D100285FD1A26A616809
:1055200022F4885222F0020242F00202E569A668E3
:10553000A262227B2943B6F5807F41EA420136D040
:10554000771E7D427D412D02277D012F06D182BB32
:10555000A269013A45EA423242F400652268B6F592
:10556000807F576827F4694745EA070555609768C3
:105570001D4D05EA070545EA0105956001D0012E9C
:1055800002D12369013B1B05D56A25F470052B4325
:10559000D3629268154B1340994213D10023E36202
:1055A000A36A23F0030343F00103A362F8BD354669
:1055B000CAE7A26A42F02002A262E26A42F0010255
:1055C000E262CBE7A36A23F0120343F01003A36265
:1055D000E36A43F00103E3620120E7E7A36A43F0D3
:1055E0001003A362F8E700BFFDF7E1FFFE0E1FFF07
:1055F0007047000007490302CA6803F4E06322F41D
:10560000E0621204120C134343F0BF6343F400330F
:10561000CB60704700ED00E0154B30B5DC68C4F39B
:105620000224C4F10703251D042B28BF0423062DE3
:105630004FF0FF3594BF0024033C05FA03F321EA41
:105640000303A54022EA0502A340002843EA02031F
:10565000ACBF00F16040074A4FEA0313DBB2ABBFB7
:1056600000F5614000F00F0080F80033135430BDA6
:1056700000ED00E014ED00E0002807DB0123410904
:10568000034A00F01F00834042F82130704700BFFA
:1056900000E100E000280CDB01220649430900F08C
:1056A0001F008240203341F82320BFF34F8FBFF308
:1056B0006F8F704700E100E00138B0F1807F0BD2BE
:1056C0004FF0E023F021054A586182F823100020B2
:1056D000072298611A6170470120704700ED00E0D1
:1056E000034610B530B301681420134A0A44B2FBD4
:1056F000F0F292001A64114ADA63022283F8212040
:10570000D3E901242243DC68086822431C696FF353
:105710000D1022435C6922439C692243DC692243C9
:1057200002430A6000200122986383F8200083F876
:10573000212010BD0120FCE7F8FFFDBF0000024062
:1057400010B508B30168114A0B680A4423F001033D
:105750000B6000230B604B608B60CB601421B2FBAD
:10576000F1F201210A4C9200026401FA02F2C463D0
:1057700062608363C0E90A33C0E90C3380F82130EA
:1057800080F82030184610BD0120FCE7F8FFFDBF6F
:1057900000000240F0B590F82040012C34D00124E4
:1057A00080F8204090F82140012CE5B24FF0000431
:1057B00028D1022680F8216084630468266826F0D8
:1057C00001062660D0E90F67BD40756063604368DD
:1057D000102BC36A0BBFA260A160E160E2604BB115
:1057E000236843F00E0300202360236843F0010385
:1057F0002360F0BD236823F004032360236843F093
:105800000A03F0E780F820400220F2E790F8212018
:105810000346022A06D0042282630120002283F874
:10582000202070470268C06B116821F00E011160E2
:10583000116821F00101116001211A6C01FA02F2D4
:105840004260002083F82110E8E7000008B590F8D6
:105850002130022B03D004238363012008BD036899
:105860001A6822F00E021A601A6822F001021A6009
:10587000174A93421FD0143293421ED014329342DF
:105880001DD0143293421DD0143293421DD01432D5
:10589000934214BF4FF080734FF480130D4A53604E
:1058A000012380F82130002380F82030436B03B1BE
:1058B00098470020D2E70123F0E71023EEE74FF4EA
:1058C0008073EBE74FF48053E8E74FF48033E5E76C
:1058D000080002400000024070B40425C66B026C50
:1058E0003468036895402542196832D04D0730D599
:1058F0001A6896065EBF1A6822F004021A603E4AD1
:10590000934219D01432934218D01432934217D0D4
:105910001432934217D01432934217D01432934268
:1059200014BF4FF080634FF48003344A5360C36A5E
:10593000002B5ED070BC18470423F6E74023F4E741
:105940004FF48063F1E74FF48043EEE74FF4802398
:10595000EBE702259540254235D08D0733D51A68EF
:10596000940606D41A6822F00A021A60012280F80E
:105970002120214A934219D01432934218D0143274
:10598000934217D01432934217D01432934217D057
:105990001432934214BF4FF000734FF40013174AB0
:1059A0005360002380F82030836AC1E70223F6E7C2
:1059B0002023F4E74FF40073F1E74FF40053EEE7D0
:1059C0004FF40033EBE708259540254211D0090735
:1059D0000FD5196821F00E011960012303FA02F2B4
:1059E0007260836380F82130002380F82030036BDD
:1059F0009EE770BC704700BF0800024000000240F4
:105A000090F82100704700002DE9F74F00244FF077
:105A10000F0E2646DFF884C1614B00F104080A68C6
:105A200032FA06F502D103B0BDE8F08F012505FA80
:105A300006F702EA070537EA020276D14A68032A26
:105A400007D8013A022A00F28380DFE802F091963B
:105A50009C00122A00F0948069D8112A00F08A80F4
:105A6000FF2D94BF8146C1464FEA8602D9F80070E7
:105A700088BF203A0EFA02FA27EA0A0704FA02F26D
:105A80001743C9F80070D1F8049019F0805F4CD02A
:105A9000DCF8182026F0030742F00102CCF81820A9
:105AA000DCF8182007F1804702F00102019207F5A7
:105AB000803706F0030A019A4FEA8A0ABA680EFA9A
:105AC0000AFB22EA0B0B374A904260D002F5806253
:105AD00090425ED002F5806290425CD002F5806216
