:020000040800F2
:1000000000500020A9560008C5530008C753000837
:10001000C9530008CB530008CD530008000000006E
:10002000000000000000000000000000CF530008A6
:10003000D153000800000000D3530008D553000836
:10004000F1560008F1560008F1560008F156000874
:10005000F1560008F1560008F1560008F156000864
:10006000F1560008F1560008F1560008D95300086F
:10007000F1560008F1560008E5530008F153000856
:10008000F1560008F1560008FD5300080954000815
:1000900015540008F1560008F1560008F156000802
:1000A0001954000825540008295400082D5400084C
:1000B000315400083D54000849540008F156000826
:1000C000F15600085554000861540008F156000824
:1000D000F15600086D540008F1560008F15600086A
:1000E000F1560008F1560008F15600080000000023
:1000F0000000000000000000000000000000000000
:0C01000000000000000000005FF808F1A3
:1001100010B5054C237833B9044B13B10448AFF341
:1001200000800123237010BD6C020020000000003D
:10013000DCBE000808B5034B1BB103490348AFF30D
:10014000008008BD0000000070020020DCBE000836
:1001500010F8012B11F8013B012A28BF9A42F7D071
:10016000D01A7047034613F8012B002AFBD1181A46
:10017000013870477BB972B90029BEBF00204FF02B
:10018000004106E008BF00281CBF6FF000414FF09F
:10019000FF3000F0B9B9ADF1080C6DE904CE0029CB
:1001A00009DB002B1ADB00F035F8DDF804E0DDE9AF
:1001B000022304B07047404261EB4101002B1BDB7E
:1001C00000F028F8DDF804E0DDE9022304B0404245
:1001D00061EB4101524263EB43037047524263EBD0
:1001E000430300F017F8DDF804E0DDE9022304B072
:1001F000404261EB41017047524263EB430300F020
:1002000009F8DDF804E0DDE9022304B0524263EBB3
:10021000430370472DE9F047089D0F4604468E467C
:10022000002B48D18A42164661D9B2FA82F24AB10D
:10023000C2F1200301FA02FE20FA03F3964043EADA
:100240000E0E94404FEA164CBEFBFCF1B7B20CFB0D
:1002500011EE01FB07F0230C43EA0E43984209D943
:10026000F31801F1FF3E80F0ED80984240F2EA8001
:10027000023933441B1AB3FBFCF00CFB103300FBB8
:1002800007F7A4B244EA0344A74209D9341900F19C
:10029000FF3380F0D980A74240F2D6803444023840
:1002A00040EA01400021E41B1DB10023D440C5E910
:1002B0000043BDE8F0878B4206D90DB1C5E90001C6
:1002C00000210846BDE8F087B3FA83F1002947D141
:1002D000BB4202D3824200F20481841A67EB03021C
:1002E00001209646002DE4D0C5E9004EE1E7002A42
:1002F00000F09080B2FA82F2002A40F0A780881BBA
:100300000121370C1FFA86FEB0FBF7FC07FB1C002F
:10031000230C43EA00430EFB0CF0984207D9F31874
:100320000CF1FF3802D2984200F2E080C4461B1A5A
:10033000B3FBF7F007FB10330EFB00FEA4B244EA58
:100340000344A64507D9341900F1FF3302D2A6456C
:1003500000F2C9801846A4EB0E0440EA0C40A3E763
:10036000C1F120068B4022FA06FC4CEA030C27FA66
:1003700006FA4FEA1C49BAFBF9F88F4020FA06F357
:1003800009FB18AA1FFA8CFE3B4300FA01F708FB91
:100390000EF01C0C44EA0A44A04202FA01F20BD906
:1003A0001CEB040408F1FF3A80F09980A04240F26F
:1003B0009680A8F102086444241A98B2B4FBF9F3B9
:1003C00009FB134403FB0EFE40EA0444A64508D98A
:1003D0001CEB040403F1FF307FD2A6457DD9023B1C
:1003E000644443EA0840A4EB0E04A0FB028E74456B
:1003F0004346F14661D35ED055B1FA1A64EB090465
:1004000004FA06F622FA01F31E43CC40C5E9006463
:1004100000214EE743084FEA510C43EAC1710A0C30
:1004200042EA0C428BB2C407B2FBF6F143EA024344
:10043000BCFBF6FCB646304637461F22181A41EA86
:100440000C4161E7714615E7184629E7C2F1200320
:1004500021FA03F0964024FA03F397403B43370C0C
:10046000B0FBF7F807FB18001FFA86FE190C41EAEB
:10047000004108FB0EF0884204FA02F43AD97118E0
:1004800008F1FF3C01D288421ED8091AB1FBF7F8E7
:1004900008FB0EF007FB18119BB243EA01438342AD
:1004A0002FD2F31808F1FF31C8D28342C6D2A8F187
:1004B00002013344C2E747459ED2B8EB02036EEB1C
:1004C0000C0E0138F14697E7301A0144A8F1020CEE
:1004D000B1FBF7F808FB0EF0DCE7034681E7D046F6
:1004E0006AE70846FEE63444023834E7ACF1020C11
:1004F00033441CE7091AC446B1FBF7F808FB0EF0B9
:10050000C8E741469AE700BF704700BF00220A498A
:1005100030B50B88094D013810F8014F14B902B1FC
:100520000B8030BD5A1C92B2B2F5006FEC5414BF70
:10053000134600230122EFE79A020020A2020020C6
:10054000074A10B51188074C4B1C9BB2B3F5006FDE
:10055000138008BF0023605408BF138010BD00BF84
:100560009A020020A202002038B500240D460E4B4E
:1005700001461C700D4B3F220D481C700AF0EEFF27
:100580000B4B1F2229460B4883F83F400AF0E6FF39
:100590003222084BDC77084B1A601722074B1A707F
:1005A000074B1C7038BD00BF8C0F0020A60E00202A
:1005B000330F0020130F0020880F00208D0F002024
:1005C00098020020014B1878704700BFA50E00204C
:1005D000194B70B55B6806460D4614463BB347F2AF
:1005E000305316491648002A08BF1C460BF00CF879
:1005F0000F22314613480AF0B1FF0023114A124975
:10060000D37328460A220AF015FF0A2220460F4912
:100610000AF010FF0E4B1B7863B10E4B187810F0E8
:10062000020003D0132206200B4B1A7070BD4FF04E
:10063000FF30FBE70120F9E78C020020F4BE000840
:1006400005000020030F0020FD0E0020E70E002013
:10065000330F00208C0F00208D0F0020194B70B538
:100660005B6806460D4614463BB347F230531649C5
:100670001648002A08BF1C460AF0C6FF0F22314662
:1006800013480AF06BFF0023114A1249D37328461E
:100690000A220AF0CFFE0A2220460F490AF0CAFEBB
:1006A0000E4B1B7863B10E4B187810F0020003D08C
:1006B000132206200B4B1A7070BD4FF0FF30FBE782
:1006C0000120F9E78C020020F8BE00080500002098
:1006D000030F0020FD0E0020E70E0020330F002046
:1006E0008C0F00208D0F0020064B5B683BB1064B42
:1006F0001B7813F0400F0CBF0520072070474FF008
:10070000FF3070478C0200208C0F0020074A10B584
:100710001188074C4B1C9BB2B3F5806F138008BF48
:100720000023605408BF138010BD00BFA00200204A
:10073000A20A00202DE9FF471F463D4B04465B6897
:1007400088461546BDF83090002B6CD0394EDFF846
:10075000E8A033789AF8001003F040020A4365D00D
:100760001B0758D40A2201A938460AF063FE01A8E3
:10077000FFF7F8FC421ED2B2032A4AD82F48FFF7EF
:10078000C5FE9AF8003053B10A22694620460AF0A5
:1007900051FE6846FFF7BAFE2C20FFF7D1FE01A8F4
:1007A000FFF7B4FE2648FFF7B1FE002211462548A8
:1007B000DFF894C0038894B2A74216D801B1038031
:1007C0003378224C23F00C0343F00C03337023687E
:1007D0003BB11F489847236801A8984723681D48E4
:1007E0009847092004B0BDE8F0875C1CA4B2B4F5BA
:1007F000006F08BF0024691C18F8055089B20CF876
:1008000003500132494514BF0D46002523460121FE
:10081000D1E70B20E6E70D4B1B680BB90820E1E799
:100820000D489847FAE74FF0FF30DBE70520D9E79E
:100830008C0200208C0F0020A60E002007CD00089F
:10084000FCBE00089A020020A2020020740F0020C3
:10085000FFBE000846C1000812BF000802460F4B49
:100860000068516803C390680D4A18600023137034
:100870000C4A13700C4A13800C4A13800C4A1380E4
:100880000C4A13800C4A13700C4A13700C4A1370F4
:100890000C4A13600C4A1360704700BF8C020020A2
:1008A0008D0F0020A40E00209C0200209A02002040
:1008B0009E020020A00200208C0F0020A60E002027
:1008C000A50E0020780F0020740F0020114A136835
:1008D0000BB1013B1360104A136823B1013B136055
:1008E0000BB90E4A13700E4A13680BB1013B13602B
:1008F0000C4A13686BB1013B136053B90A490A787B
:10090000100706D563F3C302084B0A701A88084B18
:100910001A807047880F0020840F0020A40E00204A
:10092000800F00207C0F00208C0F00209A020020F6
:100930009C0200202DE9F74FA64EA74A3388B2F853
:1009400000B000255B4506D0A44F3A78173A022A3A
:100950002AD8A6F800B0A24EA24C3368002B40F073
:10096000A88264239D4D33602B78192B00F2A1825D
:10097000DFE813F08404C502DE02E502F302F802A8
:1009800001030603190323035B036003700376036B
:1009900084038A03BB030204130422043104710498
:1009A00081049402B002BF0202228F498F4C0A6078
:1009B0009B45D0D08E4AD05C22780D2A00F244822A
:1009C000DFE812F00E005500CC0042024202B801EE
:1009D000CD01D601E3014202FE011B022D020C02F1
:1009E000002304219846DFF80CC2834ADFF80C92FA
:1009F0008CF8003011705FFA83FE59F82E10D1B9CF
:100A0000B8F1000F01D08CF800E00022764B754958
:100A10001A600B7813F0010F00F092803E2840F02E
:100A20008F8062F300030B70754B1A604FF496725F
:100A3000744B1A6084E091F804A00133824513D10D
:100A4000B8F1000F01D08CF800E00B784978303B0A
:100A5000313903EB830301EB43036B490B80012323
:100A60002370052313706BE04FF00108C3E7DFF834
:100A700084C162499CF8002051F822205E4909781F
:100A800012F801E0864514D1DFF87CC1BCF80030D3
:100A9000013B9BB2ACF800300BB10D284DD19378DF
:100AA000D278303B03EB8303303A02EB43032370ED
:100AB00046E000229146C1F57F4A8CF800200AF1F9
:100AC000D30ADFF838C15FFA82F85CF828C0BCF1BD
:100AD000000F0CD1B9F1000F04D04B4A1580454AE4
:100AE00082F800800022013B2270338028E09CF8CD
:100AF00000E09CF80150AEF1300E0EEB8E0E554426
:100B000005EB4E05ADB27F2D24D81CF801E08645DB
:100B100020D13D4B1D80B9F1000F02D0354B83F839
:100B2000008055B99CF802309CF80320303B03EB61
:100B30008303303A02EB430323702F4B01311970CA
:100B4000338801339BB2B3F5806F338004BF002339
:100B500033802DE74FF001090132B2E70A28EFD1C7
:100B600000232370234B1B78023B0F2BE8D801A2F4
:100B700052F823F0B50B0008110C00082D0C0008EA
:100B8000410B0008570C0008570C0008850C0008A2
:100B90008F0C0008D10C0008850C0008410B0008E0
:100BA000FB0C0008410B0008050D0008110D0008A2
:100BB000110D00083A78152AC2D8144BD340D80733
:100BC000BED50022064B1A60064A137843F0200374
:100BD00048E700BF9E020020A00200208D0F0020E9
:100BE000880F00208C0F0020840F0020A40E00200E
:100BF000A20A0020890200208802002088CB000879
:100C0000800F00207C0F0020A20E002054552000F1
:100C1000904A1378190793D523F0090313708E4B6C
:100C20001A888E4B1A808E4B002202E73B78102BDD
:100C300086D100228B4B1A60864A137823F0220358
:100C400043F022031370884B1B68002B3FF478AFEE
:100C50000320984774E77F4A137823F04203137008
:100C60003B78113B052B3FF66BAF7F4B1B680BB1FD
:100C7000002098477D4B1B78002B7FF461AF192330
:100C80003B705DE7734A137823F04003EAE6714A4C
:100C9000137823F0080313700022714B1A60734B12
:100CA0001B7873B1724B0A22187801A90AF0C2FBB3
:100CB0007048FFF72BFC01A8FFF728FC6E48FFF7F0
:100CC00025FC694B1B68002B3FF43AAF0A20C0E7B4
:100CD000664B1B78002B7FF433AF624A13605D4A8A
:100CE000137823F0600343F0600313705E4B1B68BE
:100CF000002B3FF425AF0720ABE7564A137823F0CB
:100D00004203AFE6534A137823F042031370B6E769
:100D1000504A1378180706D523F0090313704E4B79
:100D20001A884E4B1A803B78013B102B3FF608AFD8
:100D30004C4B79E7514A2C28126807D106232370BF
:100D4000002A3FF4FDAE4E489047F9E60021013BF2
:100D500021703380002A3FF4F3AE4A48F4E722289A
:100D60007FF4EEAE072300222370474B1A80E7E69C
:100D7000222803D0444A1388102B01D1082396E679
:100D8000591C1180414AD054DAE60A287FF4D8AEC3
:100D900000233D4A237011883C4A0F299BBF5354BE
:100DA0002C4913700A789FBF42F020020A702D4A26
:100DB00013602D4B1B68002B3FF4C2AE042048E7A4
:100DC0002C287FF48FAE294B1B782BB10D230022EA
:100DD0002370274B1A70B3E60B23C4E72C28FBD0F3
:100DE000A0F13002092A3FF67DAE214A137803EBC9
:100DF000830300EB4303303B34E63A2801D10C2354
:100E000055E6A0F13002092A3FF66CAE1E4A13885F
:100E100003EB830300EB4303303B138090E61C4B52
:100E20009B6803B19847184A1388013B9BB2138013
:100E3000002B7FF485AE2370104B1B68002B3FF412
:100E40007FAE144898477BE60023134A2370136053
:100E500076E600BF8C0F00209A0200209C02002042
:100E60007C0F0020880F0020780F0020A60E0020A5
:100E7000A50E00202ABF000845C10008740F0020FD
:100E800037BF00084CBF0008A20E0020ED0E002066
:100E90008C02002060BF0008840F0020974B0020C8
:100EA0001B689847964B1B680BB1964898471823C8
:100EB0002B702378DA0740F1EA81934A126832B93D
:100EC000924A23F009031188914A2370118003B0DC
:100ED000BDE8F08F894B01201B689847884B1B6841
:100EE0000BB18C48984719232B704FF4FA73336079
:100EF000DFE7012300222B70874B1A70D9E7864A5F
:100F000013782BB1013BDBB213701BB91723CFE76A
:100F1000042313702378814823F020032370FFF704
:100F2000F5FA774B1B680BB17D4898470223BFE762
:100F30002378990601D50323BAE70123B8E7794856
:100F4000FFF7E4FA6E4B1B680BB17748984723789C
:100F500023F0200323700423AAE723789A06ECD514
:100F60000523A5E77148FFF7D1FA237823F0200382
:100F7000237006239CE723789B06DED5072397E79B
:100F80006B4B1B786BB16B48FFF7C0FA5C4B1B686F
:100F90000BB169489847237823F020032370082376
:100FA00086E76648F0E723789F06C6D5604B1B7836
:100FB000002B0CBF0F2309237AE76148FFF7A6FA3D
:100FC0002220FFF7BDFA5F48FFF7A0FA2220FFF7C3
:100FD000B7FA2C20FFF7B4FA2220FFF7B1FA5A48EB
:100FE000FFF794FA2220FFF7ABFA2C20FFF7A8FABC
:100FF0005648FFF78BFA2C20FFF7A2FA5448FFF768
:1010000085FA0D20FFF79CFA0A20FFF799FA3C4B6E
:101010001B680BB14F489847237823F020032370B7
:101020000A232B704FF4967361E723789E0684D5CC
:101030000B233DE74848FFF769FA314B1B680BB1BA
:1010400046489847237823F0200323700C232B7005
:10105000C8234CE7237898067FF56FAF0D2327E769
:101060003F48FFF753FA264B1B680BB13D489847A2
:10107000237823F0200323700E23E8E723789906D2
:101080007FF55BAF162313E7374F3B78002B3FF418
:1010900010AF3648FFF73AFA2220FFF751FA3846E8
:1010A000FFF734FA2220FFF74BFA2C20FFF748FA1B
:1010B0002220FFF745FA2E48FFF728FA2220FFF7F3
:1010C0003FFA0D20FFF73CFA0A20FFF739FA0C4BE4
:1010D0001B680BB127489847237823F0200323701F
:1010E00010232B7040F2DC5301E723789A067FF53A
:1010F00024AF112304222B70074BFEE68C02002044
:10110000740F002073BF0008800F00209A02002097
:101110009C02002089BF00089802002051CD0008E1
:101120009FBF000843CD0008ADBF0008C1BF000845
:10113000A60E0020D3BF0008EFBF0008E1BF0008E3
:10114000F9CC0008C70E0020A70E002002000020E6
:101150000000002003C00008E5CC000816C000080D
:10116000D1CC00082AC00008330F002039CD000878
:10117000130F002041C0000800225A4B5A481A7031
:10118000FFF7C4F9594B1B680BB1594898472378AE
:1011900023F02003237012238AE623789B0601D5CF
:1011A000132385E6534A1378013BDBB21370002BFF
:1011B0003FF4C3AE11237BE64F4B1B78002B3FF46B
:1011C00078AE4E48FFF7A2F9484B1B680BB14C486C
:1011D000984714236CE64B48FFF798F92220FFF755
:1011E000AFF94948FFF792F92220FFF7A9F92C201F
:1011F000FFF7A6F92220FFF7A3F93F48FFF786F98A
:101200002220FFF79DF92C20FFF79AF93F48FFF7BE
:101210007DF93F493C48FEF79BFF58B92C20FFF76A
:101220008FF93C48FFF772F92C20FFF789F930203D
:10123000FFF786F90D20FFF783F90A20FFF780F901
:101240002A4B1B680BB134489847237823F060037E
:1012500023701523FBE6237813F0200203D043F01C
:10126000400323700EE762F386139F0723707FF518
:1012700064AE1423D5E6294B1B780BB1002336E668
:10128000237898077FF559AE590689D5F6E7244D9E
:1012900024492A88098891423FF419AE224E5F07FB
:1012A000B05C02D53E2808BF0A20204B5B689847F7
:1012B00000283FF40CAE22782B8851070AD5F15C48
:1012C0003E2907D1322122F0050242F001022270AC
:1012D000174A116001339BB2B3F5006F08BF0023BA
:1012E0002B80F4E5ED0E00202ECD0008740F0020B9
:1012F00054C0000898020020030F002013CD0008FE
:1013000065C0000821CD000805000020FD0E00206A
:10131000F4BE0008E70E00207BC00008A60E0020E7
:101320009C0200209A020020A20200208C020020D1
:10133000800F0020014B1860704700BF780F00201D
:10134000014B1860704700BF740F00200022F0B5F9
:10135000084BD4B2A14202F1010200D8F0BD5D7980
:101360001E686F1C5F71045D74555C79DD792C40DB
:101370005C71EEE7AC240020021E18BF01224FF47E
:101380000071014804F0FCBF000C01401FB5144679
:101390001A464FF0FF330091CDE901430146012386
:1013A000024805F08DFA04B010BD00BF04270020EC
:1013B000FFF7ECBF13B514461A46CDE9001401231C
:1013C0000146024805F00CFB02B010BD04270020C6
:1013D00013B514461A46CDE900140123014602480C
:1013E00005F0C4FB02B010BD0427002007B50122A0
:1013F0008DF807000DF10701034808F0B4F9B0FAC1
:1014000080F0400903B000BD1425002010B504464B
:10141000FEF7A8FE81B22046BDE8104009F050BE9C
:1014200010B5164B1B78F3B115490C78FF2C15D06D
:101430007E2C144B13D818550020621CD2B2012AFE
:101440000A7098540AD0134413F8022C0D2A05D1BF
:1014500013F8013C0A2B01D1FF230B7010BD0022B1
:101460000A701A70FAE7084B5A791968541C5C71B3
:1014700088545A79D9790A405A71EFE7EB1F002056
:10148000EC1F0020ED1F002094240020032810B53D
:10149000184C15D10C21184B18481A78184B01FB21
:1014A00002330F2299680AF059F80023134A237077
:1014B000D3730122134B1A700522134B1A7010BDFF
:1014C000124B22781B7813431843C0B20028F6D180
:1014D000012340F6B8320C2123700D4BBDE81040BB
:1014E0001A80054B064A1B784B43D1184968D058DF
:1014F000FFF73AB8E8170020E91700206400002041
:10150000D8E20008EA17002074000020EB1F00203A
:101510005C000020038830B58B421FD2C38B8B4206
:1015200019D9002330F8024BA14211D3028891420D
:101530000ED80B48121BC55A0230C35A091B5B1B3D
:10154000500801FB0300B0FBF2F0284480B230BD2C
:1015500002331E2BE6D14FF47A70F8E70020F6E74D
:1015600038E200084FF47A7381EAE172A2EBE1728B
:1015700013B5B2FBF3F403FB14220A230029B2FBD8
:10158000F3F20DDA074954EA0203074B08BF0B4692
:10159000CDE900421021054A09F090FF02B010BDCC
:1015A000004BF5E747C1000891C0000893C0000850
:1015B00042F2107381EAE172A2EBE17213B5B2FB61
:1015C000F3F403FB142264230029B2FBF3F20DDAD7
:1015D000074954EA0203074B08BF0B46CDE9004216
:1015E0001021054A09F06AFF02B010BD004BF5E773
:1015F00047C1000891C0000893C00008054B064A87
:1016000003F1100153F8040B8B4242F8040BF9D19B
:10161000704700BFD4240020C42400200122014BC5
:101620001A7070470D2500200122014B1A70704777
:101630000C2500200268264B10B59A42044612D1B0
:10164000244A2549137825480133DBB2282B01BFF2
:1016500000231370224A137808BF43F080031370ED
:10166000082204F009FA2368B3F1804F18D11D4A0B
:1016700013782BB11378012B02D01378022B08D1E9
:101680000124194919480B78C454234403F00F036B
:101690000B7017490B78013B13F0FF0301D00B705F
:1016A00010BD14230B701378032B02D01378042B76
:1016B000F6D101200C4A0D491378C8540344002088
:1016C00003F00F03C854013303F00F031370E7E76F
:1016D000002C01400E250020D42400209C2700204F
:1016E0008E20002010250020E4240020E524002086
:1016F0007A000020F0B5026883790C46D15C05467B
:10170000A1F1A00391B0512B00F21F87DFE813F085
:1017100052005C006C00B80007013201AB01C80147
:10172000530171018E010A024E046B048804A50462
:10173000C204DF042902FC041905360553057105AE
:101740008F05D6051D071D071D071D071D071D0752
:10175000F4054402610212066E0672069006AE0699
:10176000CC06EA06080730064F061D071D071D07B1
:101770001D071D071D071D071D071D071D071D0749
:101780001D071D071D071D071D071D071D071D0739
:101790001D071D071D071D071D071D071D071D0729
:1017A0001D071D071D071D071D071D071D071D0719
:1017B00086021A04A0210222204603F07CFE0D219D
:1017C000204603F0C0FE08E0A1210D22204603F0D0
:1017D00072FE2046C14903F0C9FE2046217A11B0AD
:1017E000BDE8F04003F0AFBE0D22A221204603F079
:1017F00062FEBB4BBB4DB3F9001020462980C9B235
:1018000003F0A1FE6978204603F09DFEB64B20460A
:10181000B3F900102980C9B203F095FE697820461B
:1018200003F091FEB14B2046B3F900102980C9B2F4
:1018300003F089FE6978204603F085FEAC4B204614
:10184000B3F900102980C9B203F07DFE6978204603
:1018500003F079FEA74B2046B3F900102980C9B2E6
:1018600003F071FE6978204603F06DFEA24BB3F9D8
:1018700000102980C9B2204603F065FE69789FE711
:101880009E4E1122A321204603F015FE954D31886E
:1018900020462980C9B203F056FE6978204603F03D
:1018A00052FE718820462980C9B203F04CFE697847
:1018B000204603F048FEB18820462980C9B203F0D3
:1018C00042FE6978204603F03EFEF18820462980DA
:1018D000C9B203F038FE6978204603F034FE31893E
:1018E00020462980C9B203F02EFE6978204603F015
:1018F0002AFE718920462980C9B203F024FE697846
:10190000204603F020FEB18920462980C9B203F0A9
:101910001AFE6978204603F016FEF189A9E7022233
:10192000A421204603F0C7FD0D21204603F00BFE45
:10193000217A204603F007FE00220121284603F009
:101940003AFE684C002201212070284603F033FE45
:101950006070B4F900202388002A6949694AB5BF3C
:101960005B4213800B800023B6BF00230B801380E3
:1019700011B0F0BD0222A521204603F09CFD0D21EF
:10198000204603F0E0FD217A204603F0DCFD002232
:101990000121284603F00FFE524C00220121207045
:1019A000284603F008FE6070B4F900202388002A5E
:1019B0005549564AD3E70222A821204603F07BFD71
:1019C0000D21204603F0BFFD217A204603F0BBFD28
:1019D00000220121284603F0EEFD424C0022207037
:1019E0000121284603F0E7FD60702288484B1A80E9
:1019F000BEE70222A921204603F05DFD0D2120460D
:101A000003F0A1FD217A204603F09DFD0022012173
:101A1000284603F0D0FD334C0022207001212846D7
:101A200003F0C9FD607022883A4BE0E70222AA2148
:101A3000204603F040FD0D21204603F084FD217A6D
:101A4000204603F080FD00220121284603F0B3FD6B
:101A5000244C002220700121284603F0ACFD607068
:101A600022882D4BC3E70222A621204603F023FD46
:101A70000D21204603F067FD217A204603F063FD27
:101A800000220121284603F096FD164C002220700A
:101A90000121284603F08FFD607022881F4BA6E7C6
:101AA0000222A721204603F006FD0D21204603F067
:101AB0004AFD217A204603F046FD002201212846F6
:101AC00003F079FD074C002220700121284603F025
:101AD00072FD60702288124B89E700BF14E3000892
:101AE0000A2500209020002008250020062500203F
:101AF000042500200225002000250020C424002009
:101B000088200020862000208C2000208A200020B1
:101B10005400002052000020A81700204C00002094
:101B20004E0000200222AB21204603F0C4FC0D2110
:101B3000204603F008FD217A204603F004FD002230
:101B40000121284603F037FD304C0022207001218E
:101B5000284603F030FD6070B4F900202C4B1A6069
:101B600006E70222B221204603F0A5FC0D21204603
:101B700003F0E9FC217A204603F0E5FC0022012174
:101B8000284603F018FD214C002220700121284630
:101B900003F011FD6070EBE60222C121204603F044
:101BA0008AFC0D21204603F0CEFC217A204603F06A
:101BB000CAFC00220121284603F0FDFC134C002240
:101BC00020700121284603F0F6FC60702288114B3A
:101BD0000DE70222C221204603F06DFC0D212046B4
:101BE00003F0B1FC217A204603F0ADFC0022012174
:101BF000284603F0E0FC054C002220700121284615
:101C000003F0D9FC60702288034BF0E6902000209E
:101C1000440000207800002076000020002551229A
:101C2000F021204603F047FCA34B03AF1B88ADF81F
:101C30000C30A24B1B88ADF80E30A14B1B88ADF8C1
:101C40001030A04B1B88ADF812309F4B1B88ADF8AD
:101C5000143037F9026B2046F1B203F074FC013501
:101C60002046C6F3072103F06EFC052DF1D1974DF8
:101C70002046297803F067FC6978204603F063FC6E
:101C8000A978204603F05FFCE9780025204603F0A0
:101C90005AFC8F4B09AF1B88ADF824308D4B1B8845
:101CA000ADF826308C4B1B88ADF828308B4B1B8849
:101CB000ADF82A308A4B1B88ADF82C30894B1B8835
:101CC000ADF82E30884B1B68ADF8303037F9026B19
:101CD0002046F1B203F037FC01352046C6F3072158
:101CE00003F031FC072DF1D10025804B06AF1B8896
:101CF000ADF818307E4B1B88ADF81A307D4B1B8831
:101D0000ADF81C307C4B1B88ADF81E307B4B1B881C
:101D1000ADF820307A4B1B88ADF8223037F8026BD3
:101D20002046F1B203F00FFC01352046310A03F0E2
:101D30000AFC062DF2D10025724B01AF1B88ADF8CD
:101D40000430714B1B88ADF80630704B1B88ADF822
:101D500008306F4B1B88ADF80A3037F8026B20460D
:101D6000F1B203F0F0FB01352046310A03F0EBFB42
:101D7000042DF2D1674B0021B3F90050204603F047
:101D8000E2FB0021204603F0DEFBE9B2204603F02F
:101D9000DAFBC5F30721204603F0D5FB5E4B5F4A13
:101DA000B3F90060B2F900501978204603F0CBFB7C
:101DB000C6F30721204603F0C6FBE9B2204603F034
:101DC000C2FBC5F30721564D204603F0BCFB297822
:101DD000204603F0B8FB6978204603F0B4FBA978ED
:101DE000204603F0B0FBE978204603F0ACFB4D4BF6
:101DF0004D4AB3F90060B2F900501978204603F05B
:101E0000A2FBC6F30721204603F09DFBE9B2204662
:101E100003F099FBC5F30721444D204603F093FBE3
:101E20002978204603F08FFB6978414D204603F066
:101E30008AFBA978204603F086FB69882046090AB8
:101E400003F081FBA979204603F07DFBE988204659
:101E5000090A03F078FBA97A204603F074FB69892C
:101E6000344D090A204603F06EFB29882046C9B28A
:101E700003F069FB2988304DC1F30721204603F0A8
:101E800062FB29882046C9B203F05DFB29882B4DEF
:101E9000C1F30721204603F056FB29882046C9B22A
:101EA00003F051FB2988264DC1F30721204603F09A
:101EB0004AFB2978DFE400BF54000020A817002067
:101EC000520000204C0000204E0000204400002062
:101ED0003800002036000020A6170020A41700209C
:101EE00030000020400000202000002028000020BA
:101EF00018000020240000201600002026000020EA
:101F0000140000204A000020480000207800002033
:101F1000760000203E0000203C0000203A00002017
:101F2000CC1700202E0000202C0000202A000020CA
:101F3000C4240020E6170020E4170020E217002048
:101F40001C00002000261D22F121204603F0B3FAD8
:101F5000C64B09AF1B680993C54B1B680A93C54B59
:101F60001B680B93C44B1B680C93C44B1B680D93ED
:101F7000C34B1B680E93C34B1B680F9357F8045B4E
:101F80002046E9B203F0DFFAC5F30721204603F04B
:101F9000DAFAC5F30741204603F0D5FA01362046A8
:101FA000290E03F0D0FA072EE8D116E40222AC2164
:101FB000204603F080FA0D21204603F0C4FA217A6E
:101FC000204603F0C0FA00220121284603F0F3FA6C
:101FD000AD4C002220700121284603F0ECFA60701D
:101FE0002288AA4B03E50222AD21204603F063FAC2
:101FF0000D21204603F0A7FA217A204603F0A3FA28
:1020000000220121284603F0D6FA9F4C00222070BE
:102010000121284603F0CFFA607022889C4BE6E449
:102020000222AE21204603F046FA0D21204603F09D
:102030008AFA217A204603F086FA002201212846F6
:1020400003F0B9FA904C002220700121284603F0D9
:10205000B2FA607022888F4BC9E40222AF21204679
:1020600003F029FA0D21204603F06DFA217A20466B
:1020700003F069FA00220121284603F09CFA824C01
:10208000002220700121284603F095FA6070228812
:10209000814BACE40222B021204603F00CFA0D2162
:1020A000204603F050FA217A204603F04CFA002231
:1020B0000121284603F07FFA734C00222070012191
:1020C000284603F078FA60702288744B8FE402226D
:1020D000B121204603F0EFF90D21204603F033FA39
:1020E000217A204603F02FFA00220121284603F02E
:1020F00062FA654C002220700121284603F05BFA49
:1021000060702288664B72E40222B321204603F0FD
:10211000D2F90D21204603F016FA217A204603F069
:1021200012FA00220121284603F045FA564C0022FB
:1021300020700121284603F03EFA60702288594B36
:1021400055E40222B421204603F0B5F90D212046C2
:1021500003F0F9F9217A204603F0F5F90022012174
:10216000284603F028FA484C002220700121284616
:1021700003F021FA607022884B4B38E40222B5212B
:10218000204603F098F90D21204603F0DCF9217A6E
:10219000204603F0D8F900220121284603F00BFA6B
:1021A000394C002220700121284603F004FA6070A7
:1021B00022883E4B1BE40222B621204603F07BF925
:1021C0000D21204603F0BFF9217A204603F0BBF928
:1021D00000220121284603F0EEF92B4C002220704A
:1021E0000121284603F0E7F960702288304BFFF7A1
:1021F000FEBB0222B721204603F05DF90D212046E7
:1022000003F0A1F9217A204603F09DF90022012173
:10221000284603F0D0F91C4C0022207001212846EA
:1022200003F0C9F960702288224BFFF7E0BB02225D
:10223000B821204603F03FF90D21204603F083F931
:10224000217A204603F07FF900220121284603F07D
:10225000B2F90D4C002220700121284603F0ABF9A1
:1022600060702288144BFFF7C2BB00BFBC17002070
:10227000B0170020B4170020AC170020C8170020AA
:1022800088170020580000209020002038000020EF
:1022900036000020A6170020A417002030000020E0
:1022A000400000202800002018000020240000200A
:1022B0001600002026000020140000200222B92170
:1022C000204603F0F8F80D21204603F03CF9217A6E
:1022D000204603F038F900220121284603F06BF96B
:1022E0009D4C002220700121284603F064F96070A3
:1022F00022889A4BFFF77BBB0222C021204603F0C5
:10230000DAF80D21204603F01EF9217A204603F069
:102310001AF900220121284603F04DF98E4C0022C3
:1023200020700121284603F046F9607022888C4B0A
:10233000FFF75DBB0222C321204603F0BCF80D214C
:10234000204603F000F9217A204603F0FCF8002231
:102350000121284603F02FF97F4C00222070012133
:10236000284603F028F9607022887E4BFFF73FBBB8
:102370000222CB21204603F09EF80D21204603F0D7
:10238000E2F8217A204603F0DEF8002201212846F7
:1023900003F011F9704C002220700121284603F04F
:1023A0000AF96070B4F900206F4BFFF7D8BB022226
:1023B000CC21204603F07FF80D21204603F0C3F81E
:1023C000217A204603F0BFF800220121284603F0BD
:1023D000F2F8614C002220700121284603F0EBF84E
:1023E0006070B4F90020614BFFF7B9BB0222C42131
:1023F000FFF7B9BB0222C521204603F05CF80D218E
:10240000204603F0A0F8217A204603F09CF8002231
:102410000121284603F0CFF84F4C00222070012103
:10242000284603F0C8F860702288514BFFF7DFBAE6
:102430000222C621204603F03EF80D21204603F07B
:1024400082F8217A204603F07EF8002201212846F6
:1024500003F0B1F8404C002220700121284603F01F
:10246000AAF860702288434BFFF7C1BA0222C72145
:10247000204603F020F80D21204603F064F8217A6D
:10248000204603F060F800220121284603F093F86B
:10249000314C002220700121284603F08CF8607036
:1024A0002288354BFFF7A3BA0222C821204603F049
:1024B00002F80D21204603F046F8217A204603F069
:1024C00042F800220121284603F075F8224C002230
:1024D00020700121284603F06EF860702288274B97
:1024E000FFF785BA0222C921204602F0E4FF0D2140
:1024F000204603F028F8217A204603F024F8002231
:102500000121284603F057F8134C002220700121C6
:10251000284603F050F860702288194BFFF767BA1D
:10252000184D04222B88CA21013320462B8002F04B
:10253000C2FF0D21204603F006F829882046090A2B
:1025400003F001F82978FFF73BB90222204602F098
:10255000B2FFFF21FFF734B9902000204A0000208D
:10256000480000203E000020200000201C00002029
:102570003C0000203A0000202E0000202C0000200B
:102580002A0000206C170020F0B516464379027926
:1025900005469A420C46C3B01DD003F019F8D0B1DD
:1025A000012E04BF0022154B2146284608BF1A7091
:1025B000FFF7A0F80022617A02A8D3B299420CD8A2
:1025C000C6B1FDF7FFFF4FF4807300930022637ADA
:1025D00002A9FEF7AFF843B0F0BDA77925687B1CD0
:1025E000DBB2A371ED5D013200F8015BE5792B40B0
:1025F000A371E2E702A808F063FDECE77400002095
:1026000010B50D4B0D4C1A780D4B0E4853F8221097
:102610000122237802FA03F38B4308BF1A464FF4D2
:10262000005103F0ADFE23780133DBB2142B28BF39
:102630000023237010BD00BF0F2500206A17002063
:1026400080000020001001402DE9F0418C4B8D4CA2
:102650001B788AB0032B5FFA83F840F02B810025AA
:10266000012002F0B9FA4023202229461E200095BD
:1026700002F002FC1623802214212846009502F065
:10268000FBFB4023522229465020009502F0F4FB28
:102690007D4E2946282002F0A3FB7C4902A808F0C1
:1026A000B3FF96E80E00009502A802F083FB2946CE
:1026B000552002F095FB764902A808F0A5FF96E8A0
:1026C0000E00009502A802F075FB1921282002F0E7
:1026D00087FB704B2021B3F900306F4A02A808F045
:1026E000EDFE94E80E00009502A802F063FB1921AC
:1026F000552002F075FB694B2021B3F90030664A82
:1027000002A808F0DBFE94E80E00009502A802F093
:1027100051FB2521282002F063FB614B2021B3F9F6
:1027200000305D4A02A808F0C9FE94E80E0000954A
:1027300002A802F03FFB2521552002F051FB594B26
:102740002021B3F90030544A02A808F0B7FE94E8FB
:102750000E00009502A802F02DFB3121282002F086
:102760003FFB514B2021B3F900304B4A02A808F03F
:10277000A5FE94E80E00009502A81E2602F01AFBA2
:102780003121552002F02CFB484B2021B3F90030B9
:10279000414A02A808F092FE94E80E0040F6FA744E
:1027A000434F009502A802F005FB3B884246734365
:1027B000B3FBF4F3C3F13C033C214046DBB200958C
:1027C00002F014FB7B8806227343B3FBF4F3C3F1DE
:1027D0003C0310463C21DBB2009502F007FBBB88AE
:1027E00009227343B3FBF4F3C3F13C0310463C21CD
:1027F000DBB2009502F0FAFAFB880C227343B3FBBC
:10280000F4F3C3F13C0310463C21DBB2009502F027
:10281000EDFA3B890F227343B3FBF4F3C3F13C039E
:1028200010463C21DBB2009502F0E0FA7B891222CF
:102830007343B3FBF4F3C3F13C0310463C21DBB21A
:10284000009502F0D3FABB8915227343B3FBF4F36E
:10285000C3F13C0310463C21DBB2009502F0C6FAFE
:102860001822FB893C217343B3FBF4F31046C3F1F8
:102870003C030095DBB202F0B9FA0AB0BDE8F08182
:102880001025002064CD000858CD00089FC0000826
:10289000A3C000080A250020A7C0000804250020C6
:1028A0000825002002250020062500200025002004
:1028B000C4240020002002F08FF9022101250846DF
:1028C00002F08EFA94E80E004548009502F072FA84
:1028D0000221242002F084FA424B20211B68424A44
:1028E00002A808F0EBFD94E80E00009502A802F0A3
:1028F00061FA1121022002F073FA94E80E003B48BD
:10290000009502F057FA1121242002F069FA0522FD
:10291000374B20211B6802A803EB430393FBF2F320
:10292000344A08F0CBFD94E80E00009502A802F0AE
:1029300041FA2021022002F053FA94E80E002E48BA
:10294000009502F037FA2021242002F049FA642190
:102950002A4E02A8326892FBF1F301FB1322002AEF
:10296000B8BF524220210092254A08F0A7FD94E802
:102970000E00009502A802F01DFA2F21022002F09D
:102980002FFA94E80E001F48009502F013FA242055
:102990002F2102F025FA42F226323368009503F522
:1029A0008C531333934298BF174894E80E0088BFA6
:1029B000164802F0FFF901240E237F221946002059
:1029C000009402F013FA1D237F2219460020009480
:1029D00002F00CFA2C237F221946002000944AE7CB
:1029E000AAC00008FC240020AFC00008B8C000083E
:1029F000F8240020BDC00008C7C00008C817002088
:102A000095C00008CCC00008D1C00008DBC0000899
:102A100037B53F4B3F4C1A782AB11A78012A02D0B9
:102A20001B78022B16D12378013B012B12D80023EF
:102A30002370394A394B11781B788B4208D03848BB
:102A40004B1C415C03F00F0391B103212170137003
:102A500003B030BD2378032B57D801A252F823F0DE
:102A6000332A0008752A00087F2A0008992A0008DE
:102A70000121EBE7FFF7E8FD02232370E8E729488F
:102A800005F068F82028E3D102F0CCF80028DFD068
:102A90000023254A1370F0E7224805F05EF8234D25
:102AA00010B14FF47A732B601E4805F053F82028BC
:102AB00016D101F0D7FF98B11D4B1E4A01931E4B52
:102AC0001E4900931E481F4B02F014F800231E4AB3
:102AD0001E4913700A7842F008020A702B60CCE796
:102AE0002B680133B3F5FA7F2B60B1D90D4803F0A1
:102AF000CDFE012002F046FE0A4803F01FFE01F061
:102B00007BFF01F0A1FF0023E8E70023B5E700BF4A
:102B1000102500206917002068170020E4240020F9
:102B2000E5240020042700200D2500206417002044
:102B30000025002006250020022500200825002071
:102B40000A250020042500200C2500208E200020CE
:102B5000074B084A1B6812885A63074A1288DA63CF
:102B6000064A12889A63064A12881A64704700BFA0
:102B7000A42500208C200020882000208A2000200E
:102B8000862000202DE9F04198B010AE14AF044625
:102B900010220021304608F0C7FC102200213846E0
:102BA00008F0C2FC2F4B30461968FEF701FD2E4B92
:102BB00038461968FEF7D6FC2C4D2D4B2D4A2E4970
:102BC0002E48DFF8BCC0DFF8BCE0DFF8BC801B8813
:102BD0001288098800882D88BCF800C0BEF800E083
:102BE000B8F80080CDE90E67284E1BB2B6F9006038
:102BF00012B20D96264E09B2B6F9006000B20C96DC
:102C0000244E2DB2B6F900600FFA8CFC0B96224EC2
:102C10000FFA8EFEB6F900600FFA88F80A961F4E7A
:102C2000B6F9006009961E4EB6F90060CDE90121A3
:102C3000CDE9030500934FF400611A4B1A4A1B4873
:102C4000CDE905CECDE9078608F038FC4FF40063E6
:102C500000220093154983B22046FDF76BFD18B0A2
:102C6000BDE8F081CC17002074170020DE1700208B
:102C7000E6170020E4170020E2170020E0170020EC
:102C8000DC170020DA170020D817002000250020CC
:102C9000022500200425002006250020082500200C
:102CA0000A250020E1C0000848C10008EB170020F9
:102CB0002DE9F04798B010AE14AF04461022002161
:102CC000304608F031FC10220021384608F02CFC78
:102CD000394B30461968FEF76BFC384B384619689B
:102CE000FEF740FC364BDFF8DCA0B3F80090364B23
:102CF000BAF900A01A88354BDFF8D4C01988354BD3
:102D0000DFF8D4E01888354BDFF8D4801D88354BC8
:102D100012B21B88BCF800C0BEF800E0CDF838A0A5
:102D2000DFF8C4A00FFA8CFCBAF900A009B2CDF804
:102D300034A0DFF8B8A000B2BAF900A02DB2CDF8E7
:102D400030A0DFF8ACA01BB2BAF900A00FFA8EFEDB
:102D5000CDF82CA0DFF89CA0BAF900A0CDF828A0EF
:102D6000DFF894A0BAF900A0CDE9043CCDE9002138
:102D7000CDE902050FFA89F340F29E7140461F4AE1
:102D8000CDE906E6CDE9087A08F098FB4FF400613A
:102D90001B4B1C4ACDF800801B4808F08FFB4FF4FA
:102DA000006300220093184983B22046FDF7C2FC5D
:102DB00018B0BDE8F08700BFCC17002074170020C2
:102DC000E617002000250020E4170020E21700206D
:102DD000E0170020DA170020D8170020DE170020A7
:102DE000C30F0020DC17002002250020042500204E
:102DF00006250020082500200A250020D3C1000850
:102E0000DEC800081EC90008EB17002013B50A4BE6
:102E1000044600934FF40061084B094A094808F042
:102E20004DFB4FF40063002200932046B323054975
:102E3000FDF780FC02B010BD23C90008DEC8000801
:102E40001EC90008EB1700202DE9F0470024DDE93A
:102E500008760C70984614701C7047F23A53054679
:102E60008A46304642493B80914608F0CDFB2846D1
:102E7000404908F086FB58B1043010F8013FE2B237
:102E800013F0DF0F01D0262B4DD100230AF80230BA
:102E90002846394908F075FB60B10023043010F86A
:102EA000012FD9B212F0DF0F01D0262A45D100231D
:102EB00009F801302846314908F063FB60B100236E
:102EC000033010F8012FD9B212F0DF0F01D0262AFB
:102ED0003DD1002308F801302846294908F051FB6C
:102EE00048B10023053010F8012F303AD1B209293A
:102EF00034D903B13B802846224908F042FBA8B3ED
:102F0000C41D03222046204908F016FB28B10322E5
:102F100020461E4908F010FB30BB1B493046BDE877
:102F2000F04708F071BB2B2B08BF20230AF80430B0
:102F300001343F2CA1D12246A7E72B2A08BF20222B
:102F400009F8032001333F2BA9D11946AFE708F850
:102F5000032001330F2BB4D11946BAE703EB8303E7
:102F600002EB430293B2BEE70149D7E7BDE8F08721
:102F7000F4BE000898C900089EC90008A4C900084A
:102F8000A9C90008B0C90008F8BE0008B8C90008FF
:102F90002DE9F043464BA9B01A78B2B10022454959
:102FA00045481A70FDF7D4F8444B47F2315219885E
:102FB00028B9434829B0BDE8F043FDF74FBB40486E
:102FC00029B0BDE8F043FDF703BB3E4F3B78ABB102
:102FD0003D4E3378FF2B11D1FDF7F4FA3B490546FE
:102FE0003B4808F0CEFA044658B12846FFF7CAFD20
:102FF000092803D10023364A3370137029B0BDE885
:10300000F0833449324808F0BCFA002845D0402209
:10301000214608A808F088FA4022214618A808F09E
:1030200083FA102221460DEB020008F07DFA2A4BAC
:103030000DF10C0803930DF10A030093244804AB2F
:10304000CDF8048018AA08A9FFF7FEFE9DF81030FD
:103050009DF80C9033B11A4B0F22184604A908F0C2
:103060007DFAC473BDF80A300BB1144A1380B9F16C
:10307000000F03D04146104808F0C6FA2846FFF773
:10308000C5FE0928BAD10023114A18A908A83B7027
:1030900033701370FDF768FAB0E710490C4808F078
:1030A00070FA0028A6D02846FFF702FEA0E700BF6E
:1030B000EA170020F8BE00085E0000206200002031
:1030C00064000020EB1F0020EC1F0020BCC900089A
:1030D000ED1F0020C6C9000855445000D0C90008A3
:1030E00040F201230380002383708380C3807047F4
:1030F00002780346032A1DD8DFE802F00F02140706
:10310000427842B903221A7005E041780122002971
:10311000F9D101708270002070474278012AFAD1FB
:103120000222F0E7407800220128ECD118709A7052
:10313000D87170470122E6E770B504464FF40041AC
:103140001D4803F017F9A6781C4A1D491D4DAEB164
:1031500088B113780133DBB2072B137003D9012335
:1031600063700023137000230B702B78EBB1A388DE
:103170000A33A38070BD60701070F4E70B7816708E
:10318000042B0FD9003818BF01200E706070002387
:103190002B70A3796BB1A388002BEBD0092B08D936
:1031A0000A3BE6E701330B70F1E7A38001232B70A4
:1031B000DDE70023DDE700BF000C0140C20F002067
:1031C000C10F0020C00F002037B53E4D2B78DB0922
:1031D00034D02B7823F080032B70FDF777FB3A482F
:1031E000FFF7AAFF394890F84230222B09D0036834
:1031F00037491A685B682023012280F8423006F0C4
:1032000092FC344B1B7823B133490A88C2B1013A8E
:103210000A80324A1378013B13F0FF0303BF0223F5
:1032200013702B78137004BF43F040032B702C4BAA
:103230001C78013C14F0FF0417D01C7003B030BDA3
:10324000284803780133DBB2042B94BF1A46134697
:10325000027040F6B8320A800C214B43224AD11842
:103260004968D058FDF780F9D3E70A221A702B7805
:1032700043F020032B70FFF7C3F91C4A1378013386
:10328000DBB2092B01D81370D8E71470184C2378DF
:10329000042B9CBF01332370164B1D78002DCDD11C
:1032A000FDF722FA0728C9D12378042BC6D94FF499
:1032B00080732A460093284609230F49FDF73AFAFE
:1032C000BCE700BF8E2000206E20002014250020C7
:1032D00084200020E81700205C0000207B000020F4
:1032E0007C000020E9170020D8E20008852000209B
:1032F00074000020EB1F00200A000020F8B583783E
:103300000446002B4AD18388002B47D18379002BB8
:1033100044D0C579EDB140F6B732A388934256D870
:10332000A3F5FA62B2F57A7F55D2364804F012FC62
:10333000202836D100250426E571334B1E7001F09C
:10334000B3FC012001F0CCFD304BA5711E70A580AF
:1033500027E02C4804F0FEFB202822D194F806C078
:103360002B492C4ABCF1020FB1F90030B2F9000030
:10337000254F264E27D0BCF1030F13D0BCF1010F0F
:1033800021D13570244E3D703380244B0D80188040
:1033900015800023FF22A371214B1A70E379002BC3
:1033A000B9D1F8BD4FF0020C87F800C01D4F86F868
:1033B00000C03D700343ECD1174B1B880B80174BAB
:1033C0001B881380E5E701253D703570F2E7002387
:1033D000E371A380E5E7A3F57A73B3F57A7F08D2AA
:1033E000084804F0B7FB2028DBD100250326E5714F
:1033F000A3E70023E371A3790133A3714FF4C873EA
:10340000E7E700BF04270020102500200F2500203B
:103410003800002036000020340000203200002058
:10342000940000207C170020C72AF8B5CCBF0025E7
:103430000125C729D8BF01356A4E1C463378C728F5
:10344000D8BF0135032B00F2CA80DFE813F0040077
:103450001A007900C400644BC729B3F90030236017
:1034600002DC012333700BE0604B614AB3F900309A
:10347000322BD8BF4FF4AF735B4213605D4A1360C9
:10348000F8BD032D01D13570FAE75B4F5B4915BBE1
:103490003B88086801339BB2052B3B800FD900287D
:1034A000B4BF01224FF0FF32554B3D801D80554B7C
:1034B0001D70554B1D60554B1A700223D2E7544BBB
:1034C00018604C4B1A684A4B1A60474B0860B3F9B6
:1034D00000302360D4E700233B804FF47A735A43D3
:1034E0004C4D05FB00204C4A126890FBF2F00A227A
:1034F00090FBF2F0464A80EAE0751060474AA5EB7F
:10350000E0751560464AB2F9002042436A436425DB
:1035100092FBF3F2434BB3F90030434393FBF5F3D3
:103520001A44414B324DB3F900302A609A4202DD11
:103530001A462B6002E05B429A42F9DB2D4BC3E74F
:10354000002D8ED141F28830384B394A1B88B2F9B0
:1035500000101BB2C91A374A002381FB0001FCF797
:1035600009FE294B27491A6810444FF4AF722260B4
:103570000C781F4A18601CB1012C17D015607FE72A
:10358000224C94F90040002C2B4CC8BF4FF4AF7470
:1035900000281460294AB8BF404290427FF770AFBC
:1035A0001D60174B1D8001230B7069E7174C94F9C0
:1035B0000040002C204CD8BF4FF4AF74002814609A
:1035C0001F4AB8BF404290427FF75AAF1D600C4B74
:1035D0001D800223E8E7032D7FF443AF50E700236B
:1035E00040E700BF8017002040000020300000208E
:1035F00088170020BC0F0020B80F0020841700207F
:103600007E1700207D170020B40F00200900002045
:103610009017002018FCFFFF941700208C17002043
:1036200036000020380000202A0000206E170020FD
:1036300000250020B8FF0100A2FEFFFF8F5F010000
:103640001FBF020038B50C46054601880948FDF742
:1036500061FF208069880848FDF75CFF6080A988C9
:103660000648FDF757FFA080E9880548FDF752FF9F
:10367000E08038BDB8E2000898E2000878E200086F
:1036800058E2000837B5354C354A2178137899420D
:1036900062D02378DBB2137023782BB12378012B0F
:1036A00002D02378022B57D12E4804F053FA202859
:1036B000FAD1012001F014FC002001F08DFA2378EA
:1036C000D3B90125284C1421162001F089FB94E878
:1036D0000E002648009501F06DFB2221242001F008
:1036E0007FFB94E80E002248009501F063FB03B0D5
:1036F000BDE8304001F07CBA2378012BDDB213D154
:10370000194C1421162001F06BFB94E80E001948A7
:10371000009501F04FFB2221042001F061FB94E8A9
:103720000E0015480095E0E72378022BDFD1012534
:103730000D4C1421162001F053FB94E80E000F48A5
:10374000009501F037FB2221242001F049FB94E889
:103750000E000B480095C8E703B030BD10250020CF
:10376000940000200427002064CD0008D6C900087A
:10377000E3C90008ECC90008F9C900080BCA000831
:1037800018CA000810B594B0142200210CA807F044
:10379000CBFE142200210DEB020007F0C5FE102223
:1037A000002101A807F0C0FE02244FF4803301225B
:1037B000CDE91143CDE90A234FF4E0130AA80E9294
:1037C000139305F045F808B172B6FEE70F23CDE973
:1037D00005344FF480630790CDE90830214605A8F1
:1037E00005F0F8F908B172B6FEE7122301934FF421
:1037F0000043CDE9033001A805F0A8FA08B172B67C
:10380000FEE714B010BD00000268084B10B59A42E4
:103810000AD1074C2078FCF779FF2146BDE810401B
:103820000122044806F07FB910BD00BF00380140F6
:1038300084200020142500200368074A934209D100
:103840001A685B682023012280F84230034904484B
:1038500006F069B9704700BF00380140842000209D
:1038600014250020000000008D4A2DE9F04F156856
:103870008C4ADFF834A214688C4A85B0B2F900B0E3
:103880008B4ADAF80030B2F9002003900292894A9C
:10389000B2F9007043EA0502224300F0B2805A21D7
:1038A0000A224B4302FB0B30642390FBF3F04D43A1
:1038B0004C430190029802FB074402FB005594FB25
:1038C000F3F495FBF3F5019B7B4ACAF80030744B87
:1038D000B2F900801D60734B1C60784B1B68002B95
:1038E00000F09480434403EBD3735B1000934FF4D8
:1038F0008F704FF06409714B009A1A60704A11681A
:1039000000FB01F292FBF9F681FB01024FEAE17C38
:1039100000FB0CFC01FB02CC5DA3D3E90023A0FB60
:1039200001016144FCF726FC311A664E33889BB2D4
:10393000952B6ED833889BB2272B31D8624B4FF42E
:103940008F70C3F80080614B5549B3F90020604B7C
:10395000029C1A605F4B604A1F60232303FB08F33D
:10396000136093FBF9F3564A0C60136000FB03F4F9
:1039700083FB0302DD1745434A4903FB02550F60F1
:10398000A0FB030142A3D3E90023CAF800B02944F5
:10399000FCF7F0FB94FBF9F4484B211AC3F80080C4
:1039A00033889BB2312B0AD9444A4C4B10681A68B1
:1039B000401A10444A4A186013683B441360338825
:1039C00001339BB2338033889BB2962B0DD1642296
:1039D000424B44491B6893FBF2F30B80404B1B683E
:1039E00093FBF2F3404A1BB2138000233F4A13605B
:1039F0003F4A13602B4B1A68364B1A6005B0BDE87E
:103A0000F08F3C46029DCDF804B05CE7CDF8008015
:103A10006DE7304B00981A681C60324BA21AB3F95C
:103A200000306443C31A5B1A019905FB05446943DE
:103A300030482F4DB4FBF0F491FBF0F11B1B0B440D
:103A4000062192FBF1F21344284A0398136013688D
:103A500040F6262203F21351914298BF00230399A6
:103A6000DA17A3FB013100FB0211D81841EB010664
:103A7000C01841EB060108A3D3E90023FCF77AFB49
:103A800062232C685C4394FBF9F404442C60B5E792
:103A9000420A1B0400000000404B4C0000000000E4
:103AA000A40F0020A00F0020A80F00200425002054
:103AB00002250020002500200A2500209C0F002060
:103AC000C8170020F6240020C41700200625002077
:103AD000C0170020980F0020CC170020940F002062
:103AE000900F0020821700206E170020F82400207D
:103AF000FC240020285122002DE9F04FB84A89B05B
:103B000013781B0740F1F7831378B64C23F00803B2
:103B100013700522B44BE1881A6063886289ADF89E
:103B200010300B44ADF8142013440322B3FBF2F31E
:103B3000ADF8121004A806A9ADF81630FFF782FD03
:103B4000BDF91820A94BBDF818701A80BDF91A20CC
:103B5000A74BBDF81A901A80BDF91C20A54BBDF8E3
:103B60001CB01A8007EB09035B44012BB8BF01238B
:103B7000A14AA2481360B4F90020A14BA1491A80C0
:103B8000B4F90430A04A0D681380B4F908309F4A94
:103B90001380B4F90C309E4A1380B4F90E209D4B6B
:103BA00004681A809C4B9D4A54EA0506B3F900301C
:103BB000B2F900200DD05F2603EB830306FB04332C
:103BC000642402EB820206FB052293FBF4F392FBD2
:103BD000F4F20A6002F57A62B2F5FA5F88BF232236
:103BE000036084BF53438E4A41F2883088BF13601C
:103BF0008C4B8D4AB3F900406FF031035C43832353
:103C000094FBF3F4894B8A4E1C608A4BB3F9003065
:103C10000193894B1988019B09B2591A81FB000154
:103C20000023FCF7A7FA35687D4B054414201B6878
:103C3000824943434FF475700A683560224400FBA3
:103C400002337F4A934200F3BF807E4A9342C0F220
:103C5000BD804FF47A7293FBF2F364220B6093FB06
:103C6000F2F3DFF8E481794CC8F80030784B217822
:103C70001B68784E0393002301293360764DCBB245
:103C800000F0A680022B00F0158123781BB1237869
:103C9000012B40F0E781D8F80020002AD4BF002291
:103CA00001226E4BD8F800701A702378002B40F078
:103CB000DB816B488742ACBF00200120694BDFF8F5
:103CC000A8C118702378DFF8A4E1012B03D0237872
:103CD000022B40F0128266490B780133DBB2072BCE
:103CE00000F2C4810B70039BBEF900100B440393D8
:103CF0004FF0C809039B5F49DFF87CE1DB1B0B60D9
:103D0000DEF80010C91B09FB01FA5C4903F19509B3
:103D1000B9F5957FC1F800A0296800F2F68103EBA0
:103D200083094944DFF858914945B8BF494649F6E7
:103D300040494945A8BF4946DFF848912960B9F98B
:103D40000090CEF8007001FB09F94FF47A7199FBED
:103D5000F1F94D492778B1F90010012F03FB0199C2
:103D60004A49B1F900100AFB019942F2107199FB1E
:103D7000F1F1CCF80010DFF818C1CCF8003033684E
:103D800006D1444E96F800E01EF0FD0F00F0C3810E
:103D9000414EB6F800A0414EB6F800E042F20F7670
:103DA000B14500F366823E4EB14580F2A7823D4E9A
:103DB000A1EB0A07B6F90060BF1BA1EB0E063A495A
:103DC000B1F90010761A60E2384B46E7384B44E709
:103DD0005A464946384603ABFFF726FB55E700BF76
:103DE0008E200020C424002058000020E617002068
:103DF000E4170020E217002094170020C4170020C9
:103E0000E0170020C0170020DE170020DC1700207C
:103E1000DA170020D81700200A25002006250020E8
:103E2000D417002002250020B8FF0100D017002081
:103E300074170020002500206E170020CC170020EA
:103E4000E7ECA43519135BCAC81700201025002021
:103E50004400002088170020B0170020B20F002077
:103E600024FAFFFFB10F0020AC17002098170020A4
:103E7000B00F0020BC170020AC0F0020B4170020AA
:103E8000C063FFFFA817002054000020520000204C
:103E9000B8170020801700204E0000204C000020A2
:103EA000F1D8FFFFA6170020A4170020A0BB0D002B
:103EB0006044F2FFAB49097801295FFA81FA21D009
:103EC000BAF1020F72D0BAF1000F5FD103AB5A46BC
:103ED00049463846FFF7A8FAA34B1B881BB2B3F537
:103EE000FA7FFFF6D2AE4FF47A7303939F4B9D494E
:103EF000C3F800A09E4BC6F800A0C3F800A00123A1
:103F00000B70C2E6DFF86892D9F800300533C9F8C3
:103F1000003040F6B733D9F800209A420BD840F26F
:103F2000DB53D9F800209A4294BF4FF47A734FF4D0
:103F3000AF730393A9E64FF4AF7203920A222B6882
:103F400041F28830C3EBC30393FBF2F32B60894B40
:103F5000019A1B88854F1BB2D11A81FB00010023F7
:103F6000854AFCF707F9D7F800A0844A5044386026
:103F70003B68002B3B68B8BF5B42934209DD0023DE
:103F80007F4A3B601370C9F800300223754A1370F2
:103F90007BE67C4B1B68002BB8BF5B42B3F5E17F2F
:103FA000CBBF0023784B2B6033606EE6774BDFF896
:103FB000E0C10393774BDCF800C01988764B774853
:103FC0001B8800681BB2A3F548730CFB03F309B20E
:103FD000A1F5487100FB013371498B423DDB4CF286
:103FE000B3318B423CDC93FBF2F35B42B9F1C70F78
:103FF0006349336006DDC72F04DDBBF1C70FC4BFC3
:1040000001230B705A4A1368053313600B782BB9E0
:1040100041F28733116899427FF637AE41F2873318
:10402000116899427FF631AEB9F1C70F05DDC72F90
:1040300003DDBBF1C70F3FF728AE5A4B4B49B3F92D
:104040000030322BD8BF4FF4AF735B423360002394
:104050000B601360544A137098E74FF4FA73C5E786
:10406000524BC3E700221CE6002027E600230B701A
:104070004F4BDCF80010B3F90090DFF838A1C9F11C
:10408000640B01FB09F96421DAF8003003FB0B93A0
:1040900093FBF1F34849CAF80030B1F90090474961
:1040A000A9EB03090B68DFF818A14B445345B8BFCF
:1040B00053464CF2503A5345A8BF53460B60414912
:1040C000B1F900104B4342F2107193FBF1F33E49FA
:1040D000B1F9001009FB01F14FF47A7991FBF9F184
:1040E0000B443A498B42B8BF0B4640F2DC518B423D
:1040F000A8BF0B46AEF80030F5E500212D4BAEF819
:10410000001019602D4B1960F2E54FF00A09C90043
:1041100091FBF9F110E6BEF1020F01EB0307A1EBF1
:10412000030619BF2A4B2B4940F2023340F2EE211D
:104130001CBF1B880988002F0CDD3B44264FB7F9B4
:1041400000701F44002E4BDD8B192449B1F900602B
:104150001E444BE01FBFFB1A1F4FB7F90070DF1B57
:10416000F0E700BF7C170020DA1700207817002046
:10417000701700206E170020B8FF01008F5F01004C
:10418000B30F0020BC170020A2FEFFFF88FAFFFF3C
:104190001C000020DE170020DC170020200000207B
:1041A0004D3CFFFF30000020801700200CFEFFFF79
:1041B0003A000020A0170020400000209C1700209B
:1041C000B03CFFFF3C0000203E00002024FAFFFF2F
:1041D0004A00002048000020A6170020A417002055
:1041E00004D0731A4849B1F900609E1B002A63D0BD
:1041F0000023464E2B60CCF80030374641F2883021
:10420000FFF732FB42F22832D8F8003003F58C5326
:104210001433934204D9002637463D4B2E601E606E
:104220003C4B1A883C4B92B2952A1B884CD80026EE
:1042300032462E6059428A42B8BF0A46B342A8BFEE
:10424000334626788B42B8BF0B4634483449002E9B
:104250003FD02678012E3CD02478022C39D0002380
:104260002B4A2B6013601A465242028000220A80B9
:1042700034E02C4E0AEB0107B6F9006037440EEB30
:1042800001062149B1F900904E44002BAED067B928
:10429000002B574604DA66B1FF1A59E70026F7E704
:1042A0007F42002EF8D17646F6E7002EF4D1002B9F
:1042B000F9DACEF10006EFE700289FD040F6B836D5
:1042C0002A60CCF8002098E79F423A46A8BF1A46D9
:1042D000B0E7002AC8DD0A8000220280002B9AB2D3
:1042E0001149124BD5BF52421A800A800023D6BF13
:1042F00000220B801A8009B0BDE8F08F002BCDD1D1
:104300001E461F4672E700BFA417002048F4FFFFB7
:10431000FC240020F62400205000002088200020EB
:1043200086200020A61700208C2000208A20002054
:1043300080B5A74D9AB001F001FAFFF723FA1022D9
:10434000002113A807F0F0F8AB69002243F0100336
:10435000AB61AB694FF4005103F010030493049B6D
:10436000AB699C4843F02003AB61AB69002403F0C8
:1043700020030593059BAB69012743F00403AB6160
:10438000AB69022603F004030693069BAB6943F076
:104390000803AB61AB6903F008030793079B01F0C7
:1043A000EFFF00224FF400718B4801F0E9FF4FF45A
:1043B0000053884813A9CDE91337CDE9154601F01C
:1043C00097FE4FF40043844813A9CDE913341594A4
:1043D00001F08EFE4FF400737F4813A9CDE9133727
:1043E000CDE9154601F084FE6B6922463B436B61C3
:1043F0006B6921463B400B200393039B01F080FC3B
:104400000B2001F0ADFC224621460E2001F078FC85
:104410000E2001F0A5FC224621460F2001F070FC81
:104420000F2001F09DFC6D4A6D4B082513604FF481
:10443000807393604FF460231046CDE913441594C4
:1044400014731475D3615460156101F0C7FB08B192
:1044500072B6FEE70624CDE9130713A95F48159449
:1044600001F050FA08B172B6FEE75C4813A9CDE935
:10447000137601F047FA08B172B6FEE713960326E9
:10448000564813A9149601F03DFA08B172B6FEE73A
:1044900013960426514813A9149601F033FA08B173
:1044A00072B6FEE7139605264C4813A9149601F040
:1044B00029FA08B172B6FEE7484813A9CDE913649A
:1044C00001F020FA08B172B6FEE7139407244348BE
:1044D00013A9149401F016FA08B172B6FEE73F482A
:1044E00013A9CDE9134501F00DFA044608B172B6DF
:1044F000FEE70EAE01461022304607F015F81422F2
:10450000214613A807F010F847233648DFF8D8C033
:104510000AAFC0E900C3F9230A947C60C0E9033400
:10452000C0E90544846004F0F5FD08B172B6FEE709
:104530004FF4805831462B48CDF8388004F0D0FE37
:1045400008B172B6FEE7CDE9130013A9254804F0BF
:10455000BEFF08B172B6FEE7CDE90A003946214830
:1045600005F03AF8054608B172B6FEE7014610229A
:10457000304606F0D9FF1422294613A806F0D4FFCE
:104580004FF047094FF08043184C0A95C4E90039B1
:1045900041F2873320467D60C4E90335A560A561FB
:1045A00004F0B8FD08B172B6FEE731462046CDF8FA
:1045B000388004F095FE08B172B6FEE7CDE913002D
:1045C00013A9204604F083FF90B172B6FEE700BF46
:1045D0000010024000100140000C01409C27002008
:1045E0000024014034260020002C0140EC2500204E
:1045F000CDE90A003946204604F0EEFF044608B132
:1046000072B6FEE701461022384606F08DFF1422EE
:104610002146304606F088FF1C22214613A85B4D38
:104620000894099406F080FF594B2846C5E90039E3
:1046300042F20F730DF1200AC5E90334AC60AC619E
:1046400004F068FD08B172B6FEE739462846CDF899
:10465000288004F045FE08B172B6FEE7284604F053
:1046600085FD08B172B6FEE7002331464748CDE923
:104670000E3304F02CFF08B172B6FEE7CDE9080056
:104680005146424804F0A8FF024608B172B6FEE760
:1046900060231590CDE91330179013A93B4804F01F
:1046A000BDFD08B172B6FEE70422384813A904F034
:1046B000B5FD08B172B6FEE70822344813A904F02C
:1046C000ADFD08B172B6FEE70C22304813A904F024
:1046D000A5FD044608B172B6FEE72C4800F0FCFDCB
:1046E0004FF4E1332B482C4DC0E90244C0E900539C
:1046F0000C230461C0E90534C46105F005F80446E3
:1047000008B172B6FEE706F067FC24482449254B41
:10471000C0E90244C0E900134FF48043C0E90644F5
:10472000C0E90434046202F009F8044608B172B624
:10473000FEE71022014613A806F0F6FE47231A4DA5
:104740001A4A0E94C5E9002342F20F73284674609A
:10475000C5E90334AC60AC6104F0DCFC08B172B6AE
:10476000FEE74FF48053284613A9139304F0B8FDD5
:1047700008B172B6FEE7002331460B48CDE90E338F
:1047800004F02AFF044698B172B6FEE7A425002083
:1047900000040040142500200038014004270020B8
:1047A00000580040801A06005C25002000080040E8
:1047B000524806F09BFC524804F0B6FB514804F006
:1047C000B3FB514804F0B0FB21464F4804F002FF10
:1047D00004214D4804F0FEFE08214B4804F0FAFE87
:1047E0000C21494804F0F6FE4FF4005101224748DD
:1047F00001F0C6FD464800F0E9F9464800F0E0F94E
:10480000454800F0D7F900F077FB204600F068FB40
:10481000424800F0C7F8424800F0CAF8414800F0AA
:10482000CDF800F0E9F8404A404B10461360404B89
:104830005360404B9360FCF711F83F48FCF780FD54
:104840003E48FCF777FD01223D493E4805F06BF9F3
:1048500040F6B8323C4B3D491C703D4B3D481C7006
:104860003D4B1A8001223D4B1A70FBF77DFE3C4BFD
:104870003C4A3D493D4800F00AFF3D4B3D4A3E4819
:104880003E4900F004FF3E4B3E4A1C703E4B3F4801
:104890001C803F4B1C803F4B1C803F4B1C80FEF715
:1048A0001FFCD2F8FC3043F08073C2F8FC303B4B65
:1048B0005C601A6842F001021A600190FEF784FC05
:1048C000FCF738F8FEF764FB002227492748FDF77C
:1048D0005BFE012229492848FDF756FEFEF738F90C
:1048E000FEF796F8FFF708F90198FEF701FC01982A
:1048F000FEF704FDFEF7C6FEE0E700BF4D1300081B
:1049000034260020EC250020A425002000100140C2
:104910000D2500208D130008B51300080C2500207C
:10492000B1130008D1130008782000207913000883
:10493000ED130008211400080D1400088D14000860
:104940008420002014250020EB1F002021CA00082D
:10495000E91700202ACA00085C000020E8170020A0
:104960009423002094220020B8240020AC240020AE
:10497000942100209420002094240020A0240020D2
:104980008E20002000ED00E08C2000206E20002012
:10499000882000208A20002086200020001000E0CF
:1049A00072B6FEE7014B1860704700BFFC2700207D
:1049B000014B1860704700BFF8270020014B1860BA
:1049C000704700BFF4270020044A10B414680B4657
:1049D000A44601460122D02010BC6047F8270020E1
:1049E0001346044A10B41468CAB2A446014610BC67
:1049F000D0206047F427002013B500240DF10700F4
:104A00006B218DF80740FFF7DFFF04230DF107004E
:104A100019218DF80730FFF7D7FF02230DF10700AA
:104A20001A218DF80730FFF7CFFF0DF107001C2189
:104A30008DF80740FFF7C8FF1B210DF10700FFF7B6
:104A4000C3FF02B010BD00000122044B1A70044BDA
:104A50001B680BB100221A70704700BF9500002040
:104A6000FC27002008B51A4B19681A4B08781A78E9
:104A700018B9012A23D0002008BD0020012A08709F
:104A80001DD0022AF7D101201870134B13491A8840
:104A9000D2BA0A605A881249D2BA0A609A88114971
:104AA000D2BA0A601A891049D2BA0A605A890F49E3
:104AB000D2BA9B890A600E4ADBBA1360DCE7022295
:104AC0000E211A7004483B22FFF78AFFD3E700BF8C
:104AD000FC27002095000020CC270020F027002094
:104AE000EC270020E8270020E4270020E027002012
:104AF000DC27002070B5DDE9045410B10B4E366898
:104B0000068011B10A480068088012B10949096895
:104B1000118013B1084A12681A8015B1074B1B683F
:104B20002B8014B1064B1B68238070BDF02700203A
:104B3000EC270020E8270020E4270020E0270020C1
:104B4000DC27002013B5064B8DF807001C680122F6
:104B5000002378200DF10701A04702B010BD00BF6F
:104B60000C2C002013B5064B8DF807001C680122A1
:104B7000002378200DF10701A04702B010BD00BF4F
:104B8000082C0020044B10B41C68CAB2A44601468D
:104B90004023782010BC60470C2C0020044B10B43C
:104BA0001C68CAB2A44601464023782010BC604766
:104BB000082C0020014B1860704700BF082C002013
:104BC000014B1860704700BF0C2C0020014B18608F
:104BD000704700BF102C002000284FF4806214BFE3
:104BE000FF210021014806F09FBC00BF06280020DD
:104BF00038B5B0240A4D2046FFF7A4FF0020FFF788
:104C0000A1FF01341020FFF79DFFE4B22846802168
:104C1000FFF7B8FFB82C05F18005ECD138BD00BF17
:104C20000628002038B51C4B1C4C1A6823781178D4
:104C300019B9012B0AD0002038BD0021013B1170A9
:104C4000032BF8D8DFE803F0020B1015144B18788B
:104C50005038C0B2FFF786FF02232370EBE7002035
:104C6000FFF780FF0323F8E71020FFF77BFF042303
:104C7000F3E70B4D0B4B2878802103EBC010FFF7B7
:104C80008DFF01202B7820700133DBB2072B2B70B6
:104C9000D1D900232B70CFE7102C002096000020E4
:104CA000062C0020062800200022054B1A70012245
:104CB000044B1A70044B1B6803B11A70704700BF95
:104CC000062C002096000020102C0020030630B592
:104CD00010D43F290ED80124CB08074D00EBC31098
:104CE0002B5C01F0070104FA01F1A2420CBF0B4357
:104CF0008B432B5430BD00BF062800202DE9F04F18
:104D0000044689B008A800E90E009DF84830A4F1D7
:104D100020050293EBB25E2B47D8079B23B32344B5
:104D200013F8206C224AB2F8009009EB0603802B9E
:104D30003BDC53889DF815B0019303EB0B02402A2E
:104D400033DC029B4FF00008B3FA83FA0BFB05F546
:104D50004FEA5A1A6D00C34509D8154B4E441E80C0
:104D6000204609B0BDE8F08F9DF81460DAE700270F
:104D7000069A535B0493019B08EB0302D3B203939F
:104D8000BE4203D808F101080235E4E7049B07EBB3
:104D9000090003FA07F2130454BF5246029A03991A
:104DA000C0B2FFF793FF0137EAE70024D8E700BF5E
:104DB0000028002070B586B003AC84E80E009DF892
:104DC0002860451E15F8010F40B1009694E80E00CA
:104DD000FFF794FF034628788342F3D006B070BDF6
:104DE000014B188059807047002800202DE9F74FAB
:104DF0009046A8EB0009A3EB010AB9F1000F1E468B
:104E0000B8BFC9F10009BAF1000FB8BFCAF1000A72
:104E1000804594BF4FF0FF33012305460C468E4278
:104E200094BF4FF0FF3B4FF0010B404631469DF8D9
:104E300030200093A9EB0A07FFF748FFCAF10003EF
:104E4000454504D1B44202D103B0BDE8F08F2146FC
:104E500028460193FFF73AFF019B7900B3EB470F18
:104E6000BFBF0098A7EB0A072D18EDB28945C2BF56
:104E70005C444F44E4B2E3E72DE9F0411446A0421C
:104E8000804628BFA046A042064638BF2646994223
:104E90000C4628BF1C46994238BF19460F469DF85C
:104EA0001820BC4201D83F2C01D9BDE8F08145460D
:104EB00007E02B0607D428462146FFF707FF0135F8
:104EC000EDB2B542F5D90134E4B2EAE710B50446D3
:104ED0008120FFF737FE2046BDE81040FFF732BEC5
:104EE000034628B10123AF20024A5371FFF72ABEBF
:104EF000AE20F9E70028002008B5642000F042FC4D
:104F00000020FFF7EDFF2020FFF71CFE0020FFF739
:104F100019FEB020FFF716FEC820FFF713FE002091
:104F2000FFF710FE1020FFF70DFE4020FFF70AFEEE
:104F3000FF20FFF7CBFFA120FFF704FEA620FFF71D
:104F400001FEA820FFF7FEFD3F20FFF7FBFDA42098
:104F5000FFF7F8FDD320FFF7F5FD0020FFF7F2FD86
:104F6000D520FFF7EFFDF020FFF7ECFDD920FFF78C
:104F7000E9FD2220FFF7E6FDDA20FFF7E3FD12202E
:104F8000FFF7E0FDDB20FFF7DDFD2020FFF7DAFD76
:104F90008D20FFF7D7FD1420FFF7D4FD0120FFF788
:104FA0009FFF0020FFF718FEFFF722FE0022034BB1
:104FB0001A805A8001221A7108BD00BF0028002003
:104FC0000E4B82B09A6942F001029A619A6902F02E
:104FD00001020092009ADA6942F08052DA61DB69DC
:104FE000074A03F080530193019B536823F0E06369
:104FF00043F08063536002B0704700BF001002406E
:105000000000014030B5054687B01022002102A8FB
:1050100006F08AFA2A68204B9A423BD103F56C438A
:105020009A691E4842F400729A619A6902A902F4D0
:1050300000720092009A9A69194C42F004029A6137
:105040009B69FF2203F004030193019B0323CDE935
:10505000022301F04DF880204FF480720023C4E950
:1050600003024FF480620F492046C4E90013C4E9EB
:105070000523A360E36100F0A7FE08B1FFF790FCF1
:10508000002212202C621146656200F039FE1220C7
:1050900000F066FE07B030BD00240140000801406A
:1050A000582700200800024030B5054687B010227E
:1050B000002102A806F038FA2A682E4B9A4256D1EF
:1050C0002D4C4FF44061A3692C4843F00803A361C1
:1050D000A36903F008030093009B1223CDE9021398
:1050E000032302A9059301F003F8E369802243F446
:1050F0008003E361E369224803F480030193019B89
:105100000023204CC4E900032046C4E90323C4E97A
:105110000533A360E36100F057FE08B1FFF740FCE0
:105120001023194AAC636562184CC4E900230023BC
:1051300080222046C4E90232C4E90433C4E90633BC
:1051400000F042FE08B1FFF72BFC0022212011469F
:105150006C63656200F0D4FD212000F001FE0022A6
:105160002220114600F0CCFD222000F0F9FD07B00E
:1051700030BD00BF0058004000100240000C01404C
:1051800058000240C0260020440002407C26002037
:105190000268114B10B59A4204461CD10F4A4FF4D5
:1051A0008061D3690E4823F48003D36101F074F861
:1051B0004FF400610A4801F06FF8A06B00F034FE74
:1051C000606B00F031FE212000F0D8FDBDE81040FA
:1051D000222000F0D3BD10BD005800400010024056
:1051E000000C01401FB50368374A93422CD1374B5E
:1051F00018209A6942F400629A6100229B69114664
:1052000003F400630093009B00F07AFD182000F087
:10521000A7FD00221920114600F072FD192000F0B0
:105220009FFD00221A20114600F06AFD1A2000F0AE
:1052300097FD00221B20114600F062FD1B2005B0E7
:105240005DF804EB00F08CBDB3F1804F11D103F594
:105250000433DA691C2042F00102DA610022DB69C2
:10526000114603F001030193019B00F049FD1C204E
:10527000E5E7174A934210D1144B1D20DA6942F03A
:105280000202DA610022DB69114603F00203029395
:10529000029B00F035FD1D20D1E70E4A934210D14C
:1052A0000A4B1E20DA6942F00402DA610022DB694F
:1052B000114603F004030393039B00F021FD1E201D
:1052C000BDE705B000BD00BF002C0140001002404A
:1052D000000400400008004010B5044686B01022CB
:1052E000002102A806F020F92268114B9A421CD135
:1052F00003F503339A690F4842F008029A619B69EB
:10530000332203F008030193019B022302A9CDE994
:105310000223059300F0ECFE074A536823F4406330
:1053200043F0E06343F40063536006B010BD00BF78
:1053300000040040000C01400000014010B504468C
:1053400086B01022002102A806F0EEF822681B4B5E
:105350009A4230D103F558439A69194842F4804281
:105360009A619A6902A902F480420092009A9A69AD
:10537000002442F004029A619B694FF4007203F02A
:1053800004030193019B0223CDE902230323059328
:1053900000F0AEFE4FF48063094802A9CDE9023463
:1053A000049400F0A5FE25202246214600F0A8FC2A
:1053B000252000F0D5FC06B010BD00BF003801402C
:1053C00000080140FEE7FEE7FEE7FEE7FEE7704764
:1053D0007047704700F0C4B9014800F0F1BD00BF4C
:1053E00058270020014800F0EBBD00BF7C260020BC
:1053F000014800F0E5BD00BFC0260020014800F0D4
:1054000001BA00BF9C270020014802F037BC00BF52
:10541000083B0020FFF7F8BF014803F0B4BD00BF10
:1054200034260020FFF7F8BFFFF7F6BFFFF7F4BF01
:10543000014803F0A8BD00BFEC250020014803F09F
:10544000A2BD00BFA4250020014803F09CBD00BF01
:105450005C250020014801F083BE00BF0427002026
:10546000014802F0D7BA00BF04270020014804F029
:10547000F7B900BF142500200A4A0346106810B58A
:1054800008B9094810600949094C0344091B8B42BB
:1054900006D906F08DF80C2303604FF0FF3010BDE5
:1054A0001360FCE7142C0020283F0020005000204F
:1054B0000004000070470346002030B51872587988
:1054C0001C68451C5D715525987125545879DC7907
:1054D00001322040451C5D714E251C68D2B2255416
:1054E0005879DC792040451C5D7145251C682554A0
:1054F0005879DC792040451C5D7152251C68255483
:105500005879DC7920401C68451C5D71225458791B
:10551000DC794A402040451C5D713A251C682554C1
:105520005879DC7920401C68451C5D7121545879FC
:10553000DC792040587107205872187A504080F06A
:105540003600187230BD034610B5427A01324272FD
:105550005A790068541C5C7181545A79D879024098
:105560005A711A7A81EA0200187210BD002337B509
:105570008DF807309DF80730CB5C13B9007A03B083
:1055800030BD437A9DF80740013343724379026886
:105590005D1C45710C5DD4544379C27913409DF86C
:1055A00007204371531CDBB28DF807308B5C027A05
:1055B00053400372DEE7034610B5C4798079014495
:1055C000214018689971405C11440C409C7110BDD9
:1055D000F0B50024052645790379AB4201D10020BE
:1055E000F0BD827A072A50D8DFE802F0040F1C22AF
:1055F000282D4F3E0268D25C552A01D101228272C9
:10560000C279013313400371E6E70268D25C4E2A87
:1056100001D10222F3E7552AF2D000228272013B27
:10562000DBB2EDE70268D25C452A1BD10322E6E734
:105630000268D25C522A15D10422E0E70268D25CEB
:1056400086724272DCE70268D25C3A2A0AD10721EC
:10565000C2798172591C0A408271427A82F0360204
:105660000272CDE78472DAE7427A0768013AD2B271
:10567000017A42721AB1FA5C51400172C0E782723B
:10568000FA5C8A42BCD10120AAE78472B8E710B55F
:1056900002604FF07F440022446002818272C1E9BF
:1056A00000340A818A7210BDFFF704FF0B480C49D1
:1056B0000C4A002302E0D458C4500433C4188C426E
:1056C000F9D3094A094C002301E013600432A242D5
:1056D000FBD305F073FFFEF72BFE704700000020A0
:1056E0006C0200205CE300086C020020283F0020D0
:1056F000FEE7000038B50E4B05461A784FF47A7372
:10570000B3FBF2F30B4A1068B0FBF3F000F048FB78
:10571000044658B90F2D09D8024629464FF0FF30EC
:1057200000F0EEFA2046044B1D6038BD0120FCE776
:105730009C00002098000020A0000020074A08B527
:105740001368032043F01003136000F0C7FA0F2022
:10575000FFF7D0FFFFF734FC002008BD0020024017
:10576000034A044B11681B780B441360704700BF59
:10577000182C00209C000020014B1868704700BFC7
:10578000182C002038B50446FFF7F6FF0546631CC9
:105790001EBF044B1B78E418FFF7EEFF431BA34228
:1057A000FAD338BD9C000020436A10B59A6A12F003
:1057B000500F1BD19A6A42F400729A621A6892687A
:1057C00002F46022B2F5602F0CD11A7B52B99A6AAA
:1057D00022F480729A629A6AD2045EBF9A6A42F098
:1057E00001029A621846FBF709FF10BD1B6ABDE86B
:1057F00010401B6B1847704708B5406AFFF7FBFF66
:1058000008BD7047036870B51D685E680446B00641
:1058100026D5A90724D5A26AD2065EBFA26A42F4A1
:105820000072A2629A6802F46022B2F5602F10D171
:10583000227B72B95A6822F020025A60A36A23F4CC
:105840008073A362A36AD8045EBFA36A43F0010316
:10585000A3622046FBF7D2FE6FF0120223681A60A3
:10586000310630D56A072ED5A36ADB065EBFA36A70
:1058700043F40053A36223689A6802F4E042B2F54D
:10588000E04F0AD05A68500516D49A6802F4602294
:10589000B2F5602F10D1227B72B95A6822F08002D3
:1058A0005A60A36A23F48053A362A36AD9055EBF3A
:1058B000A36A43F00103A362204600F00DFA6FF0E3
:1058C0000C0223681A6072060CD5EB070AD5A36A8E
:1058D000204643F48033A362FFF793FF6FF0010289
:1058E00023681A6070BD7047406A08B5836A43F048
:1058F00040038362C36A43F00403C362FFF7F3FF0C
:1059000008BD0000002373B5019390F824300446CD
:10591000012B6CD0012380F824304D680268062DDD
:10592000086805EB850322D81F26556B053B9E4072
:1059300025EA060500FA03F32B43536309288B6815
:1059400000EB40054FF0070129D9D6681E3DA9405C
:1059500026EA0101AB400B43D360A0F11003012BF9
:1059600025D90020002384F8243002B070BD0C2D0E
:105970004FF01F0509D8166B233B9D4026EA05050D
:1059800000FA03F32B431363D8E7D66A413B9D40EB
:1059900026EA050500FA03F32B43D362CEE710692C
:1059A000A94020EA0101AB400B431361D9E7114B39
:1059B0009A4216D193681B02D3D49368102843F4FB
:1059C00000039360CDD10C4B0C4A1B68B3FBF2F380
:1059D0000A2253430193019B002BC2D0019B013B40
:1059E000F8E7A36A012043F02003A362BAE702208C
:1059F000BBE700BF002401409800002040420F0098
:105A0000002337B50193036804469A68D20702D58C
:105A1000002003B030BD9A6842F001029A60144B36
:105A2000144A1B68B3FBF2F30193019BE3B9FFF740
:105A3000A3FE054623689B68DB07E9D4FFF79CFEBD
:105A4000401B0228F6D923689B6813F00103F1D1AB
:105A5000A26A012042F01002A262E26A84F82430B5
:105A600042F00102E262D4E7019B013BDCE700BFA8
:105A70009800002040420F002DE9F0413F4B904636
:105A8000026804469A420F4602D03D498A4203D139
:105A90005B6813F4702F6DD194F82430012B6BD018
:105AA0000123204684F82430FFF7AAFF0646002889
:105AB0005DD1A56A2168324B25F4706525F001059A
:105AC00045F480759942A56204D12C4A536813F4B9
:105AD000702F3ED1A36A23F48013A3624B685A054A
