:020000040800F2
:1000000000500020BD4B0008D9480008DB4800081C
:10001000DD480008DF480008E14800080000000053
:10002000000000000000000000000000E34800089D
:10003000E548000800000000E7480008E94800081B
:10004000054C0008054C0008054C0008054C00084C
:10005000054C0008054C0008054C0008054C00083C
:10006000054C0008054C0008054C0008ED48000848
:10007000054C0008054C0008F9480008054900082F
:10008000054C0008054C0008114900081D490008EE
:1000900029490008054C0008054C0008054C0008DB
:1000A0002D490008394900083D4900084149000828
:1000B00045490008514900085D490008054C000801
:1000C000054C00086949000875490008054C0008FE
:1000D000054C000881490008054C0008054C000843
:1000E000054C0008054C0008054C00080000000005
:1000F0000000000000000000000000000000000000
:0C01000000000000000000005FF808F1A3
:1001100010B5054C237833B9044B13B10448AFF341
:1001200000800123237010BD580200200000000051
:10013000CCB3000808B5034B1BB103490348AFF328
:10014000008008BD000000005C020020CCB3000865
:10015000034613F8012B002AFBD1181A0138704707
:100160007BB972B90029BEBF00204FF0004106E004
:1001700008BF00281CBF6FF000414FF0FF3000F0B7
:10018000B9B9ADF1080C6DE904CE002909DB002BEB
:100190001ADB00F035F8DDF804E0DDE9022304B0F5
:1001A0007047404261EB4101002B1BDB00F028F857
:1001B000DDF804E0DDE9022304B0404261EB4101D7
:1001C000524263EB43037047524263EB430300F038
:1001D00017F8DDF804E0DDE9022304B0404261EBEA
:1001E00041017047524263EB430300F009F8DDF828
:1001F00004E0DDE9022304B0524263EB430370479D
:100200002DE9F047089D0F4604468E46002B48D145
:100210008A42164661D9B2FA82F24AB1C2F120038B
:1002200001FA02FE20FA03F3964043EA0E0E9440D0
:100230004FEA164CBEFBFCF1B7B20CFB11EE01FB12
:1002400007F0230C43EA0E43984209D9F31801F151
:10025000FF3E80F0ED80984240F2EA80023933445C
:100260001B1AB3FBFCF00CFB103300FB07F7A4B226
:1002700044EA0344A74209D9341900F1FF3380F05E
:10028000D980A74240F2D6803444023840EA014087
:100290000021E41B1DB10023D440C5E90043BDE8A3
:1002A000F0878B4206D90DB1C5E90001002108464F
:1002B000BDE8F087B3FA83F1002947D1BB4202D3EE
:1002C000824200F20481841A67EB03020120964601
:1002D000002DE4D0C5E9004EE1E7002A00F090804F
:1002E000B2FA82F2002A40F0A780881B0121370C65
:1002F0001FFA86FEB0FBF7FC07FB1C00230C43EA49
:1003000000430EFB0CF0984207D9F3180CF1FF38AC
:1003100002D2984200F2E080C4461B1AB3FBF7F009
:1003200007FB10330EFB00FEA4B244EA0344A645CB
:1003300007D9341900F1FF3302D2A64500F2C98073
:100340001846A4EB0E0440EA0C40A3E7C1F12006D6
:100350008B4022FA06FC4CEA030C27FA06FA4FEA15
:100360001C49BAFBF9F88F4020FA06F309FB18AADA
:100370001FFA8CFE3B4300FA01F708FB0EF01C0C41
:1003800044EA0A44A04202FA01F20BD91CEB04042D
:1003900008F1FF3A80F09980A04240F29680A8F1DF
:1003A00002086444241A98B2B4FBF9F309FB13441D
:1003B00003FB0EFE40EA0444A64508D91CEB0404E6
:1003C00003F1FF307FD2A6457DD9023B644443EA66
:1003D0000840A4EB0E04A0FB028E74454346F14690
:1003E00061D35ED055B1FA1A64EB090404FA06F63B
:1003F00022FA01F31E43CC40C5E9006400214EE718
:1004000043084FEA510C43EAC1710A0C42EA0C421C
:100410008BB2C407B2FBF6F143EA0243BCFBF6FC25
:10042000B646304637461F22181A41EA0C4161E7AA
:10043000714615E7184629E7C2F1200321FA03F0B7
:10044000964024FA03F397403B43370CB0FBF7F890
:1004500007FB18001FFA86FE190C41EA004108FB51
:100460000EF0884204FA02F43AD9711808F1FF3C00
:1004700001D288421ED8091AB1FBF7F808FB0EF02A
:1004800007FB18119BB243EA014383422FD2F318B2
:1004900008F1FF31C8D28342C6D2A8F10201334429
:1004A000C2E747459ED2B8EB02036EEB0C0E013853
:1004B000F14697E7301A0144A8F1020CB1FBF7F8B6
:1004C00008FB0EF0DCE7034681E7D0466AE7084602
:1004D000FEE63444023834E7ACF1020C33441CE746
:1004E000091AC446B1FBF7F808FB0EF0C8E741460D
:1004F0009AE700BF704700BF00220A4930B50B8859
:10050000094D013810F8014F14B902B10B8030BD0C
:100510005A1C92B2B2F5806FEC5414BF13460023FC
:100520000122EFE7860200208E020020074A10B564
:100530001188074C4B1C9BB2B3F5806F138008BF2A
:100540000023605408BF138010BD00BF8602002046
:100550008E02002038B500240D460E4B01461C705B
:100560000D4B3F220D481C700AF070FA0B4B1F22F6
:1005700029460B4883F83F400AF068FA3222084BBC
:10058000DC77084B1A601422074B1A70074B1C705B
:1005900038BD00BF780B0020920A00201F0B0020FE
:1005A000FF0A0020740B0020790B00208402002039
:1005B000014B1878704700BF910A0020194B70B5A5
:1005C0005B6806460D4614463BB347F23053164966
:1005D0001648002A08BF1C460AF08EFA0F22314640
:1005E00013480AF033FA0023114A1249D3732846FC
:1005F0000A220AF0A9F90A2220460F490AF0A4F9B2
:100600000E4B1B7863B10E4B187810F0020003D02C
:10061000102206200B4B1A7070BD4FF0FF30FBE725
:100620000120F9E778020020E4B30008050000206B
:10063000EF0A0020E90A0020D30A00201F0B002047
:10064000780B0020790B0020064B5B683BB1064B12
:100650001B7813F0400F0CBF0520072070474FF0A8
:10066000FF30704778020020780B0020074A10B551
:100670001188074C4B1C9BB2B3F5806F138008BFE9
:100680000023605408BF138010BD00BF8C020020FF
:100690008E0600202DE9FF471F463D4B04465B6850
:1006A00088461546BDF83090002B6CD0394EDFF8E7
:1006B000E8A033789AF8001003F040020A4365D0AE
:1006C0001B0758D40A2201A938460AF03DF901A8AF
:1006D000FFF73EFD421ED2B2032A4AD82F48FFF749
:1006E0000BFF9AF8003053B10A22694620460AF0FF
:1006F0002BF96846FFF700FF2C20FFF717FF01A832
:10070000FFF7FAFE2648FFF7F7FE002211462548BC
:10071000DFF894C0038894B2A74216D801B10380D1
:100720003378224C23F00C0343F00C03337023681E
:100730003BB11F489847236801A8984723681D4884
:100740009847092004B0BDE8F0875C1CA4B2B4F55A
:10075000806F08BF0024691C18F8055089B20CF896
:1007600003500132494514BF0D460025234601219F
:10077000D1E70B20E6E70D4B1B680BB90820E1E73A
:100780000D489847FAE74FF0FF30DBE70520D9E73F
:1007900078020020780B0020920A00205BBA000843
:1007A000E8B30008860200208E020020600B0020C3
:1007B000EBB30008FAB50008FEB3000802460F4B81
:1007C0000068516803C390680D4A186000231370D5
:1007D0000C4A13700C4A13800C4A13800C4A138085
:1007E0000C4A13800C4A13700C4A13700C4A137095
:1007F0000C4A13600C4A1360704700BF7802002057
:10080000790B0020900A0020880200208602002038
:100810008A0200208C020020780B0020920A00201F
:10082000910A0020640B0020600B0020114A13681D
:100830000BB1013B1360104A136823B1013B1360F5
:100840000BB90E4A13700E4A13680BB1013B1360CB
:100850000C4A13686BB1013B136053B90A490A781B
:10086000100706D563F3C302084B0A701A88084BB9
:100870001A807047740B0020700B0020900A002033
:100880006C0B0020680B0020780B002086020020F3
:10089000880200202DE9F84FA54AA64EB2F800B014
:1008A000338800255B4506D0A34F3A78143A022AD4
:1008B00027D8A6F800B0A14EA14C3368002B40F019
:1008C0006D8264239C4D33602B78162B00F2668278
:1008D000DFE813F04404AD02C602CC02DA02E00203
:1008E000E902EF0202030D033E03480352038303B0
:1008F0008C039D03AC03FE033B04410459029802A0
:10090000A70202228F49904C0A609B45D3D08F4AA0
:10091000D05C22780D2A00F23182DFE812F00E005E
:100920005500CC002F022F02A501BA01C301D0014E
:100930002F02EB0108021A02F90100230421984654
:10094000DFF80CC2834ADFF810928CF80030117087
:100950005FFA83FE59F82E10D1B9B8F1000F01D01B
:100960008CF800E00022774B75491A600B7813F081
:10097000010F00F092803E2840F08F8062F3000368
:100980000B70764B1A604FF49672754B1A6084E0C8
:1009900091F804A00133824513D1B8F1000F01D0C2
:1009A0008CF800E00B784978303B313903EB830356
:1009B00001EB43036B490B80012323700523137064
:1009C0006BE04FF00108C3E7DFF884C162499CF88F
:1009D000002051F822205F49097812F801E086458D
:1009E00014D1DFF880C1BCF80030013B9BB2ACF8F9
:1009F00000300BB10D284DD19378D278303B03EB0A
:100A00008303303A02EB4303237046E00022914611
:100A1000C1F57F4A8CF800200AF1D30ADFF838C10B
:100A20005FFA82F85CF828C0BCF1000F0CD1B9F174
:100A3000000F04D04B4A1580454A82F800800022FE
:100A4000013B2270338028E09CF800E09CF80150C4
:100A5000AEF1300E0EEB8E0E554405EB4E05ADB2E9
:100A60007F2D24D81CF801E0864520D13D4B1D8008
:100A7000B9F1000F02D0364B83F8008055B99CF8CD
:100A800002309CF80320303B03EB8303303A02EB47
:100A9000430323702F4B01311970338801339BB20C
:100AA000B3F5806F338004BF002333802DE74FF010
:100AB00001090132B2E70A28EFD100232370244B49
:100AC0001B78023B0F2BE8D801A252F823F000BF9D
:100AD000110B0008690B0008850B00089B0A000831
:100AE000AF0B0008AF0B0008DD0B0008E70B000898
:100AF000050C0008DD0B00089B0A00082F0C0008FD
:100B00009B0A0008390C0008450C0008450C000839
:100B10003A78082AC1D84FF4AA73D340DB07BCD572
:100B20000022064B1A60064A137843F0200346E77A
:100B30008C0200208A020020790B0020740B002018
:100B4000780B0020700B0020900A00208E060020F9
:100B50007502002074020020DCB800086C0B002035
:100B6000680B00208E0A0020944A1378180794D549
:100B700023F009031370924B1A88924B1A80924B00
:100B8000002203E73B780D2B87D100228F4B1A60A0
:100B90008A4A137823F0220343F0220313708C4B0C
:100BA0001B68002B3FF479AF0320984775E7834A11
:100BB000137823F0420313703B780E3B052B3FF66E
:100BC0006CAF834B1B680BB100209847814B1B789F
:100BD000002B7FF462AF16233B705EE7774A1378F1
:100BE00023F04003EBE6754A137823F008031370F3
:100BF0000022754B1A60764B1B68002B3FF44DAFFB
:100C00000A20D2E7734B1B78002B7FF446AF6F4A64
:100C100013606A4A137823F0600343F06003137093
:100C20006B4B1B68002B3FF438AF0720BDE7634ACE
:100C3000137823F04203C2E6604A137823F042039C
:100C40001370C8E75D4A1378190706D523F0090326
:100C500013705B4B1A885B4B1A803B78013B0D2B62
:100C60003FF61BAF594B8BE75B4A2C28126807D124
:100C700006232370002A3FF410AF584890470CE732
:100C80000021013B21703380002A3FF406AF544815
:100C9000F4E722287FF401AF072300222370514B91
:100CA0001A80FAE6222803D04E4A1388102B01D16D
:100CB0000823A9E6591C11804B4AD054EDE60A28B6
:100CC0007FF4EBAE0023474A23701188464A0F2970
:100CD0009BBF5354394913700A789FBF42F02002DA
:100CE0000A703A4A13603A4B1B68002B3FF4D5AEAA
:100CF00004205AE72C287FF4A2AE364B1B782BB188
:100D00000D2300222370394B1A70C6E60B23C4E76B
:100D10002C28FBD0A0F13002092A3FF690AE334ACE
:100D2000137803EB830300EB4303303B47E63A2899
:100D300001D10C2368E6A0F13002092A3FF67FAE0C
:100D4000284A138803EB830300EB4303303B1380F3
:100D5000A3E6274B9B6803B19847224A1388013BBF
:100D60009BB21380002B7FF498AE23701A4B1B6844
:100D7000002B3FF492AE1F4898478EE600231E4A90
:100D80002370136089E61A4B00201B689847124BAA
:100D90001B680BB11948984715232B702378DA0785
:100DA00040F1E581164A126832B9054A23F0090379
:100DB0001188044A23701180BDE8F88F780B002059
:100DC0008602002088020020680B0020740B00209F
:100DD000640B0020920A0020600B002016B400086B
:100DE0002BB400088E0A0020D90A0020910A0020A6
:100DF000780200203FB40008700B002052B40008B5
:100E00006C0B0020914B01201B689847904B1B688E
:100E10000BB19048984716232B704FF4FA73336048
:100E2000BCE7012300222B708B4B1A70B6E78A4A6D
:100E300013782BB1013BDBB213701BB91423ACE761
:100E4000042313702378854823F020032370FFF7D1
:100E500053FB7F4B1B680BB18148984702239CE7EB
:100E600023789E0640F17581032396E77D48FFF7BE
:100E700043FB774B1B680BB17B489847237823F0E3
:100E800020032370042388E72378980640F16181CA
:100E9000052382E77548FFF72FFB237823F0200313
:100EA0002370062379E72378990640F152810723BE
:100EB00073E76F4B1B786BB16E48FFF71DFB644BFC
:100EC0001B680BB16C489847237823F020032370EC
:100ED000082362E76948F0E723789A0640F13981F0
:100EE000634B1B78002B0CBF0C23092355E7644888
:100EF000FFF702FB2220FFF719FB6248FFF7FCFA1D
:100F00002220FFF713FB2C20FFF710FB2220FFF716
:100F10000DFB5D48FFF7F0FA2220FFF707FB2C20BE
:100F2000FFF704FB5948FFF7E7FA2C20FFF7FEFA1A
:100F30005748FFF7E1FA0D20FFF7F8FA0A20FFF70C
:100F4000F5FA434B1B680BB1524898470A2324E734
:100F50005148FFF7D1FA3E4B1B680BB14F489847F9
:100F60000B231AE74E48FFF7C7FA394B1B680BB142
:100F70004C489847132310E74B4F3B78002B3FF426
:100F80000DAF4A48FFF7B8FA2220FFF7CFFA3846EC
:100F9000FFF7B2FA2220FFF7C9FA2C20FFF7C6FAB2
:100FA0002220FFF7C3FA4248FFF7A6FA2220FFF7F4
:100FB000BDFA0D20FFF7BAFA0A20FFF7B7FA244B63
:100FC0001B680BB13B489847237823F0200323701C
:100FD0000D232B7040F2DC5321E723789B0640F170
:100FE000B8800E2304222B701B4B1EE70022324BCD
:100FF00032481A70FFF780FA154B1B680BB1304866
:101000009847237823F0200323700F23C5E6237825
:101010009F0601D51023C0E60F4A1378013BDBB2CF
:101020001370002B00F095800E23B6E6254B1B783D
:10103000002B3FF4B3AE2448FFF75EFA044B1B6865
:101040000BB1224898471123A7E600BF7802002081
:10105000600B002068B4000884020020A5BA0008D4
:101060007EB4000897BA00088CB40008A0B4000849
:10107000920A0020B2B40008CEB40008C0B4000840
:101080004DBA0008B30A0020930A00200200002095
:1010900000000020E2B4000839BA0008F5B40008E6
:1010A00025BA000809B500081F0B00208DBA0008FA
:1010B000FF0A002020B50008D90A002082BA0008E3
:1010C00033B50008EF0A002067BA000844B50008ED
:1010D0003C48FFF711FA2220FFF728FA3A48FFF7B9
:1010E0000BFA2220FFF722FA2C20FFF71FFA22200A
:1010F000FFF71CFA3548FFF7FFF92220FFF716FA31
:101100002C20FFF713FA3248FFF7F6F92C20FFF7EF
:101110000DFA3048FFF7F0F92C20FFF707FA3020DE
:10112000FFF704FA0D20FFF701FA0A20FFF7FEF996
:10113000294B1B680BB129489847237823F060039B
:10114000237012232B70C82369E623789E063FF58F
:1011500011AF012321E6224B1B780BB100235EE681
:1011600023789807F5D559067FF554AFF6E71D4D5E
:101170001D492A88098891423FF41EAE1B4E5F0725
:10118000B05C02D53E2808BF0A20194B5B6898471F
:1011900000283FF411AE22782B8851070AD5F15C64
:1011A0003E2907D1322122F0050242F001022270CD
:1011B000104A116001339BB2B3F5806F08BF002362
:1011C0002B80F9E575BA000805000020EF0A002021
:1011D000E90A0020D30A0020600B00205AB500085D
:1011E000920A002088020020860200208E02002041
:1011F000780200206C0B0020014B1860704700BF84
:10120000640B0020014B1860704700BF600B00208A
:101210000022F0B5084BD4B2A14202F1010200D87D
:10122000F0BD5D791E686F1C5F71045D74555C795B
:10123000DD792C405C71EEE724120020021E18BFFD
:1012400001224FF40071014804F024BB000C01405E
:101250001FB514461A464FF0FF330091CDE9014304
:1012600001460123024804F0B5FD04B010BD00BFE3
:1012700080140020FFF7ECBF13B514461A46CDE9E1
:10128000001401230146024804F034FE02B010BDF0
:101290008014002013B514461A46CDE9001401232A
:1012A0000146024804F0ECFE02B010BD801400209C
:1012B00007B501228DF807000DF10701034807F07B
:1012C000DCFCB0FA80F0400903B000BD90120020B1
:1012D00010B50446FEF73CFF81B22046BDE8104041
:1012E00009F078B910B5164B1B78F3B115490C7895
:1012F000FF2C15D07E2C144B13D818550020621CDF
:10130000D2B2012A0A7098540AD0134413F8022C5E
:101310000D2A05D113F8013C0A2B01D1FF230B70D4
:1013200010BD00220A701A70FAE7084B5A79196842
:10133000541C5C7188545A79D9790A405A71EFE784
:10134000650D0020660D0020670D00200C120020A6
:10135000032810B5184C15D10C21184B18481A78D1
:10136000184B01FB02330F22996809F06FFB002331
:10137000134A2370D3730122134B1A700522134BA7
:101380001A7010BD124B22781B7813431843C0B259
:101390000028F6D1012340F6B8320C2123700D4B02
:1013A000BDE810401A80054B064A1B784B43D11804
:1013B0004968D058FFF7CEB80E0C00200F0C002063
:1013C000500000202CD00008100C002060000020ED
:1013D000650D00204C000020038830B58B421FD2E1
:1013E000C38B8B4219D9002330F8024BA14211D391
:1013F000028891420ED80B48121BC55A0230C35ABC
:10140000091B5B1B500801FB0300B0FBF2F02844F2
:1014100080B230BD02331E2BE6D14FF47A70F8E76C
:101420000020F6E78CCF0008054B064A03F11001B7
:1014300053F8040B8B4242F8040BF9D1704700BFFC
:101440004C1200203C1200200122014B1A70704700
:10145000851200200122014B1A707047841200206F
:1014600002681E4B10B59A42044612D11C4A1D490F
:1014700013781D480133DBB2282B01BF0023137002
:101480001A4A137808BF43F080031370082203F050
:101490007DFD2368B3F1804F0FD101221449154817
:1014A0000B78154CC2541344227803F00F03013A11
:1014B00012F0FF020B7001D0227010BD05222270C5
:1014C0000E4A1478032C02D01278042AF5D1002297
:1014D000C254013303F00F030B70EEE7002C014000
:1014E000861200204C12002018150020060E002045
:1014F0005C1200205D120020660000208C1200208B
:10150000F0B5026883790C46D15C0546A1F1A003D1
:1015100091B0512B00F2D986DFE813F052005C0045
:101520006C00B80007013201AB01C8015301710121
:101530008E010A0250046D048A04A704C404E10465
:101540002902FE041B053805550573059105AF05F5
:10155000D706D706D706D706D706D706CD05440245
:101560006102EB0509062C064A0668068606A406F3
:10157000C206D706D706D706D706D706D706D70698
:10158000D706D706D706D706D706D706D706D70673
:10159000D706D706D706D706D706D706D706D70663
:1015A000D706D706D706D706D706D706D706D70653
:1015B000D706D706D706D706D706D7068602CC03A6
:1015C000A0210222204603F000FA0D21204603F05C
:1015D00044FA08E0A1210D22204603F0F6F9204646
:1015E000C14903F04DFA2046217A11B0BDE8F04020
:1015F00003F033BA0D22A221204603F0E6F9BB4BDB
:10160000BB4DB3F9001020462980C9B203F025FA7A
:101610006978204603F021FAB64B2046B3F9001052
:101620002980C9B203F019FA6978204603F015FA47
:10163000B14B2046B3F900102980C9B203F00DFA6E
:101640006978204603F009FAAC4B2046B3F9001044
:101650002980C9B203F001FA6978204603F0FDF948
:10166000A74B2046B3F900102980C9B203F0F5F961
:101670006978204603F0F1F9A24BB3F900102980F4
:101680002046C9B203F0E9F969789FE79E4E11221E
:10169000A321204603F099F9954D318820462980F1
:1016A000C9B203F0DAF96978204603F0D6F97188F7
:1016B00020462980C9B203F0D0F96978204603F0AA
:1016C000CCF9B18820462980C9B203F0C6F96978FF
:1016D000204603F0C2F9F18820462980C9B203F000
:1016E000BCF96978204603F0B8F931892046298091
:1016F000C9B203F0B2F96978204603F0AEF97189F6
:1017000020462980C9B203F0A8F96978204603F081
:10171000A4F9B18920462980C9B203F09EF96978FD
:10172000204603F09AF9F189A9E70222A421204674
:1017300003F04BF90D21204603F08FF9217A204662
:1017400003F08BF900220121284603F0BEF9684C12
:10175000002201212070284603F0B7F96070B4F927
:1017600000202388002A6949694AB5BF5B4213807B
:101770000B800023B6BF00230B80138011B0F0BD97
:101780000222A521204603F020F90D21204603F076
:1017900064F9217A204603F060F9002201212846ED
:1017A00003F093F9524C002201212070284603F0E7
:1017B0008CF96070B4F900202388002A5549564AF4
:1017C000D3E70222A821204603F0FFF80D2120468E
:1017D00003F043F9217A204603F03FF9002201216A
:1017E000284603F072F9424C00222070012128465D
:1017F00003F06BF960702288484B1A80BEE7022222
:10180000A921204603F0E1F80D21204603F025F937
:10181000217A204603F021F900220121284603F015
:1018200054F9334C002220700121284603F04DF971
:10183000607022883A4BE0E70222AA21204603F09A
:10184000C4F80D21204603F008F9217A204603F060
:1018500004F900220121284603F037F9244C002224
:1018600020700121284603F030F9607022882D4B4A
:10187000C3E70222A621204603F0A7F80D21204647
:1018800003F0EBF8217A204603F0E7F8002201216B
:10189000284603F01AF9164C002220700121284630
:1018A00003F013F9607022881F4BA6E70222A721DC
:1018B000204603F08AF80D21204603F0CEF8217A65
:1018C000204603F0CAF800220121284603F0FDF863
:1018D000074C002220700121284603F0F6F86070C2
:1018E0002288124B89E700BF5CD0000882120020DA
:1018F000080E0020801200207E1200207C120020A2
:101900007A120020781200203C120020000E0020E5
:10191000FE0D0020040E0020020E002044000020D6
:1019200042000020D80B00203C0000203E00002098
:101930000222AB21204603F048F80D21204603F097
:101940008CF8217A204603F088F8002201212846ED
:1019500003F0BBF8304C002220700121284603F030
:10196000B4F86070B4F900202C4B1A6006E702222C
:10197000B221204603F029F80D21204603F06DF82E
:10198000217A204603F069F800220121284603F05D
:101990009CF8214C002220700121284603F095F884
:1019A0006070EBE60222C121204603F00EF80D2103
:1019B000204603F052F8217A204603F04EF8002228
:1019C0000121284603F081F8134C002220700121E8
:1019D000284603F07AF860702288114B0DE7022246
:1019E000C221204602F0F1FF0D21204603F035F818
:1019F000217A204603F031F800220121284603F025
:101A000064F8054C002220700121284603F05DF89F
:101A100060702288034BF0E6080E0020340000209E
:101A2000640000206200002000254F22F0212046A3
:101A300002F0CBFFB94B03AF1B88ADF80C30B84BAD
:101A40001B88ADF80E30B74B1B88ADF81030B64B85
:101A50001B88ADF81230B54B1B88ADF8143037F940
:101A6000026B2046F1B202F0F8FF01352046C6F3C2
:101A7000072102F0F2FF052DF1D1AD4D2046297866
:101A800002F0EBFF6978204602F0E7FFA9782046D4
:101A900002F0E3FFE9780025204602F0DEFFA54BC7
:101AA000ADF830501B8809AFADF82430A24B1B882D
:101AB000ADF82630A14B1B88ADF82830A04B1B8811
:101AC000ADF82A309F4B1B88ADF82C309E4B1B88FD
:101AD000ADF82E3037F9026B2046F1B202F0BDFFAF
:101AE00001352046C6F3072102F0B7FF072DF1D1DB
:101AF0000025964B06AF1B88ADF81830944B1B8819
:101B0000ADF81A30934B1B88ADF81C30924B1B88F4
:101B1000ADF81E30914B1B88ADF82030904B1B88E0
:101B2000ADF8223037F8026B2046F1B202F095FF93
:101B300001352046310A02F090FF062DF2D1002532
:101B4000884B01AF1B88ADF80430874B1B88ADF87C
:101B50000630864B1B88ADF80830854B1B88ADF8E6
:101B60000A3037F8026B2046F1B202F076FF0135F9
:101B70002046310A02F071FF042DF2D17D4B002185
:101B8000B3F90050204602F068FF0021204602F021
:101B900064FFE9B2204602F060FFC5F3072120464A
:101BA00002F05BFF744B754AB3F90060B2F9005064
:101BB0001978204602F051FFC6F30721204602F0B3
:101BC0004CFFE9B2204602F048FFC5F307216C4DF7
:101BD000204602F042FF2978204602F03EFF697855
:101BE000204602F03AFFA978204602F036FFE97855
:101BF000204602F032FF634B634AB3F90060B2F94A
:101C000000501978204602F028FFC6F3072120462D
:101C100002F023FFE9B2204602F01FFFC5F30721BF
:101C20005A4D204602F019FF2978204602F015FF90
:101C30006978574D204602F010FFA978204602F03F
:101C40000CFF69882046090A02F007FFA97920469F
:101C500002F003FFE9882046090A02F0FEFEA97A95
:101C6000204602F0FAFE69894A4D090A204602F030
:101C7000F4FE29882046C9B202F0EFFE2988464DBD
:101C8000C1F30721204602F0E8FE29882046C9B2A8
:101C900002F0E3FE2988414DC1F30721204602F0FE
:101CA000DCFE29882046C9B202F0D7FE2988C1F39C
:101CB00007218BE400261D22F121204602F085FE3B
:101CC000374B09AF1B680993364B1B680A93364B99
:101CD0001B680B93354B1B680C93354B1B680D939E
:101CE000344B1B680E93344B1B680F9357F8045BFF
:101CF0002046E9B202F0B1FEC5F30721204602F00A
:101D0000ACFEC5F30741204602F0A7FE013620468F
:101D1000290E02F0A2FE072EE8D164E44400002060
:101D2000D80B0020420000203C0000203E00002094
:101D3000340000202A00002028000020D60B0020BC
:101D4000D40B002026000020300000201C000020C2
:101D50001600002018000020140000201A000020A7
:101D6000120000203A00002038000020640000200B
:101D700062000020240000202E0000202C00002003
:101D8000FC0B002022000020200000201E0000206C
:101D90003C1200200C0C00200A0C0020080C002033
:101DA000EC0B0020E00B0020E40B0020DC0B0020FB
:101DB000F80B0020BC0B0020480000200222AC21C0
:101DC000204602F002FE0D21204602F046FE217A56
:101DD000204602F042FE00220121284602F075FE54
:101DE000D44C002220700121284602F06EFE607063
:101DF0002288D14B01E50222AD21204602F0E5FD0B
:101E00000D21204602F029FE217A204602F025FE0F
:101E100000220121284602F058FEC64C0022207004
:101E20000121284602F051FE60702288C34BE4E491
:101E30000222AE21204602F0C8FD0D21204602F00C
:101E40000CFE217A204602F008FE002201212846DD
:101E500002F03BFEB74C002220700121284602F020
:101E600034FE60702288B64BC7E40222AF212046C0
:101E700002F0ABFD0D21204602F0EFFD217A204655
:101E800002F0EBFD00220121284602F01EFEA94CC3
:101E9000002220700121284602F017FE607022887F
:101EA000A84BAAE40222B021204602F08EFD0D21AB
:101EB000204602F0D2FD217A204602F0CEFD00221B
:101EC0000121284602F001FE9A4C002220700121D7
:101ED000284602F0FAFD607022889B4B8DE40222B6
:101EE000B121204602F071FD0D21204602F0B5FD22
:101EF000217A204602F0B1FD00220121284602F09D
:101F0000E4FD8C4C002220700121284602F0DDFD0A
:101F1000607022888D4B70E40222B321204602F0CB
:101F200054FD0D21204602F098FD217A204602F052
:101F300094FD00220121284602F0C7FD7D4C0022BD
:101F400020700121284602F0C0FD60702288804B7D
:101F500053E40222B421204602F037FD0D21204631
:101F600002F07BFD217A204602F077FD002201215C
:101F7000284602F0AAFD6F4C00222070012128465D
:101F800002F0A3FD60702288724B36E40222B52174
:101F9000204602F01AFD0D21204602F05EFD217A56
:101FA000204602F05AFD00220121284602F08DFD54
:101FB000604C002220700121284602F086FD6070EE
:101FC0002288654B19E40222B621204602F0FDFC6E
:101FD0000D21204602F041FD217A204602F03DFD10
:101FE00000220121284602F070FD524C0022207090
:101FF0000121284602F069FD60702288574BFFF7E7
:10200000FCBB0222B721204602F0DFFC0D21204656
:1020100002F023FD217A204602F01FFD002201215B
:10202000284602F052FD434C002220700121284630
:1020300002F04BFD60702288494BFFF7DEBB0222A5
:10204000B821204602F0C1FC0D21204602F005FD1A
:10205000217A204602F001FD00220121284602F0EB
:1020600034FD344C002220700121284602F02DFD61
:10207000607022883B4BFFF7C0BB0222B92120468B
:1020800002F0A3FC0D21204602F0E7FC217A204655
:1020900002F0E3FC00220121284602F016FD254C47
:1020A000002220700121284602F00FFD6070228876
:1020B0002D4BFFF7A2BB0222C021204602F085FC77
:1020C0000D21204602F0C9FC217A204602F0C5FC11
:1020D00000220121284602F0F8FC164C0022207054
:1020E0000121284602F0F1FC607022881F4BFFF7A7
:1020F00084BB0222C321204602F067FC0D2120464A
:1021000002F0ABFC217A204602F0A7FC002201215C
:10211000284602F0DAFC074C0022207001212846F4
:1021200002F0D3FC60702288114BFFF766BB0222DD
:10213000C4211EE4080E00202A00002028000020F0
:10214000D60B0020D40B00202600002030000020F9
:102150001C000020160000201800002014000020A1
:102160001A000020120000203A0000203800002051
:10217000240000200222C521204602F026FC0D2169
:10218000204602F06AFC217A204602F066FC00221A
:102190000121284602F099FC4F4C002220700121B9
:1021A000284602F092FC607022884C4BFFF725BB5A
:1021B0000222C621204602F008FC0D21204602F032
:1021C0004CFC217A204602F048FC002201212846DE
:1021D00002F07BFC404C002220700121284602F0D6
:1021E00074FC607022883E4BFFF707BB0222C721B8
:1021F000204602F0EAFB0D21204602F02EFC217A57
:10220000204602F02AFC00220121284602F05DFC53
:10221000314C002220700121284602F056FC6070EB
:102220002288304BFFF7E9BA0222C821204602F08B
:10223000CCFB0D21204602F010FC217A204602F052
:102240000CFC00220121284602F03FFC224C002217
:1022500020700121284602F038FC60702288224B51
:10226000FFF7CBBA0222C921204602F0AEFB0D21B6
:10227000204602F0F2FB217A204602F0EEFB00221B
:102280000121284602F021FC134C0022207001217C
:10229000284602F01AFC60702288144BFFF7ADBA92
:1022A000134D04222B88CA21013320462B8002F0D3
:1022B0008CFB0D21204602F0D0FB29882046090A1C
:1022C00002F0CBFB2978FFF781B90222204602F009
:1022D0007CFBFF21FFF77AB9080E00202E000020BA
:1022E0002C00002022000020200000201E000020E2
:1022F000B00B0020F0B516464379027905469A42A4
:102300000C46C3B01DD002F0EDFBD0B1012E04BFCE
:102310000022154B2146284608BF1A70FFF7F0F837
:102320000022617A02A8D3B299420CD8C6B1FEF756
:102330003FF94FF4807300930022637A02A9FEF7FD
:10234000A9F943B0F0BDA77925687B1CDBB2A37166
:10235000ED5D013200F8015BE5792B40A371E2E706
:1023600002A808F037F9ECE76000002010B50D4B2B
:102370000D4C1A780D4B0E4853F822100122237889
:1023800002FA03F38B4308BF1A464FF4005103F0DF
:1023900081FA23780133DBB2142B28BF002323708A
:1023A00010BD00BF87120020AE0B00206C00002083
:1023B000001001402DE9F0418C4B8D4C1B788AB008
:1023C000032B5FFA83F840F02B810025012001F0F8
:1023D0008DFE4023202229461E20009501F0D6FFC5
:1023E0001623802214212846009501F0CFFF4023B8
:1023F000522229465020009501F0C8FF7D4E294603
:10240000282001F077FF7C4902A808F075FB96E8C8
:102410000E00009502A801F057FF2946552001F053
:1024200069FF764902A808F067FB96E80E00009560
:1024300002A801F049FF1921282001F05BFF704B31
:102440002021B3F900306F4A02A808F0C1FA94E8DD
:102450000E00009502A801F037FF1921552001F068
:1024600049FF694B2021B3F90030664A02A808F001
:10247000AFFA94E80E00009502A801F025FF25218F
:10248000282001F037FF614B2021B3F900305D4A6D
:1024900002A808F09DFA94E80E00009502A801F049
:1024A00013FF2521552001F025FF594B2021B3F9B9
:1024B0000030544A02A808F08BFA94E80E00009508
:1024C00002A801F001FF3121282001F013FF514B38
:1024D0002021B3F900304B4A02A808F079FA94E8B9
:1024E0000E00009502A81E2601F0EEFE31215520B7
:1024F00001F000FF484B2021B3F90030414A02A807
:1025000008F066FA94E80E0040F6FA74434F00951E
:1025100002A801F0D9FE3B8842467343B3FBF4F3B3
:10252000C3F13C033C214046DBB2009501F0E8FEDC
:102530007B8806227343B3FBF4F3C3F13C031046DC
:102540003C21DBB2009501F0DBFEBB88092273431E
:10255000B3FBF4F3C3F13C0310463C21DBB200951E
:1025600001F0CEFEFB880C227343B3FBF4F3C3F1FE
:102570003C0310463C21DBB2009501F0C1FE3B89D3
:102580000F227343B3FBF4F3C3F13C0310463C2129
:10259000DBB2009501F0B4FE7B8912227343B3FBDA
:1025A000F4F3C3F13C0310463C21DBB2009501F08B
:1025B000A7FEBB8915227343B3FBF4F3C3F13C03BD
:1025C00010463C21DBB2009501F09AFE1822FB89EF
:1025D0003C217343B3FBF4F31046C3F13C03009575
:1025E000DBB201F08DFE0AB0BDE8F0818C12002054
:1025F000B8BA0008ACBA000870B5000874B5000895
:102600008212002078B500087C1200208012002081
:102610007A1200207E120020781200203C12002046
:10262000002001F063FD02210125084601F062FE51
:1026300094E80E004548009501F046FE0221242052
:1026400001F058FE424B20211B68424A02A808F0C4
:10265000BFF994E80E00009502A801F035FE1121A3
:10266000022001F047FE94E80E003B48009501F07F
:102670002BFE1121242001F03DFE0522374B2021A5
:102680001B6802A803EB430393FBF2F3344A08F000
:102690009FF994E80E00009502A801F015FE202194
:1026A000022001F027FE94E80E002E48009501F06C
:1026B0000BFE2021242001F01DFE64212A4E02A8D9
:1026C000326892FBF1F301FB1322002AB8BF524299
:1026D00020210092254A08F07BF994E80E0000952D
:1026E00002A801F0F1FD2F21022001F003FE94E881
:1026F0000E001F48009501F0E7FD24202F2101F076
:10270000F9FD42F226323368009503F58C531333FA
:10271000934298BF174894E80E0088BF164801F00E
:10272000D3FD01240E237F2219460020009401F0DE
:10273000E7FD1D237F2219460020009401F0E0FDF3
:102740002C237F221946002000944AE77BB500081D
:102750007412002080B5000889B5000870120020AE
:102760008EB5000898B50008F80B00209DB500084C
:10277000A7B50008ACB50008B6B5000837B53F4BA3
:102780003F4C1A782AB11A78012A02D01B78022B02
:1027900016D12378013B012B12D800232370394A2C
:1027A000394B11781B788B4208D038484B1C415C60
:1027B00003F00F0391B103212170137003B030BDFA
:1027C0002378032B57D801A252F823F09F27000843
:1027D000E1270008EB270008052800080121EBE7A6
:1027E000FFF7E8FD02232370E8E7294804F03CFCEA
:1027F0002028E3D101F0A0FC0028DFD00023254AE7
:102800001370F0E7224804F032FC234D10B14FF46E
:102810007A732B601E4804F027FC202816D101F0A3
:10282000ABFB98B11D4B1E4A01931E4B1E490093F2
:102830001E481F4B01F0E8FB00231E4A1E4913707F
:102840000A7842F008020A702B60CCE72B6801334B
:10285000B3F5FA7F2B60B1D90D4803F0A1FA01203E
:1028600002F01AFA0A4803F0F3F901F057FB01F0FD
:1028700075FB0023E8E70023B5E700BF8C120020BA
:10288000AD0B0020AC0B00205C1200205D1200207C
:102890008014002085120020A80B00207812002050
:1028A0007E1200207A120020801200208212002066
:1028B0007C12002084120020060E0020074B084ADC
:1028C0001B6812885A63074A1288DA63064A12881C
:1028D0009A63064A12881A64704700BF20130020CA
:1028E000040E0020000E0020020E0020FE0D00202D
:1028F00013B50B4B044600934FF4AA71094B0A4AD7
:102900000A4808F065F84FF4AA73002200932046A5
:1029100040F243130549FDF7BDFE02B010BD00BFF4
:1029200001B60008BCB50008FCB50008110C002079
:1029300013B50A4B044600934FF4AA71084B094A99
:10294000094808F045F84FF4AA7300220093204686
:10295000B3230549FDF79EFE02B010BD06B700087F
:10296000BCB50008FCB50008110C00202DE9F843A7
:1029700000241F460C7014701C7047F23A53089DD7
:1029800089462B8032490646904608F072F858B1C5
:10299000043010F8013FE2B213F0DF0F01D0262B14
:1029A00036D1002309F8023030462A4908F061F890
:1029B00060B10023043010F8012FD9B212F0DF0FFC
:1029C00001D0262A2ED1002308F8013030462249B2
:1029D00008F04FF858B10023C21C12F8011FD8B2FA
:1029E00011F0DF0F01D0262926D100233B543046B9
:1029F0001A4908F03EF848B10023053010F8012FBD
:102A0000303AD1B209291DD903B12B80BDE8F88332
:102A10002B2B08BF202309F8043001343F2CB8D1F8
:102A20002246BEE72B2A08BF202208F803200133E4
:102A30003F2BC0D11946C6E7F95401330F2BCCD137
:102A40001846D2E703EB830302EB430293B2D5E7C8
:102A50007BB7000881B7000887B700088CB700086B
:102A60002DE9F043344BA9B01E785EB100221A70F4
:102A700047F23152314B3248198829B0BDE8F04352
:102A8000FDF79CBDDFF8BC9099F80030002B42D0D8
:102A90002D4F3B78FF2B3ED1FDF78AFD2B4C804616
:102AA0002B49204607F0E5FF0546002836D0402296
:102AB000314608A807F0C2FF4022314618A807F0A7
:102AC000BDFF102231460DEB020007F0B7FF0DF1FC
:102AD0000E030093204604AB18AA08A9FFF746FF8F
:102AE0009DF8103033B1164B0F22184604A907F099
:102AF000ADFFC673BDF80E300BB1104A13804046CF
:102B0000FFF716FF002318A908A889F800303B70CA
:102B10002370FDF71FFD29B0BDE8F08320460D4965
:102B200007F0A7FF28B14046FFF7E2FE3D70257091
:102B3000F1E738702070EEE7100C00204E00002006
:102B400050000020650D0020660D0020670D00205C
:102B500093B700089DB7000802780346032A1CD8E3
:102B6000DFE802F00F021407427842B903221A701C
:102B700005E0417801220029F9D10170827000201E
:102B800070474278012AFAD10222F0E74078002209
:102B90000128ECD118709A7070470122E7E7000015
:102BA00038B58378044613B183880A339BB24FF457
:102BB00000411248A38002F067FEA578104A11492F
:102BC00085B160B113780133DBB2072B137003D9E1
:102BD000012363700023137000230B700BE06070FF
:102BE0001070F9E70B781570042B05D9003818BF61
:102BF00001200D70607038BD0133EEE7000C01401C
:102C0000A50B0020A40B002073B5424E3378DB09DE
:102C10004DD03378404C23F08003337023783F4D00
:102C2000013B23702B78013B2B70FDF7FFFD3C48E7
:102C3000FFF7B6FF3B4B1A8892B242B11A8892B2A4
:102C4000092A91BF00221A880A3A92B21A80364B9A
:102C50001B7823B135490A885AB3013A0A803448AF
:102C600090F84230222B09D0036832491A685B6819
:102C70002023012280F8423006F0DFF92B782BB9AF
:102C800002232B70337843F040033370257875B9F5
:102C90000A232370337843F020033370FFF766FB79
:102CA000254A13780133DBB2092B17D8137002B011
:102CB00070BD224803780133DBB2032B94BF1A4660
:102CC0001346027040F6B8320A800C214B431C4A6E
:102CD000D1184968D058FDF73DFCC0E7194C157074
:102CE0002378042B9CBF01332370174B1D78002DD4
:102CF000DDD1FDF7A9FC0728D9D12378042BD6D93B
:102D00004FF480732A460093284609230F49FDF7A4
:102D1000C1FCCCE7060E0020680000206700002000
:102D2000E80D00208A1200200E0C00204C0000202C
:102D300090120020FC0D0020FD0D00200F0C002043
:102D40002CD0000860000020650D00200900002044
:102D50002DE9F041847805462CB9404E33889BB26A
:102D60001BB1AB88A3BBBDE8F081DFF8F48098F815
:102D70000030002BF5D04CF251373A4804F074F98A
:102D8000202801D0013FF8D1002001F0AFF901F077
:102D9000B9F9002001F02EFB98F80030022BDAB2CE
:102DA000314B0ED0032A10D0012A0AD100221A700A
:102DB0002E4B1C70002388F80030AB78002BD0D04D
:102DC000D1E7012201241A70F2E702241C70EFE718
:102DD00040F6B73293421CD8A3F5FA62B2F57A7F77
:102DE0001AD204224CF251341F4B1A701D4804F0C1
:102DF0003BF9202801D0013CF8D101F0DFF9012096
:102E000001F0F8FA0422194B1A700023144A1370C7
:102E100033800023AB80A6E7A3F57A73B3F57A7FFE
:102E200013D203224CF251340F4B1A700D4804F0A8
:102E30001BF9202801D0013CF8D101F0BFF9012095
:102E400001F0D8FA0322094BDEE7054A1378013373
:102E5000DBB213704FF4C873DAE700BF8A120020A8
:102E600088120020801400208C120020871200207D
:102E700038B50C46054601880948FEF7ADFA2080B2
:102E800069880848FEF7A8FA6080A9880648FEF716
:102E9000A3FAA080E9880548FEF79EFAE08038BDD5
:102EA0000CD00008ECCF0008CCCF0008ACCF000855
:102EB0002DE9F04FB14A8DB013781B0740F15384D0
:102EC000137823F008031370AD4BAE4A59681368AA
:102ED000002B00F0B1804820CB1AB3FBF0FB44F686
:102EE00020631160A84AABF57A71914288BF9B4676
:102EF0004FF47A73BBFBF3F3A44A08A81360A44A07
:102F0000A44CD18853885289ADF820300B44ADF8D9
:102F1000242013440322B3FBF2F3ADF822100AA9D4
:102F2000ADF82630FFF7A4FFBDF928109A4ABDF886
:102F300028801180BDF92A10984ABDF82AE0118036
:102F4000BDF92C10964ABDF82C30118008EB0E020A
:102F50001A44012AB8BF0122924993480A60934952
:102F60002268B1F9006092490768B1F90010079131
:102F700052EA070163D04FF05F0C642506EB86012F
:102F80000CFB0211079A91FBF5F102EB82020CFB9C
:102F9000072292FBF5F2026002F57A62B2F5FA5F5F
:102FA00088BF2322216088BF5143824C824A88BF58
:102FB00021606FF0C701B2F90020804851430192AF
:102FC000832291FBF2F17E4A246811600268114469
:102FD000312202FB01447B4A944233DC7A4A944218
:102FE00032DB322294FBF2F46422046094FBF2F4AC
:102FF000764ABEF5FA7F1460754A4FF0000C1168EE
:10300000D4BF00220122B8F5FA7FC8BF0132714F48
:10301000714D97F800A0B3F5FA7FC8BF01326F4831
:10302000C5F800C0BAF1030F00F2AA81DFE81AF078
:103030000E001B006A01A20144F6206B4FE73146E7
:10304000079AA8E7664CCFE7664CCDE7BEF5FA7F56
:10305000A0F800C002DD01233B700BE0624BB3F926
:1030600000305B4284E1032A4FF0000E6ED13A70CB
:10307000A0F800E05D4B1B7803F0FF0203B92A6063
:10308000DFF86C91A1EB0408D9F80010594B5A48AD
:10309000A8EB01015A46C3F8008081FB0001002320
:1030A000FDF75EF8554B564908F19502B2F5957F4C
:1030B00018600B6800F269814FF47A7C08FB0BF210
:1030C00092FBFCF213444F4A9342B8BF134649F6B1
:1030D00040429342A8BF13464B4A0B60B2F900200E
:1030E0004A4953434FF47A7293FBF2F3484AC9F8C2
:1030F0000080B2F9002008FB0233464AB2F90020F2
:1031000000FB023242F2107392FBF3F30B6039784A
:1031100011F0FD0F00F0628142F20F718A4200F35C
:1031200061823D498A4280F26E823C4A2D6817884E
:103130003B4ADF1BB2F90020BF1A3A4A2F441288DB
:103140009B1A394AB2F900209B1A49E2DFF8DCC029
:10315000002A40F08380BCF8003001339BB2052B7D
:10316000ACF8003068D9324BACF800201A70314B03
:1031700002801A7002233B707CE700BF060E00201D
:10318000001000E0A00B0020B882010048000020E1
:103190004C120020F40B00200C0C00200A0C002024
:1031A000080C0020D00B0020F00B00208212002021
:1031B0007E120020040C00207A120020FC0B00205C
:1031C000000C002071A5AE028F5A51FDF80B0020B3
:1031D00034000020B40B0020BC0B00209E0B00200C
:1031E000A0BB0D006044F2FF260000208C120020DE
:1031F000E80B0020EC0B002040420F00E40B002005
:10320000E00B0020C063FFFFD80B0020DC0B002088
:103210004400002042000020F1D8FFFF3E000020C3
:10322000D60B00203C000020D40B00209C0B00207B
:10323000B30B0020B20B0020564B574A1B6813609B
:10324000564A12682A60534A13600388002B50D0F4
:10325000013B0380524BB3F900100BE74FF47A7136
:103260004B43504AACF800E002FB08334E4ADFF80B
:103270003CC1126893FBF2F30A2293FBF2F3464A35
:1032800083EAE37E13604A4AAEEBE37EC2F800E0D5
:10329000484AB2F900205A43CCF80020DFF818C1A0
:1032A000BCF900C003FB0CFC0EFB0CFC9CFBF1F119
:1032B000DFF808E1DFF808C1CCF80010BEF900C063
:1032C000BCF1000F03D14FF0010CAEF800C00A446E
:1032D00092FBFCF23B492A60B1F900108A4202DD00
:1032E0000A46296002E049428A42F9DB2B490A601A
:1032F000A9E7354BB3F900309C4201DA0C23A8E76B
:10330000324BA8E7BEF5FA7FA0F800C03FF7A3AEA6
:10331000204B2F4A186892F800C02E4BB3F90030AA
:10332000BCF1000F10D100282B48D8BF5B422B60A6
:1033300003780133DBB2222B01D803709AE6002315
:1033400003700123137095E6BCF1010F0DD1002825
:103350002148C8BF5B422B6003780133DBB2452BA9
:10336000EBD9002303700223ECE700283FF779AE86
:103370002B607FE6032AA0F800C07FF46CAE79E6EC
:10338000A0F800C087F800C074E60A22DB0093FBB7
:10339000F2F3A1E6B80B0020CC0B0020980B002024
:1033A0002C00002018FCFFFFD00B0020C40B0020D5
:1033B000C80B00202A000020280000202400002044
:1033C000C00B00201E0000202E0000203000002036
:1033D000B20B002026000020B30B00202D685F19DF
:1033E000002FA3EB050540F3E980B94BB94A1B88D0
:1033F0003B44B2F900701F44002D40F3E980B64B06
:10340000B64A1B882B44B2F900501D44B448B54B52
:10341000B0F90000DFF8D0C20590B4481A68B44B88
:10342000B0F90000DCF800101B68069041EA0200C9
:10343000184300F0EB804FF05A080A2008FB01FE09
:10344000059908FB02F200FB01EE64219EFBF1FEF0
:1034500008FB03F8CDF810E0DDF804E0069B00FB64
:103460000E2200FB038892FBF1F298FBF1F8039225
:10347000049B039ACCF800309A4B1A609C4BC3F81B
:1034800000809C4B1B68002B00F0C780334403EB8B
:10349000D3735B100293974B029AE1171A604FF4B3
:1034A0008F736422634393FBF2F984FB040341436B
:1034B000A0FB040C04FB031181A3D3E900236144A6
:1034C000FCF74EFE8C4BA9EB0000B3F800908B4A42
:1034D000B9F1950FDFF828A200F2AC80B9F1270FFF
:1034E00000F29D808749079C0E60874964200C602C
:1034F0007D49059C0C607B49019C0C607C49069CC5
:103500000C602324744381490C6094FBF0F48049DF
:103510000C6078490E6009F101091FFA89F9B9F1C7
:10352000960FA3F8009006D164217A4B1B6893FB99
:10353000F1F379490B8000231360CAF800306C4B1B
:103540001A68764B1A6042F2283304F58C5414340E
:103550009C4205D900252F46714BCAF800501D60CA
:10356000704BB9F1950F1B8800F2A68000252F46FD
:103570006B4A15605A429742B8BF17469D42A8BF92
:103580001D46694B95421878B8BF15466749684A89
:10359000002800F0D5801878012800F0D1801B7831
:1035A000022B00F0CD8000252F465D4BCAF800505D
:1035B0001D6000237F420F801380C7E03FF41CAFE3
:1035C000434B444A1B88FB1AB2F90070DF1B13E718
:1035D0003FF41CAF404B414A1B88EB1AB2F9005034
:1035E0005D1B13E7534A2D6817883A4A1F44B2F906
:1035F00000201744504A7F1B12881344374AB2F9FF
:103600000020134401E700252F46FFE6059BDDF867
:1036100018800493019B03932AE702963BE7B9F1D4
:10362000310F7FF678AF3B4E0299081A3168084493
:10363000306070E7394B029E1968C3F80080364B42
:10364000A8EB0101B3F9003008FB08F8F31A1B1AC4
:10365000039800FB00883948B8FBF0F8A3EB080C8E
:10366000DDE903365E4396FBF0F00CEB0003062029
:1036700091FBF0F10B441360136840F6262203F22D
:103680001351914298BF002383FB0B31D81841EBB3
:10369000010CC01841EB0C010BA3D3E90023FCF78C
:1036A0005FFD6223DAF800605E43642396FBF3F665
:1036B0000644CAF8006046E79F42A8BF1F4659E784
:1036C000420A1B0400000000404B4C0000000000B8
:1036D0003A000020D60B002038000020D40B002038
:1036E0007C120020900B0020940B00207812002008
:1036F0008C0B0020880B0020840B0020701200200F
:1037000074120020F40B0020F00B0020FC0B0020B2
:10371000F80B00207C0B0020B60B0020800B002053
:10372000E00B0020400000208C120020000E002042
:10373000FE0D00203E0000203C0000202851220009
:10374000002F7FF736AF002317800B80ABB2002D20
:10375000064A0749D5BF5B4213800B800023D6BFC2
:1037600000230B8013800DB0BDE8F08F020E002007
:10377000040E002010B594B0142200210CA807F00C
:103780005DF9142200210DEB020007F057F9102219
:10379000002101A807F052F902244FF480330122DE
:1037A000CDE91143CDE90A234FF4E0130AA80E92A4
:1037B000139304F0D7FA08B172B6FEE70F23CDE9F0
:1037C00005344FF480630790CDE90830214605A801
:1037D00004F08AFC08B172B6FEE7122301934FF49D
:1037E0000043CDE9033001A804F03AFD08B172B6F8
:1037F000FEE714B010BD000080B5A74D98B001F0F1
:1038000027FAFFF7B7FF1022002111A807F016F9D9
:10381000AB69002243F01003AB61AB694FF4005178
:1038200003F010030293029BAB699C4843F0200312
:10383000AB61AB69002403F020030393039BAB69E6
:10384000012743F00403AB61AB69022603F00403D4
:103850000493049BAB6943F00803AB61AB6903F0CD
:1038600008030593059B02F015F800224FF4007140
:103870008B4802F00FF84FF40053884811A9CDE9A6
:103880001137CDE9134601F0BDFE4FF400438448E3
:1038900011A9CDE91134139401F0B4FE4FF4007373
:1038A0007F4811A9CDE91137CDE9134601F0AAFEF1
:1038B0006B6922463B436B616B6921463B400B20A1
:1038C0000193019B01F0A6FC0B2001F0D3FC2246E2
:1038D00021460E2001F09EFC0E2001F0CBFC22467A
:1038E00021460F2001F096FC0F2001F0C3FC6D4A29
:1038F0006D4B082513604FF4807393604FF4602381
:103900001046CDE91144139414731475D3615460B7
:10391000156101F0EDFB08B172B6FEE70624CDE9B2
:10392000110711A95F48139401F076FA08B172B635
:10393000FEE75C4811A9CDE9117601F06DFA08B1F6
:1039400072B6FEE711960326564811A9129601F0A9
:1039500063FA08B172B6FEE711960426514811A920
:10396000129601F059FA08B172B6FEE711960526D3
:103970004C4811A9129601F04FFA08B172B6FEE751
:10398000484811A9CDE9116401F046FA08B172B6B0
:10399000FEE711940724434811A9129401F03CFA60
:1039A00008B172B6FEE73F4811A9CDE9114501F013
:1039B00033FA044608B172B6FEE70CAE0146102297
:1039C000304607F03BF81422214611A807F036F8DC
:1039D00047233648DFF8D8C008AFC0E900C3F92351
:1039E00008947C60C0E90334C0E90544846004F0B5
:1039F0001BFE08B172B6FEE74FF4805831462B48E3
:103A0000CDF8308004F0F6FE08B172B6FEE7CDE9DD
:103A1000110011A9254804F0E4FF08B172B6FEE7D1
:103A2000CDE908003946214805F060F8054608B19F
:103A300072B6FEE701461022304606F0FFFF142260
:103A4000294611A806F0FAFF4FF047094FF08043CE
:103A5000184C0895C4E9003944F61F6320467D6080
:103A6000C4E90335A560A56104F0DEFD08B172B6B6
:103A7000FEE731462046CDF8308004F0BBFE08B1A9
:103A800072B6FEE7CDE9110011A9204604F0A9FFA6
:103A900090B172B6FEE700BF001002400010014076
:103AA000000C01401815002000240140B013002034
:103AB000002C014068130020CDE90800394620465B
:103AC00005F014F8044608B172B6FEE7014610226C
:103AD000384606F0B3FF14222146304606F0AEFF0A
:103AE0001C22214611A85B4D0694079406F0A6FF00
:103AF000594B2846C5E9003942F20F730DF1180AF7
:103B0000C5E90334AC60AC6104F08EFD08B172B657
:103B1000FEE739462846CDF8208004F06BFE08B158
:103B200072B6FEE7284604F0ABFD08B172B6FEE7B8
:103B3000002331464748CDE90C3304F052FF08B169
:103B400072B6FEE7CDE906005146424804F0CEFFCA
:103B5000024608B172B6FEE760231390CDE911303A
:103B6000159011A93B4804F0E3FD08B172B6FEE7D9
:103B70000422384811A904F0DBFD08B172B6FEE753
:103B80000822344811A904F0D3FD08B172B6FEE74B
:103B90000C22304811A904F0CBFD044608B172B6DE
:103BA000FEE72C4800F022FE4FF4E1332B482C4D69
:103BB000C0E90244C0E900530C230461C0E90534A4
:103BC000C46105F02BF8044608B172B6FEE706F0B2
:103BD0008DFC24482449254BC0E90244C0E9001368
:103BE0004FF48043C0E90644C0E90434046202F0A3
:103BF0002FF8044608B172B6FEE71022014611A85C
:103C000006F01CFF47231A4D1A4A0C94C5E90023FD
:103C100042F20F7328467460C5E90334AC60AC61AE
:103C200004F002FD08B172B6FEE74FF48053284657
:103C300011A9119304F0DEFD08B172B6FEE700236E
:103C400031460B48CDE90C3304F050FF044698B1DF
:103C500072B6FEE7201300200004004090120020FE
:103C6000003801408014002000580040801A0600EF
:103C7000D812002000080040524806F0C1FC52480B
:103C800004F0DCFB514804F0D9FB514804F0D6FBAA
:103C900021464F4804F028FF04214D4804F024FF3A
:103CA00008214B4804F020FF0C21494804F01CFF78
:103CB0004FF400510122474801F0ECFD464800F066
:103CC0000FFA464800F006FA454800F0FDF900F00A
:103CD0009DFB204600F08EFB424800F0F5F842487C
:103CE00000F0F8F8414800F0FBF800F017F9404AFE
:103CF000404B10461360404B404D5360404B936027
:103D0000FCF75CFD3F48FDF77DFA3F48FDF774FA8C
:103D100001223E493E4805F090F940F6B8323D4B4D
:103D20003D491C703D4B3E481C703E4B1A800122A1
:103D30003D4B1A70FCF70EFC3C4B3D4A3D493E485A
:103D400000F02FFF3D4B3E4A3E493F4800F029FF1F
:103D50003E4B3F4A1C703F4BAC701C803E4BAC80CE
:103D60001C803E4B1C803E4B1C8040F201232B806C
:103D7000D2F8FC3043F08073C2F8FC30394B5C6001
:103D80001A6842F001021A60FEF73EFFFCF782FD5E
:103D9000FEF766FE002227492748FEF7ABFA01220C
:103DA00028492948FEF7A6FAFEF788FDFEF7E6FC4B
:103DB000FFF77EF82846FEF7CFFE2846FEF7C8FF3D
:103DC000E2E700BF11120008B013002068130020C2
:103DD000201300200010014085120020511200081D
:103DE000791200088412002075120008951200084C
:103DF000F00D00203D120008B1120008E80D00206F
:103E0000E5120008D112000851130008FC0D002033
:103E100090120020650D0020A3B700080F0C0020B1
:103E2000B6B700084C0000200E0C00200C1100203A
:103E30000C10002030120020241200200C0F002053
:103E40000C0E0020181200200C120020060E00207C
:103E500000ED00E0040E0020000E0020020E002005
:103E6000FE0D0020001000E00268084B10B59A42D9
:103E70000AD1074C2078FCF7F9FB2146BDE8104039
:103E80000122044805F0D9B810BD00BF0038014038
:103E9000FC0D0020901200200368074A934209D1CC
:103EA0001A685B682023012280F8423003490448E5
:103EB00005F0C3B8704700BF00380140FC0D00207A
:103EC0009012002072B6FEE7014B1860704700BFE9
:103ED00078150020014B1860704700BF7415002052
:103EE000014B1860704700BF70150020044A10B4E1
:103EF00014680B46A44601460122D02010BC60473E
:103F0000741500201346044A10B41468CAB2A446BB
:103F1000014610BCD02060477015002013B5002466
:103F20000DF107006B218DF80740FFF7DFFF042339
:103F30000DF107001A218DF80730FFF7D7FF0DF1BB
:103F400007001C218DF80740FFF7D0FF1B210DF162
:103F50000700FFF7CBFF02B010BD00000122044BA9
:103F60001A70044B1B680BB100221A70704700BF17
:103F7000800000207815002008B51A4B19681A4BEC
:103F800008781A7818B9012A23D0002008BD00202B
:103F9000012A08701DD0022AF7D101201870134B96
:103FA00013491A88D2BA0A605A881249D2BA0A60EA
:103FB0009A881149D2BA0A601A891049D2BA0A609D
:103FC0005A890F49D2BA9B890A600E4ADBBA13603C
:103FD000DCE702220E211A7004483B22FFF792FF11
:103FE000D3E700BF7815002080000020481500208E
:103FF0006C15002068150020641500206015002055
:104000005C1500205815002070B5DDE9045410B18E
:104010000B4E3668068011B10A480068088012B15C
:1040200009490968118013B1084A12681A8015B14C
:10403000074B1B682B8014B1064B1B68238070BD97
:104040006C15002068150020641500206015002004
:104050005C1500205815002013B5064B8DF807009D
:104060001C680122002378200DF10701A04702B04F
:1040700010BD00BF8819002013B5064B8DF807004E
:104080001C680122002378200DF10701A04702B02F
:1040900010BD00BF84190020044B10B41C68CAB2C4
:1040A000A44601464023782010BC604788190020B0
:1040B000044B10B41C68CAB2A446014640237820C1
:1040C00010BC604784190020014B1860704700BF86
:1040D00084190020014B1860704700BF8819002028
:1040E000014B1860704700BF8C19002000284FF466
:1040F000806214BFFF210021014806F09FBC00BF71
:104100008215002038B5B0240A4D2046FFF7A4FFE1
:104110000020FFF7A1FF01341020FFF79DFFE4B25C
:1041200028468021FFF7B8FFB82C05F18005ECD1B7
:1041300038BD00BF8215002038B51C4B1C4C1A68D6
:104140002378117819B9012B0AD0002038BD00213D
:10415000013B1170032BF8D8DFE803F0020B1015B8
:10416000144B18785038C0B2FFF786FF0223237033
:10417000EBE70020FFF780FF0323F8E71020FFF7AD
:104180007BFF0423F3E70B4D0B4B2878802103EBD7
:10419000C010FFF78DFF01202B7820700133DBB2B8
:1041A000072B2B70D1D900232B70CFE78C1900205F
:1041B0008100002082190020821500200022054B7A
:1041C0001A700122044B1A70044B1B6803B11A7059
:1041D000704700BF82190020810000208C19002048
:1041E000030630B510D43F290ED80124CB08074D63
:1041F00000EBC3102B5C01F0070104FA01F1A242AD
:104200000CBF0B438B432B5430BD00BF82150020E5
:104210002DE9F04F044689B008A800E90E009DF88A
:104220004830A4F120050293EBB25E2B47D8079BE0
:1042300023B3234413F8206C224AB2F8009009EB10
:104240000603802B3BDC53889DF815B0019303EBEC
:104250000B02402A33DC029B4FF00008B3FA83FACA
:104260000BFB05F54FEA5A1A6D00C34509D8154BEB
:104270004E441E80204609B0BDE8F08F9DF81460C2
:10428000DAE70027069A535B0493019B08EB0302CD
:10429000D3B20393BE4203D808F101080235E4E724
:1042A000049B07EB090003FA07F2130454BF5246BC
:1042B000029A0399C0B2FFF793FF0137EAE700249F
:1042C000D8E700BF7C15002070B586B003AC84E849
:1042D0000E009DF82860451E15F8010F40B10096AC
:1042E00094E80E00FFF794FF034628788342F3D04A
:1042F00006B070BD014B1880598070477C150020B6
:104300002DE9F74F9046A8EB0009A3EB010AB9F19C
:10431000000F1E46B8BFC9F10009BAF1000FB8BFBF
:10432000CAF1000A804594BF4FF0FF3301230546D0
:104330000C468E4294BF4FF0FF3B4FF0010B4046BE
:1043400031469DF830200093A9EB0A07FFF748FF9C
:10435000CAF10003454504D1B44202D103B0BDE81F
:10436000F08F214628460193FFF73AFF019B790021
:10437000B3EB470FBFBF0098A7EB0A072D18EDB2AC
:104380008945C2BF5C444F44E4B2E3E72DE9F04104
:104390001446A042804628BFA046A042064638BF29
:1043A000264699420C4628BF1C46994238BF1946FA
:1043B0000F469DF81820BC4201D83F2C01D9BDE81A
:1043C000F081454607E02B0607D428462146FFF733
:1043D00007FF0135EDB2B542F5D90134E4B2EAE7A1
:1043E00010B504468120FFF737FE2046BDE8104097
:1043F000FFF732BE034628B10123AF20024A5371B2
:10440000FFF72ABEAE20F9E77C15002008B564202E
:1044100000F042FC0020FFF7EDFF2020FFF71CFE1C
:104420000020FFF719FEB020FFF716FEC820FFF7A7
:1044300013FE0020FFF710FE1020FFF70DFE4020B6
:10444000FFF70AFEFF20FFF7CBFFA120FFF704FED6
:10445000A620FFF701FEA820FFF7FEFD3F20FFF793
:10446000FBFDA420FFF7F8FDD320FFF7F5FD0020AA
:10447000FFF7F2FDD520FFF7EFFDF020FFF7ECFD91
:10448000D920FFF7E9FD2220FFF7E6FDDA20FFF74C
:10449000E3FD1220FFF7E0FDDB20FFF7DDFD20202C
:1044A000FFF7DAFD8D20FFF7D7FD1420FFF7D4FDCD
:1044B0000120FFF79FFF0020FFF718FEFFF722FE05
:1044C0000022034B1A805A8001221A7108BD00BFD6
:1044D0007C1500200E4B82B09A6942F001029A616D
:1044E0009A6902F001020092009ADA6942F0805261
:1044F000DA61DB69074A03F080530193019B53683B
:1045000023F0E06343F08063536002B0704700BF64
:10451000001002400000014030B5054687B010226F
:10452000002102A806F08AFA2A68204B9A423BD161
:1045300003F56C439A691E4842F400729A619A69C5
:1045400002A902F400720092009A9A69194C42F092
:1045500004029A619B69FF2203F004030193019B0B
:104560000323CDE9022301F04DF880204FF480723F
:104570000023C4E903024FF480620F492046C4E9D6
:104580000013C4E90523A360E36100F0A7FE08B1AE
:10459000FFF798FC002212202C621146656200F0A1
:1045A00039FE122000F066FE07B030BD0024014045
:1045B00000080140D41400200800024030B5054630
:1045C00087B01022002102A806F038FA2A682E4B84
:1045D0009A4256D12D4C4FF44061A3692C4843F0C8
:1045E0000803A361A36903F008030093009B12234F
:1045F000CDE90213032302A9059301F003F8E3694F
:10460000802243F48003E361E369224803F48003DA
:104610000193019B0023204CC4E900032046C4E918
:104620000323C4E90533A360E36100F057FE08B13A
:10463000FFF748FC1023194AAC636562184CC4E9C3
:104640000023002380222046C4E90232C4E9043357
:10465000C4E9063300F042FE08B1FFF733FC002244
:10466000212011466C63656200F0D4FD212000F02A
:1046700001FE00222220114600F0CCFD222000F095
:10468000F9FD07B030BD00BF0058004000100240E7
:10469000000C0140580002403C140020440002403D
:1046A000F81300200268114B10B59A4204461CD141
:1046B0000F4A4FF48061D3690E4823F48003D3611D
:1046C00001F074F84FF400610A4801F06FF8A06B34
:1046D00000F034FE606B00F031FE212000F0D8FDC8
:1046E000BDE81040222000F0D3BD10BD00580040AE
:1046F00000100240000C01401FB50368374A934286
:104700002CD1374B18209A6942F400629A6100223A
:104710009B69114603F400630093009B00F07AFD4F
:10472000182000F0A7FD00221920114600F072FDAC
:10473000192000F09FFD00221A20114600F06AFDAA
:104740001A2000F097FD00221B20114600F062FDA8
:104750001B2005B05DF804EB00F08CBDB3F1804F79
:1047600011D103F50433DA691C2042F00102DA6149
:104770000022DB69114603F001030193019B00F065
:1047800049FD1C20E5E7174A934210D1144B1D2028
:10479000DA6942F00202DA610022DB69114603F0B5
:1047A00002030293029B00F035FD1D20D1E70E4A63
:1047B000934210D10A4B1E20DA6942F00402DA61FA
:1047C0000022DB69114603F004030393039B00F00E
:1047D00021FD1E20BDE705B000BD00BF002C01403B
:1047E00000100240000400400008004010B50446DC
:1047F00086B01022002102A806F020F92268114B91
:104800009A421CD103F503339A690F4842F008021B
:104810009A619B69332203F008030193019B0223F1
:1048200002A9CDE90223059300F0ECFE074A536884
:1048300023F4406343F0E06343F40063536006B045
:1048400010BD00BF00040040000C0140000001400A
:1048500010B5044686B01022002102A806F0EEF83A
:1048600022681B4B9A4230D103F558439A69194884
:1048700042F480429A619A6902A902F4804200924D
:10488000009A9A69002442F004029A619B694FF4ED
:10489000007203F004030193019B0223CDE902237C
:1048A0000323059300F0AEFE4FF48063094802A98C
:1048B000CDE90234049400F0A5FE252022462146CD
:1048C00000F0A8FC252000F0D5FC06B010BD00BF0C
:1048D0000038014000080140FEE7FEE7FEE7FEE782
:1048E000FEE770477047704700F0C4B9014800F018
:1048F000F1BD00BFD4140020014800F0EBBD00BFA3
:10490000F8130020014800F0E5BD00BF3C14002072
:10491000014800F001BA00BF18150020014802F05C
:1049200037BC00BF84280020FFF7F8BF014803F020
:10493000B4BD00BFB0130020FFF7F8BFFFF7F6BF0C
:10494000FFF7F4BF014803F0A8BD00BF68130020C3
:10495000014803F0A2BD00BF20130020014803F06E
:104960009CBD00BFD8120020014801F083BE00BFEB
:1049700080140020014802F0D7BA00BF8014002044
:10498000014804F0F7B900BF901200200A4A03461C
:10499000106810B508B9094810600949094C03446A
:1049A000091B8B4206D906F07BF80C2303604FF0FD
:1049B000FF3010BD1360FCE790190020A82C0020E8
:1049C000005000200004000070470346002030B56E
:1049D000187258791C68451C5D71552598712554CD
:1049E0005879DC7901322040451C5D714E251C68E8
:1049F000D2B225545879DC792040451C5D7145259B
:104A00001C6825545879DC792040451C5D7152257D
:104A10001C6825545879DC7920401C68451C5D7160
:104A200022545879DC794A402040451C5D713A2572
:104A30001C6825545879DC7920401C68451C5D7140
:104A400021545879DC792040587107205872187A1F
:104A5000504080F03600187230BD034610B5427ADF
:104A6000013242725A790068541C5C7181545A793F
:104A7000D87902405A711A7A81EA0200187210BD80
:104A8000002337B58DF807309DF80730CB5C13B99C
:104A9000007A03B030BD437A9DF80740013343727A
:104AA000437902685D1C45710C5DD4544379C27929
:104AB00013409DF807204371531CDBB28DF807307B
:104AC0008B5C027A53400372DEE7034610B5C4796B
:104AD00080790144214018689971405C11440C4070
:104AE0009C7110BDF0B50024052645790379AB42D1
:104AF00001D10020F0BD827A072A50D8DFE802F009
:104B0000040F1C22282D4F3E0268D25C552A01D189
:104B100001228272C279013313400371E6E7026811
:104B2000D25C4E2A01D10222F3E7552AF2D00022AC
:104B30008272013BDBB2EDE70268D25C452A1BD1F1
:104B40000322E6E70268D25C522A15D10422E0E78C
:104B50000268D25C86724272DCE70268D25C3A2A52
:104B60000AD10721C2798172591C0A408271427AA6
:104B700082F036020272CDE78472DAE7427A076881
:104B8000013AD2B2017A42721AB1FA5C5140017212
:104B9000C0E78272FA5C8A42BCD10120AAE7847223
:104BA000B8E710B502604FF07F44002244600281F4
:104BB0008272C1E900340A818A7210BDFFF704FFD6
:104BC0000B480C490C4A002302E0D458C45004336B
:104BD000C4188C42F9D3094A094C002301E0136040
:104BE0000432A242FBD305F061FFFEF705FE7047D9
:104BF0000000002058020020A4D000085802002025
:104C0000A42C0020FEE7000038B50E4B05461A78AC
:104C10004FF47A73B3FBF2F30B4A1068B0FBF3F076
:104C200000F048FB044658B90F2D09D80246294622
:104C30004FF0FF3000F0EEFA2046044B1D6038BD07
:104C40000120FCE788000020840000208C00002068
:104C5000074A08B51368032043F01003136000F0FF
:104C6000C7FA0F20FFF7D0FFFFF734FC002008BD84
:104C700000200240034A044B11681B780B44136068
:104C8000704700BF9419002088000020014B18686D
:104C9000704700BF9419002038B50446FFF7F6FFAF
:104CA0000546631C1EBF044B1B78E418FFF7EEFF9C
:104CB000431BA342FAD338BD88000020436A10B5D5
:104CC0009A6A12F0500F1BD19A6A42F400729A62EB
:104CD0001A68926802F46022B2F5602F0CD11A7B38
:104CE00052B99A6A22F480729A629A6AD2045EBFBA
:104CF0009A6A42F001029A621846FCF795FB10BDD1
:104D00001B6ABDE810401B6B1847704708B5406A26
:104D1000FFF7FBFF08BD7047036870B51D685E684C
:104D20000446B00626D5A90724D5A26AD2065EBFDE
:104D3000A26A42F40072A2629A6802F46022B2F59A
:104D4000602F10D1227B72B95A6822F020025A607B
:104D5000A36A23F48073A362A36AD8045EBFA36A24
:104D600043F00103A3622046FCF75EFB6FF01202E2
:104D700023681A60310630D56A072ED5A36ADB0690
:104D80005EBFA36A43F40053A36223689A6802F4E7
:104D9000E042B2F5E04F0AD05A68500516D49A683E
:104DA00002F46022B2F5602F10D1227B72B95A68EA
:104DB00022F080025A60A36A23F48053A362A36A9C
:104DC000D9055EBFA36A43F00103A362204600F049
:104DD0000DFA6FF00C0223681A6072060CD5EB070F
:104DE0000AD5A36A204643F48033A362FFF793FFFA
:104DF0006FF0010223681A6070BD7047406A08B501
:104E0000836A43F040038362C36A43F00403C362CE
:104E1000FFF7F3FF08BD0000002373B5019390F87E
:104E200024300446012B6CD0012380F824304D68D7
:104E30000268062D086805EB850322D81F26556BEE
:104E4000053B9E4025EA060500FA03F32B43536316
:104E500009288B6800EB40054FF0070129D9D66877
:104E60001E3DA94026EA0101AB400B43D360A0F1EF
:104E70001003012B25D90020002384F8243002B030
:104E800070BD0C2D4FF01F0509D8166B233B9D40BC
:104E900026EA050500FA03F32B431363D8E7D66A25
:104EA000413B9D4026EA050500FA03F32B43D362FC
:104EB000CEE71069A94020EA0101AB400B43136122
:104EC000D9E7114B9A4216D193681B02D3D4936849
:104ED000102843F400039360CDD10C4B0C4A1B689F
:104EE000B3FBF2F30A2253430193019B002BC2D080
:104EF000019B013BF8E7A36A012043F02003A36272
:104F0000BAE70220BBE700BF002401408400002074
:104F100040420F00002337B50193036804469A68A6
:104F2000D20702D5002003B030BD9A6842F00102DA
:104F30009A60144B144A1B68B3FBF2F30193019B74
:104F4000E3B9FFF7A3FE054623689B68DB07E9D4B6
:104F5000FFF79CFE401B0228F6D923689B6813F0DC
:104F60000103F1D1A26A012042F01002A262E26ABA
:104F700084F8243042F00102E262D4E7019B013B55
:104F8000DCE700BF8400002040420F002DE9F04123
:104F90003F4B9046026804469A420F4602D03D4974
:104FA0008A4203D15B6813F4702F6DD194F82430DA
:104FB000012B6BD00123204684F82430FFF7AAFF91
:104FC000064600285DD1A56A2168324B25F470653C
:104FD00025F0010545F480759942A56204D12C4A5B
:104FE000536813F4702F3ED1A36A23F48013A36295
:104FF0004B685A0505D5A36A23F4405343F4805304
:10500000A362A36A206A13F4805318BFE36A3A4686
:1050100018BF23F00603E362002384F824301E4BFC
:105020004C3183621D4BC3621D4B03636FF002035F
:1050300041F84C3C51F8443C43F4807341F8443C03
:10504000434600F0A5F923689A6802F46022B2F59D
:10505000602F9A680CBF42F4A00242F480129A605A
:105060003046BDE8F081A36A43F48013A36253681D
:105070005B0541BFA06A20F4405040F48050A0621C
:10508000BFE7002384F824300126E9E70226E7E79A
:105090000024014000280140BD4C00080D4D0008CF
:1050A000FD4D000838B5036804469A68D10701D45D
:1050B000002038BD9A6822F001029A60FFF7E6FDF1
:1050C000054623689B68DB07F2D5FFF7DFFD401B31
:1050D0000228F6D923689B68DA07F2D5A36A012073
:1050E00043F01003A362E36A43F00103E362E0E7E5
:1050F000F8B5044600286DD0836A23B9C36280F8EE
:105100002430FFF709FA2046FFF7CCFFA36A13F01B
:10511000100361D100285FD1A26A616822F488522D
:1051200022F0020242F00202E569A668A262227B36
:105130002943B6F5807F41EA420136D0771E7D4291
:105140007D412D02277D012F06D182BBA269013A44
:1051500045EA423242F400652268B6F5807F57681E
:1051600027F4694745EA0705556097681D4D05EA2C
:10517000070545EA0105956001D0012E02D123699A
:10518000013B1B05D56A25F470052B43D362926859
:10519000154B1340994213D10023E362A36A23F015
:1051A000030343F00103A362F8BD3546CAE7A26AD0
:1051B00042F02002A262E26A42F00102E262CBE720
:1051C000A36A23F0120343F01003A362E36A43F0DF
:1051D0000103E3620120E7E7A36A43F01003A3623F
:1051E000F8E700BFFDF7E1FFFE0E1FFF704700006C
:1051F00007490302CA6803F4E06322F4E062120480
:10520000120C134343F0BF6343F40033CB60704789
:1052100000ED00E0154B30B5DC68C4F30224C4F1A6
:105220000703251D042B28BF0423062D4FF0FF354F
:1052300094BF0024033C05FA03F321EA0303A540CD
:1052400022EA0502A340002843EA0203ACBF00F1B2
:105250006040074A4FEA0313DBB2ABBF00F5614081
:1052600000F00F0080F80033135430BD00ED00E073
:1052700014ED00E0002807DB01234109034A00F098
:105280001F00834042F82130704700BF00E100E07A
:1052900000280CDB01220649430900F01F00824070
:1052A000203341F82320BFF34F8FBFF36F8F704738
:1052B00000E100E00138B0F1807F0BD24FF0E02335
:1052C000F021054A586182F82310002007229861D6
:1052D0001A6170470120704700ED00E0034610B5E9
:1052E00030B301681420134A0A44B2FBF0F2920072
:1052F0001A64114ADA63022283F82120D3E90124D7
:105300002243DC68086822431C696FF30D102243B6
:105310005C6922439C692243DC69224302430A60A0
:1053200000200122986383F8200083F8212010BD1B
:105330000120FCE7F8FFFDBF0000024010B508B3F4
:105340000168114A0B680A4423F001030B60002333
:105350000B604B608B60CB601421B2FBF1F201213A
:105360000A4C9200026401FA02F2C4636260836331
:10537000C0E90A33C0E90C3380F8213080F82030CE
:10538000184610BD0120FCE7F8FFFDBF00000240F9
:10539000F0B590F82040012C34D0012480F8204052
:1053A00090F82140012CE5B24FF0000428D10226EC
:1053B00080F8216084630468266826F00106266070
:1053C000D0E90F67BD40756063604368102BC36A06
:1053D0000BBFA260A160E160E2604BB1236843F0C3
:1053E0000E0300202360236843F001032360F0BD17
:1053F000236823F004032360236843F00A03F0E7E3
:1054000080F820400220F2E790F821200346022A8B
:1054100006D0042282630120002283F820207047F6
:105420000268C06B116821F00E011160116821F053
:105430000101116001211A6C01FA02F242600020A0
:1054400083F82110E8E7000008B590F82130022B1E
:1054500003D004238363012008BD03681A6822F087
:105460000E021A601A6822F001021A60174A93426B
:105470001FD0143293421ED0143293421DD01432E6
:1054800093421DD0143293421DD01432934214BF64
:105490004FF080734FF480130D4A5360012380F85E
:1054A0002130002380F82030436B03B1984700205F
:1054B000D2E70123F0E71023EEE74FF48073EBE728
:1054C0004FF48053E8E74FF48033E5E708000240EB
:1054D0000000024070B40425C66B026C3468036897
:1054E00095402542196832D04D0730D51A68960686
:1054F0005EBF1A6822F004021A603E4A934219D035
:105500001432934218D01432934217D0143293427B
:1055100017D01432934217D01432934214BF4FF075
:1055200080634FF48003344A5360C36A002B5ED01B
:1055300070BC18470423F6E74023F4E74FF4806378
:10554000F1E74FF48043EEE74FF48023EBE70225C9
:105550009540254235D08D0733D51A68940606D478
:105560001A6822F00A021A60012280F82120214ADA
:10557000934219D01432934218D01432934217D068
:105580001432934217D01432934217D014329342FC
:1055900014BF4FF000734FF40013174A53600023F9
:1055A00080F82030836AC1E70223F6E72023F4E77E
:1055B0004FF40073F1E74FF40053EEE74FF400337C
:1055C000EBE708259540254211D009070FD519684A
:1055D00021F00E011960012303FA02F27260836365
:1055E00080F82130002380F82030036B9EE770BCE8
:1055F000704700BF080002400000024090F8210000
:10560000704700002DE9F74F00244FF00F0E26469B
:10561000DFF884C1614B00F104080A6832FA06F52C
:1056200002D103B0BDE8F08F012505FA06F702EAC2
:10563000070537EA020276D14A68032A07D8013AF9
:10564000022A00F28380DFE802F091969C00122A81
:1056500000F0948069D8112A00F08A80FF2D94BF51
:105660008146C1464FEA8602D9F8007088BF203AC9
:105670000EFA02FA27EA0A0704FA02F21743C9F8F7
:105680000070D1F8049019F0805F4CD0DCF818203D
:1056900026F0030742F00102CCF81820DCF81820AD
:1056A00007F1804702F00102019207F5803706F00A
:1056B000030A019A4FEA8A0ABA680EFA0AFB22EA3A
:1056C0000B0B374A904260D002F5806290425ED068
:1056D00002F5806290425CD002F58062904214BF75
:1056E0000422032202FA0AF242EA0B02BA609A6822
:1056F00019F4801F14BF2A43AA439A60DA6819F488
:10570000001F14BF2A43AA43DA605A6819F4003F05
:1057100014BF2A43AA435A601A6819F4803F14BF81
:105720002A43AA431A60013677E7DFF878904A45A2
:105730000CD014D8A9F580194A4507D009F570296D
:105740004A4503D0A9F580194A4587D18A68D2B164
:10575000012A4FF008040CBF076147617EE7DFF8BC
:1057600048904A45F2D009F58039EDE7CC6875E7F5
:10577000CC68043472E7CC6808346FE7CC680C342A
:105780006CE700246AE7042468E70022AAE7012204
:10579000A8E70222A6E700BF001002400004014073
:1057A0000008014000002210000031102DE9F74FE1
:1057B0004FF0040B00224FF0010A4FF00F0800EBEE
:1057C0000B0301932E4B31FA02F402D103B0BDE872
:1057D000F08F0AFA02F70F4049D022F0030404F1D7
:1057E000804404F5803402F0030CA5684FEA8C0C69
:1057F00008FA0CF909EA050E224DA84239D005F540
:105800008065A84237D005F58065A84235D005F5FA
:105810008065A84214BF0425032505FA0CF57545DB
:105820006FEA07060FD11D6835401D605D68354081
:105830005D60DD683540DD609D6835409D60A56830
:1058400025EA0905A560FF2F94BF0746019F4FEA8F
:1058500082043D6888BF203C08FA04FC25EA0C0558
:105860000BFA04F425433D60C4683440C46001323F
:10587000A9E70025D1E70125CFE70225CDE700BF45
:10588000000401400008014080680840003818BF4B
:10589000012070470AB1016170470904FBE7016804
:1058A00000224B6913F4806310D06FF480634B6166
:1058B0002023026380F83D3080F83E20036C80F89E
:1058C0003C2043F0040303640120704718467047EE
:1058D0002DE9F84606460F4691461D464FEA114A05
:1058E0003368BAF1010F39D15C6927EA0404A4B224
:1058F000B4FA84F46409A14501D0002024E06A1CB4
:10590000EFD0FFF7C3F9089BC01AA84201D8002DB9
:10591000E6D1BAF1010F336818D15B6927EA0303B6
:105920009BB2B3FA83F35B099945D9D100232022B6
:105930000120336386F83D2086F83E30326C86F8CD
:105940003C3042F020023264BDE8F8869B69DB43BC
:10595000C3F3400383F00103DBB2E5E79C69E44352
:10596000C4F3400484F00104E4B2C4E72DE9F0413B
:1059700004460F46164698462568686927EA0000DF
:1059800080B2C0B16B695A0517D52B68202243F449
:1059900000732B606FF480636B610023236384F8D2
:1059A0003D2084F83E30236C43F00403236400233D
:1059B000012084F83C30BDE8F081731CDDD0FFF796
:1059C00065F9A0EB0800B04201D8002ED4D12368BD
:1059D0005A6927EA020292B2002ACDD0002320227F
:1059E000236384F83D2084F83E30236C1343DDE7C5
:1059F00070B504460D46164623685B691B0601D543
:105A000000201EE02046FFF74AFFC8B96A1CF3D009
:105A1000FFF73CF9801BA84201D8002DECD1236888
:105A20005B6913F08003E7D12022236384F83D20D3
:105A300084F83E30226C84F83C3042F0200222642C
:105A4000012070BD2DE9F0431546026899461368A0
:105A500085B043F480731360DDE90C780E463B4655
:105A600000224FF00111CDF800800446FFF730FF0F
:105A7000236838B11B68DB0502D54FF4007323643B
:105A8000032620E006F0FE061E613A464346204605
:105A90001849FFF76BFFA8B9236803905A69394684
:105AA00003929B69424603932046039BFFF7A0FFA6
:105AB000064660B1236C042B01BF2268136843F4CF
:105AC000007313600126304605B0BDE8F083B9F1DC
:105AD000010F236802D1EDB21D61F4E72A0A1A61B1
