:020000040800F2
:1000000000500020F54A0008114800081348000875
:1000100015480008174800081948000800000000AB
:100020000000000000000000000000001B48000865
:100030001D480008000000001F4800082148000873
:100040003D4B00083D4B00083D4B00083D4B000870
:100050003D4B00083D4B00083D4B00083D4B000860
:100060003D4B00083D4B00083D4B0008254800086B
:100070003D4B00083D4B0008314800083D48000852
:100080003D4B00083D4B0008494800085548000812
:10009000614800083D4B00083D4B00083D4B0008FF
:1000A000654800087148000875480008794800084C
:1000B0007D48000889480008954800083D4B000825
:1000C0003D4B0008A1480008AD4800083D4B000822
:1000D0003D4B0008B94800083D4B00083D4B000867
:1000E0003D4B00083D4B00083D4B00080000000060
:1000F0000000000000000000000000000000000000
:0C01000000000000000000005FF808F1A3
:1001100010B5054C237833B9044B13B10448AFF341
:1001200000800123237010BD7C020020000000002D
:1001300004B3000808B5034B1BB103490348AFF3F0
:10014000008008BD000000008002002004B3000809
:10015000034613F8012B002AFBD1181A0138704707
:100160007BB972B90029BEBF00204FF0004106E004
:1001700008BF00281CBF6FF000414FF0FF3000F0B7
:10018000B9B9ADF1080C6DE904CE002909DB002BEB
:100190001ADB00F035F8DDF804E0DDE9022304B0F5
:1001A0007047404261EB4101002B1BDB00F028F857
:1001B000DDF804E0DDE9022304B0404261EB4101D7
:1001C000524263EB43037047524263EB430300F038
:1001D00017F8DDF804E0DDE9022304B0404261EBEA
:1001E00041017047524263EB430300F009F8DDF828
:1001F00004E0DDE9022304B0524263EB430370479D
:100200002DE9F047089D0F4604468E46002B48D145
:100210008A42164661D9B2FA82F24AB1C2F120038B
:1002200001FA02FE20FA03F3964043EA0E0E9440D0
:100230004FEA164CBEFBFCF1B7B20CFB11EE01FB12
:1002400007F0230C43EA0E43984209D9F31801F151
:10025000FF3E80F0ED80984240F2EA80023933445C
:100260001B1AB3FBFCF00CFB103300FB07F7A4B226
:1002700044EA0344A74209D9341900F1FF3380F05E
:10028000D980A74240F2D6803444023840EA014087
:100290000021E41B1DB10023D440C5E90043BDE8A3
:1002A000F0878B4206D90DB1C5E90001002108464F
:1002B000BDE8F087B3FA83F1002947D1BB4202D3EE
:1002C000824200F20481841A67EB03020120964601
:1002D000002DE4D0C5E9004EE1E7002A00F090804F
:1002E000B2FA82F2002A40F0A780881B0121370C65
:1002F0001FFA86FEB0FBF7FC07FB1C00230C43EA49
:1003000000430EFB0CF0984207D9F3180CF1FF38AC
:1003100002D2984200F2E080C4461B1AB3FBF7F009
:1003200007FB10330EFB00FEA4B244EA0344A645CB
:1003300007D9341900F1FF3302D2A64500F2C98073
:100340001846A4EB0E0440EA0C40A3E7C1F12006D6
:100350008B4022FA06FC4CEA030C27FA06FA4FEA15
:100360001C49BAFBF9F88F4020FA06F309FB18AADA
:100370001FFA8CFE3B4300FA01F708FB0EF01C0C41
:1003800044EA0A44A04202FA01F20BD91CEB04042D
:1003900008F1FF3A80F09980A04240F29680A8F1DF
:1003A00002086444241A98B2B4FBF9F309FB13441D
:1003B00003FB0EFE40EA0444A64508D91CEB0404E6
:1003C00003F1FF307FD2A6457DD9023B644443EA66
:1003D0000840A4EB0E04A0FB028E74454346F14690
:1003E00061D35ED055B1FA1A64EB090404FA06F63B
:1003F00022FA01F31E43CC40C5E9006400214EE718
:1004000043084FEA510C43EAC1710A0C42EA0C421C
:100410008BB2C407B2FBF6F143EA0243BCFBF6FC25
:10042000B646304637461F22181A41EA0C4161E7AA
:10043000714615E7184629E7C2F1200321FA03F0B7
:10044000964024FA03F397403B43370CB0FBF7F890
:1004500007FB18001FFA86FE190C41EA004108FB51
:100460000EF0884204FA02F43AD9711808F1FF3C00
:1004700001D288421ED8091AB1FBF7F808FB0EF02A
:1004800007FB18119BB243EA014383422FD2F318B2
:1004900008F1FF31C8D28342C6D2A8F10201334429
:1004A000C2E747459ED2B8EB02036EEB0C0E013853
:1004B000F14697E7301A0144A8F1020CB1FBF7F8B6
:1004C00008FB0EF0DCE7034681E7D0466AE7084602
:1004D000FEE63444023834E7ACF1020C33441CE746
:1004E000091AC446B1FBF7F808FB0EF0C8E741460D
:1004F0009AE700BF704700BF00220A4930B50B8859
:10050000094D013810F8014F14B902B10B8030BD0C
:100510005A1C92B2B2F5806FEC5414BF13460023FC
:100520000122EFE7AA020020B2020020074A10B51C
:100530001188074C4B1C9BB2B3F5806F138008BF2A
:100540000023605408BF138010BD00BFAA02002022
:10055000B202002038B500240D460E4B01461C7037
:100560000D4B3F220D481C700AF00CFA0B4B1F225A
:1005700029460B4883F83F400AF004FA3222084B20
:10058000DC77084B1A601422074B1A70074B1C705B
:1005900038BD00BF9C0B0020B60A0020430B002092
:1005A000230B0020980B00209D0B0020A8020020A8
:1005B000014B1878704700BFB50A0020194B70B581
:1005C0005B6806460D4614463BB347F23053164966
:1005D0001648002A08BF1C460AF02AFA0F223146A4
:1005E00013480AF0CFF90023114A1249D373284661
:1005F0000A220AF045F90A2220460F490AF040F97A
:100600000E4B1B7863B10E4B187810F0020003D02C
:10061000102206200B4B1A7070BD4FF0FF30FBE725
:100620000120F9E79C0200201CB30008050000200F
:10063000130B00200D0B0020F70A0020430B0020B5
:100640009C0B00209D0B0020064B5B683BB1064BCA
:100650001B7813F0400F0CBF0520072070474FF0A8
:10066000FF3070479C0200209C0B0020074A10B509
:100670001188074C4B1C9BB2B3F5806F138008BFE9
:100680000023605408BF138010BD00BFB0020020DB
:10069000B20600202DE9FF471F463D4B04465B682C
:1006A00088461546BDF83090002B6CD0394EDFF8E7
:1006B000E8A033789AF8001003F040020A4365D0AE
:1006C0001B0758D40A2201A938460AF0D9F801A814
:1006D000FFF73EFD421ED2B2032A4AD82F48FFF749
:1006E0000BFF9AF8003053B10A22694620460AF0FF
:1006F000C7F86846FFF700FF2C20FFF717FF01A897
:10070000FFF7FAFE2648FFF7F7FE002211462548BC
:10071000DFF894C0038894B2A74216D801B10380D1
:100720003378224C23F00C0343F00C03337023681E
:100730003BB11F489847236801A8984723681D4884
:100740009847092004B0BDE8F0875C1CA4B2B4F55A
:10075000806F08BF0024691C18F8055089B20CF896
:1007600003500132494514BF0D460025234601219F
:10077000D1E70B20E6E70D4B1B680BB90820E1E73A
:100780000D489847FAE74FF0FF30DBE70520D9E73F
:100790009C0200209C0B0020B60A002097B900089C
:1007A00020B30008AA020020B2020020840B00201F
:1007B00023B3000837B5000836B3000802460F4BD4
:1007C0000068516803C390680D4A186000231370D5
:1007D0000C4A13700C4A13800C4A13800C4A138085
:1007E0000C4A13800C4A13700C4A13700C4A137095
:1007F0000C4A13600C4A1360704700BF9C02002033
:100800009D0B0020B40A0020AC020020AA020020A8
:10081000AE020020B00200209C0B0020B60A00208F
:10082000B50A0020880B0020840B0020114A1368B1
:100830000BB1013B1360104A136823B1013B1360F5
:100840000BB90E4A13700E4A13680BB1013B1360CB
:100850000C4A13686BB1013B136053B90A490A781B
:10086000100706D563F3C302084B0A701A88084BB9
:100870001A807047980B0020940B0020B40A0020C7
:10088000900B00208C0B00209C0B0020AA02002063
:10089000AC0200202DE9F84FA54AA64EB2F800B0F0
:1008A000338800255B4506D0A34F3A78143A022AD4
:1008B00027D8A6F800B0A14EA14C3368002B40F019
:1008C0006D8264239C4D33602B78162B00F2668278
:1008D000DFE813F04404AD02C602CC02DA02E00203
:1008E000E902EF0202030D033E03480352038303B0
:1008F0008C039D03AC03FE033B04410459029802A0
:10090000A70202228F49904C0A609B45D3D08F4AA0
:10091000D05C22780D2A00F23182DFE812F00E005E
:100920005500CC002F022F02A501BA01C301D0014E
:100930002F02EB0108021A02F90100230421984654
:10094000DFF80CC2834ADFF810928CF80030117087
:100950005FFA83FE59F82E10D1B9B8F1000F01D01B
:100960008CF800E00022774B75491A600B7813F081
:10097000010F00F092803E2840F08F8062F3000368
:100980000B70764B1A604FF49672754B1A6084E0C8
:1009900091F804A00133824513D1B8F1000F01D0C2
:1009A0008CF800E00B784978303B313903EB830356
:1009B00001EB43036B490B80012323700523137064
:1009C0006BE04FF00108C3E7DFF884C162499CF88F
:1009D000002051F822205F49097812F801E086458D
:1009E00014D1DFF880C1BCF80030013B9BB2ACF8F9
:1009F00000300BB10D284DD19378D278303B03EB0A
:100A00008303303A02EB4303237046E00022914611
:100A1000C1F57F4A8CF800200AF1D30ADFF838C10B
:100A20005FFA82F85CF828C0BCF1000F0CD1B9F174
:100A3000000F04D04B4A1580454A82F800800022FE
:100A4000013B2270338028E09CF800E09CF80150C4
:100A5000AEF1300E0EEB8E0E554405EB4E05ADB2E9
:100A60007F2D24D81CF801E0864520D13D4B1D8008
:100A7000B9F1000F02D0364B83F8008055B99CF8CD
:100A800002309CF80320303B03EB8303303A02EB47
:100A9000430323702F4B01311970338801339BB20C
:100AA000B3F5806F338004BF002333802DE74FF010
:100AB00001090132B2E70A28EFD100232370244B49
:100AC0001B78023B0F2BE8D801A252F823F000BF9D
:100AD000110B0008690B0008850B00089B0A000831
:100AE000AF0B0008AF0B0008DD0B0008E70B000898
:100AF000050C0008DD0B00089B0A00082F0C0008FD
:100B00009B0A0008390C0008450C0008450C000839
:100B10003A78082AC1D84FF4AA73D340DB07BCD572
:100B20000022064B1A60064A137843F0200346E77A
:100B3000B0020020AE0200209D0B0020980B002088
:100B40009C0B0020940B0020B40A0020B206002069
:100B5000990200209802002018B80008900B00208D
:100B60008C0B0020B20A0020944A1378180794D501
:100B700023F009031370924B1A88924B1A80924B00
:100B8000002203E73B780D2B87D100228F4B1A60A0
:100B90008A4A137823F0220343F0220313708C4B0C
:100BA0001B68002B3FF479AF0320984775E7834A11
:100BB000137823F0420313703B780E3B052B3FF66E
:100BC0006CAF834B1B680BB100209847814B1B789F
:100BD000002B7FF462AF16233B705EE7774A1378F1
:100BE00023F04003EBE6754A137823F008031370F3
:100BF0000022754B1A60764B1B68002B3FF44DAFFB
:100C00000A20D2E7734B1B78002B7FF446AF6F4A64
:100C100013606A4A137823F0600343F06003137093
:100C20006B4B1B68002B3FF438AF0720BDE7634ACE
:100C3000137823F04203C2E6604A137823F042039C
:100C40001370C8E75D4A1378190706D523F0090326
:100C500013705B4B1A885B4B1A803B78013B0D2B62
:100C60003FF61BAF594B8BE75B4A2C28126807D124
:100C700006232370002A3FF410AF584890470CE732
:100C80000021013B21703380002A3FF406AF544815
:100C9000F4E722287FF401AF072300222370514B91
:100CA0001A80FAE6222803D04E4A1388102B01D16D
:100CB0000823A9E6591C11804B4AD054EDE60A28B6
:100CC0007FF4EBAE0023474A23701188464A0F2970
:100CD0009BBF5354394913700A789FBF42F02002DA
:100CE0000A703A4A13603A4B1B68002B3FF4D5AEAA
:100CF00004205AE72C287FF4A2AE364B1B782BB188
:100D00000D2300222370394B1A70C6E60B23C4E76B
:100D10002C28FBD0A0F13002092A3FF690AE334ACE
:100D2000137803EB830300EB4303303B47E63A2899
:100D300001D10C2368E6A0F13002092A3FF67FAE0C
:100D4000284A138803EB830300EB4303303B1380F3
:100D5000A3E6274B9B6803B19847224A1388013BBF
:100D60009BB21380002B7FF498AE23701A4B1B6844
:100D7000002B3FF492AE1F4898478EE600231E4A90
:100D80002370136089E61A4B00201B689847124BAA
:100D90001B680BB11948984715232B702378DA0785
:100DA00040F1E581164A126832B9054A23F0090379
:100DB0001188044A23701180BDE8F88F9C0B002035
:100DC000AA020020AC0200208C0B0020980B00200F
:100DD000880B0020B60A0020840B00204EB30008C8
:100DE00063B30008B20A0020FD0A0020B50A002003
:100DF0009C02002077B30008940B00208AB30008FF
:100E0000900B0020914B01201B689847904B1B686A
:100E10000BB19048984716232B704FF4FA73336048
:100E2000BCE7012300222B708B4B1A70B6E78A4A6D
:100E300013782BB1013BDBB213701BB91423ACE761
:100E4000042313702378854823F020032370FFF7D1
:100E500053FB7F4B1B680BB18148984702239CE7EB
:100E600023789E0640F17581032396E77D48FFF7BE
:100E700043FB774B1B680BB17B489847237823F0E3
:100E800020032370042388E72378980640F16181CA
:100E9000052382E77548FFF72FFB237823F0200313
:100EA0002370062379E72378990640F152810723BE
:100EB00073E76F4B1B786BB16E48FFF71DFB644BFC
:100EC0001B680BB16C489847237823F020032370EC
:100ED000082362E76948F0E723789A0640F13981F0
:100EE000634B1B78002B0CBF0C23092355E7644888
:100EF000FFF702FB2220FFF719FB6248FFF7FCFA1D
:100F00002220FFF713FB2C20FFF710FB2220FFF716
:100F10000DFB5D48FFF7F0FA2220FFF707FB2C20BE
:100F2000FFF704FB5948FFF7E7FA2C20FFF7FEFA1A
:100F30005748FFF7E1FA0D20FFF7F8FA0A20FFF70C
:100F4000F5FA434B1B680BB1524898470A2324E734
:100F50005148FFF7D1FA3E4B1B680BB14F489847F9
:100F60000B231AE74E48FFF7C7FA394B1B680BB142
:100F70004C489847132310E74B4F3B78002B3FF426
:100F80000DAF4A48FFF7B8FA2220FFF7CFFA3846EC
:100F9000FFF7B2FA2220FFF7C9FA2C20FFF7C6FAB2
:100FA0002220FFF7C3FA4248FFF7A6FA2220FFF7F4
:100FB000BDFA0D20FFF7BAFA0A20FFF7B7FA244B63
:100FC0001B680BB13B489847237823F0200323701C
:100FD0000D232B7040F2DC5321E723789B0640F170
:100FE000B8800E2304222B701B4B1EE70022324BCD
:100FF00032481A70FFF780FA154B1B680BB1304866
:101000009847237823F0200323700F23C5E6237825
:101010009F0601D51023C0E60F4A1378013BDBB2CF
:101020001370002B00F095800E23B6E6254B1B783D
:10103000002B3FF4B3AE2448FFF75EFA044B1B6865
:101040000BB1224898471123A7E600BF9C0200205D
:10105000840B0020A0B30008A8020020E1B900081A
:10106000B6B30008D3B90008C4B30008D8B3000869
:10107000B60A0020EAB3000806B40008F8B3000876
:1010800089B90008D70A0020B70A00200200002012
:10109000000000201AB4000875B900082DB400083B
:1010A00061B9000841B40008430B0020C9B9000829
:1010B000230B002058B40008FD0A0020BEB9000828
:1010C0006BB40008130B0020A3B900087CB400081F
:1010D0003C48FFF711FA2220FFF728FA3A48FFF7B9
:1010E0000BFA2220FFF722FA2C20FFF71FFA22200A
:1010F000FFF71CFA3548FFF7FFF92220FFF716FA31
:101100002C20FFF713FA3248FFF7F6F92C20FFF7EF
:101110000DFA3048FFF7F0F92C20FFF707FA3020DE
:10112000FFF704FA0D20FFF701FA0A20FFF7FEF996
:10113000294B1B680BB129489847237823F060039B
:10114000237012232B70C82369E623789E063FF58F
:1011500011AF012321E6224B1B780BB100235EE681
:1011600023789807F5D559067FF554AFF6E71D4D5E
:101170001D492A88098891423FF41EAE1B4E5F0725
:10118000B05C02D53E2808BF0A20194B5B6898471F
:1011900000283FF411AE22782B8851070AD5F15C64
:1011A0003E2907D1322122F0050242F001022270CD
:1011B000104A116001339BB2B3F5806F08BF002362
:1011C0002B80F9E5B1B9000805000020130B0020C1
:1011D0000D0B0020F70A0020840B002092B40008B9
:1011E000B60A0020AC020020AA020020B2020020B1
:1011F0009C020020900B0020014B1860704700BF3C
:10120000880B0020014B1860704700BF840B002042
:101210000022F0B5084BD4B2A14202F1010200D87D
:10122000F0BD5D791E686F1C5F71045D74555C795B
:10123000DD792C405C71EEE77C120020021E18BFA5
:1012400001224FF40071014804F0C0BA000C0140C3
:101250001FB514461A464FF0FF330091CDE9014304
:1012600001460123024804F051FD04B010BD00BF47
:10127000AC140020FFF7ECBF13B514461A46CDE9B5
:10128000001401230146024804F0D0FD02B010BD55
:10129000AC14002013B514461A46CDE900140123FE
:1012A0000146024804F088FE02B010BDAC140020D4
:1012B00007B501228DF807000DF10701034807F07B
:1012C00078FCB0FA80F0400903B000BDBC120020E9
:1012D00010B50446FEF73CFF81B22046BDE8104041
:1012E00009F014B910B5164B1B78F3B115490C78F9
:1012F000FF2C15D07E2C144B13D818550020621CDF
:10130000D2B2012A0A7098540AD0134413F8022C5E
:101310000D2A05D113F8013C0A2B01D1FF230B70D4
:1013200010BD00220A701A70FAE7084B5A79196842
:10133000541C5C7188545A79D9790A405A71EFE784
:10134000930D0020940D0020950D002064120020C4
:10135000032810B5184C15D10C21184B18481A78D1
:10136000184B01FB02330F22996809F00BFB002395
:10137000134A2370D3730122134B1A700522134BA7
:101380001A7010BD124B22781B7813431843C0B259
:101390000028F6D1012340F6B8320C2123700D4B02
:1013A000BDE810401A80054B064A1B784B43D11804
:1013B0004968D058FFF7CEB83C0C00203D0C002007
:1013C00060000020C8CE00083E0C00207000002005
:1013D000930D00205C000020054B064A03F110012C
:1013E00053F8040B8B4242F8040BF9D1704700BF4D
:1013F000A4120020941200200122014B1A707047A1
:101400005D0E00200122014B1A7070475C0E002017
:1014100038B502681A4B04469A4212D1194A1A4941
:1014200013781A480133DBB2282B01BF0023137055
:10143000174A137808BF43F080031370082203F0A3
:1014400041FD2368B3F1804F18D1012211491248A0
:101450000B78124CE2541344027803F00F03013A64
:1014600012F0FF0208BF05250B7003BFE2540133E1
:1014700003F00F03027004BF05700B7038BD00BF8E
:10148000002C0140B4120020A412002044150020BA
:101490005E0E00203E0E0020710000203F0E002056
:1014A000F0B5026883790C46D15C0546A1F1A00332
:1014B00091B0512B00F2E986DFE813F052005C0096
:1014C0006C00B80007013201AB01C8015301710182
:1014D0008E010A0250046D048A04A704C404E104C6
:1014E0002902FE041B053805550573059105D8052D
:1014F000E706E706E706E706E706E706F60546021B
:1015000063021406320651066F068D06AB06C90645
:10151000E706E706E706E706E706E706E706E70663
:10152000E706E706E706E706E706E706E706E70653
:10153000E706E706E706E706E706E706E706E70643
:10154000E706E706E706E706E706E706E706E70633
:10155000E706E706E706E706E706E7068A021C0451
:10156000A0210222204603F0CCF90D21204603F0F1
:1015700010FA08E0A1210D22204603F0C2F920460E
:10158000C14903F019FA2046217A11B0BDE8F040B4
:1015900003F0FFB90D22A221204603F0B2F9BB4BA4
:1015A000BB4DB3F9001020462980C9B203F0F1F910
:1015B0006978204603F0EDF9B64B2046B3F90010E8
:1015C0002980C9B203F0E5F96978204603F0E1F912
:1015D000B14B2046B3F900102980C9B203F0D9F904
:1015E0006978204603F0D5F9AC4B2046B3F90010DA
:1015F0002980C9B203F0CDF96978204603F0C9F912
:10160000A74B2046B3F900102980C9B203F0C1F9F5
:101610006978204603F0BDF9A24BB3F90010298088
:101620002046C9B203F0B5F969789FE79E4E1122B2
:10163000A321204603F065F9954D31882046298085
:10164000C9B203F0A6F96978204603F0A2F97188BF
:1016500020462980C9B203F09CF96978204603F03E
:1016600098F9B18820462980C9B203F092F96978C7
:10167000204603F08EF9F18820462980C9B203F094
:1016800088F96978204603F084F931892046298059
:10169000C9B203F07EF96978204603F07AF97189BE
:1016A00020462980C9B203F074F96978204603F016
:1016B00070F9B18920462980C9B203F06AF96978C6
:1016C000204603F066F9F189A9E70222A421204609
:1016D00003F017F90D21204603F05BF9217A20462B
:1016E00003F057F900220121284603F08AF9684CDB
:1016F000002201212070284603F083F96070B4F9BC
:1017000000202388002A6949694AB5BF5B421380DB
:101710000B800023B6BF00230B80138011B0F0BDF7
:101720000222A521204603F0ECF80D21204603F00B
:1017300030F9217A204603F02CF9002201212846B5
:1017400003F05FF9524C002201212070284603F07B
:1017500058F96070B4F900202388002A5549564A88
:10176000D3E70222A821204603F0CBF80D21204622
:1017700003F00FF9217A204603F00BF90022012132
:10178000284603F03EF9424C0022207001212846F1
:1017900003F037F960702288484B1A80BEE70222B6
:1017A000A921204603F0ADF80D21204603F0F1F801
:1017B000217A204603F0EDF800220121284603F0AB
:1017C00020F9334C002220700121284603F019F93A
:1017D000607022883A4BE0E70222AA21204603F0FB
:1017E00090F80D21204603F0D4F8217A204603F02A
:1017F000D0F800220121284603F003F9244C0022EE
:1018000020700121284603F0FCF8607022882D4BDF
:10181000C3E70222A621204603F073F80D212046DB
:1018200003F0B7F8217A204603F0B3F80022012133
:10183000284603F0E6F8164C0022207001212846C5
:1018400003F0DFF8607022881F4BA6E70222A72171
:10185000204603F056F80D21204603F09AF8217A2D
:10186000204603F096F800220121284603F0C9F82B
:10187000074C002220700121284603F0C2F8607056
:101880002288124B89E700BFF8CE00085A0E0020CC
:10189000600E0020580E0020560E0020540E00202E
:1018A000520E0020500E002094120020380E00200E
:1018B000360E00203C0E00203A0E0020540000207E
:1018C000520000200C0C00204C0000204E00002094
:1018D0000222AB21204603F014F80D21204603F02C
:1018E00058F8217A204603F054F8002201212846B6
:1018F00003F087F8314C002220700121284603F0C4
:1019000080F86070B4F900202D4B1A6006E70222BF
:10191000B221204602F0F5FF0D21204603F039F8F0
:10192000217A204603F035F800220121284603F0F1
:1019300068F8224C002220700121284603F061F84B
:10194000607022881F4B28E70222C121204602F046
:10195000D8FF0D21204603F01CF8217A204603F021
:1019600018F800220121284603F04BF8134C0022FE
:1019700020700121284603F044F860702288124B41
:101980000BE70222C221204602F0BBFF0D212046B8
:1019900002F0FFFF217A204602F0FBFF0022012126
:1019A000284603F02EF8054C00222070012128461D
:1019B00003F027F860702288044BEEE6600E0020EA
:1019C00044000020380000201400002012000020F5
:1019D00000254F22F021204602F093FFA24B03AFD7
:1019E0001B88ADF80C30A14B1B88ADF80E30A04B16
:1019F0001B88ADF810309F4B1B88ADF812309E4B02
:101A00001B88ADF8143037F9026B2046F1B202F0B2
:101A1000C0FF01352046C6F3072102F0BAFF052DAD
:101A2000F1D1964D2046297802F0B3FF697820461F
:101A300002F0AFFFA978204602F0ABFFE97800255D
:101A4000204602F0A6FF8E4B09AF1B88ADF824306C
:101A50008C4B1B88ADF826308B4B1B88ADF828309B
:101A60008A4B1B88ADF82A30894B1B88ADF82C3087
:101A7000884B1B88ADF82E30874B1B88ADF8303073
:101A800037F9026B2046F1B202F083FF01352046A0
:101A9000C6F3072102F07DFF072DF1D100257F4B12
:101AA00006AF1B88ADF818307D4B1B88ADF81A3097
:101AB0007C4B1B88ADF81C307B4B1B88ADF81E306F
:101AC0007A4B1B88ADF82030794B1B88ADF822305B
:101AD00037F8026B2046F1B202F05BFF0135204679
:101AE000310A02F056FF062DF2D10025714B01AFED
:101AF0001B88ADF80430704B1B88ADF806306F4B77
:101B00001B88ADF808306E4B1B88ADF80A3037F8EB
:101B1000026B2046F1B202F03CFF01352046310A4B
:101B200002F037FF042DF2D1664B20461E68664B4B
:101B3000F1B2B3F9005002F02CFFC6F307212046A2
:101B400002F027FFE9B2204602F023FFC5F3072188
:101B5000204602F01EFF5D4B5D4AB3F90060B2F90A
:101B600000501978204602F014FFC6F307212046E2
:101B700002F00FFFE9B2204602F00BFFC5F3072188
:101B8000544D204602F005FF2978204602F001FF5F
:101B90006978204602F0FDFEA978204602F0F9FEA1
:101BA000E978204602F0F5FE4B4B4C4AB3F9006051
:101BB000B2F900501978204602F0EBFEC6F3072177
:101BC000204602F0E6FEE9B2204602F0E2FEC5F34E
:101BD0000721434D204602F0DCFE2978204602F022
:101BE000D8FE69783F4D204602F0D3FEA978204602
:101BF00002F0CFFE69882046090A02F0CAFEA979E0
:101C0000204602F0C6FEE9882046090A02F0C1FE1D
:101C1000A97A204602F0BDFE6989334D090A2046A3
:101C200002F0B7FE29882046C9B202F0B2FE298828
:101C30002E4DC1F30721204602F0ABFE2988204635
:101C4000C9B202F0A6FE2988294DC1F3072120461A
:101C500002F09FFE29882046C9B202F09AFE298828
:101C6000C1F3072182E400BF540000200C0C0020C7
:101C7000520000204C0000204E00002044000020B4
:101C8000400000203E0000200A0C0020080C00202C
:101C90003C0000203A0000203800002020000020F6
:101CA0001A0000201C000020180000201E00002048
:101CB000160000204A0000204800002014000020E8
:101CC00012000020340000203200002030000020EC
:101CD0002E000020300C00202C0000202A000020C4
:101CE0002800002094120020B6120020B812002014
:101CF000BA12002000261D22F121204602F001FE2A
:101D0000C64B09AF1B680993C54B1B680A93C54BAB
:101D10001B680B93C44B1B680C93C44B1B680D933F
:101D2000C34B1B680E93C34B1B680F9357F8045BA0
:101D30002046E9B202F02DFEC5F30721204602F04D
:101D400028FEC5F30741204602F023FE0136204657
:101D5000290E02F01EFE072EE8D114E40222AC2167
:101D6000204602F0CEFD0D21204602F012FE217A1F
:101D7000204602F00EFE00220121284602F041FE1C
:101D8000AD4C002220700121284602F03AFE60701E
:101D90002288AA4B01E50222AD21204602F0B1FDC6
:101DA0000D21204602F0F5FD217A204602F0F1FDDA
:101DB00000220121284602F024FE9F4C00222070C0
:101DC0000121284602F01DFE607022889C4BE4E44D
:101DD0000222AE21204602F094FD0D21204602F0A1
:101DE000D8FD217A204602F0D4FD002201212846A8
:101DF00002F007FE904C002220700121284602F0DC
:101E000000FE607022888F4BC7E40222AF2120467B
:101E100002F077FD0D21204602F0BBFD217A20461D
:101E200002F0B7FD00220121284602F0EAFD824CB3
:101E3000002220700121284602F0E3FD6070228814
:101E4000814BAAE40222B021204602F05AFD0D2166
:101E5000204602F09EFD217A204602F09AFD0022E3
:101E60000121284602F0CDFD734C00222070012193
:101E7000284602F0C6FD60702288744B8DE4022271
:101E8000B121204602F03DFD0D21204602F081FDEA
:101E9000217A204602F07DFD00220121284602F031
:101EA000B0FD654C002220700121284602F0A9FDFA
:101EB00060702288664B70E40222B321204602F053
:101EC00020FD0D21204602F064FD217A204602F01B
:101ED00060FD00220121284602F093FD564C0022AD
:101EE00020700121284602F08CFD60702288594B39
:101EF00053E40222B421204602F003FD0D212046C6
:101F000002F047FD217A204602F043FD0022012124
:101F1000284602F076FD484C002220700121284618
:101F200002F06FFD607022884B4B36E40222B5212F
:101F3000204602F0E6FC0D21204602F02AFD217A1F
:101F4000204602F026FD00220121284602F059FD1C
:101F5000394C002220700121284602F052FD6070A9
:101F600022883E4B19E40222B621204602F0C9FC29
:101F70000D21204602F00DFD217A204602F009FDD8
:101F800000220121284602F03CFD2B4C002220704B
:101F90000121284602F035FD60702288304BFFF7A2
:101FA000FCBB0222B721204602F0ABFC0D212046EB
:101FB00002F0EFFC217A204602F0EBFC0022012126
:101FC000284602F01EFD1C4C0022207001212846EC
:101FD00002F017FD60702288224BFFF7DEBB022261
:101FE000B821204602F08DFC0D21204602F0D1FCE4
:101FF000217A204602F0CDFC00220121284602F081
:1020000000FD0D4C002220700121284602F0F9FC51
:1020100060702288144BFFF7C0BB00BF2C0C00205F
:10202000200C0020240C00201C0C0020180C002088
:10203000F00B002058000020600E0020400000201F
:102040003E0000200A0C0020080C00203C0000206C
:102050003A000020200000201A0000201C00002070
:10206000180000201E000020160000200222B921C6
:10207000204602F046FC0D21204602F08AFC217A1F
:10208000204602F086FC00220121284602F0B9FC1D
:10209000814C002220700121284602F0B2FC6070C1
:1020A00022887E4BFFF779BB0222C021204602F036
:1020B00028FC0D21204602F06CFC217A204602F01B
:1020C00068FC00220121284602F09BFC724C002291
:1020D00020700121284602F094FC60702288704B29
:1020E000FFF75BBB0222C321204602F00AFC0D2150
:1020F000204602F04EFC217A204602F04AFC0022E3
:102100000121284602F07DFC634C00222070012151
:10211000284602F076FC60702288624BFFF73DBBD8
:102120000222C421204602F0ECFB0D21204602F0E1
:1021300030FC217A204602F02CFC002201212846A6
:1021400002F05FFC544C002220700121284602F06E
:1021500058FC6070B4F90020534BFFF7D6BB022245
:10216000C521204602F0CDFB0D21204602F011FCD6
:10217000217A204602F00DFC00220121284602F0BF
:1021800040FC454C002220700121284602F039FC19
:1021900060702288454BFFF700BB0222C621204613
:1021A00002F0AFFB0D21204602F0F3FB217A20461E
:1021B00002F0EFFB00220121284602F022FC364CFF
:1021C000002220700121284602F01BFC607022884A
:1021D000374BFFF7E2BA0222C721204602F091FBFB
:1021E0000D21204602F0D5FB217A204602F0D1FBDA
:1021F00000220121284602F004FC274C0022207016
:102200000121284602F0FDFB60702288294BFFF770
:10221000C4BA0222C821204602F073FB0D212046D9
:1022200002F0B7FB217A204602F0B3FB0022012125
:10223000284602F0E6FB184C0022207001212846B7
:1022400002F0DFFB607022881B4BFFF7A6BA022268
:10225000C921204602F055FB0D21204602F099FBD2
:10226000217A204602F095FB00220121284602F047
:10227000C8FB094C002220700121284602F0C1FB56
:10228000607022880D4BFFF788BA0222204602F0C8
:1022900038FBFF21FFF76AB9600E00204A000020DA
:1022A00048000020320000203400002030000020D0
:1022B0002E0000202C0000202A00002028000020F2
:1022C000F0B516464379027905469A420C46C3B0EA
:1022D0001DD002F0A3FBD0B1012E04BF0022154B8C
:1022E0002146284608BF1A70FFF7DAF80022617A03
:1022F00002A8D3B299420CD8C6B1FEF759F94FF4EF
:10230000807300930022637A02A9FEF7C3F943B0F9
:10231000F0BDA77925687B1CDBB2A371ED5D0132AE
:1023200000F8015BE5792B40A371E2E702A808F011
:10233000EDF8ECE77000002010B50C4B0C4C1A784F
:102340000C4B0D4853F822100122237802FA03F3B4
:102350008B4308BF1A464FF4005103F037FA237835
:10236000013303F01F03237010BD00BF350E0020A2
:10237000DE0B00207400002000100140F0B58C4BF3
:102380008C4C1B788BB003F0FF05002B40F02A81AA
:10239000012001F059FE4023202229461E200095ED
:1023A00001F090FF1623802214212846009501F0A9
:1023B00089FF4023522229465020009501F082FFD8
:1023C0007D4E2946282001F031FF7C4902A808F003
:1023D0002FFB96E80E00009502A801F011FF294698
:1023E000552001F023FF764902A808F021FB96E86A
:1023F0000E00009502A801F003FF1921282001F02A
:1024000015FF704B2021B3F900306F4A02A808F085
:102410007BFA94E80E00009502A801F0F1FE192164
:10242000552001F003FF694B2021B3F90030664AC3
:1024300002A808F069FA94E80E00009502A801F0DD
:10244000DFFE2521282001F0F1FE614B2021B3F9A8
:1024500000305D4A02A808F057FA94E80E00009593
:1024600002A801F0CDFE2521552001F0DFFE594BD9
:102470002021B3F90030544A02A808F045FA94E844
:102480000E00009502A801F0BBFE3121282001F0CA
:10249000CDFE514B2021B3F900304B4A02A808F081
:1024A00033FA94E80E00009502A81E2601F0A8FE5B
:1024B0003121552001F0BAFE484B2021B3F90030FC
:1024C000414A02A808F020FA94E80E0040F6FA7497
:1024D000434F009502A801F093FE3B88032273430B
:1024E000B3FBF4F3C3F13C0310463C21DBB200958F
:1024F00001F0A2FE7B8806227343B3FBF4F3C3F121
:102500003C0310463C21DBB2009501F095FEBB88F0
:1025100009227343B3FBF4F3C3F13C0310463C219F
:10252000DBB2009501F088FEFB880C227343B3FBFD
:10253000F4F3C3F13C0310463C21DBB2009501F0FB
:102540007BFE3B890F227343B3FBF4F3C3F13C03DF
:1025500010463C21DBB2009501F06EFE7B89122211
:102560007343B3FBF4F3C3F13C0310463C21DBB2ED
:10257000009501F061FEBB8915227343B3FBF4F3B0
:10258000C3F13C0310463C21DBB2009501F054FE40
:102590001822FB893C217343B3FBF4F31046C3F1CB
:1025A0003C030095DBB201F047FE0BB0F0BD00BF6D
:1025B000340E0020F4B90008E8B90008A8B40008F7
:1025C000ACB400085A0E0020B0B40008540E00202D
:1025D000580E0020520E0020560E0020500E0020F3
:1025E00094120020002001F02FFD02210125084651
:1025F00001F01CFE94E80E004548009501F000FE35
:102600000221242001F012FE424B20211B68424A85
:1026100002A808F079F994E80E00009502A801F0EC
:10262000EFFD1121022001F001FE94E80E003B486D
:10263000009501F0E5FD1121242001F0F7FD0522B0
:10264000374B20211B6802A803EB430393FBF2F3F3
:10265000344A08F059F994E80E00009502A801F0F8
:10266000CFFD2021022001F0E1FD94E80E002E486C
:10267000009501F0C5FD2021242001F0D7FD642143
:102680002A4B02A81A6892FBF1F301FB1322002ADD
:10269000B8BF524220210092254A08F035F994E84B
:1026A0000E00009502A801F0ABFD2F21022001F0E1
:1026B000BDFD94E80E001F48009501F0A1FD2F21FB
:1026C000242001F0B3FD1C4B1B78AB4211BF94E8F2
:1026D0000E000093194894E80E001CBF184800959E
:1026E00001F08EFD01240E237F2219460020009464
:1026F00001F0A2FD1D237F2219460020009401F065
:102700009BFD2C237F221946002000944BE700BF3D
:10271000B3B40008300E0020B8B40008C1B40008FB
:102720002C0E0020C6B40008D0B40008180C0020FD
:10273000D5B40008DFB40008E10B0020E4B40008C1
:10274000F0B4000837B5344C2378032B61D8DFE8A8
:1027500003F002151A27314A314B11781B788B424E
:1027600008D030484B1C415C03F00F0321B103211A
:102770002170137003B030BD0121F9E7FFF7FEFDB2
:1027800002232370F6E7284804F00AFC2028F1D140
:1027900001F080FC0028EDD00023244A1370F0E7FC
:1027A000214804F000FC224D10B14FF47A732B60E5
:1027B0001D4804F0F5FB202816D101F08BFB98B1E1
:1027C0001C4B1D4A01931D4B1D4900931D481E4B78
:1027D00001F0C8FB00231D4A1D4913700A7842F01E
:1027E00008020A702B60CCE72B680133B3F5FA7F3F
:1027F0002B60BFD90C4803F06FFA012002F0E8F912
:10280000094803F0C1F901F037FB01F055FB002343
:10281000E8E70023B5E700BFDD0B0020DC0B00205C
:102820003E0E00203F0E0020AC1400205D0E002064
:10283000D80B0020500E0020560E0020520E002013
:10284000580E00205A0E0020540E00205C0E00206E
:102850005E0E0020074B084A1B6812885A63074A1D
:102860001288DA63064A12889A63064A12881A6442
:10287000704700BF4C1300203C0E0020380E002093
:102880003A0E0020360E002013B50B4B0446009381
:102890004FF4AA71094B0A4A0A4808F035F84FF478
:1028A000AA7300220093204640F243130549FDF726
:1028B000F1FE02B010BD00BF3EB50008F9B400083B
:1028C00039B500083F0C002013B50A4B04460093AD
:1028D0004FF4AA71084B094A094808F015F84FF45B
:1028E000AA73002200932046B3230549FDF7D2FEC8
:1028F00002B010BD43B60008F9B4000839B50008AD
:102900003F0C00202DE9F84300241F460C70147082
:102910001C7047F23A53089D89462B80324906467F
:10292000904608F042F858B1043010F8013FE2B286
:1029300013F0DF0F01D0262B36D1002309F8023027
:1029400030462A4908F031F860B10023043010F80D
:10295000012FD9B212F0DF0F01D0262A2ED1002389
:1029600008F801303046224908F01FF858B100231A
:10297000C21C12F8011FD8B211F0DF0F01D02629B6
:1029800026D100233B5430461A4908F00EF848B1CE
:102990000023053010F8012F303AD1B209291DD992
:1029A00003B12B80BDE8F8832B2B08BF202309F847
:1029B000043001343F2CB8D12246BEE72B2A08BF91
:1029C000202208F8032001333F2BC0D11946C6E767
:1029D000F95401330F2BCCD11846D2E703EB830314
:1029E00002EB430293B2D5E7B8B60008BEB60008C2
:1029F000C4B60008C9B600082DE9F043344BA9B0AD
:102A00001E785EB100221A7047F23152314B3248C3
:102A1000198829B0BDE8F043FDF7D0BDDFF8BC90C0
:102A200099F80030002B42D02D4F3B78FF2B3ED140
:102A3000FDF7BEFD2B4C80462B49204607F0B5FF25
:102A40000546002836D04022314608A807F092FFFC
:102A50004022314618A807F08DFF102231460DEBB9
:102A6000020007F087FF0DF10E030093204604AB30
:102A700018AA08A9FFF746FF9DF8103033B1164B8E
:102A80000F22184604A907F07DFFC673BDF80E306B
:102A90000BB1104A13804046FFF716FF002318A918
:102AA00008A889F800303B702370FDF753FD29B06A
:102AB000BDE8F08320460D4907F077FF28B1404676
:102AC000FFF7E2FE3D702570F1E738702070EEE709
:102AD0003E0C00205E00002060000020930D0020CE
:102AE000940D0020950D0020D0B60008DAB600083D
:102AF00002780346032A1CD8DFE802F00F0214070D
:102B0000427842B903221A7005E041780122002977
:102B1000F9D101708270002070474278012AFAD101
:102B20000222F0E7407800220128ECD118709A7058
:102B300070470122E7E7000008B5837813B1838866
:102B40000A339BB20A4A83801378042B0DD90023E1
:102B50004FF400410748137002F032FE064B08B9EB
:102B6000587008BD01225A70FBE701331370F8E773
:102B7000D40B0020000C0140160E002073B53C4E13
:102B80003378DB0940D033783A4C23F0800333703C
:102B90002378394D013B23702B78013B2B70FDF7D7
:102BA00045FE3648FFF7C8FF354B1B7823B1354942
:102BB0000A885AB3013A0A80334890F84230222BEF
:102BC00009D0036831491A685B682023012280F824
:102BD000423006F0CEF92B782BB902232B703378D4
:102BE00043F040033370257875B90A232370337896
:102BF00043F020033370FFF79FFB254A137801331E
:102C0000DBB2092B17D8137002B070BD21480378CE
:102C10000133DBB2032B94BF1A461346027040F611
:102C2000B8320A800C214B431B4AD1184968D0584E
:102C3000FDF790FCC0E7194C15702378042B9CBF5E
:102C400001332370164B1D78002DDDD1FDF7FCFC00
:102C50000728D9D12378042BD6D94FF480732A467C
:102C60000093284609230F49FDF714FDCCE700BF68
:102C70005E0E00207300002072000020160E00205F
:102C80003C0C00205C000020BC120020280E00201C
:102C9000290E00203D0C0020C8CE00087000002046
:102CA000930D00200900002082787AB98388642B74
:102CB0000CD9B3F57A7F0AD20121074B1970074965
:102CC00082800B78B3FA83F35B090B707047FDD0F9
:102CD000014B1A70F3E700BF350E0020340E0020C0
:102CE0002DE9F04FAC4A87B013781B0740F13A84C6
:102CF000137823F008031370A84BA94A5968136886
:102D0000002B00F0BF804820CB1AB3FBF0F30093F8
:102D1000009B1160A3F57A7144F62063A14A0098E4
:102D200040F6B835914288BF18464FF47A73B0FB2D
:102D3000F3F30293029A9C4B4FF461611A6040F6E0
:102D4000FF72009099489A4E4388C4884089D31AEC
:102D5000141B121A22EAE272A2F59670684324EA62
:102D6000E474A4F596746C4323EAE373A3F59673B5
:102D700090FBF1F06B4394FBF1F493FBF1F38D4A7C
:102D800000F5167001B2118004F516748A4A21B25A
:102D9000118003F51673894A19B2118022181A445A
:102DA00003920399864A874D116087493268B1F9C9
:102DB00000B08649D5F800C0B1F90010059152EA7B
:102DC0000C0162D04FF05F0E64270BEB8B010EFB02
:102DD0000211059A91FBF7F102EB82020EFB0C2225
:102DE00092FBF7F22A6002F57A62B2F5FA5F88BFC9
:102DF00023226FF0C70588BF4A43754F316088BFF3
:102E00003A60744A744EB2F900205543019283220D
:102E100095FBF2F5714A1560326815443A6831271E
:102E200007FB05256E4A954232DC6E4A954231DB3E
:102E3000322295FBF2F540F2DC580027DFF8A8C1FA
:102E4000356064264445CCF80070D4BF00270127C4
:102E500095FBF6F64045C8BF0137644ADFF890E1BC
:102E600016609EF80090634A4345C8BF0137126858
:102E7000B9F1030F00F22082DFE819F00E00E40040
:102E8000E201170244F6206341E75946059AA9E793
:102E9000594DD0E7594DCEE7444503DD01238EF867
:102EA000003005E0564BB3F900305B42CCF80030FF
:102EB0004F4B54491F780968012F40F2DC5318BF6B
:102EC0004FF47A738E42504C40F3F98100230A4646
:102ED0002360DFF83881951BD8F800104C4B4D4823
:102EE000691A009A1D6081FB00010023FDF738F983
:102EF000494B05F19502B2F5957F1860236800F201
:102F0000EE814FF47A71009A6A4392FBF1F2134416
:102F1000424A9342B8BF134649F640429342A8BF83
:102F200013463F4A2360B2F9002042F21074534323
:102F30004FF47A7293FBF2F33A4A17F0FD0FB2F9AD
:102F40000020C8F8005005FB0233374AB2F90020D0
:102F500000FB023090FBF4F4344B1C6000F006825E
:102F600042F20F73984200F30083314B984280F293
:102F70000E83304B1D88304B651BB3F90030ED1AC2
:102F80002E4B1B88E41A2E4BB3F90030E41A164B73
:102F90001B681D44E41A12E25E0E0020001000E0DF
:102FA000D00B0020B882010058000020A41200209D
:102FB000140C0020BA120020B8120020B612002013
:102FC000040C0020100C00205A0E0020560E002089
:102FD000380C0020520E0020300C0020340C002051
:102FE00071A5AE028F5A51FDF00B0020180C002085
:102FF000E10B002044000020A0BB0D006044F2FF64
:103000003C00002034000020200C0020280C002070
:103010002C0C002040420F00240C0020C063FFFF56
:103020000C0C002054000020520000201C0C00203A
:10303000F1D8FFFF4E0000200A0C00204C000020B9
:10304000080C0020DFF8A08298F800407CB1A74966
:1030500002980B680344632B0B6011D9B3F5967F7C
:10306000FFF426AF002388F800300B6020E7DFF87C
:1030700080924D4506DA012388F800309B4B1C6096
:10308000C82215E7032F02D18EF8007010E7DFF891
:1030900064E2002F7DD1BEF8003001339BB2052BD6
:1030A000AEF8003009D90221934BAEF800701F70C2
:1030B000924B1F70924B1970FAE6924B924A1B6822
:1030C0001360924A1068924A1060502202FB01F786
:1030D00014224FF0640C02FB0B7797FBFCF78D4A30
:1030E0008D4C17608D4AB2F900102268514391FB54
:1030F000FCF1DFF82CC2AA0392FBFCF2BF1A894A4A
:103100003944B2F900702160B942C8BF3946C7F1ED
:10311000000C854AC8BF27608C45C8BFC4F800C0F2
:10312000B2F90040814AC8BF6146B2F90020002AC6
:103130006DD00028B8BF404290FBF2F0DFF8F0817C
:10314000DDF80890B8F800E07A4ACE441FFA8EFE07
:10315000BEF5FA7FA8F800E0B2F90020DFF8D8E168
:1031600057D3012205218EF80020744A11700022E5
:10317000A8F8002071490A78013AD2B20A700AB957
:103180008EF80020C8226E498A42B8BF0A465D49BF
:103190006BE74FF47A725343AEF80040684C04FB7F
:1031A00000330398674C93FBF0F30A2093FBF0F392
:1031B000554883EAE37703606348A7EBE37707604A
:1031C0006248B0F9000058432060614CB4F90040F7
:1031D0005C437C4394FBF2F25E4F5F4C2260B7F994
:1031E00000400CB901243C80104490FBF4F05B4A91
:1031F000CCF80000B2F90020904203DD1046CCF874
:10320000002002E052429042F8DB404A5CE7104660
:1032100094E79EF80080B8F1000FABD14C434849C9
:10322000024494FBF1F4BC42A8BF3C466445ACBFE9
:1032300012196244B2F57A7FA5DD4FF47A72A6E7DF
:1032400044453FF72BAE2F4B2C4A19681078444B5E
:10325000B3F9003090B900292749D8BF5B42CCF8B8
:1032600000300B780133DBB2222B03D8224A1370D3
:1032700000221DE600230B700123F8E701280ED180
:1032800000291D49C8BF5B42CCF800300B780133E0
:10329000DBB2452BEAD900230B700223E7E70029B4
:1032A000C8BF5B42CCF80030E2E7032F7FF4F6ADF5
:1032B000204BB3F90020FBE54FF00003EFE544F6A7
:1032C00083618D4205DD274BB3F900200023236085
:1032D000FFE55B429E42BFF6FCAD234BF4E70A22BA
:1032E000DB0093FBF2F31CE6CC0B0020C80B0020A4
:1032F00011B6FDFFC40B0020E00B0020DF0B002007
:10330000E10B0020EC0B0020000C0020C00B002083
:10331000F00B0020E40B0020E80B0020260000202A
:1033200048BE0800220000202400002038000020B1
:10333000BE0B00203A000020BD0B0020BC0B00207B
:1033400018FCFFFFF80B0020FC0B002040000020C1
:103350003E00002032000020F40B00202800002056
:103360003C000020300000202E000020944B1B6801
:10337000E518002DA4EB030410DD924B924A1B8844
:103380002B44B2F900501D44002C10DD8F4B904AA5
:103390001B882344B2F900401C4410E0F4D0894B50
:1033A000894A1B88EB1AB2F900505D1BECE706D086
:1033B000864B874A1B88E31AB2F900401C1B8548DC
:1033C000854BB0F90000854F039085481A68854BFE
:1033D000B0F9000039681B68049041EA0200184304
:1033E00000F0D8804FF05A080A2008FB01FC03992E
:1033F00008FB02F900FB01CC642108FB03F8019AE9
:10340000049B00FB029900FB03889CFBF1FC99FBE9
:10341000F1F998FBF1F8CDF808C0029B3B606E4BC8
:10342000C3F800906F4BC3F800806F4B1F68002FEC
:1034300000F0B7805F4407EBD7777F104FF48F7AA7
:1034400064220AFB06FA9AFBF2FA86FB0602664B36
:103450001F60F3174343A0FB060C06FB023156A383
:10346000D3E900236144FCF77BFE604BAAEB00002C
:10347000B3F800A05E4ABAF1950F00F2DB80BAF112
:10348000270F00F290805B49059EC1F800B05A49B1
:1034900064200E605149039E0E604F49019E0E60EC
:1034A0005049049E0E60232606FB0BF653490E601E
:1034B00096FBF0F652490E604B49C1F800B00AF194
:1034C000010A1FFA8AFABAF1960FA3F800A006D1F2
:1034D00064214C4B1B6893FBF1F34B490B80002399
:1034E00013604A4A13603F4B1A68494B1A6042F214
:1034F000283306F58C5614369E4205D900242546FD
:10350000444B1C60414B1C60434BBAF1950F1B8828
:1035100000F2D280002425463E4A14605A42954269
:10352000B8BF15469C42A8BF1C469442ABB2B8BF78
:1035300014463A49002D3A4AD5BF5B4213800B80AE
:103540000023D6BF00230B8013803649A3B2002C82
:10355000354AD5BF5B4213800B800023D6BF0023C2
:103560000B80138007B0BDE8F08F304B184A1D88E0
:10357000154B2544B3F90030B2F900201D442C4B03
:103580001B88234413440E4A14682D1B04E70024AF
:10359000254614E7039BDDF80490DDF810800293C4
:1035A0003BE75F464AE7BAF1310F88D91549381A27
:1035B0000F683844086082E7420A1B0400000000DC
:1035C000F00B00204A0000200A0C002048000020D8
:1035D000080C0020540E0020B40B0020B80B002073
:1035E000500E0020B00B0020AC0B0020A80B0020D8
:1035F0002C0E0020140C0020100C0020300C002099
:10360000180C0020A00B0020E20B0020300E002040
:10361000A40B0020200C002050000020380E0020B9
:10362000360E00203C0E00203A0E00204E000020F6
:103630004C000020244B1968C3F80080234BA8EBF2
:10364000010108FB08F8B3F9003009FB0988FB1AEF
:10365000029F1B1A09FB07F71D48B8FBF0F897FB00
:10366000F0F0A3EB08030344062091FBF0F10B44B8
:103670001360136840F6262203F21351914298BF5B
:103680000023009ADFF84C8083FB0231D81841EB0D
:10369000010CC01841EB0C0109A3D3E90023FCF78E
:1036A0005FFD6223D8F800705F43642397FBF3F754
:1036B0000744C8F800701AE79D42A8BF1D462DE7D1
:1036C000404B4C0000000000A40B0020E20B002047
:1036D00028512200300E002010B594B01422002191
:1036E0000CA807F047F9142200210DEB020007F0A7
:1036F00041F91022002101A807F03CF902244FF4FF
:1037000080330122CDE91143CDE90A234FF4E013C0
:103710000AA80E92139304F0C1FA08B172B6FEE73C
:103720000F23CDE905344FF480630790CDE90830CD
:10373000214605A804F074FC08B172B6FEE7122316
:1037400001934FF40043CDE9033001A804F024FDB8
:1037500008B172B6FEE714B010BD000080B5A74DE9
:1037600098B001F011FAFFF7B7FF1022002111A85D
:1037700007F000F9AB69002243F01003AB61AB69BD
:103780004FF4005103F010030293029BAB699C4875
:1037900043F02003AB61AB69002403F020030393E3
:1037A000039BAB69012743F00403AB61AB690226BD
:1037B00003F004030493049BAB6943F00803AB617B
:1037C000AB6903F008030593059B01F0FFFF00229E
:1037D0004FF400718B4801F0F9FF4FF40053884813
:1037E00011A9CDE91137CDE9134601F0A7FE4FF439
:1037F0000043844811A9CDE91134139401F09EFED1
:103800004FF400737F4811A9CDE91137CDE9134674
:1038100001F094FE6B6922463B436B616B69214664
:103820003B400B200193019B01F090FC0B2001F029
:10383000BDFC224621460E2001F088FC0E2001F03E
:10384000B5FC224621460F2001F080FC0F2001F03C
:10385000ADFC6D4A6D4BCDE9114413604FF480739C
:103860001394936014734FF4602314755460082408
:103870001046D361146101F0D7FB08B172B6FEE7C0
:10388000CDE91107139011A95F4801F061FA08B161
:1038900072B6FEE75C4811A9CDE9117601F058FA3D
:1038A00008B172B6FEE70325574811A91196129583
:1038B00001F04EFA08B172B6FEE7119504255248A0
:1038C00011A9129501F044FA08B172B6FEE71195FC
:1038D00005254D4811A9129501F03AFA08B172B6C2
:1038E000FEE711950625484811A9129501F030FA16
:1038F00008B172B6FEE711950725434811A9129544
:1039000001F026FA08B172B6FEE73F4811A9CDE9E9
:10391000115401F01DFA044608B172B6FEE70CAE70
:1039200001461022304607F025F81422214611A83E
:1039300007F020F847233648DFF8D8C008AFC0E9C1
:1039400000C3F92308947C60C0E90334C0E905444E
:10395000846004F005FE08B172B6FEE74FF48058AB
:1039600031462B48CDF8308004F0E0FE08B172B645
:10397000FEE7CDE9110011A9254804F0CEFF08B1FA
:1039800072B6FEE7CDE908003946214805F04AF84D
:10399000054608B172B6FEE701461022304606F031
:1039A000E9FF1422294611A806F0E4FF4FF0470969
:1039B0004FF08043184C0895C4E9003944F61F6362
:1039C00020467D60C4E90335A560A56104F0C8FD0B
:1039D00008B172B6FEE731462046CDF8308004F0DB
:1039E000A5FE08B172B6FEE7CDE9110011A9204687
:1039F00004F093FF90B172B6FEE700BF00100240E2
:103A000000100140000C014044150020002401403A
:103A1000DC130020002C014094130020CDE90800A5
:103A20003946204604F0FEFF044608B172B6FEE7B0
:103A300001461022384606F09DFF142221463046EA
:103A400006F098FF1C22214611A85B4D06940794AE
:103A500006F090FF594B2846C5E9003942F20F7332
:103A60000DF1180AC5E90334AC60AC6104F078FDCF
:103A700008B172B6FEE739462846CDF8208004F03A
:103A800055FE08B172B6FEE7284604F095FD08B170
:103A900072B6FEE7002331464748CDE90C3304F007
:103AA0003CFF08B172B6FEE7CDE906005146424838
:103AB00004F0B8FF024608B172B6FEE76023139027
:103AC000CDE91130159011A93B4804F0CDFD08B1A6
:103AD00072B6FEE70422384811A904F0C5FD08B10A
:103AE00072B6FEE70822344811A904F0BDFD08B102
:103AF00072B6FEE70C22304811A904F0B5FD044669
:103B000008B172B6FEE72C4800F00CFE4FF4E1332A
:103B10002B482C4DC0E90244C0E900530C2304613A
:103B2000C0E90534C46105F015F8044608B172B661
:103B3000FEE706F077FC24482449254BC0E90244FF
:103B4000C0E900134FF48043C0E90644C0E90434DF
:103B5000046202F019F8044608B172B6FEE71022BA
:103B6000014611A806F006FF47231A4D1A4A0C9485
:103B7000C5E9002342F20F7328467460C5E9033497
:103B8000AC60AC6104F0ECFC08B172B6FEE74FF437
:103B90008053284611A9119304F0C8FD08B172B6EC
:103BA000FEE7002331460B48CDE90C3304F03AFF21
:103BB000044698B172B6FEE74C13002000040040A2
:103BC000BC12002000380140AC1400200058004016
:103BD000801A06000413002000080040504806F038
:103BE000ABFC504804F0C6FB4F4804F0C3FB4F4801
:103BF00004F0C0FB21464D4804F012FF04214B485D
:103C000004F00EFF0821494804F00AFF0C21474840
:103C100004F006FF4FF400510122454801F0D6FDA3
:103C2000444800F00BFA444800F002FA434800F020
:103C3000F9F900F087FB424800F0F4F8414800F041
:103C4000F7F8414800F0FAF800F016F93F4A404B07
:103C5000104613603F4B53603F4B9360FCF7AEFD43
:103C60003E48FDF7CFFA3E48FDF7C6FA01223D492E
:103C70003D4805F07EF940F6B8323C4B3C491C709B
:103C80003C4B3D481C703D4B1A8001223C4B1A7046
:103C9000FCF760FC3B4B3C4A3C493D4800F01DFFB3
:103CA0003C4B3D4A3D493E4800F017FF40F201229F
:103CB0003C4B1C703C4B1C803C4B1C803C4B1C8088
:103CC0003C4B1C803C4B1A803C4A9C709C80D2F838
:103CD000FC3043F08073C2F8FC30394B5C601A68EA
:103CE00042F001021A60FEF749FFFCF7D3FDFEF730
:103CF00083FE002225492648FEF7E2FA01222749E1
:103D00002748FEF7DDFAFEF7A5FDFEF71BFDFEF7DF
:103D1000E7FF2948FEF7C8FFFEF7EAFEE3E700BF2A
:103D200011120008DC130020941300204C13002013
:103D3000001001405D0E00205112000879120008A9
:103D40005C0E002075120008951200081C0E002061
:103D50003D120008B1120008E5120008D112000857
:103D600051130008280E0020BC120020930D0020E3
:103D7000E0B600083D0C0020F3B600085C0000200F
:103D80003C0C0020641100206410002088120020E8
:103D90007C120020640F0020640E002070120020AE
:103DA000641200205E0E00203C0E0020380E002021
:103DB0003A0E0020360E0020160E002000ED00E026
:103DC000001000E00268084B10B59A420AD1074C77
:103DD0002078FCF74BFC2146BDE810400122044846
:103DE00005F0C7B810BD00BF00380140280E002004
:103DF000BC1200200368074A934209D11A685B6825
:103E00002023012280F842300349044805F0B1B86C
:103E1000704700BF00380140280E0020BC1200206F
:103E200072B6FEE7014B1860704700BFA415002072
:103E3000014B1860704700BFA0150020014B1860AF
:103E4000704700BF9C150020044A10B414680B464C
:103E5000A44601460122D02010BC6047A0150020D6
:103E60001346044A10B41468CAB2A446014610BCF2
:103E7000D02060479C15002013B500240DF10700E9
:103E80006B218DF80740FFF7DFFF04230DF10700DA
:103E90001A218DF80730FFF7D7FF0DF107001C211D
:103EA0008DF80740FFF7D0FF1B210DF10700FFF74A
:103EB000CBFF02B010BD00000122044B1A70044B6E
:103EC0001B680BB100221A70704700BFA4000020CD
:103ED000A415002008B51A4B19681A4B08781A78EF
:103EE00018B9012A23D0002008BD0020012A08703B
:103EF0001DD0022AF7D101201870134B13491A88DC
:103F0000D2BA0A605A881249D2BA0A609A8811490C
:103F1000D2BA0A601A891049D2BA0A605A890F497E
:103F2000D2BA9B890A600E4ADBBA1360DCE7022230
:103F30000E211A7004483B22FFF792FFD3E700BF1F
:103F4000A4150020A400002074150020981500205E
:103F500094150020901500208C1500208815002055
:103F60008415002070B5DDE9045410B10B4E36689D
:103F7000068011B10A480068088012B10949096831
:103F8000118013B1084A12681A8015B1074B1B68DB
:103F90002B8014B1064B1B68238070BD9815002040
:103FA00094150020901500208C1500208815002005
:103FB0008415002013B5064B8DF807001C680122FC
:103FC000002378200DF10701A04702B010BD00BF0B
:103FD000B419002013B5064B8DF807001C680122A8
:103FE000002378200DF10701A04702B010BD00BFEB
:103FF000B0190020044B10B41C68CAB2A446014694
:104000004023782010BC6047B4190020044B10B442
:104010001C68CAB2A44601464023782010BC604701
:10402000B0190020014B1860704700BFB019002084
:10403000014B1860704700BFB4190020014B186095
:10404000704700BFB819002000284FF4806214BFE9
:10405000FF210021014806F08DBC00BFB0150020F3
:1040600038B5B0240A4D2046FFF7A4FF0020FFF723
:10407000A1FF01341020FFF79DFFE4B22846802104
:10408000FFF7B8FFB82C05F18005ECD138BD00BFB3
:10409000B015002038B51C4B1C4C1A6823781178D9
:1040A00019B9012B0AD0002038BD0021013B117045
:1040B000032BF8D8DFE803F0020B1015144B187827
:1040C0005038C0B2FFF786FF02232370EBE70020D1
:1040D000FFF780FF0323F8E71020FFF77BFF04239F
:1040E000F3E70B4D0B4B2878802103EBC010FFF753
:1040F0008DFF01202B7820700133DBB2072B2B7052
:10410000D1D900232B70CFE7B8190020A5000020DB
:10411000A8150020B0150020030630B510D43F29A3
:104120000ED80124CB08074D00EBC3102B5C01F027
:10413000070104FA01F1A2420CBF0B438B432B543D
:1041400030BD00BFB01500202DE9F04F044689B006
:1041500008A800E90E009DF84830A4F1200502935C
:10416000EBB25E2B47D8079B23B3234413F8206C94
:10417000224AB2F8009009EB0603802B3BDC5388FF
:104180009DF815B0019303EB0B02402A33DC029B30
:104190004FF00008B3FA83FA0BFB05F54FEA5A1A01
:1041A0006D00C34509D8154B4E441E80204609B00A
:1041B000BDE8F08F9DF81460DAE70027069A535B9C
:1041C0000493019B08EB0302D3B20393BE4203D8CE
:1041D00008F101080235E4E7049B07EB090003FA44
:1041E00007F2130454BF5246029A0399C0B2FFF774
:1041F00093FF0137EAE70024D8E700BFAA150020A3
:1042000070B586B003AC84E80E009DF82860451EAA
:1042100015F8010F40B1009694E80E00FFF794FFE7
:10422000034628788342F3D006B070BD014B188056
:1042300059807047AA1500202DE9F74F9046A8EB4A
:104240000009A3EB010AB9F1000F1E46B8BFC9F17E
:104250000009BAF1000FB8BFCAF1000A804594BF47
:104260004FF0FF33012305460C468E4294BF4FF0BA
:10427000FF3B4FF0010B404631469DF83020009344
:10428000A9EB0A07FFF748FFCAF10003454504D12F
:10429000B44202D103B0BDE8F08F21462846019315
:1042A000FFF73AFF019B7900B3EB470FBFBF0098C0
:1042B000A7EB0A072D18EDB28945C2BF5C444F44F5
:1042C000E4B2E3E72DE9F0411446A042804628BF5E
:1042D000A046A042064638BF264699420C4628BF53
:1042E0001C46994238BF19460F469DF81820BC421B
:1042F00001D83F2C01D9BDE8F081454607E02B06E7
:1043000007D428462146FFF707FF0135EDB2B54235
:10431000F5D90134E4B2EAE710B504468120FFF78D
:1043200049FE2046BDE81040FFF744BE034628B1D1
:104330000123AF20024A5371FFF73CBEAE20F9E7DC
:10434000AA15002008B5642000F042FC0020FFF709
:10435000EDFF2020FFF72EFE0020FFF72BFEB02000
:10436000FFF728FEC820FFF725FE0020FFF722FEFA
:104370001020FFF71FFE4020FFF71CFEFF20FFF775
:10438000CBFFA120FFF716FEA620FFF713FEA82003
:10439000FFF710FE3F20FFF70DFEA420FFF70AFEF7
:1043A000D320FFF707FE0020FFF704FED520FFF71C
:1043B00001FEF020FFF7FEFDD920FFF7FBFD2220D4
:1043C000FFF7F8FDDA20FFF7F5FD1220FFF7F2FD09
:1043D000DB20FFF7EFFD2020FFF7ECFD8D20FFF73E
:1043E000E9FD1420FFF7E6FD0120FFF79FFF002005
:1043F000FFF72AFEFFF734FE0022034B1A805A8093
:1044000001221A7108BD00BFAA1500200E4B82B010
:104410009A6942F001029A619A6902F001020092DF
:10442000009ADA6942F08052DA61DB69074A03F0E8
:1044300080530193019B536823F0E06343F0806352
:10444000536002B0704700BF0010024000000140FE
:1044500030B5054687B01022002102A806F08AFA7E
:104460002A68204B9A423BD103F56C439A691E4857
:1044700042F400729A619A6902A902F400720092F1
:10448000009A9A69194C42F004029A619B69FF22D2
:1044900003F004030193019B0323CDE9022301F000
:1044A0004DF880204FF480720023C4E903024FF4DA
:1044B00080620F492046C4E90013C4E90523A360C4
:1044C000E36100F0A7FE08B1FFF7AAFC002212206A
:1044D0002C621146656200F039FE122000F066FE83
:1044E00007B030BD00240140000801400015002045
:1044F0000800024030B5054687B01022002102A80E
:1045000006F038FA2A682E4B9A4256D12D4C4FF4B9
:104510004061A3692C4843F00803A361A36903F039
:1045200008030093009B1223CDE90213032302A981
:10453000059301F003F8E369802243F48003E3610B
:10454000E369224803F480030193019B0023204C7C
:10455000C4E900032046C4E90323C4E90533A3608A
:10456000E36100F057FE08B1FFF75AFC1023194A27
:10457000AC636562184CC4E9002300238022204606
:10458000C4E90232C4E90433C4E9063300F042FE50
:1045900008B1FFF745FC0022212011466C636562DB
:1045A00000F0D4FD212000F001FE0022222011465F
:1045B00000F0CCFD222000F0F9FD07B030BD00BFB7
:1045C0000058004000100240000C0140580002401A
:1045D0006814002044000240241400200268114B9B
:1045E00010B59A4204461CD10F4A4FF48061D3693A
:1045F0000E4823F48003D36101F074F84FF4006196
:104600000A4801F06FF8A06B00F034FE606B00F018
:1046100031FE212000F0D8FDBDE81040222000F03E
:10462000D3BD10BD0058004000100240000C0140F6
:104630001FB50368374A93422CD1374B18209A692B
:1046400042F400629A6100229B69114603F4006300
:104650000093009B00F07AFD182000F0A7FD0022D7
:104660001920114600F072FD192000F09FFD002274
:104670001A20114600F06AFD1A2000F097FD002272
:104680001B20114600F062FD1B2005B05DF804EB15
:1046900000F08CBDB3F1804F11D103F50433DA691A
:1046A0001C2042F00102DA610022DB69114603F0AE
:1046B00001030193019B00F049FD1C20E5E7174A27
:1046C000934210D1144B1D20DA6942F00202DA61E4
:1046D0000022DB69114603F002030293029B00F003
:1046E00035FD1D20D1E70E4A934210D10A4B1E2002
:1046F000DA6942F00402DA610022DB69114603F054
:1047000004030393039B00F021FD1E20BDE705B0C9
:1047100000BD00BF002C014000100240000400401A
:104720000008004010B5044686B01022002102A8FF
:1047300006F020F92268114B9A421CD103F503338D
:104740009A690F4842F008029A619B69332203F08C
:1047500008030193019B022302A9CDE902230593DB
:1047600000F0ECFE074A536823F4406343F0E06333
:1047700043F40063536006B010BD00BF0004004066
:10478000000C01400000014010B5044686B0102224
:10479000002102A806F0EEF822681B4B9A4230D1A5
:1047A00003F558439A69194842F480429A619A691C
:1047B00002A902F480420092009A9A69002442F011
:1047C00004029A619B694FF4007203F004030193A1
:1047D000019B0223CDE902230323059300F0AEFEE3
:1047E0004FF48063094802A9CDE90234049400F033
:1047F000A5FE25202246214600F0A8FC252000F039
:10480000D5FC06B010BD00BF0038014000080140D3
:10481000FEE7FEE7FEE7FEE7FEE7704770477047FA
:1048200000F0C4B9014800F0F1BD00BF0015002040
:10483000014800F0EBBD00BF24140020014800F047
:10484000E5BD00BF68140020014800F001BA00BFB8
:1048500044150020014802F037BC00BFB0280020FA
:10486000FFF7F8BF014803F0B4BD00BFDC13002020
:10487000FFF7F8BFFFF7F6BFFFF7F4BF014803F0FB
:10488000A8BD00BF94130020014803F0A2BD00BFE3
:104890004C130020014803F09CBD00BF041300200E
:1048A000014801F083BE00BFAC140020014802F0B3
:1048B000D7BA00BFAC140020014804F0F7B900BF1C
:1048C000BC1200200A4A0346106810B508B909480E
:1048D00010600949094C0344091B8B4206D906F0B4
:1048E0007BF80C2303604FF0FF3010BD1360FCE732
:1048F000BC190020D02C0020005000200004000033
:1049000070470346002030B5187258791C68451C62
:104910005D715525987125545879DC790132204014
:10492000451C5D714E251C68D2B225545879DC793E
:104930002040451C5D7145251C6825545879DC795B
:104940002040451C5D7152251C6825545879DC793E
:1049500020401C68451C5D7122545879DC794A401E
:104960002040451C5D713A251C6825545879DC7936
:1049700020401C68451C5D7121545879DC79204029
:10498000587107205872187A504080F0360018721B
:1049900030BD034610B5427A013242725A7900683E
:1049A000541C5C7181545A79D87902405A711A7A30
:1049B00081EA0200187210BD002337B58DF8073068
:1049C0009DF80730CB5C13B9007A03B030BD437A51
:1049D0009DF8074001334372437902685D1C4571BD
:1049E0000C5DD4544379C27913409DF8072043717C
:1049F000531CDBB28DF807308B5C027A5340037294
:104A0000DEE7034610B5C479807901442140186877
:104A10009971405C11440C409C7110BDF0B50024AC
:104A2000052645790379AB4201D10020F0BD827A99
:104A3000072A50D8DFE802F0040F1C22282D4F3E31
:104A40000268D25C552A01D101228272C2790133F7
:104A500013400371E6E70268D25C4E2A01D10222BC
:104A6000F3E7552AF2D000228272013BDBB2EDE778
:104A70000268D25C452A1BD10322E6E70268D25CB9
:104A8000522A15D10422E0E70268D25C8672427293
:104A9000DCE70268D25C3A2A0AD10721C279817226
:104AA000591C0A408271427A82F036020272CDE7C6
:104AB0008472DAE7427A0768013AD2B2017A427226
:104AC0001AB1FA5C51400172C0E78272FA5C8A4204
:104AD000BCD10120AAE78472B8E710B502604FF09C
:104AE0007F440022446002818272C1E900340A815D
:104AF0008A7210BDFFF704FF0B480C490C4A0023D3
:104B000002E0D458C4500433C4188C42F9D3094A83
:104B1000094C002301E013600432A242FBD305F0EC
:104B200061FFFEF71BFE7047000000207C020020A2
:104B300040CF00087C020020D02C0020FEE70000BF
:104B400038B50E4B05461A784FF47A73B3FBF2F37F
:104B50000B4A1068B0FBF3F000F048FB044658B96C
:104B60000F2D09D8024629464FF0FF3000F0EEFA2B
:104B70002046044B1D6038BD0120FCE7AC0000203E
:104B8000A8000020B0000020074A08B513680320E1
:104B900043F01003136000F0C7FA0F20FFF7D0FFB7
:104BA000FFF734FC002008BD00200240034A044BFC
:104BB00011681B780B441360704700BFC0190020B8
:104BC000AC000020014B1868704700BFC0190020DE
:104BD00038B50446FFF7F6FF0546631C1EBF044BBD
:104BE0001B78E418FFF7EEFF431BA342FAD338BD4E
:104BF000AC000020436A10B59A6A12F0500F1BD126
:104C00009A6A42F400729A621A68926802F4602208
:104C1000B2F5602F0CD11A7B52B99A6A22F48072D5
:104C20009A629A6AD2045EBF9A6A42F001029A625C
:104C30001846FCF7D1FB10BD1B6ABDE810401B6B8A
:104C40001847704708B5406AFFF7FBFF08BD70477B
:104C5000036870B51D685E680446B00626D5A907CE
:104C600024D5A26AD2065EBFA26A42F40072A26292
:104C70009A6802F46022B2F5602F10D1227B72B9DB
:104C80005A6822F020025A60A36A23F48073A36258
:104C9000A36AD8045EBFA36A43F00103A36220465F
:104CA000FCF79AFB6FF0120223681A60310630D5C8
:104CB0006A072ED5A36ADB065EBFA36A43F40053DE
:104CC000A36223689A6802F4E042B2F5E04F0AD08A
:104CD0005A68500516D49A6802F46022B2F5602F23
:104CE00010D1227B72B95A6822F080025A60A36AFE
:104CF00023F48053A362A36AD9055EBFA36A43F07D
:104D00000103A362204600F00DFA6FF00C02236845
:104D10001A6072060CD5EB070AD5A36A204643F445
:104D20008033A362FFF793FF6FF0010223681A60DC
:104D300070BD7047406A08B5836A43F040038362E0
:104D4000C36A43F00403C362FFF7F3FF08BD00002A
:104D5000002373B5019390F824300446012B6CD0E6
:104D6000012380F824304D680268062D086805EBA1
:104D7000850322D81F26556B053B9E4025EA060574
:104D800000FA03F32B43536309288B6800EB4005BB
:104D90004FF0070129D9D6681E3DA94026EA010136
:104DA000AB400B43D360A0F11003012B25D90020A9
:104DB000002384F8243002B070BD0C2D4FF01F0585
:104DC00009D8166B233B9D4026EA050500FA03F33C
:104DD0002B431363D8E7D66A413B9D4026EA05057D
:104DE00000FA03F32B43D362CEE71069A94020EA0F
:104DF0000101AB400B431361D9E7114B9A4216D125
:104E000093681B02D3D49368102843F40003936083
:104E1000CDD10C4B0C4A1B68B3FBF2F30A2253436F
:104E20000193019B002BC2D0019B013BF8E7A36AD1
:104E3000012043F02003A362BAE70220BBE700BFD2
:104E400000240140A800002040420F00002337B595
:104E50000193036804469A68D20702D5002003B084
:104E600030BD9A6842F001029A60144B144A1B68E4
:104E7000B3FBF2F30193019BE3B9FFF7A3FE0546F1
:104E800023689B68DB07E9D4FFF79CFE401B0228E0
:104E9000F6D923689B6813F00103F1D1A26A0120BF
:104EA00042F01002A262E26A84F8243042F0010269
:104EB000E262D4E7019B013BDCE700BFA8000020D1
:104EC00040420F002DE9F0413F4B904602680446F6
:104ED0009A420F4602D03D498A4203D15B6813F4DF
:104EE000702F6DD194F82430012B6BD00123204614
:104EF00084F82430FFF7AAFF064600285DD1A56A92
:104F00002168324B25F4706525F0010545F4807564
:104F10009942A56204D12C4A536813F4702F3ED1F4
:104F2000A36A23F48013A3624B685A0505D5A36ACC
:104F300023F4405343F48053A362A36A206A13F41A
:104F4000805318BFE36A3A4618BF23F00603E362B2
:104F5000002384F824301E4B4C3183621D4BC36206
:104F60001D4B03636FF0020341F84C3C51F8443C85
:104F700043F4807341F8443C434600F0A5F92368AC
:104F80009A6802F46022B2F5602F9A680CBF42F46E
:104F9000A00242F480129A603046BDE8F081A36A14
:104FA00043F48013A36253685B0541BFA06A20F4F9
:104FB000405040F48050A062BFE7002384F82430C2
:104FC0000126E9E70226E7E7002401400028014026
:104FD000F54B0008454C0008354D000838B503680E
:104FE00004469A68D10701D4002038BD9A6822F09F
:104FF00001029A60FFF7E6FD054623689B68DB0720
:10500000F2D5FFF7DFFD401B0228F6D923689B6825
:10501000DA07F2D5A36A012043F01003A362E36A22
:1050200043F00103E362E0E7F8B5044600286DD0E1
:10503000836A23B9C36280F82430FFF709FA204657
:10504000FFF7CCFFA36A13F0100361D100285FD1F2
:10505000A26A616822F4885222F0020242F002023F
:10506000E569A668A262227B2943B6F5807F41EA02
:10507000420136D0771E7D427D412D02277D012FD2
:1050800006D182BBA269013A45EA423242F4006588
:105090002268B6F5807F576827F4694745EA070517
:1050A000556097681D4D05EA070545EA01059560BD
:1050B00001D0012E02D12369013B1B05D56A25F4DD
:1050C00070052B43D3629268154B1340994213D15C
:1050D0000023E362A36A23F0030343F00103A36206
:1050E000F8BD3546CAE7A26A42F02002A262E26A2F
:1050F00042F00102E262CBE7A36A23F0120343F01D
:105100001003A362E36A43F00103E3620120E7E7CF
:10511000A36A43F01003A362F8E700BFFDF7E1FFC5
:10512000FE0E1FFF7047000007490302CA6803F420
:10513000E06322F4E0621204120C134343F0BF63F5
:1051400043F40033CB60704700ED00E0154B30B501
:10515000DC68C4F30224C4F10703251D042B28BF17
:105160000423062D4FF0FF3594BF0024033C05FABD
:1051700003F321EA0303A54022EA0502A340002825
:1051800043EA0203ACBF00F16040074A4FEA031351
:10519000DBB2ABBF00F5614000F00F0080F80033D8
:1051A000135430BD00ED00E014ED00E0002807DBF3
:1051B00001234109034A00F01F00834042F82130D7
:1051C000704700BF00E100E000280CDB0122064927
:1051D000430900F01F008240203341F82320BFF331
:1051E0004F8FBFF36F8F704700E100E00138B0F1DF
:1051F000807F0BD24FF0E023F021054A586182F8FE
:1052000023100020072298611A617047012070471F
:1052100000ED00E0034610B530B301681420134AD6
:105220000A44B2FBF0F292001A64114ADA630222D5
:1052300083F82120D3E901242243DC680868224353
:105240001C696FF30D1022435C6922439C69224361
:10525000DC69224302430A6000200122986383F83C
:10526000200083F8212010BD0120FCE7F8FFFDBFDE
:105270000000024010B508B30168114A0B680A44E7
:1052800023F001030B6000230B604B608B60CB604D
:105290001421B2FBF1F201210A4C9200026401FADE
:1052A00002F2C46362608363C0E90A33C0E90C336D
:1052B00080F8213080F82030184610BD0120FCE72E
:1052C000F8FFFDBF00000240F0B590F82040012C2F
:1052D00034D0012480F8204090F82140012CE5B220
:1052E0004FF0000428D1022680F82160846304680E
:1052F000266826F001062660D0E90F67BD4075607C
:1053000063604368102BC36A0BBFA260A160E160B9
:10531000E2604BB1236843F00E0300202360236852
:1053200043F001032360F0BD236823F004032360EE
:10533000236843F00A03F0E780F820400220F2E7F8
:1053400090F821200346022A06D00422826301201D
:10535000002283F8202070470268C06B116821F09A
:105360000E011160116821F00101116001211A6C18
:1053700001FA02F24260002083F82110E8E7000001
:1053800008B590F82130022B03D004238363012059
:1053900008BD03681A6822F00E021A601A6822F02B
:1053A00001021A60174A93421FD0143293421ED052
:1053B000143293421DD0143293421DD014329342C2
:1053C0001DD01432934214BF4FF080734FF48013FA
:1053D0000D4A5360012380F82130002380F82030EB
:1053E000436B03B198470020D2E70123F0E7102375
:1053F000EEE74FF48073EBE74FF48053E8E74FF4A8
:105400008033E5E7080002400000024070B4042544
:10541000C66B026C3468036895402542196832D027
:105420004D0730D51A6896065EBF1A6822F004024E
:105430001A603E4A934219D01432934218D0143263
:10544000934217D01432934217D01432934217D09C
:105450001432934214BF4FF080634FF48003344AF8
:105460005360C36A002B5ED070BC18470423F6E774
:105470004023F4E74FF48063F1E74FF48043EEE715
:105480004FF48023EBE702259540254235D08D0768
:1054900033D51A68940606D41A6822F00A021A60F4
:1054A000012280F82120214A934219D014329342DC
:1054B00018D01432934217D01432934217D01432BA
:1054C000934217D01432934214BF4FF000734FF43D
:1054D0000013174A5360002380F82030836AC1E725
:1054E0000223F6E72023F4E74FF40073F1E74FF4CB
:1054F0000053EEE74FF40033EBE7082595402542D3
:1055000011D009070FD5196821F00E011960012388
:1055100003FA02F27260836380F82130002380F87E
:105520002030036B9EE770BC704700BF080002404C
:105530000000024090F82100704700002DE9F74F6D
:1055400000244FF00F0E2646DFF884C1614B00F1B6
:1055500004080A6832FA06F502D103B0BDE8F08FFC
:10556000012505FA06F702EA070537EA020276D1B5
:105570004A68032A07D8013A022A00F28380DFE84A
:1055800002F091969C00122A00F0948069D8112AAA
:1055900000F08A80FF2D94BF8146C1464FEA860203
:1055A000D9F8007088BF203A0EFA02FA27EA0A07F3
:1055B00004FA02F21743C9F80070D1F8049019F008
:1055C000805F4CD0DCF8182026F0030742F001027F
:1055D000CCF81820DCF8182007F1804702F001020F
:1055E000019207F5803706F0030A019A4FEA8A0A0A
:1055F000BA680EFA0AFB22EA0B0B374A904260D0D7
:1056000002F5806290425ED002F5806290425CD0EA
:1056100002F58062904214BF0422032202FA0AF2C9
:1056200042EA0B02BA609A6819F4801F14BF2A4339
:10563000AA439A60DA6819F4001F14BF2A43AA43E8
:10564000DA605A6819F4003F14BF2A43AA435A602B
:105650001A6819F4803F14BF2A43AA431A6001361E
:1056600077E7DFF878904A450CD014D8A9F580196F
:105670004A4507D009F570294A4503D0A9F5801994
:105680004A4587D18A68D2B1012A4FF008040CBF7D
:10569000076147617EE7DFF848904A45F2D009F597
:1056A0008039EDE7CC6875E7CC68043472E7CC68E4
:1056B00008346FE7CC680C346CE700246AE70424F4
:1056C00068E70022AAE70122A8E70222A6E700BFB6
:1056D00000100240000401400008014000002210B8
:1056E000000031102DE9F74F4FF0040B00224FF06E
:1056F000010A4FF00F0800EB0B0301932E4B31FA18
:1057000002F402D103B0BDE8F08F0AFA02F70F40AD
:1057100049D022F0030404F1804404F5803402F0FF
:10572000030CA5684FEA8C0C08FA0CF909EA050E7F
:10573000224DA84239D005F58065A84237D005F53D
:105740008065A84235D005F58065A84214BF0425C0
:10575000032505FA0CF575456FEA07060FD11D689C
:1057600035401D605D6835405D60DD683540DD6059
:105770009D6835409D60A56825EA0905A560FF2F55
:1057800094BF0746019F4FEA82043D6888BF203CD2
:1057900008FA04FC25EA0C050BFA04F425433D60E5
:1057A000C4683440C4600132A9E70025D1E701256F
:1057B000CFE70225CDE700BF00040140000801400B
:1057C00080680840003818BF012070470AB10161A5
:1057D00070470904FBE7016800224B6913F48063FA
:1057E00010D06FF480634B612023026380F83D305A
:1057F00080F83E20036C80F83C2043F004030364EF
:1058000001207047184670472DE9F84606460F46B6
:1058100091461D464FEA114A3368BAF1010F39D15A
:105820005C6927EA0404A4B2B4FA84F46409A145CB
:1058300001D0002024E06A1CEFD0FFF7C3F9089BD9
:10584000C01AA84201D8002DE6D1BAF1010F336881
:1058500018D15B6927EA03039BB2B3FA83F35B09B0
:105860009945D9D1002320220120336386F83D20B9
:1058700086F83E30326C86F83C3042F020023264CA
:10588000BDE8F8869B69DB43C3F3400383F0010363
:10589000DBB2E5E79C69E443C4F3400484F001040F
:1058A000E4B2C4E72DE9F04104460F461646984697
:1058B0002568686927EA000080B2C0B16B695A05A3
:1058C00017D52B68202243F400732B606FF480639C
:1058D0006B610023236384F83D2084F83E30236C01
:1058E00043F0040323640023012084F83C30BDE826
:1058F000F081731CDDD0FFF765F9A0EB0800B04222
:1059000001D8002ED4D123685A6927EA020292B244
:10591000002ACDD000232022236384F83D2084F880
:105920003E30236C1343DDE770B504460D46164642
:1059300023685B691B0601D500201EE02046FFF7A7
:105940004AFFC8B96A1CF3D0FFF73CF9801BA84294
:1059500001D8002DECD123685B6913F08003E7D1F7
:105960002022236384F83D2084F83E30226C84F8A2
:105970003C3042F020022264012070BD2DE9F0434A
:10598000154602689946136885B043F48073136026
:10599000DDE90C780E463B4600224FF00111CDF8B0
:1059A00000800446FFF730FF236838B11B68DB0531
:1059B00002D54FF400732364032620E006F0FE06B0
:1059C0001E613A46434620461849FFF76BFFA8B9C7
:1059D000236803905A69394603929B6942460393B0
:1059E0002046039BFFF7A0FF064660B1236C042B03
:1059F00001BF2268136843F4007313600126304628
:105A000005B0BDE8F083B9F1010F236802D1EDB212
:105A10001D61F4E72A0A1A61394642462046FFF71B
:105A200083FF0028E2D12368F1E700BF02000100F4
:105A30002DE9FF479A46DDE90C78036815461A6898
:105A40000E4642F480621A601A684FF0011142F467
:105A500080721A603B460022CDF800800446FFF7B2
:105A6000D3FE236848B11B68DB0548BF4FF40073C1
:105A70004FF0030048BF236421E05FFA86F906F087
:105A8000FE061E613A46434620462949FFF70AFFB3
:105A9000A0B9236803905A69394603929B6942462C
:105AA00003932046039BFFF73FFF58B1236C042B61
:105AB00001BF2268136843F400731360012004B02F
:105AC000BDE8F087BAF1010F23681AD1EDB2424662
:105AD000394620461D61FFF727FF02460028E5D121
