:020000040800F2
:1000000000500020294D0008454A0008474A0008D2
:10001000494A00084B4A00084D4A00080000000009
:100020000000000000000000000000004F4A00082F
:10003000514A000800000000534A0008554A0008D1
:10004000714D0008714D0008714D0008714D000898
:10005000714D0008714D0008714D0008714D000888
:10006000714D0008714D0008714D0008594A000893
:10007000714D0008714D0008654A0008714A00087A
:10008000714D0008714D00087D4A0008894A00083A
:10009000954A0008714D0008714D0008714D000827
:1000A000994A0008A54A0008A94A0008AD4A000874
:1000B000B14A0008BD4A0008C94A0008714D00084D
:1000C000714D0008D54A0008E14A0008714D00084A
:1000D000714D0008ED4A0008714D0008714D00088F
:1000E000714D0008714D0008714D000800000000BE
:1000F0000000000000000000000000000000000000
:0C01000000000000000000005FF808F1A3
:1001100010B5054C237833B9044B13B10448AFF341
:1001200000800123237010BD5C020020000000004D
:1001300038B5000808B5034B1BB103490348AFF3BA
:10014000008008BD000000006002002038B50008F3
:10015000034613F8012B002AFBD1181A0138704707
:100160007BB972B90029BEBF00204FF0004106E004
:1001700008BF00281CBF6FF000414FF0FF3000F0B7
:10018000B9B9ADF1080C6DE904CE002909DB002BEB
:100190001ADB00F035F8DDF804E0DDE9022304B0F5
:1001A0007047404261EB4101002B1BDB00F028F857
:1001B000DDF804E0DDE9022304B0404261EB4101D7
:1001C000524263EB43037047524263EB430300F038
:1001D00017F8DDF804E0DDE9022304B0404261EBEA
:1001E00041017047524263EB430300F009F8DDF828
:1001F00004E0DDE9022304B0524263EB430370479D
:100200002DE9F047089D0F4604468E46002B48D145
:100210008A42164661D9B2FA82F24AB1C2F120038B
:1002200001FA02FE20FA03F3964043EA0E0E9440D0
:100230004FEA164CBEFBFCF1B7B20CFB11EE01FB12
:1002400007F0230C43EA0E43984209D9F31801F151
:10025000FF3E80F0ED80984240F2EA80023933445C
:100260001B1AB3FBFCF00CFB103300FB07F7A4B226
:1002700044EA0344A74209D9341900F1FF3380F05E
:10028000D980A74240F2D6803444023840EA014087
:100290000021E41B1DB10023D440C5E90043BDE8A3
:1002A000F0878B4206D90DB1C5E90001002108464F
:1002B000BDE8F087B3FA83F1002947D1BB4202D3EE
:1002C000824200F20481841A67EB03020120964601
:1002D000002DE4D0C5E9004EE1E7002A00F090804F
:1002E000B2FA82F2002A40F0A780881B0121370C65
:1002F0001FFA86FEB0FBF7FC07FB1C00230C43EA49
:1003000000430EFB0CF0984207D9F3180CF1FF38AC
:1003100002D2984200F2E080C4461B1AB3FBF7F009
:1003200007FB10330EFB00FEA4B244EA0344A645CB
:1003300007D9341900F1FF3302D2A64500F2C98073
:100340001846A4EB0E0440EA0C40A3E7C1F12006D6
:100350008B4022FA06FC4CEA030C27FA06FA4FEA15
:100360001C49BAFBF9F88F4020FA06F309FB18AADA
:100370001FFA8CFE3B4300FA01F708FB0EF01C0C41
:1003800044EA0A44A04202FA01F20BD91CEB04042D
:1003900008F1FF3A80F09980A04240F29680A8F1DF
:1003A00002086444241A98B2B4FBF9F309FB13441D
:1003B00003FB0EFE40EA0444A64508D91CEB0404E6
:1003C00003F1FF307FD2A6457DD9023B644443EA66
:1003D0000840A4EB0E04A0FB028E74454346F14690
:1003E00061D35ED055B1FA1A64EB090404FA06F63B
:1003F00022FA01F31E43CC40C5E9006400214EE718
:1004000043084FEA510C43EAC1710A0C42EA0C421C
:100410008BB2C407B2FBF6F143EA0243BCFBF6FC25
:10042000B646304637461F22181A41EA0C4161E7AA
:10043000714615E7184629E7C2F1200321FA03F0B7
:10044000964024FA03F397403B43370CB0FBF7F890
:1004500007FB18001FFA86FE190C41EA004108FB51
:100460000EF0884204FA02F43AD9711808F1FF3C00
:1004700001D288421ED8091AB1FBF7F808FB0EF02A
:1004800007FB18119BB243EA014383422FD2F318B2
:1004900008F1FF31C8D28342C6D2A8F10201334429
:1004A000C2E747459ED2B8EB02036EEB0C0E013853
:1004B000F14697E7301A0144A8F1020CB1FBF7F8B6
:1004C00008FB0EF0DCE7034681E7D0466AE7084602
:1004D000FEE63444023834E7ACF1020C33441CE746
:1004E000091AC446B1FBF7F808FB0EF0C8E741460D
:1004F0009AE700BF704700BF00220A4930B50B8859
:10050000094D013810F8014F14B902B10B8030BD0C
:100510005A1C92B2B2F5806FEC5414BF13460023FC
:100520000122EFE78A02002092020020074A10B55C
:100530001188074C4B1C9BB2B3F5806F138008BF2A
:100540000023605408BF138010BD00BF8A02002042
:100550009202002038B500240D460E4B01461C7057
:100560000D4B3F220D481C700AF026FB0B4B1F223F
:1005700029460B4883F83F400AF01EFB3222084B05
:10058000DC77084B1A601422074B1A70074B1C705B
:1005900038BD00BF7C0B0020960A0020230B0020F2
:1005A000030B0020780B00207D0B00208802002028
:1005B000014B1878704700BF950A0020194B70B5A1
:1005C0005B6806460D4614463BB347F23053164966
:1005D0001648002A08BF1C460AF044FB0F22314689
:1005E00013480AF0E9FA0023114A1249D373284646
:1005F0000A220AF05FFA0A2220460F490AF05AFA44
:100600000E4B1B7863B10E4B187810F0020003D02C
:10061000102206200B4B1A7070BD4FF0FF30FBE725
:100620000120F9E77C02002050B5000805000020F9
:10063000F30A0020ED0A0020D70A0020230B002037
:100640007C0B00207D0B0020064B5B683BB1064B0A
:100650001B7813F0400F0CBF0520072070474FF0A8
:10066000FF3070477C0200207C0B0020074A10B549
:100670001188074C4B1C9BB2B3F5806F138008BFE9
:100680000023605408BF138010BD00BF90020020FB
:10069000920600202DE9FF471F463D4B04465B684C
:1006A00088461546BDF83090002B6CD0394EDFF8E7
:1006B000E8A033789AF8001003F040020A4365D0AE
:1006C0001B0758D40A2201A938460AF0F3F901A8F9
:1006D000FFF73EFD421ED2B2032A4AD82F48FFF749
:1006E0000BFF9AF8003053B10A22694620460AF0FF
:1006F000E1F96846FFF700FF2C20FFF717FF01A87C
:10070000FFF7FAFE2648FFF7F7FE002211462548BC
:10071000DFF894C0038894B2A74216D801B10380D1
:100720003378224C23F00C0343F00C03337023681E
:100730003BB11F489847236801A8984723681D4884
:100740009847092004B0BDE8F0875C1CA4B2B4F55A
:10075000806F08BF0024691C18F8055089B20CF896
:1007600003500132494514BF0D460025234601219F
:10077000D1E70B20E6E70D4B1B680BB90820E1E73A
:100780000D489847FAE74FF0FF30DBE70520D9E73F
:100790007C0200207C0B0020960A0020C7BB0008CA
:1007A00054B500088A02002092020020640B002049
:1007B00057B5000866B700086AB5000802460F4B37
:1007C0000068516803C390680D4A186000231370D5
:1007D0000C4A13700C4A13800C4A13800C4A138085
:1007E0000C4A13800C4A13700C4A13700C4A137095
:1007F0000C4A13600C4A1360704700BF7C02002053
:100800007D0B0020940A00208C0200208A02002028
:100810008E020020900200207C0B0020960A00200F
:10082000950A0020680B0020640B0020114A136811
:100830000BB1013B1360104A136823B1013B1360F5
:100840000BB90E4A13700E4A13680BB1013B1360CB
:100850000C4A13686BB1013B136053B90A490A781B
:10086000100706D563F3C302084B0A701A88084BB9
:100870001A807047780B0020740B0020940A002027
:10088000700B00206C0B00207C0B00208A020020E3
:100890008C0200202DE9F84FA54AA64EB2F800B010
:1008A000338800255B4506D0A34F3A78143A022AD4
:1008B00027D8A6F800B0A14EA14C3368002B40F019
:1008C0006D8264239C4D33602B78162B00F2668278
:1008D000DFE813F04404AD02C602CC02DA02E00203
:1008E000E902EF0202030D033E03480352038303B0
:1008F0008C039D03AC03FE033B04410459029802A0
:10090000A70202228F49904C0A609B45D3D08F4AA0
:10091000D05C22780D2A00F23182DFE812F00E005E
:100920005500CC002F022F02A501BA01C301D0014E
:100930002F02EB0108021A02F90100230421984654
:10094000DFF80CC2834ADFF810928CF80030117087
:100950005FFA83FE59F82E10D1B9B8F1000F01D01B
:100960008CF800E00022774B75491A600B7813F081
:10097000010F00F092803E2840F08F8062F3000368
:100980000B70764B1A604FF49672754B1A6084E0C8
:1009900091F804A00133824513D1B8F1000F01D0C2
:1009A0008CF800E00B784978303B313903EB830356
:1009B00001EB43036B490B80012323700523137064
:1009C0006BE04FF00108C3E7DFF884C162499CF88F
:1009D000002051F822205F49097812F801E086458D
:1009E00014D1DFF880C1BCF80030013B9BB2ACF8F9
:1009F00000300BB10D284DD19378D278303B03EB0A
:100A00008303303A02EB4303237046E00022914611
:100A1000C1F57F4A8CF800200AF1D30ADFF838C10B
:100A20005FFA82F85CF828C0BCF1000F0CD1B9F174
:100A3000000F04D04B4A1580454A82F800800022FE
:100A4000013B2270338028E09CF800E09CF80150C4
:100A5000AEF1300E0EEB8E0E554405EB4E05ADB2E9
:100A60007F2D24D81CF801E0864520D13D4B1D8008
:100A7000B9F1000F02D0364B83F8008055B99CF8CD
:100A800002309CF80320303B03EB8303303A02EB47
:100A9000430323702F4B01311970338801339BB20C
:100AA000B3F5806F338004BF002333802DE74FF010
:100AB00001090132B2E70A28EFD100232370244B49
:100AC0001B78023B0F2BE8D801A252F823F000BF9D
:100AD000110B0008690B0008850B00089B0A000831
:100AE000AF0B0008AF0B0008DD0B0008E70B000898
:100AF000050C0008DD0B00089B0A00082F0C0008FD
:100B00009B0A0008390C0008450C0008450C000839
:100B10003A78082AC1D84FF4AA73D340DB07BCD572
:100B20000022064B1A60064A137843F0200346E77A
:100B3000900200208E0200207D0B0020780B002008
:100B40007C0B0020740B0020940A002092060020E9
:100B5000790200207802002048BA0008700B0020BB
:100B60006C0B0020920A0020944A1378180794D541
:100B700023F009031370924B1A88924B1A80924B00
:100B8000002203E73B780D2B87D100228F4B1A60A0
:100B90008A4A137823F0220343F0220313708C4B0C
:100BA0001B68002B3FF479AF0320984775E7834A11
:100BB000137823F0420313703B780E3B052B3FF66E
:100BC0006CAF834B1B680BB100209847814B1B789F
:100BD000002B7FF462AF16233B705EE7774A1378F1
:100BE00023F04003EBE6754A137823F008031370F3
:100BF0000022754B1A60764B1B68002B3FF44DAFFB
:100C00000A20D2E7734B1B78002B7FF446AF6F4A64
:100C100013606A4A137823F0600343F06003137093
:100C20006B4B1B68002B3FF438AF0720BDE7634ACE
:100C3000137823F04203C2E6604A137823F042039C
:100C40001370C8E75D4A1378190706D523F0090326
:100C500013705B4B1A885B4B1A803B78013B0D2B62
:100C60003FF61BAF594B8BE75B4A2C28126807D124
:100C700006232370002A3FF410AF584890470CE732
:100C80000021013B21703380002A3FF406AF544815
:100C9000F4E722287FF401AF072300222370514B91
:100CA0001A80FAE6222803D04E4A1388102B01D16D
:100CB0000823A9E6591C11804B4AD054EDE60A28B6
:100CC0007FF4EBAE0023474A23701188464A0F2970
:100CD0009BBF5354394913700A789FBF42F02002DA
:100CE0000A703A4A13603A4B1B68002B3FF4D5AEAA
:100CF00004205AE72C287FF4A2AE364B1B782BB188
:100D00000D2300222370394B1A70C6E60B23C4E76B
:100D10002C28FBD0A0F13002092A3FF690AE334ACE
:100D2000137803EB830300EB4303303B47E63A2899
:100D300001D10C2368E6A0F13002092A3FF67FAE0C
:100D4000284A138803EB830300EB4303303B1380F3
:100D5000A3E6274B9B6803B19847224A1388013BBF
:100D60009BB21380002B7FF498AE23701A4B1B6844
:100D7000002B3FF492AE1F4898478EE600231E4A90
:100D80002370136089E61A4B00201B689847124BAA
:100D90001B680BB11948984715232B702378DA0785
:100DA00040F1E581164A126832B9054A23F0090379
:100DB0001188044A23701180BDE8F88F7C0B002055
:100DC0008A0200208C0200206C0B0020780B00208F
:100DD000680B0020960A0020640B002082B50008F2
:100DE00097B50008920A0020DD0A0020950A00202D
:100DF0007C020020ABB50008740B0020BEB50008D3
:100E0000700B0020914B01201B689847904B1B688A
:100E10000BB19048984716232B704FF4FA73336048
:100E2000BCE7012300222B708B4B1A70B6E78A4A6D
:100E300013782BB1013BDBB213701BB91423ACE761
:100E4000042313702378854823F020032370FFF7D1
:100E500053FB7F4B1B680BB18148984702239CE7EB
:100E600023789E0640F17581032396E77D48FFF7BE
:100E700043FB774B1B680BB17B489847237823F0E3
:100E800020032370042388E72378980640F16181CA
:100E9000052382E77548FFF72FFB237823F0200313
:100EA0002370062379E72378990640F152810723BE
:100EB00073E76F4B1B786BB16E48FFF71DFB644BFC
:100EC0001B680BB16C489847237823F020032370EC
:100ED000082362E76948F0E723789A0640F13981F0
:100EE000634B1B78002B0CBF0C23092355E7644888
:100EF000FFF702FB2220FFF719FB6248FFF7FCFA1D
:100F00002220FFF713FB2C20FFF710FB2220FFF716
:100F10000DFB5D48FFF7F0FA2220FFF707FB2C20BE
:100F2000FFF704FB5948FFF7E7FA2C20FFF7FEFA1A
:100F30005748FFF7E1FA0D20FFF7F8FA0A20FFF70C
:100F4000F5FA434B1B680BB1524898470A2324E734
:100F50005148FFF7D1FA3E4B1B680BB14F489847F9
:100F60000B231AE74E48FFF7C7FA394B1B680BB142
:100F70004C489847132310E74B4F3B78002B3FF426
:100F80000DAF4A48FFF7B8FA2220FFF7CFFA3846EC
:100F9000FFF7B2FA2220FFF7C9FA2C20FFF7C6FAB2
:100FA0002220FFF7C3FA4248FFF7A6FA2220FFF7F4
:100FB000BDFA0D20FFF7BAFA0A20FFF7B7FA244B63
:100FC0001B680BB13B489847237823F0200323701C
:100FD0000D232B7040F2DC5321E723789B0640F170
:100FE000B8800E2304222B701B4B1EE70022324BCD
:100FF00032481A70FFF780FA154B1B680BB1304866
:101000009847237823F0200323700F23C5E6237825
:101010009F0601D51023C0E60F4A1378013BDBB2CF
:101020001370002B00F095800E23B6E6254B1B783D
:10103000002B3FF4B3AE2448FFF75EFA044B1B6865
:101040000BB1224898471123A7E600BF7C0200207D
:10105000640B0020D4B500088802002011BC0008F1
:10106000EAB5000803BC0008F8B500080CB6000893
:10107000960A00201EB600083AB600082CB60008F2
:10108000B9BB0008B70A0020970A00200200002020
:10109000000000204EB60008A5BB000861B600089D
:1010A00091BB000875B60008230B0020F9BB0008AF
:1010B000030B00208CB60008DD0A0020EEBB000800
:1010C0009FB60008F30A0020D3BB0008B0B60008A2
:1010D0003C48FFF711FA2220FFF728FA3A48FFF7B9
:1010E0000BFA2220FFF722FA2C20FFF71FFA22200A
:1010F000FFF71CFA3548FFF7FFF92220FFF716FA31
:101100002C20FFF713FA3248FFF7F6F92C20FFF7EF
:101110000DFA3048FFF7F0F92C20FFF707FA3020DE
:10112000FFF704FA0D20FFF701FA0A20FFF7FEF996
:10113000294B1B680BB129489847237823F060039B
:10114000237012232B70C82369E623789E063FF58F
:1011500011AF012321E6224B1B780BB100235EE681
:1011600023789807F5D559067FF554AFF6E71D4D5E
:101170001D492A88098891423FF41EAE1B4E5F0725
:10118000B05C02D53E2808BF0A20194B5B6898471F
:1011900000283FF411AE22782B8851070AD5F15C64
:1011A0003E2907D1322122F0050242F001022270CD
:1011B000104A116001339BB2B3F5806F08BF002362
:1011C0002B80F9E5E1BB000805000020F30A0020B0
:1011D000ED0A0020D70A0020640B0020C6B60008E4
:1011E000960A00208C0200208A0200209202002031
:1011F0007C020020700B0020014B1860704700BF7C
:10120000680B0020014B1860704700BF640B002082
:101210000022F0B5084BD4B2A14202F1010200D87D
:10122000F0BD5D791E686F1C5F71045D74555C795B
:10123000DD792C405C71EEE734120020021E18BFED
:1012400001224FF40071014804F0DABB000C0140A8
:101250001FB514461A464FF0FF330091CDE9014304
:1012600001460123024804F06BFE04B010BD00BF2C
:101270008C140020FFF7ECBF13B514461A46CDE9D5
:10128000001401230146024804F0EAFE02B010BD3A
:101290008C14002013B514461A46CDE9001401231E
:1012A0000146024804F0A2FF02B010BD8C140020D9
:1012B00007B501228DF807000DF10701034807F07B
:1012C00092FDB0FA80F0400903B000BD9C120020EE
:1012D00010B50446FEF73CFF81B22046BDE8104041
:1012E00009F02EBA10B5164B1B78F3B115490C78DE
:1012F000FF2C15D07E2C144B13D818550020621CDF
:10130000D2B2012A0A7098540AD0134413F8022C5E
:101310000D2A05D113F8013C0A2B01D1FF230B70D4
:1013200010BD00220A701A70FAE7084B5A79196842
:10133000541C5C7188545A79D9790A405A71EFE784
:10134000750D0020760D0020770D00201C12002066
:10135000032810B5184C15D10C21184B18481A78D1
:10136000184B01FB02330F22996809F025FC00237A
:10137000134A2370D3730122134B1A700522134BA7
:101380001A7010BD124B22781B7813431843C0B259
:101390000028F6D1012340F6B8320C2123700D4B02
:1013A000BDE810401A80054B064A1B784B43D11804
:1013B0004968D058FFF7CEB81E0C00201F0C002043
:1013C0005400002098D10008200C00206400002068
:1013D000750D002050000020038830B58B421FD2CD
:1013E000C38B8B4219D9002330F8024BA14211D391
:1013F000028891420ED80B48121BC55A0230C35ABC
:10140000091B5B1B500801FB0300B0FBF2F02844F2
:1014100080B230BD02331E2BE6D14FF47A70F8E76C
:101420000020F6E7F8D00008054B064A03F110014A
:1014300053F8040B8B4242F8040BF9D1704700BFFC
:101440005C1200204C1200200122014B1A707047E0
:10145000951200200122014B1A707047941200204F
:1014600002681E4B10B59A42044612D11C4A1D490F
:1014700013781D480133DBB2282B01BF0023137002
:101480001A4A137808BF43F080031370082203F050
:1014900033FE2368B3F1804F0FD101221449154860
:1014A0000B78154CC2541344227803F00F03013A11
:1014B00012F0FF020B7001D0227010BD0A222270C0
:1014C0000E4A1478032C02D01278042AF5D1002297
:1014D000C254013303F00F030B70EEE7002C014000
:1014E000961200205C12002024150020160E002009
:1014F0006C1200206D1200206A000020981200205B
:10150000F0B5026883790C46D15C0546A1F1A003D1
:1015100091B0512B00F2D986DFE813F052005C0045
:101520006C00B80007013201AB01C8015301710121
:101530008E010A0250046D048A04A704C404E10465
:101540002902FE041B053805550573059105AF05F5
:10155000D706D706D706D706D706D706CD05440245
:101560006102EB0509062C064A0668068606A406F3
:10157000C206D706D706D706D706D706D706D70698
:10158000D706D706D706D706D706D706D706D70673
:10159000D706D706D706D706D706D706D706D70663
:1015A000D706D706D706D706D706D706D706D70653
:1015B000D706D706D706D706D706D7068602CC03A6
:1015C000A0210222204603F0B6FA0D21204603F0A6
:1015D000FAFA08E0A1210D22204603F0ACFA2046D9
:1015E000C14903F003FB2046217A11B0BDE8F04069
:1015F00003F0E9BA0D22A221204603F09CFABB4B6E
:10160000BB4DB3F9001020462980C9B203F0DBFAC4
:101610006978204603F0D7FAB64B2046B3F900109C
:101620002980C9B203F0CFFA6978204603F0CBFADB
:10163000B14B2046B3F900102980C9B203F0C3FAB8
:101640006978204603F0BFFAAC4B2046B3F900108E
:101650002980C9B203F0B7FA6978204603F0B3FADB
:10166000A74B2046B3F900102980C9B203F0ABFAAA
:101670006978204603F0A7FAA24BB3F9001029803D
:101680002046C9B203F09FFA69789FE79E4E112267
:10169000A321204603F04FFA954D3188204629803A
:1016A000C9B203F090FA6978204603F08CFA718889
:1016B00020462980C9B203F086FA6978204603F0F3
:1016C00082FAB18820462980C9B203F07CFA697891
:1016D000204603F078FAF18820462980C9B203F049
:1016E00072FA6978204603F06EFA31892046298023
:1016F000C9B203F068FA6978204603F064FA718988
:1017000020462980C9B203F05EFA6978204603F0CA
:101710005AFAB18920462980C9B203F054FA69788F
:10172000204603F050FAF189A9E70222A4212046BD
:1017300003F001FA0D21204603F045FA217A2046F4
:1017400003F041FA00220121284603F074FA684CA4
:10175000002201212070284603F06DFA6070B4F970
:1017600000202388002A6949694AB5BF5B4213807B
:101770000B800023B6BF00230B80138011B0F0BD97
:101780000222A521204603F0D6F90D21204603F0C0
:101790001AFA217A204603F016FA0022012128467F
:1017A00003F049FA524C002201212070284603F030
:1017B00042FA6070B4F900202388002A5549564A3D
:1017C000D3E70222A821204603F0B5F90D212046D7
:1017D00003F0F9F9217A204603F0F5F900220121FE
:1017E000284603F028FA424C0022207001212846A6
:1017F00003F021FA60702288484B1A80BEE702226B
:10180000A921204603F097F90D21204603F0DBF9CA
:10181000217A204603F0D7F900220121284603F05F
:101820000AFA334C002220700121284603F003FA03
:10183000607022883A4BE0E70222AA21204603F09A
:101840007AF90D21204603F0BEF9217A204603F0F3
:10185000BAF900220121284603F0EDF9244C0022B8
:1018600020700121284603F0E6F9607022882D4B94
:10187000C3E70222A621204603F05DF90D21204690
:1018800003F0A1F9217A204603F09DF900220121FD
:10189000284603F0D0F9164C00222070012128467A
:1018A00003F0C9F9607022881F4BA6E70222A72126
:1018B000204603F040F90D21204603F084F9217AF7
:1018C000204603F080F900220121284603F0B3F9F5
:1018D000074C002220700121284603F0ACF960700B
:1018E0002288124B89E700BFC8D10008921200205D
:1018F000180E0020901200208E1200208C12002062
:101900008A120020881200204C120020100E0020A5
:101910000E0E0020140E0020120E002048000020A1
:1019200046000020E80B002040000020420000207C
:101930000222AB21204603F0FEF80D21204603F0E1
:1019400042F9217A204603F03EF90022012128467F
:1019500003F071F9304C002220700121284603F079
:101960006AF96070B4F900202C4B1A6006E7022275
:10197000B221204603F0DFF80D21204603F023F9C1
:10198000217A204603F01FF900220121284603F0A6
:1019900052F9214C002220700121284603F04BF916
:1019A0006070EBE60222C121204603F0C4F80D214D
:1019B000204603F008F9217A204603F004F90022BA
:1019C0000121284603F037F9134C00222070012131
:1019D000284603F030F960702288114B0DE702228F
:1019E000C221204603F0A7F80D21204603F0EBF8B2
:1019F000217A204603F0E7F800220121284603F06F
:101A00001AF9054C002220700121284603F013F931
:101A100060702288034BF0E6180E0020380000208A
:101A2000680000206600002000254F22F02120469B
:101A300003F081F8B94B03AF1B88ADF80C30B84BFD
:101A40001B88ADF80E30B74B1B88ADF81030B64B85
:101A50001B88ADF81230B54B1B88ADF8143037F940
:101A6000026B2046F1B203F0AEF801352046C6F312
:101A7000072103F0A8F8052DF1D1AD4D20462978B6
:101A800003F0A1F86978204603F09DF8A978204674
:101A900003F099F8E9780025204603F094F8A54B67
:101AA000ADF830501B8809AFADF82430A24B1B882D
:101AB000ADF82630A14B1B88ADF82830A04B1B8811
:101AC000ADF82A309F4B1B88ADF82C309E4B1B88FD
:101AD000ADF82E3037F9026B2046F1B203F073F8FF
:101AE00001352046C6F3072103F06DF8072DF1D12B
:101AF0000025964B06AF1B88ADF81830944B1B8819
:101B0000ADF81A30934B1B88ADF81C30924B1B88F4
:101B1000ADF81E30914B1B88ADF82030904B1B88E0
:101B2000ADF8223037F8026B2046F1B203F04BF8E3
:101B300001352046310A03F046F8062DF2D1002582
:101B4000884B01AF1B88ADF80430874B1B88ADF87C
:101B50000630864B1B88ADF80830854B1B88ADF8E6
:101B60000A3037F8026B2046F1B203F02CF8013549
:101B70002046310A03F027F8042DF2D17D4B0021D5
:101B8000B3F90050204603F01EF80021204603F070
:101B90001AF8E9B2204603F016F8C5F307212046EB
:101BA00003F011F8744B754AB3F90060B2F90050B4
:101BB0001978204603F007F8C6F30721204603F002
:101BC00002F8E9B2204602F0FEFFC5F307216C4D92
:101BD000204602F0F8FF2978204602F0F4FF6978E9
:101BE000204602F0F0FFA978204602F0ECFFE978E9
:101BF000204602F0E8FF634B634AB3F90060B2F994
:101C000000501978204602F0DEFFC6F30721204677
:101C100002F0D9FFE9B2204602F0D5FFC5F3072153
:101C20005A4D204602F0CFFF2978204602F0CBFF24
:101C30006978574D204602F0C6FFA978204602F089
:101C4000C2FF69882046090A02F0BDFFA979204633
:101C500002F0B9FFE9882046090A02F0B4FFA97A28
:101C6000204602F0B0FF69894A4D090A204602F079
:101C7000AAFF29882046C9B202F0A5FF2988464D4F
:101C8000C1F30721204602F09EFF29882046C9B2F1
:101C900002F099FF2988414DC1F30721204602F047
:101CA00092FF29882046C9B202F08DFF2988C1F32E
:101CB00007218BE400261D22F121204602F03BFF84
:101CC000374B09AF1B680993364B1B680A93364B99
:101CD0001B680B93354B1B680C93354B1B680D939E
:101CE000344B1B680E93344B1B680F9357F8045BFF
:101CF0002046E9B202F067FFC5F30721204602F053
:101D000062FFC5F30741204602F05DFF0136204621
:101D1000290E02F058FF072EE8D164E448000020A5
:101D2000E80B002046000020400000204200002078
:101D3000380000202E0000202C000020E60B0020A0
:101D4000E40B002026000020340000201C000020AE
:101D50001600002018000020140000201A000020A7
:101D6000120000203E0000203C00002068000020FF
:101D700066000020240000203200002030000020F7
:101D80000C0C002022000020200000201E0000205B
:101D90004C1200201C0C00201A0C0020180C0020F3
:101DA000FC0B0020F00B0020F40B0020EC0B0020BB
:101DB000080C0020CC0B00204C0000200222AC219B
:101DC000204602F0B8FE0D21204602F0FCFE217AEA
:101DD000204602F0F8FE00220121284602F02BFFE7
:101DE000D44C002220700121284602F024FF6070AC
:101DF0002288D14B01E50222AD21204602F09BFE54
:101E00000D21204602F0DFFE217A204602F0DBFEA3
:101E100000220121284602F00EFFC64C002220704D
:101E20000121284602F007FF60702288C34BE4E4DA
:101E30000222AE21204602F07EFE0D21204602F055
:101E4000C2FE217A204602F0BEFE00220121284671
:101E500002F0F1FEB74C002220700121284602F06A
:101E6000EAFE60702288B64BC7E40222AF2120460A
:101E700002F061FE0D21204602F0A5FE217A2046E7
:101E800002F0A1FE00220121284602F0D4FEA94C56
:101E9000002220700121284602F0CDFE60702288C9
:101EA000A84BAAE40222B021204602F044FE0D21F4
:101EB000204602F088FE217A204602F084FE0022AD
:101EC0000121284602F0B7FE9A4C00222070012121
:101ED000284602F0B0FE607022889B4B8DE40222FF
:101EE000B121204602F027FE0D21204602F06BFEB4
:101EF000217A204602F067FE00220121284602F0E6
:101F00009AFE8C4C002220700121284602F093FE9C
:101F1000607022888D4B70E40222B321204602F0CB
:101F20000AFE0D21204602F04EFE217A204602F0E4
:101F30004AFE00220121284602F07DFE7D4C00224F
:101F400020700121284602F076FE60702288804BC6
:101F500053E40222B421204602F0EDFD0D2120467B
:101F600002F031FE217A204602F02DFE00220121EE
:101F7000284602F060FE6F4C0022207001212846A6
:101F800002F059FE60702288724B36E40222B521BD
:101F9000204602F0D0FD0D21204602F014FE217AE9
:101FA000204602F010FE00220121284602F043FEE6
:101FB000604C002220700121284602F03CFE607037
:101FC0002288654B19E40222B621204602F0B3FDB7
:101FD0000D21204602F0F7FD217A204602F0F3FDA4
:101FE00000220121284602F026FE524C00222070D9
:101FF0000121284602F01FFE60702288574BFFF730
:10200000FCBB0222B721204602F095FD0D2120469F
:1020100002F0D9FD217A204602F0D5FD00220121EF
:10202000284602F008FE434C002220700121284679
:1020300002F001FE60702288494BFFF7DEBB0222EE
:10204000B821204602F077FD0D21204602F0BBFDAD
:10205000217A204602F0B7FD00220121284602F035
:10206000EAFD344C002220700121284602F0E3FDF5
:10207000607022883B4BFFF7C0BB0222B92120468B
:1020800002F059FD0D21204602F09DFD217A2046E7
:1020900002F099FD00220121284602F0CCFD254CDA
:1020A000002220700121284602F0C5FD60702288C0
:1020B0002D4BFFF7A2BB0222C021204602F03BFDC0
:1020C0000D21204602F07FFD217A204602F07BFDA3
:1020D00000220121284602F0AEFD164C002220709D
:1020E0000121284602F0A7FD607022881F4BFFF7F0
:1020F00084BB0222C321204602F01DFD0D21204693
:1021000002F061FD217A204602F05DFD00220121EE
:10211000284602F090FD074C00222070012128463D
:1021200002F089FD60702288114BFFF766BB022226
:10213000C4211EE4180E00202E0000202C000020D8
:10214000E60B0020E40B00202600002034000020D5
:102150001C000020160000201800002014000020A1
:102160001A000020120000203E0000203C00002049
:10217000240000200222C521204602F0DCFC0D21B3
:10218000204602F020FD217A204602F01CFD0022AC
:102190000121284602F04FFD4F4C00222070012102
:1021A000284602F048FD607022884C4BFFF725BBA3
:1021B0000222C621204602F0BEFC0D21204602F07C
:1021C00002FD217A204602F0FEFC00220121284671
:1021D00002F031FD404C002220700121284602F01F
:1021E0002AFD607022883E4BFFF707BB0222C72101
:1021F000204602F0A0FC0D21204602F0E4FC217AEA
:10220000204602F0E0FC00220121284602F013FDE6
:10221000314C002220700121284602F00CFD607034
:102220002288304BFFF7E9BA0222C821204602F08B
:1022300082FC0D21204602F0C6FC217A204602F0E5
:10224000C2FC00220121284602F0F5FC224C0022AB
:1022500020700121284602F0EEFC60702288224B9B
:10226000FFF7CBBA0222C921204602F064FC0D21FF
:10227000204602F0A8FC217A204602F0A4FC0022AD
:102280000121284602F0D7FC134C002220700121C6
:10229000284602F0D0FC60702288144BFFF7ADBADC
:1022A000134D04222B88CA21013320462B8002F0D3
:1022B00042FC0D21204602F086FC29882046090AAE
:1022C00002F081FC2978FFF781B90222204602F052
:1022D00032FCFF21FFF77AB9180E002032000020EF
:1022E0003000002022000020200000201E000020DE
:1022F000B40B0020F0B516464379027905469A42A0
:102300000C46C3B01DD002F0A3FCD0B1012E04BF17
:102310000022154B2146284608BF1A70FFF7F0F837
:102320000022617A02A8D3B299420CD8C6B1FEF756
:102330003FF94FF4807300930022637A02A9FEF7FD
:10234000A9F943B0F0BDA77925687B1CDBB2A37166
:10235000ED5D013200F8015BE5792B40A371E2E706
:1023600002A808F0EDF9ECE76400002010B50D4B71
:102370000D4C1A780D4B0E4853F822100122237889
:1023800002FA03F38B4308BF1A464FF4005103F0DF
:1023900037FB23780133DBB2142B28BF00232370D3
:1023A00010BD00BF97120020B20B0020700000206B
:1023B000001001402DE9F0418C4B8D4C1B788AB008
:1023C000032B5FFA83F840F02B810025012001F0F8
:1023D00043FF4023202229461E20009502F08CF85E
:1023E0001623802214212846009502F085F8402308
:1023F000522229465020009502F07EF87D4E294653
:10240000282002F02DF87C4902A808F02BFC96E861
:102410000E00009502A802F00DF82946552002F0A2
:102420001FF8764902A808F01DFC96E80E000095FA
:1024300002A801F0FFFF1921282002F011F8704BCB
:102440002021B3F900306F4A02A808F077FB94E826
:102450000E00009502A801F0EDFF1921552001F0B2
:10246000FFFF694B2021B3F90030664A02A808F04B
:1024700065FB94E80E00009502A801F0DBFF252122
:10248000282001F0EDFF614B2021B3F900305D4AB7
:1024900002A808F053FB94E80E00009502A801F092
:1024A000C9FF2521552001F0DBFF594B2021B3F94D
:1024B0000030544A02A808F041FB94E80E00009551
:1024C00002A801F0B7FF3121282001F0C9FF514BCC
:1024D0002021B3F900304B4A02A808F02FFB94E802
:1024E0000E00009502A81E2601F0A4FF3121552000
:1024F00001F0B6FF484B2021B3F90030414A02A851
:1025000008F01CFB94E80E0040F6FA74434F009567
:1025100002A801F08FFF3B8842467343B3FBF4F3FC
:10252000C3F13C033C214046DBB2009501F09EFF25
:102530007B8806227343B3FBF4F3C3F13C031046DC
:102540003C21DBB2009501F091FFBB880922734367
:10255000B3FBF4F3C3F13C0310463C21DBB200951E
:1025600001F084FFFB880C227343B3FBF4F3C3F147
:102570003C0310463C21DBB2009501F077FF3B891C
:102580000F227343B3FBF4F3C3F13C0310463C2129
:10259000DBB2009501F06AFF7B8912227343B3FB23
:1025A000F4F3C3F13C0310463C21DBB2009501F08B
:1025B0005DFFBB8915227343B3FBF4F3C3F13C0306
:1025C00010463C21DBB2009501F050FF1822FB8938
:1025D0003C217343B3FBF4F31046C3F13C03009575
:1025E000DBB201F043FF0AB0BDE8F0819812002091
:1025F00024BC000818BC0008DCB60008E0B60008DF
:1026000092120020E4B600088C12002090120020E4
:102610008A1200208E120020881200204C12002006
:10262000002001F019FE02210125084601F018FFE3
:1026300094E80E004548009501F0FCFE022124209C
:1026400001F00EFF424B20211B68424A02A808F00D
:1026500075FA94E80E00009502A801F0EBFE112136
:10266000022001F0FDFE94E80E003B48009501F0C9
:10267000E1FE1121242001F0F3FE0522374B202139
:102680001B6802A803EB430393FBF2F3344A08F000
:1026900055FA94E80E00009502A801F0CBFE202127
:1026A000022001F0DDFE94E80E002E48009501F0B6
:1026B000C1FE2021242001F0D3FE64212A4E02A86D
:1026C000326892FBF1F301FB1322002AB8BF524299
:1026D00020210092254A08F031FA94E80E00009576
:1026E00002A801F0A7FE2F21022001F0B9FE94E814
:1026F0000E001F48009501F09DFE24202F2101F0BF
:10270000AFFE42F226323368009503F58C53133343
:10271000934298BF174894E80E0088BF164801F00E
:1027200089FE01240E237F2219460020009401F027
:102730009DFE1D237F2219460020009401F096FE85
:102740002C237F221946002000944AE7E7B60008B0
:1027500084120020ECB60008F5B6000880120020B4
:10276000FAB6000804B70008080C002009B70008F2
:1027700013B7000818B7000822B7000837B53F4B59
:102780003F4C1A782AB11A78012A02D01B78022B02
:1027900016D12378013B012B12D800232370394A2C
:1027A000394B11781B788B4208D038484B1C415C60
:1027B00003F00F0391B103212170137003B030BDFA
:1027C0002378032B57D801A252F823F09F27000843
:1027D000E1270008EB270008052800080121EBE7A6
:1027E000FFF7E8FD02232370E8E7294804F0F2FC34
:1027F0002028E3D101F056FD0028DFD00023254A30
:102800001370F0E7224804F0E8FC234D10B14FF4B8
:102810007A732B601E4804F0DDFC202816D101F0ED
:1028200061FC98B11D4B1E4A01931E4B1E4900933B
:102830001E481F4B01F09EFC00231E4A1E491370C8
:102840000A7842F008020A702B60CCE72B6801334B
:10285000B3F5FA7F2B60B1D90D4803F057FB012087
:1028600002F0D0FA0A4803F0A9FA01F00DFC01F0D9
:102870002BFC0023E8E70023B5E700BF98120020F7
:10288000B10B0020B00B00206C1200206D12002054
:102890008C14002095120020AC0B00208812002020
:1028A0008E1200208A120020901200209212002026
:1028B0008C12002094120020160E0020074B084AAC
:1028C0001B6812885A63074A1288DA63064A12881C
:1028D0009A63064A12881A64704700BF2C130020BE
:1028E000140E0020100E0020120E00200E0E0020EC
:1028F00013B50B4B044600934FF4AA71094B0A4AD7
:102900000A4808F01BF94FF4AA73002200932046EE
:1029100040F243130549FDF7BDFE02B010BD00BFF4
:102920006DB7000828B7000868B70008210C002020
:1029300013B50A4B044600934FF4AA71084B094A99
:10294000094808F0FBF84FF4AA73002200932046D0
:10295000B3230549FDF79EFE02B010BD72B8000812
:1029600028B7000868B70008210C00202DE9F843BB
:1029700000241F460C7014701C7047F23A53089DD7
:1029800089462B8032490646904608F028F958B10E
:10299000043010F8013FE2B213F0DF0F01D0262B14
:1029A00036D1002309F8023030462A4908F017F9D9
:1029B00060B10023043010F8012FD9B212F0DF0FFC
:1029C00001D0262A2ED1002308F8013030462249B2
:1029D00008F005F958B10023C21C12F8011FD8B243
:1029E00011F0DF0F01D0262926D100233B543046B9
:1029F0001A4908F0F4F848B10023053010F8012F07
:102A0000303AD1B209291DD903B12B80BDE8F88332
:102A10002B2B08BF202309F8043001343F2CB8D1F8
:102A20002246BEE72B2A08BF202208F803200133E4
:102A30003F2BC0D11946C6E7F95401330F2BCCD137
:102A40001846D2E703EB830302EB430293B2D5E7C8
:102A5000E7B80008EDB80008F3B80008F8B80008B7
:102A60002DE9F043344BA9B01E785EB100221A70F4
:102A700047F23152314B3248198829B0BDE8F04352
:102A8000FDF79CBDDFF8BC9099F80030002B42D0D8
:102A90002D4F3B78FF2B3ED1FDF78AFD2B4C804616
:102AA0002B49204608F09BF80546002836D04022E6
:102AB000314608A808F078F84022314618A808F0F6
:102AC00073F8102231460DEB020008F06DF80DF19D
:102AD0000E030093204604AB18AA08A9FFF746FF8F
:102AE0009DF8103033B1164B0F22184604A908F098
:102AF00063F8C673BDF80E300BB1104A1380404620
:102B0000FFF716FF002318A908A889F800303B70CA
:102B10002370FDF71FFD29B0BDE8F08320460D4965
:102B200008F05DF828B14046FFF7E2FE3D702570E1
:102B3000F1E738702070EEE7200C002052000020F2
:102B400054000020750D0020760D0020770D002028
:102B5000FFB8000809B9000840F2012303800023F0
:102B600083708380C380704702780346032A1DD890
:102B7000DFE802F00F021407427842B903221A700C
:102B800005E0417801220029F9D10170827000200E
:102B900070474278012AFAD10222F0E740780022F9
:102BA0000128ECD118709A70D87170470122E6E7BD
:102BB00070B504464FF400411D4802F01BFFA67893
:102BC0001C4A1D491D4DAEB188B113780133DBB2EB
:102BD000072B137003D901236370002313700023A4
:102BE0000B702B78EBB1A3880A33A38070BD6070A3
:102BF0001070F4E70B781670042B0FD9003818BF4B
:102C000001200E70607000232B70A3796BB1A38834
:102C1000002BEBD0092B08D90A3BE6E701330B70F8
:102C2000F1E7A38001232B70DDE70023DDE700BF80
:102C3000000C0140AA0B0020A90B0020A80B0020CB
:102C400037B53E4D2B78DB0934D02B7823F0800349
:102C50002B70FDF7EBFD3A48FFF7AAFF394890F8D3
:102C60004230222B09D0036837491A685B68202359
:102C7000012280F8423006F096FA344B1B7823B1DB
:102C800033490A88C2B1013A0A80324A1378013BBB
:102C900013F0FF0303BF022313702B78137004BFDC
:102CA00043F040032B702C4B1C78013C14F0FF04C4
:102CB00017D01C7003B030BD284803780133DBB255
:102CC000032B94BF1A461346027040F6B8320A80AE
:102CD0000C214B43224AD1184968D058FDF73AFCE1
:102CE000D3E70A221A702B7843F020032B70FFF7EA
:102CF0003DFB1C4A13780133DBB2092B01D813705A
:102D0000D8E71470184C2378042B9CBF0133237030
:102D1000164B1D78002DCDD1FDF796FC0728C9D1A3
:102D20002378042BC6D94FF480732A460093284693
:102D300009230F49FDF7AEFCBCE700BF160E0020CB
:102D4000F80D00209C1200200C0E00201E0C00200C
:102D5000500000206B0000206C0000201F0C0020A1
:102D600098D100080D0E002064000020750D002091
:102D700009000020F8B583780446002B4FD18388E2
:102D8000002B4CD18379002B49D0C579EDB140F6A9
:102D9000B732A388934254D8A3F5FA62B2F57A7F8A
:102DA00053D2354804F016FA20283BD100250426DA
:102DB000E571324B1E7001F0B7FA012001F0D0FB33
:102DC0002F4BA5711E70A5802CE02B4804F002FA51
:102DD000202827D1284601F03FFA01F049FA284679
:102DE00001F0BEFB94F806C02649274ABCF1020F49
:102DF000B1F90000B2F90030204F214E1FD0BCF1D4
:102E0000030F10D0BCF1010F19D135701F4E3D706A
:102E100030801F480D80038015800023A371E37963
:102E2000002BB4D1F8BD022503433D703570F4D1B9
:102E3000164B1B880B80164B1B881380EDE7012572
:102E4000F2E70023E371A380ECE7A3F57A73B3F50F
:102E50007A7F08D2084804F0BDF92028E2D1002585
:102E60000326E571A5E70023E371A3790133A3717C
:102E70004FF4C873E7E700BF8C14002098120020BD
:102E8000971200202E0000202C0000202A00002095
:102E90002800002038B50C46054601880948FEF791
:102EA0009BFA208069880848FEF796FA6080A98816
:102EB0000648FEF791FAA080E9880548FEF78CFAEB
:102EC000E08038BD78D1000858D1000838D100081A
:102ED00018D1000810B594B0142200210CA807F0F6
:102EE00063FE142200210DEB020007F05DFE1022AC
:102EF000002101A807F058FE02244FF4803301227C
:102F0000CDE91143CDE90A234FF4E0130AA80E924C
:102F1000139304F0DDFF08B172B6FEE70F23CDE98D
:102F200005344FF480630790CDE90830214605A8A9
:102F300005F090F908B172B6FEE7122301934FF441
:102F40000043CDE9033001A805F040FA08B172B69C
:102F5000FEE714B010BD00000268084B10B59A429D
:102F60000AD1074C2078FDF781FB2146BDE81040CF
:102F70000122044806F017B910BD00BF0038014017
:102F80000C0E00209C1200200368074A934209D1CE
:102F90001A685B682023012280F842300349044804
:102FA00006F001B9704700BF003801400C0E002048
:102FB0009C120020000000008D4A2DE9F04F15689A
:102FC0008C4ADFF834A214688C4A85B0B2F900B09C
:102FD0008B4ADAF80030B2F9002003900292894A55
:102FE000B2F9007043EA0502224300F0B2805A2190
:102FF0000A224B4302FB0B30642390FBF3F04D435A
:103000004C430190029802FB074402FB005594FBDD
:10301000F3F495FBF3F5019B7B4ACAF80030744B3F
:10302000B2F900801D60734B1C60784B1B68002B4D
:1030300000F09480434403EBD3735B1000934FF490
:103040008F704FF06409714B009A1A60704A1168D2
:1030500000FB01F292FBF9F681FB01024FEAE17CF1
:1030600000FB0CFC01FB02CC5DA3D3E90023A0FB19
:1030700001016144FDF774F8311A664E33889BB242
:10308000952B6ED833889BB2272B31D8624B4FF4E7
:103090008F70C3F80080614B5549B3F90020604B35
:1030A000029C1A605F4B604A1F60232303FB08F3F6
:1030B000136093FBF9F3564A0C60136000FB03F4B2
:1030C00083FB0302DD1745434A4903FB02550F60AA
:1030D000A0FB030142A3D3E90023CAF800B02944AE
:1030E000FDF73EF894FBF9F4484B211AC3F8008031
:1030F00033889BB2312B0AD9444A4C4B10681A686A
:10310000401A10444A4A186013683B4413603388DD
:1031100001339BB2338033889BB2962B0DD164224E
:10312000424B44491B6893FBF2F30B80404B1B68F6
:1031300093FBF2F3404A1BB2138000233F4A136013
:103140003F4A13602B4B1A68364B1A6005B0BDE836
:10315000F08F3C46029DCDF804B05CE7CDF80080CE
:103160006DE7304B00981A681C60324BA21AB3F915
:1031700000306443C31A5B1A019905FB0544694397
:1031800030482F4DB4FBF0F491FBF0F11B1B0B44C6
:10319000062192FBF1F21344284A03981360136846
:1031A00040F6262203F21351914298BF002303995F
:1031B000DA17A3FB013100FB0211D81841EB01061D
:1031C000C01841EB060108A3D3E90023FCF7C8FFB0
:1031D00062232C685C4394FBF9F404442C60B5E74B
:1031E000420A1B0400000000404B4C00000000009D
:1031F000940B0020900B0020980B00208C120020D4
:103200008A12002088120020921200208C0B0020CD
:10321000080C00207E120020040C00208E120020DA
:10322000000C0020880B00200C0C0020840B0020D8
:10323000800B0020C40B0020B60B00208012002061
:1032400084120020285122002DE9F04F614A87B0F6
:1032500013781B0740F17C83137802A823F008033E
:10326000137014225C4BDFF874911A605C4A5D4C59
:10327000D18853885289ADF808300B44ADF80C2042
:1032800013440322B3FBF2F3ADF80A1004A9ADF81E
:103290000E30FFF7FFFDBDF91010534ABDF810E0E6
:1032A0001180BDF91210514ABDF812C01180BDF94C
:1032B00014104F4ABDF8143011800EEB0C021A4462
:1032C000012AB8BF01224B49C9F800204A4A2568A3
:1032D0000E68B2F90000494A55EA0607B2F9002023
:1032E0000DD05F2700EB800007FB0500642502EB93
:1032F000820207FB062290FBF5F092FBF5F20A60D2
:1033000002F57A61B1F5FA5F88BF23226FF0C70139
:1033100088BF424320603A4C88BF2260394A256802
:10332000B2F900204A43832192FBF1F236490A6048
:10333000364908680244142045434FF4757000FB79
:103340000255334A954240DC324A95423FDB4FF406
:103350007A7295FBF2F54FF0640895FBF8F80027B8
:103360002D4A2E4EC2F800802D4A2E4C12680D6058
:10337000019232782760022A40F0438144F6206AA5
:10338000294B2A4A1B88B2F900001BB2C01A284AEE
:10339000002380FB0A01FCF7E3FEDFF89890264A41
:1033A000D9F800B05844C9F8000011780129CBB20F
:1033B0004AD0022B00F01A81002B40F020811F49D7
:1033C000C9F800300B6001234DE01D4DC3E71D4DD2
:1033D000C1E700BF160E00204C000020E00B0020CB
:1033E0005C120020040C00201C0C00201A0C002091
:1033F000180C0020000C0020921200208E120020D9
:10340000140C00208A120020100C00200C0C00204C
:10341000E7ECA43519135BCA080C002098120020B1
:1034200038000020CC0B0020B60B002088120020B2
:10343000B8FF0100BC0B0020C00B0020B80B00201F
:10344000A0BB0D006044F2FFD9F800309749002B73
:10345000D9F80030B8BF5B428B4240F3C3800021F3
:10346000934B196002231370019A337803F0FF0124
:103470000BB9019A2160337833B13378012B03D033
:103480003378022B40F0DA814CF2B33C6545D4BF6F
:103490004FF0000C4FF0010C864BA2EB080283F8B2
:1034A00000C0854BDFF814E21A603223DEF800001A
:1034B000834F101A584302F19501824BB1F5957F65
:1034C00018603B6800F2BD81142101FB02337E4984
:1034D0008B42B8BF0B4649F640418B42A8BF0B4612
:1034E0007A493B60B1F90010CEF8002059434FF4FF
:1034F0007A7391FBF3F1764BB3F9003002FB0311C1
:10350000744B3278B3F90030022A00FB031142F207
:10351000107391FBF3F37048036040F0A7816F4A8A
:103520001278012A40F0A2816D4D6E4AB5F90080F3
:10353000256842F20F7410886B4AA142B2F90090DC
:103540006A4A128840F382811C184C441A442C4465
:103550004244551BBCF1000F05D0654D00232C469D
:103560003B60CEF8003044F62060FFF725FD42F2C4
:103570002832604B1B6803F58C531433934204D9F3
:1035800000252C465C4B3D601D605C4B1A885C4BF3
:1035900092B2952A1B8800F2C48100252C463D601A
:1035A0005A429442B8BF1446AB42A8BF2B4630786B
:1035B0009342B8BF13465349534A002800F0B581DF
:1035C0003078012800F0B1813078022800F0AD8118
:1035D00000231C4648483B60036064420C80002185
:1035E0001180A8E14FF4AF7323603DE7304B1968B9
:1035F000514419601968454B99427FF635AF1770F1
:1036000032E7BCF5FA7FD4BF00220122BEF5FA7F73
:10361000C8BF01323E48B3F5FA7FC8BF013290F807
:1036200000A03C49BAF1030F00F20581DFE81AF06F
:1036300004001000CF00FE00BCF5FA7F0F8002DD11
:103640000123037010E7344BB3F900305B42CBE742
:10365000032A4FF0000C03D10270A1F800C003E769
:103660002E4F002A68D13B8801339BB2052B3B804B
:1036700008D92B4B3A801A702A4B0A801A70022301
:103680000370F1E6284B294A1B681360284A126828
:103690002260254A13600B88002B00F08F80013BCD
:1036A0000B80244BB3F90020DFE600BF8F5F0100E1
:1036B000B80B00209C0B0020FC0B0020F80B002016
:1036C000F00B0020F40B0020C063FFFFE80B00208C
:1036D0004800002046000020EC0B0020C00B00201A
:1036E000E40B002042000020E60B002040000020F8
:1036F00048F4FFFF080C0020841200207E120020F6
:1037000044000020100E00200E0E00201FA1070014
:10371000C30B0020A60B002026000020A40B0020D5
:10372000C20B0020C10B0020C80B0020DC0B0020C6
:10373000A00B0020300000204FF47A704343864AEB
:10374000A7F800C002FB0E33D9F80020834F93FB8B
:10375000F2F30A2293FBF2F3814A83EAE37C1360DB
:10376000804AACEBE37CC2F800C07F4AB2F900208B
:103770005A433A607D4FB7F900705F430CFB07F77F
:1037800097FBF0F0DFF8E8C17A4F3860BCF90070C1
:1037900017B90127ACF80070024492FBF7F27648A3
:1037A0002260B0F90000824202DD0246206002E0A1
:1037B00040428242F9DB714802606AE7704BB3F91C
:1037C0000030984501DA0C236AE76E4B6AE7BCF5D6
:1037D000FA7F0F803FF734AF6B4B6C4A1968107853
:1037E0006B4BB3F9003070B900296A49D8BF5B420E
:1037F00023600B780133DBB2222B01D80B7033E648
:1038000000230B70DFE501280CD100296149C8BFF6
:103810005B4223600B780133DBB2452BEED90023EA
:103820000B701FE600293FF711AFDDE6032A0F807A
:103830007FF406AF18E60F80077015E64FF0000C16
:103840002AE60A21DB0093FBF1F349E6524CA14240
:1038500007DA1C1AA4EB09042C449A1AA2EB0802FA
:1038600077E600EB09042C445242F7E74B4A127802
:1038700012F0FD0F17D042F20F7291423DDC464A22
:1038800091424BDA464A47491288B1F900109A1A18
:10389000521A45492568098854195B1A4349B1F9F8
:1038A00000105B1A27E025685C19002CA3EB0505C6
:1038B00010DD3F4B3B4A1B882344B2F900401C44B7
:1038C000002D10DD3B4B394A1B882B44B2F90050C8
:1038D0001D443FE6F4D0364B324A1B88E31AB2F956
:1038E00000401C1BECE73FF435AE324B2F4A1B88DF
:1038F000EB1AB2F900505D1B2CE6294A29491288BF
:10390000B1F900101A440A4427490D881D44274B79
:10391000B3F900301D442368D41AD9E700252C469A
:1039200018E69C42A8BF1C463AE6002C7FF755AE2D
:10393000148000220A80002B9AB21F491F4BD5BF6A
:1039400052421A800A800023D6BF00220B801A80C0
:1039500007B0BDE8F08F00BF18FCFFFFD40B0020BC
:10396000DC0B0020D80B00202E0000202C000020B3
:1039700024000020D00B00201E000020A00B0020FF
:103980003200002034000020C80B0020C10B0020B2
:1039900026000020C20B0020F1D8FFFFC30B00203F
:1039A00042000020E60B002040000020E40B002035
:1039B0003E0000203C000020140E0020120E0020CB
:1039C0002DE98048A74D9BB001F0F8F9FFF782FA86
:1039D0001022002113A807F0E7F8AB69002243F09A
:1039E0001003AB61AB694FF4005103F01003049373
:1039F000049BAB699C4843F02003AB61AB69002496
:103A000003F020030593059BAB69012743F00403F2
:103A1000AB61AB69022603F004030693069BAB6916
:103A200043F00803AB61AB6903F008030793079BFE
:103A300001F0E6FF00224FF400718C4801F0E0FF36
:103A40004FF40053884813A9CDE91337CDE9154643
:103A500001F08EFE4FF40043844813A9CDE91334DE
:103A6000159401F085FE4FF40073804813A9CDE949
:103A70001337CDE9154601F07BFE6B6922463B43C7
:103A80006B616B6921463B400B200393039B01F064
:103A900077FC0B2001F0A4FC224621460E2001F009
:103AA0006FFC0E2001F09CFC224621460F2001F005
:103AB00067FC0F2001F094FC6D4A6E4BCDE9134476
:103AC00013604FF480731594936014734FF4602364
:103AD0001475546008241046D361146101F0BEFBD4
:103AE00008B172B6FEE7CDE91307159013A9604837
:103AF00001F048FA08B172B6FEE75D4813A9CDE9B6
:103B0000137601F03FFA08B172B6FEE70325584874
:103B100013A91396149501F035FA08B172B6FEE7B1
:103B200013950425524813A9149501F02BFA08B1F6
:103B300072B6FEE7139505254D4813A9149501F0BB
:103B400021FA08B172B6FEE713950625484813A975
:103B5000149501F017FA08B172B6FEE71395072520
:103B6000434813A9149501F00DFA08B172B6FEE7A7
:103B70003F4813A9CDE9135401F004FA044608B1F3
:103B800072B6FEE70EAD01461022284607F00CF88B
:103B90001422214613A807F007F847233648374F69
:103BA0000AAEC0E90073F9230A947460C0E90334D3
:103BB000C0E90544846004F0EDFD08B172B6FEE78B
:103BC0004FF4805729462C480E9704F0C9FE08B1DF
:103BD00072B6FEE7CDE9130013A9274804F0B7FF3A
:103BE00008B172B6FEE7CDE90A003146224805F079
:103BF00033F8824608B172B6FEE701461022284625
:103C000006F0D2FF1422514613A806F0CDFF4FF064
:103C100047094FF0804342F20F78194CCDF828A0A5
:103C20002046C6F804A0C4E90039C4E9038AC4F8F0
:103C300008A0C4F818A004F0ADFD08B172B6FEE704
:103C4000294620460E9704F08BFE08B172B6FEE7B7
:103C5000CDE9130013A9204604F079FF90B172B6A4
:103C6000FEE700BF0010024000100140000C0140C0
:103C70002415002000240140BC130020002C01402A
:103C800074130020CDE90A003146204604F0E4FF19
:103C9000044608B172B6FEE701461022304606F02F
:103CA00083FF14222146284606F07EFFDFF870A12C
:103CB0001C22214613A80894099406F075FF594B5D
:103CC00050460DF1200BCAE90039CAE90248CAF88A
:103CD0001040CAF8184004F05DFD08B172B6FEE766
:103CE000314650460A9704F03BFE08B172B6FEE733
:103CF000504604F07BFD08B172B6FEE7002329466A
:103D00004748CDE90E3304F022FF08B172B6FEE752
:103D1000CDE908005946424804F09EFF024608B12A
:103D200072B6FEE760231590CDE91330179013A902
:103D30003B4804F0B3FD08B172B6FEE704223848F0
:103D400013A904F0ABFD08B172B6FEE708223448AF
:103D500013A904F0A3FD08B172B6FEE70C223048A7
:103D600013A904F09BFD044608B172B6FEE72C4887
:103D700000F0F2FD4FF4E1332B482C4EC0E9024431
:103D8000C0E900630C230461C0E90534C46104F098
:103D9000FBFF044608B172B6FEE706F05DFC24485E
:103DA0002449254BC0E90244C0E900134FF4804385
:103DB000C0E90644C0E90434046201F0FFFF044690
:103DC00008B172B6FEE71022014613A806F0ECFE19
:103DD00047231A4E1A4A0E94C6E9002342F20F7383
:103DE00030466C60C6E90334B460B46104F0D2FCC0
:103DF00008B172B6FEE74FF48053304613A913930F
:103E000004F0AEFD08B172B6FEE7002329460B4868
:103E1000CDE90E3304F020FF044698B172B6FEE7F8
:103E20002C130020000400409C12002000380140A8
:103E30008C14002000580040801A0600E412002074
:103E400000080040514806F091FC514804F0ACFBDA
:103E5000504804F0A9FB504804F0A6FB21464E4808
:103E600004F0F8FE04214C4804F0F4FE08214A480E
:103E700004F0F0FE0C21484804F0ECFE4FF4005131
:103E80000122464801F0BCFD454800F0DFF94548F5
:103E900000F0D6F9444800F0CDF900F06DFB204663
:103EA00000F05EFB414800F0C5F8414800F0C8F85A
:103EB000404800F0CBF800F0E7F83F4A3F4B10468F
:103EC00013603F4B53603F4B9360FCF777FC3E48D9
:103ED000FDF798F93D48FDF78FF901223C493D482F
:103EE00005F061F940F6B8323B4B3C491C703C4B45
:103EF0003C481C703C4B1A8001223C4B1A70FCF76A
:103F000029FB3B4B3B4A3C493C4800F000FF3C4B03
:103F10003C4A3D483D4900F0FAFE3D4B3D4A1C708D
:103F20003D4B3E481C803E4B1C803E4B1C803E4B14
:103F30001C80FEF711FED2F8FC3043F08073C2F80B
:103F4000FC303A4B5C601A6842F001021A60019042
:103F5000FEF776FEFCF79EFCFEF782FD0022264966
:103F60002648FEF7C7F9012228492748FEF7C2F97B
:103F7000FEF7A4FCFEF702FCFFF766F90198FEF7D6
:103F8000F3FD0198FEF7F6FEE2E700BF111200080C
:103F9000BC130020741300202C13002000100140DB
:103FA0009512002051120008791200089412002086
:103FB0007512000895120008000E00203D1200083E
:103FC000B1120008E5120008D112000851130008D0
:103FD0000C0E00209C120020750D00200FB9000867
:103FE0001F0C002022B90008500000201E0C0020E9
:103FF0001C1100201C100020401200203412002050
:104000001C0F00201C0E00201C1200202812002073
:10401000160E002000ED00E0140E0020F80D002028
:10402000100E0020120E00200E0E0020001000E0E6
:1040300072B6FEE7014B1860704700BF8415002080
:10404000014B1860704700BF80150020014B1860BD
:10405000704700BF7C150020044A10B414680B465A
:10406000A44601460122D02010BC604780150020E4
:104070001346044A10B41468CAB2A446014610BCE0
:10408000D02060477C15002013B500240DF10700F7
:104090006B218DF80740FFF7DFFF03230DF10700C9
:1040A0001A218DF80730FFF7D7FF0DF107001C210B
:1040B0008DF80740FFF7D0FF1B210DF10700FFF738
:1040C000CBFF02B010BD00000122044B1A70044B5C
:1040D0001B680BB100221A70704700BF84000020DB
:1040E0008415002008B51A4B19681A4B08781A78FD
:1040F00018B9012A23D0002008BD0020012A087029
:104100001DD0022AF7D101201870134B13491A88C9
:10411000D2BA0A605A881249D2BA0A609A881149FA
:10412000D2BA0A601A891049D2BA0A605A890F496C
:10413000D2BA9B890A600E4ADBBA1360DCE702221E
:104140000E211A7004483B22FFF792FFD3E700BF0D
:1041500084150020840000205415002078150020CC
:1041600074150020701500206C15002068150020C3
:104170006415002070B5DDE9045410B10B4E3668AB
:10418000068011B10A480068088012B1094909681F
:10419000118013B1084A12681A8015B1074B1B68C9
:1041A0002B8014B1064B1B68238070BD781500204E
:1041B00074150020701500206C1500206815002073
:1041C0006415002013B5064B8DF807001C6801220A
:1041D000002378200DF10701A04702B010BD00BFF9
:1041E0009419002013B5064B8DF807001C680122B6
:1041F000002378200DF10701A04702B010BD00BFD9
:1042000090190020044B10B41C68CAB2A4460146A1
:104210004023782010BC604794190020044B10B450
:104220001C68CAB2A44601464023782010BC6047EF
:1042300090190020014B1860704700BF90190020B2
:10424000014B1860704700BF94190020014B1860A3
:10425000704700BF9819002000284FF4806214BFF7
:10426000FF210021014806F09FBC00BF8E150020F1
:1042700038B5B0240A4D2046FFF7A4FF0020FFF711
:10428000A1FF01341020FFF79DFFE4B228468021F2
:10429000FFF7B8FFB82C05F18005ECD138BD00BFA1
:1042A0008E15002038B51C4B1C4C1A6823781178E9
:1042B00019B9012B0AD0002038BD0021013B117033
:1042C000032BF8D8DFE803F0020B1015144B187815
:1042D0005038C0B2FFF786FF02232370EBE70020BF
:1042E000FFF780FF0323F8E71020FFF77BFF04238D
:1042F000F3E70B4D0B4B2878802103EBC010FFF741
:104300008DFF01202B7820700133DBB2072B2B703F
:10431000D1D900232B70CFE7981900208500002009
:104320008E1900208E1500200022054B1A700122E4
:10433000044B1A70044B1B6803B11A70704700BF1E
:104340008E1900208500002098190020030630B542
:1043500010D43F290ED80124CB08074D00EBC31021
:104360002B5C01F0070104FA01F1A2420CBF0B43E0
:104370008B432B5430BD00BF8E1500202DE9F04F2C
:10438000044689B008A800E90E009DF84830A4F161
:1043900020050293EBB25E2B47D8079B23B323443F
:1043A00013F8206C224AB2F8009009EB0603802B28
:1043B0003BDC53889DF815B0019303EB0B02402AB8
:1043C00033DC029B4FF00008B3FA83FA0BFB05F5D0
:1043D0004FEA5A1A6D00C34509D8154B4E441E804A
:1043E000204609B0BDE8F08F9DF81460DAE7002799
:1043F000069A535B0493019B08EB0302D3B2039329
:10440000BE4203D808F101080235E4E7049B07EB3C
:10441000090003FA07F2130454BF5246029A0399A3
:10442000C0B2FFF793FF0137EAE70024D8E700BFE7
:104430008815002070B586B003AC84E80E009DF8A6
:104440002860451E15F8010F40B1009694E80E0053
:10445000FFF794FF034628788342F3D006B070BD7F
:10446000014B188059807047881500202DE9F74FBF
:104470009046A8EB0009A3EB010AB9F1000F1E4614
:10448000B8BFC9F10009BAF1000FB8BFCAF1000AFC
:10449000804594BF4FF0FF33012305460C468E4202
:1044A00094BF4FF0FF3B4FF0010B404631469DF863
:1044B00030200093A9EB0A07FFF748FFCAF1000379
:1044C000454504D1B44202D103B0BDE8F08F214686
:1044D00028460193FFF73AFF019B7900B3EB470FA2
:1044E000BFBF0098A7EB0A072D18EDB28945C2BFE0
:1044F0005C444F44E4B2E3E72DE9F0411446A042A6
:10450000804628BFA046A042064638BF26469942AC
:104510000C4628BF1C46994238BF19460F469DF8E5
:104520001820BC4201D83F2C01D9BDE8F081454696
:1045300007E02B0607D428462146FFF707FF013581
:10454000EDB2B542F5D90134E4B2EAE710B504465C
:104550008120FFF737FE2046BDE81040FFF732BE4E
:10456000034628B10123AF20024A5371FFF72ABE48
:10457000AE20F9E78815002008B5642000F042FC61
:104580000020FFF7EDFF2020FFF71CFE0020FFF7C3
:1045900019FEB020FFF716FEC820FFF713FE00201B
:1045A000FFF710FE1020FFF70DFE4020FFF70AFE78
:1045B000FF20FFF7CBFFA120FFF704FEA620FFF7A7
:1045C00001FEA820FFF7FEFD3F20FFF7FBFDA42022
:1045D000FFF7F8FDD320FFF7F5FD0020FFF7F2FD10
:1045E000D520FFF7EFFDF020FFF7ECFDD920FFF716
:1045F000E9FD2220FFF7E6FDDA20FFF7E3FD1220B8
:10460000FFF7E0FDDB20FFF7DDFD2020FFF7DAFDFF
:104610008D20FFF7D7FD1420FFF7D4FD0120FFF711
:104620009FFF0020FFF718FEFFF722FE0022034B3A
:104630001A805A8001221A7108BD00BF8815002017
:104640000E4B82B09A6942F001029A619A6902F0B7
:1046500001020092009ADA6942F08052DA61DB6965
:10466000074A03F080530193019B536823F0E063F2
:1046700043F08063536002B0704700BF00100240F7
:104680000000014030B5054687B01022002102A885
:1046900006F08AFA2A68204B9A423BD103F56C4314
:1046A0009A691E4842F400729A619A6902A902F45A
:1046B00000720092009A9A69194C42F004029A61C1
:1046C0009B69FF2203F004030193019B0323CDE9BF
:1046D000022301F04DF880204FF480720023C4E9DA
:1046E00003024FF480620F492046C4E90013C4E975
:1046F0000523A360E36100F0A7FE08B1FFF798FC73
:10470000002212202C621146656200F039FE122050
:1047100000F066FE07B030BD0024014000080140F3
:10472000E01400200800024030B5054687B0102292
:10473000002102A806F038FA2A682E4B9A4256D178
:104740002D4C4FF44061A3692C4843F00803A3614A
:10475000A36903F008030093009B1223CDE9021321
:10476000032302A9059301F003F8E369802243F4CF
:104770008003E361E369224803F480030193019B12
:104780000023204CC4E900032046C4E90323C4E904
:104790000533A360E36100F057FE08B1FFF748FC62
:1047A0001023194AAC636562184CC4E90023002346
:1047B00080222046C4E90232C4E90433C4E9063346
:1047C00000F042FE08B1FFF733FC00222120114621
:1047D0006C63656200F0D4FD212000F001FE002230
:1047E0002220114600F0CCFD222000F0F9FD07B098
:1047F00030BD00BF0058004000100240000C0140D6
:1048000058000240481400204400024004140020D4
:104810000268114B10B59A4204461CD10F4A4FF45E
:104820008061D3690E4823F48003D36101F074F8EA
:104830004FF400610A4801F06FF8A06B00F034FEFD
:10484000606B00F031FE212000F0D8FDBDE8104083
:10485000222000F0D3BD10BD0058004000100240DF
:10486000000C01401FB50368374A93422CD1374BE7
:1048700018209A6942F400629A6100229B691146ED
:1048800003F400630093009B00F07AFD182000F011
:10489000A7FD00221920114600F072FD192000F03A
:1048A0009FFD00221A20114600F06AFD1A2000F038
:1048B00097FD00221B20114600F062FD1B2005B071
:1048C0005DF804EB00F08CBDB3F1804F11D103F51E
:1048D0000433DA691C2042F00102DA610022DB694C
:1048E000114603F001030193019B00F049FD1C20D8
:1048F000E5E7174A934210D1144B1D20DA6942F0C4
:104900000202DA610022DB69114603F0020302931E
:10491000029B00F035FD1D20D1E70E4A934210D1D5
:104920000A4B1E20DA6942F00402DA610022DB69D8
:10493000114603F004030393039B00F021FD1E20A6
:10494000BDE705B000BD00BF002C014000100240D3
:10495000000400400008004010B5044686B0102254
:10496000002102A806F020F92268114B9A421CD1BE
:1049700003F503339A690F4842F008029A619B6974
:10498000332203F008030193019B022302A9CDE91E
:104990000223059300F0ECFE074A536823F44063BA
:1049A00043F0E06343F40063536006B010BD00BF02
:1049B00000040040000C01400000014010B5044616
:1049C00086B01022002102A806F0EEF822681B4BE8
:1049D0009A4230D103F558439A69194842F480420B
:1049E0009A619A6902A902F480420092009A9A6937
:1049F000002442F004029A619B694FF4007203F0B4
:104A000004030193019B0223CDE9022303230593B1
:104A100000F0AEFE4FF48063094802A9CDE90234EC
:104A2000049400F0A5FE25202246214600F0A8FCB3
:104A3000252000F0D5FC06B010BD00BF00380140B5
:104A400000080140FEE7FEE7FEE7FEE7FEE77047ED
:104A50007047704700F0C4B9014800F0F1BD00BFD5
:104A6000E0140020014800F0EBBD00BF041400205A
:104A7000014800F0E5BD00BF48140020014800F0E7
:104A800001BA00BF24150020014802F037BC00BF66
:104A900090280020FFF7F8BF014803F0B4BD00BF25
:104AA000BC130020FFF7F8BFFFF7F6BFFFF7F4BF16
:104AB000014803F0A8BD00BF74130020014803F0B3
:104AC000A2BD00BF2C130020014803F09CBD00BF15
:104AD000E4120020014801F083BE00BF8C140020C6
:104AE000014802F0D7BA00BF8C140020014804F03E
:104AF000F7B900BF9C1200200A4A0346106810B59F
:104B000008B9094810600949094C0344091B8B4244
:104B100006D906F07BF80C2303604FF0FF3010BD80
:104B20001360FCE79C190020B02C002000500020EE
:104B30000004000070470346002030B51872587911
:104B40001C68451C5D715525987125545879DC7990
:104B500001322040451C5D714E251C68D2B225549F
:104B60005879DC792040451C5D7145251C68255429
:104B70005879DC792040451C5D7152251C6825540C
:104B80005879DC7920401C68451C5D7122545879A5
:104B9000DC794A402040451C5D713A251C6825544B
:104BA0005879DC7920401C68451C5D712154587986
:104BB000DC792040587107205872187A504080F0F4
:104BC0003600187230BD034610B5427A0132427287
:104BD0005A790068541C5C7181545A79D879024022
:104BE0005A711A7A81EA0200187210BD002337B593
:104BF0008DF807309DF80730CB5C13B9007A03B00D
:104C000030BD437A9DF8074001334372437902680F
:104C10005D1C45710C5DD4544379C27913409DF8F5
:104C200007204371531CDBB28DF807308B5C027A8E
:104C300053400372DEE7034610B5C479807901441E
:104C4000214018689971405C11440C409C7110BD62
:104C5000F0B50024052645790379AB4201D1002047
:104C6000F0BD827A072A50D8DFE802F0040F1C2238
:104C7000282D4F3E0268D25C552A01D10122827252
:104C8000C279013313400371E6E70268D25C4E2A11
:104C900001D10222F3E7552AF2D000228272013BB1
:104CA000DBB2EDE70268D25C452A1BD10322E6E7BE
:104CB0000268D25C522A15D10422E0E70268D25C75
:104CC00086724272DCE70268D25C3A2A0AD1072176
:104CD000C2798172591C0A408271427A82F036028E
:104CE0000272CDE78472DAE7427A0768013AD2B2FB
:104CF000017A42721AB1FA5C51400172C0E78272C5
:104D0000FA5C8A42BCD10120AAE78472B8E710B5E8
:104D100002604FF07F440022446002818272C1E948
:104D200000340A818A7210BDFFF704FF0B480C495A
:104D30000C4A002302E0D458C4500433C4188C42F7
:104D4000F9D3094A094C002301E013600432A2425E
:104D5000FBD305F061FFFEF733FE70470000002033
:104D60005C02002010D200085C020020B02C002061
:104D7000FEE7000038B50E4B05461A784FF47A73FB
:104D8000B3FBF2F30B4A1068B0FBF3F000F048FB02
:104D9000044658B90F2D09D8024629464FF0FF3076
:104DA00000F0EEFA2046044B1D6038BD0120FCE700
:104DB0008C0000208800002090000020074A08B5E1
:104DC0001368032043F01003136000F0C7FA0F20AC
:104DD000FFF7D0FFFFF734FC002008BD00200240A1
:104DE000034A044B11681B780B441360704700BFE3
:104DF000A01900208C000020014B1868704700BFEC
:104E0000A019002038B50446FFF7F6FF0546631CDD
:104E10001EBF044B1B78E418FFF7EEFF431BA342B1
:104E2000FAD338BD8C000020436A10B59A6A12F09C
:104E3000500F1BD19A6A42F400729A621A68926803
:104E400002F46022B2F5602F0CD11A7B52B99A6A33
:104E500022F480729A629A6AD2045EBF9A6A42F021
:104E600001029A621846FCF7DFFA10BD1B6ABDE822
:104E700010401B6B1847704708B5406AFFF7FBFFEF
:104E800008BD7047036870B51D685E680446B006CB
:104E900026D5A90724D5A26AD2065EBFA26A42F42B
:104EA0000072A2629A6802F46022B2F5602F10D1FB
:104EB000227B72B95A6822F020025A60A36A23F456
:104EC0008073A362A36AD8045EBFA36A43F00103A0
:104ED000A3622046FCF7A8FA6FF0120223681A605A
:104EE000310630D56A072ED5A36ADB065EBFA36AFA
:104EF00043F40053A36223689A6802F4E042B2F5D7
:104F0000E04F0AD05A68500516D49A6802F460221D
:104F1000B2F5602F10D1227B72B95A6822F080025C
:104F20005A60A36A23F48053A362A36AD9055EBFC3
:104F3000A36A43F00103A362204600F00DFA6FF06C
:104F40000C0223681A6072060CD5EB070AD5A36A17
:104F5000204643F48033A362FFF793FF6FF0010212
:104F600023681A6070BD7047406A08B5836A43F0D1
:104F700040038362C36A43F00403C362FFF7F3FF95
:104F800008BD0000002373B5019390F82430044657
:104F9000012B6CD0012380F824304D680268062D67
:104FA000086805EB850322D81F26556B053B9E40FC
:104FB00025EA060500FA03F32B43536309288B689F
:104FC00000EB40054FF0070129D9D6681E3DA940E6
:104FD00026EA0101AB400B43D360A0F11003012B83
:104FE00025D90020002384F8243002B070BD0C2D98
:104FF0004FF01F0509D8166B233B9D4026EA050597
:1050000000FA03F32B431363D8E7D66A413B9D4074
:1050100026EA050500FA03F32B43D362CEE71069B5
:10502000A94020EA0101AB400B431361D9E7114BC2
:105030009A4216D193681B02D3D49368102843F484
:1050400000039360CDD10C4B0C4A1B68B3FBF2F309
:105050000A2253430193019B002BC2D0019B013BC9
:10506000F8E7A36A012043F02003A362BAE7022015
:10507000BBE700BF002401408800002040420F0031
:10508000002337B50193036804469A68D20702D516
:10509000002003B030BD9A6842F001029A60144BC0
:1050A000144A1B68B3FBF2F30193019BE3B9FFF7CA
:1050B000A3FE054623689B68DB07E9D4FFF79CFE47
:1050C000401B0228F6D923689B6813F00103F1D135
:1050D000A26A012042F01002A262E26A84F824303F
:1050E00042F00102E262D4E7019B013BDCE700BF32
:1050F0008800002040420F002DE9F0413F4B9046D0
:10510000026804469A420F4602D03D498A4203D1C2
:105110005B6813F4702F6DD194F82430012B6BD0A1
:105120000123204684F82430FFF7AAFF0646002812
:105130005DD1A56A2168324B25F4706525F0010523
:1051400045F480759942A56204D12C4A536813F442
:10515000702F3ED1A36A23F48013A3624B685A05D3
:1051600005D5A36A23F4405343F48053A362A36A92
:10517000206A13F4805318BFE36A3A4618BF23F03D
:105180000603E362002384F824301E4B4C31836213
:105190001D4BC3621D4B03636FF0020341F84C3C8F
:1051A00051F8443C43F4807341F8443C434600F0DA
:1051B000A5F923689A6802F46022B2F5602F9A6814
:1051C0000CBF42F4A00242F480129A603046BDE85F
:1051D000F081A36A43F48013A36253685B0541BF67
:1051E000A06A20F4405040F48050A062BFE7002342
:1051F00084F824300126E9E70226E7E7002401408D
:1052000000280140294E0008794E0008694F000827
:1052100038B5036804469A68D10701D4002038BD28
:105220009A6822F001029A60FFF7E6FD05462368BE
:105230009B68DB07F2D5FFF7DFFD401B0228F6D99C
:1052400023689B68DA07F2D5A36A012043F01003B4
:10525000A362E36A43F00103E362E0E7F8B50446C2
:1052600000286DD0836A23B9C36280F82430FFF729
:1052700009FA2046FFF7CCFFA36A13F0100361D1AF
:1052800000285FD1A26A616822F4885222F00202EB
:1052900042F00202E569A668A262227B2943B6F5C4
:1052A000807F41EA420136D0771E7D427D412D024A
:1052B000277D012F06D182BBA269013A45EA42321D
:1052C00042F400652268B6F5807F576827F4694785
:1052D00045EA0705556097681D4D05EA070545EA4B
:1052E0000105956001D0012E02D12369013B1B0508
:1052F000D56A25F470052B43D3629268154B134091
:10530000994213D10023E362A36A23F0030343F01D
:105310000103A362F8BD3546CAE7A26A42F0200243
:10532000A262E26A42F00102E262CBE7A36A23F0E2
:10533000120343F01003A362E36A43F00103E36244
:105340000120E7E7A36A43F01003A362F8E700BF78
:10535000FDF7E1FFFE0E1FFF704700000749030243
:10536000CA6803F4E06322F4E0621204120C1343EF
:1053700043F0BF6343F40033CB60704700ED00E0BF
:10538000154B30B5DC68C4F30224C4F10703251DB6
:10539000042B28BF0423062D4FF0FF3594BF0024B3
:1053A000033C05FA03F321EA0303A54022EA0502C0
:1053B000A340002843EA0203ACBF00F16040074A63
:1053C0004FEA0313DBB2ABBF00F5614000F00F0002
:1053D00080F80033135430BD00ED00E014ED00E020
:1053E000002807DB01234109034A00F01F00834026
:1053F00042F82130704700BF00E100E000280CDBDC
:1054000001220649430900F01F008240203341F881
:105410002320BFF34F8FBFF36F8F704700E100E091
:105420000138B0F1807F0BD24FF0E023F021054A24
:10543000586182F823100020072298611A61704792
:105440000120704700ED00E0034610B530B301685D
:105450001420134A0A44B2FBF0F292001A64114A73
:10546000DA63022283F82120D3E901242243DC6895
:10547000086822431C696FF30D1022435C692243C4
:105480009C692243DC69224302430A600020012216
:10549000986383F8200083F8212010BD0120FCE7E9
:1054A000F8FFFDBF0000024010B508B30168114AC3
:1054B0000B680A4423F001030B6000230B604B6070
:1054C0008B60CB601421B2FBF1F201210A4C9200F7
:1054D000026401FA02F2C46362608363C0E90A33C2
:1054E000C0E90C3380F8213080F82030184610BD18
:1054F0000120FCE7F8FFFDBF00000240F0B590F886
:105500002040012C34D0012480F8204090F8214024
:10551000012CE5B24FF0000428D1022680F821606A
:1055200084630468266826F001062660D0E90F67C8
:10553000BD40756063604368102BC36A0BBFA260F7
:10554000A160E160E2604BB1236843F00E030020EC
:105550002360236843F001032360F0BD236823F038
:1055600004032360236843F00A03F0E780F8204037
:105570000220F2E790F821200346022A06D00422F6
:1055800082630120002283F8202070470268C06BEC
:10559000116821F00E011160116821F00101116004
:1055A00001211A6C01FA02F24260002083F82110F6
:1055B000E8E7000008B590F82130022B03D004235F
:1055C0008363012008BD03681A6822F00E021A6086
:1055D0001A6822F001021A60174A93421FD014324F
:1055E00093421ED0143293421DD0143293421DD0E8
:1055F000143293421DD01432934214BF4FF0807383
:105600004FF480130D4A5360012380F821300023AA
:1056100080F82030436B03B198470020D2E7012384
:10562000F0E71023EEE74FF48073EBE74FF480537D
:10563000E8E74FF48033E5E708000240000002404D
:1056400070B40425C66B026C34680368954025422B
:10565000196832D04D0730D51A6896065EBF1A68B1
:1056600022F004021A603E4A934219D01432934247
:1056700018D01432934217D01432934217D01432F8
:10568000934217D01432934214BF4FF080634FF40B
:105690008003344A5360C36A002B5ED070BC184745
:1056A0000423F6E74023F4E74FF48063F1E74FF477
:1056B0008043EEE74FF48023EBE702259540254237
:1056C00035D08D0733D51A68940606D41A6822F0AF
:1056D0000A021A60012280F82120214A934219D03F
:1056E0001432934218D01432934217D0143293429A
:1056F00017D01432934217D01432934214BF4FF094
:1057000000734FF40013174A5360002380F82030D1
:10571000836AC1E70223F6E72023F4E74FF400731E
:10572000F1E74FF40053EEE74FF40033EBE70825C1
:105730009540254211D009070FD5196821F00E01B7
:105740001960012303FA02F27260836380F821304A
:10575000002380F82030036B9EE770BC704700BFC9
:10576000080002400000024090F82100704700004D
:105770002DE9F74F00244FF00F0E2646DFF884C1C5
:10578000614B00F104080A6832FA06F502D103B051
:10579000BDE8F08F012505FA06F702EA070537EAAA
:1057A000020276D14A68032A07D8013A022A00F297
:1057B0008380DFE802F091969C00122A00F094802A
:1057C00069D8112A00F08A80FF2D94BF8146C14616
:1057D0004FEA8602D9F8007088BF203A0EFA02FA22
:1057E00027EA0A0704FA02F21743C9F80070D1F851
:1057F000049019F0805F4CD0DCF8182026F00307E5
:1058000042F00102CCF81820DCF8182007F180479C
:1058100002F00102019207F5803706F0030A019AAF
:105820004FEA8A0ABA680EFA0AFB22EA0B0B374AD9
:10583000904260D002F5806290425ED002F58062B4
:1058400090425CD002F58062904214BF0422032291
:1058500002FA0AF242EA0B02BA609A6819F4801F4F
:1058600014BF2A43AA439A60DA6819F4001F14BFD0
:105870002A43AA43DA605A6819F4003F14BF2A4346
:10588000AA435A601A6819F4803F14BF2A43AA43F6
:105890001A60013677E7DFF878904A450CD014D8C3
:1058A000A9F580194A4507D009F570294A4503D062
:1058B000A9F580194A4587D18A68D2B1012A4FF0EB
:1058C00008040CBF076147617EE7DFF848904A454E
:1058D000F2D009F58039EDE7CC6875E7CC6804347F
:1058E00072E7CC6808346FE7CC680C346CE70024AE
:1058F0006AE7042468E70022AAE70122A8E7022257
:10590000A6E700BF0010024000040140000801406B
:1059100000002210000031102DE9F74F4FF0040B6A
:1059200000224FF0010A4FF00F0800EB0B03019328
:105930002E4B31FA02F402D103B0BDE8F08F0AFA1F
:1059400002F70F4049D022F0030404F1804404F52B
:10595000803402F0030CA5684FEA8C0C08FA0CF9AD
:1059600009EA050E224DA84239D005F58065A84206
:1059700037D005F58065A84235D005F58065A84289
:1059800014BF0425032505FA0CF575456FEA0706D3
:105990000FD11D6835401D605D6835405D60DD6874
:1059A0003540DD609D6835409D60A56825EA0905A4
:1059B000A560FF2F94BF0746019F4FEA82043D6810
:1059C00088BF203C08FA04FC25EA0C050BFA04F415
:1059D00025433D60C4683440C4600132A9E7002516
:1059E000D1E70125CFE70225CDE700BF0004014044
:1059F0000008014080680840003818BF0120704747
:105A00000AB1016170470904FBE7016800224B6994
:105A100013F4806310D06FF480634B612023026322
:105A200080F83D3080F83E20036C80F83C2043F045
:105A30000403036401207047184670472DE9F846B7
:105A400006460F4691461D464FEA114A3368BAF1A1
:105A5000010F39D15C6927EA0404A4B2B4FA84F4D2
:105A60006409A14501D0002024E06A1CEFD0FFF7B3
:105A7000C3F9089BC01AA84201D8002DE6D1BAF19B
:105A8000010F336818D15B6927EA03039BB2B3FAAD
:105A900083F35B099945D9D1002320220120336388
:105AA00086F83D2086F83E30326C86F83C3042F075
:105AB00020023264BDE8F8869B69DB43C3F34003F0
:105AC00083F00103DBB2E5E79C69E443C4F34004DF
:105AD00084F00104E4B2C4E72DE9F04104460F4626
